:1000000016C2000031C200002FC200000C94B820BC
:100010002BC2000029C2000027C2000025C2000038
:1000200023C2000021C200000C949E250C946B2674
:100030000C943D1F19C2000017C2000015C2000039
:1000400013C2000011C200000FC200000DC2000068
:100050000BC200000C94DF1F07C2000005C20000A5
:1000600003C2000001C20000FFC10000FDC100008A
:10007000FBC10000F9C10000F7C10000F5C100009C
:10008000F3C10000F1C10000EFC10000EDC10000AC
:10009000EBC10000E9C10000E7C10000E5C10000BC
:1000A000E3C10000E1C10000DFC100001B001C0033
:1000B0001200180034000B000C240822042837001A
:1000C00033001D000D000E0036000000000000008F
:1000D00029422C21100013000F0006000A00150011
:1000E00011341732163807001400190009001A00DD
:1000F00005000000000000002A43283114001A0007
:1001000008001500170004001624072209280A0019
:100110001D001B0006001900050000000000000083
:1001200029422C00025712000C0018001C0033005A
:100130000F340E320D380B000557370004570357A4
:1001400011000000000000002A432800417E427E8A
:10015000437E447E2A082B022B00E100E3002A04A0
:1001600014000000457E467E4C04000000000000A4
:10017000000000004F12521251125012501A4F003C
:1001800052005100500050184F1452145114501482
:100190005016000000000000407E2C0F1E021F02BF
:1001A00020022102220259005A005B005C005D001F
:1001B0002F0230022D002E02005700000000000028
:1001C0002D022E003802250231022402015762005E
:1001D000610060005F005E002702260230002F00F1
:1001E000380000000000000000000000477E000012
:1001F000220A210A210B00000000470048000608DF
:100200005000510052004F0019080000000000008B
:1002100064522C0000000000A800AE002900BB00C2
:10022000A900AA00BC002A004F0052005100500053
:100230000000000000000000645228002C0028008C
:1002400000002C212831000007220E320000082275
:100250001732000000000000000000002A2B2800D8
:100260000000000000000000000000000000002965
:10027000000000002C1E3420212224342627252EA5
:10028000362D3738271E1F202122232425263333DD
:10029000362E37381F0405060708090A0B0C0D0E09
:1002A0000F101112131415161718191A1B1C1D2FD5
:1002B0003130232D350405060708090A0B0C0D0EF5
:1002C0000F101112131415161718191A1B1C1D2FB5
:1002D0003130354C0000000000000000000000003C
:1002E000000000000000000000000000000000000E
:1002F00000000000000000007E0F00D4FFFFFFC7D9
:10030000000000781A03430068006F0063006F006C
:100310006C006100640020005200470042000000B1
:100320000A036A006D006E007700000004030904F0
:1003300009023B00020100A0FA09040000010301C8
:100340000100092111010001224400070581030871
:10035000000109040100010300000009211101004E
:1003600001226D0007058203200001120100020036
:1003700000000804185030010001020001050109C5
:1003800080A101850319012AB700150126B7009540
:100390000175108100C0050C0901A1018504190136
:1003A0002AA002150126A002950175108100C00542
:1003B000010906A1018506050719E029E7150025B1
:1003C000019508750181020507190029EF1500251F
:1003D0000195F0750181020508190129059505753A
:1003E000019102950175039101C005010906A10162
:1003F000050719E029E71500250195087501810217
:100400009501750881010507190029FF150026FFD0
:1004100000950675088100050819012905150025B4
:1004200001950575019102950175039101C0112493
:100430001FBECFEFDAE0DEBFCDBF12E0A0E0B1E03B
:10044000ECE3F2E502C005900D92A234B107D9F7B2
:1004500024E0A2E4B2E001C01D92A230B207E1F7AD
:100460000E94D5140C94D528CBCD80549E4788305B
:10047000910508F03EC0FC01E952F74DDB011596ED
:100480008C910C943828882309F434C083E090E0E0
:10049000E3D58FEF6ED38CE2ECD283D506C08823F0
:1004A000E1F388E866D38FE2E4D280E00895882300
:1004B000A1F388E85ED380E3F7CF882371F383E369
:1004C00058D38BE2F1CF882341F381E1F9CF882320
:1004D00021F381E14ED380E5E7CF8823F1F281E17A
:1004E00048D38FE4E1CF8823C1F28CEC42D38CE077
:1004F000DBCF81E008958530B8F46830A8F445304A
:1005000098F450E095E0699F400D511D1124FA01C7
:1005100098E2899FE00DF11D1124EE0FFF1FE455B5
:10052000FF4F85919491089581E090E00895E3CF85
:10053000089584E090E008958430910550F447E0F8
:10054000489F9001499F300D1124C90180509F4F51
:10055000089590E080E00895EFCF089586E090E060
:1005600008958630910540F424E0880F991F2A955C
:10057000E1F7845E9E4F089590E080E00895F1CF0A
:1005800008959C013A9521153F4150F5FC01EE2755
:10059000F170BC0166277270AC01442754709C0155
:1005A0002227387094FF0EC080E1EF2B09F480E021
:1005B000672B09F08062452B09F08064232B89F0BA
:1005C0008068089581E0EF2B09F480E0672B09F043
:1005D0008260452B09F08460232B19F08860089510
:1005E00080E00895CF93DF93EB01CBDFFE01099507
:1005F000DF91CF910895CF93DF93EC01805E910955
:10060000089720F06AEB77E0209711F469EB75E02A
:10061000CE01E8DF8C2F2DD2DF91CF910895CF93BB
:10062000DF93EC0163D2CE01805E9109089720F040
:100630006FEB77E0209711F46EEB75E0CE01D2DF1F
:10064000DF91CF91089581E00895FDCF089581E075
:1006500008950BCF08950895FECF0895A6E0B0E069
:10066000E4E3F3E00C944D2849835A839E83309150
:10067000500289819A81311117C03E81332389F05C
:10068000222379F0BED5182F682F89819A8198D5B9
:1006900069817A81812F0E9404102696E3E00C94F0
:1006A00069289FD5182FF4CFACD569817A81F3CF13
:1006B000FC01262F87819085009739F44081518174
:1006C0006281738184819581C9CF0895CF93DF932F
:1006D000EC0161E0EDDFBE01B8DF882351F061E09D
:1006E000CE01E6DFBE010E948B178170DF91CF91B2
:1006F000089580E0FACFCF93DF93EC0160E0D8DF7C
:10070000BE01AADFDF91CF91089521E030E0A90179
:1007100002C0440F551F8A95E2F7CA018DC4CF93DA
:10072000C82F81E090E00C2E02C0880F991F0A9418
:10073000E2F70E94960D8C2FE8DFCF91089581E0BB
:100740000895FDCF0895CF93C82F2BD48C2FF9DFB8
:100750002FEF84E39CE0215080409040E1F700C0FF
:100760000000CF91089581E0EEDF0C94032080E03B
:10077000EADF0C9414200F931F93CF93DF938C0127
:1007800061E096DFEC01B8010E94A91C882321F0EA
:1007900061E0C8018DDFEC01B801CE015ADF8111A3
:1007A00006C080E0DF91CF911F910F910895B801AD
:1007B000CE010E9421158823A1F3B801CE010E9429
:1007C000CD1C882371F3B801CE010E9450198823F3
:1007D00041F3B801CE010E94FD1B882311F3B8013B
:1007E000CE010E94AA198823E1F2B801CE010E942D
:1007F00082198823B1F2B801CE010E9442118823E8
:1008000081F2F8018581882361F0C330FCE7DF07BE
:10081000D9F050F4C115ECE7DE07A1F0C130DC4798
:10082000A9F0C80114DFBECFCB358CE7D80799F00B
:10083000CC35ECE7DE0761F0CA35DC4791F70E9462
:10084000770DEFCF90DFADCF0E947B0D90DFA9CF6A
:100850000E946F0DE6CF0E94790DE3CF0E941E1F0C
:10086000B2C0B3D00C94221F2F923F924F925F924E
:100870006F927F928F929F92AF92BF92CF92DF92B0
:10088000EF92FF920F93CF93DF931C0129013A015E
:100890006B0181E0C81AD108E101CC0DDD1D188281
:1008A000F12CE12C8AE0882E912CA12CB12CEC1497
:1008B000FD0498F0C101DF91CF910F91FF90EF906F
:1008C000DF90CF90BF90AF909F908F907F906F9070
:1008D0005F904F903F902F900895C301B201A50102
:1008E00094010E941628605D603319F4E114F1044C
:1008F00031F0411451046104710409F4602F6A93CA
:10090000C301B201A50194010E94162829013A01F0
:100910008FEFE81AF80ACBCF0F9320919401309112
:1009200095012817390721F420914A02261789F0EA
:10093000909395018093940160934A029C0150E04A
:1009400040E0062F66E070E084E492E08DDF0F91D6
:10095000089584E492E0FBCF292F332740E021154E
:10096000310511F0C90148E09C0164E036952795F6
:100970006A95E1F72115310511F04C5FC9019C0121
:1009800036952795369527952115310511F04E5F3F
:10099000C90196958795892B09F04F5F842F08959B
:1009A00081E008950895CF93DF93D82FF9DFC82F02
:1009B000882311F08D2FF6DF8C2FDF91CF910895D2
:1009C0000895F1CF089580E0FCCF0E94551DF9CF26
:1009D000CF930E94551DC82F80914B028C1771F048
:1009E000C0934B020E94A81F60934C0270934D026B
:1009F00080934E0290934F028C2FE3DFCF910895A6
:100A0000AFE0B0E0E6E0F5E00C944C284A875B8765
:100A10006C877D878E879F87911187D71F82188665
:100A2000198686E0FE013A96DE01119601900D923C
:100A30008A95E1F78D8181110EC009811A812B8180
:100A40003C814D815E816F8178858985B4D62F96F2
:100A5000E4E00C946828CE01019638DE8111EDCFD8
:100A6000F6CFFC012481213019F480819181FAC3F1
:100A70000895CF93C82F882389F08CEF8C0F813A8B
:100A800078F48C2F0E94ED1D882321F08C2F0E947A
:100A90008F1ED9D78C2F0E94781ED5D7CF9108955D
:100AA00080E28C0F883040F4C77081E001C0880F6D
:100AB000CA95EAF71AD7F1CFEBE5EC0FE33040F433
:100AC000F0E0E650FE4F808190E00E94821DE6CF6C
:100AD000C85ACB3118F7EC2FF0E0EE0FFF1FEC53A4
:100AE000FE4F808191810E94A71DD8CF882319F1E4
:100AF0009CEF980F913A18F40E948F1EA4C790E2C1
:100B0000980F983048F4877091E001C0990F8A954A
:100B1000EAF7892FF0D6F2CF9BE5980F933020F4B7
:100B200090E080E00C94821D885A8B3120F490E094
:100B300080E00C94A71D08951F93CF93DF93182F87
:100B4000EB0197DF209731F4812FD0DFDF91CF9138
:100B50001F9108958FE99FE00197F1F700C0000011
:100B60002197F0CF70E060E0893311F460E570E028
:100B7000E3CF882311F0B9D666C70895882311F012
:100B8000BAD661C70895B0E0A0E0E9ECF5E00C94B6
:100B900047286C01D62FC72FFC01158106810295CD
:100BA0000F7099D6E82E8823E9F0E12E1123D1F0B9
:100BB0008C2F807F803461F080E28D0F8830F8F0D8
:100BC0008C2F807E803221F4D230C8F00023B9F01F
:100BD0008091DA0382FF13C082E059D77CD691E07E
:100BE000E82EE926BC2EB2949FE0B922FBE0FB156B
:100BF00080F1EB2DF0E0E152F74D0C943828E12C18
:100C0000F1CF0C2F0F70C07F11F00295007F1123E0
:100C100081F0002349F080E28D0F883010F0D1116F
:100C200005C0802F62D60FD78D2F4CC0802F70D675
:100C3000FACF8D2F5BDF002361F080E28D0F8830CB
:100C400010F0D11103C0802F56D602C0802F66D677
:100C5000FAD6EB2DE850FF0B349718F40E94551D7F
:100C6000B0DEEE2059F033D680FD08C0F6011582C3
:100C700028D610D2C60160D124D61AD2CDB7DEB79D
:100C8000E9E00C9463282C2F2F70F22EC07FC03225
:100C900019F0F29480EFF822DD2341F0D13089F190
:100CA000112309F439C00023D1F0BECF8091DA03BB
:100CB00082FD11C0112341F0FF2019F08F2D15D6B0
:100CC000C2D680E0D6DEC5CF80E010DFFF2009F479
:100CD000C0CF8F2DB9CF112359F0011103C08F2D33
:100CE00048DFB7CF013009F0B4CF8F2D35D6B1CF63
:100CF0000111AFCF8F2D42DF8F2D39D68F2D1ED60C
:100D0000A8CF112321F0023008F0A3CFE8CF0111C2
:100D1000A0CF8F2D33DF9DCF0023D9F3D93349F4F2
:100D20003FEF87EE93E0315080409040E1F700C004
:100D300000008D2FDBDE8DCF8C2F869586958370FE
:100D400069F0813009F085CF8D2F9C2F93701111A0
:100D500002C080E090E00E94A71D7BCF8D2F9C2FCA
:100D60009370111102C080E090E00E94821D71CF4B
:100D70008C2F837081F511116CCF4D2F42954695C4
:100D80004770440F440F2D2F2F7030E0042E02C007
:100D9000220F331F0A94E2F790E080E0D4FF09C0ED
:100DA0008FE090E002C0880F991F4A95E2F7809586
:100DB0009095C695C695C370822B932BC23039F09F
:100DC00040F4C13011F041D144CF38D142CF44D1A9
:100DD00040CF32D13ECF8695112311F08C2F8170F8
:100DE000882309F436CF4D2F429546954770440F1E
:100DF000440F2D2F2F7030E0042E02C0220F331F1E
:100E00000A94E2F790E080E0D4FF09C08FE090E020
:100E100002C0880F991F4A95E2F780959095C69574
:100E2000C695C370822B932BC23039F040F4C13089
:100E300011F063D10ECF5AD10CCF66D10ACF17D1A2
:100E400008CFCF70112321F08C2F24D18D2F48CFC4
:100E50008D2F94DE8C2F2CD1FCCED23F31F160F45B
:100E6000D03FB9F0D13F81F0112309F43BC001110B
:100E7000DBCE8C2F8F711DC0D33FE9F0D43FA1F79B
:100E80008091DA0382FD1FC08C2F8F71112319F31B
:100E900010C0112331F00111DCCE8C2F8F7118D1CD
:100EA000D8CE023008F0D5CEF8CF8C2F8F7111112B
:100EB000D2CFF0D0CECE112321F08C2F8F71E0D085
:100EC000C8CEDBD0C6CE112329F063E08C2F8F7102
:100ED000C7D5BFCE81E0DBD5023008F4BACE82E0C0
:100EE000D6D5B7CE002359F0D93309F022CFEFEF92
:100EF000F7EE23E0E150F0402040E1F718CF8C2FCF
:100F00008F71A9CF0F931F93CF93DF93EC018F8144
:100F10009885009761F062D78C01FDD08CD0B80124
:100F2000CE0131DEDF91CF911F910F91089568813D
:100F300079818D81A0D1F0CFCF93DF93EC018C81AB
:100F4000882381F0CE0117DC81110FC0C4D488231F
:100F500049F08D81882331F08091DA0382FF02C04D
:100F600082E095D5DF91CF910895CE01CBDFCE0100
:100F7000C2DBF8CF882311F0CBD465C50895882350
:100F800011F0CCD460C5089590E080E00E94821DED
:100F900090E080E00E94A71DC8D455C50E94A61EFF
:100FA000F3CFB0D4FBCF92959F70963091F058F468
:100FB000925F9F70923058F4803F19F030F4883E71
:100FC00030F481E008959A5FF4CF843FD1F380E05C
:100FD0000895883EB0F3813FD1F7F3CFFC018481BF
:100FE000882351F087819085009711F0F7D6DBCFE9
:100FF0008081918137D1FBCF80E00895A6E0B0E0F9
:10100000E4E0F8E00C944E282696E2E00C946A287E
:10101000A9E0B0E0EEE0F8E00C944C282996E4E07A
:101020000C9468280895FECF0895FDDF9093680220
:101030008093670208950895F8CF0895209167027C
:1010400030916802822B932BF0CF20916702309170
:10105000680282239323E9CF2091670230916802CE
:1010600082279327E2CFDECF0895FDCF0895FDDFDD
:101070009093660280936502089590E080E0F7CF38
:1010800021E030E0A90102C0440F551F8A95E2F724
:10109000CA01EDCF21E030E002C0220F331F8A9554
:1010A000E2F78091650290916602822B932BDFCF4D
:1010B00021E030E002C0220F331F8A95E2F720952D
:1010C0003095809165029091660282239323CFCF61
:1010D00021E030E002C0220F331F8A95E2F78091B1
:1010E00065029091660282279327C1CF2091650205
:1010F00030916602822B932BBACF209165023091FA
:10110000660282239323B3CF209165023091660259
:1011100082279327ACCF0895262F277091E001C036
:10112000990F2A95EAF723E0769567952A95E1F7D6
:10113000660F771F660F771FFA01E60FF71F50E063
:1011400040E0682F70E08191DF0111979B01042E30
:1011500002C0369527950A94E2F721702195282739
:10116000292328272C934F5F5F4F4430510559F7AF
:101170000895A82FA77023E0969587952A95E1F703
:10118000880F991F880F991FFB01E80FF91F50E086
:1011900040E080E0219130E00A2E02C0369527958C
:1011A0000A94E2F721703327042E01C0220F0A941B
:1011B000EAF7822B4F5F5F4F4430510559F708958E
:1011C000262F983068F4853058F4682F70E085E059
:1011D000989F600D711D112441E552E0822F9CCF34
:1011E0000895292F983058F4853048F490E061E54F
:1011F00072E035E0239F800D911D1124BACF80E06D
:101200000895B0E0A0E0E7E0F9E00C9447287C0105
:1012100000916502109166028091670290916802C8
:10122000082B192BCFE0D0E0CC24C394D12CBC2EBA
:10123000C6010C2E02C0880F991F0A94E2F7802382
:101240009123892B49F4219790F7B12C8B2DCDB7A1
:10125000DEB7E9E00C946328B7018C2FE0D6019744
:1012600091F3F4CFCF93DF93EC01CBDFBE01D7D660
:10127000DF91CF9108951F93CF93DF93EB0190916E
:101280005002992331F0CB01EDDFDF91CF911F9117
:101290000895882351F0CB01B4DF182F682FCE01B9
:1012A0008FDFBE01812FBBD6F0CFCB019ADF182F85
:1012B000F8CFFF920F931F93CF93DF93C0916902F2
:1012C00089E0F82E80916A028C1305C0CDB7DEB795
:1012D000E5E00C946728D0E0FC9EF001FD9EF00D47
:1012E0001124E559FD4F0081118122813381448110
:1012F00055816681778180858BDE2196C770E2CF2C
:101300000F931F930091B3021091B4022091B50284
:101310003091B6024091B7025091B8026091B90283
:101320007091BA028091BB0273DE1F910F910895F4
:101330000F931F93CF93DF938091B902807F09F0C1
:101340004FC08091B802882309F44AC0E091690235
:10135000D0916A021091B4020091B3024091B5029B
:101360005091B6026091960170919701C9E0DE1725
:10137000B9F18E2F90E0EC9FF0011124E559FD4F5B
:101380002481222391F1C89FF001C99FF00D1124FF
:10139000DF01A559BD4F11962C911197211325C03E
:1013A0002C91201322C015962C91159721111DC048
:1013B00012962D913C91241B350B26173707A8F464
:1013C0008091B9028F7080618093B902EF58FD4F10
:1013D00080818F708061808383EB92E0ADDD69DF77
:1013E000DF91CF911F910F910895FC013196E77025
:1013F000BECF482F2091690290916A0259E02913CB
:1014000002C080E0089530E0529FF001539FF00D3C
:101410001124E559FD4F8181681306C0808148136E
:1014200003C085818111EECF2F5F3F4F2770E7CF3B
:10143000A8E1B0E0EEE1FAE00C9444288C0186E0EB
:10144000F801DE01539601900D928A95E1F7D801DB
:1014500014968C9114971596EC90159793EBA92EF2
:1014600092E0B92E9091B70291111AC08823A9F089
:10147000EE2089F0C801B2DDF82E882361F089E002
:10148000F801D50101900D928A95E1F7C501E9DADD
:101490004FDF36DF48C0C8014FDDFF24F39443C05F
:1014A000F801C080D18082809380F090B8022091B2
:1014B000B5023091B602A401421B530B9A01409130
:1014C000960150919701FF2009F41EC1241735079A
:1014D00008F0C0C0882339F19091B4028091B9021C
:1014E000282F207F09F069C09D1122C09091B3027E
:1014F000C9121EC04091BA025091BB0227813085AB
:1015000042175307A9F4E11052C08F708061809395
:10151000B902F6DE83EB92E00FDD8091B902D801CB
:1015200016968C93F12C8F2D6896ECE00C94602825
:10153000E1103DC06D2D8C2D5CDFE82E882361F01D
:1015400083EB92E0F9DC89E0E3EBF2E0DF011D924E
:101550008A95E9F7D5DEE6CFCB8ADC8A8B899C8930
:1015600081DE292F22952F70243058F49F7022306D
:1015700080F0992391F0F8019681907F71F4FE2C10
:10158000D2CF2A5F2F70223060F0C801D5DCEF2C5B
:10159000F6CF992311F0882391F3805E883078F399
:1015A000F4CF803F60F3815F833078F7E8CF80919C
:1015B000B90281608093B902B5CF9D111EC0909190
:1015C000B302C9121AC04091BA025091BB021796D9
:1015D0002D913C9118974217530779F4E1100DC0F3
:1015E00016968C93C801A8DC89E0F801A3EBB2E061
:1015F00001900D928A95E1F74CCFC801EFDC88236A
:1016000009F449CFEE2009F446CF8091B902803227
:10161000B0F02091B3023091B4023B872A879D86B7
:101620008C869091B7029E871F86888B8091BA0224
:101630009091BB029A8B898BCE010A967DDC89E062
:10164000F801A3EBB2E001900D928A95E1F770DE0C
:1016500057DE23CF9091B902292F207F81F4682D86
:101660009E8A8D8AA6017E899E2DC8DC83EB92E03E
:1016700063DC89E0F50111928A95E9F76BCF882345
:1016800009F451CF8091B4028D111BC08091B30237
:10169000C81217C04091BA025091BB0217962D9103
:1016A0003C9118974217530761F4E1100AC016964F
:1016B0009C93C80141DC89E0F50111928A95E9F714
:1016C00032CFC8018BDC882309F4E5CEEE2009F483
:1016D000E2CE8091B902803208F4B1CF2091B302FA
:1016E0003091B4023A8329839C828B829091B70215
:1016F0009D831E828F838091BA029091BB0299874D
:101700008887CE0101969ACF2417350708F046C086
:10171000882309F4C2CEFE2CEE2009F4BCCE8091C1
:10172000B4028D112FC08091B302C8122BC040911A
:10173000BA025091BB0217968D919C911897481749
:10174000590701F52A3A3105A0F49091B90290FDAC
:1017500010C0907F71F08091B90216968C93169705
:10176000903F09F43FCF982F907F905F8F70892B27
:1017700037CF89E0F801A3EBB2E001900D928A9592
:10178000E1F7D1CEC8012ADC811159CF8091B9028D
:1017900081608093B902C801CFDBC5CE682D9E8AD7
:1017A0008D8AA6017E899E2D29DC89E0F5011192A2
:1017B0008A95E9F76ECEA2E1B0E0E1EEFBE00C9491
:1017C0004B280A871B872C873D874E875F87688B4E
:1017D000798B8A8BCE010A962BDE8823C1F04E8549
:1017E000442349F00A851B852C853D855F856889E2
:1017F00079898A890DDC89E0F82E809169029091BF
:101800006A0289133BC06296E5E00C94672889E080
:10181000FE013A96DE01119601900D928A95E1F74C
:101820008E85882341F320916A0230E0C901019638
:1018300087709927409169024817190691F099E03D
:10184000929FD001939FB00D1124A559BD4FFE0169
:10185000319601900D929A95E1F780936A0229DD05
:10186000CACF9FDB10926A021092690289E0E3EB13
:10187000F2E0DF011D928A95E9F7BDCF8F9DC0018F
:10188000112485599D4FD4DD882309F4BCCFE09104
:101890006902FE9EF0011124E559FD4F008111817E
:1018A0002281338144815581668177818085B0DBD7
:1018B0008091690290E00196877099278093690270
:1018C0009CCF8091E40286958695869508958091B7
:1018D000E402877008959091E402977081E009F422
:1018E00080E0089580911003089590911003892B52
:1018F00080931003089580959091100398239093FE
:101900001003089510921003089580910F03089515
:1019100090910F03892B80930F03089580959091E8
:101920000F03982390930F03089510920F030895C7
:101930008091E60208950895FECF08959091E50202
:10194000292F282329F0809589238093E502F4CF5D
:1019500008950895FECF08959091E602292F282337
:10196000281721F0982B9093E602F4CF08959091D8
:10197000E602292F282329F0809589238093E60207
:10198000E9CF08958091E602882321F01092E602C3
:1019900080E0E0CF0895CF93C091100380910F03B2
:1019A000C82B8091E602882329F0C82B0E94CC1D09
:1019B0008111E8DF8C2FCF910895CF93DF93C091F1
:1019C0009A01D0919B01E7DF8883C0919A01D09161
:1019D0009B0148E050E06CED72E0CE010E9475285A
:1019E000892B59F088E0FE01ACEDB2E001900D9238
:1019F0008A95E1F7CE010E94691DDF91CF9108958C
:101A0000CF93DF93C0919801D0919901C4DF89836E
:101A1000C0919801D091990140E250E06CEB72E0E6
:101A2000CE010E947528892B59F080E2FE01ACEBB3
:101A3000B2E001900D928A95E1F7CE010E94741DEB
:101A4000DF91CF9108950E94FD1E813029F480918D
:101A5000D90387FF01C0D4CFB0CF0895FECF08953A
:101A60009091DA0392FF0EC098E0899F90011124B3
:101A7000622B6093E4020EDB8091E40286958695EA
:101A80008695ECCF07CB1092E40280E0E7CF9091EF
:101A9000E402809589238093E402282F277059F46B
:101AA000891749F09091DA0392FF05C086958695D3
:101AB0008695FEDAE8CF08959091DA0392FB22270B
:101AC00020F9281759F080FB92F99093DA0380915E
:101AD000D9039091DA0333D082E0D9CF0895809171
:101AE000DA0382FB882780F991E08927E5CF81E03E
:101AF000E3CF80E0E1CF6FEF7FEF90E080E00C94E8
:101B0000C12890E080E00E94932821E0853E9E4F0E
:101B100009F020E0822F089582E090E00C948B2859
:101B200083E090E00E948B2890E00895682F83E086
:101B300090E00C94A72884E090E00C949328BC01DA
:101B400084E090E00C94C128AB01BC018FE090E0F0
:101B50000C94B928AB01BC0183E190E00C94B92846
:101B600060E070E0CB01F6CF60E070E0CB01ECDF2D
:101B7000F7CFA8E0B0E0EFEBFDE00C944E2865EE67
:101B80007EEF90E080E00E94C12860E082E090E07B
:101B90000E94A72881E090E09093680280936702FA
:101BA000C5DF60E074E184E090E00E94C12860E05D
:101BB00086E090E00E94A72860E087E090E00E9425
:101BC000A72840E050E0BA0188E090E00E94B928E0
:101BD00060E083E290E00E94A72860E08CE090E063
:101BE0000E94A72860E08DE090E00E94A72819825B
:101BF0001A821B821C821D821E821F82188648E068
:101C000050E067E170E0CE0101960E94982840E024
:101C100050E0BA018FE190E00E94B928A5DF289634
:101C2000E2E00C946A28A5CF0895682F8EE090E03A
:101C30000C94A728A6E0B0E0E0E2FEE00C944C286B
:101C40000E949C1F8C0180911103909112038017B8
:101C5000910781F019821A820E949C1F682F498186
:101C60005A81792F80E090E00E94000510931203C2
:101C7000009311032696E4E00C946828E8D2609360
:101C80001F0370932003809321039093220360939A
:101C90001B0370931C0380931D0390931E030895F0
:101CA00008950895FDCF08950895FECF089581E029
:101CB000089580E491E18AD6F4DFF4CF99C40895C1
:101CC00008950895FDDFFDCF1CDF811101C0ABDF5A
:101CD00023DF809323032FDF9093DA038093D903CC
:101CE00092D61EDFA9D98091650290916602BDC986
:101CF0000E94931F87D281D4D9D3E6DF0E94E004EB
:101D00000E94381987D4D1CF73D4882329F00E9438
:101D1000321D0E944C174EC70895A6E0B0E0E3E9DB
:101D2000FEE00C944528C3DF811108C083DFECDF9F
:101D30000E94E8042696EBE00C946128D6D383E158
:101D4000A82E83E0B82E750110E0F70101917F0104
:101D5000812FB0D21F5F183009F43DC00817A9F3D6
:101D60008091230381FDACD2A9DFC82E10E0992415
:101D70009394812F9FD2082FF50181915F0108175D
:101D800029F1D02ED826F12CEE24E3948D2D8E212E
:101D9000A9F0CC2099F0F9821A830E949C1F9C83A1
:101DA0008B839D8291E0802F8E2109F490E0498100
:101DB0005A816B817C818D810E940005F394EE0C29
:101DC000F5E0FF12E3CFF501319700831F5F183074
:101DD00081F654DFACCF0813C3CFA8CF1F93CF93A6
:101DE000DF931FD1EC01C11580E5D807F0F5C115CF
:101DF00080E4D80708F09AC0C03ED10520F5CD3C5C
:101E0000D10508F082C0C83AD10578F4C53AD105A9
:101E100008F073C0C130D10519F1209709F1C43021
:101E2000D105F0F4D0E0C0E01BC0C33CD105D0F731
:101E3000C85AD0E0CC0FDD1FC350DE4F0990D881C7
:101E4000C02DD4640DC0C11580E2D80708F0CCC005
:101E5000C11581E0D80708F05AC0C83ED10510F777
:101E6000CE01DF91CF911F910895C03682E5D8074A
:101E700018F5C03482E5D80708F068C0C03282E5A2
:101E8000D80708F05CC0C11582E5D80708F493C0F4
:101E90002C2F2695269580E2289F900111248C2FC7
:101EA0008370C1E0D0E002C0CC0FDD1F8A95E2F75D
:101EB000C22BD32BDD68D4CFC03A82E5D80760F4BB
:101EC000C03882E5D80708F456C0CF71D0E0DC2FC7
:101ED000CC27C46FD06AC4CFC03C82E5D80708F4D1
:101EE0005FC0C03E82E5D80708F09CCFDC2FCC272E
:101EF000CC27DF71C06FD06AB3CFC55AD0E0CD5CBC
:101F0000DD4FC881D0E0D064ABCFD065A9CF8D2F95
:101F10002AD1182FCE01992784D0C12FD0E0DC2FF1
:101F2000CC27CC27DF71C82BD92B9ACFCE0199278C
:101F300078D0CC27DF70C82BD92BD06A91CFCF7146
:101F4000D0E0DC2FCC27C16FD06A8ACF2C2F26950A
:101F50002695277080E2289F900111248C2F837092
:101F6000C1E0D0E002C0CC0FDD1F8A95E2F7C22BA2
:101F7000D32BDC6875CF2C2F26952695277080E211
:101F8000289F900111248C2F8370C1E0D0E002C003
:101F9000CC0FDD1F8A95E2F7C22BD32BDA6860CF16
:101FA0008C2F8F71E0D0C82FD0E0DC2FCC27CC272E
:101FB000DF71D06255CF8C2F8F71D5D055E0D6957B
:101FC000C7955A95E1F7CF70D0E0DC2FCC27282FAA
:101FD00030E084FF05C044E0220F331F4A95E1F74B
:101FE000C22BD32BD0693CCF8D2F8F71BCD0182F33
:101FF000CE01992716D0C12FD0E0DC2FCC27CC27DB
:10200000DF71C82BD92BD5CF462F783028F4653017
:1020100018F4672F0C94970290E080E00895F4DFA5
:10202000DDCE82389105B9F1B0F48133910509F420
:102030007DC048F48932910509F46DC08A3291055A
:1020400009F47BC008958533910509F45FC0893395
:10205000910509F10895833E9105D9F138F4803E48
:10206000910529F1823E910579F10895863E910509
:10207000D9F1873E910509F43EC0843E910541F5B2
:102080002091DA0321FF24C08091D90384FD19C077
:1020900087EE90E008952091D903237009F05AC08B
:1020A0002091DA0323FF14C089E290E00895209183
:1020B000D90320FD38C03091DA0330FF09C024FF76
:1020C00043C090E080E008952091D90322FDF7CF2E
:1020D00008952091D90322FD3AC03091DA0330FDF2
:1020E00039C024FFF5CFEDCF2091D90323FFF0CFE6
:1020F00024FDE7CFCDCF2091D90323FD2EC0309111
:10210000DA0331FFEECF84EE90E008952091D903F9
:1021100025FFDECFC9CF2091D90325FD21C0209115
:10212000DA0323FFD5CF89E390E0D2CF2091D90302
:1021300026FFCECF8AE290E008952091D90326FFB2
:10214000C7CF81E390E0089583EE90E0089582EE9A
:1021500090E0089580EE90E0089586EE90E0089576
:1021600085E390E008959091D90392FF10C041E07B
:10217000282F2471243009F040E031E0282F287105
:10218000283009F030E0431711F02CE0822793FF4C
:1021900010C041E0282F2471243109F040E031E0E3
:1021A000282F2871283109F030E0431711F02CE076
:1021B00082273091DA0330FF10C051E0282F2171BF
:1021C000213009F050E041E0282F2871283009F033
:1021D00040E0541711F029E0822731FF10C041E0A0
:1021E000282F2171213109F040E031E0282F28719A
:1021F000283109F030E0431711F029E0822794FDDF
:10220000877E08951092DB031092DC031092DD03A9
:102210001092DE030895CF92DF92EF92FF926B014E
:102220007C01E6D181110EC00E94A81FC61AD70AF0
:10223000E80AF90AC092DB03D092DC03E092DD03E6
:10224000F092DE03FF90EF90DF90CF9008950F9310
:102250001F93CED1882329F00E94A81F1F910F91B0
:1022600008950E94A81F0091DB031091DC032091C8
:10227000DD033091DE03600F711F821F931FEECFCD
:1022800080E00895CF939C01205E3245C1E020326A
:10229000310538F4FB01C581C11103C08F710E9463
:1022A0008F038C2FCF9108950895FECF0895089540
:1022B000FECF0895E82FF0E0E851FC4F80810895AB
:1022C000089580EA8A95F1F7089500C00895F9CF3E
:1022D00008950895FECF0895EF92FF921F93CF9334
:1022E000DF9300D000D0CDB7DEB782D1182F609138
:1022F000F003882309F445C019821A821B821C82CC
:10230000862F90E09E012F5F3F4F7901B9018851E0
:102310009C4F8CD18823E1F08091DF0390E044E072
:1023200050E0B70188519C4F0E94752821E020930E
:102330002403892BC1F410E0BBDF812F0F900F9095
:102340000F900F90DF91CF911F91FF90EF90089524
:1023500080912403882379F384E0F70111928A9510
:10236000E9F710922403E091DF03F0E0E851FC4F1D
:1023700089819A81AB81BC8180839183A283B3835D
:10238000DBCF70E068517C4F8091DF0390E0885193
:102390009C4FD1D19FDFD1CFF894E82FE295EF7019
:1023A000F0E031A1282F2F7081E090E001C0880F6C
:1023B0002A95EAF7982F9095932391A392A1892BC0
:1023C00082A378940895CF93DF9384E9E5DF86E6CE
:1023D000E3DF87E9E1DF86ECDFDFC6E3D2E0899166
:1023E0008F3F09F0D9DF82E0CB33D807C1F7DF9107
:1023F000CF910895B0E0A0E0E0E0F2E10C9448282D
:10240000EC01D62E062F10E0C801855C9D4F7C01A3
:10241000FC0180818F3F09F442C0F894E82FE295D7
:10242000EF70F0E091A18F7021E030E001C0220F49
:102430008A95EAF7892F822B81A382A120952823F0
:1024400022A3789442DFE6E3F2E04BE352E031E08E
:10245000C12C21912F3F41F1A22FA295AF70B0E086
:1024600090968C9190E02F7002C0959587952A9553
:10247000E2F780FD19C0832FC82A330F4E175F077C
:1024800041F7F70180818F3F09F086DF61E0C110DD
:1024900001C060E08D2D1BDFC00FD11FC882CDB7FA
:1024A000DEB7E8E00C94642880E0E6CF80919C01E0
:1024B00080919C0194E0811190E09093F00384E07E
:1024C000891B8093DF037FDF88E0E8EEF3E0DF0124
:1024D000982F1D929A95E9F7E0EEF3E0DF011D9247
:1024E0008A95E9F784E03CD0E0CEA8E0B0E0EBE7E5
:1024F000F2E10C944B288E010F5F1F4F88E0F8012A
:1025000011928A95E9F7F12C6F2DC80173DFF394CE
:10251000F4E0FF12F9CF48E050E0B80180EE93E01C
:102520000E94752821E0009709F420E0892B41F0F2
:1025300088E0F801A0EEB3E001900D928A95E1F7F2
:102540006091F00370E068517C4F44E080EE93E0CE
:1025500008D0182FC1DE812B2896E5E00C9467285F
:102560000895B0E0A0E0E7EBF2E10C9448286C019C
:102570007B01042FC22F222379F081E0809327036F
:102580000E949C1F909326038093250380E0CDB783
:10259000DEB7E8E00C946428D0912703DD23B1F383
:1025A00080912503909126030E94B41F059770F334
:1025B00010E0A801B601C7010E947528892B31F0EF
:1025C000A801B601C7010E948228CD2F10922703CF
:1025D0008C2FDDCFCF930E940928C82F811102C014
:1025E0000E9405288C2FCF91089580912B03089588
:1025F00080912A030895FCCF0895ECDF80932A038D
:10260000FADF80932B03F1DF80939C01F1DF8111CE
:1026100042C00895EDDF811101C040C0089581E0FE
:1026200090912C039A3008F080E008950F931F9347
:10263000CF93DF93EC018B0180912C038A30B0F4AF
:10264000B801CE0176D0C82F811122C080912C0311
:102650008F3FB9F40E949C1F909329038093280315
:102660008C2FDF91CF911F910F91089580912803B6
:10267000909129030E94B41F843F914008F7C0E065
:10268000EFCF8F5F80932C038A3020F7C1E0E8CF33
:1026900010922C03E5CF0C94752008950C947820AB
:1026A0000895B0E0A0E0E7E5F3E10C944928790152
:1026B000C82F880FDD0B41155105A9F0FE0193E0ED
:1026C000EE0FFF1F9A95E1F7E356FE4F818192814D
:1026D000835D9C4F208130E04217530708F49A0134
:1026E000A9010E948228CE010E945821D82E882359
:1026F000D1F001151105B9F083E0CC0FDD1F8A95EB
:10270000E1F7FE01E356FE4F438150E00417150741
:1027100008F4A801C356DE4F6C817D81635D7C4F58
:10272000C7010E9482288D2DCDB7DEB7E7E00C945B
:102730006528F0C0089503C10895A4E0B0E0E3EA7D
:10274000F3E10C944C286091420370914303809113
:102750004403909145030E94C31F11E06436710544
:102760008105910508F173DD6E5F7F4F8F4F9F4F9D
:1027700069837A838B839C8310E000E030E020E063
:1027800044E050E0BE016F5F7F4F82E08ADF182F88
:10279000882351F00E94A81F609342037093430363
:1027A0008093440390934503812F2496E4E00C9496
:1027B0006828B0E0A0E0EFEDF3E10C9446287C013E
:1027C0005B016A012CDF01E010E0882311F00AE0D0
:1027D00010E0C1E0D0E0B501C701F6010995811113
:1027E00004C021960C171D072CF4CDB7DEB7EAE024
:1027F0000C946228CC9F9001CD9F300D300D112498
:1028000090E080E045E34A95F1F7000001968217D9
:102810009307C1F7E0CFA5E0B0E0E1E1F4E10C946B
:1028200046285B01E0903F02F090400201E010E09A
:102830009E012B5F3F4F50E040E070E060E080E0A1
:1028400030DF182F882309F448C067018FEFC81ABA
:10285000D80A60913E0370913F03809140039091AC
:1028600041030E94C31F643671058105910570F113
:1028700004E010E09E012F5F3F4F50E040E070E029
:1028800060E081E00EDFF82E64E070E0C601F1D474
:1028900011E09D81981310E01F2151F10E94A81FA3
:1028A00060933E0370933F038093400390934103F2
:1028B00089819A81AB81BC8180933A0390933B03D9
:1028C000A0933C03B0933D0311E012C064E070E0BC
:1028D000C601CFD49D818913CBCFF701818192812D
:1028E000A381B48189839A83AB83BC831111E0CF28
:1028F00080913A0390913B03A0913C03B0913D033A
:10290000F50180839183A283B383812F2596EAE02A
:102910000C9462280F931F93CF93DF93EC018B01EC
:102920004BE054E146DF882329F04DE953E1B8013B
:10293000CE013FDFDF91CF911F910F9108950F934B
:102940001F93CF93DF93C0913F02D0914002CE01FD
:10295000019624E0FB01DC0101900D922A95E1F73C
:1029600064E070E086D488836D817E818F81988554
:1029700000913603109137032091380330913903C9
:10298000601771078207930749F0609336037093CD
:10299000370380933803909339033DDCDF91CF9167
:1029A0001F910F910895B9C908950E94361F0E9482
:1029B000EC227FD90E9404239BD90E940D230E9400
:1029C0001023F1DF0E9426237DD9F9CF9093430293
:1029D0008093420208958FC8089580E06BDC817077
:1029E000089583DD2FEF86E791E0215080409040ED
:1029F000E1F700C0000079DDF0DF882319F0EBDF9C
:102A00000C9403200895EDCF08958832910548F481
:102A10008E319105A0F4049750F082E00E94880C5A
:102A20000EC08D329105C9F320F48A9741F080E001
:102A300008958C34910519F08D329240C1F781E0F0
:102A40000895EF92FF920F931F93CF93DF93EC01C2
:102A50007B01C3378CE7D80761F4FB011581112393
:102A600011F0B9D010E0812FCDB7DEB7E6E00C94BD
:102A700066280E94720C082F0E94980C082B7CD0AC
:102A8000811107C0023211F011E0EDCF79D0F8D6F4
:102A9000FBCF69D0F70115811123B1F30D7909F04E
:102AA00054C0C034F2E5DF0720F5C11582E5D80730
:102AB000D0F6C115E0E4DE0790F4C115F0E2DF07BF
:102AC000B0F5C63ED10579F20E94950CCE019DDF8E
:102AD000C82F8823D1F10E94230D1C2FC4CFC1150C
:102AE00080E5D80788F7F7018681807F69F2DD27C6
:102AF000EBCFC03EE2E5DE07A0F4C03CF2E5DF0725
:102B000008F0B1CFC03682E5D807F0F2C03AE2E56E
:102B1000DE0708F4A8CFC43BF2E5DF0709F4A3CF32
:102B2000D3CFCE0187579C47029770F69CCFF70111
:102B30008681807FE1F68D2F8F71823189F038F4A4
:102B4000C1EED0E0823009F4BFCF28D08CCF8431E1
:102B500009F489CFC6EED2E1863109F4B5CFF5CFBD
:102B6000C5EED0E0B1CF0E949C1F88579C4E909339
:102B7000470380934603089580914803089508957C
:102B800080914803811109C00E94820C0E94C20CEE
:102B9000EADF81E080934803F2CF089580914803F3
:102BA000882339F082E20E94BF071092480380E038
:102BB000E6CF089580914803882361F00E949C1F0E
:102BC0002091460330914703821B930B8F3F9F4711
:102BD00008F4E4CF089580914803882309F0DECFFC
:102BE000CFCF0895EF92FF920F931F93CF93DF9370
:102BF0008091BC03882361F0E09149038DE0F82EB9
:102C00008091BC03E81748F01092BC03109249036E
:102C1000CDB7DEB7E6E00C946628EE24E394EE0E22
:102C2000E0924903CE2FD0E0EF9DF0011124EC5A41
:102C3000FC4F84818823A9F087819085892B99F4A2
:102C4000818592858F3F980771F061E0CADFFC9E15
:102C5000F001FD9EF00D1124EC5AFC4F14820E94ED
:102C6000950CEE2DCDCF00811181228133814481DD
:102C700055816681778180850E94DB0BE8CF0895BE
:102C8000CF93DF931092BE031092BD03D0E0C0E05B
:102C90000E949902C817D90718F0DF91CF910895C3
:102CA000CE010E94AC02FC018581811102C0148218
:102CB00016822196EDCF1F93CF93DF93109152038D
:102CC000209153032117D1F0C12FD0E0FE01EE0F68
:102CD000FF1FE65BFC4F408151814817590791F473
:102CE0000E94AC0221E0FC012483809152038113F5
:102CF00005C02196C370DD27C0935203DF91CF91A9
:102D00001F91089521961C2F1370DCCFB0E0A0E036
:102D1000ECE8F6E10C944328EB012C81211152C020
:102D20007090BC03A4E5B3E030E020E0812C61E0CA
:102D300070E0271508F045C01B96CD90DC901C97DD
:102D4000A880B9804FEF5FEF912CE92CF12CF701AF
:102D5000EE0FFF1FEA0DFB1D05911491C016D10661
:102D600009F4A7010115110511F09394EECF4F3F1F
:102D7000540781F1FB0102C0EE0FFF1F4A95E2F7F5
:102D80008E2AAB01092C02C0440F551F0A94E2F7AA
:102D90004150510984161506D1F44A815B816DE0DA
:102DA000629FF001639FF00D1124EC5AFC4F508795
:102DB000478324E02483108211829287818721E057
:102DC0002D8379DFCDB7DEB7EDE00C945F28149644
:102DD0001C9214972F5F3F4F1D96ABCF0F931F93FD
:102DE000CF93DF93C0915203809153038C1307C09C
:102DF000F9DE46DFDF91CF911F910F910895D0E06A
:102E00008E01000F111F065B1C4FF801808191811C
:102E10000E94AC02BC01F8018081918177DF21968C
:102E2000C370E2CFEF92FF921F93CF93DF93FC0129
:102E30002081318110E040E050E0E52FF0E0EE0F1E
:102E4000FF1FE20FF31FA591B4911097B9F0FB019A
:102E5000C081D18140E005C0AE15BF0509F411E085
:102E60004F5FE42FF0E0EE0FFF1FEC0FFD1FE5902A
:102E7000F490E114F10481F75F5FDFCF112349F093
:102E8000451708F4CB01DF91CF911F91FF90EF9090
:102E9000089590E080E0F7CF8091B501882329F173
:102EA0008091BF039091C0030097F9F00E94B41F76
:102EB0002091BD033091BE0328173907B0F49091DB
:102EC000520380915303981751F088DF1092BE038C
:102ED0001092BD031092C0031092BF03089582DECA
:102EE0001092C0031092BF03CBCE08951092C0037E
:102EF0001092BF031092B501809153038093520347
:102F0000BFDE70CE8091B501882309F0EFCF81E05C
:102F10008093B5010895ACE0B0E0E1E9F7E10C94ED
:102F20003E284C016B0180352CE7920761F4FB01D0
:102F300015811123D9F081E08093B501812F2C9662
:102F4000E2E10C945A288135FCE79F0731F4FB013C
:102F50001581112359F0CADFF1CF82359C4731F436
:102F6000FB011581112311F0CDDFE8CF209165021F
:102F7000309166028091670290916802822B932BB8
:102F80000E94AC04182F7BDE181729F0F60160812F
:102F900071813AD84C01B12CA12C1C866624639413
:102FA000712CCE0101969B878A870E949902A816F0
:102FB000B906B8F1F6018581882309F44AC1FC8578
:102FC000FF2309F446C1B8D79093C0038093BF0391
:102FD0008091BC03883008F591E0980F9093BC0372
:102FE00099E0F601DE01119601900D929A95E1F7B4
:102FF0002DE0829FC00111248C5A9C4F29E0FE01D4
:103000003196DC0101900D922A95E1F72FEF3FEF09
:10301000FC0132872187948683861C851095117068
:103020008DCFC5010E94AC027C01FC014081518121
:1030300044244A94542C60E0262F30E0F901EE0F2E
:10304000FF1FE40FF51F859194918816990609F4E6
:103050002901892B11F06F5FEFCF80E0FFEF4F1652
:103060005F0609F445C0F70144813090B501832D16
:10307000411180E0F82FF1703F2EF7012580868105
:10308000F6019581992309F483C0332009F480C0A7
:10309000211015C09301042C01C0220F0A94EAF7F5
:1030A000822BF70186838091BD039091BE03C29766
:1030B00030F482E390E09093BE038093BD03C3019C
:1030C00002C0880F991F6A95E2F70197F7012681E0
:1030D0002817190681F58091BF039091C0030097CE
:1030E00071F042D7C39758F021E0F701248381E0C3
:1030F000FC85F82BFC872FEFA21AB20A56CF20903E
:10310000520390E080E020915303221216C0E8168B
:10311000F90689F0422C512CF201EE0FFF1FE65BFD
:10312000FC4FB182A0822FEF421A520A83E048225C
:10313000552440925303832DDBCF422C512CF201B6
:10314000EE0FFF1FE65BFC4F808191810E94AC0275
:103150008C01B70167DE0097A1F021E0FC01248318
:10316000E816F90641F32091520322120AC008170B
:10317000190739F492012F5F3F4F237033272093B3
:103180005203EFEF4E1A5E0AF42DF3702F2EBBCFD1
:1031900090E021101EC0930102C0220F331F6A95D8
:1031A000E2F7215031092817390729F4442309F49B
:1031B0004EC0C50180DDC301042C01C0880F0A94F4
:1031C000EAF7982F9095F701868189238683322C20
:1031D000B2CFAC01042C02C0559547950A94E2F792
:1031E000BA01617077279C01215031098223932312
:1031F000892B49F5672B39F1F70182819381892B5E
:10320000F1F0EA85FB8527E011922A95E9F794D63B
:10321000282F8B839C8384E08D83F70182819381A7
:10322000782F8887998709811A813C8144E05E81E3
:103230006F81892F0E94DB0BF7011582BCCF60E004
:10324000C501CFDCF9CFF42FF1702F2EB4CF232C92
:10325000B2CF9091520380915303981711F0BEDDC5
:10326000DCCEC0DC1092C0031092BF0309DDD5CEC6
:103270000895FC01680F791F8FEF91E36E177F07A8
:1032800009F408952191822728E030E087FF06C0E5
:10329000880F892721503109C9F7F0CF880FFACF5D
:1032A0009C01FB018581882359F12137FCE73F0709
:1032B000B9F022379CE73907E9F020373C4709F598
:1032C00060E280919601909197010E948C04FC012C
:1032D000019620812032D9F3CF0126D280E00895D3
:1032E0008091960190919701059690939701809314
:1032F0009601F4CF80919601909197010597F5CFB3
:1033000081E00895CF93DF93EB0186319C4701F56F
:103310000E94720C9D81992391F08A7A91E009F4C0
:1033200090E09093C103811108C089E2E1D40E942A
:10333000230D80E0DF91CF91089585E3F7CF809151
:10334000C103811103C089E2EAD4F1CF85E3FCCF48
:1033500081E0F0CFCF93DF93EC01FB0185818823DF
:1033600009F4D2C09E0130572332310508F0B2C0B3
:103370000E949B0D9093DA038093D903FE01E150E4
:10338000F047E232F10520F4E551F74D0C9438286E
:103390008091D90381608093D90393C08091DA032F
:1033A00088608093DA038DC08091D9038260F3CF67
:1033B0008091D9038460EFCF8091D9038860EBCFEF
:1033C0008091DA038160EDCF8091DA038260E9CFEA
:1033D0008091D9038061DFCF8091D9038062DBCFF8
:1033E0008091D9038064D7CF0E94D1078091D903FF
:1033F0008068D1CF8091D9038C60CDCF8091DA03E2
:103400008360CFCF8091D9038E7FC5CF8091DA03BF
:10341000877FC7CF8091D9038D7FBDCF8091D9039E
:103420008B7FB9CF8091D903877FB5CF8091DA03A5
:103430008E7FB7CF8091DA038D7FB3CF8091D90390
:103440008F7EA9CF8091D9038F7DA5CF8091D9039D
:103450008F7BA1CF0E94D1078091D9038F779BCF1B
:103460008091D903837F97CF8091DA038C7F99CFA6
:103470008091D90382FB992790F921E0922790FB54
:1034800082F990FB83F987CF8091DA03982F90958A
:1034900091708E7F892B90FB81F983CF9091D90316
:1034A000892F8F7B96FF806476CF0E94D107909101
:1034B000D903892F97FB87F980586DCF81E00E944F
:1034C000150E8091D9039091DA030E949F0D0E94FE
:1034D000D10780E0DF91CF91089580E0F0CF909107
:1034E000D903892F8F7E94FF806155CF9091D903A6
:1034F000892F8E7F90FF81604ECF9091DA03892FC4
:10350000877F93FF88604DCF81E0E4CFB0E0A0E0FB
:10351000ECE8FAE10C944728E82FF0E0EC5AFD4F74
:10352000B490282F26952695269530E0F901EC5089
:10353000FD4F0491877010E0082E02C01595079585
:103540000A94E2F701701127F901EC51FD4FE49064
:10355000F12C082E02C0F594E7940A94E2F791E06A
:10356000E922FF24F901EC52FD4FC491D0E002C0E2
:10357000D595C7958A95E2F7C170DD27C62ED12C67
:103580000115110549F5E114F10431F086EE0E94B0
:103590003905C601009771F5B6018B2D0E949C0577
:1035A000C601009779F5E114F104A1F501151105A3
:1035B00031F081EE0E947605C6010097C9F5CD2B4A
:1035C00031F08CE20E94B205C114D104C9F5CDB727
:1035D000DEB7E9E00C94632881EE0E943905C6014C
:1035E000009789F2EFE9FFE03197F1F700C00000A2
:1035F0000197F6CFEFE9FFE03197F1F700C0000047
:103600000197C8CFEFE9FFE03197F1F700C0000064
:103610000197C7CF86EE0E947605C601009731F26A
:10362000EFE9FFE03197F1F700C000000197F6CF16
:10363000EFE9FFE03197F1F700C000000197BDCF3F
:103640008FE99FE00197F1F700C0000091E0C91AEF
:10365000D108BACFEF92FF920F931F93CF93DF93CE
:10366000EC01162F0AE08881882309F458C08130C4
:1036700009F052C08981813071F47E0182E0E80E48
:10368000F11C8A810E94B205E701812F90E000972A
:10369000D9F52196E8CF823041F47E01E2E0EE0ECA
:1036A000F11C8A810E943905EFCF833041F47E01FD
:1036B000F2E0EF0EF11C8A810E947605E5CF84309E
:1036C00011F02196E2CF2A81229690E080E0AE01AF
:1036D0004F5F5F4F2053330B2A30310550F0009776
:1036E000A1F2EFE9FFE03197F1F700C00000019788
:1036F000F6CF089FB001099F700D1124C901860FF4
:10370000971F2981EA01E3CFEFE9FFE03197F1F755
:1037100000C000000197BBCF612FF8DEBACFCDB754
:10372000DEB7E6E00C94662860E094CF0F931F9319
:10373000CF93DF93C42FD22FFC0185818823C1F062
:103740004093C403F9D39093C3038093C20380E2F0
:103750008C0F883040F4C77081E001C0880FCA9593
:10376000EAF70E94B905DF91CF911F910F9108955B
:103770001091C403141335C08091C2039091C30308
:10378000F3D320919601309197018217930748F562
:10379000C0E2CD0F1D17B9F080E2810F883040F4F0
:1037A000177081E001C0880F1A95EAF70E94BE05E4
:1037B000C83048F481E09D2F977001C0880F9A951A
:1037C000EAF70E94B905802F0E94B205C83058F66A
:1037D000D77081E001C0880FDA95EAF70E94BE0534
:1037E000C2CF80E28C0F883008F0BDCFC77081E077
:1037F00001C0880FCA95EAF7F1CF0F93DB0188511A
:103800009C478730910598F5FC01E35FF64D0C94D9
:10381000382806E221EE41EE6AE17CE7CD0186DF41
:1038200080E00F91089507E225EE45EE6BE17CE71D
:10383000F5CF06E221EE40EE68E17CE7EFCF07E24C
:1038400025EE44EE69E17CE7E9CF06E221EE42EEA7
:103850006CE17CE7E3CF07E225EE46EE6DE17CE725
:10386000DDCF08E221E045EE6EE17CE7D7CF15968B
:103870008C91882319F01092C403D3CF81E0D1CF6B
:103880001092C40308954115510511F0FA010995EC
:103890000895CF93DF93EC014A855B856E857F8524
:1038A000F2DF8B810E948E0C8C810E947B0C0E9427
:1038B000230D86E0FE0111928A95E9F7DF91CF9101
:1038C0000895CF93DF93EC018D8181FD10C082605C
:1038D0008D838B810E94880C8C810E94750C0E94C4
:1038E000230D488559856E857F85CE01CCDF1092EA
:1038F000C8031092C7038D8180FD02C0CE01C9DFCD
:10390000DF91CF910895CF93DF93EC018A818230CC
:1039100041F4FB01828193810E94FB028D818260D0
:103920008D83DF91CF910895FB01808191810C946B
:10393000FB02FC018281813031F4FB0180819181A5
:103940000C940F0308958230E9F7FB018281938183
:10395000F7CF0F931F93CF938C01FB01C581CC232D
:10396000A9F08091C7039091C8030097A1F0801738
:10397000910789F099270E94BF02FC0125812460EC
:103980002583118300839DDF0E94950C8C2FCF919E
:103990001F910F910895C0E0F9CFEF92FF920F931E
:1039A0001F93CF93DF937C018B0197558F3F910538
:1039B00019F010F011E036C00E94AE0297013327D3
:1039C0002817390708F04CC0C9010E94BF02EC015A
:1039D000F80115818D8110FB80F98D83112341F150
:1039E000ABD29093C6038093C5038A818F5F8A838D
:1039F0000E94720C8B830E94850C9B81892B8B8388
:103A00000E94980C8C834E815F816E857F85CE01EC
:103A10003ADF8D8181FF02C0F12CE12CF092C803C6
:103A2000E092C703812FCDB7DEB7E6E00C9466289D
:103A30004C855D856E857F85CE0125DF8D8181FF7B
:103A4000B9CFCE0126DF8091C7039091C8038E15B0
:103A50009F0509F0AFCF1092C8031092C703AACFF9
:103A600010E0E0CF8091C7039091C803892BB9F093
:103A70008091C5039091C60377D220919601309131
:103A800097012817390758F48091C7039091C8030C
:103A900099270E94BF02FC01258122FF12CF0895C1
:103AA0009093CF038093CE0308950E94F812811162
:103AB00003C08091C9030895E091CE03F091CF0334
:103AC000309729F00190F081E02D0995089580E06C
:103AD0000895E091CE03F091CF03309721F002805A
:103AE000F381E02D09950895E091CE03F091CF0385
:103AF000309739F026E0DC012C930480F581E02D2D
:103B000009950895A3E0B0E0E8E8FDE10C944E28A3
:103B10002091CC033091CD0328173907A1F0909361
:103B2000CD038093CC03E091CE03F091CF03309787
:103B300051F023E029839B838A830084F185E02D63
:103B4000CE01019609952396E2E00C946A28A3E041
:103B5000B0E0EDEAFDE10C944E282091CA033091CB
:103B6000CB0328173907A1F09093CB038093CA03A6
:103B7000E091CE03F091CF03309751F024E02983F8
:103B80009B838A830084F185E02DCE0101960995FF
:103B90002396E2E00C946A28CF93DF93C0919A01B8
:103BA000D0919B01229629D1813081F48091D90353
:103BB00087FF0CC0C0919801D091990122969EE197
:103BC00080E0915028F4DF91CF91089596E0F8CFEE
:103BD00029912223B1F38F5FF4CFCF93C82F8111A6
:103BE00002C080E023C009D1813011F58091D90352
:103BF00087FF1EC0EC2FE695E695E695EE3188F737
:103C00008091980190919901E80FF92FF11D22817F
:103C100030E0C77081E090E002C0880F991FCA951C
:103C2000E2F72823392381E0232BD9F2CF9108959D
:103C300080919A0190919B01FC0132960896219106
:103C40002C1721F0E817F907D1F7CBCF81E0EECFA1
:103C50009C01FC0132969FEF80E04191461751F0A4
:103C60009F3F19F4411101C0982F8F5F8630A9F74B
:103C70009F3F09F40895290F311D97FD3A95F901E9
:103C800062830895FC01329608962191261303C0A1
:103C9000DF0111971C92E817F907B9F70895E62F8D
:103CA000E695E695E695EE3168F4E80FF92FF11DFB
:103CB000677021E030E001C0220F6A95EAF7828147
:103CC000822B82830895E62FE695E695E695EE3100
:103CD00070F4E80FF92FF11D677021E030E001C0AA
:103CE000220F6A95EAF7209582812823228308957E
:103CF000CF93C82F82D06C2F813059F48091D90393
:103D000087FF07C08091980190919901C8DFCF91FA
:103D1000089580919A0190919B019ADFF8CFCF93FB
:103D2000C82F6BD06C2F813059F48091D90387FF55
:103D300007C08091980190919901C5DFCF910895B6
:103D400080919A0190919B019DDFF8CF56D08130F0
:103D500079F48091D90387FF0BC0E0919801F0912D
:103D6000990132968EE1DF011D928A95E9F7089557
:103D7000E0919A01F0919B01329686E0F4CF08958C
:103D8000FECF089581110CC081E08093B90160914C
:103D9000B6017091B7018091B8019091B901F0CF4F
:103DA00082E0F3CF83E08093B9016091B601709116
:103DB000B7018091B8019091B901E2CFE3CF0895A6
:103DC00081E08093B9016091B6017091B701809153
:103DD000B8019091B901D4CFF3CF089591E081114A
:103DE00001C090E09093B8016091B6017091B70165
:103DF0008091B8019091B901C3CF8091B801089525
:103E00008093B7016091B6017091B7018091B801BC
:103E10009091B901B5CF8091B70108958093B60113
:103E20006091B6017091B7018091B8019091B9018C
:103E3000A7CF8091B601089508950895FECF089503
:103E400008950895F9CF0895CF93FADF0E9475126F
:103E5000F8DFC0E08C2F0E945A11811105C0CF5F9E
:103E6000C830C1F7CF91089581E0FCCF85B7806855
:103E700085BF85B7806885BF08951F921FB61F92C2
:103E800011248F939F93AF93BF938091D00381119F
:103E900013C08091F1039091F203A091F303B091CC
:103EA000F4034196A11DB11D8093F1039093F20399
:103EB000A093F303B093F403BF91AF919F918F91BF
:103EC0001F901FBE1F9018958091F903843031F127
:103ED0000E942E041092D00388E190E020E40FB6F7
:103EE000F894A895809360000FBE2093600083B77C
:103EF000817F846083BF83B7816083BF7894889516
:103F000083B78E7F83BF0FB6F894A8958091600029
:103F1000886180936000109260000FBE08950E9437
:103F2000D1070C94310482E084BD93E095BD9AEFF3
:103F300097BD80936E0008952FB7F8948091F10398
:103F40009091F203A091F303B091F4032FBF089571
:103F50002FB7F8946091F1037091F2038091F3030D
:103F60009091F4032FBF08959C014FB7F89480916E
:103F7000F1039091F203A091F303B091F4034FBFCA
:103F8000821B930B0895CF92DF92EF92FF922FB78F
:103F9000F894C090F103D090F203E090F303F09016
:103FA000F4032FBFA7019601261B370B480B590BB3
:103FB000CA01B901FF90EF90DF90CF9008957894F7
:103FC0001F921FB61F9211248F939F93AF93BF939D
:103FD0008091F1039091F203A091F303B091F40367
:103FE0000196A11DB11D8093F1039093F203A0935C
:103FF000F303B093F403BF91AF919F918F911F9002
:104000001FBE1F90189587E797E79093010880934C
:10401000000888E19AE00FB6F894A89580936000B4
:104020000FBE90936000FFCF88E19AE00FB6F8943E
:10403000A895809360000FBE90936000FFCF8EE143
:104040004A9B02C08150E1F74A9BFECF08955A98DF
:1040500080E28A95F1F75A9A0895FC013BE03A957F
:10406000F1F798E020E080E031E040E14A95F1F797
:10407000880F4A9B02C08160232742E04A95F1F7EE
:10408000000040E14A95F1F7915079F790E19A9557
:10409000F1F799B132E03A95F1F7000040E14A9525
:1040A000F1F792FB992790F992272081920F908344
:1040B0000895A1E0B0E0EEE5F0E2ECC719828C01D2
:1040C0007C01E60EF11C0E151F0539F481E0998183
:1040D000911180E02196E6E0F9C7B1DFCE010196AB
:1040E000BCDFF80181938F01EECF529A5A9A08955E
:1040F00052985A9AEA9AE9E6F0E080818F7C8083B0
:1041000008956150770B91E001C0990F6A95EAF725
:1041100020E031E0911108C0222391F05A9A80E208
:104120008A95F1F75A980895492F482339F05A9AF9
:10413000232740E24A95F1F79695ECCF5A98F9CFAC
:104140005A98EDCFFF920F931F93CF93DF93EC011B
:104150008C01060F111DC017D10721F4CDB7DEB7B2
:10416000E5E0B5C7F99073DF68E08F2DCADFF3CFC4
:104170001F920F920FB60F9211240F931F932F933C
:104180003F934F935F936F937F938F939F93AF93DF
:10419000BF93EF93FF93CF93DF930F92CDB7DEB72B
:1041A00019824DDFCE01019658DF082F069506953E
:1041B0000695282F22952570902F9570290F922F04
:1041C000937026952695920F982797708981982B42
:1041D00009F058C0043008F055C080E18A95F1F725
:1041E0005A9A529A82E08A95F1F700C05A9888E06C
:1041F000089F80011124D801A356BE4F1696ED9159
:10420000FC9117973097A9F060913F02709140029E
:1042100014962D913C911597260F371F11968D916D
:104220009C911297680F791F13964C9113978C915C
:104230000995F801E356FE4F6381662349F020910A
:104240003F023091400284819581820F931F7ADF73
:10425000FEDE80E18A95F1F75A9852985A9A80E1E9
:104260008A95F1F7F801E356FE4F6081662349F025
:1042700020913F023091400281819281820F931FF1
:1042800018DFDDDE0F90DF91CF91FF91EF91BF91AD
:10429000AF919F918F917F916F915F914F913F91DE
:1042A0002F911F910F910F900FBE0F901F90189597
:1042B0000F931F93CF93DF93EC0104970CF049C049
:1042C000F894529A5A9885E08A95F1F700009C2F4D
:1042D000969595708C2F8570980F892F8370969581
:1042E000969523E0CC0FDD1F2A95E1F7980F8E01FC
:1042F000092BADDE00C068E0802F03DF80E18A95E6
:10430000F1F752985A9A4A9B1DC087E090E04A996B
:104310001BC0FE01E356FE4F63816623F1F020913E
:104320003F023091400284819581820F931FC1DE4C
:10433000811113C0529A5A9A7894DF91CF911F91AC
:104340000F91089500C0DFCF019729F4529A5A9A2D
:10435000789480E0F2CF00C0DACF71DE80E28A95F7
:10436000F1F75A98529A80E18A95F1F7C356DE4FD9
:104370006881662349F020913F0230914002898193
:104380009A81820F931FDEDE62DE789481E0D5CFC2
:1043900008959B01BA019091F9039430E1F48F7074
:1043A0008093E9009FEF8091E800915085FD06C061
:1043B00085ED8A95F1F700009111F5CF8091E80025
:1043C00085FF09C050E040E0C901B5D18091E80007
:1043D0008E778093E800089543E050E0BC0182E0CE
:1043E000D8CF40E250E0BC0182E0D3CFCF93DF933F
:1043F000EC0103DD48E050E0BE0181E0CADF88E067
:10440000FE01A1EDB3E001900D928A95E1F7DF91F5
:10441000CF9108958091F803811107C01AD371D309
:104420008091E20084608093E20008951092F80386
:104430000895C6DC81E0D2CC6091F50381E0611182
:1044400001C080E0AFCC9091F90381E0943009F095
:1044500080E06091F503B2CC42E061EC81E075D27E
:1044600042E261EC82E071D29091F90381E09430F4
:1044700009F080E06091F50385CC8091FB038330E7
:1044800009F45EC030F48130C1F1823009F494C087
:1044900008958A3009F483C08B3009F46BC08930E9
:1044A00009F04DC08091FA03813209F048C0809133
:1044B000FE039091FF03029708F041C08091E8004D
:1044C000877F8093E8008091E80082FF34C090915C
:1044D000F3008091F200029731F48091F100813075
:1044E00011F0863019F48091F1008ADC8091E800A7
:1044F0008B778093E8005DD222C08091FA03813AE5
:10450000F1F48091E800877F8093E8008091FE03BA
:104510009091FF03892B59F468E081ED93E070E0FE
:1045200057D18091E8008B778093E800089560E090
:1045300090E080E0F4CF8091F9038111C4CF089519
:104540008091FA03813AD9F78091FE039091FF039D
:10455000892BA9F78091E800877F8093E8008091FC
:10456000E80080FFFCCF49DC8093F1008091E800F7
:104570008E77BFCF8091FA03813209F78091FE03D5
:104580009091FF03892BD9F68091E800877F809373
:10459000E8000FD28091FC0321DC0C94D1078091BC
:1045A000FA03813261F68091E800877F8093E8000A
:1045B00000D28091FD0332CC8091FA03813A09F058
:1045C000BECF8091E800877F8093E8008091E8006B
:1045D00080FFFCCF2EDCC8CF84B7877F84BF0FB6A7
:1045E000F894A89580916000886180936000109293
:1045F00060000FBE80E890E00FB6F89480936100F1
:10460000909361000FBEE8CB24D27BD2E2EEF0E0C3
:104610008081846080837894DEC48AEB91E040CA14
:104620008091F903853029F48091F903853011F0E8
:1046300076CC089549DC08DC8823B1F38091F70338
:10464000882391F362D00E94D107EECF08959A019A
:10465000409100045091010400C0492F5527433078
:10466000510519F168F44130510509F444C0423054
:10467000510509F445C090E080E050E040E025C0DD
:104680004132510549F142325105A9F784E490E0E5
:104690004AEE53E061157105C1F08DE690E04DE7FB
:1046A00053E06130710589F0E6CF9927813091059B
:1046B00081F0009729F00297F1F6E4E0F3E002C000
:1046C000ECE2F3E0849190E0AF01F9015183408383
:1046D0000895E0E2F3E0F6CF89E090E042E453E0B1
:1046E0006115710591F389E090E04BE553E061308D
:1046F000710559F3C0CF82E190E04BE653E0E5CF7E
:104700008BE390E040E353E0E0CF80E189BD82E1BC
:1047100089BD09B400FEFDCF8091D8008F7D8093C4
:10472000D8008091E00082608093E0008091E000FA
:1047300081FDFCCF0895AF92BF92CF92DF92FF929E
:104740000F931F93CF93DF936C01EB018A0150D13C
:10475000F82E811123C00115110539F0F80180816F
:104760009181C81BD90BC80ED91EB12CA12C209742
:10477000A9F08091E80085FD21C08091E8008E7746
:104780008093E80001151105A1F0F8018081918165
:10479000A80EB91EB182A08285E0F82E8F2DDF9180
:1047A000CF911F910F91FF90DF90CF90BF90AF906E
:1047B00008951ED18823D9F2F82EF0CFF601819109
:1047C0006F018093F1002197FFEFAF1ABF0ACFCF9F
:1047D000FC01809100049091010486179707A0F0D6
:1047E0006115710529F49091E8009E779093E80097
:1047F00090E06115710551F4911108C08091E800B5
:1048000082FF34C080E00895BC01F2CF8091F903AB
:104810008823C1F18530C1F18091E80083FD30C06B
:104820008091E80082FDEACF8091E80080FFE1CF2F
:104830008091F3002091F200382F6115710519F075
:104840002830310558F091E02830310509F090E02A
:104850002091E8002E772093E800CBCF81918093C0
:10486000F100615071092F5F3F4FE7CF8091F9034D
:10487000882341F0853041F08091E80083FFBECF6E
:1048800081E0089582E0089583E00895FC0180911D
:1048900000049091010486179707A0F06115710537
:1048A00029F48091E8008E778093E80090E061150C
:1048B000710551F4911108C08091E80082FF35C064
:1048C00080E00895BC01F2CF8091F9038823C9F1FB
:1048D0008530C9F18091E80083FD31C08091E80006
:1048E00082FDEACF8091E80080FFE1CF8091F30064
:1048F0002091F200382F6115710519F0283031052B
:1049000058F091E02830310509F090E08091E800FE
:104910008E778093E800CBCF84918093F10031961D
:10492000615071092F5F3F4FE6CF8091F9038823D3
:1049300041F0853041F08091E80083FFBDCF81E0F8
:10494000089582E0089583E00895982F973028F025
:104950008F708093E90081E008959093E900242FFF
:10496000762F50E0981731F07091EC002091ED0017
:104970005091F00021FD02C09F5FE8CF3091EB0025
:104980003E7F3093EB003091ED003D7F3093ED00A2
:104990003091EB0031603093EB007093EC0020938A
:1049A000ED005093F0002091EE0027FDE5CF80E070
:1049B00008958091FA0387FF13C08091E80082FF79
:1049C00006C08091E8008B778093E80004C0809156
:1049D000F9038111F2CF08958091F9038823D9F367
:1049E0008091E80080FFF8CF8091E8008E77ECCFCF
:1049F0002091E4003091E50095E6A9012091EC00BA
:104A0000822F817020FF06C08091E80080FF06C0E1
:104A100080E008952091E80022FD1AC08091F903FA
:104A2000882389F0853089F08091EB0085FD0FC0E7
:104A30002091E4003091E50042175307F9F29150BC
:104A4000E1F684E0089582E0089583E0089581E02E
:104A5000089567D06ED0E0EEF0E0808181608083C1
:104A6000E8EDF0E080818F77808319BCA7EDB0E09E
:104A70008C918E7F8C9380818F7E80831092F8033F
:104A800008950F931F93CF93DF934BD052D0C8ED6F
:104A9000D0E088818F778883888180688883888147
:104AA0008F7D888319BC1092F9031092F503109240
:104AB000F7031092F60300EE10E0F80180818B7F7F
:104AC000808388818160888342E060E080E03DDF10
:104AD000E1EEF0E080818E7F8083E2EEF0E0808185
:104AE00081608083808188608083F80180818E7FEF
:104AF0008083888180618883DF91CF911F910F919E
:104B00000895E8EDF0E080818F7E8083E7EDF0E0AE
:104B100080818160808384E082BF81E08093F8039C
:104B2000B0CFE8EDF0E080818E7F80831092E200CC
:104B300008951092DA001092E10008951F920F92EA
:104B40000FB60F9211242F933F934F935F936F9360
:104B50007F938F939F93AF93BF93EF93FF93809136
:104B6000E10082FF0AC08091E20082FF06C08091CE
:104B7000E1008B7F8093E1002DD28091DA0080FFED
:104B800018C08091D80080FF14C08091DA008E7F19
:104B90008093DA008091D90080FF91C080E189BDC7
:104BA00082E189BD09B400FEFDCF81E08093F90365
:104BB00031DC8091E10080FF18C08091E20080FF2D
:104BC00014C08091E2008E7F8093E2008091E20029
:104BD00080618093E2008091D80080628093D80049
:104BE00019BC85E08093F90327DC8091E10084FF04
:104BF0002AC08091E20084FF26C080E189BD82E165
:104C000089BD89B5982F917080FFFBCF8091D80026
:104C10008F7D8093D8008091E1008F7E8093E100AA
:104C20008091E2008F7E8093E2008091E2008160BB
:104C30008093E2008091F503882309F445C084E065
:104C40008093F90300DC8091E10083FF27C080910D
:104C5000E20083FF23C08091E100877F8093E10021
:104C600082E08093F9031092F5038091E1008E7F3A
:104C70008093E1008091E2008E7F8093E20080913A
:104C8000E20080618093E20042E060E080E05DDE6F
:104C90008091F00088608093F000CBDBFF91EF9172
:104CA000BF91AF919F918F917F916F915F914F9144
:104CB0003F912F910F900FBE0F901F90189519BC28
:104CC0001092F903B3DB75CF8091E30087FD93E089
:104CD0009093F903B7CF1F920F920FB60F92112442
:104CE0002F933F934F935F936F937F938F939F93F4
:104CF000AF93BF93CF93DF93EF93FF93D091E900EE
:104D0000DF708091EC00C82FC17080FDC0E8109268
:104D1000E9008091F000877F8093F00078941ED0A6
:104D20001092E9008091F00088608093F000CD2B14
:104D3000CF70C093E900FF91EF91DF91CF91BF91C8
:104D4000AF919F918F917F916F915F914F913F9123
:104D50002F910F900FBE0F901F901895AAE2B0E010
:104D6000E3EBF6E29AC18AEF93E02091F100FC01B7
:104D70002193CF01F4E082309F07B9F77EDB809169
:104D8000E80083FF16C18091FA039091FB039A30EB
:104D900008F00FC1E92FF0E0EC5EF64D69C18038F4
:104DA00099F0823809F005C18091FE038F70873039
:104DB00008F0FFC08093E9008091EB0085FB882715
:104DC00080F91092E90006C08091F6039091F703F4
:104DD000911182609091E800977F9093E800809312
:104DE000F1001092F1008091E8008E77DFC08823F7
:104DF00009F4CDC0823009F0DCC08091FC03811140
:104E0000D0C08091FE038F702FEF280F263008F05E
:104E1000D0C08093E9002091EB0020FFC2C0933006
:104E200031F48091EB0080628093EB00BAC09091E6
:104E3000EB0090619093EB0021E030E001C0220F85
:104E40008A95EAF72093EA001092EA008091EB003D
:104E50008860EACF8111ADC01091FC031F7780916B
:104E6000E3008078812B8093E3008091E800877FC6
:104E70008093E8009EDD8091E80080FFFCCF809168
:104E8000E30080688093E30082E0111183E0809367
:104E9000F9038FC08058823008F08BC08091FC03EA
:104EA0009091FD038C3D23E0920799F583E08A837E
:104EB0008AE289834FB7F894DE01139620E03EE042
:104EC00051E2E32FF0E050935700E49120FF03C03C
:104ED000E295EF703F5FEF708E2F90E0EA30B8F010
:104EE000C7968D939D932F5F243159F74FBF8091C3
:104EF000E800877F8093E8006AE270E0CE010196C7
:104F000067DC8091E8008B778093E80052C0C09600
:104F1000E8CF6091FE037091FF03AE014F5F5F4FDA
:104F200096DBBC01892B09F444C09091E800977F7F
:104F30009093E80089819A81A9DCE3CF8038C9F594
:104F40008091E800877F8093E8008091F50380934B
:104F5000F10049CF81112DC09091FC03923048F5AA
:104F60008091E800877F8093E8009093F50321DD2E
:104F70008091F503882311F084E005C08091E3005F
:104F800087FDFACF81E08093F90366DA12C0809141
:104F9000FC03813071F481E0933009F080E080936C
:104FA000F7031092E9008091E800877F8093E80082
:104FB00000DD8091E80083FF0AC08091E800877FD0
:104FC0008093E8008091EB0080628093EB00AA96CA
:104FD000E3E07FC00895CF938091F903882399F08F
:104FE000C091E900CF709091EC00892F817090FD05
:104FF00080E8C82B1092E9008091E80083FDAEDEC6
:10500000CF70C093E900CF91089523DD1092F9038A
:105010000895E8EDF0E08081806180838AE18A95DF
:10502000F1F700C08091D90081700895A1E21A2E95
:10503000AA1BBB1BFD010DC0AA1FBB1FEE1FFF1F3C
:10504000A217B307E407F50720F0A21BB30BE40B8C
:10505000F50B661F771F881F991F1A9469F76095D3
:105060007095809590959B01AC01BD01CF0108958D
:10507000EE0FFF1F0590F491E02D09942F923F92BF
:105080004F925F926F927F928F929F92AF92BF9258
:10509000CF92DF92EF92FF920F931F93CF93DF9304
:1050A000CDB7DEB7CA1BDB0B0FB6F894DEBF0FBE61
:1050B000CDBF09942A88398848885F846E847D84AE
:1050C0008C849B84AA84B984C884DF80EE80FD80B0
:1050D0000C811B81AA81B981CE0FD11D0FB6F89426
:1050E000DEBF0FBECDBFED010895FB01DC0104C0A2
:1050F0008D910190801921F441505040C8F7881BD0
:10510000990B0895FB01DC0102C001900D92415002
:105110005040D8F70895F999FECF92BD81BDF89A15
:10512000992780B50895A8E1B0E042E050E02FC093
:10513000DC01A40FB51F4150504040F0CB01840F5B
:10514000951F2E9105D041505040D8F70895262F35
:10515000F999FECF92BD81BDF89A019700B402166D
:1051600039F01FBA20BD0FB6F894FA9AF99A0FBE1B
:1051700008950396272FECDFEADF252FE9DF242FA0
:10518000E7CF0196272FE4DFE2CFDC01CB01FC0162
:10519000F999FECF06C0F2BDE1BDF89A319600B490
:1051A0000D9241505040B8F70895F894FFCF430254
:1051B0004F0257025D02630267026D02730201062D
:1051C0000106430643069C06290629062906B80659
:1051D00021072D072D07021A761A0A1AD419D81991
:1051E0000E1ADC19121A1E1AE8196F1AEC19221A73
:1051F000F019261A4E1AF4192A1A551AFA19301AE1
:10520000381AE019161AE4191A1AFE19341A441A2F
:105210005E1A6D1ACE19061A7D1A191C1F1C091C5C
:10522000131C251C2B1C311CCF26F726D927F7264B
:0C523000D9272A274A27D9279E27AA271A
:10523C004E02737C0000004802737C0000004202A6
:10524C0064520000003C02645200000000000000A8
:10525C000000831C941C991C0000900100000000AD
:10526C000000831C941C991C00008C0100000000A1
:10527C000000831C941C991C000088010000000095
:10528C000000831C941C991C000084010000000089
:10529C000000831C941C991C00008001000000007D
:1052AC000000831C941C991C00007C013800310008
:1052BC003600300010002F001300340023023100A0
:1052CC0035023500FF00AA00E702070301000000C9
:1052DC0001000000000000000401000000040500B3
:1052EC00000000000001000001000B1FF621F1215D
:1052FC00C821EC21E200E900EA00B500B600B700D5
:10530C00CD008301CC008A01920194012102230279
:10531C0024022502260227022A02B300B4006F00E1
:10532C0070009F01CB019F02A002818283E200E901
:10533C0000EA00B500B600B700CD008301CC008AAE
:10534C000192019401210223022402250226022744
:10535C00022A02B300B4006F0070009F01CB019FC2
:10536C0002A00281828331F7F6F5F4946697C62D7C
:02537C0003002C
:00000001FF
