:100000000DC2000028C2000026C200000C947C2112
:1000100022C2000020C200001EC200001CC200005C
:100020001AC2000018C200000C9462260C942F27FC
:100030000C94012010C200000EC200000CC200008F
:100040000AC2000008C2000006C2000004C200008C
:1000500002C200000C94A320FEC10000FCC10000FD
:10006000FAC10000F8C10000F6C10000F4C10000B0
:10007000F2C10000F0C10000EEC10000ECC10000C0
:10008000EAC10000E8C10000E6C10000E4C10000D0
:10009000E2C10000E0C10000DEC10000DCC10000E0
:1000A000DAC10000D8C10000D6C10000340036001B
:1000B000370013001C0004001224082218280C002A
:1000C000330014000D000E001B00000000000000B3
:1000D000417E2C210F00150006000A0009001600C1
:1000E000113417320B3807001D0019001A001000D8
:1000F0000500000000000000427E283114001A00B4
:1001000008001500170004001600072209000A0065
:100110001D001B0006001900050000000000000083
:10012000417E2C00025712000C0018001C00330006
:100130000F000E320D000B00055737000457035710
:100140001100000000000000427E2800437E447E33
:10015000457E467E2A082B022B00E100E3002A049C
:10016000477E487E497E4A7E4C0400000000000025
:10017000000000004F12521251125012501A4F003C
:1001800052005100500050184F1452145114501482
:100190005016000000000000407E2C0F1E021F02BF
:1001A00020022102220259005A005B005C005D001F
:1001B0002F0230022D000157005700000000000000
:1001C0002D02045227022602250224022302620085
:1001D000610060005F005E003100310230002F00DE
:1001E0003800000000000000000000004B7E00000E
:1001F000220A210A210B00000000470048000608DF
:100200005000510052004F0019080000000000008B
:10021000417E2C0000000000A800AE002900BB00B9
:10022000A900AA00BC002A004F0052005100500053
:100230000000000000000000427E28000822173263
:10024000000000000000000000002A2B2800000031
:100250000000000000000000000000000029000075
:1002600000002C1E3420212224342627252E362D52
:100270003738271E1F202122232425263333362EEC
:1002800037381F0405060708090A0B0C0D0E0F105E
:100290001112131415161718191A1B1C1D2F3130A3
:1002A000232D350405060708090A0B0C0D0E0F1047
:1002B0001112131415161718191A1B1C1D2F313083
:1002C000354C0000000000000000000000000000AD
:1002D000000000000000000000000000000000001E
:1002E0000000000000007E0F00D4FFFFFFC70000E9
:1002F00000781A03430068006F0063006F006C0011
:1003000061006400200052004700420000000A0320
:100310006A006D006E007700000004030904090202
:100320003B00020100A0FA090400000103010100E2
:100330000921110100012244000705810308000181
:10034000090401000103000000092111010001223C
:100350006D00070582032000011201000200000069
:10036000080418503001000102000105010980A1B4
:1003700001850319012AB700150126B700950175FB
:10038000108100C0050C0901A101850419012AA0F2
:1003900002150126A002950175108100C005010912
:1003A00006A1018506050719E029E7150025019535
:1003B00008750181020507190029EF15002501952F
:1003C000F07501810205081901290595057501914E
:1003D00002950175039101C005010906A1010507F8
:1003E00019E029E71500250195087501810295019D
:1003F000750881010507190029FF150026FF0095E2
:1004000006750881000508190129051500250195C3
:100410000575019102950175039101C011241FBE5C
:10042000CFEFDAE0DEBFCDBF12E0A0E0B1E0ECEC50
:10043000F3E502C005900D92AC32B107D9F723E085
:10044000ACE2B2E001C01D92A23FB207E1F70E9408
:1004500098150C949929D4CD80913302882321F0EA
:10046000109233028AEA33D480913202882321F039
:100470001092320288E82BC40895892B39F4662340
:1004800029F080E0BAD681110C9483160895CF9399
:1004900080549E47C1E08C30910508F047C0FC01B4
:1004A000E556F64DDB011596CC910C94FC28C11154
:1004B00002C0C0E03BC083E090E077D68FEF02D46B
:1004C0008CE280D317D6F5CFCC23A1F00E94602018
:1004D000909331028093300284E08FD6882311F00C
:1004E00084E0A9D682E089D6C82F82E0C111E1CF8D
:1004F00094D61CC0B1DF82E080D6882311F082E060
:100500009AD682E07AD681110DC00E946020209197
:10051000300230913102821B930B8A3A910510F41C
:1005200089E2C9D310923102109230028C2FCF9100
:100530000895CC2399F00E94602090932F0280931D
:100540002E0284E05AD6882311F084E074D683E02A
:1005500054D6C82F8111ADCF83E0CACF7DDF83E0B1
:100560004CD6882311F083E066D683E046D681110D
:100570000DC00E94602020912E0230912F02821B1C
:10058000930B8A3A910510F48AE295D310922F02C8
:1005900010922E02CBCFCC2309F494CF88E892D3CB
:1005A0008FE210D386CFCC2309F48CCF88E88AD38E
:1005B00080E3F7CF83E3CC2309F484CF83D38BE2AA
:1005C000F0CFCC2309F47ECF81E1F8CFCC2309F41E
:1005D00070CFC0913302C11110C0809132028823C4
:1005E00021F0109232020E94450D8AEA6BD38BE211
:1005F00062D381E08093330299CF8BE25CD359CFF1
:10060000CC2309F456CFC0913202C111F6CF8091AC
:100610003302882321F0109233020E94450D88E8AE
:1006200051D38BE248D381E0809332027FCFCC2339
:1006300009F448CF81E146D380E5B3CFCC2309F458
:1006400041CF81E13FD38FE4ACCFCC2309F43ACF43
:100650008CEC38D38CE0A5CF8530B8F46830A8F4A2
:10066000453098F450E095E0699F400D511D1124EC
:10067000FA0198E2899FE00DF11D1124EE0FFF1F92
:10068000E455FF4F85919491089581E090E008959D
:10069000E3CF089581E090E00895892B19F480E07C
:1006A00091E0089590E080E00895F7CF089586E006
:1006B00090E008958630910540F424E0880F991F5A
:1006C0002A95E1F7895F9E4F089590E080E00895B4
:1006D000F1CF08959C013A9521153F4150F5FC0159
:1006E000EE27F170BC0166277270AC01442754708C
:1006F0009C012227387094FF0EC080E1EF2B09F493
:1007000080E0672B09F08062452B09F08064232B81
:1007100089F08068089581E0EF2B09F480E0672B71
:1007200009F08260452B09F08460232B19F0886062
:10073000089580E00895CF93DF93EB01CBDFFE01B6
:100740000995DF91CF910895CF93DF93EC01805EFF
:100750009109089720F063E678E0209711F462E6AB
:1007600076E0CE01E8DF8C2F2DD2DF91CF91089576
:10077000CF93DF93EC0163D2CE01805E910908979D
:1007800020F068E678E0209711F467E676E0CE0185
:10079000D2DFDF91CF91089581E00895FDCF0895D4
:1007A00081E0089574CE08950895FECF0895A6E0DF
:1007B000B0E0EDEDF3E00C94112949835A839E8358
:1007C0003091400289819A81311117C03E813323D3
:1007D00089F0222379F0D8D5182F682F89819A8142
:1007E000B2D569817A81812F0E94C7102696E3E0F5
:1007F0000C942D29B9D5182FF4CFC6D569817A81EB
:10080000F3CFFC01262F87819085009739F4408132
:1008100051816281738184819581C9CF0895CF937D
:10082000DF93EC0161E0EDDFBE01B8DF882351F01A
:1008300061E0CE01E6DFBE010E944E188170DF91BB
:10084000CF91089580E0FACFCF93DF93EC0160E081
:10085000D8DFBE01AADFDF91CF91089521E030E01B
:10086000A90102C0440F551F8A95E2F7CA018DC441
:10087000CF93C82F81E090E00C2E02C0880F991F03
:100880000A94E2F70E94590E8C2FE8DFCF91089569
:1008900081E00895FDCF0895CF93C82F2BD48C2FDE
:1008A000F9DF2FEF84E39CE0215080409040E1F796
:1008B00000C00000CF91089581E0EEDF0C94C720C6
:1008C00080E0EADF0C94D8200F931F93CF93DF933F
:1008D0008C0161E096DFEC01B8010E946D1D882358
:1008E00021F061E0C8018DDFEC01B801CE015ADFD3
:1008F000811106C080E0DF91CF911F910F91089583
:10090000B801CE010E94E4158823A1F3B801CE01FD
:100910000E94911D882371F3B801CE010E94141A20
:10092000882341F3B801CE010E94C11C882311F332
:10093000B801CE010E946E1A8823E1F2B801CE01FF
:100940000E94461A8823B1F2B801CE010E94051216
:10095000882381F2F8018581882361F0C330FCE7A8
:10096000DF07D9F050F4C115ECE7DE07A1F0C13084
:10097000DC47A9F0C80114DFBECFCB358CE7D80720
:1009800099F0CC35ECE7DE0761F0CA35DC4791F72A
:100990000E943A0EEFCF90DFADCF0E943E0E90DF67
:1009A000A9CF0E94320EE6CF0E943C0EE3CF0E94F8
:1009B000E21FB2C0B3D00C94E61F2F923F924F9229
:1009C0005F926F927F928F929F92AF92BF92CF92DF
:1009D000DF92EF92FF920F93CF93DF931C012901D7
:1009E0003A016B0181E0C81AD108E101CC0DDD1D8F
:1009F0001882F12CE12C8AE0882E912CA12CB12CAC
:100A0000EC14FD0498F0C101DF91CF910F91FF909C
:100A1000EF90DF90CF90BF90AF909F908F907F909E
:100A20006F905F904F903F902F900895C301B20157
:100A3000A50194010E94DA28605D603319F4E11485
:100A4000F10431F0411451046104710409F4602F80
:100A50006A93C301B201A50194010E94DA28290119
:100A60003A018FEFE81AF80ACBCF0F9320917F015C
:100A7000309180012817390721F420913A02261776
:100A800089F09093800180937F0160933A029C01EA
:100A900050E040E0062F66E070E084E392E08DDFF6
:100AA0000F91089584E392E0FBCF292F332740E094
:100AB0002115310511F0C90148E09C0164E036952B
:100AC00027956A95E1F72115310511F04C5FC901B1
:100AD0009C0136952795369527952115310511F0FE
:100AE0004E5FC90196958795892B09F04F5F842F3A
:100AF000089581E008950895CF93DF93D82FF9DF0B
:100B0000C82F882311F08D2FF6DF8C2FDF91CF9126
:100B100008950895F1CF089580E0FCCF0E94191E3A
:100B2000F9CFCF930E94191EC82F80913B028C17DA
:100B300071F0C0933B020E946C2060933C02709362
:100B40003D0280933E0290933F028C2FE3DFCF91D2
:100B50000895AFE0B0E0EFEAF5E00C9410294A8781
:100B60005B876C877D878E879F879111A1D71F82B6
:100B70001886198686E0FE013A96DE0111960190EC
:100B80000D928A95E1F78D8181110EC009811A813C
:100B90002B813C814D815E816F8178858985CED6A0
:100BA0002F96E4E00C942C29CE01019638DE8111B9
:100BB000EDCFF6CFFC012481213019F480819181A1
:100BC00014C40895CF93C82F882389F08CEF8C0F1D
:100BD000813A78F48C2F0E94B11E882321F08C2F4B
:100BE0000E94531FF3D78C2F0E943C1FEFD7CF9149
:100BF000089580E28C0F883040F4C77081E001C016
:100C0000880FCA95EAF734D7F1CFEBE5EC0FE33064
:100C100040F4F0E0EB51FE4F808190E00E94461ED0
:100C2000E6CFC85ACB3118F7EC2FF0E0EE0FFF1FDC
:100C3000E155FE4F808191810E946B1ED8CF8823A1
:100C400019F19CEF980F913A18F40E94531FBEC7F8
:100C500090E2980F983048F4877091E001C0990FA6
:100C60008A95EAF7892F0AD7F2CF9BE5980F933040
:100C700020F490E080E00C94461E885A8B3120F4DA
:100C800090E080E00C946B1E08951F93CF93DF9348
:100C9000182FEB0197DF209731F4812FD0DFDF9100
:100CA000CF911F9108958FE99FE00197F1F700C060
:100CB00000002197F0CF70E060E0893311F460E527
:100CC00070E0E3CF882311F0D3D680C7089588233E
:100CD00011F0D4D67BC70895B0E0A0E0E2E7F6E0DB
:100CE0000C940B296C01D62FC72FFC0115810681AE
:100CF00002950F70B3D6E82E8823E9F0E12E112378
:100D0000D1F08C2F807F803461F080E28D0F8830AD
:100D1000F8F08C2F807E803221F4D230C8F000238E
:100D2000B9F08091CA0382FF13C082E073D796D6D0
:100D300091E0E82EE926BC2EB2949FE0B922FBE0B8
:100D4000FB1580F1EB2DF0E0E955F64D0C94FC28F5
:100D5000E12CF1CF0C2F0F70C07F11F00295007FB6
:100D6000112381F0002349F080E28D0F883010F0CC
:100D7000D11105C0802F7CD629D78D2F4CC0802F54
:100D80008AD6FACF8D2F5BDF002361F080E28D0FD2
:100D9000883010F0D11103C0802F70D602C0802F90
:100DA00080D614D7EB2DE850FF0B349718F40E942F
:100DB000191EB0DEEE2059F04DD680FD08C0F601B8
:100DC000158242D62AD2C60160D13ED634D2CDB7E2
:100DD000DEB7E9E00C9427292C2F2F70F22EC07F6C
:100DE000C03219F0F29480EFF822DD2341F0D130C7
:100DF00089F1112309F439C00023D1F0BECF8091CD
:100E0000CA0382FD11C0112341F0FF2019F08F2D7C
:100E10002FD6DCD680E0D6DEC5CF80E010DFFF2005
:100E200009F4C0CF8F2DB9CF112359F0011103C0A0
:100E30008F2D48DFB7CF013009F0B4CF8F2D4FD6BB
:100E4000B1CF0111AFCF8F2D42DF8F2D53D68F2D14
:100E500038D6A8CF112321F0023008F0A3CFE8CF75
:100E60000111A0CF8F2D33DF9DCF0023D9F3D933CC
:100E700049F43FEF87EE93E0315080409040E1F736
:100E800000C000008D2FDBDE8DCF8C2F86958695E0
:100E9000837069F0813009F085CF8D2F9C2F93707E
:100EA000111102C080E090E00E946B1E7BCF8D2F5D
:100EB0009C2F9370111102C080E090E00E94461EAA
:100EC00071CF8C2F837081F511116CCF4D2F42950E
:100ED00046954770440F440F2D2F2F7030E0042E9D
:100EE00002C0220F331F0A94E2F790E080E0D4FFA3
:100EF00009C08FE090E002C0880F991F4A95E2F781
:100F000080959095C695C695C370822B932BC23061
:100F100039F040F4C13011F041D144CF38D142CF43
:100F200044D140CF32D13ECF8695112311F08C2F82
:100F30008170882309F436CF4D2F4295469547702E
:100F4000440F440F2D2F2F7030E0042E02C0220FCB
:100F5000331F0A94E2F790E080E0D4FF09C08FE0ED
:100F600090E002C0880F991F4A95E2F7809590950E
:100F7000C695C695C370822B932BC23039F040F4CE
:100F8000C13011F07DD10ECF74D10CCF80D10ACFFA
:100F900017D108CFCF70112321F08C2F3ED18D2F88
:100FA00048CF8D2F94DE8C2F46D1FCCED23F31F12D
:100FB00060F4D03FB9F0D13F81F0112309F43BC078
:100FC0000111DBCE8C2F8F711DC0D33FE9F0D43FD0
:100FD000A1F78091CA0382FD1FC08C2F8F7111234E
:100FE00019F310C0112331F00111DCCE8C2F8F7159
:100FF00032D1D8CE023008F0D5CEF8CF8C2F8F71F9
:101000001111D2CF0AD1CECE112321F08C2F8F71A6
:10101000FAD0C8CEDBD0C6CE112329F063E08C2FE6
:101020008F71E1D5BFCE81E0F5D5023008F4BACE9C
:1010300082E0F0D5B7CE002359F0D93309F022CFA2
:10104000EFEFF7EE23E0E150F0402040E1F718CF5A
:101050008C2F8F71A9CF0F931F93CF93DF93EC0148
:101060008F819885009761F07CD78C0117D18CD047
:10107000B801CE0131DEDF91CF911F910F9108951C
:10108000688179818D81BAD1F0CFCF93DF93EC0164
:101090008C81882381F0CE0117DC81110FC0DED452
:1010A000882349F08D81882331F08091CA0382FF23
:1010B00002C082E0AFD5DF91CF910895CE01CBDFA2
:1010C000CE01C2DBF8CF882311F0E5D47FC50895A7
:1010D000882311F0E6D47AC5089590E080E00E945C
:1010E000461E90E080E00E946B1EE2D46FC50E9415
:1010F0006A1FF3CFCAD4FBCF92959F70963091F0C0
:1011000058F4925F9F70923058F4803F19F030F499
:10111000883E30F481E008959A5FF4CF843FD1F3A4
:1011200080E00895883EB0F3813FD1F7F3CFFC0112
:101130008481882351F087819085009711F011D721
:10114000DBCF8081918151D1FBCF80E00895A6E073
:10115000B0E0EDEAF8E00C9412292696E2E00C9457
:101160002E29A9E0B0E0E7EBF8E00C9410292996CD
:10117000E4E00C942C290895FECF0895FDDF9093B0
:1011800058028093570208950895F8CF089520914A
:10119000570230915802822B932BF0CF20915702A7
:1011A0003091580282239323E9CF20915702309146
:1011B000580282279327E2CFDECF0895FDCF08950E
:1011C000FDDF9093560280935502089590E080E0F1
:1011D000F7CF009729F481E0662371F080E00CC01E
:1011E00021E030E002C0220F331F6A95E2F7282386
:1011F000392381E0232B91F30895682F80915502C4
:1012000090915602E6CF21E030E0A90102C0440FE0
:10121000551F8A95E2F7CA01D3CF21E030E002C022
:10122000220F331F8A95E2F7809155029091560262
:10123000822B932BC5CF21E030E002C0220F331F59
:101240008A95E2F72095309580915502909156024B
:1012500082239323B5CF21E030E002C0220F331F59
:101260008A95E2F780915502909156028227932742
:10127000A7CF2091550230915602822B932BA0CFFD
:1012800020915502309156028223932399CF2091C9
:101290005502309156028227932792CF0895262F28
:1012A000277091E001C0990F2A95EAF723E076951F
:1012B00067952A95E1F7660F771F660F771FFA018A
:1012C000E60FF71F50E040E0682F70E08191DF01EA
:1012D00011979B01042E02C0369527950A94E2F7D8
:1012E000217021952827292328272C934F5F5F4FB2
:1012F0004430510559F70895A82FA77023E096951B
:1013000087952A95E1F7880F991F880F991FFB0190
:10131000E80FF91F50E040E080E0219130E00A2E14
:1013200002C0369527950A94E2F721703327042EE0
:1013300001C0220F0A94EAF7822B4F5F5F4F4430BF
:10134000510559F70895262F983068F4853058F4E0
:10135000682F70E085E0989F600D711D112441E4B5
:1013600052E0822F9CCF0895292F983058F4853071
:1013700048F490E061E472E035E0239F800D911D18
:101380001124BACF80E00895B0E0A0E0EAECF9E0E3
:101390000C940B297C01009155021091560280910A
:1013A000570290915802082B192BCFE0D0E0CC24A3
:1013B000C394D12CBC2EC6010C2E02C0880F991FDD
:1013C0000A94E2F780239123892B49F4219790F71F
:1013D000B12C8B2DCDB7DEB7E9E00C942729B701EE
:1013E0008C2FE0D6019791F3F4CFCF93DF93EC01EC
:1013F000CBDFBE01D7D6DF91CF9108951F93CF9356
:10140000DF93EB0190914002992331F0CB01EDDFA6
:10141000DF91CF911F910895882351F0CB01B4DF64
:10142000182F682FCE018FDFBE01812FBBD6F0CFE2
:10143000CB019ADF182FF8CFFF920F931F93CF9312
:10144000DF93C091590289E0F82E80915A028C13E3
:1014500005C0CDB7DEB7E5E00C942B29D0E0FC9EAB
:10146000F001FD9EF00D1124E55AFD4F0081118120
:10147000228133814481558166817781808571DE47
:101480002196C770E2CF0F931F930091A302109192
:10149000A4022091A5023091A6024091A70250918A
:1014A000A8026091A9027091AA028091AB0259DE54
:1014B0001F910F9108950F931F93CF93DF93809106
:1014C000A902807F09F04FC08091A802882309F407
:1014D0004AC0E0915902D0915A021091A4020091A1
:1014E000A3024091A5025091A602609181017091E2
:1014F0008201C9E0DE17B9F18E2F90E0EC9FF00178
:101500001124E55AFD4F2481222391F1C89FF00157
:10151000C99FF00D1124DF01A55ABD4F11962C91E2
:101520001197211325C02C91201322C015962C91C0
:10153000159721111DC012962D913C91241B350B3E
:1015400026173707A8F48091A9028F7080618093D5
:10155000A902EF59FD4F80818F708061808383EAFB
:1015600092E093DD69DFDF91CF911F910F91089594
:10157000FC013196E770BECF482F2091590290911F
:101580005A0259E0291302C080E0089530E0529FCA
:10159000F001539FF00D1124E55AFD4F818168132E
:1015A00006C08081481303C085818111EECF2F5F73
:1015B0003F4F2770E7CFA8E1B0E0E1EEFAE00C94EE
:1015C00008298C0186E0F801DE01539601900D9206
:1015D0008A95E1F7D80114968C9114971596EC90A2
:1015E000159793EAA92E92E0B92E9091A702911136
:1015F0001AC08823A9F0EE2089F0C80198DDF82EE2
:10160000882361F089E0F801D50101900D928A9557
:10161000E1F7C501CFDA4FDF36DF48C0C80135DD5D
:10162000FF24F39443C0F801C080D180828093806E
:10163000F090A8022091A5023091A602A401421BBD
:10164000530B9A014091810150918201FF2009F4CE
:101650001EC12417350708F0C0C0882339F19091C6
:10166000A4028091A902282F207F09F069C09D1152
:1016700022C09091A302C9121EC04091AA025091AB
:10168000AB022781308542175307A9F4E11052C0FD
:101690008F7080618093A902F6DE83EA92E0F5DC28
:1016A0008091A902D80116968C93F12C8F2D689603
:1016B000ECE00C942429E1103DC06D2D8C2D5CDFF5
:1016C000E82E882361F083EA92E0DFDC89E0E3EA38
:1016D000F2E0DF011D928A95E9F7D5DEE6CFCB8AED
:1016E000DC8A8B899C8981DE292F22952F702430FA
:1016F00058F49F70223080F0992391F0F801968180
:10170000907F71F4FE2CD2CF2A5F2F70223060F0D0
:10171000C801BBDCEF2CF6CF992311F0882391F39D
:10172000805E883078F3F4CF803F60F3815F833050
:1017300078F7E8CF8091A90281608093A902B5CFA4
:101740009D111EC09091A302C9121AC04091AA0215
:101750005091AB0217962D913C9118974217530761
:1017600079F4E1100DC016968C93C8018EDC89E0E7
:10177000F801A3EAB2E001900D928A95E1F74CCF0F
:10178000C801D5DC882309F449CFEE2009F446CFFF
:101790008091A9028032B0F02091A3023091A4027E
:1017A0003B872A879D868C869091A7029E871F86FD
:1017B000888B8091AA029091AB029A8B898BCE0183
:1017C0000A9663DC89E0F801A3EAB2E001900D9289
:1017D0008A95E1F770DE57DE23CF9091A902292F79
:1017E000207F81F4682D9E8A8D8AA6017E899E2D98
:1017F000AEDC83EA92E049DC89E0F50111928A953A
:10180000E9F76BCF882309F451CF8091A4028D11A1
:101810001BC08091A302C81217C04091AA02509128
:10182000AB0217962D913C9118974217530761F41C
:10183000E1100AC016969C93C80127DC89E0F501E7
:1018400011928A95E9F732CFC80171DC882309F437
:10185000E5CEEE2009F4E2CE8091A902803208F4B0
:10186000B1CF2091A3023091A4023A8329839C82B4
:101870008B829091A7029D831E828F838091AA0202
:101880009091AB0299878887CE0101969ACF241751
:10189000350708F046C0882309F4C2CEFE2CEE209E
:1018A00009F4BCCE8091A4028D112FC08091A302B7
:1018B000C8122BC04091AA025091AB0217968D918D
:1018C0009C9118974817590701F52A3A3105A0F459
:1018D0009091A90290FD10C0907F71F08091A902B3
:1018E00016968C931697903F09F43FCF982F907FD0
:1018F000905F8F70892B37CF89E0F801A3EAB2E0BF
:1019000001900D928A95E1F7D1CEC80110DC8111CA
:1019100059CF8091A90281608093A902C801B5DBEB
:10192000C5CE682D9E8A8D8AA6017E899E2D0FDCEC
:1019300089E0F50111928A95E9F76ECEA2E1B0E057
:10194000E4EAFCE00C940F290A871B872C873D876B
:101950004E875F87688B798B8A8BCE010A962BDE48
:101960008823C1F04E85442349F00A851B852C85C8
:101970003D855F85688979898A89F3DB89E0F82E5E
:101980008091590290915A0289133BC06296E5E01A
:101990000C942B2989E0FE013A96DE011196019004
:1019A0000D928A95E1F78E85882341F320915A02A2
:1019B00030E0C90101968770992740915902481774
:1019C000190691F099E0929FD001939FB00D1124D8
:1019D000A55ABD4FFE01319601900D929A95E1F7FF
:1019E00080935A0229DDCACF85DB10925A021092E9
:1019F000590289E0E3EAF2E0DF011D928A95E9F7F6
:101A0000BDCF8F9DC0011124855A9D4FD4DD882301
:101A100009F4BCCFE0915902FE9EF0011124E55A71
:101A2000FD4F00811181228133814481558166817E
:101A30007781808596DB8091590290E001968770CE
:101A40009927809359029CCF8091D40286958695E0
:101A5000869508958091D402877008959091D4025C
:101A6000977081E009F480E0089580910003089563
:101A700090910003892B80930003089580959091A5
:101A80000003982390930003089510920003089593
:101A90008091FF0208959091FF02892B8093FF02AD
:101AA000089580959091FF0298239093FF020895E6
:101AB0001092FF0208958091D60208950895FECFF6
:101AC00008959091D502292F282329F08095892304
:101AD0008093D502F4CF08950895FECF0895909194
:101AE000D602292F2823281721F0982B9093D6026D
:101AF000F4CF08959091D602292F282329F08095BC
:101B000089238093D602E9CF08958091D602882355
:101B100021F01092D60280E0E0CF0895CF93C091DB
:101B200000038091FF02C82B8091D602882329F000
:101B3000C82B0E94901E8111E8DF8C2FCF91089551
:101B4000CF93DF93C0918501D0918601E7DF888331
:101B5000C0918501D091860148E050E06CEC72E0C4
:101B6000CE010E943929892B59F088E0FE01ACECA6
:101B7000B2E001900D928A95E1F7CE010E942D1EF0
:101B8000DF91CF910895CF93DF93C0918301D091DE
:101B90008401C4DF8983C0918301D091840140E234
:101BA00050E06CEA72E0CE010E943929892B59F08D
:101BB00080E2FE01ACEAB2E001900D928A95E1F775
:101BC000CE010E94381EDF91CF9108950E94C11F5F
:101BD000813029F48091C90387FF01C0D4CFB0CFF1
:101BE0000895FECF08959091CA0392FF0EC098E029
:101BF000899F90011124622B6093D4020EDB8091A7
:101C0000D402869586958695ECCF07CB1092D402A8
:101C100080E0E7CF9091D402809589238093D4020D
:101C2000282F277059F4891749F09091CA0392FF21
:101C300005C0869586958695FEDAE8CF0895909141
:101C4000CA0392FB222720F9281759F080FB92F94A
:101C50009093CA038091C9039091CA0333D082E064
:101C6000D9CF08958091CA0382FB882780F991E03B
:101C70008927E5CF81E0E3CF80E0E1CF6FEF7FEF11
:101C800090E080E00C94852990E080E00E94572944
:101C900021E0853E9E4F09F020E0822F089582E0EA
:101CA00090E00C944F2983E090E00E944F2990E04F
:101CB0000895682F83E090E00C946B2984E090E015
:101CC0000C945729BC0184E090E00C948529AB0169
:101CD000BC018FE090E00C947D29AB01BC0183E155
:101CE00090E00C947D2960E070E0CB01F6CF60E0DD
:101CF00070E0CB01ECDFF7CFA8E0B0E0E2E8FEE077
:101D00000C94122965EE7EEF90E080E00E94852918
:101D100060E082E090E00E946B2981E090E0909387
:101D2000580280935702C5DF60E074E184E090E0E0
:101D30000E94852960E086E090E00E946B2960E0C7
:101D400087E090E00E946B2940E050E0BA0188E013
:101D500090E00E947D2960E083E290E00E946B2980
:101D600060E08CE090E00E946B2960E08DE090E004
:101D70000E946B2919821A821B821C821D821E827C
:101D80001F82188648E050E067E170E0CE010196BE
:101D90000E945C2940E050E0BA018FE190E00E948F
:101DA0007D29A5DF2896E2E00C942E29A5CF089581
:101DB000682F8EE090E00C946B29A6E0B0E0E3EE93
:101DC000FEE00C9410290E9460208C018091010398
:101DD000909102038017910781F019821A820E9464
:101DE0006020682F49815A81792F80E090E00E941D
:101DF000A90510930203009301032696E4E00C94D6
:101E00002C29E8D260930F03709310038093110381
:101E10009093120360930B0370930C0380930D0354
:101E200090930E03089508950895FDCF08950895A1
:101E3000FECF089581E0089583E092E18AD6F4DF31
:101E4000F4CF99C4089508950895FDDFFDCF1CDFF8
:101E5000811101C0ABDF23DF809313032FDF909349
:101E6000CA038093C90392D61EDF8FD98091550291
:101E700090915602A3C90E94572087D281D4D9D30A
:101E8000E6DF0E9489050E94FC1987D4D1CF73D464
:101E9000882329F00E94F61D0E940F184EC708954E
:101EA000A6E0B0E0E6E5FFE00C940929C3DF81116C
:101EB00008C083DFECDF0E9491052696EBE00C94CE
:101EC0002529D6D383E0A82E83E0B82E750110E033
:101ED000F70101917F01812FB0D21F5F183009F403
:101EE0003DC00817A9F38091130381FDACD2A9DF8F
:101EF000C82E10E099249394812F9FD2082FF501CA
:101F000081915F01081729F1D02ED826F12CEE24FB
:101F1000E3948D2D8E21A9F0CC2099F0F9821A83BB
:101F20000E9460209C838B839D8291E0802F8E2174
:101F300009F490E049815A816B817C818D810E94F6
:101F4000A905F394EE0CF5E0FF12E3CFF50131970C
:101F500000831F5F183081F654DFACCF0813C3CF66
:101F6000A8CF1F93CF93DF931FD1EC01C11580E55C
:101F7000D807F0F5C11580E4D80708F09AC0C03E34
:101F8000D10520F5CD3CD10508F082C0C83AD10575
:101F900078F4C53AD10508F073C0C130D10519F104
:101FA000209709F1C430D105F0F4D0E0C0E01BC0A7
:101FB000C33CD105D0F7C85AD0E0CC0FDD1FC851C3
:101FC000DE4F0990D881C02DD4640DC0C11580E2C8
:101FD000D80708F0CCC0C11581E0D80708F05AC076
:101FE000C83ED10510F7CE01DF91CF911F91089522
:101FF000C03682E5D80718F5C03482E5D80708F066
:1020000068C0C03282E5D80708F05CC0C11582E51F
:10201000D80708F493C02C2F2695269580E2289F98
:10202000900111248C2F8370C1E0D0E002C0CC0F4E
:10203000DD1F8A95E2F7C22BD32BDD68D4CFC03ADF
:1020400082E5D80760F4C03882E5D80708F456C0A6
:10205000CF71D0E0DC2FCC27C46FD06AC4CFC03C96
:1020600082E5D80708F45FC0C03E82E5D80708F0D3
:102070009CCFDC2FCC27CC27DF71C06FD06AB3CFC9
:10208000C55AD0E0C25EDD4FC881D0E0D064ABCF8E
:10209000D065A9CF8D2F2AD1182FCE01992784D0B2
:1020A000C12FD0E0DC2FCC27CC27DF71C82BD92B58
:1020B0009ACFCE01992778D0CC27DF70C82BD92BA7
:1020C000D06A91CFCF71D0E0DC2FCC27C16FD06A1E
:1020D0008ACF2C2F26952695277080E2289F900185
:1020E00011248C2F8370C1E0D0E002C0CC0FDD1F23
:1020F0008A95E2F7C22BD32BDC6875CF2C2F26955F
:102100002695277080E2289F900111248C2F8370E0
:10211000C1E0D0E002C0CC0FDD1F8A95E2F7C22BF0
:10212000D32BDA6860CF8C2F8F71E0D0C82FD0E02E
:10213000DC2FCC27CC27DF71D06255CF8C2F8F714D
:10214000D5D055E0D695C7955A95E1F7CF70D0E038
:10215000DC2FCC27282F30E084FF05C044E0220F7D
:10216000331F4A95E1F7C22BD32BD0693CCF8D2F7B
:102170008F71BCD0182FCE01992716D0C12FD0E077
:10218000DC2FCC27CC27DF71C82BD92BD5CF462FFE
:10219000783028F4653018F4672F0C94480390E0E9
:1021A00080E00895F4DFDDCE82389105B9F1B0F416
:1021B0008133910509F47DC048F48932910509F411
:1021C0006DC08A32910509F47BC00895853391056D
:1021D00009F45FC08933910509F10895833E9105A3
:1021E000D9F138F4803E910529F1823E910579F1CB
:1021F0000895863E9105D9F1873E910509F43EC0C8
:10220000843E910541F52091CA0321FF24C08091AD
:10221000C90384FD19C087EE90E008952091C90399
:10222000237009F05AC02091CA0323FF14C089E229
:1022300090E008952091C90320FD38C03091CA0371
:1022400030FF09C024FF43C090E080E00895209152
:10225000C90322FDF7CF08952091C90322FD3AC09A
:102260003091CA0330FD39C024FFF5CFEDCF209166
:10227000C90323FFF0CF24FDE7CFCDCF2091C903C1
:1022800023FD2EC03091CA0331FFEECF84EE90E0E3
:1022900008952091C90325FFDECFC9CF2091C9033E
:1022A00025FD21C02091CA0323FFD5CF89E390E00B
:1022B000D2CF2091C90326FFCECF8AE290E00895C5
:1022C0002091C90326FFC7CF81E390E0089583EEF4
:1022D00090E0089582EE90E0089580EE90E00895F9
:1022E00086EE90E0089585E390E008959091C9030B
:1022F00092FF10C041E0282F2471243009F040E003
:1023000031E0282F2871283009F030E0431711F010
:102310002CE0822793FF10C041E0282F2471243144
:1023200009F040E031E0282F2871283109F030E031
:10233000431711F02CE082273091CA0330FF10C000
:1023400051E0282F2171213009F050E041E0282F81
:102350002871283009F040E0541711F029E0822755
:1023600031FF10C041E0282F2171213109F040E0F8
:1023700031E0282F2871283109F030E0431711F09F
:1023800029E0822794FD877E08951092CB03109256
:10239000CC031092CD031092CE030895CF92DF921A
:1023A000EF92FF926B017C01E6D181110EC00E9479
:1023B0006C20C61AD70AE80AF90AC092CB03D09259
:1023C000CC03E092CD03F092CE03FF90EF90DF902C
:1023D000CF9008950F931F93CED1882329F00E94A8
:1023E0006C201F910F9108950E946C200091CB03E7
:1023F0001091CC032091CD033091CE03600F711F5B
:10240000821F931FEECF80E00895CF939C01205E42
:102410003245C1E02032310538F4FB01C581C111DC
:1024200003C08F710E9438048C2FCF9108950895B6
:10243000FECF08950895FECF0895E82FF0E0E8520A
:10244000FC4F80810895089580EA8A95F1F70895F8
:1024500000C00895F9CF08950895FECF0895EF9232
:10246000FF921F93CF93DF9300D000D0CDB7DEB79C
:1024700082D1182F6091E003882309F445C01982A6
:102480001A821B821C82862F90E09E012F5F3F4F95
:102490007901B90188529C4F8CD18823E1F0809159
:1024A000CF0390E044E050E0B70188529C4F0E9477
:1024B000392921E020931403892BC1F410E0BBDFFC
:1024C000812F0F900F900F900F90DF91CF911F9160
:1024D000FF90EF90089580911403882379F384E0AE
:1024E000F70111928A95E9F710921403E091CF0356
:1024F000F0E0E852FC4F89819A81AB81BC818083F6
:102500009183A283B383DBCF70E068527C4F8091CC
:10251000CF0390E088529C4FD1D19FDFD1CFF89468
:10252000E82FE295EF70F0E031A1282F2F7081E0C5
:1025300090E001C0880F2A95EAF7982F9095932391
:1025400091A392A1892B82A378940895CF93DF93CE
:1025500084E9E5DF86E6E3DF87E9E1DF86ECDFDFBC
:10256000C1E2D2E089918F3F09F0D9DF82E0C63223
:10257000D807C1F7DF91CF910895B0E0A0E0E3EC78
:10258000F2E10C940C29EC01D62E062F10E0C801C4
:102590008A5D9D4F7C01FC0180818F3F09F442C020
:1025A000F894E82FE295EF70F0E091A18F7021E0B0
:1025B00030E001C0220F8A95EAF7892F822B81A390
:1025C00082A12095282322A3789442DFE1E2F2E061
:1025D00046E252E031E0C12C21912F3F41F1A22F80
:1025E000A295AF70B0E090968C9190E02F7002C0F1
:1025F000959587952A95E2F780FD19C0832FC82A03
:10260000330F4E175F0741F7F70180818F3F09F0C5
:1026100086DF61E0C11001C060E08D2D1BDFC00FBF
:10262000D11FC882CDB7DEB7E8E00C94282980E03E
:10263000E6CF809187018091870194E0811190E03D
:102640009093E00384E0891B8093CF037FDF88E0D1
:10265000E8EDF3E0DF01982F1D929A95E9F7E0EDA0
:10266000F3E0DF011D928A95E9F784E03CD0E0CEEB
:10267000A8E0B0E0EEE3F3E10C940F298E010F5FC8
:102680001F4F88E0F80111928A95E9F7F12C6F2D20
:10269000C80173DFF394F4E0FF12F9CF48E050E093
:1026A000B80180ED93E00E94392921E0009709F4F8
:1026B00020E0892B41F088E0F801A0EDB3E0019023
:1026C0000D928A95E1F76091E00370E068527C4FCB
:1026D00044E080ED93E008D0182FC1DE812B2896CE
:1026E000E5E00C942B290895B0E0A0E0EAE7F3E1DF
:1026F0000C940C296C017B01042FC22F222379F04A
:1027000081E0809317030E946020909316038093CA
:10271000150380E0CDB7DEB7E8E00C942829D0910E
:102720001703DD23B1F380911503909116030E94E6
:102730007820059770F310E0A801B601C7010E9448
:102740003929892B31F0A801B601C7010E94462919
:10275000CD2F109217038C2FDDCFCF930E94CD2861
:10276000C82F811102C00E94C9288C2FCF910895D3
:1027700080911B03089580911A030895FCCF08955A
:10278000ECDF80931A03FADF80931B03F1DF809361
:102790008701F1DF811142C00895EDDF811101C091
:1027A00040C0089581E090911C039A3008F080E0C9
:1027B00008950F931F93CF93DF93EC018B018091CA
:1027C0001C038A30B0F4B801CE0176D0C82F811135
:1027D00022C080911C038F3FB9F40E946020909327
:1027E0001903809318038C2FDF91CF911F910F91C4
:1027F000089580911803909119030E947820843FD6
:10280000914008F7C0E0EFCF8F5F80931C038A30C0
:1028100020F7C1E0E8CF10921C03E5CF0C943921DA
:1028200008950C943C210895B0E0A0E0EAE1F4E1C1
:102830000C940D297901C82F880FDD0B4115510526
:10284000A9F0FE0193E0EE0FFF1F9A95E1F7E8571C
:10285000FE4F81819281835E9C4F208130E0421740
:10286000530708F49A01A9010E944629CE010E944B
:102870001C22D82E8823D1F001151105B9F083E070
:10288000CC0FDD1F8A95E1F7FE01E857FE4F43812B
:1028900050E00417150708F4A801C857DE4F6C81F3
:1028A0007D81635E7C4FC7010E9446298D2DCDB787
:1028B000DEB7E7E00C942929F0C0089503C108951C
:1028C000A4E0B0E0E6E6F4E10C9410296091320354
:1028D0007091330380913403909135030E948720D7
:1028E00011E0643671058105910508F173DD6E5FB5
:1028F0007F4F8F4F9F4F69837A838B839C8310E038
:1029000000E030E020E044E050E0BE016F5F7F4F28
:1029100082E08ADF182F882351F00E946C20609398
:102920003203709333038093340390933503812FE4
:102930002496E4E00C942C29B0E0A0E0E2EAF4E173
:102940000C940A297C015B016A012CDF01E010E094
:10295000882311F00AE010E0C1E0D0E0B501C70122
:10296000F6010995811104C021960C171D072CF45E
:10297000CDB7DEB7EAE00C942629CC9F9001CD9F1D
:10298000300D300D112490E080E045E34A95F1F7D9
:102990000000019682179307C1F7E0CFA5E0B0E0F1
:1029A000E4EDF4E10C940A295B01E0902A02F09036
:1029B0002B0201E010E09E012B5F3F4F50E040E012
:1029C00070E060E080E030DF182F882309F448C011
:1029D00067018FEFC81AD80A60912E0370912F03F8
:1029E00080913003909131030E94872064367105F5
:1029F0008105910570F104E010E09E012F5F3F4FCB
:102A000050E040E070E060E081E00EDFF82E64E02E
:102A100070E0C601F2D411E09D81981310E01F21EF
:102A200051F10E946C2060932E0370932F038093CA
:102A300030039093310389819A81AB81BC8180936B
:102A40002A0390932B03A0932C03B0932D0311E042
:102A500012C064E070E0C601D0D49D818913CBCF51
:102A6000F70181819281A381B48189839A83AB83A9
:102A7000BC831111E0CF80912A0390912B03A09188
:102A80002C03B0912D03F50180839183A283B3833E
:102A9000812F2596EAE00C9426290F931F93CF935C
:102AA000DF93EC018B014EEC54E146DF882329F0E3
:102AB00040E654E1B801CE013FDFDF91CF911F9195
:102AC0000F9108950F931F93CF93DF93C0912A0224
:102AD000D0912B02CE01019624E0FB01DC01019094
:102AE0000D922A95E1F764E070E087D488836D81C8
:102AF0007E818F8198850091260310912703209174
:102B0000280330912903601771078207930749F062
:102B100060932603709327038093280390932903DF
:102B20003DDCDF91CF911F910F910895B9C90895B0
:102B30000E94FA1F0E94B0237FD90E94C8239BD90C
:102B40000E94D1230E94D423F1DF0E94EA237DD981
:102B5000F9CF90932D0280932C0208958FC8089589
:102B600080E06BDC8170089583DD2FEF86E791E0D4
:102B7000215080409040E1F700C0000079DDF0DF97
:102B8000882319F0EBDF0C94C7200895EDCF08954A
:102B90008832910548F48E319105A0F4049750F0E5
:102BA00082E00E944B0D0EC08D329105C9F320F4D6
:102BB0008A9741F080E008958C34910519F08D32A8
:102BC0009240C1F781E00895EF92FF920F931F9317
:102BD000CF93DF93EC017B01C3378CE7D80761F417
:102BE000FB011581112311F0B9D010E0812FCDB771
:102BF000DEB7E6E00C942A290E94350D082F0E94CA
:102C00005B0D082B7CD0811107C0023211F011E05E
:102C1000EDCF79D0F9D6FBCF69D0F701158111231B
:102C2000B1F30D7909F054C0C034F2E5DF0720F5A7
:102C3000C11582E5D807D0F6C115E0E4DE0790F4AF
:102C4000C115F0E2DF07B0F5C63ED10579F20E946A
:102C5000580DCE019DDFC82F8823D1F10E94E60DCB
:102C60001C2FC4CFC11580E5D80788F7F7018681EE
:102C7000807F69F2DD27EBCFC03EE2E5DE07A0F4FE
:102C8000C03CF2E5DF0708F0B1CFC03682E5D807D7
:102C9000F0F2C03AE2E5DE0708F4A8CFC43BF2E563
:102CA000DF0709F4A3CFD3CFCE0187579C47029704
:102CB00070F69CCFF7018681807FE1F68D2F8F71B2
:102CC000823189F038F4C1EED0E0823009F4BFCF10
:102CD00028D08CCF843109F489CFC6EED2E1863179
:102CE00009F4B5CFF5CFC5EED0E0B1CF0E9460209A
:102CF00088579C4E909337038093360308958091B4
:102D000038030895089580913803811109C00E9405
:102D1000450D0E94850DEADF81E080933803F2CFF4
:102D2000089580913803882339F082E20E94680870
:102D30001092380380E0E6CF08958091380388230D
:102D400061F00E9460202091360330913703821B8E
:102D5000930B8F3F9F4708F4E4CF08958091380389
:102D6000882309F0DECFCFCFEF92FF920F931F930E
:102D7000CF93DF938091AC03882361F0E091390316
:102D80008DE0F82E8091AC03E81748F01092AC0368
:102D900010923903CDB7DEB7E6E00C942A29EE2471
:102DA000E394EE0EE0923903CE2FD0E0EF9DF001D8
:102DB0001124EC5BFC4F84818823B1F087819085DE
:102DC000892BA1F4818592858F3F980779F061E086
:102DD0000E943D02FC9EF001FD9EF00D1124EC5B73
:102DE000FC4F14820E94580DEE2DCCCF0081118132
:102DF00022813381448155816681778180850E945B
:102E00009E0CE8CF0895CF93DF931092AE031092FB
:102E1000AD03D0E0C0E00E944A03C817D90718F0FC
:102E2000DF91CF910895CE010E945503FC01858169
:102E3000811102C0148216822196EDCF1F93CF9389
:102E4000DF9310914203209143032117D1F0C12F4A
:102E5000D0E0FE01EE0FFF1FE65CFC4F4081518188
:102E60004817590791F40E94550321E0FC0124837F
:102E700080914203811305C02196C370DD27C09362
:102E80004203DF91CF911F91089521961C2F13705B
:102E9000DCCFB0E0A0E0EFE4F7E10C940729EB0110
:102EA0002C81211152C07090AC03A4E4B3E030E057
:102EB00020E0812C61E070E0271508F045C01B96EA
:102EC000CD90DC901C97A880B9804FEF5FEF912CDC
:102ED000E92CF12CF701EE0FFF1FEA0DFB1D059108
:102EE0001491C016D10609F4A7010115110511F0BE
:102EF0009394EECF4F3F540781F1FB0102C0EE0FD8
:102F0000FF1F4A95E2F78E2AAB01092C02C0440F3D
:102F1000551F0A94E2F74150510984161506D1F461
:102F20004A815B816DE0629FF001639FF00D112487
:102F3000EC5BFC4F5087478324E02483108211828E
:102F40009287818721E02D8379DFCDB7DEB7EDE071
:102F50000C94232914961C9214972F5F3F4F1D96B3
:102F6000ABCF0F931F93CF93DF93C0914203809118
:102F700043038C1307C0F8DE46DFDF91CF911F912A
:102F80000F910895D0E08E01000F111F065C1C4FB9
:102F9000F801808191810E945503BC01F801808174
:102FA000918177DF2196C370E2CFEF92FF921F935A
:102FB000CF93DF93FC012081318110E040E050E0AD
:102FC000E52FF0E0EE0FFF1FE20FF31FA591B49184
:102FD0001097B9F0FB01C081D18140E005C0AE156A
:102FE000BF0509F411E04F5FE42FF0E0EE0FFF1F83
:102FF000EC0FFD1FE590F490E114F10481F75F5FA1
:10300000DFCF112349F0451708F4CB01DF91CF91B1
:103010001F91FF90EF90089590E080E0F7CF8091AE
:10302000A001882329F18091AF039091B00300970C
:10303000F9F00E9478202091AD033091AE0328175B
:103040003907B0F49091420380914303981751F0EF
:1030500088DF1092AE031092AD031092B00310926D
:10306000AF03089581DE1092B0031092AF03CBCE70
:1030700008951092B0031092AF031092A0018091B6
:10308000430380934203BFDE6FCE8091A00188236B
:1030900009F0EFCF81E08093A0010895ACE0B0E0AB
:1030A000E4E5F8E10C9402294C016B0180352CE732
:1030B000920761F4FB0115811123D9F081E080931F
:1030C000A001812F2C96E2E10C941E298135FCE7AA
:1030D0009F0731F4FB011581112359F0CADFF1CFAD
:1030E00082359C4731F4FB011581112311F0CDDFAE
:1030F000E8CF20915502309156028091570290916D
:103100005802822B932B0E945505182F7BDE18172F
:1031100029F0F601608171813AD84C01B12CA12CC3
:103120001C8666246394712CCE0101969B878A8746
:103130000E944A03A816B906B8F1F60185818823D2
:1031400009F44BC1FC85FF2309F447C1B9D790931B
:10315000B0038093AF038091AC03883008F591E011
:10316000980F9093AC0399E0F601DE01119601905F
:103170000D929A95E1F72DE0829FC00111248C5B9E
:103180009C4F29E0FE013196DC0101900D922A95B9
:10319000E1F72FEF3FEFFC0132872187948683868A
:1031A0001C85109511708DCFC5010E9455037C01BF
:1031B000FC014081518144244A94542C60E0262F24
:1031C00030E0F901EE0FFF1FE40FF51F8591949198
:1031D0008816990609F42901892B11F06F5FEFCF4A
:1031E00080E0FFEF4F165F0609F445C0F701448108
:1031F0003090A001832D411180E0F82FF1703F2E17
:10320000F70125808681F6019581992309F483C011
:10321000332009F480C0211015C09301042C01C093
:10322000220F0A94EAF7822BF70186838091AD037F
:103230009091AE03C29730F482E390E09093AE0396
:103240008093AD03C30102C0880F991F6A95E2F70E
:103250000197F70126812817190681F58091AF03A0
:103260009091B003009771F043D7C39758F021E0D5
:10327000F701248381E0FC85F82BFC872FEFA21A4D
:10328000B20A56CF2090420390E080E020914303A1
:10329000221216C0E816F90689F0422C512CF201D0
:1032A000EE0FFF1FE65CFC4FB182A0822FEF421AA7
:1032B000520A83E04822552440924303832DDBCFFA
:1032C000422C512CF201EE0FFF1FE65CFC4F808177
:1032D00091810E9455038C01B70167DE0097A1F030
:1032E00021E0FC012483E816F90641F32091420312
:1032F00022120AC00817190739F492012F5F3F4FB5
:103300002370332720934203EFEF4E1A5E0AF42D09
:10331000F3702F2EBBCF90E021101EC0930102C08E
:10332000220F331F6A95E2F7215031092817390718
:1033300029F4442309F44FC0C50180DDC301042CE6
:1033400001C0880F0A94EAF7982F9095F7018681BB
:1033500089238683322CB2CFAC01042C02C0559550
:1033600047950A94E2F7BA01617077279C012150D2
:10337000310982239323892B51F5672B41F1F70102
:1033800082819381892BF1F0EA85FB8527E01192F8
:103390002A95E9F795D6282F8B839C8384E08D832B
:1033A000F70182819381782F8887998709811A8113
:1033B0003C8144E05E816F81892F0E949E0CF70161
:1033C0001582BCCF60E0C5010E943D02F8CFF42F0A
:1033D000F1702F2EB3CF232CB1CF90914203809167
:1033E0004303981711F0BDDDDBCEBEDC1092B003B5
:1033F0001092AF0308DDD4CE0895FC01680F791F49
:103400008FEF91E36E177F0709F4089521918227CA
:1034100028E030E087FF06C0880F89272150310956
:10342000C9F7F0CF880FFACF9C01FB018581882373
:1034300059F12137FCE73F07B9F022379CE73907FC
:10344000E9F020373C4709F560E2809181019091D5
:1034500082010E943505FC01019620812032D9F3BA
:10346000CF0126D280E00895809181019091820160
:1034700005969093820180938101F4CF8091810120
:10348000909182010597F5CF81E00895CF93DF9366
:10349000EB0186319C4701F50E94350D9D819923F2
:1034A00091F08A7A91E009F490E09093B103811150
:1034B00008C089E2E1D40E94E60D80E0DF91CF915F
:1034C000089585E3F7CF8091B103811103C089E2AC
:1034D000EAD4F1CF85E3FCCF81E0F0CFCF93DF9347
:1034E000EC01FB018581882309F4D2C09E0130578D
:1034F0002332310508F0B2C00E945E0E9093CA03D9
:103500008093C903FE01E150F047E232F10520F457
:10351000ED54F64D0C94FC288091C9038160809392
:10352000C90393C08091CA0388608093CA038DC089
:103530008091C9038260F3CF8091C9038460EFCF8B
:103540008091C9038860EBCF8091CA038160EDCF81
:103550008091CA038260E9CF8091C9038061DFCF87
:103560008091C9038062DBCF8091C9038064D7CF8B
:103570000E947A088091C9038068D1CF8091C903E5
:103580008C60CDCF8091CA038360CFCF8091C90377
:103590008E7FC5CF8091CA03877FC7CF8091C90333
:1035A0008D7FBDCF8091C9038B7FB9CF8091C90337
:1035B000877FB5CF8091CA038E7FB7CF8091CA0332
:1035C0008D7FB3CF8091C9038F7EA9CF8091C9032E
:1035D0008F7DA5CF8091C9038F7BA1CF0E947A08F0
:1035E0008091C9038F779BCF8091C903837F97CF49
:1035F0008091CA038C7F99CF8091C90382FB992760
:1036000090F921E0922790FB82F990FB83F987CF14
:103610008091CA03982F909591708E7F892B90FB93
:1036200081F983CF9091C903892F8F7B96FF8064A6
:1036300076CF0E947A089091C903892F97FB87F96A
:1036400080586DCF81E00E94D80E8091C90390917F
:10365000CA030E94620E0E947A0880E0DF91CF9137
:10366000089580E0F0CF9091C903892F8F7E94FF59
:10367000806155CF9091C903892F8E7F90FF816023
:103680004ECF9091CA03892F877F93FF88604DCFDB
:1036900081E0E4CFB0E0A0E0E0E5FBE10C940B2991
:1036A000E82FF0E0EE5BFD4FB490282F269526958D
:1036B000269530E0F901EE51FD4F0491877010E03E
:1036C000082E02C0159507950A94E2F7017011279C
:1036D000F901EE52FD4FE490F12C082E02C0F59452
:1036E000E7940A94E2F791E0E922FF24F901EE530E
:1036F000FD4FC491D0E002C0D595C7958A95E2F7F9
:10370000C170DD27C62ED12C0115110549F5E11434
:10371000F10431F086EE0E94E205C601009771F5D2
:10372000B6018B2D0E944506C601009779F5E1147C
:10373000F104A1F50115110531F081EE0E941F067B
:10374000C6010097C9F5CD2B31F08CE20E945B06D3
:10375000C114D104C9F5CDB7DEB7E9E00C9427292F
:1037600081EE0E94E205C601009789F2EFE9FFE0D1
:103770003197F1F700C000000197F6CFEFE9FFE0C5
:103780003197F1F700C000000197C8CFEFE9FFE0E3
:103790003197F1F700C000000197C7CF86EE0E9475
:1037A0001F06C601009731F2EFE9FFE03197F1F70C
:1037B00000C000000197F6CFEFE9FFE03197F1F785
:1037C00000C000000197BDCF8FE99FE00197F1F79E
:1037D00000C0000091E0C91AD108BACFEF92FF9261
:1037E0000F931F93CF93DF93EC01162F0AE088818C
:1037F000882309F458C0813009F052C08981813092
:1038000071F47E0182E0E80EF11C8A810E945B0661
:10381000E701812F90E00097D9F52196E8CF82301B
:1038200041F47E01E2E0EE0EF11C8A810E94E20585
:10383000EFCF833041F47E01F2E0EF0EF11C8A817C
:103840000E941F06E5CF843011F02196E2CF2A8135
:10385000229690E080E0AE014F5F5F4F2053330B24
:103860002A30310550F00097A1F2EFE9FFE03197DF
:10387000F1F700C000000197F6CF089FB001099F43
:10388000700D1124C901860F971F2981EA01E3CF2A
:10389000EFE9FFE03197F1F700C000000197BBCFDF
:1038A000612FF8DEBACFCDB7DEB7E6E00C942A2957
:1038B00060E094CF0F931F93CF93DF93C42FD22F49
:1038C000FC0185818823C1F04093B403F9D3909320
:1038D000B3038093B20380E28C0F883040F4C7704A
:1038E00081E001C0880FCA95EAF70E946206DF9165
:1038F000CF911F910F9108951091B403141335C007
:103900008091B2039091B303F3D320918101309160
:1039100082018217930748F5C0E2CD0F1D17B9F059
:1039200080E2810F883040F4177081E001C0880F79
:103930001A95EAF70E946706C83048F481E09D2F87
:10394000977001C0880F9A95EAF70E946206802F4F
:103950000E945B06C83058F6D77081E001C0880F1E
:10396000DA95EAF70E946706C2CF80E28C0F8830B2
:1039700008F0BDCFC77081E001C0880FCA95EAF793
:10398000F1CF0F93DB0188519C478730910598F563
:10399000FC01EB52F64D0C94FC2806E221EE41EEC0
:1039A0006AE17CE7CD0186DF80E00F91089507E2B0
:1039B00025EE45EE6BE17CE7F5CF06E221EE40EE29
:1039C00068E17CE7EFCF07E225EE44EE69E17CE7B2
:1039D000E9CF06E221EE42EE6CE17CE7E3CF07E2BD
:1039E00025EE46EE6DE17CE7DDCF08E221E045EE15
:1039F0006EE17CE7D7CF15968C91882319F0109251
:103A0000B403D3CF81E0D1CF1092B4030895411510
:103A1000510511F0FA0109950895CF93DF93EC0158
:103A20004A855B856E857F85F2DF8B810E94510D13
:103A30008C810E943E0D0E94E60D86E0FE011192EF
:103A40008A95E9F7DF91CF910895CF93DF93EC0149
:103A50008D8181FD10C082608D838B810E944B0D12
:103A60008C810E94380D0E94E60D488559856E852F
:103A70007F85CE01CCDF1092B8031092B7038D8101
:103A800080FD02C0CE01C9DFDF91CF910895CF93B1
:103A9000DF93EC018A81823041F4FB0182819381C2
:103AA0000E94A4038D8182608D83DF91CF91089560
:103AB000FB01808191810C94A403FC0182818130FF
:103AC00031F4FB01808191810C94B8030895823018
:103AD000E9F7FB0182819381F7CF0F931F93CF9377
:103AE0008C01FB01C581CC23A9F08091B703909193
:103AF000B8030097A1F08017910789F099270E94D9
:103B00006803FC01258124602583118300839DDFE8
:103B10000E94580D8C2FCF911F910F910895C0E0F6
:103B2000F9CFEF92FF920F931F93CF93DF937C0116
:103B30008B0197558F3F910519F010F011E036C0B9
:103B40000E945703970133272817390708F04CC004
:103B5000C9010E946803EC01F80115818D8110FBF9
:103B600080F98D83112341F1ABD29093B6038093FA
:103B7000B5038A818F5F8A830E94350D8B830E94F3
:103B8000480D9B81892B8B830E945B0D8C834E811A
:103B90005F816E857F85CE013ADF8D8181FF02C016
:103BA000F12CE12CF092B803E092B703812FCDB74E
:103BB000DEB7E6E00C942A294C855D856E857F850D
:103BC000CE0125DF8D8181FFB9CFCE0126DF809127
:103BD000B7039091B8038E159F0509F0AFCF1092EF
:103BE000B8031092B703AACF10E0E0CF8091B703DB
:103BF0009091B803892BB9F08091B5039091B603E9
:103C000077D220918101309182012817390758F429
:103C10008091B7039091B80399270E946803FC0133
:103C2000258122FF12CF08959093BF038093BE0396
:103C300008950E94BB13811103C08091B9030895B8
:103C4000E091BE03F091BF03309729F00190F0811D
:103C5000E02D0995089580E00895E091BE03F0916C
:103C6000BF03309721F00280F381E02D099508957C
:103C7000E091BE03F091BF03309739F026E0DC01FC
:103C80002C930480F581E02D09950895A3E0B0E020
:103C9000ECE4FEE10C9412292091BC033091BD03A9
:103CA00028173907A1F09093BD038093BC03E091DE
:103CB000BE03F091BF03309751F023E029839B832B
:103CC0008A830084F185E02DCE0101960995239623
:103CD000E2E00C942E29A3E0B0E0E1E7FEE10C94D1
:103CE00012292091BA033091BB0328173907A1F09C
:103CF0009093BB038093BA03E091BE03F091BF039E
:103D0000309751F024E029839B838A830084F185D6
:103D1000E02DCE01019609952396E2E00C942E2920
:103D2000CF93DF93C0918501D0918601229629D14E
:103D3000813081F48091C90387FF0CC0C091830159
:103D4000D091840122969EE180E0915028F4DF9189
:103D5000CF91089596E0F8CF29912223B1F38F5F98
:103D6000F4CFCF93C82F811102C080E023C009D1C6
:103D7000813011F58091C90387FF1EC0EC2FE695B5
:103D8000E695E695EE3188F7809183019091840164
:103D9000E80FF92FF11D228130E0C77081E090E03B
:103DA00002C0880F991FCA95E2F72823392381E0C2
:103DB000232BD9F2CF9108958091850190918601AE
:103DC000FC013296089621912C1721F0E817F9078B
:103DD000D1F7CBCF81E0EECF9C01FC0132969FEF73
:103DE00080E04191461751F09F3F19F4411101C005
:103DF000982F8F5F8630A9F79F3F09F40895290F08
:103E0000311D97FD3A95F90162830895FC013296C0
:103E100008962191261303C0DF0111971C92E81721
:103E2000F907B9F70895E62FE695E695E695EE31A0
:103E300068F4E80FF92FF11D677021E030E001C050
:103E4000220F6A95EAF78281822B82830895E62FFA
:103E5000E695E695E695EE3170F4E80FF92FF11D41
:103E6000677021E030E001C0220F6A95EAF72095E3
:103E70008281282322830895CF93C82F82D06C2F6C
:103E8000813059F48091C90387FF07C08091830175
:103E900090918401C8DFCF91089580918501909120
:103EA00086019ADFF8CFCF93C82F6BD06C2F81306B
:103EB00059F48091C90387FF07C0809183019091D5
:103EC0008401C5DFCF91089580918501909186018D
:103ED0009DDFF8CF56D0813079F48091C90387FFF8
:103EE0000BC0E0918301F091840132968EE1DF01F5
:103EF0001D928A95E9F70895E0918501F091860178
:103F0000329686E0F4CF0895FECF089581110CC05B
:103F100081E08093A4016091A1017091A201809140
:103F2000A3019091A401F0CF82E0F3CF83E08093CE
:103F3000A4016091A1017091A2018091A3019091CF
:103F4000A401E2CFE3CF089581E08093A4016091C2
:103F5000A1017091A2018091A3019091A401D4CFFD
:103F6000F3CF089591E0811101C090E09093A301F7
:103F70006091A1017091A2018091A3019091A4018F
:103F8000C3CF8091A30108958093A2016091A10104
:103F90007091A2018091A3019091A401B5CF80916D
:103FA000A20108958093A1016091A1017091A201E5
:103FB0008091A3019091A401A7CF8091A1010895C0
:103FC00008950895FECF089508950895F9CF0895AE
:103FD000CF93FADF0E943813F8DFC0E08C2F0E94E5
:103FE0001D12811105C0CF5FC830C1F7CF91089570
:103FF00081E0FCCF85B7806885BF85B7806885BFC5
:1040000008951F921FB61F9211248F939F93AF9311
:10401000BF938091C003811113C08091E1039091FF
:10402000E203A091E303B091E4034196A11DB11D09
:104030008093E1039093E203A093E303B093E4033E
:10404000BF91AF919F918F911F901FBE1F901895A8
:104050008091E903843031F10E94D7041092C003AB
:1040600088E190E020E40FB6F894A8958093600072
:104070000FBE2093600083B7817F846083BF83B7C6
:10408000816083BF7894889583B78E7F83BF0FB696
:10409000F894A895809160008861809360001092E8
:1040A00060000FBE08950E947A080C94DA0482E042
:1040B00084BD93E095BD9AEF97BD80936E000895FF
:1040C0002FB7F8948091E1039091E203A091E3036C
:1040D000B091E4032FBF08952FB7F8946091E103E6
:1040E0007091E2038091E3039091E4032FBF089560
:1040F0009C014FB7F8948091E1039091E203A09165
:10410000E303B091E4034FBF821B930B0895CF925A
:10411000DF92EF92FF922FB7F894C090E103D09016
:10412000E203E090E303F090E4032FBFA7019601C0
:10413000261B370B480B590BCA01B901FF90EF90B2
:10414000DF90CF90089578941F921FB61F9211248C
:104150008F939F93AF93BF938091E1039091E2037C
:10416000A091E303B091E4030196A11DB11D8093DA
:10417000E1039093E203A093E303B093E403BF91C0
:10418000AF919F918F911F901FBE1F90189587E749
:1041900097E7909301088093000888E19AE00FB6B2
:1041A000F894A895809360000FBE90936000FFCFB5
:1041B00088E19AE00FB6F894A895809360000FBE4E
:1041C00090936000FFCF8EE14A9B02C08150E1F7DF
:1041D0004A9BFECF08955A9880E28A95F1F75A9A41
:1041E0000895FC013BE03A95F1F798E020E080E08B
:1041F00031E040E14A95F1F7880F4A9B02C08160A7
:10420000232742E04A95F1F7000040E14A95F1F793
:10421000915079F790E19A95F1F799B132E03A959A
:10422000F1F7000040E14A95F1F792FB992790F9E8
:1042300092272081920F90830895A1E0B0E0E2E2FE
:10424000F1E2ECC719828C017C01E60EF11C0E151F
:104250001F0539F481E09981911180E02196E6E013
:10426000F9C7B1DFCE010196BCDFF80181938F0160
:10427000EECF529A5A9A089552985A9AEA9AE9E6D3
:10428000F0E080818F7C808308956150770B91E00E
:1042900001C0990F6A95EAF720E031E0911108C05A
:1042A000222391F05A9A80E28A95F1F75A9808955C
:1042B000492F482339F05A9A232740E24A95F1F7CB
:1042C0009695ECCF5A98F9CF5A98EDCFFF920F936D
:1042D0001F93CF93DF93EC018C01060F111DC017C4
:1042E000D10721F4CDB7DEB7E5E0B5C7F99073DFAC
:1042F00068E08F2DCADFF3CF1F920F920FB60F9297
:1043000011240F931F932F933F934F935F936F93BA
:104310007F938F939F93AF93BF93EF93FF93CF932D
:10432000DF930F92CDB7DEB719824DDFCE01019634
:1043300058DF082F069506950695282F229525709B
:10434000902F9570290F922F937026952695920F96
:10435000982797708981982B09F058C0043008F08D
:1043600055C080E18A95F1F75A9A529A82E08A956F
:10437000F1F700C05A9888E0089F80011124D80105
:10438000A857BE4F1696ED91FC9117973097A9F05C
:1043900060912A0270912B0214962D913C911597F1
:1043A000260F371F11968D919C911297680F791FD8
:1043B00013964C9113978C910995F801E857FE4F8D
:1043C0006381662349F020912A0230912B02848177
:1043D0009581820F931F7ADFFEDE80E18A95F1F7E7
:1043E0005A9852985A9A80E18A95F1F7F801E8575D
:1043F000FE4F6081662349F020912A0230912B0202
:1044000081819281820F931F18DFDDDE0F90DF9193
:10441000CF91FF91EF91BF91AF919F918F917F913C
:104420006F915F914F913F912F911F910F910F903D
:104430000FBE0F901F9018950F931F93CF93DF938C
:10444000EC0104970CF049C0F894529A5A9885E010
:104450008A95F1F700009C2F969595708C2F8570AA
:10446000980F892F83709695969523E0CC0FDD1FCA
:104470002A95E1F7980F8E01092BADDE00C068E0A8
:10448000802F03DF80E18A95F1F752985A9A4A9B70
:104490001DC087E090E04A991BC0FE01E857FE4F1F
:1044A00063816623F1F020912A0230912B028481EE
:1044B0009581820F931FC1DE811113C0529A5A9ABF
:1044C0007894DF91CF911F910F91089500C0DFCFB5
:1044D000019729F4529A5A9A789480E0F2CF00C05A
:1044E000DACF71DE80E28A95F1F75A98529A80E12C
:1044F0008A95F1F7C857DE4F6881662349F020910D
:104500002A0230912B0289819A81820F931FDEDE6D
:1045100062DE789481E0D5CF08959B01BA01909135
:10452000E9039430E1F48F708093E9009FEF80916C
:10453000E800915085FD06C085ED8A95F1F70000F1
:104540009111F5CF8091E80085FF09C050E040E06F
:10455000C901B5D18091E8008E778093E800089575
:1045600043E050E0BC0182E0D8CF40E250E0BC0123
:1045700082E0D3CFCF93DF93EC0103DD48E050E03E
:10458000BE0181E0CADF88E0FE01A1ECB3E001904A
:104590000D928A95E1F7DF91CF9108958091E8031C
:1045A000811107C01AD371D38091E2008460809397
:1045B000E20008951092E8030895C6DC81E0D2CCB1
:1045C0006091E50381E0611101C080E0AFCC909182
:1045D000E90381E0943009F080E06091E503B2CC1A
:1045E00042E061EC81E075D242E261EC82E071D29E
:1045F0009091E90381E0943009F080E06091E50357
:1046000085CC8091EB03833009F45EC030F48130B7
:10461000C1F1823009F494C008958A3009F483C04E
:104620008B3009F46BC0893009F04DC08091EA03EA
:10463000813209F048C08091EE039091EF03029718
:1046400008F041C08091E800877F8093E800809166
:10465000E80082FF34C09091F3008091F20002974D
:1046600031F48091F100813011F0863019F480919D
:10467000F1008ADC8091E8008B778093E8005DD2BE
:1046800022C08091EA03813AF1F48091E800877FAB
:104690008093E8008091EE039091EF03892B59F409
:1046A00068E081EC93E070E057D18091E8008B776F
:1046B0008093E800089560E090E080E0F4CF80917E
:1046C000E9038111C4CF08958091EA03813AD9F7B3
:1046D0008091EE039091EF03892BA9F78091E80078
:1046E000877F8093E8008091E80080FFFCCF49DC61
:1046F0008093F1008091E8008E77BFCF8091EA032C
:10470000813209F78091EE039091EF03892BD9F65E
:104710008091E800877F8093E8000FD28091EC03BE
:1047200021DC0C947A088091EA03813261F6809151
:10473000E800877F8093E80000D28091ED0332CCBF
:104740008091EA03813A09F0BECF8091E800877F2B
:104750008093E8008091E80080FFFCCF2EDCC8CF7A
:1047600084B7877F84BF0FB6F894A89580916000C6
:10477000886180936000109260000FBE80E890E036
:104780000FB6F89480936100909361000FBEE8CB60
:1047900024D27BD2E2EEF0E0808184608083789442
:1047A000DEC485EA91E040CA8091E903853029F4AE
:1047B0008091E903853011F076CC089549DC08DC5E
:1047C0008823B1F38091E703882391F362D00E949C
:1047D0007A08EECF08959A014091F0035091F103C9
:1047E00000C0492F55274330510519F168F4413075
:1047F000510509F444C04230510509F445C090E028
:1048000080E050E040E025C04132510549F142329C
:104810005105A9F784E490E048ED53E06115710576
:10482000C1F08DE690E04BE653E06130710589F010
:10483000E6CF99278130910581F0009729F0029702
:10484000F1F6E2EFF2E002C0EAE1F3E0849190E0F9
:10485000AF01F901518340830895EEE0F3E0F6CF14
:1048600089E090E040E353E06115710591F389E040
:1048700090E049E453E06130710559F3C0CF82E123
:1048800090E049E553E0E5CF8BE390E04EE153E063
:10489000E0CF80E189BD82E189BD09B400FEFDCF92
:1048A0008091D8008F7D8093D8008091E000826055
:1048B0008093E0008091E00081FDFCCF0895AF92ED
:1048C000BF92CF92DF92FF920F931F93CF93DF930C
:1048D0006C01EB018A0150D1F82E811123C0011522
:1048E000110539F0F80180819181C81BD90BC80EE0
:1048F000D91EB12CA12C2097A9F08091E80085FD4C
:1049000021C08091E8008E778093E80001151105A1
:10491000A1F0F80180819181A80EB91EB182A08218
:1049200085E0F82E8F2DDF91CF911F910F91FF9091
:10493000DF90CF90BF90AF9008951ED18823D9F219
:10494000F82EF0CFF60181916F018093F10021974D
:10495000FFEFAF1ABF0ACFCFFC018091F003909117
:10496000F10386179707A0F06115710529F490915E
:10497000E8009E779093E80090E06115710551F48E
:10498000911108C08091E80082FF34C080E0089552
:10499000BC01F2CF8091E9038823C1F18530C1F1D8
:1049A0008091E80083FD30C08091E80082FDEACF6D
:1049B0008091E80080FFE1CF8091F3002091F20028
:1049C000382F6115710519F02830310558F091E044
:1049D0002830310509F090E02091E8002E772093EF
:1049E000E800CBCF81918093F100615071092F5F76
:1049F0003F4FE7CF8091E903882341F0853041F0B4
:104A00008091E80083FFBECF81E0089582E00895A1
:104A100083E00895FC018091F0039091F1038617E3
:104A20009707A0F06115710529F48091E8008E7751
:104A30008093E80090E06115710551F4911108C070
:104A40008091E80082FF35C080E00895BC01F2CF7C
:104A50008091E9038823C9F18530C9F18091E8008C
:104A600083FD31C08091E80082FDEACF8091E800AB
:104A700080FFE1CF8091F3002091F200382F611583
:104A8000710519F02830310558F091E028303105D2
:104A900009F090E08091E8008E778093E800CBCF1A
:104AA00084918093F1003196615071092F5F3F4FDF
:104AB000E6CF8091E903882341F0853041F0809171
:104AC000E80083FFBDCF81E0089582E0089583E090
:104AD0000895982F973028F08F708093E90081E037
:104AE00008959093E900242F762F50E0981731F025
:104AF0007091EC002091ED005091F00021FD02C07A
:104B00009F5FE8CF3091EB003E7F3093EB00309118
:104B1000ED003D7F3093ED003091EB00316030933C
:104B2000EB007093EC002093ED005093F000209187
:104B3000EE0027FDE5CF80E008958091EA0387FF2E
:104B400013C08091E80082FF06C08091E8008B7757
:104B50008093E80004C08091E9038111F2CF0895A9
:104B60008091E9038823D9F38091E80080FFF8CF92
:104B70008091E8008E77ECCF2091E4003091E50041
:104B800095E6A9012091EC00822F817020FF06C0DC
:104B90008091E80080FF06C080E008952091E80041
:104BA00022FD1AC08091E903882389F0853089F0BD
:104BB0008091EB0085FD0FC02091E4003091E5006D
:104BC00042175307F9F29150E1F684E0089582E02C
:104BD000089583E0089581E0089567D06ED0E0EEF7
:104BE000F0E0808181608083E8EDF0E080818F7764
:104BF000808319BCA7EDB0E08C918E7F8C9380816F
:104C00008F7E80831092E80308950F931F93CF93B4
:104C1000DF934BD052D0C8EDD0E088818F77888366
:104C200088818068888388818F7D888319BC1092F1
:104C3000E9031092E5031092E7031092E60300EEF9
:104C400010E0F80180818B7F808388818160888378
:104C500042E060E080E03DDFE1EEF0E080818E7FC9
:104C60008083E2EEF0E080818160808380818860D3
:104C70008083F80180818E7F808388818061888332
:104C8000DF91CF911F910F910895E8EDF0E08081C1
:104C90008F7E8083E7EDF0E080818160808384E017
:104CA00082BF81E08093E803B0CFE8EDF0E080813F
:104CB0008E7F80831092E20008951092DA001092A5
:104CC000E10008951F920F920FB60F9211242F93B7
:104CD0003F934F935F936F937F938F939F93AF9384
:104CE000BF93EF93FF938091E10082FF0AC0809110
:104CF000E20082FF06C08091E1008B7F8093E1009B
:104D00002DD28091DA0080FF18C08091D80080FFFA
:104D100014C08091DA008E7F8093DA008091D900F0
:104D200080FF91C080E189BD82E189BD09B400FEA8
:104D3000FDCF81E08093E90331DC8091E10080FFC9
:104D400018C08091E20080FF14C08091E2008E7F45
:104D50008093E2008091E20080618093E200809184
:104D6000D80080628093D80019BC85E08093E90365
:104D700027DC8091E10084FF2AC08091E20084FF5B
:104D800026C080E189BD82E189BD89B5982F9170E7
:104D900080FFFBCF8091D8008F7D8093D8008091D9
:104DA000E1008F7E8093E1008091E2008F7E80930E
:104DB000E2008091E20081608093E2008091E5034F
:104DC000882309F445C084E08093E90300DC8091E6
:104DD000E10083FF27C08091E20083FF23C0809120
:104DE000E100877F8093E10082E08093E9031092E5
:104DF000E5038091E1008E7F8093E1008091E200E5
:104E00008E7F8093E2008091E20080618093E200D7
:104E100042E060E080E05DDE8091F0008860809399
:104E2000F000CBDBFF91EF91BF91AF919F918F91FC
:104E30007F916F915F914F913F912F910F900FBE96
:104E40000F901F90189519BC1092E903B3DB75CF32
:104E50008091E30087FD93E09093E903B7CF1F9221
:104E60000F920FB60F9211242F933F934F935F939E
:104E70006F937F938F939F93AF93BF93CF93DF9362
:104E8000EF93FF93D091E900DF708091EC00C82F81
:104E9000C17080FDC0E81092E9008091F000877F2A
:104EA0008093F00078941ED01092E9008091F00079
:104EB00088608093F000CD2BCF70C093E900FF9104
:104EC000EF91DF91CF91BF91AF919F918F917F91A2
:104ED0006F915F914F913F912F910F900FBE0F9067
:104EE0001F901895AAE2B0E0E7E7F7E29AC18AEED0
:104EF00093E02091F100FC012193CF01F3E0823F88
:104F00009F07B9F77EDB8091E80083FF16C180918F
:104F1000EA039091EB039A3008F00FC1E92FF0E01B
:104F2000E452F64D69C1803899F0823809F005C124
:104F30008091EE038F70873008F0FFC08093E90006
:104F40008091EB0085FB882780F91092E90006C06C
:104F50008091E6039091E703911182609091E800BF
:104F6000977F9093E8008093F1001092F100809178
:104F7000E8008E77DFC0882309F4CDC0823009F0C5
:104F8000DCC08091EC038111D0C08091EE038F7062
:104F90002FEF280F263008F0D0C08093E900209131
:104FA000EB0020FFC2C0933031F48091EB008062AF
:104FB0008093EB00BAC09091EB0090619093EB006E
:104FC00021E030E001C0220F8A95EAF72093EA0041
:104FD0001092EA008091EB008860EACF8111ADC0A9
:104FE0001091EC031F778091E3008078812B8093F0
:104FF000E3008091E800877F8093E8009EDD809148
:10500000E80080FFFCCF8091E30080688093E3009C
:1050100082E0111183E08093E9038FC080588230D1
:1050200008F08BC08091EC039091ED038C3D23E060
:10503000920799F583E08A838AE289834FB7F894CF
:10504000DE01139620E03EE051E2E32FF0E05093C2
:105050005700E49120FF03C0E295EF703F5FEF70CF
:105060008E2F90E0EA30B8F0C7968D939D932F5F16
:10507000243159F74FBF8091E800877F8093E80083
:105080006AE270E0CE01019667DC8091E8008B77E0
:105090008093E80052C0C096E8CF6091EE03709113
:1050A000EF03AE014F5F5F4F96DBBC01892B09F424
:1050B00044C09091E800977F9093E80089819A819D
:1050C000A9DCE3CF8038C9F58091E800877F809321
:1050D000E8008091E5038093F10049CF81112DC054
:1050E0009091EC03923048F58091E800877F80939F
:1050F000E8009093E50321DD8091E503882311F01A
:1051000084E005C08091E30087FDFACF81E08093C1
:10511000E90366DA12C08091EC03813071F481E01A
:10512000933009F080E08093E7031092E9008091CA
:10513000E800877F8093E80000DD8091E80083FF2E
:105140000AC08091E800877F8093E8008091EB009F
:1051500080628093EB00AA96E3E07FC00895CF932E
:105160008091E903882399F0C091E900CF70909174
:10517000EC00892F817090FD80E8C82B1092E90027
:105180008091E80083FDAEDECF70C093E900CF913F
:10519000089523DD1092E9030895E8EDF0E08081A1
:1051A000806180838AE18A95F1F700C08091D900FF
:1051B00081700895A1E21A2EAA1BBB1BFD010DC030
:1051C000AA1FBB1FEE1FFF1FA217B307E407F507B7
:1051D00020F0A21BB30BE40BF50B661F771F881F93
:1051E000991F1A9469F760957095809590959B0129
:1051F000AC01BD01CF010895EE0FFF1F0590F491A2
:10520000E02D09942F923F924F925F926F927F927E
:105210008F929F92AF92BF92CF92DF92EF92FF92C6
:105220000F931F93CF93DF93CDB7DEB7CA1BDB0B72
:105230000FB6F894DEBF0FBECDBF09942A88398817
:1052400048885F846E847D848C849B84AA84B9841E
:10525000C884DF80EE80FD800C811B81AA81B9812A
:10526000CE0FD11D0FB6F894DEBF0FBECDBFED013E
:105270000895FB01DC0104C08D910190801921F497
:1052800041505040C8F7881B990B0895FB01DC0181
:1052900002C001900D9241505040D8F70895F999FD
:1052A000FECF92BD81BDF89A992780B50895A8E1F7
:1052B000B0E042E050E02FC0DC01A40FB51F415028
:1052C000504040F0CB01840F951F2E9105D04150E6
:1052D0005040D8F70895262FF999FECF92BD81BD91
:1052E000F89A019700B4021639F01FBA20BD0FB624
:1052F000F894FA9AF99A0FBE08950396272FECDFD7
:10530000EADF252FE9DF242FE7CF0196272FE4DFFF
:10531000E2CFDC01CB01FC01F999FECF06C0F2BD62
:10532000E1BDF89A319600B40D9241505040B8F763
:105330000895F894FFCF570264029902CB02D3027A
:10534000DA02E102E602000317031E032503AA06A0
:10535000AA06EC06EC064507D206D206D20661077D
:10536000CA07D607D607C61A3A1BCE1A981A9C1A2D
:10537000D21AA01AD61AE21AAC1A331BB01AE61ABD
:10538000B41AEA1A121BB81AEE1A191BBE1AF41A2A
:10539000FC1AA41ADA1AA81ADE1AC21AF81A081B7A
:1053A000221B311B921ACA1A411BDD1CE31CCD1CA7
:1053B000D71CE91CEF1CF51C9327BB279D28BB2796
:0C53C0009D28EE270E289D2862286E28EC
:1053CC003C020000000000000000000000471D58D7
:1053DC001D5D1D00007B01000000000000471D58F2
:1053EC001D5D1D00007701000000000000471D58E6
:1053FC001D5D1D00007301000000000000471D58DA
:10540C001D5D1D00006F01000000000000471D58CD
:10541C001D5D1D00006B01000000000000471D58C1
:10542C001D5D1D0000670138003100360030001092
:10543C00002F00130034002E022E0035023500FF21
:10544C0000AA00D702F702010000000100000000D2
:10545C000000000401000000040500000000000032
:10546C000100000100CF1FBA22B5228C22B022E22B
:10547C0000E900EA00B500B600B700CD008301CC0E
:10548C00008A0192019401210223022402250226A2
:10549C000227022A02B300B4006F0070009F01CBF8
:1054AC00019F02A002818283E200E900EA00B500BC
:1054BC00B600B700CD008301CC008A0192019401A3
:1054CC002102230224022502260227022A02B3000B
:1054DC00B4006F0070009F01CB019F02A00281827B
:0C54EC008331F7F6F5F4946697C61D03B3
:00000001FF
