:1000000010C200002BC2000029C200000C94D921AC
:1000100025C2000023C2000021C200001FC2000050
:100020001DC200001BC200000C94BF260C948C273C
:100030000C945E2013C2000011C200000FC2000029
:100040000DC200000BC2000009C2000007C2000080
:1000500005C200000C94002101C20000FFC1000095
:10006000FDC10000FBC10000F9C10000F7C10000A4
:10007000F5C10000F3C10000F1C10000EFC10000B4
:10008000EDC10000EBC10000E9C10000E7C10000C4
:10009000E5C10000E3C10000E1C10000DFC10000D4
:1000A000DDC10000DBC10000D9C100003400360012
:1000B000370013001C0004001224082218280C002A
:1000C000330014000D000E001B00000000000000B3
:1000D000417E2C210F00150006000A0009001600C1
:1000E000113417320B3807001D0019001A001000D8
:1000F0000500000000000000427E283114001A00B4
:1001000008001500170004001600072209000A0065
:100110001D001B0006001900050000000000000083
:10012000417E2C00035712000C0018001C00330005
:100130000F000E320D000B0006573700055704570D
:100140001100000000000000427E2800437E447E33
:10015000457E467E2A082B022B00E100E3002A049C
:10016000477E487E497E4A7E4C0400000000000025
:10017000000000004F12521251125012501A4F003C
:1001800052005100500050184F1452145114501482
:100190005016000000000000407E2C0F1E021F02BF
:1001A00020022102220259005A005B005C005D001F
:1001B0002F0230022D000157005700000000000000
:1001C0002D02045231003102250224022302620072
:1001D000610060005F005E002702260230002F00F1
:1001E0000257000000000000000000004B7E0000ED
:1001F000220A210A210B00000000470048000608DF
:100200005000510052004F0019080000000000008B
:10021000417E2C0000000000A800AE002900BB00B9
:10022000A900AA00BC002A004F0052005100500053
:100230000000000000000000427E280007220E326D
:10024000000008221732000000000000000000003B
:100250002A2B280000000000000000000000000021
:1002600000000029000000002C1E3420212224342C
:100270002627252E362D3738271E1F2021222324FE
:1002800025263333362E37381F0405060708090A9A
:100290000B0C0D0E0F101112131415161718191A36
:1002A0001B1C1D2F3130232D350405060708090AB4
:1002B0000B0C0D0E0F101112131415161718191A16
:1002C0001B1C1D2F3130354C0000000000000000C9
:1002D000000000000000000000000000000000001E
:1002E0000000000000000000000000007E0F00D4AD
:1002F000FFFFFFC7000000781A03430068006F008B
:1003000063006F006C006100640020005200470031
:10031000420000000A036A006D006E0077000000D2
:100320000403090409023B00020100A0FA090400C9
:10033000000103010100092111010001224400070D
:100340000581030800010904010001030000000900
:100350002111010001226D00070582032000011216
:1003600001000200000008041850300100010200E2
:100370000105010980A101850319012AB7001501B2
:1003800026B700950175108100C0050C0901A10177
:10039000850419012AA002150126A00295017510F5
:1003A0008100C005010906A1018506050719E0299C
:1003B000E715002501950875018102050719002937
:1003C000EF1500250195F075018102050819012935
:1003D00005950575019102950175039101C005010F
:1003E0000906A101050719E029E71500250195086F
:1003F000750181029501750881010507190029FF22
:10040000150026FF009506750881000508190129C9
:10041000051500250195057501910295017503915A
:1004200001C011241FBECFEFDAE0DEBFCDBF12E066
:10043000A0E0B1E0EEE6F4E502C005900D92A8342C
:10044000B107D9F724E0A8E4B2E001C01D92A131C0
:10045000B207E1F70E94F6150C94F629D1CD8091F0
:100460005202882321F0109252028AEA8ED480919F
:100470005102882321F01092510288E886C4089521
:10048000CF93FB0184342EE7920709F400C110F5E5
:1004900080342EE7920709F460C060F48932910538
:1004A00009F44FC08430924509F4A5C0C1E08C2FF7
:1004B000CF910895C58182343EE7930709F4A9C01E
:1004C00008F45AC0CC2309F4ECC088E859D48FE270
:1004D000D7D33AC088343EE7930709F4EDC0F0F46F
:1004E000258186343EE7930709F4DDC008F4D6C0C1
:1004F000222351F1C0915202C111DBC080915102FF
:10050000882321F0109251020E94A30D8AEA38D468
:100510008BE22FD481E080935202C9CF8A342EE738
:10052000920709F4E8C008F4DFC08B349E4709F055
:10053000BDCF8581882309F4B4C08CEC21D48CE034
:10054000C7CFC581CC2311F0C0E0B1CF0E94DD162A
:100550008823D1F30E94EF16AACF85818823A1F3C7
:1005600083E090E080D68FEF0BD48CE289D320D645
:1005700081E080934A02E8CFCC23B9F00E94BD20ED
:100580009093500280934F0284E095D6882329F0FF
:1005900084E0AFD681E080934B0282E08CD6C82FF6
:1005A00082E0C111D1CF97D682CF59DF82E083D6C6
:1005B000882311F082E09DD680914B02811116C0F4
:1005C00080914A02811112C00E94BD2020914F02E9
:1005D00030915002821B930B8A3A910538F489E2DC
:1005E000C8D30E94DD1681110E94EF1610924B02B3
:1005F00010924A025CCF8581882321F081E08093AC
:100600004C02A2CF84E057D6C82F84E0C1119CCF02
:10061000CACFCC23B1F00E94BD2090934E028093AC
:100620004D0284E048D6882329F084E062D681E038
:1006300080934B0283E03FD6C82F811185CF83E0A2
:10064000B2CF0DDF83E037D6882311F083E051D697
:1006500080914C02811116C080914B02811112C011
:100660000E94BD2020914D0230914E02821B930BBF
:100670008A3A910538F48AE27CD30E94DD16811112
:100680000E94EF1610924B0210924C0210CF8581FF
:10069000882339F088E874D380E31ACF83E32111EB
:1006A00005C086D551CF2223E1F381E169D38BE2E6
:1006B0000FCF8BE25ED348CF8581882309F444CFE6
:1006C000C0915102C111F5CF80915202882321F0CF
:1006D000109252020E94A30D88E852D38BE249D3B4
:1006E00081E080935102E3CE85818823D1F281E1BC
:1006F00047D380E5EDCE8581882399F281E140D30F
:100700008FE4E6CE8530B8F46830A8F4453098F42C
:1007100050E095E0699F400D511D1124FA0198E2C7
:10072000899FE00DF11D1124EE0FFF1FE455FF4FCF
:1007300085919491089581E090E00895E3CF089524
:1007400082E090E008958230910550F447E0489FA0
:100750009001499F300D1124C90180509F4F089589
:1007600090E080E00895EFCF089587E090E008954D
:100770008730910540F424E0880F991F2A95E1F70E
:10078000825F9E4F089590E080E00895F1CF089534
:100790009C013A9521153F4150F5FC01EE27F1707F
:1007A000BC0166277270AC01442754709C0122275B
:1007B000387094FF0EC080E1EF2B09F480E0672BC6
:1007C00009F08062452B09F08064232B89F0806852
:1007D000089581E0EF2B09F480E0672B09F0826037
:1007E000452B09F08460232B19F08860089580E080
:1007F0000895CF93DF93EB01CBDFFE010995DF91E5
:10080000CF910895CF93DF93EC01805E9109089713
:1008100020F061EC78E0209711F460EC76E0CE01F6
:10082000E8DF8C2F2DD2DF91CF910895CF93DF9306
:10083000EC0163D2CE01805E9109089720F066EC4E
:1008400078E0209711F465EC76E0CE01D2DFDF91FD
:10085000CF91089581E00895FDCF089581E0089536
:100860000FCE08950895FECF0895A6E0B0E0EBE323
:10087000F4E00C946E2949835A839E8330915F0281
:1008800089819A81311117C03E81332389F0222357
:1008900079F0D8D5182F682F89819A81B2D56981CE
:1008A0007A81812F0E9425112696E3E00C948A29F3
:1008B000B9D5182FF4CFC6D569817A81F3CFFC0161
:1008C000262F87819085009739F44081518162817C
:1008D000738184819581C9CF0895CF93DF93EC0113
:1008E00061E0EDDFBE01B8DF882351F061E0CE01A9
:1008F000E6DFBE010E94AC188170DF91CF910895B0
:1009000080E0FACFCF93DF93EC0160E0D8DFBE0147
:10091000AADFDF91CF91089521E030E0A90102C064
:10092000440F551F8A95E2F7CA018DC4CF93C82F93
:1009300081E090E00C2E02C0880F991F0A94E2F724
:100940000E94B70E8C2FE8DFCF91089581E00895C3
:10095000FDCF0895CF93C82F2BD48C2FF9DF2FEF25
:1009600084E39CE0215080409040E1F700C000000B
:10097000CF91089581E0EEDF0C94242180E0EADF3E
:100980000C9435210F931F93CF93DF938C0161E07B
:1009900096DFEC01B8010E94CA1D882321F061E0B6
:1009A000C8018DDFEC01B801CE015ADF811106C00C
:1009B00080E0DF91CF911F910F910895B801CE0192
:1009C0000E9442168823A1F3B801CE010E94EE1DB9
:1009D000882371F3B801CE010E94711A882341F374
:1009E000B801CE010E941E1D882311F3B801CE016B
:1009F0000E94CB1A8823E1F2B801CE010E94A31A0B
:100A00008823B1F2B801CE010E946312882381F2DB
:100A1000F8018581882361F0C330FCE7DF07D9F056
:100A200050F4C115ECE7DE07A1F0C130DC47A9F0B6
:100A3000C80114DFBECFCB358CE7D80799F0CC3591
:100A4000ECE7DE0761F0CA35DC4791F70E94980EAB
:100A5000EFCF90DFADCF0E949C0E90DFA9CF0E9418
:100A6000900EE6CF0E949A0EE3CF0E943F20B2C0C4
:100A7000B3D00C9443202F923F924F925F926F928B
:100A80007F928F929F92AF92BF92CF92DF92EF921E
:100A9000FF920F93CF93DF931C0129013A016B0161
:100AA00081E0C81AD108E101CC0DDD1D1882F12CBE
:100AB000E12C8AE0882E912CA12CB12CEC14FD04A1
:100AC00098F0C101DF91CF910F91FF90EF90DF90EF
:100AD000CF90BF90AF909F908F907F906F905F90DE
:100AE0004F903F902F900895C301B201A50194014A
:100AF0000E943729605D603319F4E114F10431F08C
:100B0000411451046104710409F4602F6A93C30114
:100B1000B201A50194010E94372929013A018FEF02
:100B2000E81AF80ACBCF0F9320919A0130919B01DC
:100B30002817390721F420915902261789F090933C
:100B40009B0180939A01609359029C0150E040E020
:100B5000062F66E070E083E592E08DDF0F91089547
:100B600083E592E0FBCF292F332740E021153105A3
:100B700011F0C90148E09C0164E0369527956A951B
:100B8000E1F72115310511F04C5FC9019C01369543
:100B90002795369527952115310511F04E5FC9012E
:100BA00096958795892B09F04F5F842F089581E0F2
:100BB00008950895CF93DF93D82FF9DFC82F8823A6
:100BC00011F08D2FF6DF8C2FDF91CF9108950895CE
:100BD000F1CF089580E0FCCF0E94761EF9CFCF932D
:100BE0000E94761EC82F80915A028C1771F0C09314
:100BF0005A020E94C92060935B0270935C0280934A
:100C00005D0290935E028C2FE3DFCF910895AFE0F9
:100C1000B0E0EDE0F6E00C946D294A875B876C87C5
:100C20007D878E879F879111A1D71F82188619868D
:100C300086E0FE013A96DE01119601900D928A95AA
:100C4000E1F78D8181110EC009811A812B813C81D0
:100C50004D815E816F8178858985CED62F96E4E0BF
:100C60000C948929CE01019638DE8111EDCFF6CFA3
:100C7000FC012481213019F48081918114C40895EC
:100C8000CF93C82F882389F08CEF8C0F813A78F4AA
:100C90008C2F0E940E1F882321F08C2F0E94B01FE2
:100CA000F3D78C2F0E94991FEFD7CF91089580E240
:100CB0008C0F883040F4C77081E001C0880FCA955E
:100CC000EAF734D7F1CFEBE5EC0FE33040F4F0E096
:100CD000E050FE4F808190E00E94A31EE6CFC85AEC
:100CE000CB3118F7EC2FF0E0EE0FFF1FE653FE4F6D
:100CF000808191810E94C81ED8CF882319F19CEF72
:100D0000980F913A18F40E94B01FBEC790E2980F56
:100D1000983048F4877091E001C0990F8A95EAF7FE
:100D2000892F0AD7F2CF9BE5980F933020F490E0FB
:100D300080E00C94A31E885A8B3120F490E080E070
:100D40000C94C81E08951F93CF93DF93182FEB01C7
:100D500097DF209731F4812FD0DFDF91CF911F9162
:100D600008958FE99FE00197F1F700C000002197F7
:100D7000F0CF70E060E0893311F460E570E0E3CF1C
:100D8000882311F0D3D680C70895882311F0D4D6D4
:100D90007BC70895B0E0A0E0E0EDF6E00C94682990
:100DA0006C01D62FC72FFC011581068102950F70AB
:100DB000B3D6E82E8823E9F0E12E1123D1F08C2F51
:100DC000807F803461F080E28D0F8830F8F08C2FC6
:100DD000807E803221F4D230C8F00023B9F08091B7
:100DE000E90382FF13C082E073D796D691E0E82E24
:100DF000E926BC2EB2949FE0B922FBE0FB1580F1FE
:100E0000EB2DF0E0E850F64D0C945929E12CF1CF90
:100E10000C2F0F70C07F11F00295007F112381F01D
:100E2000002349F080E28D0F883010F0D11105C009
:100E3000802F7CD629D78D2F4CC0802F8AD6FACF11
:100E40008D2F5BDF002361F080E28D0F883010F082
:100E5000D11103C0802F70D602C0802F80D614D746
:100E6000EB2DE850FF0B349718F40E94761EB0DE8D
:100E7000EE2059F04DD680FD08C0F601158242D60D
:100E80002AD2C60160D13ED634D2CDB7DEB7E9E072
:100E90000C9484292C2F2F70F22EC07FC03219F0B1
:100EA000F29480EFF822DD2341F0D13089F1112353
:100EB00009F439C00023D1F0BECF8091E90382FD4F
:100EC00011C0112341F0FF2019F08F2D2FD6DCD651
:100ED00080E0D6DEC5CF80E010DFFF2009F4C0CF70
:100EE0008F2DB9CF112359F0011103C08F2D48DF89
:100EF000B7CF013009F0B4CF8F2D4FD6B1CF01114C
:100F0000AFCF8F2D42DF8F2D53D68F2D38D6A8CF60
:100F1000112321F0023008F0A3CFE8CF0111A0CFB8
:100F20008F2D33DF9DCF0023D9F3D93349F43FEF21
:100F300087EE93E0315080409040E1F700C0000020
:100F40008D2FDBDE8DCF8C2F86958695837069F093
:100F5000813009F085CF8D2F9C2F9370111102C025
:100F600080E090E00E94C81E7BCF8D2F9C2F937055
:100F7000111102C080E090E00E94A31E71CF8C2F5F
:100F8000837081F511116CCF4D2F429546954770B6
:100F9000440F440F2D2F2F7030E0042E02C0220F7B
:100FA000331F0A94E2F790E080E0D4FF09C08FE09D
:100FB00090E002C0880F991F4A95E2F780959095BE
:100FC000C695C695C370822B932BC23039F040F47E
:100FD000C13011F041D144CF38D142CF44D140CFBC
:100FE00032D13ECF8695112311F08C2F817088234A
:100FF00009F436CF4D2F429546954770440F440F64
:101000002D2F2F7030E0042E02C0220F331F0A94C0
:10101000E2F790E080E0D4FF09C08FE090E002C0EA
:10102000880F991F4A95E2F780959095C695C695C9
:10103000C370822B932BC23039F040F4C13011F0D1
:101040007DD10ECF74D10CCF80D10ACF17D108CF6C
:10105000CF70112321F08C2F3ED18D2F48CF8D2FB3
:1010600094DE8C2F46D1FCCED23F31F160F4D03FDC
:10107000B9F0D13F81F0112309F43BC00111DBCE5F
:101080008C2F8F711DC0D33FE9F0D43FA1F7809121
:10109000E90382FD1FC08C2F8F71112319F310C03B
:1010A000112331F00111DCCE8C2F8F7132D1D8CECB
:1010B000023008F0D5CEF8CF8C2F8F711111D2CF1E
:1010C0000AD1CECE112321F08C2F8F71FAD0C8CE49
:1010D000DBD0C6CE112329F063E08C2F8F71E1D5D0
:1010E000BFCE81E0F5D5023008F4BACE82E0F0D56B
:1010F000B7CE002359F0D93309F022CFEFEFF7EE46
:1011000023E0E150F0402040E1F718CF8C2F8F71A1
:10111000A9CF0F931F93CF93DF93EC018F81988515
:10112000009761F07CD78C0117D18CD0B801CE012B
:1011300031DEDF91CF911F910F9108956881798100
:101140008D81BAD1F0CFCF93DF93EC018C818823CE
:1011500081F0CE0117DC81110FC0DED4882349F065
:101160008D81882331F08091E90382FF02C082E003
:10117000AFD5DF91CF910895CE01CBDFCE01C2DB99
:10118000F8CF882311F0E5D47FC50895882311F0A6
:10119000E6D47AC5089590E080E00E94A31E90E016
:1011A00080E00E94C81EE2D46FC50E94C71FF3CF23
:1011B000CAD4FBCF92959F70963091F058F4925F0D
:1011C0009F70923058F4803F19F030F4883E30F42C
:1011D00081E008959A5FF4CF843FD1F380E00895D1
:1011E000883EB0F3813FD1F7F3CFFC01848188239F
:1011F00051F087819085009711F011D7DBCF808166
:10120000918151D1FBCF80E00895A6E0B0E0EBE002
:10121000F9E00C946F292696E2E00C948B29A9E062
:10122000B0E0E5E1F9E00C946D292996E4E00C9436
:1012300089290895FECF0895FDDF9093770280936A
:10124000760208950895F8CF08952091760230919E
:101250007702822B932BF0CF209176023091770288
:1012600082239323E9CF209176023091770282275F
:101270009327E2CFDECF0895FDCF0895FDDF909351
:10128000750280937402089590E080E0F7CF009794
:1012900029F481E0662371F080E00CC021E030E0A9
:1012A00002C0220F331F6A95E2F72823392381E019
:1012B000232B91F30895682F809174029091750209
:1012C000E6CF21E030E0A90102C0440F551F8A9506
:1012D000E2F7CA01D3CF21E030E002C0220F331F72
:1012E0008A95E2F78091740290917502822B932B7C
:1012F000C5CF21E030E002C0220F331F8A95E2F70C
:1013000020953095809174029091750282239323E9
:10131000B5CF21E030E002C0220F331F8A95E2F7FB
:10132000809174029091750282279327A7CF209114
:10133000740230917502822B932BA0CF20917402FE
:10134000309175028223932399CF209174023091BA
:1013500075028227932792CF0895262F277091E058
:1013600001C0990F2A95EAF723E0769567952A95AB
:10137000E1F7660F771F660F771FFA01E60FF71F79
:1013800050E040E0682F70E08191DF0111979B01F0
:10139000042E02C0369527950A94E2F72170219514
:1013A0002827292328272C934F5F5F4F443051056E
:1013B00059F70895A82FA77023E0969587952A9549
:1013C000E1F7880F991F880F991FFB01E80FF91F9C
:1013D00050E040E080E0219130E00A2E02C03695D6
:1013E00027950A94E2F721703327042E01C0220FBB
:1013F0000A94EAF7822B4F5F5F4F4430510559F74B
:101400000895262F983068F4853058F4682F70E0DE
:1014100085E0989F600D711D112440E652E0822FF7
:101420009CCF0895292F983058F4853048F490E0E7
:1014300060E672E035E0239F800D911D1124BACF44
:1014400080E00895B0E0A0E0E8E2FAE00C946829BA
:101450007C01009174021091750280917602909146
:101460007702082B192BCFE0D0E0CC24C394D12CE9
:10147000BC2EC6010C2E02C0880F991F0A94E2F7F9
:1014800080239123892B49F4219790F7B12C8B2D40
:10149000CDB7DEB7E9E00C948429B7018C2FE0D6F4
:1014A000019791F3F4CFCF93DF93EC01CBDFBE0133
:1014B000D7D6DF91CF9108951F93CF93DF93EB01A0
:1014C00090915F02992331F0CB01EDDFDF91CF9155
:1014D0001F910895882351F0CB01B4DF182F682F96
:1014E000CE018FDFBE01812FBBD6F0CFCB019ADFBB
:1014F000182FF8CFFF920F931F93CF93DF93C091D4
:10150000780289E0F82E809179028C1305C0CDB75E
:10151000DEB7E5E00C948829D0E0FC9EF001FD9E4A
:10152000F00D1124E658FD4F008111812281338195
:101530004481558166817781808571DE2196C770EF
:10154000E2CF0F931F930091C2021091C30220912A
:10155000C4023091C5024091C6025091C702609109
:10156000C8027091C9028091CA0259DE1F910F9181
:1015700008950F931F93CF93DF938091C802807FCC
:1015800009F04FC08091C702882309F44AC0E09156
:101590007802D09179021091C3020091C202409169
:1015A000C4025091C50260919C0170919D01C9E0F7
:1015B000DE17B9F18E2F90E0EC9FF0011124E65870
:1015C000FD4F2481222391F1C89FF001C99FF00DA6
:1015D0001124DF01A658BD4F11962C9111972113AC
:1015E00025C02C91201322C015962C9115972111FE
:1015F0001DC012962D913C91241B350B26173707E1
:10160000A8F48091C8028F7080618093C802E0586E
:10161000FD4F80818F708061808382EC92E093DD4A
:1016200069DFDF91CF911F910F910895FC013196F1
:10163000E770BECF482F209178029091790259E04F
:10164000291302C080E0089530E0529FF001539FBB
:10165000F00D1124E658FD4F8181681306C080818A
:10166000481303C085818111EECF2F5F3F4F277054
:10167000E7CFA8E1B0E0EFE3FBE00C9465298C0133
:1016800086E0F801DE01539601900D928A95E1F70C
:10169000D80114968C9114971596EC90159792ECAE
:1016A000A92E92E0B92E9091C60291111AC08823FA
:1016B000A9F0EE2089F0C80198DDF82E882361F0AA
:1016C00089E0F801D50101900D928A95E1F7C501F5
:1016D000CFDA4FDF36DF48C0C80135DDFF24F39491
:1016E00043C0F801C080D18082809380F090C7020F
:1016F0002091C4023091C502A401421B530B9A01F0
:1017000040919C0150919D01FF2009F41EC12417B6
:10171000350708F0C0C0882339F19091C302809149
:10172000C802282F207F09F069C09D1122C0909126
:10173000C202C9121EC04091C9025091CA0227813B
:10174000308542175307A9F4E11052C08F708061B1
:101750008093C802F6DE82EC92E0F5DC8091C8024C
:10176000D80116968C93F12C8F2D6896ECE00C9492
:101770008129E1103DC06D2D8C2D5CDFE82E882382
:1017800061F082EC92E0DFDC89E0E2ECF2E0DF0184
:101790001D928A95E9F7D5DEE6CFCB8ADC8A8B8964
:1017A0009C8981DE292F22952F70243058F49F7058
:1017B000223080F0992391F0F8019681907F71F4A6
:1017C000FE2CD2CF2A5F2F70223060F0C801BBDC24
:1017D000EF2CF6CF992311F0882391F3805E8830A7
:1017E00078F3F4CF803F60F3815F833078F7E8CF00
:1017F0008091C80281608093C802B5CF9D111EC040
:101800009091C202C9121AC04091C9025091CA02F5
:1018100017962D913C9118974217530779F4E110D0
:101820000DC016968C93C8018EDC89E0F801A2ECFD
:10183000B2E001900D928A95E1F74CCFC801D5DC5A
:10184000882309F449CFEE2009F446CF8091C802DD
:101850008032B0F02091C2023091C3023B872A87C8
:101860009D868C869091C6029E871F86888B80916C
:10187000C9029091CA029A8B898BCE010A9663DCC9
:1018800089E0F801A2ECB2E001900D928A95E1F7AF
:1018900070DE57DE23CF9091C802292F207F81F47C
:1018A000682D9E8A8D8AA6017E899E2DAEDC82ECF3
:1018B00092E049DC89E0F50111928A95E9F76BCF56
:1018C000882309F451CF8091C3028D111BC08091F0
:1018D000C202C81217C04091C9025091CA0217969D
:1018E0002D913C9118974217530761F4E1100AC0FB
:1018F00016969C93C80127DC89E0F50111928A9520
:10190000E9F732CFC80171DC882309F4E5CEEE2077
:1019100009F4E2CE8091C802803208F4B1CF209160
:10192000C2023091C3023A8329839C828B829091B8
:10193000C6029D831E828F838091C9029091CA0244
:1019400099878887CE0101969ACF2417350708F02A
:1019500046C0882309F4C2CEFE2CEE2009F4BCCE8A
:101960008091C3028D112FC08091C202C8122BC07A
:101970004091C9025091CA0217968D919C91189777
:101980004817590701F52A3A3105A0F49091C80289
:1019900090FD10C0907F71F08091C80216968C93D4
:1019A0001697903F09F43FCF982F907F905F8F70EC
:1019B000892B37CF89E0F801A2ECB2E001900D92BB
:1019C0008A95E1F7D1CEC80110DC811159CF809101
:1019D000C80281608093C802C801B5DBC5CE682DFE
:1019E0009E8A8D8AA6017E899E2D0FDC89E0F501F5
:1019F00011928A95E9F76ECEA2E1B0E0E2E0FDE057
:101A00000C946C290A871B872C873D874E875F873C
:101A1000688B798B8A8BCE010A962BDE8823C1F0E6
:101A20004E85442349F00A851B852C853D855F85BD
:101A3000688979898A89F3DB89E0F82E80917802B8
:101A40009091790289133BC06296E5E00C94882955
:101A500089E0FE013A96DE01119601900D928A9579
:101A6000E1F78E85882341F32091790230E0C901A6
:101A7000019687709927409178024817190691F0CE
:101A800099E0929FD001939FB00D1124A658BD4FAD
:101A9000FE01319601900D929A95E1F780937902BB
:101AA00029DDCACF85DB109279021092780289E095
:101AB000E2ECF2E0DF011D928A95E9F7BDCF8F9D40
:101AC000C001112486589D4FD4DD882309F4BCCF72
:101AD000E0917802FE9EF0011124E658FD4F00814E
:101AE000118122813381448155816681778180858E
:101AF00096DB8091780290E0019687709927809319
:101B000078029CCF8091F3028695869586950895FC
:101B10008091F302877008959091F302977081E0AD
:101B200009F480E0089580911F03089590911F03A8
:101B3000892B80931F030895809590911F0398230C
:101B400090931F03089510921F03089580911E0320
:101B5000089590911E03892B80931E03089580950C
:101B600090911E03982390931E03089510921E03D4
:101B700008958091F50208950895FECF08959091FB
:101B8000F402292F282329F0809589238093F402D9
:101B9000F4CF08950895FECF08959091F502292F6E
:101BA0002823281721F0982B9093F502F4CF08955D
:101BB0009091F502292F282329F08095892380937D
:101BC000F502E9CF08958091F502882321F0109263
:101BD000F50280E0E0CF0895CF93C0911F0380917C
:101BE0001E03C82B8091F502882329F0C82B0E9480
:101BF000ED1E8111E8DF8C2FCF910895CF93DF93F5
:101C0000C091A001D091A101E7DF8883C091A0011C
:101C1000D091A10148E050E06BEE72E0CE010E944D
:101C20009629892B59F088E0FE01ABEEB2E00190D5
:101C30000D928A95E1F7CE010E948A1EDF91CF9125
:101C40000895CF93DF93C0919E01D0919F01C4DF8F
:101C50008983C0919E01D0919F0140E250E06BECDE
:101C600072E0CE010E949629892B59F080E2FE0194
:101C7000ABECB2E001900D928A95E1F7CE010E94A3
:101C8000951EDF91CF9108950E941E20813029F486
:101C90008091E80387FF01C0D4CFB0CF0895FECF75
:101CA00008959091E90392FF0EC098E0899F9001FA
:101CB0001124622B6093F3020EDB8091F302869570
:101CC00086958695ECCF07CB1092F30280E0E7CFA4
:101CD0009091F302809589238093F302282F277037
:101CE00059F4891749F09091E90392FF05C0869550
:101CF00086958695FEDAE8CF08959091E90392FBE8
:101D0000222720F9281759F080FB92F99093E903D4
:101D10008091E8039091E90333D082E0D9CF089510
:101D20008091E90382FB882780F991E08927E5CF3C
:101D300081E0E3CF80E0E1CF6FEF7FEF90E080E0E4
:101D40000C94E22990E080E00E94B42921E0853ED5
:101D50009E4F09F020E0822F089582E090E00C94DD
:101D6000AC2983E090E00E94AC2990E00895682FB0
:101D700083E090E00C94C82984E090E00C94B429AE
:101D8000BC0184E090E00C94E229AB01BC018FE03F
:101D900090E00C94DA29AB01BC0183E190E00C9453
:101DA000DA2960E070E0CB01F6CF60E070E0CB01B3
:101DB000ECDFF7CFA8E0B0E0E0EEFEE00C946F2996
:101DC00065EE7EEF90E080E00E94E22960E082E034
:101DD00090E00E94C82981E090E090937702809380
:101DE0007602C5DF60E074E184E090E00E94E229C1
:101DF00060E086E090E00E94C82960E087E090E023
:101E00000E94C82940E050E0BA0188E090E00E94BA
:101E1000DA2960E083E290E00E94C82960E08CE06B
:101E200090E00E94C82960E08DE090E00E94C829FF
:101E300019821A821B821C821D821E821F821886B2
:101E400048E050E067E170E0CE0101960E94B929B8
:101E500040E050E0BA018FE190E00E94DA29A5DF6E
:101E60002896E2E00C948B29A5CF0895682F8EE088
:101E700090E00C94C829A6E0B0E0E1E4FFE00C9407
:101E80006D290E94BD208C01809120039091210337
:101E90008017910781F019821A820E94BD20682F55
:101EA00049815A81792F80E090E00E9407061093C3
:101EB0002103009320032696E4E00C948929E8D2BC
:101EC00060932E0370932F0380933003909331031C
:101ED00060932A0370932B0380932C0390932D031C
:101EE000089508950895FDCF08950895FECF0895AB
:101EF00081E0089581E692E18AD6F4DFF4CF99C4B7
:101F0000089508950895FDDFFDCF1CDF811101C004
:101F1000ABDF23DF809332032FDF9093E9038093BD
:101F2000E80392D61EDF8FD98091740290917502DA
:101F3000A3C90E94B42087D281D4D9D3E6DF0E94FE
:101F4000E7050E94591A87D4D1CF73D4882329F08A
:101F50000E94531E0E946D184EC70895A6E0B0E07F
:101F6000E4EBFFE00C946629C3DF811108C083DF36
:101F7000ECDF0E94EF052696EBE00C948229D6D385
:101F800082E2A82E83E0B82E750110E0F7010191DE
:101F90007F01812FB0D21F5F183009F43DC00817B0
:101FA000A9F38091320381FDACD2A9DFC82E10E0E5
:101FB00099249394812F9FD2082FF50181915F017D
:101FC000081729F1D02ED826F12CEE24E3948D2D7C
:101FD0008E21A9F0CC2099F0F9821A830E94BD20AD
:101FE0009C838B839D8291E0802F8E2109F490E069
:101FF00049815A816B817C818D810E940706F3940F
:10200000EE0CF5E0FF12E3CFF501319700831F5F7F
:10201000183081F654DFACCF0813C3CFA8CF1F937D
:10202000CF93DF931FD1EC01C11580E5D807F0F500
:10203000C11580E4D80708F09AC0C03ED10520F54C
:10204000CD3CD10508F082C0C83AD10578F4C53A34
:10205000D10508F073C0C130D10519F1209709F1FD
:10206000C430D105F0F4D0E0C0E01BC0C33CD105C2
:10207000D0F7C85AD0E0CC0FDD1FCD5FDD4F0990FF
:10208000D881C02DD4640DC0C11580E2D80708F0F6
:10209000CCC0C11581E0D80708F05AC0C83ED105B0
:1020A00010F7CE01DF91CF911F910895C03682E5E0
:1020B000D80718F5C03482E5D80708F068C0C032E8
:1020C00082E5D80708F05CC0C11582E5D80708F49E
:1020D00093C02C2F2695269580E2289F90011124ED
:1020E0008C2F8370C1E0D0E002C0CC0FDD1F8A9539
:1020F000E2F7C22BD32BDD68D4CFC03A82E5D807F4
:1021000060F4C03882E5D80708F456C0CF71D0E03B
:10211000DC2FCC27C46FD06AC4CFC03C82E5D8077F
:1021200008F45FC0C03E82E5D80708F09CCFDC2FE2
:10213000CC27CC27DF71C06FD06AB3CFC55AD0E0AF
:10214000C75CDD4FC881D0E0D064ABCFD065A9CFEC
:102150008D2F2AD1182FCE01992784D0C12FD0E0FE
:10216000DC2FCC27CC27DF71C82BD92B9ACFCE01FF
:10217000992778D0CC27DF70C82BD92BD06A91CF84
:10218000CF71D0E0DC2FCC27C16FD06A8ACF2C2F43
:1021900026952695277080E2289F900111248C2F88
:1021A0008370C1E0D0E002C0CC0FDD1F8A95E2F75A
:1021B000C22BD32BDC6875CF2C2F26952695277044
:1021C00080E2289F900111248C2F8370C1E0D0E021
:1021D00002C0CC0FDD1F8A95E2F7C22BD32BDA6841
:1021E00060CF8C2F8F71E0D0C82FD0E0DC2FCC27B0
:1021F000CC27DF71D06255CF8C2F8F71D5D055E0B1
:10220000D695C7955A95E1F7CF70D0E0DC2FCC2753
:10221000282F30E084FF05C044E0220F331F4A9589
:10222000E1F7C22BD32BD0693CCF8D2F8F71BCD05F
:10223000182FCE01992716D0C12FD0E0DC2FCC2744
:10224000CC27DF71C82BD92BD5CF462F783028F477
:10225000653018F4672F0C949E0390E080E0089599
:10226000F4DFDDCE82389105B9F1B0F48133910508
:1022700009F47DC048F48932910509F46DC08A32B1
:10228000910509F47BC008958533910509F45FC079
:102290008933910509F10895833E9105D9F138F408
:1022A000803E910529F1823E910579F10895863E9F
:1022B0009105D9F1873E910509F43EC0843E910510
:1022C00041F52091E90321FF24C08091E80384FDBA
:1022D00019C087EE90E008952091E803237009F07B
:1022E0005AC02091E90323FF14C089E290E00895C9
:1022F0002091E80320FD38C03091E90330FF09C088
:1023000024FF43C090E080E008952091E80322FD7F
:10231000F7CF08952091E80322FD3AC03091E903F8
:1023200030FD39C024FFF5CFEDCF2091E80323FF26
:10233000F0CF24FDE7CFCDCF2091E80323FD2EC0C1
:102340003091E90331FFEECF84EE90E008952091C3
:10235000E80325FFDECFC9CF2091E80325FD21C08A
:102360002091E90323FFD5CF89E390E0D2CF2091DC
:10237000E80326FFCECF8AE290E008952091E8039B
:1023800026FFC7CF81E390E0089583EE90E00895A3
:1023900082EE90E0089580EE90E0089586EE90E061
:1023A000089585E390E008959091E80392FF10C0AE
:1023B00041E0282F2471243009F040E031E0282F3B
:1023C0002871283009F030E0431711F02CE0822703
:1023D00093FF10C041E0282F2471243109F040E020
:1023E00031E0282F2871283109F030E0431711F02F
:1023F0002CE082273091E90330FF10C051E0282FF4
:102400002171213009F050E041E0282F2871283057
:1024100009F040E0541711F029E0822731FF10C085
:1024200041E0282F2171213109F040E031E0282FCF
:102430002871283109F030E0431711F029E0822794
:1024400094FD877E08951092EA031092EB03109298
:10245000EC031092ED030895CF92DF92EF92FF927A
:102460006B017C01E6D181110EC00E94C920C61A01
:10247000D70AE80AF90AC092EA03D092EB03E09285
:10248000EC03F092ED03FF90EF90DF90CF90089572
:102490000F931F93CED1882329F00E94C9201F914A
:1024A0000F9108950E94C9200091EA031091EB0357
:1024B0002091EC033091ED03600F711F821F931F79
:1024C000EECF80E00895CF939C01205E3245C1E0BD
:1024D0002032310538F4FB01C581C11103C08F7171
:1024E0000E9496048C2FCF9108950895FECF0895F1
:1024F0000895FECF0895E82FF0E0E950FC4F808169
:102500000895089580EA8A95F1F7089500C0089526
:10251000F9CF08950895FECF0895EF92FF921F938B
:10252000CF93DF9300D000D0CDB7DEB782D1182F84
:102530006091FF03882309F445C019821A821B8227
:102540001C82862F90E09E012F5F3F4F7901B901D9
:1025500089509C4F8CD18823E1F08091EE0390E06C
:1025600044E050E0B70189509C4F0E94962921E039
:1025700020933303892BC1F410E0BBDF812F0F9030
:102580000F900F900F90DF91CF911F91FF90EF90E0
:10259000089580913303882379F384E0F701119241
:1025A0008A95E9F710923303E091EE03F0E0E950E9
:1025B000FC4F89819A81AB81BC8180839183A28306
:1025C000B383DBCF70E069507C4F8091EE0390E0E5
:1025D00089509C4FD1D19FDFD1CFF894E82FE2955D
:1025E000EF70F0E031A1282F2F7081E090E001C062
:1025F000880F2A95EAF7982F9095932391A392A19B
:10260000892B82A378940895CF93DF9384E9E5DF43
:1026100086E6E3DF87E9E1DF86ECDFDFCCE3D2E0CB
:1026200089918F3F09F0D9DF82E0C134D807C1F723
:10263000DF91CF910895B0E0A0E0E1E2F3E10C94E6
:102640006929EC01D62E062F10E0C8018F5B9D4F43
:102650007C01FC0180818F3F09F442C0F894E82F8F
:10266000E295EF70F0E091A18F7021E030E001C0C1
:10267000220F8A95EAF7892F822B81A382A12095C8
:10268000282322A3789442DFECE3F2E041E452E015
:1026900031E0C12C21912F3F41F1A22FA295AF70C3
:1026A000B0E090968C9190E02F7002C09595879540
:1026B0002A95E2F780FD19C0832FC82A330F4E17E1
:1026C0005F0741F7F70180818F3F09F086DF61E006
:1026D000C11001C060E08D2D1BDFC00FD11FC8826B
:1026E000CDB7DEB7E8E00C94852980E0E6CF809195
:1026F000A2018091A20194E0811190E09093FF03E8
:1027000084E0891B8093EE037FDF88E0E7EFF3E04E
:10271000DF01982F1D929A95E9F7EFEEF3E0DF01C4
:102720001D928A95E9F784E03CD0E0CEA8E0B0E0C5
:10273000ECE9F3E10C946C298E010F5F1F4F88E0E8
:10274000F80111928A95E9F7F12C6F2DC80173DF1A
:10275000F394F4E0FF12F9CF48E050E0B8018FEEB7
:1027600093E00E94962921E0009709F420E0892B4C
:1027700041F088E0F801AFEEB3E001900D928A9548
:10278000E1F76091FF0370E069507C4F44E08FEE09
:1027900093E008D0182FC1DE812B2896E5E00C9439
:1027A00088290895B0E0A0E0E8EDF3E10C946929F0
:1027B0006C017B01042FC22F222379F081E08093EA
:1027C00036030E94BD20909335038093340380E04C
:1027D000CDB7DEB7E8E00C948529D0913603DD2330
:1027E000B1F380913403909135030E94D520059771
:1027F00070F310E0A801B601C7010E949629892B49
:1028000031F0A801B601C7010E94A329CD2F109273
:1028100036038C2FDDCFCF930E942A29C82F811138
:1028200002C00E9426298C2FCF91089580913A03EF
:102830000895809139030895FCCF0895ECDF8093CB
:102840003903FADF80933A03F1DF8093A201F1DFCD
:10285000811142C00895EDDF811101C040C008958B
:1028600081E090913B039A3008F080E008950F9347
:102870001F93CF93DF93EC018B0180913B038A3050
:10288000B0F4B801CE0176D0C82F811122C080915A
:102890003B038F3FB9F40E94BD209093380380938F
:1028A00037038C2FDF91CF911F910F910895809165
:1028B0003703909138030E94D520843F914008F758
:1028C000C0E0EFCF8F5F80933B038A3020F7C1E0F9
:1028D000E8CF10923B03E5CF0C94962108950C9419
:1028E00099210895B0E0A0E0E8E7F4E10C946A29AA
:1028F0007901C82F880FDD0B41155105A9F0FE01A4
:1029000093E0EE0FFF1F9A95E1F7ED55FE4F8181A1
:102910009281845C9C4F208130E04217530708F479
:102920009A01A9010E94A329CE010E947922D82EE2
:102930008823D1F001151105B9F083E0CC0FDD1F1C
:102940008A95E1F7FE01ED55FE4F438150E00417F3
:10295000150708F4A801CD55DE4F6C817D81645CBC
:102960007C4FC7010E94A3298D2DCDB7DEB7E7E0CC
:102970000C948629F0C0089503C10895A4E0B0E046
:10298000E4ECF4E10C946D296091510370915203D1
:1029900080915303909154030E94E42011E0643627
:1029A00071058105910508F173DD6E5F7F4F8F4FD3
:1029B0009F4F69837A838B839C8310E000E030E033
:1029C00020E044E050E0BE016F5F7F4F82E08ADF8D
:1029D000182F882351F00E94C920609351037093EF
:1029E00052038093530390935403812F2496E4E081
:1029F0000C948929B0E0A0E0E0E0F5E10C946729AF
:102A00007C015B016A012CDF01E010E0882311F0FA
:102A10000AE010E0C1E0D0E0B501C701F601099578
:102A2000811104C021960C171D072CF4CDB7DEB719
:102A3000EAE00C948329CC9F9001CD9F300D300D9E
:102A4000112490E080E045E34A95F1F700000196FB
:102A500082179307C1F7E0CFA5E0B0E0E2E3F5E12C
:102A60000C9467295B01E0904502F090460201E07A
:102A700010E09E012B5F3F4F50E040E070E060E0CF
:102A800080E030DF182F882309F448C067018FEFFA
:102A9000C81AD80A60914D0370914E0380914F037C
:102AA000909150030E94E4206436710581059105E0
:102AB00070F104E010E09E012F5F3F4F50E040E0D6
:102AC00070E060E081E00EDFF82E64E070E0C601A7
:102AD000F1D411E09D81981310E01F2151F10E9463
:102AE000C92060934D0370934E0380934F039093DE
:102AF000500389819A81AB81BC8180934903909373
:102B00004A03A0934B03B0934C0311E012C064E05E
:102B100070E0C601CFD49D818913CBCFF7018181AD
:102B20009281A381B48189839A83AB83BC83111181
:102B3000E0CF8091490390914A03A0914B03B0915B
:102B40004C03F50180839183A283B383812F259663
:102B5000EAE00C9483290F931F93CF93DF93EC014A
:102B60008B014CE255E146DF882329F04EEB54E11E
:102B7000B801CE013FDFDF91CF911F910F910895F2
:102B80000F931F93CF93DF93C0914502D0914602DC
:102B9000CE01019624E0FB01DC0101900D922A9503
:102BA000E1F764E070E086D488836D817E818F8157
:102BB0009885009145031091460320914703309179
:102BC0004803601771078207930749F06093450334
:102BD0007093460380934703909348033DDCDF9155
:102BE000CF911F910F910895B9C908950E94572060
:102BF0000E940D247FD90E9425249BD90E942E2457
:102C00000E943124F1DF0E9447247DD9F9CF9093AF
:102C100049028093480208958FC8089580E06BDCD4
:102C20008170089583DD2FEF86E791E02150804089
:102C30009040E1F700C0000079DDF0DF882319F053
:102C4000EBDF0C9424210895EDCF0895883291058F
:102C500048F48E319105A0F4049750F082E00E9470
:102C6000A90D0EC08D329105C9F320F48A9741F069
:102C700080E008958C34910519F08D329240C1F7AF
:102C800081E00895EF92FF920F931F93CF93DF930C
:102C9000EC017B01C3378CE7D80761F4FB01158198
:102CA000112311F0B9D010E0812FCDB7DEB7E6E0E7
:102CB0000C9487290E94930D082F0E94B90D082BB0
:102CC0007CD0811107C0023211F011E0EDCF79D034
:102CD000F8D6FBCF69D0F70115811123B1F30D7937
:102CE00009F054C0C034F2E5DF0720F5C11582E5D4
:102CF000D807D0F6C115E0E4DE0790F4C115F0E284
:102D0000DF07B0F5C63ED10579F20E94B60DCE01BF
:102D10009DDFC82F8823D1F10E94440E1C2FC4CF01
:102D2000C11580E5D80788F7F7018681807F69F2B1
:102D3000DD27EBCFC03EE2E5DE07A0F4C03CF2E5C4
:102D4000DF0708F0B1CFC03682E5D807F0F2C03A0D
:102D5000E2E5DE0708F4A8CFC43BF2E5DF0709F49B
:102D6000A3CFD3CFCE0187579C47029770F69CCF55
:102D7000F7018681807FE1F68D2F8F71823189F096
:102D800038F4C1EED0E0823009F4BFCF28D08CCF28
:102D9000843109F489CFC6EED2E1863109F4B5CF8A
:102DA000F5CFC5EED0E0B1CF0E94BD2088579C4E34
:102DB0009093560380935503089580915703089587
:102DC000089580915703811109C00E94A30D0E94AC
:102DD000E30DEADF81E080935703F2CF08958091FD
:102DE0005703882339F082E20E94C60810925703E5
:102DF00080E0E6CF089580915703882361F00E9418
:102E0000BD202091550330915603821B930B8F3FB9
:102E10009F4708F4E4CF089580915703882309F071
:102E2000DECFCFCF0895EF92FF920F931F93CF93F2
:102E3000DF938091CB03882361F0E09158038DE00C
:102E4000F82E8091CB03E81748F01092CB03109234
:102E50005803CDB7DEB7E6E00C948729EE24E3945F
:102E6000EE0EE0925803CE2FD0E0EF9DF00111243A
:102E7000ED59FC4F84818823A9F087819085892BA7
:102E800099F4818592858F3F980771F061E0CADFE0
:102E9000FC9EF001FD9EF00D1124ED59FC4F1482B3
:102EA0000E94B60DEE2DCDCF00811181228133819C
:102EB000448155816681778180850E94FC0CE8CF32
:102EC0000895CF93DF931092CD031092CC03D0E0FE
:102ED000C0E00E94A003C817D90718F0DF91CF9176
:102EE0000895CE010E94B303FC018581811102C0C7
:102EF000148216822196EDCF1F93CF93DF9310910A
:102F00006103209162032117D1F0C12FD0E0FE01AF
:102F1000EE0FFF1FE75AFC4F4081518148175907B8
:102F200091F40E94B30321E0FC01248380916103AA
:102F3000811305C02196C370DD27C0936103DF9123
:102F4000CF911F91089521961C2F1370DCCFB0E014
:102F5000A0E0EDEAF7E10C946429EB012C8121114A
:102F600052C07090CB03A3E6B3E030E020E0812CA8
:102F700061E070E0271508F045C01B96CD90DC900D
:102F80001C97A880B9804FEF5FEF912CE92CF12CB2
:102F9000F701EE0FFF1FEA0DFB1D05911491C016FE
:102FA000D10609F4A7010115110511F09394EECF94
:102FB0004F3F540781F1FB0102C0EE0FFF1F4A95FE
:102FC000E2F78E2AAB01092C02C0440F551F0A9468
:102FD000E2F74150510984161506D1F44A815B810C
:102FE0006DE0629FF001639FF00D1124ED59FC4FDD
:102FF0005087478324E0248310821182928781873F
:1030000021E02D8379DFCDB7DEB7EDE00C94802988
:1030100014961C9214972F5F3F4F1D96ABCF0F93C2
:103020001F93CF93DF93C0916103809162038C1350
:1030300007C0F9DE46DFDF91CF911F910F91089510
:10304000D0E08E01000F111F075A1C4FF80180813C
:1030500091810E94B303BC01F8018081918177DFE7
:103060002196C370E2CFEF92FF921F93CF93DF932D
:10307000FC012081318110E040E050E0E52FF0E0DC
:10308000EE0FFF1FE20FF31FA591B4911097B9F057
:10309000FB01C081D18140E005C0AE15BF0509F438
:1030A00011E04F5FE42FF0E0EE0FFF1FEC0FFD1F6C
:1030B000E590F490E114F10481F75F5FDFCF112315
:1030C00049F0451708F4CB01DF91CF911F91FF9094
:1030D000EF90089590E080E0F7CF8091BB018823C6
:1030E00029F18091CE039091CF030097F9F00E94CF
:1030F000D5202091CC033091CD0328173907B0F4A7
:103100009091610380916203981751F088DF1092CB
:10311000CD031092CC031092CF031092CE030895EA
:1031200082DE1092CF031092CE03CBCE0895109280
:10313000CF031092CE031092BB0180916203809363
:103140006103BFDE70CE8091BB01882309F0EFCF11
:1031500081E08093BB010895ACE0B0E0E2EBF8E1E0
:103160000C945F294C016B0180352CE7920761F4C8
:10317000FB0115811123D9F081E08093BB01812FE0
:103180002C96E2E10C947B298135FCE79F0731F412
:10319000FB011581112359F0CADFF1CF82359C471D
:1031A00031F4FB011581112311F0CDDFE8CF20911F
:1031B0007402309175028091760290917702822B91
:1031C000932B0E94B305182F7BDE181729F0F60108
:1031D000608171813AD84C01B12CA12C1C866624E7
:1031E0006394712CCE0101969B878A870E94A0036D
:1031F000A816B906B8F1F6018581882309F44AC1F9
:10320000FC85FF2309F446C1B8D79093CF03809380
:10321000CE038091CB03883008F591E0980F90930E
:10322000CB0399E0F601DE01119601900D929A957B
:10323000E1F72DE0829FC00111248D599C4F29E0B8
:10324000FE013196DC0101900D922A95E1F72FEFF6
:103250003FEFFC0132872187948683861C85109579
:1032600011708DCFC5010E94B3037C01FC01408128
:10327000518144244A94542C60E0262F30E0F90117
:10328000EE0FFF1FE40FF51F8591949188169906A4
:1032900009F42901892B11F06F5FEFCF80E0FFEF78
:1032A0004F165F0609F445C0F70144813090BB0119
:1032B000832D411180E0F82FF1703F2EF70125801A
:1032C0008681F6019581992309F483C0332009F49E
:1032D00080C0211015C09301042C01C0220F0A9454
:1032E000EAF7822BF70186838091CC039091CD037E
:1032F000C29730F482E390E09093CD038093CC03A7
:10330000C30102C0880F991F6A95E2F70197F70180
:1033100026812817190681F58091CE039091CF035D
:10332000009771F042D7C39758F021E0F70124834A
:1033300081E0FC85F82BFC872FEFA21AB20A56CF4A
:103340002090610390E080E020916203221216C079
:10335000E816F90689F0422C512CF201EE0FFF1FFE
:10336000E75AFC4FB182A0822FEF421A520A83E043
:103370004822552440926203832DDBCF422C512CEE
:10338000F201EE0FFF1FE75AFC4F808191810E94EE
:10339000B3038C01B70167DE0097A1F021E0FC01C7
:1033A0002483E816F90641F32091610322120AC032
:1033B0000817190739F492012F5F3F4F2370332705
:1033C00020936103EFEF4E1A5E0AF42DF3702F2E57
:1033D000BBCF90E021101EC0930102C0220F331F0B
:1033E0006A95E2F7215031092817390729F4442357
:1033F00009F44EC0C50180DDC301042C01C0880F53
:103400000A94EAF7982F9095F7018681892386839D
:10341000322CB2CFAC01042C02C0559547950A94CA
:10342000E2F7BA01617077279C01215031098223AC
:103430009323892B49F5672B39F1F7018281938119
:10344000892BF1F0EA85FB8527E011922A95E9F7AF
:1034500094D6282F8B839C8384E08D83F70182810F
:103460009381782F8887998709811A813C8144E06C
:103470005E816F81892F0E94FC0CF7011582BCCF01
:1034800060E0C501CFDCF9CFF42FF1702F2EB4CF5F
:10349000232CB2CF9091610380916203981711F0B1
:1034A000BEDDDCCEC0DC1092CF031092CE0309DD6E
:1034B000D5CE0895FC01680F791F8FEF91E36E1749
:1034C0007F0709F408952191822728E030E087FFE3
:1034D00006C0880F892721503109C9F7F0CF880F1E
:1034E000FACF9C01FB018581882359F12137FCE744
:1034F0003F07B9F022379CE73907E9F020373C470E
:1035000009F560E280919C0190919D010E949305D4
:10351000FC01019620812032D9F3CF0126D280E030
:10352000089580919C0190919D01059690939D0135
:1035300080939C01F4CF80919C0190919D0105970F
:10354000F5CF81E00895CF93DF93EB0186319C475F
:1035500001F50E94930D9D81992391F08A7A91E063
:1035600009F490E09093D003811108C089E2E1D47E
:103570000E94440E80E0DF91CF91089585E3F7CF5C
:103580008091D003811103C089E2EAD4F1CF85E3B1
:10359000FCCF81E0F0CFCF93DF93EC01FB0185817D
:1035A000882309F4D2C09E0130572332310508F038
:1035B000B2C00E94BC0E9093E9038093E803FE0121
:1035C000E150F047E232F10520F4EC5FF54D0C9448
:1035D00059298091E80381608093E80393C080912A
:1035E000E90388608093E9038DC08091E8038260DD
:1035F000F3CF8091E8038460EFCF8091E803886087
:10360000EBCF8091E9038160EDCF8091E903826087
:10361000E9CF8091E8038061DFCF8091E803806289
:10362000DBCF8091E8038064D7CF0E94D8088091D7
:10363000E8038068D1CF8091E8038C60CDCF809182
:10364000E9038360CFCF8091E8038E7FC5CF80915F
:10365000E903877FC7CF8091E8038D7FBDCF80913D
:10366000E8038B7FB9CF8091E803877FB5CF809146
:10367000E9038E7FB7CF8091E9038D7FB3CF80912F
:10368000E8038F7EA9CF8091E8038F7DA5CF80913D
:10369000E8038F7BA1CF0E94D8088091E8038F7741
:1036A0009BCF8091E803837F97CF8091E9038C7F44
:1036B00099CF8091E80382FB992790F921E0922726
:1036C00090FB82F990FB83F987CF8091E903982FD3
:1036D000909591708E7F892B90FB81F983CF90918B
:1036E000E803892F8F7B96FF806476CF0E94D808ED
:1036F0009091E803892F97FB87F980586DCF81E07F
:103700000E94360F8091E8039091E9030E94C00E59
:103710000E94D80880E0DF91CF91089580E0F0CF3B
:103720009091E803892F8F7E94FF806155CF90910F
:10373000E803892F8E7F90FF81604ECF9091E9033F
:10374000892F877F93FF88604DCF81E0E4CFB0E081
:10375000A0E0EDEAFBE10C946829E82FF0E0E85BDB
:10376000FD4FB490282F26952695269530E0F90137
:10377000E851FD4F0491877010E0082E02C01595A6
:1037800007950A94E2F701701127F901E852FD4FFD
:10379000E490F12C082E02C0F594E7940A94E2F725
:1037A00091E0E922FF24F901E853FD4FC491D0E0F4
:1037B00002C0D595C7958A95E2F7C170DD27C62E60
:1037C000D12C0115110549F5E114F10431F086EE13
:1037D0000E944006C601009771F5B6018B2D0E942C
:1037E000A306C601009779F5E114F104A1F50115CE
:1037F000110531F081EE0E947D06C6010097C9F5E2
:10380000CD2B31F08CE20E94B906C114D104C9F568
:10381000CDB7DEB7E9E00C94842981EE0E94400622
:10382000C601009789F2EFE9FFE03197F1F700C098
:1038300000000197F6CFEFE9FFE03197F1F700C004
:1038400000000197C8CFEFE9FFE03197F1F700C022
:1038500000000197C7CF86EE0E947D06C601009743
:1038600031F2EFE9FFE03197F1F700C00000019776
:10387000F6CFEFE9FFE03197F1F700C000000197C4
:10388000BDCF8FE99FE00197F1F700C0000091E004
:10389000C91AD108BACFEF92FF920F931F93CF931B
:1038A000DF93EC01162F0AE08881882309F458C0C1
:1038B000813009F052C08981813071F47E0182E04B
:1038C000E80EF11C8A810E94B906E701812F90E081
:1038D0000097D9F52196E8CF823041F47E01E2E0ED
:1038E000EE0EF11C8A810E944006EFCF833041F436
:1038F0007E01F2E0EF0EF11C8A810E947D06E5CF89
:10390000843011F02196E2CF2A81229690E080E067
:10391000AE014F5F5F4F2053330B2A30310550F01B
:103920000097A1F2EFE9FFE03197F1F700C0000046
:103930000197F6CF089FB001099F700D1124C901AE
:10394000860F971F2981EA01E3CFEFE9FFE0319766
:10395000F1F700C000000197BBCF612FF8DEBACFAE
:10396000CDB7DEB7E6E00C94872960E094CF0F93E3
:103970001F93CF93DF93C42FD22FFC01858188231F
:10398000C1F04093D303F9D39093D2038093D10332
:1039900080E28C0F883040F4C77081E001C0880F4E
:1039A000CA95EAF70E94C006DF91CF911F910F914F
:1039B00008951091D303141335C08091D1039091D1
:1039C000D203F3D320919C0130919D01821793077C
:1039D00048F5C0E2CD0F1D17B9F080E2810F8830A5
:1039E00040F4177081E001C0880F1A95EAF70E9431
:1039F000C506C83048F481E09D2F977001C0880F3C
:103A00009A95EAF70E94C006802F0E94B906C83036
:103A100058F6D77081E001C0880FDA95EAF70E9466
:103A2000C506C2CF80E28C0F883008F0BDCFC770CA
:103A300081E001C0880FCA95EAF7F1CF0F93DB014F
:103A400088519C478730910598F5FC01EA5DF54D5A
:103A50000C94592906E221EE41EE6AE17CE7CD01A2
:103A600086DF80E00F91089507E225EE45EE6BE1D9
:103A70007CE7F5CF06E221EE40EE68E17CE7EFCF90
:103A800007E225EE44EE69E17CE7E9CF06E221EEAC
:103A900042EE6CE17CE7E3CF07E225EE46EE6DE116
:103AA0007CE7DDCF08E221E045EE6EE17CE7D7CF91
:103AB00015968C91882319F01092D303D3CF81E00F
:103AC000D1CF1092D30308954115510511F0FA0199
:103AD00009950895CF93DF93EC014A855B856E8548
:103AE0007F85F2DF8B810E94AF0D8C810E949C0D3F
:103AF0000E94440E86E0FE0111928A95E9F7DF915B
:103B0000CF910895CF93DF93EC018D8181FD10C09B
:103B100082608D838B810E94A90D8C810E94960DFD
:103B20000E94440E488559856E857F85CE01CCDF85
:103B30001092D7031092D6038D8180FD02C0CE0172
:103B4000C9DFDF91CF910895CF93DF93EC018A8194
:103B5000823041F4FB01828193810E9402048D81B5
:103B600082608D83DF91CF910895FB0180819181E7
:103B70000C940204FC018281813031F4FB018081CC
:103B800091810C94160408958230E9F7FB0182813B
:103B90009381F7CF0F931F93CF938C01FB01C581C6
:103BA000CC23A9F08091D6039091D7030097A1F080
:103BB0008017910789F099270E94C603FC0125818F
:103BC00024602583118300839DDF0E94B60D8C2F16
:103BD000CF911F910F910895C0E0F9CFEF92FF921E
:103BE0000F931F93CF93DF937C018B0197558F3FEA
:103BF000910519F010F011E036C00E94B50397014D
:103C000033272817390708F04CC0C9010E94C603A2
:103C1000EC01F80115818D8110FB80F98D83112352
:103C200041F1ABD29093D5038093D4038A818F5F07
:103C30008A830E94930D8B830E94A60D9B81892B02
:103C40008B830E94B90D8C834E815F816E857F8549
:103C5000CE013ADF8D8181FF02C0F12CE12CF09280
:103C6000D703E092D603812FCDB7DEB7E6E00C9400
:103C700087294C855D856E857F85CE0125DF8D8109
:103C800081FFB9CFCE0126DF8091D6039091D70373
:103C90008E159F0509F0AFCF1092D7031092D6036F
:103CA000AACF10E0E0CF8091D6039091D703892B63
:103CB000B9F08091D4039091D50377D220919C01E3
:103CC00030919D012817390758F48091D6039091BF
:103CD000D70399270E94C603FC01258122FF12CF3A
:103CE00008959093DE038093DD0308950E941914D4
:103CF000811103C08091D8030895E091DD03F09114
:103D0000DE03309729F00190F081E02D09950895A8
:103D100080E00895E091DD03F091DE03309721F01B
:103D20000280F381E02D09950895E091DD03F09183
:103D3000DE03309739F026E0DC012C930480F58116
:103D4000E02D09950895A3E0B0E0E9EAFEE10C94C6
:103D50006F292091DB033091DC0328173907A1F08C
:103D60009093DC038093DB03E091DD03F091DE03AD
:103D7000309751F023E029839B838A830084F18567
:103D8000E02DCE01019609952396E2E00C948B2953
:103D9000A3E0B0E0EEECFEE10C946F292091D90392
:103DA0003091DA0328173907A1F09093DA03809352
:103DB000D903E091DD03F091DE03309751F024E068
:103DC00029839B838A830084F185E02DCE010196AF
:103DD00009952396E2E00C948B29CF93DF93C09151
:103DE000A001D091A101229629D1813081F4809146
:103DF000E80387FF0CC0C0919E01D0919F012296DD
:103E00009EE180E0915028F4DF91CF91089596E0F3
:103E1000F8CF29912223B1F38F5FF4CFCF93C82F2E
:103E2000811102C080E023C009D1813011F5809159
:103E3000E80387FF1EC0EC2FE695E695E695EE3188
:103E400088F780919E0190919F01E80FF92FF11D55
:103E5000228130E0C77081E090E002C0880F991F96
:103E6000CA95E2F72823392381E0232BD9F2CF9199
:103E700008958091A0019091A101FC0132960896CD
:103E800021912C1721F0E817F907D1F7CBCF81E06A
:103E9000EECF9C01FC0132969FEF80E041914617E6
:103EA00051F09F3F19F4411101C0982F8F5F863068
:103EB000A9F79F3F09F40895290F311D97FD3A9501
:103EC000F90162830895FC01329608962191261328
:103ED00003C0DF0111971C92E817F907B9F708959D
:103EE000E62FE695E695E695EE3168F4E80FF92FB2
:103EF000F11D677021E030E001C0220F6A95EAF7FA
:103F00008281822B82830895E62FE695E695E695D9
:103F1000EE3170F4E80FF92FF11D677021E030E009
:103F200001C0220F6A95EAF7209582812823228317
:103F30000895CF93C82F82D06C2F813059F480918F
:103F4000E80387FF07C080919E0190919F01C8DF21
:103F5000CF9108958091A0019091A1019ADFF8CFAF
:103F6000CF93C82F6BD06C2F813059F48091E80328
:103F700087FF07C080919E0190919F01C5DFCF917F
:103F800008958091A0019091A1019DDFF8CF56D0B6
:103F9000813079F48091E80387FF0BC0E0919E01A6
:103FA000F0919F0132968EE1DF011D928A95E9F72B
:103FB0000895E091A001F091A101329686E0F4CF3E
:103FC0000895FECF089581110CC081E08093BF0158
:103FD0006091BC017091BD018091BE019091BF01C3
:103FE000F0CF82E0F3CF83E08093BF016091BC010A
:103FF0007091BD018091BE019091BF01E2CFE3CFEE
:10400000089581E08093BF016091BC017091BD0172
:104010008091BE019091BF01D4CFF3CF089591E07C
:10402000811101C090E09093BE016091BC0170913C
:10403000BD018091BE019091BF01C3CF8091BE01AF
:1040400008958093BD016091BC017091BD01809184
:10405000BE019091BF01B5CF8091BD0108958093BD
:10406000BC016091BC017091BD018091BE01909135
:10407000BF01A7CF8091BC01089508950895FECF98
:10408000089508950895F9CF0895CF93FADF0E9417
:104090009613F8DFC0E08C2F0E947B12811105C0BF
:1040A000CF5FC830C1F7CF91089581E0FCCF85B7CD
:1040B000806885BF85B7806885BF08951F921FB649
:1040C0001F9211248F939F93AF93BF938091DF032F
:1040D000811113C08091000490910104A091020409
:1040E000B09103044196A11DB11D809300049093EB
:1040F0000104A0930204B0930304BF91AF919F9178
:104100008F911F901FBE1F901895809108048430D6
:1041100031F10E9435051092DF0388E190E020E440
:104120000FB6F894A895809360000FBE20936000AE
:1041300083B7817F846083BF83B7816083BF7894B6
:10414000889583B78E7F83BF0FB6F894A89580912A
:104150006000886180936000109260000FBE089537
:104160000E94D8080C94380582E084BD93E095BD88
:104170009AEF97BD80936E0008952FB7F8948091C1
:10418000000490910104A0910204B09103042FBF98
:1041900008952FB7F8946091000470910104809104
:1041A0000204909103042FBF08959C014FB7F89427
:1041B0008091000490910104A0910204B091030445
:1041C0004FBF821B930B0895CF92DF92EF92FF9225
:1041D0002FB7F894C0900004D0900104E09002043E
:1041E000F09003042FBFA7019601261B370B480B45
:1041F000590BCA01B901FF90EF90DF90CF9008955D
:1042000078941F921FB61F9211248F939F93AF93A0
:10421000BF938091000490910104A0910204B09199
:1042200003040196A11DB11D809300049093010425
:10423000A0930204B0930304BF91AF919F918F911B
:104240001F901FBE1F90189587E797E7909301086E
:104250008093000888E19AE00FB6F894A8958093BF
:1042600060000FBE90936000FFCF88E19AE00FB628
:10427000F894A895809360000FBE90936000FFCFE4
:104280008EE14A9B02C08150E1F74A9BFECF089520
:104290005A9880E28A95F1F75A9A0895FC013BE01A
:1042A0003A95F1F798E020E080E031E040E14A956E
:1042B000F1F7880F4A9B02C08160232742E04A95AC
:1042C000F1F7000040E14A95F1F7915079F790E15C
:1042D0009A95F1F799B132E03A95F1F7000040E193
:1042E0004A95F1F792FB992790F992272081920F36
:1042F00090830895A1E0B0E0EFE7F1E2ECC7198206
:104300008C017C01E60EF11C0E151F0539F481E0CD
:104310009981911180E02196E6E0F9C7B1DFCE01E5
:104320000196BCDFF80181938F01EECF529A5A9A21
:10433000089552985A9AEA9AE9E6F0E080818F7CD3
:10434000808308956150770B91E001C0990F6A95C1
:10435000EAF720E031E0911108C0222391F05A9A47
:1043600080E28A95F1F75A980895492F482339F049
:104370005A9A232740E24A95F1F79695ECCF5A983E
:10438000F9CF5A98EDCFFF920F931F93CF93DF93FE
:10439000EC018C01060F111DC017D10721F4CDB718
:1043A000DEB7E5E0B5C7F99073DF68E08F2DCADFAF
:1043B000F3CF1F920F920FB60F9211240F931F93FA
:1043C0002F933F934F935F936F937F938F939F931D
:1043D000AF93BF93EF93FF93CF93DF930F92CDB73C
:1043E000DEB719824DDFCE01019658DF082F069502
:1043F00006950695282F22952570902F9570290FE8
:10440000922F937026952695920F98279770898101
:10441000982B09F058C0043008F055C080E18A9507
:10442000F1F75A9A529A82E08A95F1F700C05A98A9
:1044300088E0089F80011124D801AD55BE4F169623
:10444000ED91FC9117973097A9F06091450270911A
:10445000460214962D913C911597260F371F119601
:104460008D919C911297680F791F13964C91139719
:104470008C910995F801ED55FE4F6381662349F053
:10448000209145023091460284819581820F931FCD
:104490007ADFFEDE80E18A95F1F75A9852985A9AAF
:1044A00080E18A95F1F7F801ED55FE4F60816623B2
:1044B00049F0209145023091460281819281820F1C
:1044C000931F18DFDDDE0F90DF91CF91FF91EF9109
:1044D000BF91AF919F918F917F916F915F914F911C
:1044E0003F912F911F910F910F900FBE0F901F9032
:1044F00018950F931F93CF93DF93EC0104970CF063
:1045000049C0F894529A5A9885E08A95F1F70000CC
:104510009C2F969595708C2F8570980F892F83709E
:104520009695969523E0CC0FDD1F2A95E1F7980F1D
:104530008E01092BADDE00C068E0802F03DF80E133
:104540008A95F1F752985A9A4A9B1DC087E090E0ED
:104550004A991BC0FE01ED55FE4F63816623F1F0C1
:10456000209145023091460284819581820F931FEC
:10457000C1DE811113C0529A5A9A7894DF91CF917B
:104580001F910F91089500C0DFCF019729F4529A2F
:104590005A9A789480E0F2CF00C0DACF71DE80E2E0
:1045A0008A95F1F75A98529A80E18A95F1F7CD559C
:1045B000DE4F6881662349F0209145023091460222
:1045C00089819A81820F931FDEDE62DE789481E01A
:1045D000D5CF08959B01BA01909108049430E1F47D
:1045E0008F708093E9009FEF8091E800915085FDE6
:1045F00006C085ED8A95F1F700009111F5CF809105
:10460000E80085FF09C050E040E0C901B5D18091C4
:10461000E8008E778093E800089543E050E0BC0105
:1046200082E0D8CF40E250E0BC0182E0D3CFCF930C
:10463000DF93EC0103DD48E050E0BE0181E0CADF1A
:1046400088E0FE01A0EEB3E001900D928A95E1F7BB
:10465000DF91CF91089580910704811107C01AD38B
:1046600071D38091E20084608093E20008951092FB
:1046700007040895C6DC81E0D2CC6091040481E097
:10468000611101C080E0AFCC9091080481E09430CA
:1046900009F080E060910404B2CC42E061EC81E07A
:1046A00075D242E261EC82E071D29091080481E01F
:1046B000943009F080E06091040485CC80910A0474
:1046C000833009F45EC030F48130C1F1823009F4E6
:1046D00094C008958A3009F483C08B3009F46BC00C
:1046E000893009F04DC080910904813209F048C039
:1046F00080910D0490910E04029708F041C08091C2
:10470000E800877F8093E8008091E80082FF34C052
:104710009091F3008091F200029731F48091F100C2
:10472000813011F0863019F48091F1008ADC80919B
:10473000E8008B778093E8005DD222C08091090465
:10474000813AF1F48091E800877F8093E8008091BE
:104750000D0490910E04892B59F468E080EE93E0EB
:1047600070E057D18091E8008B778093E80008953E
:1047700060E090E080E0F4CF809108048111C4CF24
:10478000089580910904813AD9F780910D049091A0
:104790000E04892BA9F78091E800877F8093E800B9
:1047A0008091E80080FFFCCF49DC8093F10080918C
:1047B000E8008E77BFCF80910904813209F780919C
:1047C0000D0490910E04892BD9F68091E800877F23
:1047D0008093E8000FD280910B0421DC0C94D80860
:1047E00080910904813261F68091E800877F80938F
:1047F000E80000D280910C0432CC80910904813A07
:1048000009F0BECF8091E800877F8093E800809117
:10481000E80080FFFCCF2EDCC8CF84B7877F84BF41
:104820000FB6F894A895809160008861809360002D
:10483000109260000FBE80E890E00FB6F89480936D
:104840006100909361000FBEE8CB24D27BD2E2EEF0
:10485000F0E08081846080837894DEC480EC91E015
:1048600040CA80910804853029F48091080485307D
:1048700011F076CC089549DC08DC8823B1F38091EF
:104880000604882391F362D00E94D808EECF0895E1
:104890009A0140910F045091100400C0492F5527F0
:1048A0004330510519F168F44130510509F444C011
:1048B0004230510509F445C090E080E050E040E00E
:1048C00025C04132510549F142325105A9F784E42E
:1048D00090E04EED53E061157105C1F08DE690E07A
:1048E00041E753E06130710589F0E6CF99278130C7
:1048F000910581F0009729F00297F1F6E8EFF2E0D8
:1049000002C0E0E2F3E0849190E0AF01F90151834D
:1049100040830895E4E1F3E0F6CF89E090E046E3D8
:1049200053E06115710591F389E090E04FE453E0A5
:104930006130710559F3C0CF82E190E04FE553E05B
:10494000E5CF8BE390E044E253E0E0CF80E189BD26
:1049500082E189BD09B400FEFDCF8091D8008F7D32
:104960008093D8008091E00082608093E000809185
:10497000E00081FDFCCF0895AF92BF92CF92DF920D
:10498000FF920F931F93CF93DF936C01EB018A018A
:1049900050D1F82E811123C00115110539F0F8010D
:1049A00080819181C81BD90BC80ED91EB12CA12CB6
:1049B0002097A9F08091E80085FD21C08091E80052
:1049C0008E778093E80001151105A1F0F801808130
:1049D0009181A80EB91EB182A08285E0F82E8F2D9C
:1049E000DF91CF911F910F91FF90DF90CF90BF90FB
:1049F000AF9008951ED18823D9F2F82EF0CFF6019A
:104A000081916F018093F1002197FFEFAF1ABF0AE8
:104A1000CFCFFC0180910F04909110048617970767
:104A2000A0F06115710529F49091E8009E779093AC
:104A3000E80090E06115710551F4911108C0809172
:104A4000E80082FF34C080E00895BC01F2CF80917D
:104A500008048823C1F18530C1F18091E80083FD0D
:104A600030C08091E80082FDEACF8091E80080FFAD
:104A7000E1CF8091F3002091F200382F611571058C
:104A800019F02830310558F091E02830310509F04F
:104A900090E02091E8002E772093E800CBCF819121
:104AA0008093F100615071092F5F3F4FE7CF8091F4
:104AB0000804882341F0853041F08091E80083FFAD
:104AC000BECF81E0089582E0089583E00895FC015F
:104AD00080910F049091100486179707A0F061153C
:104AE000710529F48091E8008E778093E80090E0CA
:104AF0006115710551F4911108C08091E80082FFA1
:104B000035C080E00895BC01F2CF8091080488236D
:104B1000C9F18530C9F18091E80083FD31C08091F1
:104B2000E80082FDEACF8091E80080FFE1CF80912C
:104B3000F3002091F200382F6115710519F028302B
:104B4000310558F091E02830310509F090E080916E
:104B5000E8008E778093E800CBCF84918093F100BA
:104B60003196615071092F5F3F4FE6CF8091080465
:104B7000882341F0853041F08091E80083FFBDCF6C
:104B800081E0089582E0089583E00895982F97309A
:104B900028F08F708093E90081E008959093E900F8
:104BA000242F762F50E0981731F07091EC0020916F
:104BB000ED005091F00021FD02C09F5FE8CF3091E1
:104BC000EB003E7F3093EB003091ED003D7F309362
:104BD000ED003091EB0031603093EB007093EC000E
:104BE0002093ED005093F0002091EE0027FDE5CFDB
:104BF00080E008958091090487FF13C08091E80048
:104C000082FF06C08091E8008B778093E80004C0A3
:104C1000809108048111F2CF0895809108048823BF
:104C2000D9F38091E80080FFF8CF8091E8008E777B
:104C3000ECCF2091E4003091E50095E6A9012091A8
:104C4000EC00822F817020FF06C08091E80080FF79
:104C500006C080E008952091E80022FD1AC08091EE
:104C60000804882389F0853089F08091EB0085FD68
:104C70000FC02091E4003091E50042175307F9F28C
:104C80009150E1F684E0089582E0089583E008956C
:104C900081E0089567D06ED0E0EEF0E08081816021
:104CA0008083E8EDF0E080818F77808319BCA7EDE9
:104CB000B0E08C918E7F8C9380818F7E8083109268
:104CC000070408950F931F93CF93DF934BD052D0D7
:104CD000C8EDD0E088818F77888388818068888359
:104CE00088818F7D888319BC109208041092040477
:104CF000109206041092050400EE10E0F801808185
:104D00008B7F808388818160888342E060E080E0DF
:104D10003DDFE1EEF0E080818E7F8083E2EEF0E027
:104D2000808181608083808188608083F8018081B8
:104D30008E7F8083888180618883DF91CF911F91EE
:104D40000F910895E8EDF0E080818F7E8083E7ED9C
:104D5000F0E080818160808384E082BF81E0809385
:104D60000704B0CFE8EDF0E080818E7F8083109261
:104D7000E20008951092DA001092E10008951F9267
:104D80000F920FB60F9211242F933F934F935F937F
:104D90006F937F938F939F93AF93BF93EF93FF9303
:104DA0008091E10082FF0AC08091E20082FF06C08C
:104DB0008091E1008B7F8093E1002DD28091DA0019
:104DC00080FF18C08091D80080FF14C08091DA0065
:104DD0008E7F8093DA008091D90080FF91C080E1BE
:104DE00089BD82E189BD09B400FEFDCF81E08093D9
:104DF000080431DC8091E10080FF18C08091E2005E
:104E000080FF14C08091E2008E7F8093E200809149
:104E1000E20080618093E2008091D80080628093FC
:104E2000D80019BC85E08093080427DC8091E1005C
:104E300084FF2AC08091E20084FF26C080E189BD02
:104E400082E189BD89B5982F917080FFFBCF809159
:104E5000D8008F7D8093D8008091E1008F7E809371
:104E6000E1008091E2008F7E8093E2008091E20079
:104E700081608093E20080910404882309F445C096
:104E800084E08093080400DC8091E10083FF27C068
:104E90008091E20083FF23C08091E100877F8093AF
:104EA000E10082E080930804109204048091E10004
:104EB0008E7F8093E1008091E2008E7F8093E200FC
:104EC0008091E20080618093E20042E060E080E057
:104ED0005DDE8091F00088608093F000CBDBFF9175
:104EE000EF91BF91AF919F918F917F916F915F9162
:104EF0004F913F912F910F900FBE0F901F901895DB
:104F000019BC10920804B3DB75CF8091E30087FDD4
:104F100093E090930804B7CF1F920F920FB60F92B1
:104F200011242F933F934F935F936F937F938F93AE
:104F30009F93AF93BF93CF93DF93EF93FF93D09162
:104F4000E900DF708091EC00C82FC17080FDC0E8DF
:104F50001092E9008091F000877F8093F0007894B0
:104F60001ED01092E9008091F00088608093F000DC
:104F7000CD2BCF70C093E900FF91EF91DF91CF91DE
:104F8000BF91AF919F918F917F916F915F914F9161
:104F90003F912F910F900FBE0F901F901895AAE28E
:104FA000B0E0E4EDF7E29AC189E094E02091F100ED
:104FB000FC012193CF01F4E081319F07B9F77EDB3B
:104FC0008091E80083FF16C18091090490910A0442
:104FD0009A3008F00FC1E92FF0E0E35DF54D69C1AB
:104FE000803899F0823809F005C180910D048F70E6
:104FF000873008F0FFC08093E9008091EB0085FBCB
:10500000882780F91092E90006C0809105049091EC
:105010000604911182609091E800977F9093E800D8
:105020008093F1001092F1008091E8008E77DFC04C
:10503000882309F4CDC0823009F0DCC080910B04D4
:105040008111D0C080910D048F702FEF280F263072
:1050500008F0D0C08093E9002091EB0020FFC2C08F
:10506000933031F48091EB0080628093EB00BAC002
:105070009091EB0090619093EB0021E030E001C053
:10508000220F8A95EAF72093EA001092EA008091B5
:10509000EB008860EACF8111ADC010910B041F773F
:1050A0008091E3008078812B8093E3008091E80079
:1050B000877F8093E8009EDD8091E80080FFFCCF31
:1050C0008091E30080688093E30082E0111183E027
:1050D000809308048FC08058823008F08BC0809184
:1050E0000B0490910C048C3D23E0920799F583E02A
:1050F0008A838AE289834FB7F894DE01139620E011
:105100003EE051E2E32FF0E050935700E49120FF9E
:1051100003C0E295EF703F5FEF708E2F90E0EA30B2
:10512000B8F0C7968D939D932F5F243159F74FBFE9
:105130008091E800877F8093E8006AE270E0CE010A
:10514000019667DC8091E8008B778093E80052C07D
:10515000C096E8CF60910D0470910E04AE014F5FD0
:105160005F4F96DBBC01892B09F444C09091E800A5
:10517000977F9093E80089819A81A9DCE3CF8038FA
:10518000C9F58091E800877F8093E800809104044E
:105190008093F10049CF81112DC090910B04923082
:1051A00048F58091E800877F8093E800909304049D
:1051B00021DD80910404882311F084E005C08091F2
:1051C000E30087FDFACF81E08093080466DA12C01D
:1051D00080910B04813071F481E0933009F080E01C
:1051E000809306041092E9008091E800877F809305
:1051F000E80000DD8091E80083FF0AC08091E800AC
:10520000877F8093E8008091EB0080628093EB00C1
:10521000AA96E3E07FC00895CF9380910804882385
:1052200099F0C091E900CF709091EC00892F8170C6
:1052300090FD80E8C82B1092E9008091E80083FD82
:10524000AEDECF70C093E900CF91089523DD1092B8
:1052500008040895E8EDF0E08081806180838AE1B0
:105260008A95F1F700C08091D90081700895A1E27C
:105270001A2EAA1BBB1BFD010DC0AA1FBB1FEE1FD0
:10528000FF1FA217B307E407F50720F0A21BB30B1B
:10529000E40BF50B661F771F881F991F1A9469F797
:1052A00060957095809590959B01AC01BD01CF01F3
:1052B0000895EE0FFF1F0590F491E02D09942F92B1
:1052C0003F924F925F926F927F928F929F92AF9296
:1052D000BF92CF92DF92EF92FF920F931F93CF93E3
:1052E000DF93CDB7DEB7CA1BDB0B0FB6F894DEBF7A
:1052F0000FBECDBF09942A88398848885F846E84A0
:105300007D848C849B84AA84B984C884DF80EE80E9
:10531000FD800C811B81AA81B981CE0FD11D0FB6F2
:10532000F894DEBF0FBECDBFED010895FB01DC0197
:1053300004C08D910190801921F441505040C8F76C
:10534000881B990B0895FB01DC0102C001900D92AE
:1053500041505040D8F70895F999FECF92BD81BDD4
:10536000F89A992780B50895A8E1B0E042E050E0AE
:105370002FC0DC01A40FB51F4150504040F0CB01BD
:10538000840F951F2E9105D041505040D8F70895B5
:10539000262FF999FECF92BD81BDF89A019700B4EE
:1053A000021639F01FBA20BD0FB6F894FA9AF99A8E
:1053B0000FBE08950396272FECDFEADF252FE9DFE4
:1053C000242FE7CF0196272FE4DFE2CFDC01CB01CA
:1053D000FC01F999FECF06C0F2BDE1BDF89A319605
:1053E00000B40D9241505040B8F70895F894FFCFA3
:1053F000080708074A074A07A3073007300730079E
:10540000BF07280834083408231B971B2B1BF51AE9
:10541000F91A2F1BFD1A331B3F1B091B901B0D1B79
:10542000431B111B471B6F1B151B4B1B761B1B1BA9
:10543000511B591B011B371B051B3B1B1F1B551BFE
:10544000651B7F1B8E1BEF1A271B9E1B3A1D401DE1
:105450002A1D341D461D4C1D521DF0271828FA2800
:0E5460001828FA284B286B28FA28BF28CB28DA
:10546E004202737C0000003C02737C0000000000CE
:10547E0000000000A41DB51DBA1D0000960100001D
:10548E0000000000A41DB51DBA1D00009201000011
:10549E0000000000A41DB51DBA1D00008E01000005
:1054AE0000000000A41DB51DBA1D00008A010000F9
:1054BE0000000000A41DB51DBA1D000086010000ED
:1054CE0000000000A41DB51DBA1D000082010000E1
:1054DE0000000000A41DB51DBA1D00007E0138009D
:1054EE0031003600300010002F0013003400380059
:1054FE0038022E022E0035023500FF00AA00F602F9
:10550E00160301000000010000000000000004016D
:10551E000000000405000000000000010000010072
:10552E002C2017231223E9220D23E200E900EA00C2
:10553E00B500B600B700CD008301CC008A01920100
:10554E0094012102230224022502260227022A02A6
:10555E00B300B4006F0070009F01CB019F02A00248
:10556E00818283E200E900EA00B500B600B700CD03
:10557E00008301CC008A01920194012102230224AE
:10558E00022502260227022A02B300B4006F007021
:10559E00009F01CB019F02A00281828331F7F6F5B5
:0855AE00F4946697C63C03006B
:00000001FF
