:1000000010C200002BC2000029C200000C94852100
:1000100025C2000023C2000021C200001FC2000050
:100020001DC200001BC200000C946B260C943827E4
:100030000C940A2013C2000011C200000FC200007D
:100040000DC200000BC2000009C2000007C2000080
:1000500005C200000C94AC2001C20000FFC10000EA
:10006000FDC10000FBC10000F9C10000F7C10000A4
:10007000F5C10000F3C10000F1C10000EFC10000B4
:10008000EDC10000EBC10000E9C10000E7C10000C4
:10009000E5C10000E3C10000E1C10000DFC10000D4
:1000A000DDC10000DBC10000D9C100000A00090069
:1000B0001800130036001200042408220C281C002B
:1000C00014001B001D003700340000000000000079
:1000D00029422C210F000B0010000600050015001E
:1000E00011341732163807000D000E0019001A00DF
:1000F00033000000000000002A43283114001A00D9
:1001000008001500170004001600072209000A0065
:100110001D001B0006001900050000000000000083
:1001200029422C00035712000C0018001C00330059
:100130000F000E320D000B0006573700055704570D
:1001400011000000000000002A432800417E427E8A
:10015000437E447E2A082B022B00E100E3002A04A0
:10016000457E467E477E487E4C040000000000002D
:10017000000000004F12521251125012501A4F003C
:1001800052005100500050184F1452145114501482
:100190005016000000000000407E2C0F1E021F02BF
:1001A00020022102220259005A005B005C005D001F
:1001B0002F02300201572E000057000000000000FF
:1001C0002D02045238022502310224020257620035
:1001D000610060005F005E002702260230002F00F1
:1001E000380000000000000000000000497E000010
:1001F000220A210A210B00000000470048000608DF
:100200005000510052004F0019080000000000008B
:100210004A7E2C0000000000A800AE002900BB00B0
:10022000A900AA00BC002A004F0052005100500053
:1002300000000000000000004A7E280007220E3265
:10024000000008221732000000000000000000003B
:100250002A2B280000000000000000000000000021
:1002600000000029000000002C1E3420212224342C
:100270002627252E362D3738271E1F2021222324FE
:1002800025263333362E37381F0405060708090A9A
:100290000B0C0D0E0F101112131415161718191A36
:1002A0001B1C1D2F3130232D350405060708090AB4
:1002B0000B0C0D0E0F101112131415161718191A16
:1002C0001B1C1D2F3130354C0000000000000000C9
:1002D000000000000000000000000000000000001E
:1002E0000000000000000000000000007E0F00D4AD
:1002F000FFFFFFC7000000781A03430068006F008B
:1003000063006F006C006100640020005200470031
:10031000420000000A036A006D006E0077000000D2
:100320000403090409023B00020100A0FA090400C9
:10033000000103010100092111010001224400070D
:100340000581030800010904010001030000000900
:100350002111010001226D00070582032000011216
:1003600001000200000008041850300100010200E2
:100370000105010980A101850319012AB7001501B2
:1003800026B700950175108100C0050C0901A10177
:10039000850419012AA002150126A00295017510F5
:1003A0008100C005010906A1018506050719E0299C
:1003B000E715002501950875018102050719002937
:1003C000EF1500250195F075018102050819012935
:1003D00005950575019102950175039101C005010F
:1003E0000906A101050719E029E71500250195086F
:1003F000750181029501750881010507190029FF22
:10040000150026FF009506750881000508190129C9
:10041000051500250195057501910295017503915A
:1004200001C011241FBECFEFDAE0DEBFCDBF12E066
:10043000A0E0B1E0E6ECF3E502C005900D92A8342F
:10044000B107D9F724E0A8E4B2E001C01D92AC30B6
:10045000B207E1F70E94A2150C94A229D1CD809198
:100460004D02882321F010924D028AEA3AD48091FD
:100470004C02882321F010924C0288E832C408957F
:10048000CF93FB01C581CC2309F4AAC021E02093BE
:100490004B0220934A028434FEE79F0709F479C097
:1004A000E0F48034EEE79E0709F44AC058F489323C
:1004B00022E4920709F44EC08A32934409F45DC0E5
:1004C000C1E04AC08234FEE79F0709F45EC008F429
:1004D00057C083E301D48BE256C08734EEE79E0712
:1004E00009F470C0E0F485342EE7920709F453C094
:1004F00086349E4729F7C0914C02C11160C080919B
:100500004D02882321F010924D020E944F0D88E881
:10051000E3D38BE2DAD381E080934C021DC08934AF
:10052000FEE79F0709F456C008F450C08A349E477E
:1005300039F684E06CD6882359F084E086D608C06A
:1005400083E090E03CD68FEFC7D38CE245D3DCD577
:10055000C0E002C010924B028C2FCF9108957FDF34
:1005600080914B02882309F4ABCF82E050D68823D8
:1005700009F4A6CF82E069D6EFCF10924A02ECCF01
:1005800088E8AAD38FE228D3E3CF88E8A5D380E315
:10059000FACF81E19FCFC0914D02C11110C080916F
:1005A0004C02882321F010924C020E944F0D8AEADF
:1005B00093D38BE28AD381E080934D02CDCF8BE23F
:1005C00084D3C6CF81E188D380E5DDCF81E184D3B8
:1005D0008FE4D9CF8CEC80D38CE0D5CF95D5BCCF30
:1005E0008434FEE79F0709F4B2CFE8F48034EEE7E5
:1005F0009E0709F4ADCF08F0AACF893222E4920712
:1006000009F4ADCF8A32934409F05ACF28DF8091A4
:100610004A02882309F454CF83E0F9D5882309F4EA
:100620004FCF83E0A8CF8734FEE79F0709F48FCF31
:1006300050F48534EEE79E0709F48ACF86349E474E
:1006400009F486CF3DCF89342EE7920739F208F4BA
:100650007ECF8A349E4709F46CCF32CF8530B8F410
:100660006830A8F4453098F450E095E0699F400D5B
:10067000511D1124FA0198E2899FE00DF11D11240A
:10068000EE0FFF1FE455FF4F85919491089581E08F
:1006900090E00895E3CF089582E090E008958230DD
:1006A000910550F447E0489F9001499F300D112477
:1006B000C90180509F4F089590E080E00895EFCFEA
:1006C000089587E090E008958730910540F424E094
:1006D000880F991F2A95E1F7825F9E4F089590E059
:1006E00080E00895F1CF08959C013A9521153F418E
:1006F00050F5FC01EE27F170BC0166277270AC0169
:10070000442754709C012227387094FF0EC080E16A
:10071000EF2B09F480E0672B09F08062452B09F08C
:100720008064232B89F08068089581E0EF2B09F421
:1007300080E0672B09F08260452B09F08460232B51
:1007400019F08860089580E00895CF93DF93EB015E
:10075000CBDFFE010995DF91CF910895CF93DF9311
:10076000EC01805E9109089720F06DE678E0209713
:1007700011F46CE676E0CE01E8DF8C2F2DD2DF910C
:10078000CF910895CF93DF93EC0163D2CE01805EC9
:100790009109089720F062E778E0209711F461E76B
:1007A00076E0CE01D2DFDF91CF91089581E0089508
:1007B000FDCF089581E0089563CE08950895FECF9A
:1007C0000895A6E0B0E0E7EEF3E00C941A2949831F
:1007D0005A839E8330915A0289819A81311117C0C0
:1007E0003E81332389F0222379F0D8D5182F682F42
:1007F00089819A81B2D569817A81812F0E94D11035
:100800002696E3E00C943629B9D5182FF4CFC6D537
:1008100069817A81F3CFFC01262F8781908500972B
:1008200039F4408151816281738184819581C9CF7E
:100830000895CF93DF93EC0161E0EDDFBE01B8DFF7
:10084000882351F061E0CE01E6DFBE010E94581816
:100850008170DF91CF91089580E0FACFCF93DF933D
:10086000EC0160E0D8DFBE01AADFDF91CF910895EF
:1008700021E030E0A90102C0440F551F8A95E2F73C
:10088000CA018DC4CF93C82F81E090E00C2E02C026
:10089000880F991F0A94E2F70E94630E8C2FE8DFFD
:1008A000CF91089581E00895FDCF0895CF93C82F8B
:1008B0002BD48C2FF9DF2FEF84E39CE02150804074
:1008C0009040E1F700C00000CF91089581E0EEDF95
:1008D0000C94D02080E0EADF0C94E1200F931F936A
:1008E000CF93DF938C0161E096DFEC01B8010E94A9
:1008F000761D882321F061E0C8018DDFEC01B8018D
:10090000CE015ADF811106C080E0DF91CF911F91A7
:100910000F910895B801CE010E94EE158823A1F32E
:10092000B801CE010E949A1D882371F3B801CE014F
:100930000E941D1A882341F3B801CE010E94CA1CEF
:10094000882311F3B801CE010E94771A8823E1F2BF
:10095000B801CE010E944F1A8823B1F2B801CE012E
:100960000E940F12882381F2F8018581882361F0AB
:10097000C330FCE7DF07D9F050F4C115ECE7DE0720
:10098000A1F0C130DC47A9F0C80114DFBECFCB35E0
:100990008CE7D80799F0CC35ECE7DE0761F0CA3573
:1009A000DC4791F70E94440EEFCF90DFADCF0E945D
:1009B000480E90DFA9CF0E943C0EE6CF0E94460E63
:1009C000E3CF0E94EB1FB2C0B3D00C94EF1F2F9265
:1009D0003F924F925F926F927F928F929F92AF92CF
:1009E000BF92CF92DF92EF92FF920F93CF93DF935C
:1009F0001C0129013A016B0181E0C81AD108E1010B
:100A0000CC0DDD1D1882F12CE12C8AE0882E912C72
:100A1000A12CB12CEC14FD0498F0C101DF91CF9111
:100A20000F91FF90EF90DF90CF90BF90AF909F908D
:100A30008F907F906F905F904F903F902F90089590
:100A4000C301B201A50194010E94E328605D6033F7
:100A500019F4E114F10431F04114510461047104FA
:100A600009F4602F6A93C301B201A50194010E94A9
:100A7000E32829013A018FEFE81AF80ACBCF0F9348
:100A800020919A0130919B012817390721F4209178
:100A90005402261789F090939B0180939A016093EA
:100AA00054029C0150E040E0062F66E070E08EE4C6
:100AB00092E08DDF0F9108958EE492E0FBCF292F15
:100AC000332740E02115310511F0C90148E09C01B0
:100AD00064E0369527956A95E1F72115310511F007
:100AE0004C5FC9019C0136952795369527952115B0
:100AF000310511F04E5FC90196958795892B09F054
:100B00004F5F842F089581E008950895CF93DF9378
:100B1000D82FF9DFC82F882311F08D2FF6DF8C2F07
:100B2000DF91CF9108950895F1CF089580E0FCCF33
:100B30000E94221EF9CFCF930E94221EC82F8091BF
:100B400055028C1771F0C09355020E947520609376
:100B500056027093570280935802909359028C2F3B
:100B6000E3DFCF910895AFE0B0E0E9EBF5E00C945E
:100B700019294A875B876C877D878E879F879111AC
:100B8000A1D71F821886198686E0FE013A96DE01FB
:100B9000119601900D928A95E1F78D8181110EC019
:100BA00009811A812B813C814D815E816F8178851D
:100BB0008985CED62F96E4E00C943529CE01019696
:100BC00038DE8111EDCFF6CFFC012481213019F4FC
:100BD0008081918114C40895CF93C82F882389F010
:100BE0008CEF8C0F813A78F48C2F0E94BA1E8823E8
:100BF00021F08C2F0E945C1FF3D78C2F0E94451F81
:100C0000EFD7CF91089580E28C0F883040F4C77001
:100C100081E001C0880FCA95EAF734D7F1CFEBE540
:100C2000EC0FE33040F4F0E0E050FE4F808190E0C4
:100C30000E944F1EE6CFC85ACB3118F7EC2FF0E0D8
:100C4000EE0FFF1FE653FE4F808191810E94741EBC
:100C5000D8CF882319F19CEF980F913A18F40E948D
:100C60005C1FBEC790E2980F983048F4877091E0FF
:100C700001C0990F8A95EAF7892F0AD7F2CF9BE531
:100C8000980F933020F490E080E00C944F1E885A27
:100C90008B3120F490E080E00C94741E08951F9333
:100CA000CF93DF93182FEB0197DF209731F4812F3B
:100CB000D0DFDF91CF911F9108958FE99FE00197D9
:100CC000F1F700C000002197F0CF70E060E08933B9
:100CD00011F460E570E0E3CF882311F0D3D680C72C
:100CE0000895882311F0D4D67BC70895B0E0A0E022
:100CF000ECE7F6E00C9414296C01D62FC72FFC0109
:100D00001581068102950F70B3D6E82E8823E9F08D
:100D1000E12E1123D1F08C2F807F803461F080E2AE
:100D20008D0F8830F8F08C2F807E803221F4D23005
:100D3000C8F00023B9F08091E40382FF13C082E081
:100D400073D796D691E0E82EE926BC2EB2949FE0A8
:100D5000B922FBE0FB1580F1EB2DF0E0EC55F64DF0
:100D60000C940529E12CF1CF0C2F0F70C07F11F0EE
:100D70000295007F112381F0002349F080E28D0F5E
:100D8000883010F0D11105C0802F7CD629D78D2F47
:100D90004CC0802F8AD6FACF8D2F5BDF002361F005
:100DA00080E28D0F883010F0D11103C0802F70D6F3
:100DB00002C0802F80D614D7EB2DE850FF0B34975C
:100DC00018F40E94221EB0DEEE2059F04DD680FDB0
:100DD00008C0F601158242D62AD2C60160D13ED69D
:100DE00034D2CDB7DEB7E9E00C9430292C2F2F7028
:100DF000F22EC07FC03219F0F29480EFF822DD238A
:100E000041F0D13089F1112309F439C00023D1F028
:100E1000BECF8091E40382FD11C0112341F0FF2079
:100E200019F08F2D2FD6DCD680E0D6DEC5CF80E03E
:100E300010DFFF2009F4C0CF8F2DB9CF112359F057
:100E4000011103C08F2D48DFB7CF013009F0B4CFB7
:100E50008F2D4FD6B1CF0111AFCF8F2D42DF8F2D08
:100E600053D68F2D38D6A8CF112321F0023008F0A9
:100E7000A3CFE8CF0111A0CF8F2D33DF9DCF00236B
:100E8000D9F3D93349F43FEF87EE93E031508040F6
:100E90009040E1F700C000008D2FDBDE8DCF8C2F5E
:100EA00086958695837069F0813009F085CF8D2F06
:100EB0009C2F9370111102C080E090E00E94741E7C
:100EC0007BCF8D2F9C2F9370111102C080E090E09A
:100ED0000E944F1E71CF8C2F837081F511116CCF42
:100EE0004D2F429546954770440F440F2D2F2F707C
:100EF00030E0042E02C0220F331F0A94E2F790E084
:100F000080E0D4FF09C08FE090E002C0880F991FF5
:100F10004A95E2F780959095C695C695C370822B49
:100F2000932BC23039F040F4C13011F041D144CF9D
:100F300038D142CF44D140CF32D13ECF8695112314
:100F400011F08C2F8170882309F436CF4D2F4295F4
:100F500046954770440F440F2D2F2F7030E0042E1C
:100F600002C0220F331F0A94E2F790E080E0D4FF22
:100F700009C08FE090E002C0880F991F4A95E2F700
:100F800080959095C695C695C370822B932BC230E1
:100F900039F040F4C13011F07DD10ECF74D10CCFB7
:100FA00080D10ACF17D108CFCF70112321F08C2F19
:100FB0003ED18D2F48CF8D2F94DE8C2F46D1FCCE85
:100FC000D23F31F160F4D03FB9F0D13F81F011232D
:100FD00009F43BC00111DBCE8C2F8F711DC0D33FB4
:100FE000E9F0D43FA1F78091E40382FD1FC08C2F6C
:100FF0008F71112319F310C0112331F00111DCCED0
:101000008C2F8F7132D1D8CE023008F0D5CEF8CFE8
:101010008C2F8F711111D2CF0AD1CECE112321F096
:101020008C2F8F71FAD0C8CEDBD0C6CE112329F019
:1010300063E08C2F8F71E1D5BFCE81E0F5D5023012
:1010400008F4BACE82E0F0D5B7CE002359F0D933F8
:1010500009F022CFEFEFF7EE23E0E150F04020401F
:10106000E1F718CF8C2F8F71A9CF0F931F93CF93D8
:10107000DF93EC018F819885009761F07CD78C011C
:1010800017D18CD0B801CE0131DEDF91CF911F9105
:101090000F910895688179818D81BAD1F0CFCF9376
:1010A000DF93EC018C81882381F0CE0117DC811164
:1010B0000FC0DED4882349F08D81882331F08091E0
:1010C000E40382FF02C082E0AFD5DF91CF910895A3
:1010D000CE01CBDFCE01C2DBF8CF882311F0E5D4FF
:1010E0007FC50895882311F0E6D47AC5089590E06D
:1010F00080E00E944F1E90E080E00E94741EE2D4C7
:101100006FC50E94731FF3CFCAD4FBCF92959F7017
:10111000963091F058F4925F9F70923058F4803F6F
:1011200019F030F4883E30F481E008959A5FF4CFEE
:10113000843FD1F380E00895883EB0F3813FD1F73A
:10114000F3CFFC018481882351F08781908500973B
:1011500011F011D7DBCF8081918151D1FBCF80E09D
:101160000895A6E0B0E0E7EBF8E00C941B29269682
:10117000E2E00C943729A9E0B0E0E1ECF8E00C944F
:1011800019292996E4E00C9435290895FECF089595
:10119000FDDF909372028093710208950895F8CF55
:1011A00008952091710230917202822B932BF0CF1F
:1011B000209171023091720282239323E9CF209112
:1011C00071023091720282279327E2CFDECF089519
:1011D000FDCF0895FDDF9093700280936F02089514
:1011E00090E080E0F7CF009729F481E0662371F06A
:1011F00080E00CC021E030E002C0220F331F6A956E
:10120000E2F72823392381E0232B91F30895682FF7
:1012100080916F0290917002E6CF21E030E0A90149
:1012200002C0440F551F8A95E2F7CA01D3CF21E0CF
:1012300030E002C0220F331F8A95E2F780916F02DF
:1012400090917002822B932BC5CF21E030E002C039
:10125000220F331F8A95E2F72095309580916F0217
:101260009091700282239323B5CF21E030E002C039
:10127000220F331F8A95E2F780916F0290917002DE
:1012800082279327A7CF20916F0230917002822B83
:10129000932BA0CF20916F02309170028223932371
:1012A00099CF20916F02309170028227932792CFBD
:1012B0000895262F277091E001C0990F2A95EAF72B
:1012C00023E0769567952A95E1F7660F771F660FFD
:1012D000771FFA01E60FF71F50E040E0682F70E03B
:1012E0008191DF0111979B01042E02C0369527954D
:1012F0000A94E2F7217021952827292328272C9387
:101300004F5F5F4F4430510559F70895A82FA770DC
:1013100023E0969587952A95E1F7880F991F880F06
:10132000991FFB01E80FF91F50E040E080E0219198
:1013300030E00A2E02C0369527950A94E2F7217014
:101340003327042E01C0220F0A94EAF7822B4F5F45
:101350005F4F4430510559F70895262F983068F4AF
:10136000853058F4682F70E085E0989F600D711DFE
:1013700011244BE552E0822F9CCF0895292F9830FD
:1013800058F4853048F490E06BE572E035E0239F37
:10139000800D911D1124BACF80E00895B0E0A0E047
:1013A000E4EDF9E00C9414297C0100916F02109196
:1013B00070028091710290917202082B192BCFE07C
:1013C000D0E0CC24C394D12CBC2EC6010C2E02C07C
:1013D000880F991F0A94E2F780239123892B49F4FF
:1013E000219790F7B12C8B2DCDB7DEB7E9E00C94A7
:1013F0003029B7018C2FE0D6019791F3F4CFCF932A
:10140000DF93EC01CBDFBE01D7D6DF91CF910895FA
:101410001F93CF93DF93EB0190915A02992331F000
:10142000CB01EDDFDF91CF911F910895882351F01B
:10143000CB01B4DF182F682FCE018FDFBE01812FC3
:10144000BBD6F0CFCB019ADF182FF8CFFF920F93C6
:101450001F93CF93DF93C091730289E0F82E8091A0
:1014600074028C1305C0CDB7DEB7E5E00C943429C7
:10147000D0E0FC9EF001FD9EF00D1124EB58FD4FD5
:101480000081118122813381448155816681778178
:10149000808571DE2196C770E2CF0F931F93009174
:1014A000BD021091BE022091BF023091C002409156
:1014B000C1025091C2026091C3027091C402809136
:1014C000C50259DE1F910F9108950F931F93CF937B
:1014D000DF938091C302807F09F04FC08091C202E8
:1014E000882309F44AC0E0917302D09174021091EC
:1014F000BE020091BD024091BF025091C0026091B6
:101500009C0170919D01C9E0DE17B9F18E2F90E02A
:10151000EC9FF0011124EB58FD4F2481222391F11F
:10152000C89FF001C99FF00D1124DF01AB58BD4FDA
:1015300011962C911197211325C02C91201322C0B4
:1015400015962C91159721111DC012962D913C9145
:10155000241B350B26173707A8F48091C3028F7020
:1015600080618093C302E558FD4F80818F70806158
:1015700080838DEB92E093DD69DFDF91CF911F9146
:101580000F910895FC013196E770BECF482F20914E
:1015900073029091740259E0291302C080E008950B
:1015A00030E0529FF001539FF00D1124EB58FD4F96
:1015B0008181681306C08081481303C08581811131
:1015C000EECF2F5F3F4F2770E7CFA8E1B0E0EBEE03
:1015D000FAE00C9411298C0186E0F801DE015396A3
:1015E00001900D928A95E1F7D80114968C91149789
:1015F0001596EC9015979DEBA92E92E0B92E90913F
:10160000C10291111AC08823A9F0EE2089F0C80107
:1016100098DDF82E882361F089E0F801D50101906A
:101620000D928A95E1F7C501CFDA4FDF36DF48C06A
:10163000C80135DDFF24F39443C0F801C080D18098
:1016400082809380F090C2022091BF023091C0024C
:10165000A401421B530B9A0140919C0150919D01A2
:10166000FF2009F41EC12417350708F0C0C08823E5
:1016700039F19091BE028091C302282F207F09F09A
:1016800069C09D1122C09091BD02C9121EC0409137
:10169000C4025091C5022781308542175307A9F42F
:1016A000E11052C08F7080618093C302F6DE8DEB33
:1016B00092E0F5DC8091C302D80116968C93F12C50
:1016C0008F2D6896ECE00C942D29E1103DC06D2D16
:1016D0008C2D5CDFE82E882361F08DEB92E0DFDC5F
:1016E00089E0EDEBF2E0DF011D928A95E9F7D5DEA6
:1016F000E6CFCB8ADC8A8B899C8981DE292F2295D3
:101700002F70243058F49F70223080F0992391F08C
:10171000F8019681907F71F4FE2CD2CF2A5F2F7052
:10172000223060F0C801BBDCEF2CF6CF992311F01A
:10173000882391F3805E883078F3F4CF803F60F3A4
:10174000815F833078F7E8CF8091C3028160809316
:10175000C302B5CF9D111EC09091BD02C9121AC01F
:101760004091C4025091C50217962D913C91189753
:101770004217530779F4E1100DC016968C93C801F7
:101780008EDC89E0F801ADEBB2E001900D928A9514
:10179000E1F74CCFC801D5DC882309F449CFEE200E
:1017A00009F446CF8091C3028032B0F02091BD028F
:1017B0003091BE023B872A879D868C869091C1021C
:1017C0009E871F86888B8091C4029091C5029A8B58
:1017D000898BCE010A9663DC89E0F801ADEBB2E0BB
:1017E00001900D928A95E1F770DE57DE23CF90913C
:1017F000C302292F207F81F4682D9E8A8D8AA6013D
:101800007E899E2DAEDC8DEB92E049DC89E0F5010E
:1018100011928A95E9F76BCF882309F451CF809113
:10182000BE028D111BC08091BD02C81217C040912D
:10183000C4025091C50217962D913C9118974217FA
:10184000530761F4E1100AC016969C93C80127DC87
:1018500089E0F50111928A95E9F732CFC80171DC70
:10186000882309F4E5CEEE2009F4E2CE8091C3028C
:10187000803208F4B1CF2091BD023091BE023A838C
:1018800029839C828B829091C1029D831E828F83CB
:101890008091C4029091C50299878887CE010196F4
:1018A0009ACF2417350708F046C0882309F4C2CE22
:1018B000FE2CEE2009F4BCCE8091BE028D112FC00B
:1018C0008091BD02C8122BC04091C4025091C50244
:1018D00017968D919C9118974817590701F52A3A48
:1018E0003105A0F49091C30290FD10C0907F71F07B
:1018F0008091C30216968C931697903F09F43FCFC0
:10190000982F907F905F8F70892B37CF89E0F801F7
:10191000ADEBB2E001900D928A95E1F7D1CEC8010E
:1019200010DC811159CF8091C30281608093C30282
:10193000C801B5DBC5CE682D9E8A8D8AA6017E8939
:101940009E2D0FDC89E0F50111928A95E9F76ECEA4
:10195000A2E1B0E0EEEAFCE00C9418290A871B87AC
:101960002C873D874E875F87688B798B8A8BCE016A
:101970000A962BDE8823C1F04E85442349F00A8560
:101980001B852C853D855F85688979898A89F3DB8C
:1019900089E0F82E809173029091740289133BC004
:1019A0006296E5E00C94342989E0FE013A96DE0166
:1019B000119601900D928A95E1F78E85882341F367
:1019C0002091740230E0C9010196877099274091F7
:1019D00073024817190691F099E0929FD001939FE6
:1019E000B00D1124AB58BD4FFE01319601900D9200
:1019F0009A95E1F78093740229DDCACF85DB1092B6
:101A000074021092730289E0EDEBF2E0DF011D92A7
:101A10008A95E9F7BDCF8F9DC00111248B589D4F4A
:101A2000D4DD882309F4BCCFE0917302FE9EF0015F
:101A30001124EB58FD4F00811181228133814481B3
:101A4000558166817781808596DB8091730290E075
:101A5000019687709927809373029CCF8091EE0244
:101A600086958695869508958091EE0287700895F3
:101A70009091EE02977081E009F480E008958091E2
:101A80001A03089590911A03892B80931A030895DD
:101A9000809590911A03982390931A0308951092B9
:101AA0001A03089580911903089590911903892BC1
:101AB000809319030895809590911903982390932A
:101AC000190308951092190308958091F002089562
:101AD0000895FECF08959091EF02292F282329F031
:101AE000809589238093EF02F4CF08950895FECF67
:101AF00008959091F002292F2823281721F0982B80
:101B00009093F002F4CF08959091F002292F2823AA
:101B100029F0809589238093F002E9CF0895809180
:101B2000F002882321F01092F00280E0E0CF0895C7
:101B3000CF93C0911A0380911903C82B8091F002B2
:101B4000882329F0C82B0E94991E8111E8DF8C2F71
:101B5000CF910895CF93DF93C091A001D091A101BF
:101B6000E7DF8883C091A001D091A10148E050E057
:101B700066EE72E0CE010E944229892B59F088E07E
:101B8000FE01A6EEB2E001900D928A95E1F7CE013A
:101B90000E94361EDF91CF910895CF93DF93C091BD
:101BA0009E01D0919F01C4DF8983C0919E01D09195
:101BB0009F0140E250E066EC72E0CE010E944229B3
:101BC000892B59F080E2FE01A6ECB2E001900D9263
:101BD0008A95E1F7CE010E94411EDF91CF910895D1
:101BE0000E94CA1F813029F48091E30387FF01C05E
:101BF000D4CFB0CF0895FECF08959091E40392FF23
:101C00000EC098E0899F90011124622B6093EE0230
:101C10000EDB8091EE02869586958695ECCF07CBFC
:101C20001092EE0280E0E7CF9091EE02809589233A
:101C30008093EE02282F277059F4891749F090916C
:101C4000E40392FF05C0869586958695FEDAE8CF77
:101C500008959091E40392FB222720F9281759F068
:101C600080FB92F99093E4038091E3039091E40365
:101C700033D082E0D9CF08958091E40382FB882796
:101C800080F991E08927E5CF81E0E3CF80E0E1CFE3
:101C90006FEF7FEF90E080E00C948E2990E080E081
:101CA0000E94602921E0853E9E4F09F020E0822FAE
:101CB000089582E090E00C94582983E090E00E941F
:101CC000582990E00895682F83E090E00C947429DF
:101CD00084E090E00C946029BC0184E090E00C94D6
:101CE0008E29AB01BC018FE090E00C948629AB01FA
:101CF000BC0183E190E00C94862960E070E0CB01A8
:101D0000F6CF60E070E0CB01ECDFF7CFA8E0B0E009
:101D1000ECE8FEE00C941B2965EE7EEF90E080E09D
:101D20000E948E2960E082E090E00E94742981E0A8
:101D300090E09093720280937102C5DF60E074E1DD
:101D400084E090E00E948E2960E086E090E00E94AE
:101D5000742960E087E090E00E94742940E050E040
:101D6000BA0188E090E00E94862960E083E290E07A
:101D70000E94742960E08CE090E00E94742960E089
:101D80008DE090E00E94742919821A821B821C82C5
:101D90001D821E821F82188648E050E067E170E0D5
:101DA000CE0101960E94652940E050E0BA018FE122
:101DB00090E00E948629A5DF2896E2E00C9437295E
:101DC000A5CF0895682F8EE090E00C947429A6E0CA
:101DD000B0E0EDEEFEE00C9419290E9469208C0120
:101DE00080911B0390911C038017910781F0198249
:101DF0001A820E946920682F49815A81792F80E0D8
:101E000090E00E94B30510931C0300931B032696D9
:101E1000E4E00C943529E8D26093290370932A03F7
:101E200080932B0390932C036093250370932603D8
:101E30008093270390932803089508950895FDCF74
:101E400008950895FECF089581E008958DE092E110
:101E50008AD6F4DFF4CF99C4089508950895FDDF7C
:101E6000FDCF1CDF811101C0ABDF23DF80932D0389
:101E70002FDF9093E4038093E30392D61EDF8FD984
:101E800080916F0290917002A3C90E94602087D256
:101E900081D4D9D3E6DF0E9493050E94051A87D426
:101EA000D1CF73D4882329F00E94FF1D0E941918F6
:101EB0004EC70895A6E0B0E0E0E6FFE00C941229DA
:101EC000C3DF811108C083DFECDF0E949B052696EB
:101ED000EBE00C942E29D6D38DE1A82E83E0B82E0A
:101EE000750110E0F70101917F01812FB0D21F5FD2
:101EF000183009F43DC00817A9F380912D0381FD26
:101F0000ACD2A9DFC82E10E099249394812F9FD2E0
:101F1000082FF50181915F01081729F1D02ED826ED
:101F2000F12CEE24E3948D2D8E21A9F0CC2099F094
:101F3000F9821A830E9469209C838B839D8291E0A1
:101F4000802F8E2109F490E049815A816B817C8138
:101F50008D810E94B305F394EE0CF5E0FF12E3CF00
:101F6000F501319700831F5F183081F654DFACCF45
:101F70000813C3CFA8CF1F93CF93DF931FD1EC01DA
:101F8000C11580E5D807F0F5C11580E4D80708F041
:101F90009AC0C03ED10520F5CD3CD10508F082C0E5
:101FA000C83AD10578F4C53AD10508F073C0C130FC
:101FB000D10519F1209709F1C430D105F0F4D0E032
:101FC000C0E01BC0C33CD105D0F7C85AD0E0CC0F4D
:101FD000DD1FCD5FDD4F0990D881C02DD4640DC0C9
:101FE000C11580E2D80708F0CCC0C11581E0D80740
:101FF00008F05AC0C83ED10510F7CE01DF91CF914D
:102000001F910895C03682E5D80718F5C03482E5DF
:10201000D80708F068C0C03282E5D80708F05CC075
:10202000C11582E5D80708F493C02C2F2695269574
:1020300080E2289F900111248C2F8370C1E0D0E0B2
:1020400002C0CC0FDD1F8A95E2F7C22BD32BDD68CF
:10205000D4CFC03A82E5D80760F4C03882E5D8070B
:1020600008F456C0CF71D0E0DC2FCC27C46FD06A03
:10207000C4CFC03C82E5D80708F45FC0C03E82E50B
:10208000D80708F09CCFDC2FCC27CC27DF71C06F9E
:10209000D06AB3CFC55AD0E0C75CDD4FC881D0E06D
:1020A000D064ABCFD065A9CF8D2F2AD1182FCE0108
:1020B000992784D0C12FD0E0DC2FCC27CC27DF712B
:1020C000C82BD92B9ACFCE01992778D0CC27DF7097
:1020D000C82BD92BD06A91CFCF71D0E0DC2FCC2781
:1020E000C16FD06A8ACF2C2F26952695277080E263
:1020F000289F900111248C2F8370C1E0D0E002C092
:10210000CC0FDD1F8A95E2F7C22BD32BDC6875CF8D
:102110002C2F26952695277080E2289F9001112468
:102120008C2F8370C1E0D0E002C0CC0FDD1F8A95F8
:10213000E2F7C22BD32BDA6860CF8C2F8F71E0D0FF
:10214000C82FD0E0DC2FCC27CC27DF71D06255CF51
:102150008C2F8F71D5D055E0D695C7955A95E1F75C
:10216000CF70D0E0DC2FCC27282F30E084FF05C0D3
:1021700044E0220F331F4A95E1F7C22BD32BD069DD
:102180003CCF8D2F8F71BCD0182FCE01992716D040
:10219000C12FD0E0DC2FCC27CC27DF71C82BD92B67
:1021A000D5CF462F783028F4653018F4672F0C947B
:1021B0004A0390E080E00895F4DFDDCE8238910597
:1021C000B9F1B0F48133910509F47DC048F4893246
:1021D000910509F46DC08A32910509F47BC0089518
:1021E0008533910509F45FC08933910509F108959C
:1021F000833E9105D9F138F4803E910529F1823E64
:10220000910579F10895863E9105D9F1873E9105B2
:1022100009F43EC0843E910541F52091E40321FF7D
:1022200024C08091E30384FD19C087EE90E00895F7
:102230002091E303237009F05AC02091E40323FFA7
:1022400014C089E290E008952091E30320FD38C096
:102250003091E40330FF09C024FF43C090E080E0E8
:1022600008952091E30322FDF7CF08952091E30321
:1022700022FD3AC03091E40330FD39C024FFF5CF90
:10228000EDCF2091E30323FFF0CF24FDE7CFCDCFA7
:102290002091E30323FD2EC03091E40331FFEECF04
:1022A00084EE90E008952091E30325FFDECFC9CFAF
:1022B0002091E30325FD21C02091E40323FFD5CF26
:1022C00089E390E0D2CF2091E30326FFCECF8AE2CC
:1022D00090E008952091E30326FFC7CF81E390E0CB
:1022E000089583EE90E0089582EE90E0089580EEE8
:1022F00090E0089586EE90E0089585E390E00895DB
:102300009091E30392FF10C041E0282F2471243004
:1023100009F040E031E0282F2871283009F030E042
:10232000431711F02CE0822793FF10C041E0282FC3
:102330002471243109F040E031E0282F2871283140
:1023400009F030E0431711F02CE082273091E403CC
:1023500030FF10C051E0282F2171213009F050E0EA
:1023600041E0282F2871283009F040E0541711F07F
:1023700029E0822731FF10C041E0282F217121314F
:1023800009F040E031E0282F2871283109F030E0D1
:10239000431711F029E0822794FD877E089510925B
:1023A000E5031092E6031092E7031092E803089504
:1023B000CF92DF92EF92FF926B017C01E6D1811107
:1023C0000EC00E947520C61AD70AE80AF90AC09200
:1023D000E503D092E603E092E703F092E803FF9072
:1023E000EF90DF90CF9008950F931F93CED1882365
:1023F00029F00E9475201F910F9108950E94752069
:102400000091E5031091E6032091E7033091E80382
:10241000600F711F821F931FEECF80E00895CF934E
:102420009C01205E3245C1E02032310538F4FB01C9
:10243000C581C11103C08F710E9442048C2FCF91BE
:1024400008950895FECF08950895FECF0895E82FCA
:10245000F0E0EE50FC4F80810895089580EA8A955F
:10246000F1F7089500C00895F9CF08950895FECFBB
:102470000895EF92FF921F93CF93DF9300D000D087
:10248000CDB7DEB782D1182F6091FA03882309F403
:1024900045C019821A821B821C82862F90E09E0101
:1024A0002F5F3F4F7901B9018E509C4F8CD188230B
:1024B000E1F08091E90390E044E050E0B7018E50F4
:1024C0009C4F0E94422921E020932E03892BC1F4C6
:1024D00010E0BBDF812F0F900F900F900F90DF91D6
:1024E000CF911F91FF90EF90089580912E03882344
:1024F00079F384E0F70111928A95E9F710922E039F
:10250000E091E903F0E0EE50FC4F89819A81AB81C4
:10251000BC8180839183A283B383DBCF70E06E5054
:102520007C4F8091E90390E08E509C4FD1D19FDF8A
:10253000D1CFF894E82FE295EF70F0E031A1282F89
:102540002F7081E090E001C0880F2A95EAF7982F5C
:102550009095932391A392A1892B82A378940895B7
:10256000CF93DF9384E9E5DF86E6E3DF87E9E1DF08
:1025700086ECDFDFCCE3D2E089918F3F09F0D9DF31
:1025800082E0C134D807C1F7DF91CF910895B0E060
:10259000A0E0EDECF2E10C941529EC01D62E062F0B
:1025A00010E0C8018F5B9D4F7C01FC0180818F3F53
:1025B00009F442C0F894E82FE295EF70F0E091A1A1
:1025C0008F7021E030E001C0220F8A95EAF7892F51
:1025D000822B81A382A12095282322A3789442DF15
:1025E000ECE3F2E041E452E031E0C12C21912F3FD5
:1025F00041F1A22FA295AF70B0E090968C9190E03F
:102600002F7002C0959587952A95E2F780FD19C035
:10261000832FC82A330F4E175F0741F7F7018081D8
:102620008F3F09F086DF61E0C11001C060E08D2DB1
:102630001BDFC00FD11FC882CDB7DEB7E8E00C9416
:10264000312980E0E6CF8091A2018091A20194E03F
:10265000811190E09093FA0384E0891B8093E90351
:102660007FDF88E0E2EFF3E0DF01982F1D929A957B
:10267000E9F7EAEEF3E0DF011D928A95E9F784E0DD
:102680003CD0E0CEA8E0B0E0E8E4F3E10C941829F7
:102690008E010F5F1F4F88E0F80111928A95E9F7CC
:1026A000F12C6F2DC80173DFF394F4E0FF12F9CF22
:1026B00048E050E0B8018AEE93E00E94422921E010
:1026C000009709F420E0892B41F088E0F801AAEE98
:1026D000B3E001900D928A95E1F76091FA0370E002
:1026E0006E507C4F44E08AEE93E008D0182FC1DE94
:1026F000812B2896E5E00C9434290895B0E0A0E001
:10270000E4E8F3E10C9415296C017B01042FC22F3E
:10271000222379F081E0809331030E946920909315
:10272000300380932F0380E0CDB7DEB7E8E00C9450
:102730003129D0913103DD23B1F380912F039091A2
:1027400030030E948120059770F310E0A801B601C4
:10275000C7010E944229892B31F0A801B601C701A7
:102760000E944F29CD2F109231038C2FDDCFCF93B4
:102770000E94D628C82F811102C00E94D2288C2F17
:10278000CF91089580913503089580913403089581
:10279000FCCF0895ECDF80933403FADF8093350398
:1027A000F1DF8093A201F1DF811142C00895EDDFD6
:1027B000811101C040C0089581E0909136039A30A4
:1027C00008F080E008950F931F93CF93DF93EC01FF
:1027D0008B01809136038A30B0F4B801CE0176D0F7
:1027E000C82F811122C0809136038F3FB9F40E9417
:1027F000692090933303809332038C2FDF91CF9124
:102800001F910F91089580913203909133030E949C
:102810008120843F914008F7C0E0EFCF8F5F809325
:1028200036038A3020F7C1E0E8CF10923603E5CFB7
:102830000C94422108950C9445210895B0E0A0E045
:10284000E4E2F4E10C9416297901C82F880FDD0B1E
:1028500041155105A9F0FE0193E0EE0FFF1F9A9577
:10286000E1F7ED55FE4F81819281895C9C4F20817B
:1028700030E04217530708F49A01A9010E944F293A
:10288000CE010E942522D82E8823D1F001151105F2
:10289000B9F083E0CC0FDD1F8A95E1F7FE01ED551D
:1028A000FE4F438150E00417150708F4A801CD55E9
:1028B000DE4F6C817D81695C7C4FC7010E944F298E
:1028C0008D2DCDB7DEB7E7E00C943229F0C0089526
:1028D00003C10895A4E0B0E0E0E7F4E10C94192905
:1028E00060914C0370914D0380914E0390914F0382
:1028F0000E94902011E0643671058105910508F170
:1029000073DD6E5F7F4F8F4F9F4F69837A838B8319
:102910009C8310E000E030E020E044E050E0BE01A5
:102920006F5F7F4F82E08ADF182F882351F00E946B
:10293000752060934C0370934D0380934E039093E6
:102940004F03812F2496E4E00C943529B0E0A0E0F9
:10295000ECEAF4E10C9413297C015B016A012CDFA1
:1029600001E010E0882311F00AE010E0C1E0D0E0BF
:10297000B501C701F6010995811104C021960C1714
:102980001D072CF4CDB7DEB7EAE00C942F29CC9FBD
:102990009001CD9F300D300D112490E080E045E393
:1029A0004A95F1F70000019682179307C1F7E0CF2F
:1029B000A5E0B0E0EEEDF4E10C9413295B01E090AA
:1029C0004502F090460201E010E09E012B5F3F4F70
:1029D00050E040E070E060E080E030DF182F8823B6
:1029E00009F448C067018FEFC81AD80A60914803FC
:1029F0007091490380914A0390914B030E9490206B
:102A0000643671058105910570F104E010E09E01C6
:102A10002F5F3F4F50E040E070E060E081E00EDF6C
:102A2000F82E64E070E0C601F1D411E09D819813A6
:102A300010E01F2151F10E947520609348037093AC
:102A4000490380934A0390934B0389819A81AB8118
:102A5000BC818093440390934503A0934603B093B5
:102A6000470311E012C064E070E0C601CFD49D813D
:102A70008913CBCFF70181819281A381B4818983AE
:102A80009A83AB83BC831111E0CF80914403909172
:102A90004503A0914603B0914703F50180839183DC
:102AA000A283B383812F2596EAE00C942F290F93FC
:102AB0001F93CF93DF93EC018B0148ED54E146DF88
:102AC000882329F04AE654E1B801CE013FDFDF91C7
:102AD000CF911F910F9108950F931F93CF93DF9381
:102AE000C0914502D0914602CE01019624E0FB013F
:102AF000DC0101900D922A95E1F764E070E086D444
:102B000088836D817E818F8198850091400310912B
:102B100041032091420330914303601771078207FC
:102B2000930749F0609340037093410380934203FD
:102B3000909343033DDCDF91CF911F910F91089556
:102B4000B9C908950E9403200E94B9237FD90E9429
:102B5000D1239BD90E94DA230E94DD23F1DF0E945A
:102B6000F3237DD9F9CF90934902809348020895C9
:102B70008FC8089580E06BDC8170089583DD2FEFAE
:102B800086E791E0215080409040E1F700C00000CE
:102B900079DDF0DF882319F0EBDF0C94D020089565
:102BA000EDCF08958832910548F48E319105A0F457
:102BB000049750F082E00E94550D0EC08D329105B1
:102BC000C9F320F48A9741F080E008958C34910590
:102BD00019F08D329240C1F781E00895EF92FF9293
:102BE0000F931F93CF93DF93EC017B01C3378CE7E7
:102BF000D80761F4FB011581112311F0B9D010E061
:102C0000812FCDB7DEB7E6E00C9433290E943F0D4B
:102C1000082F0E94650D082B7CD0811107C002325D
:102C200011F011E0EDCF79D0F8D6FBCF69D0F701E4
:102C300015811123B1F30D7909F054C0C034F2E5C8
:102C4000DF0720F5C11582E5D807D0F6C115E0E40D
:102C5000DE0790F4C115F0E2DF07B0F5C63ED105FE
:102C600079F20E94620DCE019DDFC82F8823D1F139
:102C70000E94F00D1C2FC4CFC11580E5D80788F73E
:102C8000F7018681807F69F2DD27EBCFC03EE2E568
:102C9000DE07A0F4C03CF2E5DF0708F0B1CFC03694
:102CA00082E5D807F0F2C03AE2E5DE0708F4A8CFE3
:102CB000C43BF2E5DF0709F4A3CFD3CFCE0187579A
:102CC0009C47029770F69CCFF7018681807FE1F6E2
:102CD0008D2F8F71823189F038F4C1EED0E08230CF
:102CE00009F4BFCF28D08CCF843109F489CFC6EE48
:102CF000D2E1863109F4B5CFF5CFC5EED0E0B1CF42
:102D00000E94692088579C4E9093510380935003F2
:102D1000089580915203089508958091520381117E
:102D200009C00E944F0D0E948F0DEADF81E0809361
:102D30005203F2CF089580915203882339F082E242
:102D40000E9472081092520380E0E6CF08958091AD
:102D50005203882361F00E94692020915003309132
:102D60005103821B930B8F3F9F4708F4E4CF0895D4
:102D700080915203882309F0DECFCFCF0895EF92E0
:102D8000FF920F931F93CF93DF938091C603882305
:102D900061F0E09153038DE0F82E8091C603E817AF
:102DA00048F01092C60310925303CDB7DEB7E6E0A9
:102DB0000C943329EE24E394EE0EE0925303CE2FCD
:102DC000D0E0EF9DF0011124E25AFC4F848188236A
:102DD000A9F087819085892B99F4818592858F3F11
:102DE000980771F061E0CADFFC9EF001FD9EF00DD6
:102DF0001124E25AFC4F14820E94620DEE2DCDCFB9
:102E000000811181228133814481558166817781DE
:102E100080850E94A80CE8CF0895CF93DF9310928D
:102E2000C8031092C703D0E0C0E00E944C03C8174B
:102E3000D90718F0DF91CF910895CE010E945F036A
:102E4000FC018581811102C0148216822196EDCF8A
:102E50001F93CF93DF9310915C0320915D032117A3
:102E6000D1F0C12FD0E0FE01EE0FFF1FEC5AFC4F56
:102E7000408151814817590791F40E945F0321E076
:102E8000FC01248380915C03811305C02196C370EB
:102E9000DD27C0935C03DF91CF911F9108952196A8
:102EA0001C2F1370DCCFB0E0A0E0E9E5F7E10C9453
:102EB0001029EB012C81211152C07090C603AEE5A0
:102EC000B3E030E020E0812C61E070E0271508F0ED
:102ED00045C01B96CD90DC901C97A880B9804FEF21
:102EE0005FEF912CE92CF12CF701EE0FFF1FEA0D9B
:102EF000FB1D05911491C016D10609F4A701011517
:102F0000110511F09394EECF4F3F540781F1FB016F
:102F100002C0EE0FFF1F4A95E2F78E2AAB01092C83
:102F200002C0440F551F0A94E2F74150510984161C
:102F30001506D1F44A815B816DE0629FF001639FC9
:102F4000F00D1124E25AFC4F5087478324E024837C
:102F5000108211829287818721E02D8379DFCDB79E
:102F6000DEB7EDE00C942C2914961C9214972F5F79
:102F70003F4F1D96ABCF0F931F93CF93DF93C0911D
:102F80005C0380915D038C1307C0F9DE46DFDF919F
:102F9000CF911F910F910895D0E08E01000F111F66
:102FA0000C5A1C4FF801808191810E945F03BC0183
:102FB000F8018081918177DF2196C370E2CFEF9293
:102FC000FF921F93CF93DF93FC012081318110E0AA
:102FD00040E050E0E52FF0E0EE0FFF1FE20FF31F9F
:102FE000A591B4911097B9F0FB01C081D18140E067
:102FF00005C0AE15BF0509F411E04F5FE42FF0E006
:10300000EE0FFF1FEC0FFD1FE590F490E114F104AB
:1030100081F75F5FDFCF112349F0451708F4CB013B
:10302000DF91CF911F91FF90EF90089590E080E0A5
:10303000F7CF8091BB01882329F18091C90390913A
:10304000CA030097F9F00E9481202091C7033091B4
:10305000C80328173907B0F490915C0380915D0391
:10306000981751F088DF1092C8031092C70310928E
:10307000CA031092C903089582DE1092CA03109207
:10308000C903CBCE08951092CA031092C9031092BF
:10309000BB0180915D0380935C03BFDE70CE8091A5
:1030A000BB01882309F0EFCF81E08093BB01089535
:1030B000ACE0B0E0EEE5F8E10C940B294C016B01BB
:1030C00080352CE7920761F4FB0115811123D9F0BB
:1030D00081E08093BB01812F2C96E2E10C9427299B
:1030E0008135FCE79F0731F4FB011581112359F06D
:1030F000CADFF1CF82359C4731F4FB0115811123E2
:1031000011F0CDDFE8CF20916F02309170028091F5
:10311000710290917202822B932B0E945F05182FEF
:103120007BDE181729F0F601608171813AD84C01D5
:10313000B12CA12C1C8666246394712CCE010196BF
:103140009B878A870E944C03A816B906B8F1F6013E
:103150008581882309F44AC1FC85FF2309F446C10F
:10316000B8D79093CA038093C9038091C60388306F
:1031700008F591E0980F9093C60399E0F601DE01FF
:10318000119601900D929A95E1F72DE0829FC00172
:103190001124825A9C4F29E0FE013196DC010190F6
:1031A0000D922A95E1F72FEF3FEFFC01328721873F
:1031B000948683861C85109511708DCFC5010E9461
:1031C0005F037C01FC014081518144244A94542CCA
:1031D00060E0262F30E0F901EE0FFF1FE40FF51F2E
:1031E000859194918816990609F42901892B11F08B
:1031F0006F5FEFCF80E0FFEF4F165F0609F445C029
:10320000F70144813090BB01832D411180E0F82FFC
:10321000F1703F2EF70125808681F6019581992373
:1032200009F483C0332009F480C0211015C0930134
:10323000042C01C0220F0A94EAF7822BF70186833F
:103240008091C7039091C803C29730F482E390E065
:103250009093C8038093C703C30102C0880F991FCE
:103260006A95E2F70197F70126812817190681F57B
:103270008091C9039091CA03009771F042D7C39718
:1032800058F021E0F701248381E0FC85F82BFC87CE
:103290002FEFA21AB20A56CF20905C0390E080E094
:1032A00020915D03221216C0E816F90689F0422C1F
:1032B000512CF201EE0FFF1FEC5AFC4FB182A0829D
:1032C0002FEF421A520A83E04822552440925D03B0
:1032D000832DDBCF422C512CF201EE0FFF1FEC5A55
:1032E000FC4F808191810E945F038C01B70167DEF2
:1032F0000097A1F021E0FC012483E816F90641F3D0
:1033000020915C0322120AC00817190739F49201B0
:103310002F5F3F4F2370332720935C03EFEF4E1A4C
:103320005E0AF42DF3702F2EBBCF90E021101EC04B
:10333000930102C0220F331F6A95E2F72150310931
:103340002817390729F4442309F44EC0C50180DD4C
:10335000C301042C01C0880F0A94EAF7982F9095B6
:10336000F701868189238683322CB2CFAC01042CED
:1033700002C0559547950A94E2F7BA016170772724
:103380009C012150310982239323892B49F5672B16
:1033900039F1F70182819381892BF1F0EA85FB8570
:1033A00027E011922A95E9F794D6282F8B839C83E6
:1033B00084E08D83F70182819381782F88879987B4
:1033C00009811A813C8144E05E816F81892F0E94CE
:1033D000A80CF7011582BCCF60E0C501CFDCF9CFA6
:1033E000F42FF1702F2EB4CF232CB2CF90915C0329
:1033F00080915D03981711F0BEDDDCCEC0DC109229
:10340000CA031092C90309DDD5CE0895FC01680FE7
:10341000791F8FEF91E36E177F0709F408952191CB
:10342000822728E030E087FF06C0880F89272150D7
:103430003109C9F7F0CF880FFACF9C01FB018581D4
:10344000882359F12137FCE73F07B9F022379CE781
:103450003907E9F020373C4709F560E280919C018B
:1034600090919D010E943F05FC0101962081203230
:10347000D9F3CF0126D280E0089580919C019091EC
:103480009D01059690939D0180939C01F4CF8091BE
:103490009C0190919D010597F5CF81E00895CF9310
:1034A000DF93EB0186319C4701F50E943F0D9D8122
:1034B000992391F08A7A91E009F490E09093CB03FC
:1034C000811108C089E2E1D40E94F00D80E0DF9113
:1034D000CF91089585E3F7CF8091CB03811103C08D
:1034E00089E2EAD4F1CF85E3FCCF81E0F0CFCF933E
:1034F000DF93EC01FB018581882309F4D2C09E0192
:1035000030572332310508F0B2C00E94680E909304
:10351000E4038093E303FE01E150F047E232F1055A
:1035200020F4E055F64D0C9405298091E303816069
:103530008093E30393C08091E40388608093E40365
:103540008DC08091E3038260F3CF8091E3038460B8
:10355000EFCF8091E3038860EBCF8091E40381603B
:10356000EDCF8091E4038260E9CF8091E303806135
:10357000DFCF8091E3038062DBCF8091E30380643F
:10358000D7CF0E9484088091E3038068D1CF8091D7
:10359000E3038C60CDCF8091E4038360CFCF809133
:1035A000E3038E7FC5CF8091E403877FC7CF8091EF
:1035B000E3038D7FBDCF8091E3038B7FB9CF8091F3
:1035C000E303877FB5CF8091E4038E7FB7CF8091EF
:1035D000E4038D7FB3CF8091E3038F7EA9CF8091E9
:1035E000E3038F7DA5CF8091E3038F7BA1CF0E9462
:1035F00084088091E3038F779BCF8091E303837FDF
:1036000097CF8091E4038C7F99CF8091E30382FB75
:10361000992790F921E0922790FB82F990FB83F99A
:1036200087CF8091E403982F909591708E7F892B9E
:1036300090FB81F983CF9091E303892F8F7B96FFD5
:10364000806476CF0E9484089091E303892F97FBD2
:1036500087F980586DCF81E00E94E20E8091E303EC
:103660009091E4030E946C0E0E94840880E0DF9138
:10367000CF91089580E0F0CF9091E303892F8F7E62
:1036800094FF806155CF9091E303892F8E7F90FF47
:1036900081604ECF9091E403892F877F93FF8860EC
:1036A0004DCF81E0E4CFB0E0A0E0E9E5FBE10C9490
:1036B0001429E82FF0E0E85BFD4FB490282F269501
:1036C0002695269530E0F901E851FD4F0491877069
:1036D00010E0082E02C0159507950A94E2F70170D4
:1036E0001127F901E852FD4FE490F12C082E02C099
:1036F000F594E7940A94E2F791E0E922FF24F901B6
:10370000E853FD4FC491D0E002C0D595C7958A9586
:10371000E2F7C170DD27C62ED12C0115110549F540
:10372000E114F10431F086EE0E94EC05C601009729
:1037300071F5B6018B2D0E944F06C601009779F5F1
:10374000E114F104A1F50115110531F081EE0E949B
:103750002906C6010097C9F5CD2B31F08CE20E94F5
:103760006506C114D104C9F5CDB7DEB7E9E00C9404
:10377000302981EE0E94EC05C601009789F2EFE93D
:10378000FFE03197F1F700C000000197F6CFEFE9B5
:10379000FFE03197F1F700C000000197C8CFEFE9D3
:1037A000FFE03197F1F700C000000197C7CF86EE28
:1037B0000E942906C601009731F2EFE9FFE0319738
:1037C000F1F700C000000197F6CFEFE9FFE0319775
:1037D000F1F700C000000197BDCF8FE99FE001978E
:1037E000F1F700C0000091E0C91AD108BACFEF92FA
:1037F000FF920F931F93CF93DF93EC01162F0AE0F4
:103800008881882309F458C0813009F052C0898129
:10381000813071F47E0182E0E80EF11C8A810E9401
:103820006506E701812F90E00097D9F52196E8CF52
:10383000823041F47E01E2E0EE0EF11C8A810E94AA
:10384000EC05EFCF833041F47E01F2E0EF0EF11C86
:103850008A810E942906E5CF843011F02196E2CFBB
:103860002A81229690E080E0AE014F5F5F4F2053A7
:10387000330B2A30310550F00097A1F2EFE9FFE059
:103880003197F1F700C000000197F6CF089FB00113
:10389000099F700D1124C901860F971F2981EA0124
:1038A000E3CFEFE9FFE03197F1F700C000000197A7
:1038B000BBCF612FF8DEBACFCDB7DEB7E6E00C9410
:1038C000332960E094CF0F931F93CF93DF93C42FDE
:1038D000D22FFC0185818823C1F04093CE03F9D318
:1038E0009093CD038093CC0380E28C0F883040F41A
:1038F000C77081E001C0880FCA95EAF70E946C0684
:10390000DF91CF911F910F9108951091CE03141361
:1039100035C08091CC039091CD03F3D320919C01CD
:1039200030919D018217930748F5C0E2CD0F1D1716
:10393000B9F080E2810F883040F4177081E001C057
:10394000880F1A95EAF70E947106C83048F481E0A2
:103950009D2F977001C0880F9A95EAF70E946C0618
:10396000802F0E946506C83058F6D77081E001C0EC
:10397000880FDA95EAF70E947106C2CF80E28C0FB9
:10398000883008F0BDCFC77081E001C0880FCA95AC
:10399000EAF7F1CF0F93DB0188519C4787309105FF
:1039A00098F5FC01EE52F64D0C94052906E221EE45
:1039B00041EE6AE17CE7CD0186DF80E00F9108955A
:1039C00007E225EE45EE6BE17CE7F5CF06E221EE5E
:1039D00040EE68E17CE7EFCF07E225EE44EE69E1D7
:1039E0007CE7E9CF06E221EE42EE6CE17CE7E3CF33
:1039F00007E225EE46EE6DE17CE7DDCF08E221E04F
:103A000045EE6EE17CE7D7CF15968C91882319F0AF
:103A10001092CE03D3CF81E0D1CF1092CE03089580
:103A20004115510511F0FA0109950895CF93DF93DF
:103A3000EC014A855B856E857F85F2DF8B810E9474
:103A40005B0D8C810E94480D0E94F00D86E0FE0106
:103A500011928A95E9F7DF91CF910895CF93DF9383
:103A6000EC018D8181FD10C082608D838B810E946D
:103A7000550D8C810E94420D0E94F00D488559859C
:103A80006E857F85CE01CCDF1092D2031092D103D8
:103A90008D8180FD02C0CE01C9DFDF91CF910895F5
:103AA000CF93DF93EC018A81823041F4FB01828164
:103AB00093810E94AE038D8182608D83DF91CF91CF
:103AC0000895FB01808191810C94AE03FC018281F9
:103AD000813031F4FB01808191810C94C2030895FF
:103AE0008230E9F7FB0182819381F7CF0F931F9317
:103AF000CF938C01FB01C581CC23A9F08091D10328
:103B00009091D2030097A1F08017910789F099272F
:103B10000E947203FC0125812460258311830083A8
:103B20009DDF0E94620D8C2FCF911F910F91089500
:103B3000C0E0F9CFEF92FF920F931F93CF93DF93E3
:103B40007C018B0197558F3F910519F010F011E022
:103B500036C00E946103970133272817390708F000
:103B60004CC0C9010E947203EC01F80115818D81DE
:103B700010FB80F98D83112341F1ABD29093D003D8
:103B80008093CF038A818F5F8A830E943F0D8B834E
:103B90000E94520D9B81892B8B830E94650D8C8323
:103BA0004E815F816E857F85CE013ADF8D8181FFF9
:103BB00002C0F12CE12CF092D203E092D103812FCC
:103BC000CDB7DEB7E6E00C9433294C855D856E8574
:103BD0007F85CE0125DF8D8181FFB9CFCE0126DF24
:103BE0008091D1039091D2038E159F0509F0AFCF3C
:103BF0001092D2031092D103AACF10E0E0CF8091AF
:103C0000D1039091D203892BB9F08091CF03909189
:103C1000D00377D220919C0130919D01281739075C
:103C200058F48091D1039091D20399270E94720396
:103C3000FC01258122FF12CF08959093D903809330
:103C4000D80308950E94C513811103C08091D30346
:103C50000895E091D803F091D903309729F00190AD
:103C6000F081E02D0995089580E00895E091D80352
:103C7000F091D903309721F00280F381E02D09956E
:103C80000895E091D803F091D903309739F026E0F8
:103C9000DC012C930480F581E02D09950895A3E0C3
:103CA000B0E0E5E5FEE10C941B292091D6033091AC
:103CB000D70328173907A1F09093D7038093D60331
:103CC000E091D803F091D903309751F023E0298394
:103CD0009B838A830084F185E02DCE0101960995AE
:103CE0002396E2E00C943729A3E0B0E0EAE7FEE196
:103CF0000C941B292091D4033091D5032817390740
:103D0000A1F09093D5038093D403E091D803F09170
:103D1000D903309751F024E029839B838A83008460
:103D2000F185E02DCE01019609952396E2E00C94F1
:103D30003729CF93DF93C091A001D091A1012296A2
:103D400029D1813081F48091E30387FF0CC0C091B9
:103D50009E01D0919F0122969EE180E0915028F42F
:103D6000DF91CF91089596E0F8CF29912223B1F306
:103D70008F5FF4CFCF93C82F811102C080E023C0A2
:103D800009D1813011F58091E30387FF1EC0EC2F2C
:103D9000E695E695E695EE3188F780919E01909143
:103DA0009F01E80FF92FF11D228130E0C77081E0FB
:103DB00090E002C0880F991FCA95E2F728233923A3
:103DC00081E0232BD9F2CF9108958091A0019091A9
:103DD000A101FC013296089621912C1721F0E817D9
:103DE000F907D1F7CBCF81E0EECF9C01FC013296F1
:103DF0009FEF80E04191461751F09F3F19F4411128
:103E000001C0982F8F5F8630A9F79F3F09F408956E
:103E1000290F311D97FD3A95F90162830895FC0140
:103E2000329608962191261303C0DF0111971C9248
:103E3000E817F907B9F70895E62FE695E695E695B0
:103E4000EE3168F4E80FF92FF11D677021E030E0E2
:103E500001C0220F6A95EAF78281822B828308953E
:103E6000E62FE695E695E695EE3170F4E80FF92F2A
:103E7000F11D677021E030E001C0220F6A95EAF77A
:103E800020958281282322830895CF93C82F82D042
:103E90006C2F813059F48091E30387FF07C0809134
:103EA0009E0190919F01C8DFCF9108958091A0015C
:103EB0009091A1019ADFF8CFCF93C82F6BD06C2FD0
:103EC000813059F48091E30387FF07C080919E0100
:103ED00090919F01C5DFCF9108958091A0019091AD
:103EE000A1019DDFF8CF56D0813079F48091E303B2
:103EF00087FF0BC0E0919E01F0919F0132968EE109
:103F0000DF011D928A95E9F70895E091A001F091F3
:103F1000A101329686E0F4CF0895FECF0895811175
:103F20000CC081E08093BF016091BC017091BD0124
:103F30008091BE019091BF01F0CF82E0F3CF83E08A
:103F40008093BF016091BC017091BD018091BE0161
:103F50009091BF01E2CFE3CF089581E08093BF014C
:103F60006091BC017091BD018091BE019091BF0133
:103F7000D4CFF3CF089591E0811101C090E09093E8
:103F8000BE016091BC017091BD018091BE01909114
:103F9000BF01C3CF8091BE0108958093BD016091A0
:103FA000BC017091BD018091BE019091BF01B5CF60
:103FB0008091BD0108958093BC016091BC01709116
:103FC000BD018091BE019091BF01A7CF8091BC013E
:103FD000089508950895FECF089508950895F9CF9E
:103FE0000895CF93FADF0E944213F8DFC0E08C2FD0
:103FF0000E942712811105C0CF5FC830C1F7CF9151
:10400000089581E0FCCF85B7806885BF85B780685B
:1040100085BF08951F921FB61F9211248F939F93FF
:10402000AF93BF938091DA03811113C08091FB039A
:104030009091FC03A091FD03B091FE034196A11D58
:10404000B11D8093FB039093FC03A093FD03B093F9
:10405000FE03BF91AF919F918F911F901FBE1F9044
:10406000189580910304843031F10E94E10410928C
:10407000DA0388E190E020E40FB6F894A8958093E5
:1040800060000FBE2093600083B7817F846083BF90
:1040900083B7816083BF7894889583B78E7F83BF11
:1040A0000FB6F894A89580916000886180936000B5
:1040B000109260000FBE08950E9484080C94E404DE
:1040C00082E084BD93E095BD9AEF97BD80936E002A
:1040D00008952FB7F8948091FB039091FC03A09171
:1040E000FD03B091FE032FBF08952FB7F8946091A0
:1040F000FB037091FC038091FD039091FE032FBFA1
:1041000008959C014FB7F8948091FB039091FC03B4
:10411000A091FD03B091FE034FBF821B930B089546
:10412000CF92DF92EF92FF922FB7F894C090FB03EB
:10413000D090FC03E090FD03F090FE032FBFA70199
:104140009601261B370B480B590BCA01B901FF908A
:10415000EF90DF90CF90089578941F921FB61F9232
:1041600011248F939F93AF93BF938091FB03909102
:10417000FC03A091FD03B091FE030196A11DB11DAA
:104180008093FB039093FC03A093FD03B093FE0385
:10419000BF91AF919F918F911F901FBE1F90189557
:1041A00087E797E7909301088093000888E19AE0F9
:1041B0000FB6F894A895809360000FBE90936000AE
:1041C000FFCF88E19AE00FB6F894A895809360003D
:1041D0000FBE90936000FFCF8EE14A9B02C08150DA
:1041E000E1F74A9BFECF08955A9880E28A95F1F74D
:1041F0005A9A0895FC013BE03A95F1F798E020E0E7
:1042000080E031E040E14A95F1F7880F4A9B02C017
:104210008160232742E04A95F1F7000040E14A958A
:10422000F1F7915079F790E19A95F1F799B132E071
:104230003A95F1F7000040E14A95F1F792FB992792
:1042400090F992272081920F90830895A1E0B0E029
:10425000EBE2F1E2ECC719828C017C01E60EF11C65
:104260000E151F0539F481E09981911180E02196A6
:10427000E6E0F9C7B1DFCE010196BCDFF80181931A
:104280008F01EECF529A5A9A089552985A9AEA9A02
:10429000E9E6F0E080818F7C808308956150770BA0
:1042A00091E001C0990F6A95EAF720E031E09111A1
:1042B00008C0222391F05A9A80E28A95F1F75A9821
:1042C0000895492F482339F05A9A232740E24A9506
:1042D000F1F79695ECCF5A98F9CF5A98EDCFFF9217
:1042E0000F931F93CF93DF93EC018C01060F111DE9
:1042F000C017D10721F4CDB7DEB7E5E0B5C7F99017
:1043000073DF68E08F2DCADFF3CF1F920F920FB6D5
:104310000F9211240F931F932F933F934F935F930B
:104320006F937F938F939F93AF93BF93EF93FF937D
:10433000CF93DF930F92CDB7DEB719824DDFCE0159
:10434000019658DF082F069506950695282F229589
:104350002570902F9570290F922F93702695269592
:10436000920F982797708981982B09F058C00430D4
:1043700008F055C080E18A95F1F75A9A529A82E086
:104380008A95F1F700C05A9888E0089F80011124AF
:10439000D801AD55BE4F1696ED91FC911797309709
:1043A000A9F0609145027091460214962D913C91BE
:1043B0001597260F371F11968D919C911297680FB4
:1043C000791F13964C9113978C910995F801ED552F
:1043D000FE4F6381662349F02091450230914602E9
:1043E00084819581820F931F7ADFFEDE80E18A95BA
:1043F000F1F75A9852985A9A80E18A95F1F7F801A4
:10440000ED55FE4F6081662349F0209145023091C1
:10441000460281819281820F931F18DFDDDE0F90AB
:10442000DF91CF91FF91EF91BF91AF919F918F91CC
:104430007F916F915F914F913F912F911F910F91BC
:104440000F900FBE0F901F9018950F931F93CF934F
:10445000DF93EC0104970CF049C0F894529A5A98F3
:1044600085E08A95F1F700009C2F969595708C2F2A
:104470008570980F892F83709695969523E0CC0FC1
:10448000DD1F2A95E1F7980F8E01092BADDE00C0E4
:1044900068E0802F03DF80E18A95F1F752985A9AFD
:1044A0004A9B1DC087E090E04A991BC0FE01ED5574
:1044B000FE4F63816623F1F0209145023091460260
:1044C00084819581820F931FC1DE811113C0529A9E
:1044D0005A9A7894DF91CF911F910F91089500C05F
:1044E000DFCF019729F4529A5A9A789480E0F2CF5C
:1044F00000C0DACF71DE80E28A95F1F75A98529ABD
:1045000080E18A95F1F7CD55DE4F6881662349F049
:10451000209145023091460289819A81820F931F32
:10452000DEDE62DE789481E0D5CF08959B01BA018A
:10453000909103049430E1F48F708093E9009FEF31
:104540008091E800915085FD06C085ED8A95F1F7D0
:1045500000009111F5CF8091E80085FF09C050E07F
:1045600040E0C901B5D18091E8008E778093E800E2
:10457000089543E050E0BC0182E0D8CF40E250E033
:10458000BC0182E0D3CFCF93DF93EC0103DD48E0A1
:1045900050E0BE0181E0CADF88E0FE01ABEDB3E090
:1045A00001900D928A95E1F7DF91CF910895809166
:1045B0000204811107C01AD371D38091E200846094
:1045C0008093E2000895109202040895C6DC81E011
:1045D000D2CC6091FF0381E0611101C080E0AFCCDB
:1045E0009091030481E0943009F080E06091FF0332
:1045F000B2CC42E061EC81E075D242E261EC82E053
:1046000071D29091030481E0943009F080E06091D0
:10461000FF0385CC80910504833009F45EC030F43B
:104620008130C1F1823009F494C008958A3009F4D0
:1046300083C08B3009F46BC0893009F04DC0809184
:104640000404813209F048C0809108049091090463
:10465000029708F041C08091E800877F8093E800CE
:104660008091E80082FF34C09091F3008091F200C5
:10467000029731F48091F100813011F0863019F405
:104680008091F1008ADC8091E8008B778093E800CC
:104690005DD222C080910404813AF1F48091E80057
:1046A000877F8093E8008091080490910904892B0A
:1046B00059F468E08BED93E070E057D18091E80009
:1046C0008B778093E800089560E090E080E0F4CF7D
:1046D000809103048111C4CF089580910404813A2C
:1046E000D9F78091080490910904892BA9F780914A
:1046F000E800877F8093E8008091E80080FFFCCF8E
:1047000049DC8093F1008091E8008E77BFCF8091E3
:104710000404813209F78091080490910904892BDF
:10472000D9F68091E800877F8093E8000FD28091CE
:10473000060421DC0C94840880910404813261F623
:104740008091E800877F8093E80000D28091070481
:1047500032CC80910404813A09F0BECF8091E80008
:10476000877F8093E8008091E80080FFFCCF2EDCFB
:10477000C8CF84B7877F84BF0FB6F894A89580917F
:104780006000886180936000109260000FBE80E836
:1047900090E00FB6F89480936100909361000FBE93
:1047A000E8CB24D27BD2E2EEF0E08081846080838B
:1047B0007894DEC480EC91E040CA80910304853097
:1047C00029F480910304853011F076CC089549DCFA
:1047D00008DC8823B1F380910104882391F362D02F
:1047E0000E948408EECF08959A0140910A045091E6
:1047F0000B0400C0492F55274330510519F168F4C7
:104800004130510509F444C04230510509F445C016
:1048100090E080E050E040E025C04132510549F190
:1048200042325105A9F784E490E04EED53E0611562
:104830007105C1F08DE690E041E753E0613071050C
:1048400089F0E6CF99278130910581F0009729F012
:104850000297F1F6E8EFF2E002C0E0E2F3E08491C3
:1048600090E0AF01F901518340830895E4E1F3E062
:10487000F6CF89E090E046E353E06115710591F3CE
:1048800089E090E04FE453E06130710559F3C0CF07
:1048900082E190E04FE553E0E5CF8BE390E044E226
:1048A00053E0E0CF80E189BD82E189BD09B400FE1B
:1048B000FDCF8091D8008F7D8093D8008091E0005B
:1048C00082608093E0008091E00081FDFCCF08953C
:1048D000AF92BF92CF92DF92FF920F931F93CF932D
:1048E000DF936C01EB018A0150D1F82E811123C0B6
:1048F0000115110539F0F80180819181C81BD90B90
:10490000C80ED91EB12CA12C2097A9F08091E800E7
:1049100085FD21C08091E8008E778093E800011525
:104920001105A1F0F80180819181A80EB91EB18214
:10493000A08285E0F82E8F2DDF91CF911F910F91EE
:10494000FF90DF90CF90BF90AF9008951ED1882345
:10495000D9F2F82EF0CFF60181916F018093F1002A
:104960002197FFEFAF1ABF0ACFCFFC0180910A0455
:1049700090910B0486179707A0F06115710529F433
:104980009091E8009E779093E80090E061157105A2
:1049900051F4911108C08091E80082FF34C080E09A
:1049A0000895BC01F2CF809103048823C1F18530C2
:1049B000C1F18091E80083FD30C08091E80082FD64
:1049C000EACF8091E80080FFE1CF8091F300209151
:1049D000F200382F6115710519F02830310558F0B3
:1049E00091E02830310509F090E02091E8002E7721
:1049F0002093E800CBCF81918093F1006150710941
:104A00002F5F3F4FE7CF80910304882341F085302B
:104A100041F08091E80083FFBECF81E0089582E0FD
:104A2000089583E00895FC0180910A0490910B049D
:104A300086179707A0F06115710529F48091E800A9
:104A40008E778093E80090E06115710551F4911123
:104A500008C08091E80082FF35C080E00895BC0165
:104A6000F2CF809103048823C9F18530C9F1809188
:104A7000E80083FD31C08091E80082FDEACF80919B
:104A8000E80080FFE1CF8091F3002091F200382F01
:104A90006115710519F02830310558F091E0283082
:104AA000310509F090E08091E8008E778093E8006E
:104AB000CBCF84918093F1003196615071092F5FC3
:104AC0003F4FE6CF80910304882341F0853041F0C9
:104AD0008091E80083FFBDCF81E0089582E00895D2
:104AE00083E00895982F973028F08F708093E90025
:104AF00081E008959093E900242F762F50E09817D5
:104B000031F07091EC002091ED005091F00021FD0A
:104B100002C09F5FE8CF3091EB003E7F3093EB0007
:104B20003091ED003D7F3093ED003091EB0031602E
:104B30003093EB007093EC002093ED005093F00065
:104B40002091EE0027FDE5CF80E0089580910404D8
:104B500087FF13C08091E80082FF06C08091E800C3
:104B60008B778093E80004C0809103048111F2CF19
:104B70000895809103048823D9F38091E80080FF91
:104B8000F8CF8091E8008E77ECCF2091E40030914F
:104B9000E50095E6A9012091EC00822F817020FFAD
:104BA00006C08091E80080FF06C080E00895209153
:104BB000E80022FD1AC080910304882389F0853023
:104BC00089F08091EB0085FD0FC02091E4003091C9
:104BD000E50042175307F9F29150E1F684E0089599
:104BE00082E0089583E0089581E0089567D06ED053
:104BF000E0EEF0E0808181608083E8EDF0E080818C
:104C00008F77808319BCA7EDB0E08C918E7F8C9359
:104C100080818F7E80831092020408950F931F93EA
:104C2000CF93DF934BD052D0C8EDD0E088818F77FF
:104C3000888388818068888388818F7D888319BC78
:104C4000109203041092FF031092010410920004CA
:104C500000EE10E0F80180818B7F80838881816085
:104C6000888342E060E080E03DDFE1EEF0E08081BB
:104C70008E7F8083E2EEF0E080818160808380819E
:104C800088608083F80180818E7F80838881806145
:104C90008883DF91CF911F910F910895E8EDF0E0A7
:104CA00080818F7E8083E7EDF0E08081816080836A
:104CB00084E082BF81E080930204B0CFE8EDF0E0B1
:104CC00080818E7F80831092E20008951092DA0036
:104CD0001092E10008951F920F920FB60F921124C7
:104CE0002F933F934F935F936F937F938F939F93F4
:104CF000AF93BF93EF93FF938091E10082FF0AC0CF
:104D00008091E20082FF06C08091E1008B7F80935A
:104D1000E1002DD28091DA0080FF18C08091D80088
:104D200080FF14C08091DA008E7F8093DA0080913A
:104D3000D90080FF91C080E189BD82E189BD09B4BD
:104D400000FEFDCF81E08093030431DC8091E1001F
:104D500080FF18C08091E20080FF14C08091E200C3
:104D60008E7F8093E2008091E20080618093E20078
:104D70008091D80080628093D80019BC85E0809330
:104D8000030427DC8091E10084FF2AC08091E200C7
:104D900084FF26C080E189BD82E189BD89B5982F55
:104DA000917080FFFBCF8091D8008F7D8093D800D9
:104DB0008091E1008F7E8093E1008091E2008F7E00
:104DC0008093E2008091E20081608093E200809114
:104DD000FF03882309F445C084E08093030400DCCA
:104DE0008091E10083FF27C08091E20083FF23C010
:104DF0008091E100877F8093E10082E0809303044B
:104E00001092FF038091E1008E7F8093E1008091FA
:104E1000E2008E7F8093E2008091E20080618093C7
:104E2000E20042E060E080E05DDE8091F0008860BA
:104E30008093F000CBDBFF91EF91BF91AF919F91F9
:104E40008F917F916F915F914F913F912F910F9033
:104E50000FBE0F901F90189519BC10920304B3DB7E
:104E600075CF8091E30087FD93E090930304B7CF63
:104E70001F920F920FB60F9211242F933F934F93CF
:104E80005F936F937F938F939F93AF93BF93CF93D2
:104E9000DF93EF93FF93D091E900DF708091EC00F6
:104EA000C82FC17080FDC0E81092E9008091F00029
:104EB000877F8093F00078941ED01092E900809153
:104EC000F00088608093F000CD2BCF70C093E90094
:104ED000FF91EF91DF91CF91BF91AF919F918F9112
:104EE0007F916F915F914F913F912F910F900FBEE6
:104EF0000F901F901895AAE2B0E0E0E8F7E29AC19F
:104F000084E094E02091F100FC012193CF01F4E0D2
:104F10008C309F07B9F77EDB8091E80083FF16C1D4
:104F200080910404909105049A3008F00FC1E92F94
:104F3000F0E0E752F64D69C1803899F0823809F007
:104F400005C1809108048F70873008F0FFC08093FE
:104F5000E9008091EB0085FB882780F91092E90039
:104F600006C080910004909101049111826090919B
:104F7000E800977F9093E8008093F1001092F10091
:104F80008091E8008E77DFC0882309F4CDC082309D
:104F900009F0DCC0809106048111D0C08091080422
:104FA0008F702FEF280F263008F0D0C08093E900D3
:104FB0002091EB0020FFC2C0933031F48091EB00D0
:104FC00080628093EB00BAC09091EB009061909367
:104FD000EB0021E030E001C0220F8A95EAF7209330
:104FE000EA001092EA008091EB008860EACF81111C
:104FF000ADC0109106041F778091E3008078812B6B
:105000008093E3008091E800877F8093E8009EDD35
:105010008091E80080FFFCCF8091E300806880935E
:10502000E30082E0111183E0809303048FC0805875
:10503000823008F08BC080910604909107048C3D6B
:1050400023E0920799F583E08A838AE289834FB748
:10505000F894DE01139620E03EE051E2E32FF0E009
:1050600050935700E49120FF03C0E295EF703F5F3B
:10507000EF708E2F90E0EA30B8F0C7968D939D9335
:105080002F5F243159F74FBF8091E800877F8093CD
:10509000E8006AE270E0CE01019667DC8091E800EA
:1050A0008B778093E80052C0C096E8CF60910804E7
:1050B00070910904AE014F5F5F4F96DBBC01892BF5
:1050C00009F444C09091E800977F9093E8008981AB
:1050D0009A81A9DCE3CF8038C9F58091E800877F09
:1050E0008093E8008091FF038093F10049CF811104
:1050F0002DC090910604923048F58091E800877F9A
:105100008093E8009093FF0321DD8091FF038823C3
:1051100011F084E005C08091E30087FDFACF81E0C3
:105120008093030466DA12C080910604813071F422
:1051300081E0933009F080E0809301041092E9004F
:105140008091E800877F8093E80000DD8091E8008F
:1051500083FF0AC08091E800877F8093E8008091F8
:10516000EB0080628093EB00AA96E3E07FC0089595
:10517000CF9380910304882399F0C091E900CF7008
:105180009091EC00892F817090FD80E8C82B1092DF
:10519000E9008091E80083FDAEDECF70C093E900A6
:1051A000CF91089523DD109203040895E8EDF0E017
:1051B0008081806180838AE18A95F1F700C08091C7
:1051C000D90081700895A1E21A2EAA1BBB1BFD0114
:1051D0000DC0AA1FBB1FEE1FFF1FA217B307E407D6
:1051E000F50720F0A21BB30BE40BF50B661F771F2E
:1051F000881F991F1A9469F760957095809590950E
:105200009B01AC01BD01CF010895EE0FFF1F05907A
:10521000F491E02D09942F923F924F925F926F92FA
:105220007F928F929F92AF92BF92CF92DF92EF9236
:10523000FF920F931F93CF93DF93CDB7DEB7CA1BB7
:10524000DB0B0FB6F894DEBF0FBECDBF09942A88E2
:10525000398848885F846E847D848C849B84AA848A
:10526000B984C884DF80EE80FD800C811B81AA8117
:10527000B981CE0FD11D0FB6F894DEBF0FBECDBFE2
:10528000ED010895FB01DC0104C08D9101908019AE
:1052900021F441505040C8F7881B990B0895FB0139
:1052A000DC0102C001900D9241505040D8F70895A2
:1052B000F999FECF92BD81BDF89A992780B50895DE
:1052C000A8E1B0E042E050E02FC0DC01A40FB51F20
:1052D0004150504040F0CB01840F951F2E9105D0D6
:1052E00041505040D8F70895262FF999FECF92BD2E
:1052F00081BDF89A019700B4021639F01FBA20BD9B
:105300000FB6F894FA9AF99A0FBE08950396272FCC
:10531000ECDFEADF252FE9DF242FE7CF0196272FE7
:10532000E4DFE2CFDC01CB01FC01F999FECF06C03E
:10533000F2BDE1BDF89A319600B40D924150504053
:10534000B8F70895F894FFCFB406B406F606F6064B
:105350004F07DC06DC06DC066B07D407E007E00736
:10536000CF1A431BD71AA11AA51ADB1AA91ADF1ADA
:10537000EB1AB51A3C1BB91AEF1ABD1AF31A1B1B0C
:10538000C11AF71A221BC71AFD1A051BAD1AE31A18
:10539000B11AE71ACB1A011B111B2B1B3A1B9B1AC4
:1053A000D31A4A1BE61CEC1CD61CE01CF21CF81C91
:1053B000FE1C9C27C427A628C427A628F727172841
:0653C000A6286B287728E7
:1053C6004202737C0000003C02737C000000000077
:1053D60000000000501D611D661D000096010000C2
:1053E60000000000501D611D661D000092010000B6
:1053F60000000000501D611D661D00008E010000AA
:1054060000000000501D611D661D00008A0100009D
:1054160000000000501D611D661D00008601000091
:1054260000000000501D611D661D00008201000085
:1054360000000000501D611D661D00007E01380041
:1054460031003600300010002F0013003400230214
:1054560031002D002E0235023500FF00AA00F102B0
:10546600110301000000010000000000000004011B
:10547600000000040500000000000001000001001B
:10548600D81FC322BE229522B922E200E900EA0013
:10549600B500B600B700CD008301CC008A019201A9
:1054A60094012102230224022502260227022A024F
:1054B600B300B4006F0070009F01CB019F02A002F1
:1054C600818283E200E900EA00B500B600B700CDAC
:1054D600008301CC008A0192019401210223022457
:1054E600022502260227022A02B300B4006F0070CA
:1054F600009F01CB019F02A00281828331F7F6F55E
:08550600F4946697C637030018
:00000001FF
