:1000000010C200002BC2000029C200000C94B021D5
:1000100025C2000023C2000021C200001FC2000050
:100020001DC200001BC200000C9496260C9463278E
:100030000C94352013C2000011C200000FC2000052
:100040000DC200000BC2000009C2000007C2000080
:1000500005C200000C94D72001C20000FFC10000BF
:10006000FDC10000FBC10000F9C10000F7C10000A4
:10007000F5C10000F3C10000F1C10000EFC10000B4
:10008000EDC10000EBC10000E9C10000E7C10000C4
:10009000E5C10000E3C10000E1C10000DFC10000D4
:1000A000DDC10000DBC10000D9C100003400360012
:1000B000370013001C0004001224082218280C002A
:1000C000330014000D000E001B00000000000000B3
:1000D000417E2C210F00150006000A0009001600C1
:1000E000113417320B3807001D0019001A001000D8
:1000F0000500000000000000427E283114001A00B4
:1001000008001500170004001600072209000A0065
:100110001D001B0006001900050000000000000083
:10012000417E2C00025712000C0018001C00330006
:100130000F000E320D000B00055737000457035710
:100140001100000000000000427E2800437E447E33
:10015000457E467E2A082B022B00E100E3002A049C
:10016000477E487E497E4A7E4C0400000000000025
:10017000000000004F12521251125012501A4F003C
:1001800052005100500050184F1452145114501482
:100190005016000000000000407E2C0F1E021F02BF
:1001A00020022102220259005A005B005C005D001F
:1001B0002F0230022D000157005700000000000000
:1001C0002D02045231003102250224022302620072
:1001D000610060005F005E002702260230002F00F1
:1001E0003800000000000000000000004B7E00000E
:1001F000220A210A210B00000000470048000608DF
:100200005000510052004F0019080000000000008B
:10021000417E2C0000000000A800AE002900BB00B9
:10022000A900AA00BC002A004F0052005100500053
:100230000000000000000000427E280007220E326D
:10024000000008221732000000000000000000003B
:100250002A2B280000000000000000000000000021
:1002600000000029000000002C1E3420212224342C
:100270002627252E362D3738271E1F2021222324FE
:1002800025263333362E37381F0405060708090A9A
:100290000B0C0D0E0F101112131415161718191A36
:1002A0001B1C1D2F3130232D350405060708090AB4
:1002B0000B0C0D0E0F101112131415161718191A16
:1002C0001B1C1D2F3130354C0000000000000000C9
:1002D000000000000000000000000000000000001E
:1002E0000000000000000000000000007E0F00D4AD
:1002F000FFFFFFC7000000781A03430068006F008B
:1003000063006F006C006100640020005200470031
:10031000420000000A036A006D006E0077000000D2
:100320000403090409023B00020100A0FA090400C9
:10033000000103010100092111010001224400070D
:100340000581030800010904010001030000000900
:100350002111010001226D00070582032000011216
:1003600001000200000008041850300100010200E2
:100370000105010980A101850319012AB7001501B2
:1003800026B700950175108100C0050C0901A10177
:10039000850419012AA002150126A00295017510F5
:1003A0008100C005010906A1018506050719E0299C
:1003B000E715002501950875018102050719002937
:1003C000EF1500250195F075018102050819012935
:1003D00005950575019102950175039101C005010F
:1003E0000906A101050719E029E71500250195086F
:1003F000750181029501750881010507190029FF22
:10040000150026FF009506750881000508190129C9
:10041000051500250195057501910295017503915A
:1004200001C011241FBECFEFDAE0DEBFCDBF12E066
:10043000A0E0B1E0ECE1F4E502C005900D92A43338
:10044000B107D9F723E0A4E3B2E001C01D92AA3FAF
:10045000B207E1F70E94CD150C94CD29D1CD809142
:100460003B02882321F010923B028AEA65D48091F6
:100470003A02882321F010923A0288E85DC4089578
:10048000CF93FB0185342EE7920709F4D9C008F514
:1004900081342EE7920709F465C060F48932910532
:1004A00009F44EC080349E4709F450C0C1E08C2F3F
:1004B000CF910895258183343EE7930709F4B8C0AE
:1004C00008F488C0222309F44BC088E830D480E3C4
:1004D000B5C088342EE7920709F4C3C0F8F4863417
:1004E0002EE7920709F4B4C087349E47F9F6858158
:1004F000882351F1C0913B02C111B0C080913A02F2
:10050000882321F010923A020E947A0D8AEA0FD4D1
:100510008BE206D481E080933B02C9CF8A342EE778
:10052000920709F4BEC008F4B4C08B349E4709F0AA
:10053000BDCF85818823A1F08CECF9D38CE07EC0FF
:100540008581882309F43EC0C0E0B1CF858188232E
:10055000D9F383E090E05ED68FEFE9D38CE267D3E6
:10056000FED5F2CF85818823A1F00E94942090933C
:1005700039028093380284E075D6882311F084E034
:100580008FD682E06FD6C82F82E0C111DDCF7AD638
:100590008ECF65DF82E066D6882311F082E080D6B8
:1005A00082E060D68111D0CF0E9494202091380241
:1005B00030913902821B930B8A3A910508F0C4CF1F
:1005C00089E2AED30E94B416882309F4BDCF0E94FD
:1005D000C616BACF222399F00E9494209093370236
:1005E0008093360284E03ED6882311F084E058D60A
:1005F00083E038D6C82F8111A7CF83E0C8CF2FDF83
:1006000083E030D6882311F083E04AD683E02AD6EF
:1006100081119ACF0E9494202091360230913702A6
:10062000821B930B8A3A910508F08ECF8AE2C9CFDC
:10063000222309F495CF88E87AD38FE2F8D284CFC9
:100640008581882309F48CCF83E371D38BE2F6CFC5
:100650008581882309F484CF81E1F7CF8BE260D3D1
:1006600073CF8581882309F46FCFC0913A02C111FD
:10067000F5CF80913B02882321F010923B020E942B
:100680007A0D88E854D38BE24BD381E080933A0211
:100690000ECF8581882309F463CF81E148D380E5BB
:1006A000CDCF8581882309F45BCF81E140D38FE4EE
:1006B000C5CF8530B8F46830A8F4453098F450E0E0
:1006C00095E0699F400D511D1124FA0198E2899F20
:1006D000E00DF11D1124EE0FFF1FE455FF4F859132
:1006E0009491089581E090E00895E3CF089582E029
:1006F00090E008958230910550F447E0489F9001C2
:10070000499F300D1124C90180509F4F089590E0FA
:1007100080E00895EFCF089586E090E00895863058
:10072000910540F424E0880F991F2A95E1F7825F34
:100730009E4F089590E080E00895F1CF08959C01C8
:100740003A9521153F4150F5FC01EE27F170BC01AF
:1007500066277270AC01442754709C0122273870C0
:1007600094FF0EC080E1EF2B09F480E0672B09F0C5
:100770008062452B09F08064232B89F080680895FE
:1007800081E0EF2B09F480E0672B09F08260452BB4
:1007900009F08460232B19F08860089580E00895A3
:1007A000CF93DF93EB01CBDFFE010995DF91CF9172
:1007B0000895CF93DF93EC01805E9109089720F0B4
:1007C00068E978E0209711F467E976E0CE01E8DF88
:1007D0008C2F2DD2DF91CF910895CF93DF93EC0131
:1007E00063D2CE01805E9109089720F06DE978E030
:1007F000209711F46CE976E0CE01D2DFDF91CF9142
:10080000089581E00895FDCF089581E0089538CEE0
:1008100008950895FECF0895A6E0B0E0E2E1F4E087
:100820000C94452949835A839E83309148028981DB
:100830009A81311117C03E81332389F0222379F048
:10084000D8D5182F682F89819A81B2D569817A818C
:10085000812F0E94FC102696E3E00C946129B9D503
:10086000182FF4CFC6D569817A81F3CFFC01262FEA
:1008700087819085009739F440815181628173812D
:1008800084819581C9CF0895CF93DF93EC0161E016
:10089000EDDFBE01B8DF882351F061E0CE01E6DF75
:1008A000BE010E9483188170DF91CF91089580E08E
:1008B000FACFCF93DF93EC0160E0D8DFBE01AADF6F
:1008C000DF91CF91089521E030E0A90102C0440FEB
:1008D000551F8A95E2F7CA018DC4CF93C82F81E0D6
:1008E00090E00C2E02C0880F991F0A94E2F70E9434
:1008F0008E0E8C2FE8DFCF91089581E00895FDCF13
:100900000895CF93C82F2BD48C2FF9DF2FEF84E3DA
:100910009CE0215080409040E1F700C00000CF9162
:10092000089581E0EEDF0C94FB2080E0EADF0C9478
:100930000C210F931F93CF93DF938C0161E096DF1F
:10094000EC01B8010E94A11D882321F061E0C801DB
:100950008DDFEC01B801CE015ADF811106C080E0C5
:10096000DF91CF911F910F910895B801CE010E94A0
:1009700019168823A1F3B801CE010E94C51D882352
:1009800071F3B801CE010E94481A882341F3B801DF
:10099000CE010E94F51C882311F3B801CE010E94FC
:1009A000A21A8823E1F2B801CE010E947A1A8823A4
:1009B000B1F2B801CE010E943A12882381F2F80107
:1009C0008581882361F0C330FCE7DF07D9F050F45C
:1009D000C115ECE7DE07A1F0C130DC47A9F0C80182
:1009E00014DFBECFCB358CE7D80799F0CC35ECE7D8
:1009F000DE0761F0CA35DC4791F70E946F0EEFCF3A
:100A000090DFADCF0E94730E90DFA9CF0E94670EDA
:100A1000E6CF0E94710EE3CF0E941620B2C0B3D081
:100A20000C941A202F923F924F925F926F927F9276
:100A30008F929F92AF92BF92CF92DF92EF92FF92EE
:100A40000F93CF93DF931C0129013A016B0181E0E1
:100A5000C81AD108E101CC0DDD1D1882F12CE12C62
:100A60008AE0882E912CA12CB12CEC14FD0498F076
:100A7000C101DF91CF910F91FF90EF90DF90CF9068
:100A8000BF90AF909F908F907F906F905F904F90AE
:100A90003F902F900895C301B201A50194010E94D7
:100AA0000E29605D603319F4E114F10431F0411452
:100AB00051046104710409F4602F6A93C301B20107
:100AC000A50194010E940E2929013A018FEFE81A2D
:100AD000F80ACBCF0F932091860130918701281718
:100AE000390721F420914202261789F0909387015B
:100AF00080938601609342029C0150E040E0062F03
:100B000066E070E08CE392E08DDF0F9108958CE356
:100B100092E0FBCF292F332740E02115310511F05A
:100B2000C90148E09C0164E0369527956A95E1F794
:100B30002115310511F04C5FC9019C0136952795AF
:100B4000369527952115310511F04E5FC90196950F
:100B50008795892B09F04F5F842F089581E00895D0
:100B60000895CF93DF93D82FF9DFC82F882311F092
:100B70008D2FF6DF8C2FDF91CF9108950895F1CF5F
:100B8000089580E0FCCF0E944D1EF9CFCF930E94C4
:100B90004D1EC82F809143028C1771F0C093430201
:100BA0000E94A02060934402709345028093460205
:100BB000909347028C2FE3DFCF910895AFE0B0E030
:100BC000E4EEF5E00C9444294A875B876C877D87C7
:100BD0008E879F879111A1D71F821886198686E07C
:100BE000FE013A96DE01119601900D928A95E1F789
:100BF0008D8181110EC009811A812B813C814D812B
:100C00005E816F8178858985CED62F96E4E00C943D
:100C10006029CE01019638DE8111EDCFF6CFFC01BF
:100C20002481213019F48081918114C40895CF93D7
:100C3000C82F882389F08CEF8C0F813A78F48C2FA1
:100C40000E94E51E882321F08C2F0E94871FF3D776
:100C50008C2F0E94701FEFD7CF91089580E28C0FE8
:100C6000883040F4C77081E001C0880FCA95EAF768
:100C700034D7F1CFEBE5EC0FE33040F4F0E0E45192
:100C8000FE4F808190E00E947A1EE6CFC85ACB3199
:100C900018F7EC2FF0E0EE0FFF1FEA54FE4F8081B3
:100CA00091810E949F1ED8CF882319F19CEF980F45
:100CB000913A18F40E94871FBEC790E2980F9830AF
:100CC00048F4877091E001C0990F8A95EAF7892F5F
:100CD0000AD7F2CF9BE5980F933020F490E080E0A4
:100CE0000C947A1E885A8B3120F490E080E00C94AA
:100CF0009F1E08951F93CF93DF93182FEB0197DF6B
:100D0000209731F4812FD0DFDF91CF911F9108958B
:100D10008FE99FE00197F1F700C000002197F0CF25
:100D200070E060E0893311F460E570E0E3CF882380
:100D300011F0D3D680C70895882311F0D4D67BC78D
:100D40000895B0E0A0E0E7EAF6E00C943F296C01DA
:100D5000D62FC72FFC011581068102950F70B3D6DF
:100D6000E82E8823E9F0E12E1123D1F08C2F807F2B
:100D7000803461F080E28D0F8830F8F08C2F807E17
:100D8000803221F4D230C8F00023B9F08091D20330
:100D900082FF13C082E073D796D691E0E82EE92651
:100DA000BC2EB2949FE0B922FBE0FB1580F1EB2D45
:100DB000F0E0E153F64D0C943029E12CF1CF0C2FEB
:100DC0000F70C07F11F00295007F112381F0002386
:100DD00049F080E28D0F883010F0D11105C0802FCE
:100DE0007CD629D78D2F4CC0802F8AD6FACF8D2F55
:100DF0005BDF002361F080E28D0F883010F0D111AD
:100E000003C0802F70D602C0802F80D614D7EB2D60
:100E1000E850FF0B349718F40E944D1EB0DEEE2010
:100E200059F04DD680FD08C0F601158242D62AD26F
:100E3000C60160D13ED634D2CDB7DEB7E9E00C941E
:100E40005B292C2F2F70F22EC07FC03219F0F29444
:100E500080EFF822DD2341F0D13089F1112309F42C
:100E600039C00023D1F0BECF8091D20382FD11C0E2
:100E7000112341F0FF2019F08F2D2FD6DCD680E012
:100E8000D6DEC5CF80E010DFFF2009F4C0CF8F2D64
:100E9000B9CF112359F0011103C08F2D48DFB7CF0F
:100EA000013009F0B4CF8F2D4FD6B1CF0111AFCFA4
:100EB0008F2D42DF8F2D53D68F2D38D6A8CF1123FB
:100EC00021F0023008F0A3CFE8CF0111A0CF8F2D81
:100ED00033DF9DCF0023D9F3D93349F43FEF87EEB9
:100EE00093E0315080409040E1F700C000008D2F2A
:100EF000DBDE8DCF8C2F86958695837069F08130EF
:100F000009F085CF8D2F9C2F9370111102C080E0C6
:100F100090E00E949F1E7BCF8D2F9C2F937011110C
:100F200002C080E090E00E947A1E71CF8C2F837007
:100F300081F511116CCF4D2F429546954770440FA6
:100F4000440F2D2F2F7030E0042E02C0220F331FCC
:100F50000A94E2F790E080E0D4FF09C08FE090E0CF
:100F600002C0880F991F4A95E2F780959095C69523
:100F7000C695C370822B932BC23039F040F4C13038
:100F800011F041D144CF38D142CF44D140CF32D1FA
:100F90003ECF8695112311F08C2F8170882309F4A0
:100FA00036CF4D2F429546954770440F440F2D2F55
:100FB0002F7030E0042E02C0220F331F0A94E2F794
:100FC00090E080E0D4FF09C08FE090E002C0880F7D
:100FD000991F4A95E2F780959095C695C695C3707E
:100FE000822B932BC23039F040F4C13011F07DD107
:100FF0000ECF74D10CCF80D10ACF17D108CFCF70CC
:10100000112321F08C2F3ED18D2F48CF8D2F94DED0
:101010008C2F46D1FCCED23F31F160F4D03FB9F0F5
:10102000D13F81F0112309F43BC00111DBCE8C2F9D
:101030008F711DC0D33FE9F0D43FA1F78091D20357
:1010400082FD1FC08C2F8F71112319F310C0112343
:1010500031F00111DCCE8C2F8F7132D1D8CE02301D
:1010600008F0D5CEF8CF8C2F8F711111D2CF0AD1C5
:10107000CECE112321F08C2F8F71FAD0C8CEDBD0C9
:10108000C6CE112329F063E08C2F8F71E1D5BFCE3E
:1010900081E0F5D5023008F4BACE82E0F0D5B7CEC3
:1010A000002359F0D93309F022CFEFEFF7EE23E018
:1010B000E150F0402040E1F718CF8C2F8F71A9CF7D
:1010C0000F931F93CF93DF93EC018F819885009747
:1010D00061F07CD78C0117D18CD0B801CE0131DE04
:1010E000DF91CF911F910F910895688179818D8152
:1010F000BAD1F0CFCF93DF93EC018C81882381F0BC
:10110000CE0117DC81110FC0DED4882349F08D8118
:10111000882331F08091D20382FF02C082E0AFD5F4
:10112000DF91CF910895CE01CBDFCE01C2DBF8CFA6
:10113000882311F0E5D47FC50895882311F0E6D403
:101140007AC5089590E080E00E947A1E90E080E0E9
:101150000E949F1EE2D46FC50E949E1FF3CFCAD487
:10116000FBCF92959F70963091F058F4925F9F70EC
:10117000923058F4803F19F030F4883E30F481E02A
:1011800008959A5FF4CF843FD1F380E00895883EBC
:10119000B0F3813FD1F7F3CFFC018481882351F074
:1011A00087819085009711F011D7DBCF80819181E5
:1011B00051D1FBCF80E00895A6E0B0E0E2EEF8E088
:1011C0000C9446292696E2E00C946229A9E0B0E04E
:1011D000ECEEF8E00C9444292996E4E00C946029A4
:1011E0000895FECF0895FDDF9093600280935F0223
:1011F00008950895F8CF089520915F02309160021C
:10120000822B932BF0CF20915F02309160028223DA
:101210009323E9CF20915F023091600282279327C8
:10122000E2CFDECF0895FDCF0895FDDF90935E02FB
:1012300080935D02089590E080E0F7CF009729F455
:1012400081E0662371F080E00CC021E030E002C054
:10125000220F331F6A95E2F72823392381E0232BDD
:1012600091F30895682F80915D0290915E02E6CF20
:1012700021E030E0A90102C0440F551F8A95E2F732
:10128000CA01D3CF21E030E002C0220F331F8A957C
:10129000E2F780915D0290915E02822B932BC5CF85
:1012A00021E030E002C0220F331F8A95E2F720953B
:1012B000309580915D0290915E0282239323B5CF99
:1012C00021E030E002C0220F331F8A95E2F78091BF
:1012D0005D0290915E0282279327A7CF20915D0245
:1012E00030915E02822B932BA0CF20915D02309132
:1012F0005E028223932399CF20915D0230915E029A
:101300008227932792CF0895262F277091E001C05E
:10131000990F2A95EAF723E0769567952A95E1F7E4
:10132000660F771F660F771FFA01E60FF71F50E071
:1013300040E0682F70E08191DF0111979B01042E3E
:1013400002C0369527950A94E2F721702195282747
:10135000292328272C934F5F5F4F4430510559F7BD
:101360000895A82FA77023E0969587952A95E1F711
:10137000880F991F880F991FFB01E80FF91F50E094
:1013800040E080E0219130E00A2E02C0369527959A
:101390000A94E2F721703327042E01C0220F0A9429
:1013A000EAF7822B4F5F5F4F4430510559F708959C
:1013B000262F983068F4853058F4682F70E085E067
:1013C000989F600D711D112449E452E0822F9CCF3B
:1013D0000895292F983058F4853048F490E069E456
:1013E00072E035E0239F800D911D1124BACF80E07B
:1013F0000895B0E0A0E0EFEFF9E00C943F297C0104
:1014000000915D0210915E0280915F0290916002F6
:10141000082B192BCFE0D0E0CC24C394D12CBC2EC8
:10142000C6010C2E02C0880F991F0A94E2F7802390
:101430009123892B49F4219790F7B12C8B2DCDB7AF
:10144000DEB7E9E00C945B29B7018C2FE0D6019759
:1014500091F3F4CFCF93DF93EC01CBDFBE01D7D66E
:10146000DF91CF9108951F93CF93DF93EB0190917C
:101470004802992331F0CB01EDDFDF91CF911F912D
:101480000895882351F0CB01B4DF182F682FCE01C7
:101490008FDFBE01812FBBD6F0CFCB019ADF182F93
:1014A000F8CFFF920F931F93CF93DF93C091610208
:1014B00089E0F82E809162028C1305C0CDB7DEB7AB
:1014C000E5E00C945F29D0E0FC9EF001FD9EF00D5C
:1014D0001124ED59FD4F0081118122813381448116
:1014E000558166817781808571DE2196C770E2CF54
:1014F0000F931F930091AB021091AC022091AD02AB
:101500003091AE024091AF025091B0026091B102B1
:101510007091B2028091B30259DE1F910F9108952C
:101520000F931F93CF93DF938091B102807F09F0D7
:101530004FC08091B002882309F44AC0E091610253
:10154000D09162021091AC020091AB024091AD02C9
:101550005091AE026091880170918901C9E0DE1757
:10156000B9F18E2F90E0EC9FF0011124ED59FD4F61
:101570002481222391F1C89FF001C99FF00D11240D
:10158000DF01AD59BD4F11962C911197211325C044
:101590002C91201322C015962C91159721111DC056
:1015A00012962D913C91241B350B26173707A8F472
:1015B0008091B1028F7080618093B102E759FD4F35
:1015C00080818F70806180838BEA92E093DD69DF98
:1015D000DF91CF911F910F910895FC013196E77033
:1015E000BECF482F209161029091620259E02913E9
:1015F00002C080E0089530E0529FF001539FF00D4B
:101600001124ED59FD4F8181681306C08081481374
:1016100003C085818111EECF2F5F3F4F2770E7CF49
:10162000A8E1B0E0E6E1FBE00C943C298C0186E007
:10163000F801DE01539601900D928A95E1F7D801E9
:1016400014968C9114971596EC9015979BEAA92EF9
:1016500092E0B92E9091AF0291111AC08823A9F09F
:10166000EE2089F0C80198DDF82E882361F089E02A
:10167000F801D50101900D928A95E1F7C501CFDA05
:101680004FDF36DF48C0C80135DDFF24F39443C087
:10169000F801C080D18082809380F090B0022091C8
:1016A000AD023091AE02A401421B530B9A0140914E
:1016B000880150918901FF2009F41EC124173507C4
:1016C00008F0C0C0882339F19091AC028091B1023A
:1016D000282F207F09F069C09D1122C09091AB0294
:1016E000C9121EC04091B2025091B30227813085C9
:1016F00042175307A9F4E11052C08F7080618093A4
:10170000B102F6DE8BEA92E0F5DC8091B102D801FD
:1017100016968C93F12C8F2D6896ECE00C9458293A
:10172000E1103DC06D2D8C2D5CDFE82E882361F02B
:101730008BEA92E0DFDC89E0EBEAF2E0DF011D9268
:101740008A95E9F7D5DEE6CFCB8ADC8A8B899C893E
:1017500081DE292F22952F70243058F49F7022307B
:1017600080F0992391F0F8019681907F71F4FE2C1E
:10177000D2CF2A5F2F70223060F0C801BBDCEF2C83
:10178000F6CF992311F0882391F3805E883078F3A7
:10179000F4CF803F60F3815F833078F7E8CF8091AA
:1017A000B10281608093B102B5CF9D111EC09091AE
:1017B000AB02C9121AC04091B2025091B3021796FF
:1017C0002D913C9118974217530779F4E1100DC001
:1017D00016968C93C8018EDC89E0F801ABEAB2E082
:1017E00001900D928A95E1F74CCFC801D5DC882392
:1017F00009F449CFEE2009F446CF8091B10280323E
:10180000B0F02091AB023091AC023B872A879D86D5
:101810008C869091AF029E871F86888B8091B20242
:101820009091B3029A8B898BCE010A9663DC89E092
:10183000F801ABEAB2E001900D928A95E1F770DE13
:1018400057DE23CF9091B102292F207F81F4682D9C
:101850009E8A8D8AA6017E899E2DAEDC8BEA92E05F
:1018600049DC89E0F50111928A95E9F76BCF88236D
:1018700009F451CF8091AC028D111BC08091AB0255
:10188000C81217C04091B2025091B30217962D9121
:101890003C9118974217530761F4E1100AC016965D
:1018A0009C93C80127DC89E0F50111928A95E9F73C
:1018B00032CFC80171DC882309F4E5CEEE2009F4AB
:1018C000E2CE8091B102803208F4B1CF2091AB0218
:1018D0003091AC023A8329839C828B829091AF0233
:1018E0009D831E828F838091B2029091B30299876B
:1018F0008887CE0101969ACF2417350708F046C095
:10190000882309F4C2CEFE2CEE2009F4BCCE8091CF
:10191000AC028D112FC08091AB02C8122BC0409138
:10192000B2025091B30217968D919C911897481767
:10193000590701F52A3A3105A0F49091B10290FDC2
:1019400010C0907F71F08091B10216968C9316971B
:10195000903F09F43FCF982F907F905F8F70892B35
:1019600037CF89E0F801ABEAB2E001900D928A9599
:10197000E1F7D1CEC80110DC811159CF8091B102BD
:1019800081608093B102C801B5DBC5CE682D9E8A07
:101990008D8AA6017E899E2D0FDC89E0F5011192CA
:1019A0008A95E9F76ECEA2E1B0E0E9EDFCE00C9497
:1019B00043290A871B872C873D874E875F87688B63
:1019C000798B8A8BCE010A962BDE8823C1F04E8557
:1019D000442349F00A851B852C853D855F856889F0
:1019E00079898A89F3DB89E0F82E809161029091F0
:1019F000620289133BC06296E5E00C945F2989E09E
:101A0000FE013A96DE01119601900D928A95E1F75A
:101A10008E85882341F32091620230E0C90101964E
:101A200087709927409161024817190691F099E053
:101A3000929FD001939FB00D1124AD59BD4FFE016F
:101A4000319601900D929A95E1F78093620229DD1B
:101A5000CACF85DB109262021092610289E0EBEA44
:101A6000F2E0DF011D928A95E9F7BDCF8F9DC0019D
:101A700011248D599D4FD4DD882309F4BCCFE0910A
:101A80006102FE9EF0011124ED59FD4F008111818C
:101A9000228133814481558166817781808596DBFF
:101AA0008091610290E0019687709927809361028E
:101AB0009CCF8091DC0286958695869508958091CD
:101AC000DC02877008959091DC02977081E009F440
:101AD00080E0089580910803089590910803892B70
:101AE000809308030895809590910803982390931C
:101AF000080308951092080308958091070308953C
:101B000090910703892B8093070308958095909106
:101B100007039823909307030895109207030895ED
:101B20008091DE0208950895FECF08959091DD0220
:101B3000292F282329F0809589238093DD02F4CF73
:101B400008950895FECF08959091DE02292F28234D
:101B5000281721F0982B9093DE02F4CF08959091EE
:101B6000DE02292F282329F0809589238093DE0225
:101B7000E9CF08958091DE02882321F01092DE02E1
:101B800080E0E0CF0895CF93C091080380910703D0
:101B9000C82B8091DE02882329F0C82B0E94C41E26
:101BA0008111E8DF8C2FCF910895CF93DF93C091FF
:101BB0008C01D0918D01E7DF8883C0918C01D09199
:101BC0008D0148E050E064ED72E0CE010E946D2985
:101BD000892B59F088E0FE01A4EDB2E001900D924E
:101BE0008A95E1F7CE010E94611EDF91CF910895A1
:101BF000CF93DF93C0918A01D0918B01C4DF898399
:101C0000C0918A01D0918B0140E250E064EB72E018
:101C1000CE010E946D29892B59F080E2FE01A4EBD0
:101C2000B2E001900D928A95E1F7CE010E946C1E00
:101C3000DF91CF9108950E94F51F813029F48091A2
:101C4000D10387FF01C0D4CFB0CF0895FECF089550
:101C50009091D20392FF0EC098E0899F90011124C9
:101C6000622B6093DC020EDB8091DC028695869508
:101C70008695ECCF07CB1092DC0280E0E7CF909105
:101C8000DC02809589238093DC02282F277059F489
:101C9000891749F09091D20392FF05C086958695E9
:101CA0008695FEDAE8CF08959091D20392FB222721
:101CB00020F9281759F080FB92F99093D203809174
:101CC000D1039091D20333D082E0D9CF089580918F
:101CD000D20382FB882780F991E08927E5CF81E054
:101CE000E3CF80E0E1CF6FEF7FEF90E080E00C94F6
:101CF000B92990E080E00E948B2921E0853E9E4F2B
:101D000009F020E0822F089582E090E00C9483296E
:101D100083E090E00E94832990E00895682F83E09B
:101D200090E00C949F2984E090E00C948B29BC01F6
:101D300084E090E00C94B929AB01BC018FE090E005
:101D40000C94B129AB01BC0183E190E00C94B12962
:101D500060E070E0CB01F6CF60E070E0CB01ECDF3B
:101D6000F7CFA8E0B0E0E7EBFEE00C94462965EE83
:101D70007EEF90E080E00E94B92960E082E090E090
:101D80000E949F2981E090E09093600280935F021F
:101D9000C5DF60E074E184E090E00E94B92960E072
:101DA00086E090E00E949F2960E087E090E00E943A
:101DB0009F2940E050E0BA0188E090E00E94B129FC
:101DC00060E083E290E00E949F2960E08CE090E078
:101DD0000E949F2960E08DE090E00E949F29198277
:101DE0001A821B821C821D821E821F82188648E076
:101DF00050E067E170E0CE0101960E94902940E03A
:101E000050E0BA018FE190E00E94B129A5DF289649
:101E1000E2E00C946229A5CF0895682F8EE090E04F
:101E20000C949F29A6E0B0E0E8E1FFE00C9444297F
:101E30000E9494208C018091090390910A038017DD
:101E4000910781F019821A820E949420682F49819B
:101E50005A81792F80E090E00E94DE0510930A03FA
:101E6000009309032696E4E00C946029E8D260937D
:101E70001703709318038093190390931A036093C8
:101E8000130370931403809315039093160308951E
:101E900008950895FDCF08950895FECF089581E037
:101EA000089588E392E18AD6F4DFF4CF99C40895C7
:101EB00008950895FDDFFDCF1CDF811101C0ABDF68
:101EC00023DF80931B032FDF9093D2038093D103F2
:101ED00092D61EDF8FD980915D0290915E02A3C9D8
:101EE0000E948B2087D281D4D9D3E6DF0E94BE0521
:101EF0000E94301A87D4D1CF73D4882329F00E944E
:101F00002A1E0E9444184EC70895A6E0B0E0EBE8F0
:101F1000FFE00C943D29C3DF811108C083DFECDFB3
:101F20000E94C6052696EBE00C945929D6D38BE087
:101F3000A82E83E0B82E750110E0F70101917F0112
:101F4000812FB0D21F5F183009F43DC00817A9F3E4
:101F500080911B0381FDACD2A9DFC82E10E099242B
:101F60009394812F9FD2082FF50181915F0108176B
:101F700029F1D02ED826F12CEE24E3948D2D8E213C
:101F8000A9F0CC2099F0F9821A830E9494209C83B6
:101F90008B839D8291E0802F8E2109F490E049810E
:101FA0005A816B817C818D810E94DE05F394EE0C59
:101FB000F5E0FF12E3CFF501319700831F5F183082
:101FC00081F654DFACCF0813C3CFA8CF1F93CF93B4
:101FD000DF931FD1EC01C11580E5D807F0F5C115DD
:101FE00080E4D80708F09AC0C03ED10520F5CD3C6A
:101FF000D10508F082C0C83AD10578F4C53AD105B8
:1020000008F073C0C130D10519F1209709F1C4302F
:10201000D105F0F4D0E0C0E01BC0C33CD105D0F73F
:10202000C85AD0E0CC0FDD1FC151DE4F0990D881D6
:10203000C02DD4640DC0C11580E2D80708F0CCC013
:10204000C11581E0D80708F05AC0C83ED10510F785
:10205000CE01DF91CF911F910895C03682E5D80758
:1020600018F5C03482E5D80708F068C0C03282E5B0
:10207000D80708F05CC0C11582E5D80708F493C002
:102080002C2F2695269580E2289F900111248C2FD5
:102090008370C1E0D0E002C0CC0FDD1F8A95E2F76B
:1020A000C22BD32BDD68D4CFC03A82E5D80760F4C9
:1020B000C03882E5D80708F456C0CF71D0E0DC2FD5
:1020C000CC27C46FD06AC4CFC03C82E5D80708F4DF
:1020D0005FC0C03E82E5D80708F09CCFDC2FCC273C
:1020E000CC27DF71C06FD06AB3CFC55AD0E0CB5DCB
:1020F000DD4FC881D0E0D064ABCFD065A9CF8D2FA4
:102100002AD1182FCE01992784D0C12FD0E0DC2FFF
:10211000CC27CC27DF71C82BD92B9ACFCE0199279A
:1021200078D0CC27DF70C82BD92BD06A91CFCF7154
:10213000D0E0DC2FCC27C16FD06A8ACF2C2F269518
:102140002695277080E2289F900111248C2F8370A0
:10215000C1E0D0E002C0CC0FDD1F8A95E2F7C22BB0
:10216000D32BDC6875CF2C2F26952695277080E21F
:10217000289F900111248C2F8370C1E0D0E002C011
:10218000CC0FDD1F8A95E2F7C22BD32BDA6860CF24
:102190008C2F8F71E0D0C82FD0E0DC2FCC27CC273C
:1021A000DF71D06255CF8C2F8F71D5D055E0D69589
:1021B000C7955A95E1F7CF70D0E0DC2FCC27282FB8
:1021C00030E084FF05C044E0220F331F4A95E1F759
:1021D000C22BD32BD0693CCF8D2F8F71BCD0182F41
:1021E000CE01992716D0C12FD0E0DC2FCC27CC27E9
:1021F000DF71C82BD92BD5CF462F783028F4653026
:1022000018F4672F0C94750390E080E00895F4DFD4
:10221000DDCE82389105B9F1B0F48133910509F42E
:102220007DC048F48932910509F46DC08A32910568
:1022300009F47BC008958533910509F45FC08933A3
:10224000910509F10895833E9105D9F138F4803E56
:10225000910529F1823E910579F10895863E910517
:10226000D9F1873E910509F43EC0843E910541F5C0
:102270002091D20321FF24C08091D10384FD19C095
:1022800087EE90E008952091D103237009F05AC0A1
:102290002091D20323FF14C089E290E00895209199
:1022A000D10320FD38C03091D20330FF09C024FF94
:1022B00043C090E080E008952091D10322FDF7CF44
:1022C00008952091D10322FD3AC03091D20330FD10
:1022D00039C024FFF5CFEDCF2091D10323FFF0CFFC
:1022E00024FDE7CFCDCF2091D10323FD2EC0309127
:1022F000D20331FFEECF84EE90E008952091D10318
:1023000025FFDECFC9CF2091D10325FD21C020912B
:10231000D20323FFD5CF89E390E0D2CF2091D10320
:1023200026FFCECF8AE290E008952091D10326FFC8
:10233000C7CF81E390E0089583EE90E0089582EEA8
:1023400090E0089580EE90E0089586EE90E0089584
:1023500085E390E008959091D10392FF10C041E091
:10236000282F2471243009F040E031E0282F287113
:10237000283009F030E0431711F02CE0822793FF5A
:1023800010C041E0282F2471243109F040E031E0F1
:10239000282F2871283109F030E0431711F02CE084
:1023A00082273091D20330FF10C051E0282F2171D5
:1023B000213009F050E041E0282F2871283009F041
:1023C00040E0541711F029E0822731FF10C041E0AE
:1023D000282F2171213109F040E031E0282F2871A8
:1023E000283109F030E0431711F029E0822794FDED
:1023F000877E08951092D3031092D4031092D503D0
:102400001092D6030895CF92DF92EF92FF926B0164
:102410007C01E6D181110EC00E94A020C61AD70A05
:10242000E80AF90AC092D303D092D403E092D5030C
:10243000F092D603FF90EF90DF90CF9008950F9326
:102440001F93CED1882329F00E94A0201F910F91C5
:1024500008950E94A0200091D3031091D4032091ED
:10246000D5033091D603600F711F821F931FEECFEB
:1024700080E00895CF939C01205E3245C1E0203278
:10248000310538F4FB01C581C11103C08F710E9471
:102490006D048C2FCF9108950895FECF089508956F
:1024A000FECF0895E82FF0E0E052FC4F80810895C0
:1024B000089580EA8A95F1F7089500C00895F9CF4C
:1024C00008950895FECF0895EF92FF921F93CF9342
:1024D000DF9300D000D0CDB7DEB782D1182F609146
:1024E000E803882309F445C019821A821B821C82E2
:1024F000862F90E09E012F5F3F4F7901B9018052F6
:102500009C4F8CD18823E1F08091D70390E044E088
:1025100050E0B70180529C4F0E946D2921E020932A
:102520001C03892BC1F410E0BBDF812F0F900F90AB
:102530000F900F90DF91CF911F91FF90EF90089532
:1025400080911C03882379F384E0F70111928A9526
:10255000E9F710921C03E091D703F0E0E052FC4F42
:1025600089819A81AB81BC8180839183A283B3836B
:10257000DBCF70E060527C4F8091D70390E08052B7
:102580009C4FD1D19FDFD1CFF894E82FE295EF7027
:10259000F0E031A1282F2F7081E090E001C0880F7A
:1025A0002A95EAF7982F9095932391A392A1892BCE
:1025B00082A378940895CF93DF9384E9E5DF86E6DC
:1025C000E3DF87E9E1DF86ECDFDFC8E2D2E0899173
:1025D0008F3F09F0D9DF82E0CD32D807C1F7DF9114
:1025E000CF910895B0E0A0E0E8EFF2E10C9440292B
:1025F000EC01D62E062F10E0C801835D9D4F7C01B3
:10260000FC0180818F3F09F442C0F894E82FE295E5
:10261000EF70F0E091A18F7021E030E001C0220F57
:102620008A95EAF7892F822B81A382A120952823FE
:1026300022A3789442DFE8E2F2E04DE252E031E09A
:10264000C12C21912F3F41F1A22FA295AF70B0E094
:1026500090968C9190E02F7002C0959587952A9561
:10266000E2F780FD19C0832FC82A330F4E175F078A
:1026700041F7F70180818F3F09F086DF61E0C110EB
:1026800001C060E08D2D1BDFC00FD11FC882CDB708
:10269000DEB7E8E00C945C2980E0E6CF80918E0103
:1026A00080918E0194E0811190E09093E80384E0A2
:1026B000891B8093D7037FDF88E0E0EEF3E0DF0142
:1026C000982F1D929A95E9F7E8EDF3E0DF011D924E
:1026D0008A95E9F784E03CD0E0CEA8E0B0E0E3E7FB
:1026E000F3E10C9443298E010F5F1F4F88E0F8013E
:1026F00011928A95E9F7F12C6F2DC80173DFF394DD
:10270000F4E0FF12F9CF48E050E0B80188ED93E023
:102710000E946D2921E0009709F420E0892B41F007
:1027200088E0F801A8EDB3E001900D928A95E1F7F9
:102730006091E80370E060527C4F44E088ED93E0E4
:1027400008D0182FC1DE812B2896E5E00C945F2974
:102750000895B0E0A0E0EFEAF3E10C9440296C01A9
:102760007B01042FC22F222379F081E080931F0385
:102770000E94942090931E0380931D0380E0CDB7A8
:10278000DEB7E8E00C945C29D0911F03DD23B1F3A0
:1027900080911D0390911E030E94AC20059770F359
:1027A00010E0A801B601C7010E946D29892B31F004
:1027B000A801B601C7010E947A29CD2F10921F03EC
:1027C0008C2FDDCFCF930E940129C82F811102C029
:1027D0000E94FD288C2FCF910895809123030895A6
:1027E000809122030895FCCF0895ECDF80932203AB
:1027F000FADF80932303F1DF80938E01F1DF8111F3
:1028000042C00895EDDF811101C040C0089581E00C
:10281000909124039A3008F080E008950F931F935D
:10282000CF93DF93EC018B01809124038A30B0F4C5
:10283000B801CE0176D0C82F811122C08091240327
:102840008F3FB9F40E94942090932103809320033A
:102850008C2FDF91CF911F910F91089580912003CC
:10286000909121030E94AC20843F914008F7C0E082
:10287000EFCF8F5F809324038A3020F7C1E0E8CF49
:1028800010922403E5CF0C946D2108950C947021CF
:102890000895B0E0A0E0EFE4F4E10C94412979015F
:1028A000C82F880FDD0B41155105A9F0FE0193E0FB
:1028B000EE0FFF1F9A95E1F7E157FE4F818192815C
:1028C0008B5D9C4F208130E04217530708F49A013A
:1028D000A9010E947A29CE010E945022D82E882375
:1028E000D1F001151105B9F083E0CC0FDD1F8A95F9
:1028F000E1F7FE01E157FE4F438150E00417150751
:1029000008F4A801C157DE4F6C817D816B5D7C4F5F
:10291000C7010E947A298D2DCDB7DEB7E7E00C9470
:102920005D29F0C0089503C10895A4E0B0E0EBE98B
:10293000F4E10C94442960913A0370913B03809137
:102940003C0390913D030E94BB2011E06436710569
:102950008105910508F173DD6E5F7F4F8F4F9F4FAB
:1029600069837A838B839C8310E000E030E020E071
:1029700044E050E0BE016F5F7F4F82E08ADF182F96
:10298000882351F00E94A02060933A0370933B0388
:1029900080933C0390933D03812F2496E4E00C94B4
:1029A0006029B0E0A0E0E7EDF4E10C943E297C0161
:1029B0005B016A012CDF01E010E0882311F00AE0DE
:1029C00010E0C1E0D0E0B501C701F6010995811121
:1029D00004C021960C171D072CF4CDB7DEB7EAE032
:1029E0000C945A29CC9F9001CD9F300D300D1124AD
:1029F00090E080E045E34A95F1F7000001968217E8
:102A00009307C1F7E0CFA5E0B0E0E9E0F5E10C9471
:102A10003E295B01E0903102F090320201E010E0CB
:102A20009E012B5F3F4F50E040E070E060E080E0AF
:102A300030DF182F882309F448C067018FEFC81AC8
:102A4000D80A6091360370913703809138039091D2
:102A500039030E94BB20643671058105910570F130
:102A600004E010E09E012F5F3F4F50E040E070E037
:102A700060E081E00EDFF82E64E070E0C601F1D482
:102A800011E09D81981310E01F2151F10E94A020B8
:102A90006093360370933703809338039093390320
:102AA00089819A81AB81BC818093320390933303F7
:102AB000A0933403B093350311E012C064E070E0DA
:102AC000C601CFD49D818913CBCFF701818192813B
:102AD000A381B48189839A83AB83BC831111E0CF36
:102AE0008091320390913303A0913403B091350368
:102AF000F50180839183A283B383812F2596EAE039
:102B00000C945A290F931F93CF93DF93EC018B0101
:102B100043E055E146DF882329F045E954E1B80157
:102B2000CE013FDFDF91CF911F910F9108950F9359
:102B30001F93CF93DF93C0913102D0913202CE0127
:102B4000019624E0FB01DC0101900D922A95E1F74A
:102B500064E070E086D488836D817E818F81988562
:102B600000912E0310912F032091300330913103F7
:102B7000601771078207930749F060932E037093E3
:102B80002F0380933003909331033DDCDF91CF918D
:102B90001F910F910895B9C908950E942E200E9497
:102BA000E4237FD90E94FC239BD90E9405240E9424
:102BB0000824F1DF0E941E247DD9F9CF90933502BD
:102BC0008093340208958FC8089580E06BDC817093
:102BD000089583DD2FEF86E791E0215080409040FB
:102BE000E1F700C0000079DDF0DF882319F0EBDFAA
:102BF0000C94FB200895EDCF08958832910548F498
:102C00008E319105A0F4049750F082E00E94800D6F
:102C10000EC08D329105C9F320F48A9741F080E00F
:102C200008958C34910519F08D329240C1F781E0FE
:102C30000895EF92FF920F931F93CF93DF93EC01D0
:102C40007B01C3378CE7D80761F4FB0115811123A1
:102C500011F0B9D010E0812FCDB7DEB7E6E00C94CB
:102C60005E290E946A0D082F0E94900D082B7CD0CF
:102C7000811107C0023211F011E0EDCF79D0F8D602
:102C8000FBCF69D0F70115811123B1F30D7909F05C
:102C900054C0C034F2E5DF0720F5C11582E5D8073E
:102CA000D0F6C115E0E4DE0790F4C115F0E2DF07CD
:102CB000B0F5C63ED10579F20E948D0DCE019DDFA3
:102CC000C82F8823D1F10E941B0E1C2FC4CFC11521
:102CD00080E5D80788F7F7018681807F69F2DD27D4
:102CE000EBCFC03EE2E5DE07A0F4C03CF2E5DF0733
:102CF00008F0B1CFC03682E5D807F0F2C03AE2E57D
:102D0000DE0708F4A8CFC43BF2E5DF0709F4A3CF40
:102D1000D3CFCE0187579C47029770F69CCFF7011F
:102D20008681807FE1F68D2F8F71823189F038F4B2
:102D3000C1EED0E0823009F4BFCF28D08CCF8431EF
:102D400009F489CFC6EED2E1863109F4B5CFF5CFCB
:102D5000C5EED0E0B1CF0E94942088579C4E90934E
:102D60003F0380933E0308958091400308950895A2
:102D700080914003811109C00E947A0D0E94BA0D12
:102D8000EADF81E080934003F2CF08958091400311
:102D9000882339F082E20E949D081092400380E06F
:102DA000E6CF089580914003882361F00E9494202B
:102DB00020913E0330913F03821B930B8F3F9F472F
:102DC00008F4E4CF089580914003882309F0DECF12
:102DD000CFCF0895EF92FF920F931F93CF93DF937E
:102DE0008091B403882361F0E09141038DE0F82ED7
:102DF0008091B403E81748F01092B4031092410395
:102E0000CDB7DEB7E6E00C945E29EE24E394EE0E37
:102E1000E0924103CE2FD0E0EF9DF0011124E45B5E
:102E2000FC4F84818823A9F087819085892B99F4B0
:102E3000818592858F3F980771F061E0CADFFC9E23
:102E4000F001FD9EF00D1124E45BFC4F14820E9402
:102E50008D0DEE2DCDCF00811181228133814481F2
:102E600055816681778180850E94D30CE8CF0895D3
:102E7000CF93DF931092B6031092B503D0E0C0E079
:102E80000E947703C817D90718F0DF91CF910895F2
:102E9000CE010E948A03FC018581811102C0148247
:102EA00016822196EDCF1F93CF93DF9310914A03A3
:102EB00020914B032117D1F0C12FD0E0FE01EE0F7E
:102EC000FF1FEE5BFC4F408151814817590791F479
:102ED0000E948A0321E0FC01248380914A0381132C
:102EE00005C02196C370DD27C0934A03DF91CF91BF
:102EF0001F91089521961C2F1370DCCFB0E0A0E045
:102F0000E4E8F7E10C943B29EB012C81211152C03C
:102F10007090B403ACE4B3E030E020E0812C61E0D9
:102F200070E0271508F045C01B96CD90DC901C97EB
:102F3000A880B9804FEF5FEF912CE92CF12CF701BD
:102F4000EE0FFF1FEA0DFB1D05911491C016D1066F
:102F500009F4A7010115110511F09394EECF4F3F2D
:102F6000540781F1FB0102C0EE0FFF1F4A95E2F703
:102F70008E2AAB01092C02C0440F551F0A94E2F7B8
:102F80004150510984161506D1F44A815B816DE0E8
:102F9000629FF001639FF00D1124E45BFC4F5087AA
:102FA000478324E02483108211829287818721E065
:102FB0002D8379DFCDB7DEB7EDE00C945729149659
:102FC0001C9214972F5F3F4F1D96ABCF0F931F930B
:102FD000CF93DF93C0914A0380914B038C1307C0BA
:102FE000F9DE46DFDF91CF911F910F910895D0E078
:102FF0008E01000F111F0E5B1C4FF8018081918123
:103000000E948A03BC01F8018081918177DF2196BB
:10301000C370E2CFEF92FF921F93CF93DF93FC0137
:103020002081318110E040E050E0E52FF0E0EE0F2C
:10303000FF1FE20FF31FA591B4911097B9F0FB01A8
:10304000C081D18140E005C0AE15BF0509F411E093
:103050004F5FE42FF0E0EE0FFF1FEC0FFD1FE59038
:10306000F490E114F10481F75F5FDFCF112349F0A1
:10307000451708F4CB01DF91CF911F91FF90EF909E
:10308000089590E080E0F7CF8091A701882329F18F
:103090008091B7039091B8030097F9F00E94AC209B
:1030A0002091B5033091B60328173907B0F49091F9
:1030B0004A0380914B03981751F088DF1092B603B2
:1030C0001092B5031092B8031092B703089582DEF0
:1030D0001092B8031092B703CBCE08951092B803A4
:1030E0001092B7031092A70180914B0380934A037B
:1030F000BFDE70CE8091A701882309F0EFCF81E079
:103100008093A7010895ACE0B0E0E9E8F8E10C9401
:1031100036294C016B0180352CE7920761F4FB01E5
:1031200015811123D9F081E08093A701812F2C967E
:10313000E2E10C9452298135FCE79F0731F4FB0151
:103140001581112359F0CADFF1CF82359C4731F444
:10315000FB011581112311F0CDDFE8CF20915D0235
:1031600030915E0280915F0290916002822B932BDE
:103170000E948A05182F7BDE181729F0F60160815E
:1031800071813AD84C01B12CA12C1C866624639421
:10319000712CCE0101969B878A870E947703A8161F
:1031A000B906B8F1F6018581882309F44AC1FC8586
:1031B000FF2309F446C1B8D79093B8038093B703AF
:1031C0008091B403883008F591E0980F9093B40390
:1031D00099E0F601DE01119601900D929A95E1F7C2
:1031E0002DE0829FC0011124845B9C4F29E0FE01E9
:1031F0003196DC0101900D922A95E1F72FEF3FEF18
:10320000FC0132872187948683861C851095117076
:103210008DCFC5010E948A037C01FC014081518150
:1032200044244A94542C60E0262F30E0F901EE0F3C
:10323000FF1FE40FF51F859194918816990609F4F4
:103240002901892B11F06F5FEFCF80E0FFEF4F1660
:103250005F0609F445C0F70144813090A701832D32
:10326000411180E0F82FF1703F2EF7012580868113
:10327000F6019581992309F483C0332009F480C0B5
:10328000211015C09301042C01C0220F0A94EAF703
:10329000822BF70186838091B5039091B603C29784
:1032A00030F482E390E09093B6038093B503C301BA
:1032B00002C0880F991F6A95E2F70197F7012681EE
:1032C0002817190681F58091B7039091B8030097EC
:1032D00071F042D7C39758F021E0F701248381E0D1
:1032E000FC85F82BFC872FEFA21AB20A56CF20904C
:1032F0004A0390E080E020914B03221216C0E816AA
:10330000F90689F0422C512CF201EE0FFF1FEE5B03
:10331000FC4FB182A0822FEF421A520A83E048226A
:10332000552440924B03832DDBCF422C512CF201CC
:10333000EE0FFF1FEE5BFC4F808191810E948A039C
:103340008C01B70167DE0097A1F021E0FC01248326
:10335000E816F90641F320914A0322120AC0081721
:10336000190739F492012F5F3F4F237033272093C1
:103370004A03EFEF4E1A5E0AF42DF3702F2EBBCFE7
:1033800090E021101EC0930102C0220F331F6A95E6
:10339000E2F7215031092817390729F4442309F4A9
:1033A0004EC0C50180DDC301042C01C0880F0A9402
:1033B000EAF7982F9095F701868189238683322C2E
:1033C000B2CFAC01042C02C0559547950A94E2F7A0
:1033D000BA01617077279C01215031098223932320
:1033E000892B49F5672B39F1F70182819381892B6C
:1033F000F1F0EA85FB8527E011922A95E9F794D64A
:10340000282F8B839C8384E08D83F70182819381B5
:10341000782F8887998709811A813C8144E05E81F1
:103420006F81892F0E94D30CF7011582BCCF60E019
:10343000C501CFDCF9CFF42FF1702F2EB4CF232CA0
:10344000B2CF90914A0380914B03981711F0BEDDE3
:10345000DCCEC0DC1092B8031092B70309DDD5CEE4
:103460000895FC01680F791F8FEF91E36E177F07B6
:1034700009F408952191822728E030E087FF06C0F3
:10348000880F892721503109C9F7F0CF880FFACF6B
:103490009C01FB018581882359F12137FCE73F0717
:1034A000B9F022379CE73907E9F020373C4709F5A6
:1034B00060E280918801909189010E946A05FC0177
:1034C000019620812032D9F3CF0126D280E00895E1
:1034D000809188019091890105969093890180934C
:1034E0008801F4CF80918801909189010597F5CFEB
:1034F00081E00895CF93DF93EB0186319C4701F57E
:103500000E946A0D9D81992391F08A7A91E009F4D5
:1035100090E09093B903811108C089E2E1D40E9440
:103520001B0E80E0DF91CF91089585E3F7CF809166
:10353000B903811103C089E2EAD4F1CF85E3FCCF5E
:1035400081E0F0CFCF93DF93EC01FB0185818823ED
:1035500009F4D2C09E0130572332310508F0B2C0C1
:103560000E94930E9093D2038093D103FE01E15009
:10357000F047E232F10520F4E552F64D0C94302983
:103580008091D10381608093D10393C08091D20355
:1035900088608093D2038DC08091D1038260F3CF85
:1035A0008091D1038460EFCF8091D1038860EBCF0D
:1035B0008091D2038160EDCF8091D2038260E9CF08
:1035C0008091D1038061DFCF8091D1038062DBCF16
:1035D0008091D1038064D7CF0E94AF088091D1033E
:1035E0008068D1CF8091D1038C60CDCF8091D20300
:1035F0008360CFCF8091D1038E7FC5CF8091D203DE
:10360000877FC7CF8091D1038D7FBDCF8091D103BC
:103610008B7FB9CF8091D103877FB5CF8091D203C3
:103620008E7FB7CF8091D2038D7FB3CF8091D103AE
:103630008F7EA9CF8091D1038F7DA5CF8091D103BB
:103640008F7BA1CF0E94AF088091D1038F779BCF52
:103650008091D103837F97CF8091D2038C7F99CFC4
:103660008091D10382FB992790F921E0922790FB6A
:1036700082F990FB83F987CF8091D203982F9095A0
:1036800091708E7F892B90FB81F983CF9091D1032C
:10369000892F8F7B96FF806476CF0E94AF08909130
:1036A000D103892F97FB87F980586DCF81E00E9465
:1036B0000D0F8091D1039091D2030E94970E0E942A
:1036C000AF0880E0DF91CF91089580E0F0CF909136
:1036D000D103892F8F7E94FF806155CF9091D103C4
:1036E000892F8E7F90FF81604ECF9091D203892FDA
:1036F000877F93FF88604DCF81E0E4CFB0E0A0E00A
:10370000E4E8FBE10C943F29E82FF0E0E85BFD4F93
:10371000B490282F26952695269530E0F901E8519A
:10372000FD4F0491877010E0082E02C01595079593
:103730000A94E2F701701127F901E852FD4FE49075
:10374000F12C082E02C0F594E7940A94E2F791E078
:10375000E922FF24F901E853FD4FC491D0E002C0F3
:10376000D595C7958A95E2F7C170DD27C62ED12C75
:103770000115110549F5E114F10431F086EE0E94BE
:103780001706C601009771F5B6018B2D0E947A06C7
:10379000C601009779F5E114F104A1F501151105B1
:1037A00031F081EE0E945406C6010097C9F5CD2B79
:1037B00031F08CE20E949006C114D104C9F5CDB756
:1037C000DEB7E9E00C945B2981EE0E941706C60182
:1037D000009789F2EFE9FFE03197F1F700C00000B0
:1037E0000197F6CFEFE9FFE03197F1F700C0000055
:1037F0000197C8CFEFE9FFE03197F1F700C0000073
:103800000197C7CF86EE0E945406C601009731F299
:10381000EFE9FFE03197F1F700C000000197F6CF24
:10382000EFE9FFE03197F1F700C000000197BDCF4D
:103830008FE99FE00197F1F700C0000091E0C91AFD
:10384000D108BACFEF92FF920F931F93CF93DF93DC
:10385000EC01162F0AE08881882309F458C08130D2
:1038600009F052C08981813071F47E0182E0E80E56
:10387000F11C8A810E949006E701812F90E0009759
:10388000D9F52196E8CF823041F47E01E2E0EE0ED8
:10389000F11C8A810E941706EFCF833041F47E012C
:1038A000F2E0EF0EF11C8A810E945406E5CF8430CD
:1038B00011F02196E2CF2A81229690E080E0AE01BD
:1038C0004F5F5F4F2053330B2A30310550F0009784
:1038D000A1F2EFE9FFE03197F1F700C00000019796
:1038E000F6CF089FB001099F700D1124C901860F02
:1038F000971F2981EA01E3CFEFE9FFE03197F1F764
:1039000000C000000197BBCF612FF8DEBACFCDB762
:10391000DEB7E6E00C945E2960E094CF0F931F932E
:10392000CF93DF93C42FD22FFC0185818823C1F070
:103930004093BC03F9D39093BB038093BA0380E216
:103940008C0F883040F4C77081E001C0880FCA95A1
:10395000EAF70E949706DF91CF911F910F9108958A
:103960001091BC03141335C08091BA039091BB032E
:10397000F3D320918801309189018217930748F58C
:10398000C0E2CD0F1D17B9F080E2810F883040F4FE
:10399000177081E001C0880F1A95EAF70E949C0613
:1039A000C83048F481E09D2F977001C0880F9A9528
:1039B000EAF70E949706802F0E949006C83058F6BA
:1039C000D77081E001C0880FDA95EAF70E949C0663
:1039D000C2CF80E28C0F883008F0BDCFC77081E085
:1039E00001C0880FCA95EAF7F1CF0F93DB01885128
:1039F0009C478730910598F5FC01E350F64D0C94F7
:103A0000302906E221EE41EE6AE17CE7CD0186DF56
:103A100080E00F91089507E225EE45EE6BE17CE72B
:103A2000F5CF06E221EE40EE68E17CE7EFCF07E25A
:103A300025EE44EE69E17CE7E9CF06E221EE42EEB5
:103A40006CE17CE7E3CF07E225EE46EE6DE17CE733
:103A5000DDCF08E221E045EE6EE17CE7D7CF159699
:103A60008C91882319F01092BC03D3CF81E0D1CF81
:103A70001092BC0308954115510511F0FA01099502
:103A80000895CF93DF93EC014A855B856E857F8532
:103A9000F2DF8B810E94860D8C810E94730D0E9443
:103AA0001B0E86E0FE0111928A95E9F7DF91CF9116
:103AB0000895CF93DF93EC018D8181FD10C082606A
:103AC0008D838B810E94800D8C810E946D0D0E94E0
:103AD0001B0E488559856E857F85CE01CCDF1092FF
:103AE000C0031092BF038D8180FD02C0CE01C9DFEB
:103AF000DF91CF910895CF93DF93EC018A818230DB
:103B000041F4FB01828193810E94D9038D818260FF
:103B10008D83DF91CF910895FB01808191810C9479
:103B2000D903FC018281813031F4FB0180819181D4
:103B30000C94ED0308958230E9F7FB0182819381B3
:103B4000F7CF0F931F93CF938C01FB01C581CC233B
:103B5000A9F08091BF039091C0030097A1F0801756
:103B6000910789F099270E949D03FC01258124601B
:103B70002583118300839DDF0E948D0D8C2FCF91B3
:103B80001F910F910895C0E0F9CFEF92FF920F932C
:103B90001F93CF93DF937C018B0197558F3F910546
:103BA00019F010F011E036C00E948C039701332702
:103BB0002817390708F04CC0C9010E949D03EC0189
:103BC000F80115818D8110FB80F98D83112341F15E
:103BD000ABD29093BE038093BD038A818F5F8A83AB
:103BE0000E946A0D8B830E947D0D9B81892B8B83A4
:103BF0000E94900D8C834E815F816E857F85CE0102
:103C00003ADF8D8181FF02C0F12CE12CF092C003DC
:103C1000E092BF03812FCDB7DEB7E6E00C945E29BA
:103C20004C855D856E857F85CE0125DF8D8181FF89
:103C3000B9CFCE0126DF8091BF039091C0038E15CE
:103C40009F0509F0AFCF1092C0031092BF03AACF17
:103C500010E0E0CF8091BF039091C003892BB9F0B1
:103C60008091BD039091BE0377D22091880130915D
:103C700089012817390758F48091BF039091C00338
:103C800099270E949D03FC01258122FF12CF0895F0
:103C90009093C7038093C60308950E94F013811187
:103CA00003C08091C1030895E091C603F091C7035A
:103CB000309729F00190F081E02D0995089580E07A
:103CC0000895E091C603F091C703309721F0028078
:103CD000F381E02D09950895E091C603F091C703A3
:103CE000309739F026E0DC012C930480F581E02D3B
:103CF00009950895A3E0B0E0E0E8FEE10C944629C0
:103D00002091C4033091C50328173907A1F090937F
:103D1000C5038093C403E091C603F091C7033097B5
:103D200051F023E029839B838A830084F185E02D71
:103D3000CE01019609952396E2E00C946229A3E056
:103D4000B0E0E5EAFEE10C9446292091C2033091EF
:103D5000C30328173907A1F09093C3038093C203CC
:103D6000E091C603F091C703309751F024E0298316
:103D70009B838A830084F185E02DCE01019609950D
:103D80002396E2E00C946229CF93DF93C0918C01DB
:103D9000D0918D01229629D1813081F48091D10377
:103DA00087FF0CC0C0918A01D0918B0122969EE1C1
:103DB00080E0915028F4DF91CF91089596E0F8CFFC
:103DC00029912223B1F38F5FF4CFCF93C82F8111B4
:103DD00002C080E023C009D1813011F58091D10368
:103DE00087FF1EC0EC2FE695E695E695EE3188F745
:103DF00080918A0190918B01E80FF92FF11D2281AA
:103E000030E0C77081E090E002C0880F991FCA952A
:103E1000E2F72823392381E0232BD9F2CF910895AB
:103E200080918C0190918D01FC0132960896219130
:103E30002C1721F0E817F907D1F7CBCF81E0EECFAF
:103E40009C01FC0132969FEF80E04191461751F0B2
:103E50009F3F19F4411101C0982F8F5F8630A9F759
:103E60009F3F09F40895290F311D97FD3A95F901F7
:103E700062830895FC01329608962191261303C0AF
:103E8000DF0111971C92E817F907B9F70895E62F9B
:103E9000E695E695E695EE3168F4E80FF92FF11D09
:103EA000677021E030E001C0220F6A95EAF7828155
:103EB000822B82830895E62FE695E695E695EE310E
:103EC00070F4E80FF92FF11D677021E030E001C0B8
:103ED000220F6A95EAF7209582812823228308958C
:103EE000CF93C82F82D06C2F813059F48091D103A9
:103EF00087FF07C080918A0190918B01C8DFCF9125
:103F0000089580918C0190918D019ADFF8CFCF9325
:103F1000C82F6BD06C2F813059F48091D10387FF6B
:103F200007C080918A0190918B01C5DFCF910895E0
:103F300080918C0190918D019DDFF8CF56D081301A
:103F400079F48091D10387FF0BC0E0918A01F09151
:103F50008B0132968EE1DF011D928A95E9F7089573
:103F6000E0918C01F0918D01329686E0F4CF0895B6
:103F7000FECF089581110CC081E08093AB01609168
:103F8000A8017091A9018091AA019091AB01F0CF95
:103F900082E0F3CF83E08093AB016091A801709140
:103FA000A9018091AA019091AB01E2CFE3CF0895DE
:103FB00081E08093AB016091A8017091A90180918B
:103FC000AA019091AB01D4CFF3CF089591E0811174
:103FD00001C090E09093AA016091A8017091A9019D
:103FE0008091AA019091AB01C3CF8091AA0108955D
:103FF0008093A9016091A8017091A9018091AA0103
:104000009091AB01B5CF8091A90108958093A8014B
:104010006091A8017091A9018091AA019091AB01D2
:10402000A7CF8091A801089508950895FECF08951F
:1040300008950895F9CF0895CF93FADF0E946D1384
:10404000F8DFC0E08C2F0E945212811105C0CF5FB3
:10405000C830C1F7CF91089581E0FCCF85B7806863
:1040600085BF85B7806885BF08951F921FB61F92D0
:1040700011248F939F93AF93BF938091C8038111B5
:1040800013C08091E9039091EA03A091EB03B091F2
:10409000EC034196A11DB11D8093E9039093EA03BF
:1040A000A093EB03B093EC03BF91AF919F918F91DD
:1040B0001F901FBE1F9018958091F103843031F13D
:1040C0000E940C051092C80388E190E020E40FB62E
:1040D000F894A895809360000FBE2093600083B78A
:1040E000817F846083BF83B7816083BF7894889524
:1040F00083B78E7F83BF0FB6F894A8958091600038
:10410000886180936000109260000FBE08950E9445
:10411000AF080C940F0582E084BD93E095BD9AEF43
:1041200097BD80936E0008952FB7F8948091E903AE
:104130009091EA03A091EB03B091EC032FBF089597
:104140002FB7F8946091E9037091EA038091EB0333
:104150009091EC032FBF08959C014FB7F894809184
:10416000E9039091EA03A091EB03B091EC034FBFF8
:10417000821B930B0895CF92DF92EF92FF922FB79D
:10418000F894C090E903D090EA03E090EB03F0903C
:10419000EC032FBFA7019601261B370B480B590BC9
:1041A000CA01B901FF90EF90DF90CF900895789405
:1041B0001F921FB61F9211248F939F93AF93BF93AB
:1041C0008091E9039091EA03A091EB03B091EC0395
:1041D0000196A11DB11D8093E9039093EA03A0937A
:1041E000EB03B093EC03BF91AF919F918F911F9020
:1041F0001FBE1F90189587E797E79093010880935B
:10420000000888E19AE00FB6F894A89580936000C2
:104210000FBE90936000FFCF88E19AE00FB6F8944C
:10422000A895809360000FBE90936000FFCF8EE151
:104230004A9B02C08150E1F74A9BFECF08955A98ED
:1042400080E28A95F1F75A9A0895FC013BE03A958D
:10425000F1F798E020E080E031E040E14A95F1F7A5
:10426000880F4A9B02C08160232742E04A95F1F7FC
:10427000000040E14A95F1F7915079F790E19A9565
:10428000F1F799B132E03A95F1F7000040E14A9533
:10429000F1F792FB992790F992272081920F908352
:1042A0000895A1E0B0E0E6E5F1E2ECC719828C01E7
:1042B0007C01E60EF11C0E151F0539F481E0998191
:1042C000911180E02196E6E0F9C7B1DFCE010196B9
:1042D000BCDFF80181938F01EECF529A5A9A08956C
:1042E00052985A9AEA9AE9E6F0E080818F7C8083BE
:1042F00008956150770B91E001C0990F6A95EAF734
:1043000020E031E0911108C0222391F05A9A80E216
:104310008A95F1F75A980895492F482339F05A9A07
:10432000232740E24A95F1F79695ECCF5A98F9CFBA
:104330005A98EDCFFF920F931F93CF93DF93EC0129
:104340008C01060F111DC017D10721F4CDB7DEB7C0
:10435000E5E0B5C7F99073DF68E08F2DCADFF3CFD2
:104360001F920F920FB60F9211240F931F932F934A
:104370003F934F935F936F937F938F939F93AF93ED
:10438000BF93EF93FF93CF93DF930F92CDB7DEB739
:1043900019824DDFCE01019658DF082F069506954C
:1043A0000695282F22952570902F9570290F922F12
:1043B000937026952695920F982797708981982B50
:1043C00009F058C0043008F055C080E18A95F1F733
:1043D0005A9A529A82E08A95F1F700C05A9888E07A
:1043E000089F80011124D801A157BE4F1696ED9168
:1043F000FC9117973097A9F06091310270913202C9
:1044000014962D913C911597260F371F11968D917B
:104410009C911297680F791F13964C9113978C916A
:104420000995F801E157FE4F6381662349F0209119
:1044300031023091320284819581820F931F7ADF9D
:10444000FEDE80E18A95F1F75A9852985A9A80E1F7
:104450008A95F1F7F801E157FE4F6081662349F034
:10446000209131023091320281819281820F931F1B
:1044700018DFDDDE0F90DF91CF91FF91EF91BF91BB
:10448000AF919F918F917F916F915F914F913F91EC
:104490002F911F910F910F900FBE0F901F901895A5
:1044A0000F931F93CF93DF93EC0104970CF049C057
:1044B000F894529A5A9885E08A95F1F700009C2F5B
:1044C000969595708C2F8570980F892F837096958F
:1044D000969523E0CC0FDD1F2A95E1F7980F8E010A
:1044E000092BADDE00C068E0802F03DF80E18A95F4
:1044F000F1F752985A9A4A9B1DC087E090E04A997A
:104500001BC0FE01E157FE4F63816623F1F020914D
:1045100031023091320284819581820F931FC1DE76
:10452000811113C0529A5A9A7894DF91CF911F91BA
:104530000F91089500C0DFCF019729F4529A5A9A3B
:10454000789480E0F2CF00C0DACF71DE80E28A9505
:10455000F1F75A98529A80E18A95F1F7C157DE4FE8
:104560006881662349F020913102309132028981BD
:104570009A81820F931FDEDE62DE789481E0D5CFD0
:1045800008959B01BA019091F1039430E1F48F708A
:104590008093E9009FEF8091E800915085FD06C06F
:1045A00085ED8A95F1F700009111F5CF8091E80033
:1045B00085FF09C050E040E0C901B5D18091E80015
:1045C0008E778093E800089543E050E0BC0182E0DC
:1045D000D8CF40E250E0BC0182E0D3CFCF93DF934D
:1045E000EC0103DD48E050E0BE0181E0CADF88E075
:1045F000FE01A9ECB3E001900D928A95E1F7DF91FD
:10460000CF9108958091F003811107C01AD371D31F
:104610008091E20084608093E20008951092F0039C
:104620000895C6DC81E0D2CC6091ED0381E0611198
:1046300001C080E0AFCC9091F10381E0943009F0AB
:1046400080E06091ED03B2CC42E061EC81E075D294
:1046500042E261EC82E071D29091F10381E094300A
:1046600009F080E06091ED0385CC8091F303833005
:1046700009F45EC030F48130C1F1823009F494C095
:1046800008958A3009F483C08B3009F46BC08930F7
:1046900009F04DC08091F203813209F048C0809149
:1046A000F6039091F703029708F041C08091E8006B
:1046B000877F8093E8008091E80082FF34C090916A
:1046C000F3008091F200029731F48091F100813083
:1046D00011F0863019F48091F1008ADC8091E800B5
:1046E0008B778093E8005DD222C08091F203813AFB
:1046F000F1F48091E800877F8093E8008091F603D1
:104700009091F703892B59F468E089EC93E070E00D
:1047100057D18091E8008B778093E800089560E09E
:1047200090E080E0F4CF8091F1038111C4CF08952F
:104730008091F203813AD9F78091F6039091F703C3
:10474000892BA9F78091E800877F8093E80080910A
:10475000E80080FFFCCF49DC8093F1008091E80005
:104760008E77BFCF8091F203813209F78091F603F3
:104770009091F703892BD9F68091E800877F809389
:10478000E8000FD28091F40321DC0C94AF088091F3
:10479000F203813261F68091E800877F8093E80020
:1047A00000D28091F50332CC8091F203813A09F076
:1047B000BECF8091E800877F8093E8008091E80079
:1047C00080FFFCCF2EDCC8CF84B7877F84BF0FB6B5
:1047D000F894A895809160008861809360001092A1
:1047E00060000FBE80E890E00FB6F89480936100FF
:1047F000909361000FBEE8CB24D27BD2E2EEF0E0D2
:104800008081846080837894DEC48CEA91E040CA21
:104810008091F103853029F48091F103853011F006
:1048200076CC089549DC08DC8823B1F38091EF034E
:10483000882391F362D00E94AF08EECF08959A01C9
:104840004091F8035091F90300C0492F5527433098
:10485000510519F168F44130510509F444C0423062
:10486000510509F445C090E080E050E040E025C0EB
:104870004132510549F142325105A9F784E490E0F3
:104880004EED53E061157105C1F08DE690E041E712
:1048900053E06130710589F0E6CF992781309105A9
:1048A00081F0009729F00297F1F6E8EFF2E002C0FC
:1048B000E0E2F3E0849190E0AF01F901518340839D
:1048C0000895E4E1F3E0F6CF89E090E046E353E0B9
:1048D0006115710591F389E090E04FE453E0613098
:1048E000710559F3C0CF82E190E04FE553E0E5CF89
:1048F0008BE390E044E253E0E0CF80E189BD82E1C8
:1049000089BD09B400FEFDCF8091D8008F7D8093D2
:10491000D8008091E00082608093E0008091E00008
:1049200081FDFCCF0895AF92BF92CF92DF92FF92AC
:104930000F931F93CF93DF936C01EB018A0150D14A
:10494000F82E811123C00115110539F0F80180817D
:104950009181C81BD90BC80ED91EB12CA12C209750
:10496000A9F08091E80085FD21C08091E8008E7754
:104970008093E80001151105A1F0F8018081918173
:10498000A80EB91EB182A08285E0F82E8F2DDF918E
:10499000CF911F910F91FF90DF90CF90BF90AF907C
:1049A00008951ED18823D9F2F82EF0CFF601819117
:1049B0006F018093F1002197FFEFAF1ABF0ACFCFAD
:1049C000FC018091F8039091F90386179707A0F0F6
:1049D0006115710529F49091E8009E779093E800A5
:1049E00090E06115710551F4911108C08091E800C3
:1049F00082FF34C080E00895BC01F2CF8091F103C2
:104A00008823C1F18530C1F18091E80083FD30C079
:104A10008091E80082FDEACF8091E80080FFE1CF3D
:104A20008091F3002091F200382F6115710519F083
:104A30002830310558F091E02830310509F090E038
:104A40002091E8002E772093E800CBCF81918093CE
:104A5000F100615071092F5F3F4FE7CF8091F10363
:104A6000882341F0853041F08091E80083FFBECF7C
:104A700081E0089582E0089583E00895FC0180912B
:104A8000F8039091F90386179707A0F06115710557
:104A900029F48091E8008E778093E80090E061151A
:104AA000710551F4911108C08091E80082FF35C072
:104AB00080E00895BC01F2CF8091F1038823C9F111
:104AC0008530C9F18091E80083FD31C08091E80014
:104AD00082FDEACF8091E80080FFE1CF8091F30072
:104AE0002091F200382F6115710519F02830310539
:104AF00058F091E02830310509F090E08091E8000D
:104B00008E778093E800CBCF84918093F10031962B
:104B1000615071092F5F3F4FE6CF8091F1038823E9
:104B200041F0853041F08091E80083FFBDCF81E006
:104B3000089582E0089583E00895982F973028F033
:104B40008F708093E90081E008959093E900242F0D
:104B5000762F50E0981731F07091EC002091ED0025
:104B60005091F00021FD02C09F5FE8CF3091EB0033
:104B70003E7F3093EB003091ED003D7F3093ED00B0
:104B80003091EB0031603093EB007093EC00209398
:104B9000ED005093F0002091EE0027FDE5CF80E07E
:104BA00008958091F20387FF13C08091E80082FF8F
:104BB00006C08091E8008B778093E80004C0809164
:104BC000F1038111F2CF08958091F1038823D9F385
:104BD0008091E80080FFF8CF8091E8008E77ECCFDD
:104BE0002091E4003091E50095E6A9012091EC00C8
:104BF000822F817020FF06C08091E80080FF06C0F0
:104C000080E008952091E80022FD1AC08091F10310
:104C1000882389F0853089F08091EB0085FD0FC0F5
:104C20002091E4003091E50042175307F9F29150CA
:104C3000E1F684E0089582E0089583E0089581E03C
:104C4000089567D06ED0E0EEF0E0808181608083CF
:104C5000E8EDF0E080818F77808319BCA7EDB0E0AC
:104C60008C918E7F8C9380818F7E80831092F00355
:104C700008950F931F93CF93DF934BD052D0C8ED7D
:104C8000D0E088818F778883888180688883888155
:104C90008F7D888319BC1092F1031092ED0310925E
:104CA000EF031092EE0300EE10E0F80180818B7F9D
:104CB000808388818160888342E060E080E03DDF1E
:104CC000E1EEF0E080818E7F8083E2EEF0E0808193
:104CD00081608083808188608083F80180818E7FFD
:104CE0008083888180618883DF91CF911F910F91AC
:104CF0000895E8EDF0E080818F7E8083E7EDF0E0BD
:104D000080818160808384E082BF81E08093F003B2
:104D1000B0CFE8EDF0E080818E7F80831092E200DA
:104D200008951092DA001092E10008951F920F92F8
:104D30000FB60F9211242F933F934F935F936F936E
:104D40007F938F939F93AF93BF93EF93FF93809144
:104D5000E10082FF0AC08091E20082FF06C08091DC
:104D6000E1008B7F8093E1002DD28091DA0080FFFB
:104D700018C08091D80080FF14C08091DA008E7F27
:104D80008093DA008091D90080FF91C080E189BDD5
:104D900082E189BD09B400FEFDCF81E08093F1037B
:104DA00031DC8091E10080FF18C08091E20080FF3B
:104DB00014C08091E2008E7F8093E2008091E20037
:104DC00080618093E2008091D80080628093D80057
:104DD00019BC85E08093F10327DC8091E10084FF1A
:104DE0002AC08091E20084FF26C080E189BD82E173
:104DF00089BD89B5982F917080FFFBCF8091D80035
:104E00008F7D8093D8008091E1008F7E8093E100B8
:104E10008091E2008F7E8093E2008091E2008160C9
:104E20008093E2008091ED03882309F445C084E07B
:104E30008093F10300DC8091E10083FF27C0809123
:104E4000E20083FF23C08091E100877F8093E1002F
:104E500082E08093F1031092ED038091E1008E7F58
:104E60008093E1008091E2008E7F8093E200809148
:104E7000E20080618093E20042E060E080E05DDE7D
:104E80008091F00088608093F000CBDBFF91EF9180
:104E9000BF91AF919F918F917F916F915F914F9152
:104EA0003F912F910F900FBE0F901F90189519BC36
:104EB0001092F103B3DB75CF8091E30087FD93E09F
:104EC0009093F103B7CF1F920F920FB60F92112458
:104ED0002F933F934F935F936F937F938F939F9302
:104EE000AF93BF93CF93DF93EF93FF93D091E900FC
:104EF000DF708091EC00C82FC17080FDC0E8109277
:104F0000E9008091F000877F8093F00078941ED0B4
:104F10001092E9008091F00088608093F000CD2B22
:104F2000CF70C093E900FF91EF91DF91CF91BF91D6
:104F3000AF919F918F917F916F915F914F913F9131
:104F40002F910F900FBE0F901F901895AAE2B0E01E
:104F5000EBEAF7E29AC182EF93E02091F100FC01C5
:104F60002193CF01F3E08A3F9F07B9F77EDB809161
:104F7000E80083FF16C18091F2039091F3039A3009
:104F800008F00FC1E92FF0E0EC5FF54D69C1803802
:104F900099F0823809F005C18091F6038F7087304F
:104FA00008F0FFC08093E9008091EB0085FB882723
:104FB00080F91092E90006C08091EE039091EF0312
:104FC000911182609091E800977F9093E800809320
:104FD000F1001092F1008091E8008E77DFC0882305
:104FE00009F4CDC0823009F0DCC08091F403811156
:104FF000D0C08091F6038F702FEF280F263008F075
:10500000D0C08093E9002091EB0020FFC2C0933014
:1050100031F48091EB0080628093EB00BAC09091F4
:10502000EB0090619093EB0021E030E001C0220F93
:105030008A95EAF72093EA001092EA008091EB004B
:105040008860EACF8111ADC01091F4031F77809181
:10505000E3008078812B8093E3008091E800877FD4
:105060008093E8009EDD8091E80080FFFCCF809176
:10507000E30080688093E30082E0111183E0809375
:10508000F1038FC08058823008F08BC08091F40308
:105090009091F5038C3D23E0920799F583E08A8394
:1050A0008AE289834FB7F894DE01139620E03EE050
:1050B00051E2E32FF0E050935700E49120FF03C04A
:1050C000E295EF703F5FEF708E2F90E0EA30B8F01E
:1050D000C7968D939D932F5F243159F74FBF8091D1
:1050E000E800877F8093E8006AE270E0CE010196D5
:1050F00067DC8091E8008B778093E80052C0C0960F
:10510000E8CF6091F6037091F703AE014F5F5F4FF8
:1051100096DBBC01892B09F444C09091E800977F8D
:105120009093E80089819A81A9DCE3CF8038C9F5A2
:105130008091E800877F8093E8008091ED03809361
:10514000F10049CF81112DC09091F403923048F5C0
:105150008091E800877F8093E8009093ED0321DD44
:105160008091ED03882311F084E005C08091E30075
:1051700087FDFACF81E08093F10366DA12C0809157
:10518000F403813071F481E0933009F080E0809382
:10519000EF031092E9008091E800877F8093E80098
:1051A00000DD8091E80083FF0AC08091E800877FDE
:1051B0008093E8008091EB0080628093EB00AA96D8
:1051C000E3E07FC00895CF938091F103882399F0A5
:1051D000C091E900CF709091EC00892F817090FD13
:1051E00080E8C82B1092E9008091E80083FDAEDED4
:1051F000CF70C093E900CF91089523DD1092F103A1
:105200000895E8EDF0E08081806180838AE18A95ED
:10521000F1F700C08091D90081700895A1E21A2EA3
:10522000AA1BBB1BFD010DC0AA1FBB1FEE1FFF1F4A
:10523000A217B307E407F50720F0A21BB30BE40B9A
:10524000F50B661F771F881F991F1A9469F76095E1
:105250007095809590959B01AC01BD01CF0108959B
:10526000EE0FFF1F0590F491E02D09942F923F92CD
:105270004F925F926F927F928F929F92AF92BF9266
:10528000CF92DF92EF92FF920F931F93CF93DF9312
:10529000CDB7DEB7CA1BDB0B0FB6F894DEBF0FBE6F
:1052A000CDBF09942A88398848885F846E847D84BC
:1052B0008C849B84AA84B984C884DF80EE80FD80BE
:1052C0000C811B81AA81B981CE0FD11D0FB6F89434
:1052D000DEBF0FBECDBFED010895FB01DC0104C0B0
:1052E0008D910190801921F441505040C8F7881BDE
:1052F000990B0895FB01DC0102C001900D92415011
:105300005040D8F70895F999FECF92BD81BDF89A23
:10531000992780B50895A8E1B0E042E050E02FC0A1
:10532000DC01A40FB51F4150504040F0CB01840F69
:10533000951F2E9105D041505040D8F70895262F43
:10534000F999FECF92BD81BDF89A019700B402167B
:1053500039F01FBA20BD0FB6F894FA9AF99A0FBE29
:1053600008950396272FECDFEADF252FE9DF242FAE
:10537000E7CF0196272FE4DFE2CFDC01CB01FC0170
:10538000F999FECF06C0F2BDE1BDF89A319600B49E
:105390000D9241505040B8F70895F894FFCFDF06C2
:1053A000DF06210721077A07070707070707960780
:1053B000FF070B080B08FA1A6E1B021BCC1AD01A37
:1053C000061BD41A0A1B161BE01A671BE41A1A1BC9
:1053D000E81A1E1B461BEC1A221B4D1BF21A281B37
:1053E000301BD81A0E1BDC1A121BF61A2C1B3C1B86
:1053F000561B651BC61AFE1A751B111D171D011DB4
:105400000B1D1D1D231D291DC727EF27D128EF27A1
:0C541000D12822284228D1289628A22862
:10541C004202737C0000003C02737C000000000020
:10542C00000000007B1D8C1D911D000082010000FE
:10543C00000000007B1D8C1D911D00007E010000F2
:10544C00000000007B1D8C1D911D00007A010000E6
:10545C00000000007B1D8C1D911D000076010000DA
:10546C00000000007B1D8C1D911D000072010000CE
:10547C00000000007B1D8C1D911D00006E0138008A
:10548C0031003600300010002F00130034002E02C3
:10549C002E0035023500FF00AA00DF02FF020100DA
:1054AC0000000100000000000000040100000004E6
:1054BC000500000000000001000001000320EE22A6
:1054CC00E922C022E422E200E900EA00B500B600BD
:1054DC00B700CD008301CC008A0192019401210216
:1054EC00230224022502260227022A02B300B4005A
:1054FC006F0070009F01CB019F02A002818283E2AA
:10550C0000E900EA00B500B600B700CD008301CC7D
:10551C00008A019201940121022302240225022611
:10552C000227022A02B300B4006F0070009F01CB67
:10553C00019F02A00281828331F7F6F5F4946697FD
:04554C00C62503006D
:00000001FF
