:100000000AC2000025C2000023C200000C94001D9B
:100010001FC200001DC200001BC2000019C2000068
:1000200017C2000015C200000C94F8210C94C522E0
:100030000C94831B0DC200000BC2000009C200001B
:1000400007C2000005C2000003C2000001C2000098
:10005000FFC100000C94261CFBC10000F9C1000088
:10006000F7C10000F5C10000F3C10000F1C10000BC
:10007000EFC10000EDC10000EBC10000E9C10000CC
:10008000E7C10000E5C10000E3C10000E1C10000DC
:10009000DFC10000DDC10000DBC10000D9C10000EC
:1000A000D7C10000D5C10000D3C100003400360024
:1000B000370013001C0004001224082218280C002A
:1000C000330014000D000E001B000000000029008A
:1000D000417E2C210F00150006000A0009001600C1
:1000E000113417320B3807001D0019001A001000D8
:1000F0000500000000002A00427E283114001A008A
:1001000008001500170004001600070009000A0087
:100110001D001B000600190005000000000029005A
:10012000417E2C00005712000C0018001C00330008
:100130000F000E000D000B003800370036001000D5
:100140001100000000002A22427E2800437E447EE7
:10015000457E467E2A082B00E200E100E3002A04E7
:10016000477E487E497E4A7E4C0400000000000025
:10017000000000004F12521251125012501A4F003C
:1001800052005100500050184F1452145114501482
:100190005016000000002A00407E2C0F1E021F0295
:1001A00020022102220259215A245B225C285D0090
:1001B0002F0230022D002E023500000000002D021B
:1001C0002E00045227022602250224022302623155
:1001D000613460325F385E003100310230002F0040
:1001E0003800000000000000000000004B7E00000E
:1001F000220A210A210B00000000470048000608DF
:100200005000510052004F00190800000000290062
:10021000417E2C00AE000000000000000000BB008A
:10022000A900AA00BC00A8004F00520051005000D5
:100230000000000000002A00427E280000000000AC
:10024000000000002A2B2800000000000000000031
:100250000000000000000029000000002C1E3420D7
:10026000212224342627252E362D3738271E1F20FD
:100270002122232425263333362E37381F04050642
:100280000708090A0B0C0D0E0F1011121314151686
:100290001718191A1B1C1D2F3130232D3504050684
:1002A0000708090A0B0C0D0E0F1011121314151666
:1002B0001718191A1B1C1D2F3130354C0000000077
:1002C000000000000000000000000000000000002E
:1002D000000000000000000000000000000000001E
:1002E0007E0F00D4FFFFFFC7000000781A03430011
:1002F00068006F0063006F006C0061006400200004
:1003000052004700420000000A036A006D006E00C0
:10031000770000000403090409023B00020100A069
:10032000FA09040000010301010009211101000183
:1003300022440007058103080001090401000103AC
:10034000000000092111010001226D000705820350
:1003500020000112010002000000080418503001C2
:10036000000102000105010980A101850319012A8C
:10037000B700150126B700950175108100C0050C66
:100380000901A101850419012AA002150126A00274
:10039000950175108100C005010906A101850605BA
:1003A0000719E029E7150025019508750181020567
:1003B00007190029EF1500250195F0750181020547
:1003C000081901290595057501910295017503919B
:1003D00001C005010906A101050719E029E715007B
:1003E00025019508750181029501750881010507B0
:1003F000190029FF150026FF0095067508810005E4
:100400000819012905150025019505750191029529
:100410000175039101C011241FBECFEFDAE0DEBFEA
:10042000CDBF11E0A0E0B1E0E8EFFAE402C0059032
:100430000D92AE3BB107D9F722E0AEEBB1E001C0BF
:100440001D92A93FB207E1F70E94A6140C942F2534
:10045000D7CD8091C101882321F01092C1018AEA91
:100460008AD38091C001882321F01092C00188E8CE
:1004700082C30895CF9380549E47C1E08C3091058C
:1004800020F5FC01EF5CFA4DDB011596CC910C9444
:100490009224C11102C0C0E018C083E090E0D3D51F
:1004A0008FEF64D38CE2DFD275D5F5CFCC2381F00A
:1004B00084E0F3D5882311F084E010D682E0EDD5F6
:1004C000C82F82E0C111E7CFFAD58C2FCF910895C4
:1004D000C0DF82E0E2D58823F1F282E0FFD5F5CFDC
:1004E000CC2369F084E0D9D5882311F084E0F6D5D7
:1004F00083E0D3D5C82F8111CECF83E0E5CFA9DF2C
:1005000083E0CBD5882309F4C6CF83E0E7CFCC23A3
:1005100009F4CACF88E82AD38FE2A5D2BCCFCC2376
:1005200009F4C2CF88E822D380E3F7CF83E3CC235A
:1005300009F4BACF1BD38BE2F0CFCC2309F4B4CFAC
:1005400081E1F8CFCC2309F4A6CFC091C101C1113C
:1005500010C08091C001882321F01092C0010E9438
:10056000520C8AEA03D38BE2F9D281E08093C10175
:10057000ACCF8BE2F3D28FCFCC2309F48CCFC091D8
:10058000C001C111F6CF8091C101882321F01092E2
:10059000C1010E94520C88E8E9D28BE2DFD281E0EF
:1005A0008093C00192CFCC2309F47ECF81E1DED2CB
:1005B00080E5B3CFCC2309F477CF81E1D7D28FE4A4
:1005C000ACCFCC2309F470CF8CECD0D28CE0A5CF8B
:1005D0008530B8F46830A8F4453098F450E095E0E0
:1005E000699F400D511D1124FA0198E2899FE00D89
:1005F000F11D1124EE0FFF1FE455FF4F85919491DB
:10060000089581E090E00895E3CF08959C013A9524
:1006100021153F4150F5FC01EE27F170BC01662722
:100620007270AC01442754709C012227387094FFEB
:100630000EC080E1EF2B09F480E0672B09F08062A7
:10064000452B09F08064232B89F08068089581E0B0
:10065000EF2B09F480E0672B09F08260452B09F04D
:100660008460232B19F08860089580E00895CF936B
:10067000DF93EB01CBDFFE010995DF91CF91089568
:10068000CF93DF93EC01805E9109089720F061EB36
:1006900077E0209711F466EB75E0CE01E8DF8C2F50
:1006A000E2D1DF91CF910895CF93DF93EC0118D27F
:1006B000CE01805E9109089720F066EB77E02097E5
:1006C00011F46BEB75E0CE01D2DFDF91CF9108958D
:1006D00081E00895FDCF089581E00895CBCE08957F
:1006E0000895FECF0895A6E0B0E0E9E7F3E00C94AA
:1006F000A72449835A839E833091CE0189819A81B0
:10070000311117C03E81332389F0222379F095D52A
:10071000182F682F89819A816ED569817A81812FFE
:100720000E94E50F2696E3E00C94C32475D5182F9C
:10073000F4CF83D569817A81F3CFFC01262F4081E4
:1007400051816281738184819581CDCF0895CF934A
:10075000DF93EC0161E0F1DFBE01BCDFDF91CF91FF
:100760000895CF93DF93EC0160E0E7DFBE01B9DFCE
:10077000DF91CF91089581E00895FDCF0895CF9343
:10078000C82F08D48C2FF9DF2FEF84E39CE0215091
:1007900080409040E1F700C00000CF91089581E0D3
:1007A000EEDF0C944A1C089580E0E9DF0C945B1C9A
:1007B00008950F931F93CF93DF938C0161E0BDDF0A
:1007C000EC01B8010E943319882321F061E0C801CF
:1007D000B4DFEC01B801CE0181DF811106C080E0F9
:1007E000DF91CF911F910F910895B801CE010E9422
:1007F000F0148823A1F3B801CE010E945A1988236E
:1008000071F3B801CE010E94D815882341F3B801D5
:10081000CE010E948618882311F3B801CE010E94F0
:1008200032168823E1F2B801CE010E940A1688230D
:10083000B1F2F8018581882361F0C330FCE7DF075E
:10084000D9F050F4C115ECE7DE07A1F0C130DC4768
:10085000A9F0C80141DFC4CFCB358CE7D80799F0A8
:10086000CC35ECE7DE0761F0CA35DC4791F70E9432
:100870004D0DEFCF94DFB3CF0E94530D95DFAFCF77
:100880000E94440DE6CF0E94500DE3CF0E94641BEE
:1008900096C0089597D00C94681B08952F923F92AC
:1008A0004F925F926F927F928F929F92AF92BF9280
:1008B000CF92DF92EF92FF920F93CF93DF931C01C1
:1008C00029013A016B0181E0C81AD108E101CC0D80
:1008D000DD1D1882F12CE12C8AE0882E912CA12CB0
:1008E000B12CEC14FD0498F0C101DF91CF910F9170
:1008F000FF90EF90DF90CF90BF90AF909F908F9040
:100900007F906F905F904F903F902F900895C3011C
:10091000B201A50194010E947024605D603319F456
:10092000E114F10431F0411451046104710409F43B
:10093000602F6A93C301B201A50194010E94702443
:1009400029013A018FEFE81AF80ACBCF0F932091D3
:100950001401309115012817390721F42091C8019D
:10096000261789F090931501809314016093C801B4
:100970009C0150E040E0062F66E070E082EC91E0E0
:100980008DDF0F91089582EC91E0FBCF089581E017
:1009900008950895CF93DF93D82FF9DFC82F8823C8
:1009A00011F08D2FF6DF8C2FDF91CF9108950895F0
:1009B000CF93C82FEBDF8C2FEDDFCF91089580E030
:1009C000F7CF08950E94E319F3CF0895CF930E94C3
:1009D000E319C82F8091C9018C1771F0C093C90128
:1009E0000E94EF1B6093CA017093CB018093CC01EE
:1009F0009093CD018C2FDCDFCF910895ADE0B0E076
:100A0000E4E0F5E00C94A824488759876A877B873F
:100A10008C879D87911159D71F8286E0FE013896F9
:100A2000DE01119601900D928A95E1F78D81811179
:100A30000CC029813A814B815C816D817E818F81DF
:100A400091D62D96E2E00C94C424CE0101967FDE6F
:100A50008111EFCFF6CFFC012481213019F4808180
:100A600091811CC40895CF93C82F882389F08CEFFF
:100A70008C0F813A78F48C2F0E947B1A882321F006
:100A80008C2F0E94191BAFD78C2F0E94041BABD751
:100A9000CF91089580E28C0F883040F4C77081E0D8
:100AA00001C0880FCA95EAF7F0D6F1CFEBE5EC0F5D
:100AB000E33040F4F0E0EA58FE4F808190E00E947D
:100AC0000F1AE6CFC85ACB3118F7EC2FF0E0EE0F33
:100AD000FF1FE05CFE4F808191810E94341AD8CFC5
:100AE000882329F19CEF980F913A20F40E94191B5A
:100AF0007AC7089590E2980F983048F4877091E093
:100B000001C0990F8A95EAF7892FC5D6F1CF9BE5E9
:100B1000980F933028F490E080E00C940F1A089519
:100B2000885A8B3120F490E080E00C94341A0895B8
:100B30001F93CF93DF93182FEB0195DF209731F4AC
:100B4000812FCEDFDF91CF911F9108958FE99FE034
:100B50000197F1F700C000002197F0CF70E060E04E
:100B6000893311F460E570E0E3CF0895882311F034
:100B70008CD639C70895882311F08DD634C70895CF
:100B8000B0E0A0E0E6ECF5E00C94A1246C01D62FD7
:100B9000C72FFC011581068102950F706CD6E82ED7
:100BA0008823E9F0E12E1123D1F08C2F807F80344F
:100BB00061F080E28D0F8830F8F08C2F807E8032DB
:100BC00021F4D230C8F00023B9F08091D10282FF25
:100BD00013C082E031D74FD691E0E82EE926BC2E33
:100BE000B2949FE0B922FBE0FB1580F1EB2DF0E021
:100BF000E35CFA4D0C949224E12CF1CF0C2F0F7092
:100C0000C07F11F00295007F112381F0002349F08D
:100C100080E28D0F883010F0D11105C0802F35D6BD
:100C2000E2D68D2F4CC0802F43D6FACF8D2F58DFC0
:100C3000002361F080E28D0F883010F0D11103C0E5
:100C4000802F29D602C0802F39D6CDD6EB2DE85083
:100C5000FF0B349718F40E94E319AADEEE2059F036
:100C600006D680FD08C0F6011582FBD528D2C60144
:100C70005AD1F7D533D2CDB7DEB7E9E00C94BD2415
:100C80002C2F2F70F22EC07FC03219F0F29480EF1B
:100C9000F822DD2341F0D13089F1112309F439C064
:100CA0000023D1F0BECF8091D10282FD11C011236B
:100CB00041F0FF2019F08F2DE8D595D680E0D3DEE6
:100CC000C5CF80E00DDFFF2009F4C0CF8F2DB9CF55
:100CD000112359F0011103C08F2D48DFB7CF013028
:100CE00009F0B4CF8F2D08D6B1CF0111AFCF8F2D22
:100CF00042DF8F2D0CD68F2DF1D5A8CF112321F0F7
:100D0000023008F0A3CFE8CF0111A0CF8F2D33DF41
:100D10009DCF0023D9F3D93349F43FEF87EE93E019
:100D2000315080409040E1F700C000008D2FD8DEA8
:100D30008DCF8C2F86958695837069F0813009F070
:100D400085CF8D2F9C2F9370111102C080E090E011
:100D50000E94341A7BCF8D2F9C2F9370111102C0EB
:100D600080E090E00E940F1A71CF8C2F837081F584
:100D700011116CCF4D2F429546954770440F440F8B
:100D80002D2F2F7030E0042E02C0220F331F0A9443
:100D9000E2F790E080E0D4FF09C08FE090E002C06D
:100DA000880F991F4A95E2F780959095C695C6954C
:100DB000C370822B932BC23039F040F4C13011F054
:100DC0003AD144CF30D142CF3ED140CF2AD13ECFCD
:100DD0008695112311F08C2F8170882309F436CF6A
:100DE0004D2F429546954770440F440F2D2F2F707D
:100DF00030E0042E02C0220F331F0A94E2F790E085
:100E000080E0D4FF09C08FE090E002C0880F991FF6
:100E10004A95E2F780959095C695C695C370822B4A
:100E2000932BC23039F040F4C13011F07FD10ECF96
:100E300075D10CCF83D10ACF12D108CFCF70112337
:100E400021F08C2F3CD18D2F48CF8D2F94DE8C2F0D
:100E500045D1FCCED23F31F160F4D03FB9F0D13F63
:100E600081F0112309F43BC00111DBCE8C2F8F716F
:100E70001DC0D33FE9F0D43FA1F78091D10282FD9C
:100E80001FC08C2F8F71112319F310C0112331F063
:100E90000111DCCE8C2F8F7132D1D8CE023008F008
:100EA000D5CEF8CF8C2F8F711111D2CF08D1CECEE5
:100EB000112321F08C2F8F71F7D0C8CED6D0C6CE9B
:100EC000112329F063E08C2F8F719CD5BFCE81E078
:100ED000B3D5023008F4BACE82E0AED5B7CE002347
:100EE00059F0D93309F022CFEFEFF7EE23E0E150CC
:100EF000F0402040E1F718CF8C2F8F71A9CF0F93CE
:100F00001F93CF93DF93EC01688179818D81CFD1DD
:100F10008C011CD185D0B801CE0132DEDF91CF919A
:100F20001F910F910895CF93DF93EC018C8188235B
:100F300081F0CE013EDC81110FC09DD4882349F0A1
:100F40008D81882331F08091D10282FF02C082E03E
:100F500073D5DF91CF910895CE01D1DFCE0101DCB1
:100F6000F8CF882311F0A4D43EC50895882311F04A
:100F7000A5D439C5089590E080E00E940F1A90E052
:100F800080E00E94341AA1D42EC508950E942E1B21
:100F9000F2CF089587D4FACF089592959F70963036
:100FA00091F058F4925F9F70923058F4803F19F09E
:100FB00030F4883E30F481E008959A5FF4CF843FA6
:100FC000D1F380E00895883EB0F3813FD1F7F3CFAD
:100FD000FC012481222329F0808191815FD1DDCF22
:100FE000089580E00895A6E0B0E0E9EFF7E00C9402
:100FF000A8242696E2E00C94C424A7E0B0E0E3E045
:10100000F8E00C94A8242796E2E00C94C4240895F8
:10101000FECF0895FDDF9093E6018093E5010895EA
:101020000895F8CF08952091E5013091E601822BD3
:10103000932BF0CF08952091E5013091E6018223B2
:101040009323E8CF08952091E5013091E6018227AE
:101050009327E0CF0895DBCF0895FDCF0895FDDFFE
:101060009093E4018093E301089590E080E0F7CF4E
:101070000895009729F481E0662371F080E00CC0A8
:1010800021E030E002C0220F331F6A95E2F72823E7
:10109000392381E0232B91F30895682F8091E30198
:1010A0009091E401E6CF089521E030E0A90102C06B
:1010B000440F551F8A95E2F7CA01D1CF089521E068
:1010C00030E002C0220F331F8A95E2F78091E301DE
:1010D0009091E401822B932BC2CF089521E030E060
:1010E00002C0220F331F8A95E2F720953095809138
:1010F000E3019091E40182239323B1CF089521E08D
:1011000030E002C0220F331F8A95E2F78091E3019D
:101110009091E40182279327A2CF08952091E301C3
:101120003091E401822B932B9ACF08952091E30113
:101130003091E4018223932392CF08952091E3011B
:101140003091E401822793278ACF08950895262FAE
:10115000277091E001C0990F2A95EAF723E0769570
:1011600067952A95E1F7660F771F660F771FFA01DB
:10117000E60FF71F50E040E0682F70E08191DF013B
:1011800011979B01042E02C0369527950A94E2F729
:10119000217021952827292328272C934F5F5F4F03
:1011A0004430510559F70895A82FA77023E096956C
:1011B00087952A95E1F7880F991F880F991FFB01E2
:1011C000E80FF91F50E040E080E0219130E00A2E66
:1011D00002C0369527950A94E2F721703327042E32
:1011E00001C0220F0A94EAF7822B4F5F5F4F443011
:1011F000510559F70895262F983068F4853058F432
:10120000682F70E085E0989F600D711D11244FECF0
:1012100051E0822F9CCF0895292F983060F48530BB
:1012200050F490E06FEC71E035E0239F800D911D4C
:101230001124BACF089580E00895B0E0A0E0E3E281
:10124000F9E00C94A1247C010091E3011091E401E8
:101250008091E5019091E601082B192BCFE0D0E0B9
:10126000CC24C394D12CBC2EC6010C2E02C0880FF6
:10127000991F0A94E2F780239123892B49F421973F
:1012800090F7B12C8B2DCDB7DEB7E9E00C94BD24DF
:10129000B7018C2FA6D6019791F3F4CFCF93DF93AC
:1012A000EC01CBDFBE019DD6DF91CF9108951F9356
:1012B000CF93DF93EB019091CE01992331F0CB01D5
:1012C000EDDFDF91CF911F910895882351F0CB017D
:1012D000B4DF182F682FCE018EDFBE01812F81D69B
:1012E000F0CFCB0199DF182FF8CF1F93CF93DF9367
:1012F000C091E70117E08091E8018C1304C0DF91F1
:10130000CF911F910895D0E01C9FF0011D9FF00D1B
:101310001124E751FE4F2081318142815381648144
:10132000758186816ADE2196C770E5CF2091210202
:1013300030912202409123025091240260912502B3
:10134000709126028091270258CE08950F931F9323
:10135000CF93DF9380912702807F09F04FC0809167
:101360002602882309F44AC0E091E701D091E80100
:1013700010912202009121024091230250912402F7
:101380006091160170911701C7E0DE17B9F18E2F39
:1013900090E0EC9FF0011124E751FE4F24812223BD
:1013A00091F1C89FF001C99FF00D1124DF01A751F1
:1013B000BE4F11962C911197211325C02C9120130B
:1013C00022C015962C91159721111DC012962D91B2
:1013D0003C91241B350B26173707A8F48091270270
:1013E0008F70806180932702E151FE4F80818F7062
:1013F0008061808381E292E096DD77DFDF91CF919B
:101400001F910F910895FC013196E770BECF482FD0
:101410002091E7019091E80157E0291302C080E094
:10142000089530E0529FF001539FF00D1124E751D1
:10143000FE4F8181681306C08081481303C08581F7
:101440008111EECF2F5F3F4F2770E7CFA4E1B0E0CF
:10145000ECE2FAE00C949E248C0186E0F801DE01B7
:101460001F9601900D928A95E1F7D80114968C9100
:1014700014971596EC90159791E2A92E92E0B92E4B
:101480009091250291111AC08823A9F0EE2089F0CD
:10149000C8019EDDF82E882361F087E0F801D501B0
:1014A00001900D928A95E1F7C501D5DA4FDF3EDF55
:1014B0003FC0C80138DDFF24F3943AC0F801C08072
:1014C000D18082809380F090260220912302309177
:1014D0002402A401421B530B9A0140911601509122
:1014E0001701FF2009F4E7C02417350708F09AC058
:1014F0008823F1F09091220280912702282F207FEB
:1015000009F060C09D1119C090912102C91215C047
:10151000E11052C08F7080618093270207DF81E263
:1015200092E001DD80912702D80116968C93F12C70
:101530008F2D6496ECE00C94BA24E1103DC06D2D23
:101540008C2D65DFE82E882361F081E292E0EBDCF0
:1015500087E0E1E2F2E0DF011D928A95E9F7E6DE3D
:10156000E6CFCF86D88A8F85988998DE292F229555
:101570002F70243058F49F70223080F0992391F01E
:10158000F8019681907F71F4FE2CD2CF2A5F2F70E4
:10159000223060F0C801C7DCEF2CF6CF992311F0A0
:1015A000882391F3805E883078F3F4CF803F60F336
:1015B000815F833078F7E8CF809127028160809344
:1015C0002702B5CF9D1107C090912102C91203C017
:1015D000EE2009F498C0C801FBDC882309F469CF28
:1015E000EE2009F466CF80912702803280F02091AE
:1015F000210230912202398728879B868A86909122
:1016000025029C871D868E87CE0108968CDC87E09C
:10161000F801A1E2B2E001900D928A95E1F796DE21
:1016200085DE49CF90912702292F207F81F4682DF4
:101630009A8A898AA6017A899E2DD5DC81E292E078
:1016400072DC87E0F50111928A95E9F788CF88234B
:1016500009F46ECF809122028D1110C08091210279
:10166000C8120CC0E1100AC016969C93C8015BDC3E
:1016700087E0F50111928A95E9F75ACFC801A8DCF5
:10168000882309F416CFEE2009F413CF80912702A6
:10169000803208F4BCCF20912102309122023A839B
:1016A00029839C828B82909125029D831E828F8349
:1016B000CE010196ABCF2417350708F046C088232A
:1016C00009F4F9CEFE2CEE2009F4F3CE809122022B
:1016D0008D112FC080912102C8122BC02A3A3105EA
:1016E000F8F49091270290FD1BC0907FC9F0809183
:1016F000270216968C931697903F39F0982F907F7B
:10170000905F8F70892B16968C93C8010CDC87E054
:10171000F801A1E2B2E001900D928A95E1F7C7CEFF
:1017200087E0F801A1E2B2E001900D928A95E1F71D
:10173000FFCEC8014DDC81116ACF80912702816004
:1017400080932702C801EFDBF3CE682D9A8A898A3D
:10175000A6017A899E2D47DC87E0F50111928A95D2
:10176000E9F7A5CEAEE0B0E0E8EBFBE00C94A724EF
:10177000288739874A875B876C877D878E87CE016C
:10178000089664DE8823A9F06C85662339F02885E5
:1017900039854A855B857D858E852FDC17E08091B4
:1017A000E7019091E80189133BC02E96E3E00C9489
:1017B000C32487E0FE013896DE01119601900D9258
:1017C0008A95E1F78C85882349F32091E80130E080
:1017D000C9010196877099274091E70148171906BA
:1017E00091F097E0929FD001939FB00D1124A751E3
:1017F000BE4FFE01319601900D929A95E1F78093CC
:10180000E80173DDCBCFC6DB1092E8011092E7014F
:1018100087E0E1E2F2E0DF011D928A95E9F7BECFB1
:10182000819FC001112487519E4F10DE882309F447
:10183000BCCFE091E7011E9FF0011124E751FE4F5C
:101840002081318142815381648175818681D5DB1C
:101850008091E70190E00196877099278093E701D6
:101860009ECF8091500286958695869508958091A9
:1018700050028770089590915002977081E009F4AA
:1018800080E0089580917C02089590917C02892BDC
:1018900080937C020895809590917C029823909388
:1018A0007C02089510927C02089580917B02089535
:1018B00090917B02892B80937B0208958095909173
:1018C0007B02982390937B02089510927B020895E7
:1018D0008091520208950895FECF0895909151028B
:1018E000292F282329F08095892380935102F4CF52
:1018F00008950895FECF089590915202292F28232C
:10190000281721F0982B90935202F4CF08959091CC
:101910005202292F282329F080958923809352028F
:10192000E9CF089580915202882321F0109252024B
:1019300080E0E0CF0895CF93C0917C0280917B023C
:10194000C82B80915202882329F0C82B0E94591A73
:101950008111E8DF8C2FCF910895CF93DF93C09151
:101960001A01D0911B01E7DF8883C0911A01D09141
:101970001B0148E050E068E472E0CE010E94CF24F1
:10198000892B59F088E0FE01A8E4B2E001900D92A5
:101990008A95E1F7CE010E94F619DF91CF91089563
:1019A000CF93DF93C0911801D0911901C4DF8983CF
:1019B000C0911801D091190140E250E068E272E054
:1019C000CE010E94CF24892B59F080E2FE01A8E2CB
:1019D000B2E001900D928A95E1F7CE010E94011AC2
:1019E000DF91CF91089580913F01882331F080915C
:1019F000D00287FF02C0D4CF0895AFCF08950895D5
:101A0000FECF08959091D10292FF0FC098E0899F78
:101A100090011124622B6093500251DB809150029F
:101A2000869586958695ECCF089549CB08951092BA
:101A3000500280E0E5CF089590915002809589236F
:101A400080935002282F277059F4891749F09091FC
:101A5000D10292FF05C08695869586953FDBE7CF3C
:101A600008959091D10292FB222720F9281759F06E
:101A700080FB92F99093D1028091D0029091D10293
:101A800033D082E0D9CF08958091D10282FB88279C
:101A900080F991E08927E5CF089581E0E2CF0895AC
:101AA00080E0DFCF08956FEF7FEF90E080E00C944F
:101AB0001B25089590E080E00E94ED2421E0853E02
:101AC0009E4F09F020E0822F089582E090E00C9470
:101AD000E524089583E090E00C94E524089584E0E3
:101AE00090E00C94ED240895BC0184E090E00C9407
:101AF0001B250895AB01BC018FE090E00C941325E9
:101B00000895AB01BC0183E190E00C941325089586
:101B100060E070E0CB01F5CF089560E070E0CB01AC
:101B2000E9DFF6CF0895A8E0B0E0E9E9FDE00C9424
:101B3000A82465EE7EEF90E080E00E941B2560E027
:101B400082E090E00E94012581E090E09093E60120
:101B50008093E50161E083E090E00E94012560E070
:101B600074E184E090E00E941B2560E086E090E054
:101B70000E94012560E087E090E00E94012540E09E
:101B800050E0BA0188E090E00E94132560E083E213
:101B900090E00E94012560E08CE090E00E94012529
:101BA00060E08DE090E00E94012519821A821B827C
:101BB0001C821D821E821F82188648E050E067E169
:101BC00070E0CE0101960E94F22440E050E0BA019C
:101BD0008FE190E00E941325A0DF2896E2E00C94AC
:101BE000C424A1CF0895682F8EE090E00C940125C5
:101BF0000895A6E0B0E0EFEFFDE00C94A6240E946B
:101C0000E31B8C0180917D0290917E0280179107E9
:101C100081F019821A820E94E31B682F49815A8140
:101C2000792F80E090E00E94FE0410937E020093E2
:101C30007D022696E4E00C94C224ECD260938B02E1
:101C400070938C0280938D0290938E026093870232
:101C5000709388028093890290938A020895089570
:101C60000895FDCF08950895FECF089581E0089569
:101C700083E291E17BD6F4DFF4CF08958BC408951D
:101C800008950895FDDFFDCF089514DF811101C08F
:101C9000A8DF1BDF80938F0222DF9093D102809315
:101CA000D00280D617DF90E0BCD98091E3019091FB
:101CB000E401D3C908950E94DA1B87D270D4C7D338
:101CC000E4DF0E94D7045CD777D4CECF089562D4E6
:101CD000882319F00E94B8193BC70895A6E0B0E028
:101CE000E4E7FEE00C949F24C1DF811108C081DF8E
:101CF000EEDF0E94E6042696EBE00C94BB24C7D3EB
:101D00008FE7A82E82E0B82E750110E0F70101914F
:101D10007F01812FA0D21F5F183009F43DC0081742
:101D2000A9F380918F0281FD9CD2A8DFC82E10E01C
:101D300099249394812F8FD2082FF50181915F010F
:101D4000081729F1D02ED826F12CEE24E3948D2DFE
:101D50008E21A9F0CC2099F0F9821A830E94E31B0E
:101D60009C838B839D8291E0802F8E2109F490E0EB
:101D700049815A816B817C818D810E94FE04F3949C
:101D8000EE0CF5E0FF12E3CFF501319700831F5F02
:101D9000183081F652DFACCF0813C3CFA8CF1F9302
:101DA000CF93DF9321D1EC01C11580E5D807F0F581
:101DB000C11580E4D80708F09AC0C03ED10520F5CF
:101DC000CD3CD10508F082C0C83AD10578F4C53AB7
:101DD000D10508F073C0C130D10519F1209709F180
:101DE000C430D105F0F4D0E0C0E01BC0C33CD10545
:101DF000D0F7C85AD0E0CC0FDD1FC758DE4F09908E
:101E0000D881C02DD4640DC0C11580E2D80708F078
:101E1000CCC0C11581E0D80708F05AC0C83ED10532
:101E200010F7CE01DF91CF911F910895C03682E562
:101E3000D80718F5C03482E5D80708F068C0C0326A
:101E400082E5D80708F05CC0C11582E5D80708F420
:101E500093C02C2F2695269580E2289F900111246F
:101E60008C2F8370C1E0D0E002C0CC0FDD1F8A95BB
:101E7000E2F7C22BD32BDD68D4CFC03A82E5D80776
:101E800060F4C03882E5D80708F456C0CF71D0E0BE
:101E9000DC2FCC27C46FD06AC4CFC03C82E5D80702
:101EA00008F45FC0C03E82E5D80708F09CCFDC2F65
:101EB000CC27CC27DF71C06FD06AB3CFC55AD0E032
:101EC000C155DE4FC881D0E0D064ABCFD065A9CF7B
:101ED0008D2F2CD1182FCE01992786D0C12FD0E07D
:101EE000DC2FCC27CC27DF71C82BD92B9ACFCE0182
:101EF00099277AD0CC27DF70C82BD92BD06A91CF05
:101F0000CF71D0E0DC2FCC27C16FD06A8ACF2C2FC5
:101F100026952695277080E2289F900111248C2F0A
:101F20008370C1E0D0E002C0CC0FDD1F8A95E2F7DC
:101F3000C22BD32BDC6875CF2C2F269526952770C6
:101F400080E2289F900111248C2F8370C1E0D0E0A3
:101F500002C0CC0FDD1F8A95E2F7C22BD32BDA68C3
:101F600060CF8C2F8F71E2D0C82FD0E0DC2FCC2730
:101F7000CC27DF71D06255CF8C2F8F71D7D055E031
:101F8000D695C7955A95E1F7CF70D0E0DC2FCC27D6
:101F9000282F30E084FF05C044E0220F331F4A950C
:101FA000E1F7C22BD32BD0693CCF8D2F8F71BED0E0
:101FB000182FCE01992718D0C12FD0E0DC2FCC27C5
:101FC000CC27DF71C82BD92BD5CF462F783030F4F2
:101FD000653020F4672F0C940403089590E080E0AE
:101FE0000895F3DFDCCE089582389105B9F1B0F49D
:101FF0008133910509F47DC048F48932910509F4D3
:102000006DC08A32910509F47BC00895853391052E
:1020100009F45FC08933910509F10895833E910564
:10202000D9F138F4803E910529F1823E910579F18C
:102030000895863E9105D9F1873E910509F43EC089
:10204000843E910541F52091D10221FF24C0809169
:10205000D00284FD19C087EE90E008952091D0024F
:10206000237009F05AC02091D10223FF14C089E2E5
:1020700090E008952091D00220FD38C03091D10227
:1020800030FF09C024FF43C090E080E00895209114
:10209000D00222FDF7CF08952091D00222FD3AC050
:1020A0003091D10230FD39C024FFF5CFEDCF209122
:1020B000D00223FFF0CF24FDE7CFCDCF2091D00277
:1020C00023FD2EC03091D10231FFEECF84EE90E09F
:1020D00008952091D00225FFDECFC9CF2091D002F4
:1020E00025FD21C02091D10223FFD5CF89E390E0C7
:1020F000D2CF2091D00226FFCECF8AE290E0089581
:102100002091D00226FFC7CF81E390E0089583EEAF
:1021100090E0089582EE90E0089580EE90E00895BA
:1021200086EE90E0089585E390E008959091D002C6
:1021300092FF10C041E0282F2471243009F040E0C4
:1021400031E0282F2871283009F030E0431711F0D2
:102150002CE0822793FF10C041E0282F2471243106
:1021600009F040E031E0282F2871283109F030E0F3
:10217000431711F02CE082273091D10230FF10C0BC
:1021800051E0282F2171213009F050E041E0282F43
:102190002871283009F040E0541711F029E0822717
:1021A00031FF10C041E0282F2171213109F040E0BA
:1021B00031E0282F2871283109F030E0431711F061
:1021C00029E0822794FD877E08951092D202109212
:1021D000D3021092D4021092D5020895CF92DF92CA
:1021E000EF92FF926B017C01D5D181110EC00E944C
:1021F000EF1BC61AD70AE80AF90AC092D202D09297
:10220000D302E092D402F092D502FF90EF90DF90DB
:10221000CF9008950F931F93BDD1882329F00E947A
:10222000EF1B1F910F9108950E94EF1B0091D202A6
:102230001091D3022091D4023091D502600F711F0A
:10224000821F931FEECF80E008950895FECF08957A
:102250000895FECF0895E82FF0E0E152FD4F808110
:102260000895089580EA8A95F1F7089500C00895C9
:10227000F9CF08950895FECF0895EF92FF921F932E
:10228000CF93DF9300D000D0CDB7DEB783D1182F26
:102290006091E702882309F445C019821A821B82E3
:1022A0001C82862F90E09E012F5F3F4F7901B9017C
:1022B00081529D4F8DD18823E1F08091D60290E02C
:1022C00044E050E0B70181529D4F0E94CF2421E0AD
:1022D00020939002892BC1F410E0BBDF812F0F9077
:1022E0000F900F900F90DF91CF911F91FF90EF9083
:1022F000089580919002882379F384E0F701119288
:102300008A95E9F710929002E091D602F0E0E1524E
:10231000FD4F89819A81AB81BC8180839183A283A7
:10232000B383DBCF70E061527D4F8091D60290E0A5
:1023300081529D4FD2D19FDFD1CFF894E82FE29503
:10234000EF70F0E031A1282F2F7081E090E001C004
:10235000880F2A95EAF7982F9095932391A392A13D
:10236000892B82A378940895CF93DF9384E9E5DFE6
:1023700086E6E3DF87E9E1DF86ECDFDFC2EBD1E071
:1023800089918F3F09F0D9DF81E0C73BD807C1F7BA
:10239000DF91CF910895B0E0A0E0E1EDF1E10C9480
:1023A000A224EC01D62E062F10E0C80189549E4FBE
:1023B0007C01FC0180818F3F09F442C0F894E82F32
:1023C000E295EF70F0E091A18F7021E030E001C064
:1023D000220F8A95EAF7892F822B81A382A120956B
:1023E000282322A3789442DFE2EBF1E047EB51E0AF
:1023F00031E0C12C21912F3F41F1A22FA295AF7066
:10240000B0E090968C9190E02F7002C095958795E2
:102410002A95E2F780FD19C0832FC82A330F4E1783
:102420005F0741F7F70180818F3F09F086DF61E0A8
:10243000C11001C060E08D2D1BDFC00FD11FC8820D
:10244000CDB7DEB7E8E00C94BE2480E0E6CF809103
:102450001C0180911C0194E0811190E09093E702AF
:1024600084E0891B8093D6027FDF88E0EFEDF2E005
:10247000DF01982F1D929A95E9F7E7EDF2E0DF0171
:102480001D928A95E9F784E03DD0E0CE0895A8E05A
:10249000B0E0EDE4F2E10C94A5248E010F5F1F4F34
:1024A00088E0F80111928A95E9F7F12C6F2DC801A7
:1024B00072DFF394F4E0FF12F9CF48E050E0B80186
:1024C00087ED92E00E94CF2421E0009709F420E0FC
:1024D000892B41F088E0F801A7EDB2E001900D9260
:1024E0008A95E1F76091E70270E061527D4F44E028
:1024F00087ED92E008D0182FC0DE812B2896E5E00A
:102500000C94C1240895B0E0A0E0E9E8F2E10C9455
:10251000A2246C017B01042FC22F222379F081E0D9
:10252000809393020E94E31B909392028093910206
:1025300080E0CDB7DEB7E8E00C94BE24D0919302E2
:10254000DD23B1F380919102909192020E94FB1BD6
:10255000059770F310E0A801B601C7010E94CF24CF
:10256000892B31F0A801B601C7010E94DC24CD2FD0
:10257000109293028C2FDDCFCF930E946324C82F3B
:10258000811102C00E945F248C2FCF910895809109
:1025900097020895809196020895FCCF0895ECDF8C
:1025A00080939602FADF80939702F1DF80931C01FB
:1025B000F1DF811142C00895EDDF811101C040C0FB
:1025C000089581E0909198029A3008F080E0089593
:1025D0000F931F93CF93DF93EC018B0180919802AF
:1025E0008A30B0F4B801CE0176D0C82F811122C054
:1025F000809198028F3FB9F40E94E31B909395025B
:10260000809394028C2FDF91CF911F910F910895A9
:1026100080919402909195020E94FB1B843F91400F
:1026200008F7C0E0EFCF8F5F809398028A3020F7E1
:10263000C1E0E8CF10929802E5CF0C94BD1C08953C
:102640000C94C01C0895B0E0A0E0E9E2F3E10C9422
:10265000A3247901C82F880FDD0B41155105A9F07E
:10266000FE0193E0EE0FFF1F9A95E1F7E35EFE4F48
:102670008181928187569D4F208130E04217530718
:1026800008F49A01A9010E94DC24CE010E94A01D39
:10269000D82E8823D1F001151105B9F083E0CC0FB5
:1026A000DD1F8A95E1F7FE01E35EFE4F438150E0B6
:1026B0000417150708F4A801C35EDE4F6C817D8105
:1026C00067567D4FC7010E94DC248D2DCDB7DEB744
:1026D000E7E00C94BF24EFC0089502C10895A4E080
:1026E000B0E0E5E7F3E10C94A6246091AE027091AE
:1026F000AF028091B0029091B1020E940A1C11E0D9
:10270000643671058105910508F184DD6E5F7F4FA8
:102710008F4F9F4F69837A838B839C8310E000E007
:1027200030E020E044E050E0BE016F5F7F4F82E088
:102730008ADF182F882351F00E94EF1B6093AE02AE
:102740007093AF028093B0029093B102812F2496D0
:10275000E4E00C94C224B0E0A0E0E1EBF3E10C94DF
:10276000A0247C015B016A012CDF01E010E08823DA
:1027700011F00AE010E0C1E0D0E0B501C701F601B8
:102780000995811104C021960C171D072CF4CDB7B3
:10279000DEB7EAE00C94BC24CC9F9001CD9F300DB5
:1027A000300D112490E080E045E34A95F1F70000F8
:1027B000019682179307C1F7E0CFA5E0B0E0E3EE02
:1027C000F3E10C94A0245B01E090BB01F090BC010C
:1027D00001E010E09E012B5F3F4F50E040E070E0D1
:1027E00060E080E030DF182F882309F447C06701DC
:1027F0008FEFC81AD80A6091AA027091AB0280913B
:10280000AC029091AD020E940A1C643671058105EC
:10281000910568F104E010E09E012F5F3F4F50E00A
:1028200040E070E060E081E00EDFF82E64E070E0F0
:10283000C601A7D111E09D81981310E01F2149F135
:10284000CED76093AA027093AB028093AC029093B0
:10285000AD0289819A81AB81BC818093A60290935D
:10286000A702A093A802B093A90211E012C064E0ED
:1028700070E0C60186D19D818913CCCFF70181819B
:102880009281A381B48189839A83AB83BC83111124
:10289000E0CF8091A6029091A702A091A802B091EA
:1028A000A902F50180839183A283B383812F2596AA
:1028B000EAE00C94BC240F931F93CF93DF93EC01B9
:1028C0008B014DED53E147DF882329F04FE653E1BB
:1028D000B801CE0140DFDF91CF911F910F91089594
:1028E0000F931F93CF93DF93C091BB01D091BC0195
:1028F000CE01019624E0FB01DC0101900D922A95A6
:10290000E1F764E070E03DD188836D817E818F8145
:1029100098850091A2021091A3022091A402309107
:10292000A502601771078207930749F06093A2021E
:102930007093A3028093A4029093A5024FDCDF91D1
:10294000CF911F910F910895C9C90895D5D60E94BE
:10295000411F8ED90E945A1FAED90E94641F0E9447
:10296000681FF2DF0E947E1F8DD9F9CF9093BF01BF
:102970008093BE01089597C8089580E06CDC817053
:10298000089585DD2FEF86E791E02150804090404B
:10299000E1F700C000007BDDF0DF882311F0EBDF02
:1029A00079C70895EECF08958832910548F48E31A5
:1029B0009105A0F4049750F082E00E94580C0EC0DC
:1029C0008D329105C9F320F48A9741F080E0089593
:1029D0008C34910519F08D329240C1F781E0089551
:1029E000EF92FF920F931F93CF93DF93EC017B0144
:1029F000C3378CE7D80761F4FB011581112311F06F
:102A0000B7D010E0812FCDB7DEB7E6E00C94C0243C
:102A10000E94420C082F0E94680C082B7BD0811169
:102A200007C0023211F011E0EDCF78D0B2D3FBCF66
:102A300069D0F70115811123B1F30D7909F054C064
:102A4000C034F2E5DF0720F5C11582E5D807D0F6DE
:102A5000C115E0E4DE0790F4C115F0E2DF07B0F540
:102A6000C63ED10579F20E94650CCE019DDFC82FCC
:102A70008823D1F10E94F30C1C2FC4CFC11580E52F
:102A8000D80788F7F7018681807F69F2DD27EBCFD1
:102A9000C03EE2E5DE07A0F4C03CF2E5DF0708F047
:102AA000B1CFC03682E5D807F0F2C03AE2E5DE07E2
:102AB00008F4A8CFC43BF2E5DF0709F4A3CFD3CFD6
:102AC000CE0187579C47029770F69CCFF70186810D
:102AD000807FE1F68D2F8F71823189F038F4C1EE5D
:102AE000D0E0823009F4BFCF27D08CCF843109F4F5
:102AF00089CFC6EED2E1863109F4B5CFF5CFC5EE68
:102B0000D0E0B1CF60D688579C4E9093B3028093AB
:102B1000B20208958091B402089508958091B4029C
:102B2000811109C00E94520C0E94920CEBDF81E0DF
:102B30008093B402F2CF08958091B402882339F0D3
:102B400082E20E94B6071092B40280E0E6CF0895B8
:102B50008091B402882359F036D62091B202309188
:102B6000B302821B930B8F3F9F4708F4E5CF089574
:102B70008091B402882311F0DFCF0895CFCF08955C
:102B80000895FC01680F791F8FEF91E36E177F079F
:102B900009F408952191822728E030E087FF06C0DC
:102BA000880F892721503109C9F7F0CF880FFACF54
:102BB0009C01FB018581882359F12137FCE73F0700
:102BC000B9F022379CE73907E9F020373C4709F58F
:102BD00060E280911601909117010E94A604FC0109
:102BE000019620812032D9F3CF0126D280E00895CA
:102BF000809116019091170105969093170180938B
:102C00001601F4CF80911601909117010597F5CF29
:102C100081E00895CF93DF93EB0186319C4701F566
:102C20000E94420C9D81992391F08A7A91E009F4E7
:102C300090E09093B502811108C089E2E5D40E942A
:102C4000F30C80E0DF91CF91089585E3F7CF809179
:102C5000B502811103C089E2ECD4F1CF85E3FCCF4A
:102C600081E0F0CFCF93DF93EC01FB0185818823D6
:102C700009F4D2C09E0130572332310508F0B2C0AA
:102C80000E946F0D9093D1028093D002FE01E1501B
:102C9000F047E232F10520F4E75BFA4D0C94922400
:102CA0008091D00281608093D00293C08091D10244
:102CB00088608093D1028DC08091D0028260F3CF72
:102CC0008091D0028460EFCF8091D0028860EBCFFA
:102CD0008091D1028160EDCF8091D1028260E9CFF5
:102CE0008091D0028061DFCF8091D0028062DBCF03
:102CF0008091D0028064D7CF0E94CA078091D00211
:102D00008068D1CF8091D0028C60CDCF8091D102EC
:102D10008360CFCF8091D0028E7FC5CF8091D102CA
:102D2000877FC7CF8091D0028D7FBDCF8091D002A9
:102D30008B7FB9CF8091D002877FB5CF8091D102B0
:102D40008E7FB7CF8091D1028D7FB3CF8091D0029B
:102D50008F7EA9CF8091D0028F7DA5CF8091D002A8
:102D60008F7BA1CF0E94CA078091D0028F779BCF23
:102D70008091D002837F97CF8091D1028C7F99CFB1
:102D80008091D00282FB992790F921E0922790FB55
:102D900082F990FB83F987CF8091D102982F90958B
:102DA00091708E7F892B90FB81F983CF9091D00217
:102DB000892F8F7B96FF806476CF0E94CA079091FF
:102DC000D002892F97FB87F980586DCF81E00E9450
:102DD000F30D8091D0029091D1020E94740D0E9457
:102DE000CA0780E0DF91CF91089580E0F0CF909105
:102DF000D002892F8F7E94FF806155CF9091D002B1
:102E0000892F8E7F90FF81604ECF9091D102892FC4
:102E1000877F93FF88604DCF81E0E4CFB0E0A0E0F2
:102E2000E4E1F7E10C94A124E82FF0E0E45CFD4F2D
:102E3000B490282F26952695269530E0F901E45286
:102E4000FD4F0491877010E0082E02C0159507957C
:102E50000A94E2F701701127F901E453FD4FE49061
:102E6000F12C082E02C0F594E7940A94E2F791E061
:102E7000E922FF24F901E454FD4FC491D0E002C0DF
:102E8000D595C7958A95E2F7C170DD27C62ED12C5E
:102E90000115110549F5E114F10431F086EE0E94A7
:102EA0003305C601009771F5B6018B2D0E94980578
:102EB000C601009779F5E114F104A1F5011511059A
:102EC00031F081EE0E947005C6010097C9F5CD2B47
:102ED00031F08CE20E94AE05C114D104C9F5CDB722
:102EE000DEB7E9E00C94BD2481EE0E943305C601F3
:102EF000009789F2EFE9FFE03197F1F700C0000099
:102F00000197F6CFEFE9FFE03197F1F700C000003D
:102F10000197C8CFEFE9FFE03197F1F700C000005B
:102F20000197C7CF86EE0E947005C601009731F267
:102F3000EFE9FFE03197F1F700C000000197F6CF0D
:102F4000EFE9FFE03197F1F700C000000197BDCF36
:102F50008FE99FE00197F1F700C0000091E0C91AE6
:102F6000D108BACFEF92FF920F931F93CF93DF93C5
:102F7000EC01162F0AE08881882309F458C08130BB
:102F800009F052C08981813071F47E0182E0E80E3F
:102F9000F11C8A810E94AE05E701812F90E0009725
:102FA000D9F52196E8CF823041F47E01E2E0EE0EC1
:102FB000F11C8A810E943305EFCF833041F47E01FA
:102FC000F2E0EF0EF11C8A810E947005E5CF84309B
:102FD00011F02196E2CF2A81229690E080E0AE01A6
:102FE0004F5F5F4F2053330B2A30310550F000976D
:102FF000A1F2EFE9FFE03197F1F700C0000001977F
:10300000F6CF089FB001099F700D1124C901860FEA
:10301000971F2981EA01E3CFEFE9FFE03197F1F74C
:1030200000C000000197BBCF612FF8DEBACFCDB74B
:10303000DEB7E6E00C94C02460E094CF08950F93CF
:103040001F93CF93DF93C42FD22FFC018581882358
:10305000C1F04093B802B7D39093B7028093B60201
:1030600080E28C0F883040F4C77081E001C0880F87
:10307000CA95EAF70E94B605DF91CF911F910F9193
:1030800008951091B802141335C08091B602909142
:10309000B702B1D32091160130911701821793071F
:1030A00048F5C0E2CD0F1D17B9F080E2810F8830DE
:1030B00040F4177081E001C0880F1A95EAF70E946A
:1030C000BB05C83048F481E09D2F977001C0880F80
:1030D0009A95EAF70E94B605802F0E94AE05C83087
:1030E00058F6D77081E001C0880FDA95EAF70E94A0
:1030F000BB05C2CF80E28C0F883008F0BDCFC7700F
:1031000081E001C0880FCA95EAF7F1CF0F93DB0188
:1031100088519C478730910598F5FC01E559FA4D97
:103120000C94922406E221EE41EE6AE17CE7CD01A7
:1031300086DF80E00F91089507E225EE45EE6BE112
:103140007CE7F5CF06E221EE40EE68E17CE7EFCFC9
:1031500007E225EE44EE69E17CE7E9CF06E221EEE5
:1031600042EE6CE17CE7E3CF07E225EE46EE6DE14F
:103170007CE7DDCF08E221E045EE6EE17CE7D7CFCA
:1031800015968C91882319F01092B802D3CF81E064
:10319000D1CF1092B80208954115510511F0FA01EE
:1031A00009950895CF93DF93EC014A855B856E8581
:1031B0007F85F2DF8B810E945E0C8C810E944B0C1C
:1031C0000E94F30C86E0FE0111928A95E9F7DF91E7
:1031D000CF910895CF93DF93EC018D8181FD10C0D5
:1031E00082608D838B810E94580C8C810E94450CDB
:1031F0000E94F30C488559856E857F85CE01CCDF12
:103200001092BC021092BB028D8180FD02C0CE01E3
:10321000C9DFDF91CF910895CF93DF93EC018A81CD
:10322000823041F4FB01828193810E9440038D81B1
:1032300082608D83DF91CF910895FB018081918120
:103240000C9440030895FC018281813031F4FB012C
:10325000808191810C94540308958230E9F7FB0139
:1032600082819381F7CFCF93FB01C581CC23E9F015
:10327000E091BB02F091BC023097D1F0E817F9075A
:10328000B9F0FF2724E0EE0FFF1F2A95E1F7DF01D9
:10329000AB5FBE4F2C9124602C93E050FF4F918385
:1032A0008083CF0197DF0E94650C8C2FCF9108950A
:1032B000C0E0FBCF0F931F93CF93DF938C01975503
:1032C0008F3F910509F0B8F5C801992724E0880FD0
:1032D000991F2A95E1F7EC01C050DF4FFB012581D2
:1032E000FC01EB5FFE4F808120FB80F9808322236D
:1032F00041F169D29093BA028093B9028A818F5FBB
:103300008A830E94420C8B830E94550C9B81892BDF
:103310008B830E94680C8C834E815F816E857F85D4
:10332000CE013ADF8D8181FF02C010E000E01093F2
:10333000BC020093BB0281E0DF91CF911F910F91FE
:1033400008954C855D856E857F85CE0125DF8D8155
:1033500081FFF1CFCE0126DF8091BB029091BC02AC
:103360008017910741F71092BC021092BB02E3CF85
:103370008091BB029091BC02892BF9F08091B90237
:103380009091BA0238D22091160130911701281776
:10339000390798F48091BB029091BC02992724E0F0
:1033A000880F991F2A95E1F7FC01EB5FFE4F208102
:1033B00022FD03C080509F4F0DCF08959093C3020C
:1033C0008093C2020895E6D8811103C08091BD02A6
:1033D0000895E091C202F091C302309729F0019064
:1033E000F081E02D0995089580E00895E091C202F2
:1033F000F091C302309721F00280F381E02D09950E
:103400000895E091C202F091C302309739F026E0AE
:10341000DC012C930480F581E02D09950895A3E04B
:10342000B0E0E5E1FAE10C94A8242091C0023091CB
:10343000C10228173907A1F09093C1028093C002FE
:10344000E091C202F091C302309751F023E029834A
:103450009B838A830084F185E02DCE010196099536
:103460002396E2E00C94C424A3E0B0E0EAE3FAE19E
:103470000C94A8242091BE023091BF02281739076E
:10348000A1F09093BF028093BE02E091C202F0913E
:10349000C302309751F024E029839B838A83008400
:1034A000F185E02DCE01019609952396E2E00C947A
:1034B000C42420911A0130911B012E5F3F4F80914F
:1034C0003F01882379F08091D00287FF0BC02091C3
:1034D0001801309119012E5F3F4F9EE180E091501D
:1034E00018F4089596E0FACFF90141919F01442321
:1034F000B1F38F5FF4CF882321F190913F0199239D
:1035000011F19091D00297FF1EC0E82FE695E69545
:10351000E695EE31B0F42091180130911901E20FD7
:10352000F32FF11D228130E0877041E050E002C0AE
:10353000440F551F8A95E2F72423352381E0232B7E
:1035400091F480E0089520911A0130911B01F90156
:103550003296285F3F4F9191981721F0E217F307B9
:10356000D1F7EFCF81E008959C01FC0132969FEFE7
:1035700080E04191461751F09F3F19F4411101C07D
:10358000982F8F5F8630A9F79F3F09F40895290F80
:10359000311D97FD3A95F90162830895FC01329639
:1035A00008962191261303C0DF0111971C92E8179A
:1035B000F907B9F70895E62FE695E695E695EE3119
:1035C00068F4E80FF92FF11D677021E030E001C0C9
:1035D000220F6A95EAF78281822B82830895E62F73
:1035E000E695E695E695EE3170F4E80FF92FF11DBA
:1035F000677021E030E001C0220F6A95EAF720955C
:103600008281282322830895682F80913F01882397
:1036100051F08091D00287FF06C0809118019091EF
:103620001901C9CF089580911A0190911B019CCF77
:103630000895682F80913F01882351F08091D00236
:1036400087FF06C08091180190911901C8CF089595
:1036500080911A0190911B01A1CF089580913F01A3
:10366000882379F08091D00287FF0BC0E091180188
:10367000F091190132968EE1DF011D928A95E9F7EA
:103680000895E0911A01F0911B01329686E0F4CF83
:103690000895FECF0895811105C081E08093C40292
:1036A000F8CF089582E0FACF83E08093C402F1CF8F
:1036B0000895F1CF089581E08093C402EACF089580
:1036C000FACF089508950895FECF089508950895B6
:1036D000F9CF0895CF93FADF0E944712F8DFC0E0D8
:1036E0008C2F0E942B11811105C0CF5FC830C1F70C
:1036F000CF91089581E0FCCF85B7806885BF85B7FD
:10370000806885BF08951F921FB61F9211248F9362
:103710009F93AF93BF938091C502811113C0809195
:10372000E8029091E902A091EA02B091EB02419681
:10373000A11DB11D8093E8029093E902A093EA02D3
:10374000B093EB02BF91AF919F918F911F901FBEDD
:103750001F9018958091F002843031F10E94460448
:103760001092C50288E190E020E40FB6F894A89585
:10377000809360000FBE2093600083B7817F8460D8
:1037800083BF83B7816083BF7894889583B78E7F2A
:1037900083BF0FB6F894A8958091600088618093EC
:1037A0006000109260000FBE08950E94CA070C943A
:1037B0004A04089582E084BD93E095BD9AEF97BDD9
:1037C00080936E0008952FB7F8948091E80290914D
:1037D000E902A091EA02B091EB022FBF08952FB742
:1037E000F8946091E8027091E9028091EA02909168
:1037F000EB022FBF08959C014FB7F8948091E80227
:103800009091E902A091EA02B091EB024FBF821BB6
:10381000930B0895CF92DF92EF92FF922FB7F89417
:10382000C090E802D090E902E090EA02F090EB024A
:103830002FBFA7019601261B370B480B590BCA0156
:10384000B901FF90EF90DF90CF90089578941F9288
:103850001FB61F9211248F939F93AF93BF938091B4
:10386000E8029091E902A091EA02B091EB02019680
:10387000A11DB11D8093E8029093E902A093EA0292
:10388000B093EB02BF91AF919F918F911F901FBE9C
:103890001F90189587E797E7909301088093000899
:1038A00088E19AE00FB6F894A895809360000FBE67
:1038B00090936000FFCF88E19AE00FB6F894A89546
:1038C000809360000FBE90936000FFCF8EE14A9B13
:1038D00002C08150E1F74A9BFECF08955A9880E2DA
:1038E0008A95F1F75A9A0895FC013BE03A95F1F771
:1038F00098E020E080E031E040E14A95F1F7880F60
:103900004A9B02C08160232742E04A95F1F70000FC
:1039100040E14A95F1F7915079F790E19A95F1F7E6
:1039200099B132E03A95F1F7000040E14A95F1F79C
:1039300092FB992790F992272081920F9083089506
:10394000A1E0B0E0E5EAFCE1FFC719828C017C014F
:10395000E60EF11C0E151F0541F481E099819111CD
:1039600080E02196E6E00C94C024B0DFCE01019601
:10397000BBDFF80181938F01EDCF529A5A9A0895D7
:1039800052985A9AEA9AE9E6F0E080818F7C808327
:1039900008956150770B91E001C0990F6A95EAF79D
:1039A00020E031E0911108C0222391F05A9A80E280
:1039B0008A95F1F75A980895492F482339F05A9A71
:1039C000232740E24A95F1F79695ECCF5A98F9CF24
:1039D0005A98EDCFFF920F931F93CF93DF93EC0193
:1039E0008C01060F111DC017D10721F4CDB7DEB72A
:1039F000E5E0C7C7F99072DF68E08F2DCADFF3CF2B
:103A00001F920F920FB60F9211240F931F932F93B3
:103A10003F934F935F936F937F938F939F93AF9356
:103A2000BF93EF93FF93CF93DF930F92CDB7DEB7A2
:103A300019824CDFCE01019657DF082F06950695B7
:103A40000695282F22952570902F9570290F922F7B
:103A5000937026952695920F982797708981982BB9
:103A600009F058C0043008F055C080E18A95F1F79C
:103A70005A9A529A82E08A95F1F700C05A9888E0E3
:103A8000089F80011124D801A35EBE4F1696ED91C8
:103A9000FC9117973097A9F06091BB017091BC0120
:103AA00014962D913C911597260F371F11968D91E5
:103AB0009C911297680F791F13964C9113978C91D4
:103AC0000995F801E35EFE4F6381662349F020917A
:103AD000BB013091BC0184819581820F931F7ADFF5
:103AE000FDDE80E18A95F1F75A9852985A9A80E162
:103AF0008A95F1F7F801E35EFE4F6081662349F095
:103B00002091BB013091BC0181819281820F931F72
:103B100017DFDCDE0F90DF91CF91FF91EF91BF9126
:103B2000AF919F918F917F916F915F914F913F9155
:103B30002F911F910F910F900FBE0F901F9018950E
:103B40000F931F93CF93DF93EC0104970CF049C0C0
:103B5000F894529A5A9885E08A95F1F700009C2FC4
:103B6000969595708C2F8570980F892F83709695F8
:103B7000969523E0CC0FDD1F2A95E1F7980F8E0173
:103B8000092BACDE00C068E0802F03DF80E18A955E
:103B9000F1F752985A9A4A9B1DC087E090E04A99E3
:103BA0001BC0FE01E35EFE4F63816623F1F02091AE
:103BB000BB013091BC0184819581820F931FC0DECF
:103BC000811113C0529A5A9A7894DF91CF911F9124
:103BD0000F91089500C0DFCF019729F4529A5A9AA5
:103BE000789480E0F2CF00C0DACF70DE80E28A9570
:103BF000F1F75A98529A80E18A95F1F7C35EDE4F49
:103C00006881662349F02091BB013091BC01898114
:103C10009A81820F931FDEDE61DE789481E0D5CF3A
:103C20008091CE02089508959B01BA019091F0020F
:103C30009430E1F48F708093E9009FEF8091E80069
:103C4000915085FD06C085ED8A95F1F70000911130
:103C5000F5CF8091E80085FF09C050E040E0C90140
:103C6000C3D18091E8008E778093E800089543E007
:103C700050E0BC0182E0D8CF089540E250E0BC01A2
:103C800082E0D2CF0895CF93DF93EC0148E050E07B
:103C9000BC0181E0C9DF88E0FE01A6ECB2E0019042
:103CA0000D928A95E1F7DF91CF9108958091EF020F
:103CB000811107C027D37ED38091E2008460809376
:103CC000E20008951092EF020895F5CC08956091F6
:103CD000EC0281E0611101C080E0E6CC0895909192
:103CE000F00281E0943009F080E06091EC02E1CCD8
:103CF000089542E061EC81E081D242E261EC82E031
:103D00007DD29091F00281E0943009F080E06091E2
:103D1000EC02C1CC08958091F202833009F45FC0B7
:103D200030F48130C9F1823009F49AC008958A30A4
:103D300009F487C08B3009F46DC0893009F04EC09A
:103D40008091F102813209F049C08091F502909191
:103D5000F602029708F042C08091E800877F8093C6
:103D6000E8008091E80082FF35C09091F3008091D7
:103D7000F200029731F48091F100813011F0863029
:103D800021F48091F1008093CE028091E8008B773E
:103D90008093E80067D222C08091F102813AF1F469
:103DA0008091E800877F8093E8008091F5029091F0
:103DB000F602892B59F468E086EC92E070E061D15C
:103DC0008091E8008B778093E800089560E090E0B0
:103DD00080E0F4CF8091F0028111C3CF08958091EB
:103DE000F102813AD9F78091F5029091F602892B80
:103DF000A9F78091E800877F8093E8008091E80030
:103E000080FFFCCF80913F018093F1008091E8001A
:103E10008E77BECF8091F102813201F78091F50259
:103E20009091F602892BD1F68091E800877F8093EC
:103E3000E80018D28091F30280933F010C94CA07E6
:103E400008958091F102813249F68091E800877FE0
:103E50008093E80007D28091F4028093CF02089506
:103E60008091F102813A09F0B9CF8091E800877F13
:103E70008093E8008091E80080FFFCCF8091CF0222
:103E8000C3CF84B7877F84BF0FB6F894A89580917D
:103E90006000886180936000109260000FBE80E82F
:103EA00090E00FB6F89480936100909361000FBE8C
:103EB00007CC089527D27ED2E2EEF0E080818460C4
:103EC00080837894E2C4089585E391E077CA0895E9
:103ED0008091F002853029F48091F002853011F054
:103EE00064CC089537DC8091EE028823A9F3F2DBDD
:103EF000882391F363D00E94CA07EECF08959A01F8
:103F00004091F7025091F80201C00895492F5527BA
:103F10004330510519F168F44130510509F444C0AA
:103F20004230510509F445C090E080E050E040E0A7
:103F300025C04132510549F142325105A9F784E4C7
:103F400090E042ED53E061157105C1F08DE690E01F
:103F500045E653E06130710589F0E6CF992781305D
:103F6000910581F0009729F00297F1F6ECEEF2E06E
:103F700002C0E4E1F3E0849190E0AF01F9015183E4
:103F800040830895E8E0F3E0F6CF89E090E04AE26C
:103F900053E06115710591F389E090E043E453E04B
:103FA0006130710559F3C0CF82E190E043E553E001
:103FB000E5CF8BE390E048E153E0E0CF80E189BDBD
:103FC00082E189BD09B400FEFDCF8091D8008F7DCC
:103FD0008093D8008091E00082608093E00080911F
:103FE000E00081FDFCCF0895AF92BF92CF92DF92A7
:103FF000FF920F931F93CF93DF936C01EB018A0124
:1040000050D1F82E811123C00115110539F0F801A6
:1040100080819181C81BD90BC80ED91EB12CA12C4F
:104020002097A9F08091E80085FD21C08091E800EB
:104030008E778093E80001151105A1F0F8018081C9
:104040009181A80EB91EB182A08285E0F82E8F2D35
:10405000DF91CF911F910F91FF90DF90CF90BF9094
:10406000AF9008951ED18823D9F2F82EF0CFF60133
:1040700081916F018093F1002197FFEFAF1ABF0A82
:10408000CFCFFC018091F7029091F8028617970735
:10409000A0F06115710529F49091E8009E77909346
:1040A000E80090E06115710551F4911108C080910C
:1040B000E80082FF34C080E00895BC01F2CF809117
:1040C000F0028823C1F18530C1F18091E80083FDC1
:1040D00030C08091E80082FDEACF8091E80080FF47
:1040E000E1CF8091F3002091F200382F6115710526
:1040F00019F02830310558F091E02830310509F0E9
:1041000090E02091E8002E772093E800CBCF8191BA
:104110008093F100615071092F5F3F4FE7CF80918D
:10412000F002882341F0853041F08091E80083FF60
:10413000BECF81E0089582E0089583E00895FC01F8
:104140008091F7029091F80286179707A0F0611509
:10415000710529F48091E8008E778093E80090E063
:104160006115710551F4911108C08091E80082FF3A
:1041700035C080E00895BC01F2CF8091F002882321
:10418000C9F18530C9F18091E80083FD31C080918B
:10419000E80082FDEACF8091E80080FFE1CF8091C6
:1041A000F3002091F200382F6115710519F02830C5
:1041B000310558F091E02830310509F090E0809108
:1041C000E8008E778093E800CBCF84918093F10054
:1041D0003196615071092F5F3F4FE6CF8091F00219
:1041E000882341F0853041F08091E80083FFBDCF06
:1041F00081E0089582E0089583E00895982F973034
:1042000028F08F708093E90081E008959093E90091
:10421000242F762F50E0981731F07091EC00209108
:10422000ED005091F00021FD02C09F5FE8CF30917A
:10423000EB003E7F3093EB003091ED003D7F3093FB
:10424000ED003091EB0031603093EB007093EC00A7
:104250002093ED005093F0002091EE0027FDE5CF74
:1042600080E008958091F10287FF13C08091E800FB
:1042700082FF06C08091E8008B778093E80004C03D
:104280008091F0028111F2CF08958091F00288238D
:10429000D9F38091E80080FFF8CF8091E8008E7715
:1042A000ECCF2091E4003091E50095E6A901209142
:1042B000EC00822F817020FF06C08091E80080FF13
:1042C00006C080E008952091E80022FD1AC0809188
:1042D000F002882389F0853089F08091EB0085FD1C
:1042E0000FC02091E4003091E50042175307F9F226
:1042F0009150E1F684E0089582E0089583E0089506
:1043000081E0089568D06FD0E0EEF0E080818160B8
:104310008083E8EDF0E080818F77808319BCA7ED82
:10432000B0E08C918E7F8C9380818F7E8083109201
:10433000EF0208950F931F93CF93DF934CD053D088
:10434000C8EDD0E088818F778883888180688883F2
:1043500088818F7D888319BC1092F0021092EC0244
:104360001092EE021092ED0200EE10E0F801808152
:104370008B7F808388818160888342E060E080E079
:104380003DDFE1EEF0E080818E7F8083E2EEF0E0C1
:10439000808181608083808188608083F801808152
:1043A0008E7F8083888180618883DF91CF911F9188
:1043B0000F910895E8EDF0E080818F7E8083E7ED36
:1043C000F0E080818160808384E082BF81E080931F
:1043D000EF02B0CF0895E8EDF0E080818E7F80831A
:1043E0001092E20008951092DA001092E100089510
:1043F0001F920F920FB60F9211242F933F934F935A
:104400005F936F937F938F939F93AF93BF93EF933C
:10441000FF938091E10082FF0AC08091E20082FF59
:1044200006C08091E1008B7F8093E1002DD28091C6
:10443000DA0080FF18C08091D80080FF14C08091FE
:10444000DA008E7F8093DA008091D90080FF91C0DE
:1044500080E189BD82E189BD09B400FEFDCF81E024
:104460008093F00223DC8091E10080FF18C08091EE
:10447000E20080FF14C08091E2008E7F8093E20012
:104480008091E20080618093E2008091D800806298
:104490008093D80019BC85E08093F00218DC8091ED
:1044A000E10084FF2AC08091E20084FF26C080E101
:1044B00089BD82E189BD89B5982F917080FFFBCFBE
:1044C0008091D8008F7D8093D8008091E1008F7E0D
:1044D0008093E1008091E2008F7E8093E2008091E2
:1044E000E20081608093E2008091EC02882309F46D
:1044F00045C084E08093F002F2DB8091E10083FF0D
:1045000027C08091E20083FF23C08091E100877F74
:104510008093E10082E08093F0021092EC0280919F
:10452000E1008E7F8093E1008091E2008E7F809396
:10453000E2008091E20080618093E20042E060E06E
:1045400080E05CDE8091F00088608093F000BDDB4D
:10455000FF91EF91BF91AF919F918F917F916F915B
:104560005F914F913F912F910F900FBE0F901F9031
:10457000189519BC1092F002A5DB75CF8091E3006D
:1045800087FD93E09093F002B7CF1F920F920FB682
:104590000F9211242F933F934F935F936F937F93C9
:1045A0008F939F93AF93BF93CF93DF93EF93FF933B
:1045B000D091E900DF708091EC00C82FC17080FDC0
:1045C000C0E81092E9008091F000877F8093F000AE
:1045D00078941ED01092E9008091F000886080935A
:1045E000F000CD2BCF70C093E900FF91EF91DF91E8
:1045F000CF91BF91AF919F918F917F916F915F917B
:104600004F913F912F910F900FBE0F901F901895D3
:10461000AAE2B0E0EDE0F3E29AC181EF92E02091EE
:10462000F100FC012193CF01F2E0893F9F07B9F728
:1046300072DB8091E80083FF16C18091F1029091B6
:10464000F2029A3008F00FC1E92FF0E0EE58FA4D6F
:1046500069C1803899F0823809F005C18091F5026E
:104660008F70873008F0FFC08093E9008091EB00E5
:1046700085FB882780F91092E90006C08091ED0241
:104680009091EE02911182609091E800977F909353
:10469000E8008093F1001092F1008091E8008E779D
:1046A000DFC0882309F4CDC0823009F0DCC08091DE
:1046B000F3028111D0C08091F5028F702FEF280F87
:1046C000263008F0D0C08093E9002091EB0020FF55
:1046D000C2C0933031F48091EB0080628093EB0094
:1046E000BAC09091EB0090619093EB0021E030E034
:1046F00001C0220F8A95EAF72093EA001092EA009F
:104700008091EB008860EACF8111ADC01091F30277
:104710001F778091E3008078812B8093E300809164
:10472000E800877F8093E8009DDD8091E80080FFAE
:10473000FCCF8091E30080688093E30082E0111158
:1047400083E08093F0028FC08058823008F08BC0E5
:104750008091F3029091F4028C3D23E0920799F549
:1047600083E08A838AE289834FB7F894DE01139647
:1047700020E03EE051E2E32FF0E050935700E49157
:1047800020FF03C0E295EF703F5FEF708E2F90E047
:10479000EA30B8F0C7968D939D932F5F243159F777
:1047A0004FBF8091E800877F8093E8006AE270E065
:1047B000CE01019666DC8091E8008B778093E8005B
:1047C00052C0C096E8CF6091F5027091F602AE013A
:1047D0004F5F5F4F94DBBC01892B09F444C090917B
:1047E000E800977F9093E80089819A81A8DCE3CF65
:1047F0008038C9F58091E800877F8093E800809138
:10480000EC028093F10049CF81112DC09091F30209
:10481000923048F58091E800877F8093E80090937C
:10482000EC0220DD8091EC02882311F084E005C0C9
:104830008091E30087FDFACF81E08093F00259DA9E
:1048400012C08091F302813071F481E0933009F05D
:1048500080E08093EE021092E9008091E800877F6B
:104860008093E800FFDC8091E80083FF0AC080911C
:10487000E800877F8093E8008091EB00806280935E
:10488000EB00AA96E3E07FC00895CF938091F002F9
:10489000882399F0C091E900CF709091EC00892FA6
:1048A000817090FD80E8C82B1092E9008091E800AB
:1048B00083FDAEDECF70C093E900CF91089522DD75
:1048C0001092F0020895E8EDF0E08081806180832D
:1048D0008AE18A95F1F700C08091D900817008952E
:1048E000A1E21A2EAA1BBB1BFD010DC0AA1FBB1FF4
:1048F000EE1FFF1FA217B307E407F50720F0A21B66
:10490000B30BE40BF50B661F771F881F991F1A94D2
:1049100069F760957095809590959B01AC01BD01FC
:10492000CF010895EE0FFF1F0590F491E02D09943B
:104930002F923F924F925F926F927F928F929F92AF
:10494000AF92BF92CF92DF92EF92FF920F931F939D
:10495000CF93DF93CDB7DEB7CA1BDB0B0FB6F8944E
:10496000DEBF0FBECDBF09942A88398848885F848E
:104970006E847D848C849B84AA84B984C884DF80FF
:10498000EE80FD800C811B81AA81B981CE0FD11DE3
:104990000FB6F894DEBF0FBECDBFED010895FB0149
:1049A000DC0104C08D910190801921F441505040E8
:1049B000C8F7881B990B0895FB01DC0102C0019028
:1049C0000D9241505040D8F70895F999FECF92BD0D
:1049D00081BDF89A992780B50895A8E1B0E042E03A
:1049E00050E02FC0DC01A40FB51F4150504040F0F3
:1049F000CB01840F951F2E9105D041505040D8F720
:104A00000895262FF999FECF92BD81BDF89A01979E
:104A100000B4021639F01FBA20BD0FB6F894FA9A06
:104A2000F99A0FBE08950396272FECDFEADF252FB2
:104A3000E9DF242FE7CF0196272FE4DFE2CFDC0167
:104A4000CB01FC01F999FECF06C0F2BDE1BDF89A99
:104A5000319600B40D9241505040B8F70895F89443
:104A6000FFCF49025602700287028F0296029D0212
:104A7000A202BC02D302DA02E102FE05FE054006F4
:104A800040069906260626062606B5061E072A07AC
:104A90002A078A16FE1692165C166016961664167B
:104AA0009A16A6167016F7167416AA167816AE166B
:104AB000D6167C16B216DD168216B816C016681603
:104AC0009E166C16A2168616BC16CC16E616F516A1
:104AD00056168E160517A218A81892189C18AE180C
:104AE000B418BA182923512333245123332484239F
:084AF000A4233324F82304245D
:104AF8000000000000000C191D1923190000100106
:104B080013003400FF00AA005302730201000000E2
:104B1800010000000000000004010000000405007E
:104B28000000000000101E431E3D1E131E371E010C
:104B3800E200E900EA00B500B600B700CD00830145
:104B4800CC008A0192019401210223022402250249
:104B5800260227022A02B300B4006F0070009F01EA
:104B6800CB019F02A002818283E200E900EA00B53E
:104B780000B600B700CD008301CC008A01920194F1
:104B8800012102230224022502260227022A02B357
:104B980000B4006F0070009F01CB019F02A002814A
:0E4BA800828331F7F6F5F4946697C699020001
:00000001FF
