:1000000017C2000032C2000030C200000C949022DF
:100010002CC200002AC2000028C2000026C2000034
:1000200024C2000022C200000C9476270C944328BE
:100030000C9415211AC2000018C2000016C200005C
:1000400014C2000012C2000010C200000EC2000064
:100050000CC200000C94B72108C2000006C20000C8
:1000600004C2000002C2000000C20000FEC1000085
:10007000FCC10000FAC10000F8C10000F6C1000098
:10008000F4C10000F2C10000F0C10000EEC10000A8
:10009000ECC10000EAC10000E8C10000E6C10000B8
:1000A000E4C10000E2C10000E0C100002F2F003FCA
:1000B000002F003D3D003D002B003400360037008E
:1000C00013001C0004001224082218280C0033001E
:1000D00014000D000E001B00000000000000417E17
:1000E0002C210F00150006000A000900160011342B
:1000F00017320B3807001D0019001A001000050008
:10010000000000000000427E283114001A000800A0
:100110001500170004001600072209000A001D0040
:100120001B00060019000500000000000000417ED1
:100130002C00035712000C0018001C0033000F00A5
:100140000E320D000B0006573700055704571100FB
:10015000000000000000427E2800437E447E457E71
:10016000467E2A082B022B00E100E3002A04477E8A
:10017000487E497E4A7E4C040000000000000000DA
:1001800000004F12521251125012501A4F005200DA
:100190005100500050184F1452145114501450165E
:1001A000000000000000407E2C0F1E021F022002F3
:1001B0002102220259005A005B005C005D002F0200
:1001C00030022D00015700570000000000002D02F2
:1001D0000452310031022502240223026200610030
:1001E00060005F005E002702260230002F000257E9
:1001F000000000000000000000004B7E0000220A0A
:10020000210A210B000000004700480006085000AA
:10021000510052004F001908000000000000417E0C
:100220002C0000000000A800AE002900BB00A900BF
:10023000AA00BC002A004F005200510050000000EC
:10024000000000000000427E280007220E3200005D
:1002500008221732000000000000000000002A2BD6
:100260002800000000000000000000000000000066
:100270000029000000002C1E3420212224342627CF
:10028000252E362D3738271E1F20212223242526F0
:100290003333362E37381F0405060708090A0B0CBE
:1002A0000D0E0F101112131415161718191A1B1C06
:1002B0001D2F3130232D350405060708090A0B0CC4
:1002C0000D0E0F101112131415161718191A1B1CE6
:1002D0001D2F3130354C00000000000000000000F0
:1002E000000000000000000000000000000000000E
:1002F000000000000000000000007E0F00D4FFFF9F
:10030000FFC7000000781A03430068006F00630015
:100310006F006C0061006400200052004700420042
:1003200000000A036A006D006E00770000000403FD
:10033000090409023B00020100A0FA0904000001BF
:100340000301010009211101000122440007058178
:100350000308000109040100010300000009211144
:10036000010001226D000705820320000112010037
:1003700002000000080418503001000102000105CD
:10038000010980A101850319012AB700150126B7CB
:1003900000950175108100C0050C0901A1018504BB
:1003A00019012AA002150126A002950175108100ED
:1003B000C005010906A1018506050719E029E71511
:1003C0000025019508750181020507190029EF151F
:1003D00000250195F075018102050819012905958F
:1003E0000575019102950175039101C0050109068A
:1003F000A101050719E029E71500250195087501F8
:1004000081029501750881010507190029FF150072
:1004100026FF0095067508810005081901290515B4
:10042000002501950575019102950175039101C0A3
:1004300011241FBECFEFDAE0DEBFCDBF12E0A0E097
:10044000B1E0ECEDF5E502C005900D92A034B107E6
:10045000D9F724E0A0E4B2E001C01D92AA30B207AF
:10046000E1F70E9447160C94AD2ACACDCF93DF93D3
:10047000EC018A81813041F460E088EB90E00E94D9
:10048000091DDF91CF910895823021F460E086EB61
:1004900090E0F5CF833029F460E083EB90E00E9498
:1004A000091DCE010E94231FECCFCF93DF93EC01F7
:1004B0008A81813041F460E081EB90E00E94091D67
:1004C000DF91CF910895823021F460E08FEA90E0CF
:1004D000F5CF833029F460E08CEA90E00E94091D9A
:1004E000CE010E94231FECCF80914B02882321F084
:1004F00010924B028AEA9AD480914A02882321F012
:1005000010924A0288E892C40895CF93FB01C581F6
:10051000CC2309F412C1C1E0C0934502C093440248
:100520008534FEE79F0709F4E3C0E8F48134EEE781
:100530009E0709F45CC060F48932910509F447C054
:1005400080349E4709F448C0C1E08C2FCF910895B4
:100550008334EEE79E0709F4C6C008F489C088E832
:1005600060D480E3C3C088342EE7920709F4C9C081
:10057000E0F48634FEE79F0709F4BEC087349E4747
:1005800019F7C0914B02C111B9C080914A0288236A
:1005900021F010924A020E94F40D8AEA42D48BE2C2
:1005A00039D481E080934B02D0CF8A34EEE79E07A6
:1005B00009F4BFC008F4B9C08B349E4729F68CEC0F
:1005C00030D48CE093C00E942E17811102C0C0E08D
:1005D000BCCF0E944017B9CF83E090E095D68FEF53
:1005E00020D48CE29ED335D6C0934202F0CF0E9435
:1005F0007421909349028093480284E0ADD6882309
:1006000021F084E0C7D6C093430282E0A5D68111D1
:1006100002C082E0B1D610924502D9CF65DF82E0F8
:100620009BD6882311F082E0B5D6809145028111D6
:100630001AC080914302811116C08091420281113B
:1006400012C00E9474212091480230914902821BFD
:10065000930B8A3A910538F489E2DCD30E942E1775
:1006600081110E94401710924302109242026DCFF6
:100670000E947421909347028093460284E06CD6D6
:10068000882321F084E086D6C093430283E064D6B9
:10069000811102C083E070D61092440298CF24DF0B
:1006A00083E05AD6882311F083E074D68091440207
:1006B000811116C080914302811112C00E947421E1
:1006C0002091460230914702821B930B8A3A910592
:1006D00038F48AE29FD30E942E1781110E9440179E
:1006E0001092430232CF88E89CD38FE21AD36FCFA7
:1006F00083E397D38BE2FACF81E1FBCF8BE28AD3FE
:1007000066CFC0914A02C111F9CF80914B02882374
:1007100021F010924B020E94F40D88E882D38BE204
:1007200079D381E080934A0210CF81E17AD380E5CA
:10073000DDCF81E176D38FE4D9CF8534EEE79E0714
:10074000B1F0B8F481342EE7920709F467CF48F48A
:100750008932910509F437CF80349E4709F437CFA9
:10076000F3CE83342EE7920711F008F498CF71D5B9
:100770002ECF8834FEE79F0709F429CF48F486344A
:10078000EEE79E07A1F387349E4709F420CFDCCE25
:100790008A342EE7920759F350F38B349E4709F0C1
:1007A000D3CE57D5D2CE8530B8F46830A8F44530D2
:1007B00098F450E095E0699F400D511D1124FA0115
:1007C00098E2899FE00DF11D1124EE0FFF1FE65402
:1007D000FF4F85919491089581E090E00895E3CFD3
:1007E000089582E090E008958230910550F447E04A
:1007F000489F9001499F300D1124C90180509F4F9F
:10080000089590E080E00895EFCF089587E090E0AC
:1008100008958730910540F424E0880F991F2A95A8
:10082000E1F7825F9E4F089590E080E00895F1CF58
:1008300008959C013A9521153F4150F5FC01EE27A2
:10084000F170BC0166277270AC01442754709C01A2
:100850002227387094FF0EC080E1EF2B09F480E06E
:10086000672B09F08062452B09F08064232B89F007
:100870008068089581E0EF2B09F480E0672B09F090
:100880008260452B09F08460232B19F0886008955D
:1008900080E00895CF93DF93EB01CBDFFE01099554
:1008A000DF91CF910895CF93DF93EC01805E9109A2
:1008B000089720F062E179E0209711F461E177E098
:1008C000CE01E8DF8C2F2DD2DF91CF910895CF9309
:1008D000DF93EC0163D2CE01805E9109089720F08E
:1008E00067E179E0209711F466E177E0CE01D2DF8D
:1008F000DF91CF91089581E00895FDCF089581E0C3
:10090000089503CE08950895FECF0895A6E0B0E0BF
:10091000ECE8F4E00C94252A49835A839E833091B5
:10092000580289819A81311117C03E81332389F0A1
:10093000222379F0D8D5182F682F89819A81B2D5D2
:1009400069817A81812F0E9476112696E3E00C94CA
:10095000412AB9D5182FF4CFC6D569817A81F3CF52
:10096000FC01262F87819085009739F440815181C1
:100970006281738184819581C9CF0895CF93DF937C
:10098000EC0161E0EDDFBE01B8DF882351F061E0EA
:10099000CE01E6DFBE010E94FD188170DF91CF918C
:1009A000089580E0FACFCF93DF93EC0160E0D8DFC9
:1009B000BE01AADFDF91CF91089521E030E0A901C7
:1009C00002C0440F551F8A95E2F7CA018DC4CF9328
:1009D000C82F81E090E00C2E02C0880F991F0A9466
:1009E000E2F70E94080F8C2FE8DFCF91089581E095
:1009F0000895FDCF0895CF93C82F2BD48C2FF9DF06
:100A00002FEF84E39CE0215080409040E1F700C04C
:100A10000000CF91089581E0EEDF0C94DB2180E0AF
:100A2000EADF0C94EC210F931F93CF93DF938C019B
:100A300061E096DFEC01B8010E947C1E882321F062
:100A400061E0C8018DDFEC01B801CE015ADF8111F0
:100A500006C080E0DF91CF911F910F910895B801FA
:100A6000CE010E9493168823A1F3B801CE010E9403
:100A7000A01E882371F3B801CE010E94C31A8823F7
:100A800041F3B801CE010E94D01D882311F3B801B3
:100A9000CE010E941D1B8823E1F2B801CE010E9405
:100AA000F51A8823B1F2B801CE010E94B41288234E
:100AB00081F2F8018581882361F0C330FCE7DF070C
:100AC000D9F050F4C115ECE7DE07A1F0C130DC47E6
:100AD000A9F0C80114DFBECFCB358CE7D80799F059
:100AE000CC35ECE7DE0761F0CA35DC4791F70E94B0
:100AF000E90EEFCF90DFADCF0E94ED0E90DFA9CFD2
:100B00000E94E10EE6CF0E94EB0EE3CF0E94F6209A
:100B1000B2C0B3D00C94FA202F923F924F925F92C2
:100B20006F927F928F929F92AF92BF92CF92DF92FD
:100B3000EF92FF920F93CF93DF931C0129013A01AB
:100B40006B0181E0C81AD108E101CC0DDD1D1882CE
:100B5000F12CE12C8AE0882E912CA12CB12CEC14E4
:100B6000FD0498F0C101DF91CF910F91FF90EF90BC
:100B7000DF90CF90BF90AF909F908F907F906F90BD
:100B80005F904F903F902F900895C301B201A5014F
:100B900094010E94EE29605D603319F4E114F104C0
:100BA00031F0411451046104710409F4602F6A9317
:100BB000C301B201A50194010E94EE2929013A0165
:100BC0008FEFE81AF80ACBCF0F9320919201309162
:100BD00093012817390721F420915202261789F032
:100BE0009093930180939201609352029C0150E094
:100BF00040E0062F66E070E08CE492E08DDF0F911C
:100C000008958CE492E0FBCF292F332740E0211593
:100C1000310511F0C90148E09C0164E03695279543
:100C20006A95E1F72115310511F04C5FC9019C016E
:100C300036952795369527952115310511F04E5F8C
:100C4000C90196958795892B09F04F5F842F0895E8
:100C500081E008950895CF93DF93D82FF9DFC82F4F
:100C6000882311F08D2FF6DF8C2FDF91CF9108951F
:100C70000895F1CF089580E0FCCF0E942D1FF9CF99
:100C8000CF930E942D1FC82F809153028C1771F0B3
:100C9000C09353020E9480216093540270935502C6
:100CA00080935602909357028C2FE3DFCF910895E3
:100CB000AFE0B0E0EEE5F6E00C94242A4A875B87CB
:100CC0006C877D878E879F879111A1D71F82188699
:100CD000198686E0FE013A96DE01119601900D928A
:100CE0008A95E1F78D8181110EC009811A812B81CE
:100CF0003C814D815E816F8178858985CED62F9626
:100D0000E4E00C94402ACE01019638DE8111EDCF4B
:100D1000F6CFFC012481213019F48081918114C423
:100D20000895CF93C82F882389F08CEF8C0F813AD8
:100D300078F48C2F0E94C51F882321F08C2F0E94ED
:100D40006720F3D78C2F0E945020EFD7CF910895C2
:100D500080E28C0F883040F4C77081E001C0880FBA
:100D6000CA95EAF734D7F1CFEBE5EC0FE33040F466
:100D7000F0E0E850FE4F808190E00E945A1FE6CFDD
:100D8000C85ACB3118F7EC2FF0E0EE0FFF1FEE53EF
:100D9000FE4F808191810E947F1FD8CF882319F157
:100DA0009CEF980F913A18F40E946720BEC790E21A
:100DB000980F983048F4877091E001C0990F8A9598
:100DC000EAF7892F0AD7F2CF9BE5980F933020F4EA
:100DD00090E080E00C945A1F885A8B3120F490E008
:100DE00080E00C947F1F08951F93CF93DF93182FFB
:100DF000EB0197DF209731F4812FD0DFDF91CF9186
:100E00001F9108958FE99FE00197F1F700C000005E
:100E10002197F0CF70E060E0893311F460E570E075
:100E2000E3CF882311F0D3D680C70895882311F02B
:100E3000D4D67BC70895B0E0A0E0E1E2F7E00C94DF
:100E40001F2A6C01D62FC72FFC0115810681029540
:100E50000F70B3D6E82E8823E9F0E12E1123D1F0EC
:100E60008C2F807F803461F080E28D0F8830F8F025
:100E70008C2F807E803221F4D230C8F00023B9F06C
:100E80008091E20382FF13C082E073D796D691E08F
:100E9000E82EE926BC2EB2949FE0B922FBE0FB15B8
:100EA00080F1EB2DF0E0E155F54D0C94102AE12C8A
:100EB000F1CF0C2F0F70C07F11F00295007F11232E
:100EC00081F0002349F080E28D0F883010F0D111BD
:100ED00005C0802F7CD629D78D2F4CC0802F8AD675
:100EE000FACF8D2F5BDF002361F080E28D0F883019
:100EF00010F0D11103C0802F70D602C0802F80D691
:100F000014D7EB2DE850FF0B349718F40E942D1FD7
:100F1000B0DEEE2059F04DD680FD08C0F6011582F6
:100F200042D62AD2C60160D13ED634D2CDB7DEB782
:100F3000E9E00C943B2A2C2F2F70F22EC07FC03298
:100F400019F0F29480EFF822DD2341F0D13089F1DD
:100F5000112309F439C00023D1F0BECF8091E20300
:100F600082FD11C0112341F0FF2019F08F2D2FD6E3
:100F7000DCD680E0D6DEC5CF80E010DFFF2009F4AC
:100F8000C0CF8F2DB9CF112359F0011103C08F2D80
:100F900048DFB7CF013009F0B4CF8F2D4FD6B1CF96
:100FA0000111AFCF8F2D42DF8F2D53D68F2D38D625
:100FB000A8CF112321F0023008F0A3CFE8CF011110
:100FC000A0CF8F2D33DF9DCF0023D9F3D93349F440
:100FD0003FEF87EE93E0315080409040E1F700C052
:100FE00000008D2FDBDE8DCF8C2F8695869583704C
:100FF00069F0813009F085CF8D2F9C2F93701111EE
:1010000002C080E090E00E947F1F7BCF8D2F9C2F3D
:101010009370111102C080E090E00E945A1F71CFBE
:101020008C2F837081F511116CCF4D2F4295469511
:101030004770440F440F2D2F2F7030E0042E02C054
:10104000220F331F0A94E2F790E080E0D4FF09C03A
:101050008FE090E002C0880F991F4A95E2F78095D3
:101060009095C695C695C370822B932BC23039F0EC
:1010700040F4C13011F041D144CF38D142CF44D1F6
:1010800040CF32D13ECF8695112311F08C2F817045
:10109000882309F436CF4D2F429546954770440F6B
:1010A000440F2D2F2F7030E0042E02C0220F331F6B
:1010B0000A94E2F790E080E0D4FF09C08FE090E06E
:1010C00002C0880F991F4A95E2F780959095C695C2
:1010D000C695C370822B932BC23039F040F4C130D7
:1010E00011F07DD10ECF74D10CCF80D10ACF17D1A2
:1010F00008CFCF70112321F08C2F3ED18D2F48CFF8
:101100008D2F94DE8C2F46D1FCCED23F31F160F48E
:10111000D03FB9F0D13F81F0112309F43BC0011158
:10112000DBCE8C2F8F711DC0D33FE9F0D43FA1F7E8
:101130008091E20382FD1FC08C2F8F71112319F360
:1011400010C0112331F00111DCCE8C2F8F7132D100
:10115000D8CE023008F0D5CEF8CF8C2F8F71111178
:10116000D2CF0AD1CECE112321F08C2F8F71FAD09D
:10117000C8CEDBD0C6CE112329F063E08C2F8F714F
:10118000E1D5BFCE81E0F5D5023008F4BACE82E0D9
:10119000F0D5B7CE002359F0D93309F022CFEFEFC5
:1011A000F7EE23E0E150F0402040E1F718CF8C2F1C
:1011B0008F71A9CF0F931F93CF93DF93EC018F8192
:1011C0009885009761F07CD78C0117D18CD0B8013D
:1011D000CE0131DEDF91CF911F910F91089568818B
:1011E00079818D81BAD1F0CFCF93DF93EC018C81DF
:1011F000882381F0CE0117DC81110FC0DED4882353
:1012000049F08D81882331F08091E20382FF02C092
:1012100082E0AFD5DF91CF910895CE01CBDFCE0133
:10122000C2DBF8CF882311F0E5D47FC50895882369
:1012300011F0E6D47AC5089590E080E00E945A1F2C
:1012400090E080E00E947F1FE2D46FC50E947E2064
:10125000F3CFCAD4FBCF92959F70963091F058F49B
:10126000925F9F70923058F4803F19F030F4883EBE
:1012700030F481E008959A5FF4CF843FD1F380E0A9
:101280000895883EB0F3813FD1F7F3CFFC0184810C
:10129000882351F087819085009711F011D7DBCF1B
:1012A0008081918151D1FBCF80E00895A6E0B0E02C
:1012B000ECE5F9E00C94262A2696E2E00C94422A0A
:1012C000A9E0B0E0E6E6F9E00C94242A2996E4E0EF
:1012D0000C94402A0895FECF0895FDDF909370028C
:1012E00080936F0208950895F8CF089520916F02BA
:1012F00030917002822B932BF0CF20916F023091AE
:10130000700282239323E9CF20916F023091700203
:1013100082279327E2CFDECF0895FDCF0895FDDF2A
:1013200090936E0280936D02089590E080E0F7CF75
:10133000009729F481E0662371F080E00CC021E081
:1013400030E002C0220F331F6A95E2F728233923C9
:1013500081E0232B91F30895682F80916D02909185
:101360006E02E6CF21E030E0A90102C0440F551F14
:101370008A95E2F7CA01D3CF21E030E002C0220F04
:10138000331F8A95E2F780916D0290916E02822B55
:10139000932BC5CF21E030E002C0220F331F8A9586
:1013A000E2F72095309580916D0290916E02822334
:1013B0009323B5CF21E030E002C0220F331F8A957E
:1013C000E2F780916D0290916E0282279327A7CF5A
:1013D00020916D0230916E02822B932BA0CF209131
:1013E0006D0230916E028223932399CF20916D027A
:1013F00030916E028227932792CF0895262F27706F
:1014000091E001C0990F2A95EAF723E07695679558
:101410002A95E1F7660F771F660F771FFA01E60F2F
:10142000F71F50E040E0682F70E08191DF011197D5
:101430009B01042E02C0369527950A94E2F721708D
:1014400021952827292328272C934F5F5F4F44306D
:10145000510559F70895A82FA77023E09695879511
:101460002A95E1F7880F991F880F991FFB01E80F54
:10147000F91F50E040E080E0219130E00A2E02C0E8
:10148000369527950A94E2F721703327042E01C080
:10149000220F0A94EAF7822B4F5F5F4F44305105C9
:1014A00059F70895262F983068F4853058F4682F3E
:1014B00070E085E0989F600D711D112449E552E0B0
:1014C000822F9CCF0895292F983058F4853048F406
:1014D00090E069E572E035E0239F800D911D1124B5
:1014E000BACF80E00895B0E0A0E0E9E7FAE00C941C
:1014F0001F2A7C0100916D0210916E0280916F0293
:1015000090917002082B192BCFE0D0E0CC24C3942B
:10151000D12CBC2EC6010C2E02C0880F991F0A9434
:10152000E2F780239123892B49F4219790F7B12C7E
:101530008B2DCDB7DEB7E9E00C943B2AB7018C2F99
:10154000E0D6019791F3F4CFCF93DF93EC01CBDF9B
:10155000BE01D7D6DF91CF9108951F93CF93DF932C
:10156000EB0190915802992331F0CB01EDDFDF912F
:10157000CF911F910895882351F0CB01B4DF182F2C
:10158000682FCE018FDFBE01812FBBD6F0CFCB01FC
:101590009ADF182FF8CFFF920F931F93CF93DF930B
:1015A000C091710289E0F82E809172028C1305C0FF
:1015B000CDB7DEB7E5E00C943F2AD0E0FC9EF00109
:1015C000FD9EF00D1124ED58FD4F00811181228107
:1015D00033814481558166817781808571DE2196D2
:1015E000C770E2CF0F931F930091BB021091BC0212
:1015F0002091BD023091BE024091BF025091C002C5
:101600006091C1027091C2028091C30259DE1F91A4
:101610000F9108950F931F93CF93DF938091C10291
:10162000807F09F04FC08091C002882309F44AC02E
:10163000E0917102D09172021091BC020091BB0244
:101640004091BD025091BE0260919401709195014C
:10165000C9E0DE17B9F18E2F90E0EC9FF001112464
:10166000ED58FD4F2481222391F1C89FF001C99FBD
:10167000F00D1124DF01AD58BD4F11962C9111973B
:10168000211325C02C91201322C015962C9115975B
:1016900021111DC012962D913C91241B350B26174C
:1016A0003707A8F48091C1028F7080618093C102D6
:1016B000E758FD4F80818F70806180838BEB92E0D3
:1016C00093DD69DFDF91CF911F910F910895FC01A8
:1016D0003196E770BECF482F20917102909172022F
:1016E00059E0291302C080E0089530E0529FF001D4
:1016F000539FF00D1124ED58FD4F8181681306C0F2
:101700008081481303C085818111EECF2F5F3F4F49
:101710002770E7CFA8E1B0E0E0E9FBE00C941C2AD9
:101720008C0186E0F801DE01539601900D928A95B6
:10173000E1F7D80114968C9114971596EC901597B3
:101740009BEBA92E92E0B92E9091BF0291111AC085
:101750008823A9F0EE2089F0C80198DDF82E8823AF
:1017600061F089E0F801D50101900D928A95E1F7C9
:10177000C501CFDA4FDF36DF48C0C80135DDFF24B1
:10178000F39443C0F801C080D18082809380F090B0
:10179000C0022091BD023091BE02A401421B530B36
:1017A0009A014091940150919501FF2009F41EC1C6
:1017B0002417350708F0C0C0882339F19091BC0286
:1017C0008091C102282F207F09F069C09D1122C09D
:1017D0009091BB02C9121EC04091C2025091C30237
:1017E0002781308542175307A9F4E11052C08F704A
:1017F00080618093C102F6DE8BEB92E0F5DC809194
:10180000C102D80116968C93F12C8F2D6896ECE0CE
:101810000C94382AE1103DC06D2D8C2D5CDFE82E34
:10182000882361F08BEB92E0DFDC89E0EBEBF2E008
:10183000DF011D928A95E9F7D5DEE6CFCB8ADC8AF7
:101840008B899C8981DE292F22952F70243058F4B2
:101850009F70223080F0992391F0F8019681907F5B
:1018600071F4FE2CD2CF2A5F2F70223060F0C801B5
:10187000BBDCEF2CF6CF992311F0882391F3805E27
:10188000883078F3F4CF803F60F3815F833078F75E
:10189000E8CF8091C10281608093C102B5CF9D11D4
:1018A0001EC09091BB02C9121AC04091C202509151
:1018B000C30217962D913C9118974217530779F45C
:1018C000E1100DC016968C93C8018EDC89E0F801FA
:1018D000ABEBB2E001900D928A95E1F74CCFC801D5
:1018E000D5DC882309F449CFEE2009F446CF809156
:1018F000C1028032B0F02091BB023091BC023B8724
:101900002A879D868C869091BF029E871F86888B32
:101910008091C2029091C3029A8B898BCE010A9664
:1019200063DC89E0F801ABEBB2E001900D928A959F
:10193000E1F770DE57DE23CF9091C102292F207F7F
:1019400081F4682D9E8A8D8AA6017E899E2DAEDC4B
:101950008BEB92E049DC89E0F50111928A95E9F779
:101960006BCF882309F451CF8091BC028D111BC02D
:101970008091BB02C81217C04091C2025091C302AD
:1019800017962D913C9118974217530761F4E11077
:101990000AC016969C93C80127DC89E0F5011192D4
:1019A0008A95E9F732CFC80171DC882309F4E5CEC6
:1019B000EE2009F4E2CE8091C102803208F4B1CF6A
:1019C0002091BB023091BC023A8329839C828B8296
:1019D0009091BF029D831E828F838091C20290915D
:1019E000C30299878887CE0101969ACF24173507BD
:1019F00008F046C0882309F4C2CEFE2CEE2009F47C
:101A0000BCCE8091BC028D112FC08091BB02C81248
:101A10002BC04091C2025091C30217968D919C91A8
:101A200018974817590701F52A3A3105A0F4909103
:101A3000C10290FD10C0907F71F08091C102169696
:101A40008C931697903F09F43FCF982F907F905F2B
:101A50008F70892B37CF89E0F801ABEBB2E00190B2
:101A60000D928A95E1F7D1CEC80110DC811159CFD2
:101A70008091C10281608093C102C801B5DBC5CEEF
:101A8000682D9E8A8D8AA6017E899E2D0FDC89E0B5
:101A9000F50111928A95E9F76ECEA2E1B0E0E3E597
:101AA000FDE00C94232A0A871B872C873D874E87ED
:101AB0005F87688B798B8A8BCE010A962BDE882311
:101AC000C1F04E85442349F00A851B852C853D8550
:101AD0005F85688979898A89F3DB89E0F82E8091AE
:101AE00071029091720289133BC06296E5E00C94FA
:101AF0003F2A89E0FE013A96DE01119601900D928F
:101B00008A95E1F78E85882341F32091720230E0B7
:101B1000C9010196877099274091710248171906EB
:101B200091F099E0929FD001939FB00D1124AD5890
:101B3000BD4FFE01319601900D929A95E1F7809389
:101B4000720229DDCACF85DB1092720210927102F7
:101B500089E0EBEBF2E0DF011D928A95E9F7BDCF5A
:101B60008F9DC00111248D589D4FD4DD882309F429
:101B7000BCCFE0917102FE9EF0011124ED58FD4FA3
:101B80000081118122813381448155816681778171
:101B9000808596DB8091710290E00196877099278D
:101BA000809371029CCF8091EC02869586958695F4
:101BB00008958091EC02877008959091EC029770DF
:101BC00081E009F480E008958091180308959091D0
:101BD0001803892B8093180308958095909118031A
:101BE00098239093180308951092180308958091F4
:101BF0001703089590911703892B80931703089575
:101C0000809590911703982390931703089510924D
:101C1000170308958091EE0208950895FECF089568
:101C20009091ED02292F282329F080958923809314
:101C3000ED02F4CF08950895FECF08959091EE023D
:101C4000292F2823281721F0982B9093EE02F4CF08
:101C500008959091EE02292F282329F08095892359
:101C60008093EE02E9CF08958091EE02882321F05F
:101C70001092EE0280E0E0CF0895CF93C091180358
:101C800080911703C82B8091EE02882329F0C82B7E
:101C90000E94A41F8111E8DF8C2FCF910895CF936C
:101CA000DF93C0919801D0919901E7DF8883C091BB
:101CB0009801D091990148E050E064EE72E0CE01C5
:101CC0000E944D2A892B59F088E0FE01A4EEB2E073
:101CD00001900D928A95E1F7CE010E94411FDF919C
:101CE000CF910895CF93DF93C0919601D091970142
:101CF000C4DF8983C0919601D091970140E250E002
:101D000064EC72E0CE010E944D2A892B59F080E2EA
:101D1000FE01A4ECB2E001900D928A95E1F7CE01AC
:101D20000E944C1FDF91CF9108950E94D5208130F1
:101D300029F48091E10387FF01C0D4CFB0CF08958B
:101D4000FECF08959091E20392FF0EC098E0899F24
:101D500090011124622B6093EC020EDB8091EC0267
:101D6000869586958695ECCF07CB1092EC0280E0A5
:101D7000E7CF9091EC02809589238093EC02282F85
:101D8000277059F4891749F09091E20392FF05C03A
:101D9000869586958695FEDAE8CF08959091E203C0
:101DA00092FB222720F9281759F080FB92F9909393
:101DB000E2038091E1039091E20333D082E0D9CF36
:101DC00008958091E20382FB882780F991E08927BA
:101DD000E5CF81E0E3CF80E0E1CF6FEF7FEF90E0F0
:101DE00080E00C94992A90E080E00E946B2A21E028
:101DF000853E9E4F09F020E0822F089582E090E01A
:101E00000C94632A83E090E00E94632A90E0089596
:101E1000682F83E090E00C947F2A84E090E00C949B
:101E20006B2ABC0184E090E00C94992AAB01BC01C0
:101E30008FE090E00C94912AAB01BC0183E190E02B
:101E40000C94912A60E070E0CB01F6CF60E070E086
:101E5000CB01ECDFF7CFA8E0B0E0E1E3FFE00C94CA
:101E6000262A65EE7EEF90E080E00E94992A60E0ED
:101E700082E090E00E947F2A81E090E090937002DF
:101E800080936F02C5DF60E074E184E090E00E941F
:101E9000992A60E086E090E00E947F2A60E087E077
:101EA00090E00E947F2A40E050E0BA0188E090E094
:101EB0000E94912A60E083E290E00E947F2A60E025
:101EC0008CE090E00E947F2A60E08DE090E00E942C
:101ED0007F2A19821A821B821C821D821E821F8207
:101EE000188648E050E067E170E0CE0101960E945C
:101EF000702A40E050E0BA018FE190E00E94912A00
:101F0000A5DF2896E2E00C94422AA5CF0895682F19
:101F10008EE090E00C947F2AA6E0B0E0E2E9FFE0DA
:101F20000C94242A0E9474218C01809119039091B1
:101F30001A038017910781F019821A820E94742176
:101F4000682F49815A81792F80E090E00E945806DD
:101F500010931A03009319032696E4E00C94402A88
:101F6000E8D260932703709328038093290390930A
:101F70002A03609323037093240380932503909393
:101F80002603089508950895FDCF08950895FECF7E
:101F9000089581E0089582EB92E18AD6F4DFF4CFD0
:101FA00099C4089508950895FDDFFDCF1CDF8111C8
:101FB00001C0ABDF23DF80932B032FDF9093E2037D
:101FC0008093E10392D61EDF8FD980916D029091AC
:101FD0006E02A3C90E946B2187D281D4D9D3E6DFD8
:101FE0000E9438060E94AB1A87D4D1CF73D48823BD
:101FF00029F00E94051F0E94BE184EC70895A6E052
:10200000B0E0E5E0F0E10C941D2AC3DF811108C0C7
:1020100083DFECDF0E9440062696EBE00C94392A21
:10202000D6D38BE1A82E83E0B82E750110E0F7011E
:1020300001917F01812FB0D21F5F183009F43DC09C
:102040000817A9F380912B0381FDACD2A9DFC82E1C
:1020500010E099249394812F9FD2082FF50181914C
:102060005F01081729F1D02ED826F12CEE24E39435
:102070008D2D8E21A9F0CC2099F0F9821A830E942F
:1020800074219C838B839D8291E0802F8E2109F4A3
:1020900090E049815A816B817C818D810E94580634
:1020A000F394EE0CF5E0FF12E3CFF50131970083D6
:1020B0001F5F183081F654DFACCF0813C3CFA8CF11
:1020C0001F93CF93DF931FD1EC01C11580E5D80793
:1020D000F0F5C11580E4D80708F09AC0C03ED105DC
:1020E00020F5CD3CD10508F082C0C83AD10578F47E
:1020F000C53AD10508F073C0C130D10519F1209758
:1021000009F1C430D105F0F4D0E0C0E01BC0C33CFD
:10211000D105D0F7C85AD0E0CC0FDD1FC550DE4F37
:102120000990D881C02DD4640DC0C11580E2D807B4
:1021300008F0CCC0C11581E0D80708F05AC0C83EED
:10214000D10510F7CE01DF91CF911F910895C036D0
:1021500082E5D80718F5C03482E5D80708F068C0D2
:10216000C03282E5D80708F05CC0C11582E5D80707
:1021700008F493C02C2F2695269580E2289F900185
:1021800011248C2F8370C1E0D0E002C0CC0FDD1F82
:102190008A95E2F7C22BD32BDD68D4CFC03A82E513
:1021A000D80760F4C03882E5D80708F456C0CF716C
:1021B000D0E0DC2FCC27C46FD06AC4CFC03C82E50E
:1021C000D80708F45FC0C03E82E5D80708F09CCF6E
:1021D000DC2FCC27CC27DF71C06FD06AB3CFC55AB4
:1021E000D0E0CF5CDD4FC881D0E0D064ABCFD0650C
:1021F000A9CF8D2F2AD1182FCE01992784D0C12F96
:10220000D0E0DC2FCC27CC27DF71C82BD92B9ACF7D
:10221000CE01992778D0CC27DF70C82BD92BD06A74
:1022200091CFCF71D0E0DC2FCC27C16FD06A8ACF9D
:102230002C2F26952695277080E2289F9001112447
:102240008C2F8370C1E0D0E002C0CC0FDD1F8A95D7
:10225000E2F7C22BD32BDC6875CF2C2F2695269561
:10226000277080E2289F900111248C2F8370C1E099
:10227000D0E002C0CC0FDD1F8A95E2F7C22BD32B32
:10228000DA6860CF8C2F8F71E0D0C82FD0E0DC2FC0
:10229000CC27CC27DF71D06255CF8C2F8F71D5D052
:1022A00055E0D695C7955A95E1F7CF70D0E0DC2F71
:1022B000CC27282F30E084FF05C044E0220F331FD5
:1022C0004A95E1F7C22BD32BD0693CCF8D2F8F716C
:1022D000BCD0182FCE01992716D0C12FD0E0DC2F0B
:1022E000CC27CC27DF71C82BD92BD5CF462F783000
:1022F00028F4653018F4672F0C94EF0390E080E029
:102300000895F4DFDDCE82389105B9F1B0F4813360
:10231000910509F47DC048F48932910509F46DC036
:102320008A32910509F47BC008958533910509F43B
:102330005FC08933910509F10895833E9105D9F174
:1023400038F4803E910529F1823E910579F1089596
:10235000863E9105D9F1873E910509F43EC0843E41
:10236000910541F52091E20321FF24C08091E10312
:1023700084FD19C087EE90E008952091E103237059
:1023800009F05AC02091E20323FF14C089E290E0D3
:1023900008952091E10320FD38C03091E20330FF21
:1023A00009C024FF43C090E080E008952091E1033C
:1023B00022FDF7CF08952091E10322FD3AC030912C
:1023C000E20330FD39C024FFF5CFEDCF2091E103CA
:1023D00023FFF0CF24FDE7CFCDCF2091E10323FDF4
:1023E0002EC03091E20331FFEECF84EE90E00895ED
:1023F0002091E10325FFDECFC9CF2091E10325FD28
:1024000021C02091E20323FFD5CF89E390E0D2CF12
:102410002091E10326FFCECF8AE290E0089520913B
:10242000E10326FFC7CF81E390E0089583EE90E0BB
:10243000089582EE90E0089580EE90E0089586EE93
:1024400090E0089585E390E008959091E10392FF74
:1024500010C041E0282F2471243009F040E031E021
:10246000282F2871283009F030E0431711F02CE0B4
:10247000822793FF10C041E0282F2471243109F0F6
:1024800040E031E0282F2871283109F030E043176F
:1024900011F02CE082273091E20330FF10C051E0B0
:1024A000282F2171213009F050E041E0282F2871B8
:1024B000283009F040E0541711F029E0822731FF5D
:1024C00010C041E0282F2171213109F040E031E0B6
:1024D000282F2871283109F030E0431711F029E046
:1024E000822794FD877E08951092E3031092E403FF
:1024F0001092E5031092E6030895CF92DF92EF92D7
:10250000FF926B017C01E6D181110EC00E948021F7
:10251000C61AD70AE80AF90AC092E303D092E40384
:10252000E092E503F092E603FF90EF90DF90CF900A
:1025300008950F931F93CED1882329F00E94802104
:102540001F910F9108950E9480210091E303109143
:10255000E4032091E5033091E603600F711F821FB1
:10256000931FEECF80E00895CF939C01205E32450B
:10257000C1E02032310538F4FB01C581C11103C02F
:102580008F710E94E7048C2FCF9108950895FECF9C
:1025900008950895FECF0895E82FF0E0E051FC4F34
:1025A00080810895089580EA8A95F1F7089500C022
:1025B0000895F9CF08950895FECF0895EF92FF9200
:1025C0001F93CF93DF9300D000D0CDB7DEB782D179
:1025D000182F6091F803882309F445C019821A82E4
:1025E0001B821C82862F90E09E012F5F3F4F790156
:1025F000B90180519C4F8CD18823E1F08091E70391
:1026000090E044E050E0B70180519C4F0E944D2A79
:1026100021E020932C03892BC1F410E0BBDF812F34
:102620000F900F900F900F90DF91CF911F91FF901F
:10263000EF90089580912C03882379F384E0F701CB
:1026400011928A95E9F710922C03E091E703F0E0EC
:10265000E051FC4F89819A81AB81BC818083918359
:10266000A283B383DBCF70E060517C4F8091E7039E
:1026700090E080519C4FD1D19FDFD1CFF894E82FCB
:10268000E295EF70F0E031A1282F2F7081E090E00B
:1026900001C0880F2A95EAF7982F9095932391A36C
:1026A00092A1892B82A378940895CF93DF9384E934
:1026B000E5DF86E6E3DF87E9E1DF86ECDFDFC4E321
:1026C000D2E089918F3F09F0D9DF82E0C933D80782
:1026D000C1F7DF91CF910895B0E0A0E0E2E7F3E128
:1026E0000C94202AEC01D62E062F10E0C801875C3E
:1026F0009D4F7C01FC0180818F3F09F442C0F8941A
:10270000E82FE295EF70F0E091A18F7021E030E0CA
:1027100001C0220F8A95EAF7892F822B81A382A11B
:102720002095282322A3789442DFE4E3F2E049E3F2
:1027300052E031E0C12C21912F3F41F1A22FA2950F
:10274000AF70B0E090968C9190E02F7002C095959C
:1027500087952A95E2F780FD19C0832FC82A330F89
:102760004E175F0741F7F70180818F3F09F086DF41
:1027700061E0C11001C060E08D2D1BDFC00FD11FD3
:10278000C882CDB7DEB7E8E00C943C2A80E0E6CF03
:1027900080919A0180919A0194E0811190E0909348
:1027A000F80384E0891B8093E7037FDF88E0E0EF94
:1027B000F3E0DF01982F1D929A95E9F7E8EEF3E038
:1027C000DF011D928A95E9F784E03CD0E0CEA8E0D5
:1027D000B0E0EDEEF3E10C94232A8E010F5F1F4F62
:1027E00088E0F80111928A95E9F7F12C6F2DC80164
:1027F00073DFF394F4E0FF12F9CF48E050E0B80142
:1028000088EE93E00E944D2A21E0009709F420E031
:10281000892B41F088E0F801A8EEB3E001900D9219
:102820008A95E1F76091F80370E060517C4F44E0D5
:1028300088EE93E008D0182FC1DE812B2896E5E0C2
:102840000C943F2A0895B0E0A0E0E9E2F4E10C9492
:10285000202A6C017B01042FC22F222379F081E012
:1028600080932F030E94742190932E0380932D0355
:1028700080E0CDB7DEB7E8E00C943C2AD0912F037E
:10288000DD23B1F380912D0390912E030E948C21C2
:10289000059770F310E0A801B601C7010E944D2A08
:1028A000892B31F0A801B601C7010E945A2ACD2F09
:1028B00010922F038C2FDDCFCF930E94E129C82FD8
:1028C000811102C00E94DD298C2FCF910895809143
:1028D00033030895809132030895FCCF0895ECDF0F
:1028E00080933203FADF80933303F1DF80939A0100
:1028F000F1DF811142C00895EDDF811101C040C0B8
:10290000089581E0909134039A3008F080E00895B2
:102910000F931F93CF93DF93EC018B0180913403CE
:102920008A30B0F4B801CE0176D0C82F811122C010
:10293000809134038F3FB9F40E9474219093310346
:10294000809330038C2FDF91CF911F910F910895C9
:1029500080913003909131030E948C21843F9140FB
:1029600008F7C0E0EFCF8F5F809334038A3020F701
:10297000C1E0E8CF10923403E5CF0C944D220895C6
:102980000C9450220895B0E0A0E0E9ECF4E10C943E
:10299000212A7901C82F880FDD0B41155105A9F0B7
:1029A000FE0193E0EE0FFF1F9A95E1F7E556FE4F0B
:1029B000818192818B5C9C4F208130E042175307CC
:1029C00008F49A01A9010E945A2ACE010E943023DC
:1029D000D82E8823D1F001151105B9F083E0CC0F72
:1029E000DD1F8A95E1F7FE01E556FE4F438150E079
:1029F0000417150708F4A801C556DE4F6C817D81C8
:102A00006B5C7C4FC7010E945A2A8D2DCDB7DEB773
:102A1000E7E00C943D2AF0C0089503C10895A4E0B6
:102A2000B0E0E5E1F5E10C94242A60914A0370914D
:102A30004B0380914C0390914D030E949B2111E028
:102A4000643671058105910508F173DD6E5F7F4F76
:102A50008F4F9F4F69837A838B839C8310E000E0C4
:102A600030E020E044E050E0BE016F5F7F4F82E045
:102A70008ADF182F882351F00E94802160934A0337
:102A800070934B0380934C0390934D03812F2496B6
:102A9000E4E00C94402AB0E0A0E0E1E5F5E10C941C
:102AA0001E2A7C015B016A012CDF01E010E0882313
:102AB00011F00AE010E0C1E0D0E0B501C701F60175
:102AC0000995811104C021960C171D072CF4CDB770
:102AD000DEB7EAE00C943A2ACC9F9001CD9F300DEE
:102AE000300D112490E080E045E34A95F1F70000B5
:102AF000019682179307C1F7E0CFA5E0B0E0E3E8C5
:102B0000F5E10C941E2A5B01E0903D02F0903E023C
:102B100001E010E09E012B5F3F4F50E040E070E08D
:102B200060E080E030DF182F882309F448C0670197
:102B30008FEFC81AD80A60914603709147038091BD
:102B40004803909149030E949B21643671058105D9
:102B5000910570F104E010E09E012F5F3F4F50E0BF
:102B600040E070E060E081E00EDFF82E64E070E0AD
:102B7000C601F2D411E09D81981310E01F2151F19C
:102B80000E9480216093460370934703809348031B
:102B90009093490389819A81AB81BC8180934203E0
:102BA00090934303A0934403B093450311E012C0F4
:102BB00064E070E0C601D0D49D818913CBCFF701CA
:102BC00081819281A381B48189839A83AB83BC8301
:102BD0001111E0CF8091420390914303A0914403EF
:102BE000B0914503F50180839183A283B383812F44
:102BF0002596EAE00C943A2A0F931F93CF93DF9324
:102C0000EC018B014DE755E146DF882329F04FE0C9
:102C100055E1B801CE013FDFDF91CF911F910F91B8
:102C200008950F931F93CF93DF93C0913D02D091EE
:102C30003E02CE01019624E0FB01DC0101900D92E1
:102C40002A95E1F764E070E087D488836D817E8106
:102C50008F81988500913E0310913F03209140039E
:102C600030914103601771078207930749F0609321
:102C70003E0370933F0380934003909341033DDCF8
:102C8000DF91CF911F910F910895B9C908950E94C6
:102C90000E210E94C4247FD90E94DC249BD90E946B
:102CA000E5240E94E824F1DF0E94FE247DD9F9CFBB
:102CB000909341028093400208958FC8089580E068
:102CC0006BDC8170089583DD2FEF86E791E0215062
:102CD00080409040E1F700C0000079DDF0DF8823FC
:102CE00019F0EBDF0C94DB210895EDCF08958832C5
:102CF000910548F48E319105A0F4049750F082E0DC
:102D00000E94FA0D0EC08D329105C9F320F48A9706
:102D100041F080E008958C34910519F08D32924095
:102D2000C1F781E00895EF92FF920F931F93CF9325
:102D3000DF93EC017B01C3378CE7D80761F4FB011B
:102D40001581112311F0B9D010E0812FCDB7DEB776
:102D5000E6E00C943E2A0E94E40D082F0E940A0E21
:102D6000082B7CD0811107C0023211F011E0EDCFA9
:102D700079D059D7FBCF69D0F70115811123B1F371
:102D80000D7909F054C0C034F2E5DF0720F5C11514
:102D900082E5D807D0F6C115E0E4DE0790F4C1154E
:102DA000F0E2DF07B0F5C63ED10579F20E94070ECA
:102DB000CE019DDFC82F8823D1F10E94950E1C2FD4
:102DC000C4CFC11580E5D80788F7F7018681807FD9
:102DD00069F2DD27EBCFC03EE2E5DE07A0F4C03CA0
:102DE000F2E5DF0708F0B1CFC03682E5D807F0F290
:102DF000C03AE2E5DE0708F4A8CFC43BF2E5DF07FE
:102E000009F4A3CFD3CFCE0187579C47029770F622
:102E10009CCFF7018681807FE1F68D2F8F71823103
:102E200089F038F4C1EED0E0823009F4BFCF28D069
:102E30008CCF843109F489CFC6EED2E1863109F412
:102E4000B5CFF5CFC5EED0E0B1CF0E947421885741
:102E50009C4E90934F0380934E03089580915003AE
:102E60000895089580915003811109C00E94F40DC6
:102E70000E94340EEADF81E080935003F2CF089580
:102E800080915003882339F082E20E941709109242
:102E9000500380E0E6CF089580915003882361F0CD
:102EA0000E94742120914E0330914F03821B930B9B
:102EB0008F3F9F4708F4E4CF089580915003882303
:102EC00009F0DECFCFCF0895EF92FF920F931F93BB
:102ED000CF93DF938091C403882361F0E091510385
:102EE0008DE0F82E8091C403E81748F01092C403D7
:102EF00010925103CDB7DEB7E6E00C943E2AEE24E3
:102F0000E394EE0EE0925103CE2FD0E0EF9DF0015E
:102F10001124E45AFC4F84818823A9F0878190858D
:102F2000892B99F4818592858F3F980771F061E034
:102F3000CADFFC9EF001FD9EF00D1124E45AFC4F07
:102F400014820E94070EEE2DCDCF008111812281C7
:102F50003381448155816681778180850E944D0D42
:102F6000E8CF0895CF93DF931092C6031092C50364
:102F7000D0E0C0E00E94F103C817D90718F0DF9134
:102F8000CF910895CE010E940404FC018581811136
:102F900002C0148216822196EDCF1F93CF93DF9348
:102FA00010915A0320915B032117D1F0C12FD0E07B
:102FB000FE01EE0FFF1FEE5AFC4F40815181481772
:102FC000590791F40E94040421E0FC0124838091BC
:102FD0005A03811305C02196C370DD27C0935A039D
:102FE000DF91CF911F91089521961C2F1370DCCF94
:102FF000B0E0A0E0EEEFF7E10C941B2AEB012C818E
:10300000211152C07090C403ACE5B3E030E020E081
:10301000812C61E070E0271508F045C01B96CD902B
:10302000DC901C97A880B9804FEF5FEF912CE92CC2
:10303000F12CF701EE0FFF1FEA0DFB1D0591149116
:10304000C016D10609F4A7010115110511F09394DA
:10305000EECF4F3F540781F1FB0102C0EE0FFF1F7F
:103060004A95E2F78E2AAB01092C02C0440F551F86
:103070000A94E2F74150510984161506D1F44A81A9
:103080005B816DE0629FF001639FF00D1124E45AB3
:10309000FC4F5087478324E024831082118292875B
:1030A000818721E02D8379DFCDB7DEB7EDE00C9489
:1030B000372A14961C9214972F5F3F4F1D96ABCF63
:1030C0000F931F93CF93DF93C0915A0380915B03BB
:1030D0008C1307C0F9DE46DFDF91CF911F910F916E
:1030E0000895D0E08E01000F111F0E5A1C4FF801F9
:1030F000808191810E940404BC01F801808191814A
:1031000077DF2196C370E2CFEF92FF921F93CF93A8
:10311000DF93FC012081318110E040E050E0E52F99
:10312000F0E0EE0FFF1FE20FF31FA591B49110978F
:10313000B9F0FB01C081D18140E005C0AE15BF05EB
:1031400009F411E04F5FE42FF0E0EE0FFF1FEC0FEA
:10315000FD1FE590F490E114F10481F75F5FDFCF8C
:10316000112349F0451708F4CB01DF91CF911F914E
:10317000FF90EF90089590E080E0F7CF8091B30149
:10318000882329F18091C7039091C8030097F9F033
:103190000E948C212091C5033091C603281739075E
:1031A000B0F490915A0380915B03981751F088DF37
:1031B0001092C6031092C5031092C8031092C70361
:1031C000089582DE1092C8031092C703CBCE0895F3
:1031D0001092C8031092C7031092B30180915B0351
:1031E00080935A03BFDE70CE8091B301882309F02B
:1031F000EFCF81E08093B3010895ACE0B0E0E3E06D
:10320000F9E10C94162A4C016B0180352CE79207EA
:1032100061F4FB0115811123D9F081E08093B301A2
:10322000812F2C96E2E10C94322A8135FCE79F072E
:1032300031F4FB011581112359F0CADFF1CF82353A
:103240009C4731F4FB011581112311F0CDDFE8CF4C
:1032500020916D0230916E0280916F029091700208
:10326000822B932B0E940406182F7BDE181729F05F
:10327000F601608171813AD84C01B12CA12C1C86D9
:1032800066246394712CCE0101969B878A870E94E5
:10329000F103A816B906C0F1F6018581882309F467
:1032A0004BC1FC85FF2309F447C10E947421909310
:1032B000C8038093C7038091C403883008F591E068
:1032C000980F9093C40399E0F601DE0111960190E6
:1032D0000D929A95E1F72DE0829FC0011124845A46
:1032E0009C4F29E0FE013196DC0101900D922A9558
:1032F000E1F72FEF3FEFFC01328721879486838629
:103300001C85109511708CCFC5010E9404047C01AE
:10331000FC014081518144244A94542C60E0262FC2
:1033200030E0F901EE0FFF1FE40FF51F8591949136
:103330008816990609F42901892B11F06F5FEFCFE8
:1033400080E0FFEF4F165F0609F445C0F7014481A6
:103350003090B301832D411180E0F82FF1703F2EA2
:10336000F70125808681F6019581992309F483C0B0
:10337000332009F480C0211015C09301042C01C032
:10338000220F0A94EAF7822BF70186838091C50306
:103390009091C603C29730F482E390E09093C60305
:1033A0008093C503C30102C0880F991F6A95E2F795
:1033B0000197F70126812817190681F58091C70327
:1033C0009091C803009771F0A7D7C39758F021E0F8
:1033D000F701248381E0FC85F82BFC872FEFA21AEC
:1033E000B20A55CF20905A0390E080E020915B0311
:1033F000221216C0E816F90689F0422C512CF2016F
:10340000EE0FFF1FEE5AFC4FB182A0822FEF421A3F
:10341000520A83E04822552440925B03832DDBCF80
:10342000422C512CF201EE0FFF1FEE5AFC4F80810F
:1034300091810E9404048C01B70166DE0097A1F01F
:1034400021E0FC012483E816F90641F320915A0398
:1034500022120AC00817190739F492012F5F3F4F53
:103460002370332720935A03EFEF4E1A5E0AF42D90
:10347000F3702F2EBBCF90E021101EC0930102C02D
:10348000220F331F6A95E2F72150310928173907B7
:1034900029F4442309F44EC0C5017FDDC301042C87
:1034A00001C0880F0A94EAF7982F9095F70186815A
:1034B00089238683322CB2CFAC01042C02C05595EF
:1034C00047950A94E2F7BA01617077279C01215071
:1034D000310982239323892B49F5672B39F1F701B1
:1034E00082819381892BF1F0EA85FB8527E0119297
:1034F0002A95E9F7F9D6282F8B839C8384E08D8366
:10350000F70182819381782F8887998709811A81B1
:103510003C8144E05E816F81892F0E944D0DF7014F
:103520001582BCCF60E0C501CEDCF9CFF42FF1707D
:103530002F2EB4CF232CB2CF90915A0380915B03EE
:10354000981711F0BDDDDCCEBFDC1092C8031092DD
:10355000C70308DDD5CE0895FC01680F791F8FEFF2
:1035600091E36E177F0709F408952191822728E0DF
:1035700030E087FF06C0880F892721503109C9F73D
:10358000F0CF880FFACF9C01FB018581882359F188
:103590002137FCE73F07B9F022379CE73907E9F00C
:1035A00020373C4709F560E28091940190919501A4
:1035B0000E94E405FC01019620812032D9F3CF015D
:1035C00026D280E00895809194019091950105960E
:1035D0009093950180939401F4CF80919401909100
:1035E00095010597F5CF81E00895CF93DF93EB0127
:1035F00086319C4701F50E94E40D9D81992391F04D
:103600008A7A91E009F490E09093C903811108C08F
:1036100089E246D50E94950E80E0DF91CF91089512
:1036200085E3F7CF8091C903811103C089E24FD5AB
:10363000F1CF85E3FCCF81E0F0CFCF93DF93EC01B6
:10364000FB018581882309F4D2C09E0130572332C3
:10365000310508F0B2C00E940D0F9093E2038093F1
:10366000E103FE01E150F047E232F10520F4E554B8
:10367000F54D0C94102A8091E10381608093E10361
:1036800093C08091E20388608093E2038DC08091B3
:10369000E1038260F3CF8091E1038460EFCF8091FA
:1036A000E1038860EBCF8091E2038160EDCF8091F0
:1036B000E2038260E9CF8091E1038061DFCF8091F6
:1036C000E1038062DBCF8091E1038064D7CF0E9469
:1036D00029098091E1038068D1CF8091E1038C605A
:1036E000CDCF8091E2038360CFCF8091E1038E7FC5
:1036F000C5CF8091E203877FC7CF8091E1038D7FA3
:10370000BDCF8091E1038B7FB9CF8091E103877FAB
:10371000B5CF8091E2038E7FB7CF8091E2038D7F9A
:10372000B3CF8091E1038F7EA9CF8091E1038F7D9C
:10373000A5CF8091E1038F7BA1CF0E9429098091C1
:10374000E1038F779BCF8091E103837F97CF8091B7
:10375000E2038C7F99CF8091E10382FB992790F956
:1037600021E0922790FB82F990FB83F987CF80912B
:10377000E203982F909591708E7F892B90FB81F9B1
:1037800083CF9091E103892F8F7B96FF806476CF62
:103790000E9429099091E103892F97FB87F98058AE
:1037A0006DCF81E00E94870F8091E1039091E20349
:1037B0000E94110F0E94290980E0DF91CF910895A6
:1037C00080E0F0CF9091E103892F8F7E94FF80619C
:1037D00055CF9091E103892F8E7F90FF81604ECF6E
:1037E0009091E203892F877F93FF88604DCF81E01E
:1037F000E4CFB0E0A0E0EFEFFBE10C941F2AE82F4C
:10380000F0E0EA5AFD4FB490282F2695269526958C
:1038100030E0F901EA50FD4F0491877010E0082E66
:1038200002C0159507950A94E2F701701127F90176
:10383000EA51FD4FE490F12C082E02C0F594E79474
:103840000A94E2F791E0E922FF24F901EA52FD4FE0
:10385000C491D0E002C0D595C7958A95E2F7C170B2
:10386000DD27C62ED12C0115110549F5E114F1040F
:1038700031F086EE0E949106C601009771F5B601FF
:103880008B2D0E94F406C601009779F5E114F1042E
:10389000A1F50115110531F081EE0E94CE06C60199
:1038A0000097C9F5CD2B31F08CE20E940A07C114B4
:1038B000D104C9F5CDB7DEB7E9E00C943B2A81EE1F
:1038C0000E949106C601009789F2EFE9FFE0319767
:1038D000F1F700C000000197F6CFEFE9FFE0319764
:1038E000F1F700C000000197C8CFEFE9FFE0319782
:1038F000F1F700C000000197C7CF86EE0E94CE0608
:10390000C601009731F2EFE9FFE03197F1F700C00F
:1039100000000197F6CFEFE9FFE03197F1F700C023
:1039200000000197BDCF8FE99FE00197F1F700C03C
:10393000000091E0C91AD108BACFEF92FF920F931D
:103940001F93CF93DF93EC01162F0AE08881882321
:1039500009F458C0813009F052C08981813071F476
:103960007E0182E0E80EF11C8A810E940A07E701CD
:10397000812F90E00097D9F52196E8CF823041F46D
:103980007E01E2E0EE0EF11C8A810E949106EFCFEB
:10399000833041F47E01F2E0EF0EF11C8A810E9437
:1039A000CE06E5CF843011F02196E2CF2A8122960F
:1039B00090E080E0AE014F5F5F4F2053330B2A3021
:1039C000310550F00097A1F2EFE9FFE03197F1F7F0
:1039D00000C000000197F6CF089FB001099F700D4D
:1039E0001124C901860F971F2981EA01E3CFEFE96E
:1039F000FFE03197F1F700C000000197BBCF612FC6
:103A0000F8DEBACFCDB7DEB7E6E00C943E2A60E030
:103A100094CFEF92FF920F931F93CF93DF938C017C
:103A2000F62E8AE0E82EF8018491882309F44CC030
:103A3000813009F045C0E8012196FE018491813072
:103A400049F42196FE0184910E940A078E010F5FBE
:103A50001F4FE9CF823039F4E8012296FE018491AC
:103A60000E949106F3CF833039F4E8012296FE01DB
:103A700084910E94CE06EACF843041F7E801229675
:103A8000FE01249190E080E0FE0131962053330B3B
:103A90002A30310550F00097C9F2EFE9FFE0319785
:103AA000F1F700C000000197F6CFE89EA001E99E63
:103AB000500D1124C901840F951F2491EF01E4CF0B
:103AC0006F2D97DEE801C2CFCDB7DEB7E6E00C94EC
:103AD0003E2A0F931F93CF93DF93C42FD22FFC0165
:103AE00085818823C1F04093CC03FED39093CB0310
:103AF0008093CA0380E28C0F883040F4C77081E065
:103B000001C0880FCA95EAF70E941107DF91CF9193
:103B10001F910F9108951091CC03141335C080911B
:103B2000CA039091CB03F8D3209194013091950171
:103B30008217930748F5C0E2CD0F1D17B9F080E258
:103B4000810F883040F4177081E001C0880F1A950A
:103B5000EAF70E941607C83048F481E09D2F97705D
:103B600001C0880F9A95EAF70E941107802F0E94E2
:103B70000A07C83058F6D77081E001C0880FDA957F
:103B8000EAF70E941607C2CF80E28C0F883008F057
:103B9000BDCFC77081E001C0880FCA95EAF7F1CFA9
:103BA0000F93DB0188519C478730910598F5FC0104
:103BB000E352F54D0C94102A06E221EE41EE6AE143
:103BC0007CE7CD0186DF80E00F91089507E225EEC6
:103BD00045EE6BE17CE7F5CF06E221EE40EE68E1D1
:103BE0007CE7EFCF07E225EE44EE69E17CE7E9CF21
:103BF00006E221EE42EE6CE17CE7E3CF07E225EE40
:103C000046EE6DE17CE7DDCF08E221E045EE6EE1B6
:103C10007CE7D7CF15968C91882319F01092CC03AE
:103C2000D3CF81E0D1CF1092CC0308954115510537
:103C300011F0FA0109950895CF93DF93EC014A85BD
:103C40005B856E857F85F2DF8B810E94000E8C8103
:103C50000E94ED0D0E94950E86E0FE0111928A955C
:103C6000E9F7DF91CF910895CF93DF93EC018D8138
:103C700081FD10C082608D838B810E94FA0D8C8142
:103C80000E94E70D0E94950E488559856E857F85B7
:103C9000CE01CCDF1092D0031092CF038D8180FD36
:103CA00002C0CE01C9DFDF91CF910895CF93DF939A
:103CB000EC018A81823041F4FB01828193810E9470
:103CC00053048D8182608D83DF91CF910895FB0134
:103CD000808191810C945304FC018281813031F404
:103CE000FB01808191810C94670408958230E9F78B
:103CF000FB0182819381F7CF0F931F93CF938C01A8
:103D0000FB01C581CC23A9F08091CF039091D00312
:103D10000097A1F08017910789F099270E94170456
:103D2000FC01258124602583118300839DDF0E948F
:103D3000070E8C2FCF911F910F910895C0E0F9CFFE
:103D4000EF92FF920F931F93CF93DF937C018B0130
:103D500097558F3F910519F010F011E036C00E9481
:103D60000604970133272817390708F04CC0C9010A
:103D70000E941704EC01F80115818D8110FB80F978
:103D80008D83112341F1B0D29093CE038093CD0364
:103D90008A818F5F8A830E94E40D8B830E94F70DD6
:103DA0009B81892B8B830E940A0E8C834E815F81BD
:103DB0006E857F85CE013ADF8D8181FF02C0F12CB7
:103DC000E12CF092D003E092CF03812FCDB7DEB784
:103DD000E6E00C943E2A4C855D856E857F85CE019C
:103DE00025DF8D8181FFB9CFCE0126DF8091CF0302
:103DF0009091D0038E159F0509F0AFCF1092D0039C
:103E00001092CF03AACF10E0E0CF8091CF03909122
:103E1000D003892BB9F08091CD039091CE037CD251
:103E200020919401309195012817390758F4809119
:103E3000CF039091D00399270E941704FC0125819C
:103E400022FF12CF08951092D0031092CF03F4CE28
:103E50009093D7038093D60308950E946A1481112A
:103E600003C08091D1030895E091D603F091D70368
:103E7000309729F00190F081E02D0995089580E0B8
:103E80000895E091D603F091D703309721F0028096
:103E9000F381E02D09950895E091D603F091D703C1
:103EA000309739F026E0DC012C930480F581E02D79
:103EB00009950895A3E0B0E0E0E6FFE10C94262A1E
:103EC0002091D4033091D50328173907A1F090939E
:103ED000D5038093D403E091D603F091D7033097B4
:103EE00051F023E029839B838A830084F185E02DB0
:103EF000CE01019609952396E2E00C94422AA3E0B4
:103F0000B0E0E5E8FFE10C94262A2091D20330913D
:103F1000D30328173907A1F09093D3038093D203DA
:103F2000E091D603F091D703309751F024E0298334
:103F30009B838A830084F185E02DCE01019609954B
:103F40002396E2E00C94422ACF93DF93C09198012C
:103F5000D0919901229629D1813081F48091E10399
:103F600087FF0CC0C0919601D091970122969EE1E7
:103F700080E0915028F4DF91CF91089596E0F8CF3A
:103F800029912223B1F38F5FF4CFCF93C82F8111F2
:103F900002C080E023C009D1813011F58091E10396
:103FA00087FF1EC0EC2FE695E695E695EE3188F783
:103FB0008091960190919701E80FF92FF11D2281D0
:103FC00030E0C77081E090E002C0880F991FCA9569
:103FD000E2F72823392381E0232BD9F2CF910895EA
:103FE0008091980190919901FC0132960896219157
:103FF0002C1721F0E817F907D1F7CBCF81E0EECFEE
:104000009C01FC0132969FEF80E04191461751F0F0
:104010009F3F19F4411101C0982F8F5F8630A9F797
:104020009F3F09F40895290F311D97FD3A95F90135
:1040300062830895FC01329608962191261303C0ED
:10404000DF0111971C92E817F907B9F70895E62FD9
:10405000E695E695E695EE3168F4E80FF92FF11D47
:10406000677021E030E001C0220F6A95EAF7828193
:10407000822B82830895E62FE695E695E695EE314C
:1040800070F4E80FF92FF11D677021E030E001C0F6
:10409000220F6A95EAF720958281282322830895CA
:1040A000CF93C82F82D06C2F813059F48091E103D7
:1040B00087FF07C08091960190919701C8DFCF914B
:1040C000089580919801909199019ADFF8CFCF934C
:1040D000C82F6BD06C2F813059F48091E10387FF9A
:1040E00007C08091960190919701C5DFCF91089507
:1040F00080919801909199019DDFF8CF56D0813041
:1041000079F48091E10387FF0BC0E0919601F09173
:10411000970132968EE1DF011D928A95E9F70895A5
:10412000E0919801F0919901329686E0F4CF0895DC
:10413000FECF089581110CC081E08093B70160919A
:10414000B4017091B5018091B6019091B701F0CFA3
:1041500082E0F3CF83E08093B7016091B401709166
:10416000B5018091B6019091B701E2CFE3CF0895F8
:1041700081E08093B7016091B4017091B5018091A5
:10418000B6019091B701D4CFF3CF089591E081119A
:1041900001C090E09093B6016091B4017091B501B7
:1041A0008091B6019091B701C3CF8091B601089577
:1041B0008093B5016091B4017091B5018091B60111
:1041C0009091B701B5CF8091B50108958093B40166
:1041D0006091B4017091B5018091B6019091B701E1
:1041E000A7CF8091B401089508950895FECF089552
:1041F00008950895F9CF0895CF93FADF0E94E71349
:10420000F8DFC0E08C2F0E94CC12811105C0CF5F77
:10421000C830C1F7CF91089581E0FCCF85B78068A1
:1042200085BF85B7806885BF08951F921FB61F920E
:1042300011248F939F93AF93BF938091D8038111E3
:1042400013C08091F9039091FA03A091FB03B09100
:10425000FC034196A11DB11D8093F9039093FA03CD
:10426000A093FB03B093FC03BF91AF919F918F91FB
:104270001F901FBE1F90189580910104843031F16A
:104280000E9486051092D80388E190E020E40FB6E2
:10429000F894A895809360000FBE2093600083B7C8
:1042A000817F846083BF83B7816083BF7894889562
:1042B00083B78E7F83BF0FB6F894A8958091600076
:1042C000886180936000109260000FBE08950E9484
:1042D00029090C94890582E084BD93E095BD9AEF8D
:1042E00097BD80936E0008952FB7F8948091F903DD
:1042F0009091FA03A091FB03B091FC032FBF0895A6
:104300002FB7F8946091F9037091FA038091FB0341
:104310009091FC032FBF08959C014FB7F8948091B2
:10432000F9039091FA03A091FB03B091FC034FBFF6
:10433000821B930B0895CF92DF92EF92FF922FB7DB
:10434000F894C090F903D090FA03E090FB03F0904A
:10435000FC032FBFA7019601261B370B480B590BF7
:10436000CA01B901FF90EF90DF90CF900895789443
:104370001F921FB61F9211248F939F93AF93BF93E9
:104380008091F9039091FA03A091FB03B091FC0393
:104390000196A11DB11D8093F9039093FA03A09398
:1043A000FB03B093FC03BF91AF919F918F911F903E
:1043B0001FBE1F90189587E797E790930108809399
:1043C000000888E19AE00FB6F894A8958093600001
:1043D0000FBE90936000FFCF88E19AE00FB6F8948B
:1043E000A895809360000FBE90936000FFCF8EE190
:1043F0004A9B02C08150E1F74A9BFECF08955A982C
:1044000080E28A95F1F75A9A0895FC013BE03A95CB
:10441000F1F798E020E080E031E040E14A95F1F7E3
:10442000880F4A9B02C08160232742E04A95F1F73A
:10443000000040E14A95F1F7915079F790E19A95A3
:10444000F1F799B132E03A95F1F7000040E14A9571
:10445000F1F792FB992790F992272081920F908390
:104460000895A1E0B0E0E6E3F2E2ECC719828C0126
:104470007C01E60EF11C0E151F0539F481E09981CF
:10448000911180E02196E6E0F9C7B1DFCE010196F7
:10449000BCDFF80181938F01EECF529A5A9A0895AA
:1044A00052985A9AEA9AE9E6F0E080818F7C8083FC
:1044B00008956150770B91E001C0990F6A95EAF772
:1044C00020E031E0911108C0222391F05A9A80E255
:1044D0008A95F1F75A980895492F482339F05A9A46
:1044E000232740E24A95F1F79695ECCF5A98F9CFF9
:1044F0005A98EDCFFF920F931F93CF93DF93EC0168
:104500008C01060F111DC017D10721F4CDB7DEB7FE
:10451000E5E0B5C7F99073DF68E08F2DCADFF3CF10
:104520001F920F920FB60F9211240F931F932F9388
:104530003F934F935F936F937F938F939F93AF932B
:10454000BF93EF93FF93CF93DF930F92CDB7DEB777
:1045500019824DDFCE01019658DF082F069506958A
:104560000695282F22952570902F9570290F922F50
:10457000937026952695920F982797708981982B8E
:1045800009F058C0043008F055C080E18A95F1F771
:104590005A9A529A82E08A95F1F700C05A9888E0B8
:1045A000089F80011124D801A556BE4F1696ED91A3
:1045B000FC9117973097A9F060913D0270913E02EF
:1045C00014962D913C911597260F371F11968D91BA
:1045D0009C911297680F791F13964C9113978C91A9
:1045E0000995F801E556FE4F6381662349F0209155
:1045F0003D0230913E0284819581820F931F7ADFC4
:10460000FEDE80E18A95F1F75A9852985A9A80E135
:104610008A95F1F7F801E556FE4F6081662349F06F
:1046200020913D0230913E0281819281820F931F41
:1046300018DFDDDE0F90DF91CF91FF91EF91BF91F9
:10464000AF919F918F917F916F915F914F913F912A
:104650002F911F910F910F900FBE0F901F901895E3
:104660000F931F93CF93DF93EC0104970CF049C095
:10467000F894529A5A9885E08A95F1F700009C2F99
:10468000969595708C2F8570980F892F83709695CD
:10469000969523E0CC0FDD1F2A95E1F7980F8E0148
:1046A000092BADDE00C068E0802F03DF80E18A9532
:1046B000F1F752985A9A4A9B1DC087E090E04A99B8
:1046C0001BC0FE01E556FE4F63816623F1F0209189
:1046D0003D0230913E0284819581820F931FC1DE9D
:1046E000811113C0529A5A9A7894DF91CF911F91F9
:1046F0000F91089500C0DFCF019729F4529A5A9A7A
:10470000789480E0F2CF00C0DACF71DE80E28A9543
:10471000F1F75A98529A80E18A95F1F7C556DE4F23
:104720006881662349F020913D0230913E028981E3
:104730009A81820F931FDEDE62DE789481E0D5CF0E
:1047400008959B01BA01909101049430E1F48F70B7
:104750008093E9009FEF8091E800915085FD06C0AD
:1047600085ED8A95F1F700009111F5CF8091E80071
:1047700085FF09C050E040E0C901B5D18091E80053
:104780008E778093E800089543E050E0BC0182E01A
:10479000D8CF40E250E0BC0182E0D3CFCF93DF938B
:1047A000EC0103DD48E050E0BE0181E0CADF88E0B3
:1047B000FE01A9EDB3E001900D928A95E1F7DF913A
:1047C000CF91089580910004811107C01AD371D34D
:1047D0008091E20084608093E200089510920004CA
:1047E0000895C6DC81E0D2CC6091FD0381E06111C7
:1047F00001C080E0AFCC9091010481E0943009F0D9
:1048000080E06091FD03B2CC42E061EC81E075D2C2
:1048100042E261EC82E071D29091010481E0943037
:1048200009F080E06091FD0385CC80910304833022
:1048300009F45EC030F48130C1F1823009F494C0D3
:1048400008958A3009F483C08B3009F46BC0893035
:1048500009F04DC080910204813209F048C0809176
:10486000060490910704029708F041C08091E80087
:10487000877F8093E8008091E80082FF34C09091A8
:10488000F3008091F200029731F48091F1008130C1
:1048900011F0863019F48091F1008ADC8091E800F3
:1048A0008B778093E8005DD222C080910204813A28
:1048B000F1F48091E800877F8093E80080910604FE
:1048C00090910704892B59F468E089ED93E070E03A
:1048D00057D18091E8008B778093E800089560E0DD
:1048E00090E080E0F4CF809101048111C4CF08955D
:1048F00080910204813AD9F78091060490910704CF
:10490000892BA9F78091E800877F8093E800809148
:10491000E80080FFFCCF49DC8093F1008091E80043
:104920008E77BFCF80910204813209F7809106040F
:1049300090910704892BD9F68091E800877F8093B6
:10494000E8000FD28091040421DC0C9429098091A5
:104950000204813261F68091E800877F8093E8004D
:1049600000D28091050432CC80910204813A09F092
:10497000BECF8091E800877F8093E8008091E800B7
:1049800080FFFCCF2EDCC8CF84B7877F84BF0FB6F3
:10499000F894A895809160008861809360001092DF
:1049A00060000FBE80E890E00FB6F894809361003D
:1049B000909361000FBEE8CB24D27BD2E2EEF0E010
:1049C0008081846080837894DEC488EB91E040CA63
:1049D00080910104853029F480910104853011F023
:1049E00076CC089549DC08DC8823B1F38091FF037D
:1049F000882391F362D00E942909EECF08959A018D
:104A0000409108045091090400C0492F55274330B4
:104A1000510519F168F44130510509F444C04230A0
:104A2000510509F445C090E080E050E040E025C029
:104A30004132510549F142325105A9F784E490E031
:104A40004CEE53E061157105C1F08DE690E04FE743
:104A500053E06130710589F0E6CF992781309105E7
:104A600081F0009729F00297F1F6E6E0F3E002C04A
:104A7000EEE2F3E0849190E0AF01F90151834083CD
:104A80000895E2E2F3E0F6CF89E090E044E453E0F9
:104A90006115710591F389E090E04DE553E06130D7
:104AA000710559F3C0CF82E190E04DE653E0E5CFC8
:104AB0008BE390E042E353E0E0CF80E189BD82E107
:104AC00089BD09B400FEFDCF8091D8008F7D809311
:104AD000D8008091E00082608093E0008091E00047
:104AE00081FDFCCF0895AF92BF92CF92DF92FF92EB
:104AF0000F931F93CF93DF936C01EB018A0150D189
:104B0000F82E811123C00115110539F0F8018081BB
:104B10009181C81BD90BC80ED91EB12CA12C20978E
:104B2000A9F08091E80085FD21C08091E8008E7792
:104B30008093E80001151105A1F0F80180819181B1
:104B4000A80EB91EB182A08285E0F82E8F2DDF91CC
:104B5000CF911F910F91FF90DF90CF90BF90AF90BA
:104B600008951ED18823D9F2F82EF0CFF601819155
:104B70006F018093F1002197FFEFAF1ABF0ACFCFEB
:104B8000FC01809108049091090486179707A0F012
:104B90006115710529F49091E8009E779093E800E3
:104BA00090E06115710551F4911108C08091E80001
:104BB00082FF34C080E00895BC01F2CF80910104EF
:104BC0008823C1F18530C1F18091E80083FD30C0B8
:104BD0008091E80082FDEACF8091E80080FFE1CF7C
:104BE0008091F3002091F200382F6115710519F0C2
:104BF0002830310558F091E02830310509F090E077
:104C00002091E8002E772093E800CBCF819180930C
:104C1000F100615071092F5F3F4FE7CF8091010490
:104C2000882341F0853041F08091E80083FFBECFBA
:104C300081E0089582E0089583E00895FC01809169
:104C400008049091090486179707A0F06115710573
:104C500029F48091E8008E778093E80090E0611558
:104C6000710551F4911108C08091E80082FF35C0B0
:104C700080E00895BC01F2CF809101048823C9F13E
:104C80008530C9F18091E80083FD31C08091E80052
:104C900082FDEACF8091E80080FFE1CF8091F300B0
:104CA0002091F200382F6115710519F02830310577
:104CB00058F091E02830310509F090E08091E8004B
:104CC0008E778093E800CBCF84918093F10031966A
:104CD000615071092F5F3F4FE6CF80910104882317
:104CE00041F0853041F08091E80083FFBDCF81E045
:104CF000089582E0089583E00895982F973028F072
:104D00008F708093E90081E008959093E900242F4B
:104D1000762F50E0981731F07091EC002091ED0063
:104D20005091F00021FD02C09F5FE8CF3091EB0071
:104D30003E7F3093EB003091ED003D7F3093ED00EE
:104D40003091EB0031603093EB007093EC002093D6
:104D5000ED005093F0002091EE0027FDE5CF80E0BC
:104D600008958091020487FF13C08091E80082FFBC
:104D700006C08091E8008B778093E80004C08091A2
:104D800001048111F2CF0895809101048823D9F3A1
:104D90008091E80080FFF8CF8091E8008E77ECCF1B
:104DA0002091E4003091E50095E6A9012091EC0006
:104DB000822F817020FF06C08091E80080FF06C02E
:104DC00080E008952091E80022FD1AC0809101043E
:104DD000882389F0853089F08091EB0085FD0FC034
:104DE0002091E4003091E50042175307F9F2915009
:104DF000E1F684E0089582E0089583E0089581E07B
:104E0000089567D06ED0E0EEF0E08081816080830D
:104E1000E8EDF0E080818F77808319BCA7EDB0E0EA
:104E20008C918E7F8C9380818F7E80831092000482
:104E300008950F931F93CF93DF934BD052D0C8EDBB
:104E4000D0E088818F778883888180688883888193
:104E50008F7D888319BC109201041092FD0310927B
:104E6000FF031092FE0300EE10E0F80180818B7FBB
:104E7000808388818160888342E060E080E03DDF5C
:104E8000E1EEF0E080818E7F8083E2EEF0E08081D1
:104E900081608083808188608083F80180818E7F3B
:104EA0008083888180618883DF91CF911F910F91EA
:104EB0000895E8EDF0E080818F7E8083E7EDF0E0FB
:104EC00080818160808384E082BF81E080930004E0
:104ED000B0CFE8EDF0E080818E7F80831092E20019
:104EE00008951092DA001092E10008951F920F9237
:104EF0000FB60F9211242F933F934F935F936F93AD
:104F00007F938F939F93AF93BF93EF93FF93809182
:104F1000E10082FF0AC08091E20082FF06C080911A
:104F2000E1008B7F8093E1002DD28091DA0080FF39
:104F300018C08091D80080FF14C08091DA008E7F65
:104F40008093DA008091D90080FF91C080E189BD13
:104F500082E189BD09B400FEFDCF81E080930104A8
:104F600031DC8091E10080FF18C08091E20080FF79
:104F700014C08091E2008E7F8093E2008091E20075
:104F800080618093E2008091D80080628093D80095
:104F900019BC85E08093010427DC8091E10084FF47
:104FA0002AC08091E20084FF26C080E189BD82E1B1
:104FB00089BD89B5982F917080FFFBCF8091D80073
:104FC0008F7D8093D8008091E1008F7E8093E100F7
:104FD0008091E2008F7E8093E2008091E200816008
:104FE0008093E2008091FD03882309F445C084E0AA
:104FF0008093010400DC8091E10083FF27C0809151
:10500000E20083FF23C08091E100877F8093E1006D
:1050100082E0809301041092FD038091E1008E7F75
:105020008093E1008091E2008E7F8093E200809186
:10503000E20080618093E20042E060E080E05DDEBB
:105040008091F00088608093F000CBDBFF91EF91BE
:10505000BF91AF919F918F917F916F915F914F9190
:105060003F912F910F900FBE0F901F90189519BC74
:1050700010920104B3DB75CF8091E30087FD93E0CC
:1050800090930104B7CF1F920F920FB60F92112485
:105090002F933F934F935F936F937F938F939F9340
:1050A000AF93BF93CF93DF93EF93FF93D091E9003A
:1050B000DF708091EC00C82FC17080FDC0E81092B5
:1050C000E9008091F000877F8093F00078941ED0F3
:1050D0001092E9008091F00088608093F000CD2B61
:1050E000CF70C093E900FF91EF91DF91CF91BF9115
:1050F000AF919F918F917F916F915F914F913F9170
:105100002F910F900FBE0F901F901895AAE2B0E05C
:10511000EBE8F8E29AC182E094E02091F100FC0112
:105120002193CF01F4E08A309F07B9F77EDB8091AD
:10513000E80083FF16C180910204909103049A3025
:1051400008F00FC1E92FF0E0EC51F54D69C180384E
:1051500099F0823809F005C1809106048F7087307C
:1051600008F0FFC08093E9008091EB0085FB882761
:1051700080F91092E90006C08091FE039091FF0330
:10518000911182609091E800977F9093E80080935E
:10519000F1001092F1008091E8008E77DFC0882343
:1051A00009F4CDC0823009F0DCC080910404811183
:1051B000D0C0809106048F702FEF280F263008F0A2
:1051C000D0C08093E9002091EB0020FFC2C0933053
:1051D00031F48091EB0080628093EB00BAC0909133
:1051E000EB0090619093EB0021E030E001C0220FD2
:1051F0008A95EAF72093EA001092EA008091EB008A
:105200008860EACF8111ADC0109104041F778091AE
:10521000E3008078812B8093E3008091E800877F12
:105220008093E8009EDD8091E80080FFFCCF8091B4
:10523000E30080688093E30082E0111183E08093B3
:1052400001048FC08058823008F08BC08091040424
:10525000909105048C3D23E0920799F583E08A83C1
:105260008AE289834FB7F894DE01139620E03EE08E
:1052700051E2E32FF0E050935700E49120FF03C088
:10528000E295EF703F5FEF708E2F90E0EA30B8F05C
:10529000C7968D939D932F5F243159F74FBF80910F
:1052A000E800877F8093E8006AE270E0CE01019613
:1052B00067DC8091E8008B778093E80052C0C0964D
:1052C000E8CF6091060470910704AE014F5F5F4F15
:1052D00096DBBC01892B09F444C09091E800977FCC
:1052E0009093E80089819A81A9DCE3CF8038C9F5E1
:1052F0008091E800877F8093E8008091FD03809390
:10530000F10049CF81112DC090910404923048F5ED
:105310008091E800877F8093E8009093FD0321DD72
:105320008091FD03882311F084E005C08091E300A3
:1053300087FDFACF81E08093010466DA12C0809184
:105340000404813071F481E0933009F080E08093AF
:10535000FF031092E9008091E800877F8093E800C6
:1053600000DD8091E80083FF0AC08091E800877F1C
:105370008093E8008091EB0080628093EB00AA9616
:10538000E3E07FC00895CF9380910104882399F0D2
:10539000C091E900CF709091EC00892F817090FD51
:1053A00080E8C82B1092E9008091E80083FDAEDE12
:1053B000CF70C093E900CF91089523DD10920104CE
:1053C0000895E8EDF0E08081806180838AE18A952C
:1053D000F1F700C08091D90081700895A1E21A2EE2
:1053E000AA1BBB1BFD010DC0AA1FBB1FEE1FFF1F89
:1053F000A217B307E407F50720F0A21BB30BE40BD9
:10540000F50B661F771F881F991F1A9469F760951F
:105410007095809590959B01AC01BD01CF010895D9
:10542000EE0FFF1F0590F491E02D09942F923F920B
:105430004F925F926F927F928F929F92AF92BF92A4
:10544000CF92DF92EF92FF920F931F93CF93DF9350
:10545000CDB7DEB7CA1BDB0B0FB6F894DEBF0FBEAD
:10546000CDBF09942A88398848885F846E847D84FA
:105470008C849B84AA84B984C884DF80EE80FD80FC
:105480000C811B81AA81B981CE0FD11D0FB6F89472
:10549000DEBF0FBECDBFED010895FB01DC0104C0EE
:1054A0008D910190801921F441505040C8F7881B1C
:1054B000990B0895FB01DC0102C001900D9241504F
:1054C0005040D8F70895F999FECF92BD81BDF89A62
:1054D000992780B50895A8E1B0E042E050E02FC0E0
:1054E000DC01A40FB51F4150504040F0CB01840FA8
:1054F000951F2E9105D041505040D8F70895262F82
:10550000F999FECF92BD81BDF89A019700B40216B9
:1055100039F01FBA20BD0FB6F894FA9AF99A0FBE67
:1055200008950396272FECDFEADF252FE9DF242FEC
:10553000E7CF0196272FE4DFE2CFDC01CB01FC01AE
:10554000F999FECF06C0F2BDE1BDF89A319600B4DC
:105550000D9241505040B8F70895F894FFCF590785
:1055600059079B079B07F4078107810781071008EC
:10557000790885088508751BE91B7D1B471B4B1B9C
:10558000811B4F1B851B911B5B1BE21B5F1B951B2C
:10559000631B991BC11B671B9D1BC81B6D1BA31B9A
:1055A000AB1B531B891B571B8D1B711BA71BB71BE9
:1055B000D11BE01B411B791BF01BEC1DF21DDC1DF8
:1055C000E61DF81DFE1D041EA728CF28B129CF28EF
:0C55D000B12902292229B129762982295B
:1055DC005002737C0000004A02737C000000000043
:1055EC0000000000561E671E6C1E00008E0100009D
:1055FC000000000000003602000000000000000067
:10560C000000000000005502000000000000000037
:10561C0000000000561E671E6C1E00008A01000070
:10562C0000000000561E671E6C1E00008601000064
:10563C0000000000561E671E6C1E00008201000058
:10564C0000000000561E671E6C1E00007E01380014
:10565C0031003600300010002F00130034003502EA
:10566C003500FF00AA00EF020F030100000001004B
:10567C000000000000000401000000040500000010
:10568C000000000100000100E320CE23C923A02369
:10569C00C423E200E900EA00B500B600B700CD0073
:1056AC008301CC008A01920194012102230224027D
:1056BC002502260227022A02B300B4006F007000F4
:1056CC009F01CB019F02A002818283E200E900EAE4
:1056DC0000B500B600B700CD008301CC008A019262
:1056EC000194012102230224022502260227022A08
:1056FC0002B300B4006F0070009F01CB019F02A0A9
:10570C000281828331F7F6F5F4946697C63503006F
:00000001FF
