:1000000034C200004FC200004DC200000C94012217
:1000100049C2000047C2000045C2000043C20000C0
:1000200041C200003FC200000C94E7260C94B427A4
:100030000C94862037C2000035C2000033C2000095
:1000400031C200002FC200002DC200002BC20000F0
:1000500029C200000C94282125C2000023C2000000
:1000600021C200001FC200001DC200001BC2000010
:1000700019C2000017C2000015C2000013C2000020
:1000800011C200000FC200000DC200000BC2000030
:1000900009C2000007C2000005C2000003C2000040
:1000A00001C20000FFC10000FDC1000000000A0005
:1000B0000900180013003600000012000424082272
:1000C0000C281C00000014001B001D003700340029
:1000D000000000000000000029422C2100000F0059
:1000E0000B00100006000500000015001134173247
:1000F0001638070000000D000E0019001A0033002A
:1001000000000000000000002A4328310000140015
:100110001A0008001500170000000400160007224E
:1001200009000A0000001D001B0006001900050060
:10013000000000000000000029422C0000000357CE
:1001400012000C0018001C00000033000F000E32DB
:100150000D000B000000065737000557045711002B
:1001600000000000000000002A4328000000417E3B
:10017000427E437E447E2A0800002B022B00E100D1
:10018000E3002A040000457E467E477E487E4C04FC
:1001900000000000000000000000000000004F12FE
:1001A000521251125012501A00004F0052005100CA
:1001B0005000501800004F1452145114501450168F
:1001C0000000000000000000407E2C0F00001E0216
:1001D0001F02200221022202000059005A005B0087
:1001E0005C005D0000002F02300201572E00005716
:1001F00000000000000000002D0204520000380240
:1002000025023102240202570000620061006000F2
:100210005F005E0000002702260230002F00380039
:100220000000000000000000000000000000497E07
:100230000000220A210A210B0000000000004700F4
:100240004800060800005000510052004F001908F5
:1002500000000000000000004A7E2C0000000000AA
:100260000000A800AE0029000000BB00A900AA0001
:10027000BC002A0000004F00520051005000000056
:1002800000000000000000004A7E280007220E3215
:1002900000000822173200000000000000000000EB
:1002A0002A2B2800000000000000000000000000D1
:1002B00000000029000000002C1E342021222434DC
:1002C0002627252E362D3738271E1F2021222324AE
:1002D00025263333362E37381F0405060708090A4A
:1002E0000B0C0D0E0F101112131415161718191AE6
:1002F0001B1C1D2F3130232D350405060708090A64
:100300000B0C0D0E0F101112131415161718191AC5
:100310001B1C1D2F3130354C000000000000000078
:1003200000000000000000000000000000000000CD
:100330000000000000000000000000007E0F00D45C
:10034000FFFFFFC7000000780C0343006F0072003E
:100350006E0065000000100366006F006F00730000
:10036000740061006E0000000403090409023B00F0
:10037000020100A0FA0904000001030101000921A3
:10038000110100012244000705810308000109044E
:1003900001000103000000092111010001226D008C
:1003A000070582032000011201000200000008532B
:1003B00046010001000102000105010980A101853B
:1003C0000319012AB700150126B7009501751081A0
:1003D00000C0050C0901A101850419012AA002151C
:1003E0000126A002950175108100C005010906A132
:1003F000018506050719E029E7150025019508750F
:100400000181020507190029EF1500250195F075F6
:1004100001810205081901290595057501910295CB
:100420000175039101C005010906A101050719E045
:1004300029E71500250195087501810295017508C8
:1004400081010507190029FF150026FF0095067593
:100450000881000508190129051500250195057574
:10046000019102950175039101C011241FBECFEFC8
:10047000DAE0DEBFCDBF12E0A0E0B1E0EEEBF4E5E4
:1004800002C005900D92A035B107D9F724E0A0E590
:10049000B2E001C01D92A032B207E1F70E94171628
:1004A0000C941E2AADCD80915502882321F0109224
:1004B00055028AEA3AD480915402882321F010929E
:1004C000540288E832C40895CF93FB01C581CC2340
:1004D00009F4AAC021E020935302209352028434ED
:1004E000FEE79F0709F479C0E0F48034EEE79E0749
:1004F00009F44AC058F4893222E4920709F44EC044
:100500008A32934409F45DC0C1E04AC08234FEE7F8
:100510009F0709F45EC008F457C083E301D48BE25F
:1005200056C08734EEE79E0709F470C0E0F48534C6
:100530002EE7920709F453C086349E4729F7C091ED
:100540005402C11160C080915502882321F010929D
:1005500055020E94730D88E8E3D38BE2DAD381E081
:10056000809354021DC08934FEE79F0709F456C0EA
:1005700008F450C08A349E4739F684E06CD688234C
:1005800059F084E086D608C083E090E03CD68FEF37
:10059000C7D38CE245D3DCD5C0E002C01092530231
:1005A0008C2FCF9108957FDF80915302882309F427
:1005B000ABCF82E050D6882309F4A6CF82E069D67B
:1005C000EFCF10925202ECCF88E8AAD38FE228D363
:1005D000E3CF88E8A5D380E3FACF81E19FCFC09134
:1005E0005502C11110C080915402882321F010924D
:1005F00054020E94730D8AEA93D38BE28AD381E07E
:1006000080935502CDCF8BE284D3C6CF81E188D3CE
:1006100080E5DDCF81E184D38FE4D9CF8CEC80D32A
:100620008CE0D5CF95D5BCCF8434FEE79F0709F485
:10063000B2CFE8F48034EEE79E0709F4ADCF08F0BE
:10064000AACF893222E4920709F4ADCF8A329344CB
:1006500009F05ACF28DF80915202882309F454CF41
:1006600083E0F9D5882309F44FCF83E0A8CF8734FE
:10067000FEE79F0709F48FCF50F48534EEE79E071D
:1006800009F48ACF86349E4709F486CF3DCF89345A
:100690002EE7920739F208F47ECF8A349E4709F498
:1006A0006CCF32CF8530B8F46830A8F4463098F477
:1006B00050E096E0699F400D511D1124FA0190E32E
:1006C000899FE00DF11D1124EE0FFF1FE455FF4F30
:1006D00085919491089581E090E00895E3CF089585
:1006E00082E090E008958230910550F447E0489F01
:1006F0009001499F300D1124C90180509F4F0895EA
:1007000090E080E00895EFCF089587E090E00895AD
:100710008730910540F424E0880F991F2A95E1F76E
:10072000825F9E4F089590E080E00895F1CF089594
:100730009C013A9521153F4150F5FC01EE27F170DF
:10074000BC0166277270AC01442754709C012227BB
:10075000387094FF0EC080E1EF2B09F480E0672B26
:1007600009F08062452B09F08064232B89F08068B2
:10077000089581E0EF2B09F480E0672B09F0826097
:10078000452B09F08460232B19F08860089580E0E0
:100790000895CF93DF93EB01CBDFFE010995DF9145
:1007A000CF910895CF93DF93EC01805E9109089774
:1007B00020F061E978E0209711F460E976E0CE015D
:1007C000E8DF8C2F2DD2DF91CF910895CF93DF9367
:1007D000EC0163D2CE01805E9109089720F066E9B2
:1007E00078E0209711F465E976E0CE01D2DFDF9161
:1007F000CF91089581E00895FDCF089581E0089597
:1008000063CE08950895FECF0895A6E0B0E0EBE032
:10081000F4E00C94962949835A839E8330916202B6
:1008200089819A81311117C03E81332389F02223B7
:1008300079F0D8D5182F682F89819A81B2D569812E
:100840007A81812F0E94F5102696E3E00C94B2295C
:10085000B9D5182FF4CFC6D569817A81F3CFFC01C1
:10086000262F87819085009739F4408151816281DC
:10087000738184819581C9CF0895CF93DF93EC0173
:1008800061E0EDDFBE01B8DF882351F061E0CE0109
:10089000E6DFBE010E94D3188170DF91CF910895E9
:1008A00080E0FACFCF93DF93EC0160E0D8DFBE01A8
:1008B000AADFDF91CF91089521E030E0A90102C0C5
:1008C000440F551F8A95E2F7CA018DC4CF93C82FF4
:1008D00081E090E00C2E02C0880F991F0A94E2F785
:1008E0000E94870E8C2FE8DFCF91089581E0089554
:1008F000FDCF0895CF93C82F2BD48C2FF9DF2FEF86
:1009000084E39CE0215080409040E1F700C000006B
:10091000CF91089581E0EEDF0C944C2180E0EADF76
:100920000C945D210F931F93CF93DF938C0161E0B3
:1009300096DFEC01B8010E94F21D882321F061E0EE
:10094000C8018DDFEC01B801CE015ADF811106C06C
:1009500080E0DF91CF911F910F910895B801CE01F2
:100960000E9469168823A1F3B801CE010E94161EC9
:10097000882371F3B801CE010E94991A882341F3AC
:10098000B801CE010E94461D882311F3B801CE01A3
:100990000E94F31A8823E1F2B801CE010E94CB1A1B
:1009A0008823B1F2B801CE010E943312882381F26C
:1009B000F8018581882361F0C330FCE7DF07D9F0B7
:1009C00050F4C115ECE7DE07A1F0C130DC47A9F017
:1009D000C80114DFBECFCB358CE7D80799F0CC35F2
:1009E000ECE7DE0761F0CA35DC4791F70E94680E3C
:1009F000EFCF90DFADCF0E946C0E90DFA9CF0E94A9
:100A0000600EE6CF0E946A0EE3CF0E946720B2C05C
:100A1000B3D00C946B202F923F924F925F926F92C3
:100A20007F928F929F92AF92BF92CF92DF92EF927E
:100A3000FF920F93CF93DF931C0129013A016B01C1
:100A400081E0C81AD108E101CC0DDD1D1882F12C1E
:100A5000E12C8AE0882E912CA12CB12CEC14FD0401
:100A600098F0C101DF91CF910F91FF90EF90DF904F
:100A7000CF90BF90AF909F908F907F906F905F903E
:100A80004F903F902F900895C301B201A5019401AA
:100A90000E945F29605D603319F4E114F10431F0C4
:100AA000411451046104710409F4602F6A93C30175
:100AB000B201A50194010E945F2929013A018FEF3B
:100AC000E81AF80ACBCF0F9320919A0130919B013D
:100AD0002817390721F420915C02261789F090939A
:100AE0009B0180939A0160935C029C0150E040E07E
:100AF000062F66E070E086E592E08DDF0F910895A5
:100B000086E592E0FBCF292F332740E02115310500
:100B100011F0C90148E09C0164E0369527956A957B
:100B2000E1F72115310511F04C5FC9019C013695A3
:100B30002795369527952115310511F04E5FC9018E
:100B400096958795892B09F04F5F842F089581E052
:100B500008950895CF93DF93D82FF9DFC82F882306
:100B600011F08D2FF6DF8C2FDF91CF91089508952E
:100B7000F1CF089580E0FCCF0E949E1EF9CFCF9365
:100B80000E949E1EC82F80915D028C1771F0C09349
:100B90005D020E94F12060935E0270935F02809379
:100BA0006002909361028C2FE3DFCF910895AFE054
:100BB000B0E0EDEDF5E00C9495294A875B876C87F2
:100BC0007D878E879F879111A1D71F8218861986EE
:100BD00086E0FE013A96DE01119601900D928A950B
:100BE000E1F78D8181110EC009811A812B813C8131
:100BF0004D815E816F8178858985CED62F96E4E020
:100C00000C94B129CE01019638DE8111EDCFF6CFDB
:100C1000FC012481213019F48081918114C408954C
:100C2000CF93C82F882389F08CEF8C0F813A78F40A
:100C30008C2F0E94361F882321F08C2F0E94D81FF2
:100C4000F3D78C2F0E94C11FEFD7CF91089580E278
:100C50008C0F883040F4C77081E001C0880FCA95BE
:100C6000EAF734D7F1CFEBE5EC0FE33040F4F0E0F6
:100C7000E85FFD4F808190E00E94CB1EE6CFC85A0E
:100C8000CB3118F7EC2FF0E0EE0FFF1FEE52FE4FC6
:100C9000808191810E94F01ED8CF882319F19CEFAA
:100CA000980F913A18F40E94D81FBEC790E2980F8F
:100CB000983048F4877091E001C0990F8A95EAF75F
:100CC000892F0AD7F2CF9BE5980F933020F490E05C
:100CD00080E00C94CB1E885A8B3120F490E080E0A9
:100CE0000C94F01E08951F93CF93DF93182FEB0100
:100CF00097DF209731F4812FD0DFDF91CF911F91C3
:100D000008958FE99FE00197F1F700C00000219757
:100D1000F0CF70E060E0893311F460E570E0E3CF7C
:100D2000882311F0D3D680C70895882311F0D4D634
:100D30007BC70895B0E0A0E0E0EAF6E00C949029CB
:100D40006C01D62FC72FFC011581068102950F700B
:100D5000B3D6E82E8823E9F0E12E1123D1F08C2FB1
:100D6000807F803461F080E28D0F8830F8F08C2F26
:100D7000807E803221F4D230C8F00023B9F0809117
:100D8000F80382FF13C082E073D796D691E0E82E75
:100D9000E926BC2EB2949FE0B922FBE0FB1580F15E
:100DA000EB2DF0E0E05EF54D0C948129E12CF1CFC4
:100DB0000C2F0F70C07F11F00295007F112381F07E
:100DC000002349F080E28D0F883010F0D11105C06A
:100DD000802F7CD629D78D2F4CC0802F8AD6FACF72
:100DE0008D2F5BDF002361F080E28D0F883010F0E3
:100DF000D11103C0802F70D602C0802F80D614D7A7
:100E0000EB2DE850FF0B349718F40E949E1EB0DEC5
:100E1000EE2059F04DD680FD08C0F601158242D66D
:100E20002AD2C60160D13ED634D2CDB7DEB7E9E0D2
:100E30000C94AC292C2F2F70F22EC07FC03219F0E9
:100E4000F29480EFF822DD2341F0D13089F11123B3
:100E500009F439C00023D1F0BECF8091F80382FDA0
:100E600011C0112341F0FF2019F08F2D2FD6DCD6B1
:100E700080E0D6DEC5CF80E010DFFF2009F4C0CFD0
:100E80008F2DB9CF112359F0011103C08F2D48DFE9
:100E9000B7CF013009F0B4CF8F2D4FD6B1CF0111AC
:100EA000AFCF8F2D42DF8F2D53D68F2D38D6A8CFC1
:100EB000112321F0023008F0A3CFE8CF0111A0CF19
:100EC0008F2D33DF9DCF0023D9F3D93349F43FEF82
:100ED00087EE93E0315080409040E1F700C0000081
:100EE0008D2FDBDE8DCF8C2F86958695837069F0F4
:100EF000813009F085CF8D2F9C2F9370111102C086
:100F000080E090E00E94F01E7BCF8D2F9C2F93708D
:100F1000111102C080E090E00E94CB1E71CF8C2F97
:100F2000837081F511116CCF4D2F42954695477016
:100F3000440F440F2D2F2F7030E0042E02C0220FDB
:100F4000331F0A94E2F790E080E0D4FF09C08FE0FD
:100F500090E002C0880F991F4A95E2F7809590951E
:100F6000C695C695C370822B932BC23039F040F4DE
:100F7000C13011F041D144CF38D142CF44D140CF1C
:100F800032D13ECF8695112311F08C2F81708823AA
:100F900009F436CF4D2F429546954770440F440FC4
:100FA0002D2F2F7030E0042E02C0220F331F0A9421
:100FB000E2F790E080E0D4FF09C08FE090E002C04B
:100FC000880F991F4A95E2F780959095C695C6952A
:100FD000C370822B932BC23039F040F4C13011F032
:100FE0007DD10ECF74D10CCF80D10ACF17D108CFCD
:100FF000CF70112321F08C2F3ED18D2F48CF8D2F14
:1010000094DE8C2F46D1FCCED23F31F160F4D03F3C
:10101000B9F0D13F81F0112309F43BC00111DBCEBF
:101020008C2F8F711DC0D33FE9F0D43FA1F7809181
:10103000F80382FD1FC08C2F8F71112319F310C08C
:10104000112331F00111DCCE8C2F8F7132D1D8CE2B
:10105000023008F0D5CEF8CF8C2F8F711111D2CF7E
:101060000AD1CECE112321F08C2F8F71FAD0C8CEA9
:10107000DBD0C6CE112329F063E08C2F8F71E1D530
:10108000BFCE81E0F5D5023008F4BACE82E0F0D5CB
:10109000B7CE002359F0D93309F022CFEFEFF7EEA6
:1010A00023E0E150F0402040E1F718CF8C2F8F7102
:1010B000A9CF0F931F93CF93DF93EC018F81988576
:1010C000009761F07CD78C0117D18CD0B801CE018C
:1010D00031DEDF91CF911F910F9108956881798161
:1010E0008D81BAD1F0CFCF93DF93EC018C8188232F
:1010F00081F0CE0117DC81110FC0DED4882349F0C6
:101100008D81882331F08091F80382FF02C082E054
:10111000AFD5DF91CF910895CE01CBDFCE01C2DBF9
:10112000F8CF882311F0E5D47FC50895882311F006
:10113000E6D47AC5089590E080E00E94CB1E90E04E
:1011400080E00E94F01EE2D46FC50E94EF1FF3CF33
:10115000CAD4FBCF92959F70963091F058F4925F6D
:101160009F70923058F4803F19F030F4883E30F48C
:1011700081E008959A5FF4CF843FD1F380E0089531
:10118000883EB0F3813FD1F7F3CFFC0184818823FF
:1011900051F087819085009711F011D7DBCF8081C6
:1011A000918151D1FBCF80E00895A6E0B0E0EBED56
:1011B000F8E00C9497292696E2E00C94B329A9E074
:1011C000B0E0E5EEF8E00C9495292996E4E00C9463
:1011D000B1290895FECF0895FDDF90937E0280939C
:1011E0007D0208950895F8CF089520917D023091F1
:1011F0007E02822B932BF0CF20917D0230917E02D4
:1012000082239323E9CF20917D0230917E028227B1
:101210009327E2CFDECF0895FDCF0895FDDF9093B1
:101220007C0280937B02089590E080E0F7CF0097E6
:1012300029F481E0662371F080E00CC021E030E009
:1012400002C0220F331F6A95E2F72823392381E079
:10125000232B91F30895682F80917B0290917C025B
:10126000E6CF21E030E0A90102C0440F551F8A9566
:10127000E2F7CA01D3CF21E030E002C0220F331FD2
:101280008A95E2F780917B0290917C02822B932BCE
:10129000C5CF21E030E002C0220F331F8A95E2F76C
:1012A0002095309580917B0290917C02822393233C
:1012B000B5CF21E030E002C0220F331F8A95E2F75C
:1012C00080917B0290917C0282279327A7CF209167
:1012D0007B0230917C02822B932BA0CF20917B024A
:1012E00030917C028223932399CF20917B0230910D
:1012F0007C028227932792CF0895262F277091E0B2
:1013000001C0990F2A95EAF723E0769567952A950B
:10131000E1F7660F771F660F771FFA01E60FF71FD9
:1013200050E040E0682F70E08191DF0111979B0150
:10133000042E02C0369527950A94E2F72170219574
:101340002827292328272C934F5F5F4F44305105CE
:1013500059F70895A82FA77023E0969587952A95A9
:10136000E1F7880F991F880F991FFB01E80FF91FFC
:1013700050E040E080E0219130E00A2E02C0369536
:1013800027950A94E2F721703327042E01C0220F1B
:101390000A94EAF7822B4F5F5F4F4430510559F7AB
:1013A0000895262F983068F4863058F4682F70E03E
:1013B00086E0989F600D711D112443E652E0822F54
:1013C0009CCF0895292F983058F4863048F490E047
:1013D00063E672E036E0239F800D911D1124BACFA1
:1013E00080E00895B0E0A0E0E8EFF9E00C949029E7
:1013F0007C0100917B0210917C0280917D02909192
:101400007E02082B192BCFE0D0E0CC24C394D12C42
:10141000BC2EC6010C2E02C0880F991F0A94E2F759
:1014200080239123892B49F4219790F7B12C8B2DA0
:10143000CDB7DEB7E9E00C94AC29B7018C2FE0D62C
:10144000019791F3F4CFCF93DF93EC01CBDFBE0193
:10145000D7D6DF91CF9108951F93CF93DF93EB0100
:1014600090916202992331F0CB01EDDFDF91CF91B2
:101470001F910895882351F0CB01B4DF182F682FF6
:10148000CE018FDFBE01812FBBD6F0CFCB019ADF1B
:10149000182FF8CFFF920F931F93CF93DF93C09134
:1014A0007F0289E0F82E809180028C1305C0CDB7B1
:1014B000DEB7E5E00C94B029D0E0FC9EF001FD9E83
:1014C000F00D1124EF57FD4F0081118122813381EE
:1014D0004481558166817781808571DE2196C77050
:1014E000E2CF0F931F930091C9021091CA0220917D
:1014F000CB023091CC024091CD025091CE0260914E
:10150000CF027091D0028091D10259DE1F910F91CC
:1015100008950F931F93CF93DF938091CF02807F25
:1015200009F04FC08091CE02882309F44AC0E091AF
:101530007F02D09180021091CA020091C9024091AD
:10154000CB025091CC0260919C0170919D01C9E049
:10155000DE17B9F18E2F90E0EC9FF0011124EF57C8
:10156000FD4F2481222391F1C89FF001C99FF00D06
:101570001124DF01AF57BD4F11962C911197211304
:1015800025C02C91201322C015962C91159721115E
:101590001DC012962D913C91241B350B2617370741
:1015A000A8F48091CF028F7080618093CF02E957B9
:1015B000FD4F80818F708061808389EC92E093DDA4
:1015C00069DFDF91CF911F910F910895FC01319652
:1015D000E770BECF482F20917F029091800259E0A2
:1015E000291302C080E0089530E0529FF001539F1C
:1015F000F00D1124EF57FD4F8181681306C08081E3
:10160000481303C085818111EECF2F5F3F4F2770B4
:10161000E7CFA8E1B0E0EFE0FBE00C948D298C016E
:1016200086E0F801DE01539601900D928A95E1F76C
:10163000D80114968C9114971596EC90159799EC07
:10164000A92E92E0B92E9091CD0291111AC0882353
:10165000A9F0EE2089F0C80198DDF82E882361F00A
:1016600089E0F801D50101900D928A95E1F7C50155
:10167000CFDA4FDF36DF48C0C80135DDFF24F394F1
:1016800043C0F801C080D18082809380F090CE0268
:101690002091CB023091CC02A401421B530B9A0142
:1016A00040919C0150919D01FF2009F41EC1241717
:1016B000350708F0C0C0882339F19091CA028091A3
:1016C000CF02282F207F09F069C09D1122C0909180
:1016D000C902C9121EC04091D0025091D102278187
:1016E000308542175307A9F4E11052C08F70806112
:1016F0008093CF02F6DE89EC92E0F5DC8091CF0298
:10170000D80116968C93F12C8F2D6896ECE00C94F2
:10171000A929E1103DC06D2D8C2D5CDFE82E8823BA
:1017200061F089EC92E0DFDC89E0E9ECF2E0DF01D6
:101730001D928A95E9F7D5DEE6CFCB8ADC8A8B89C4
:101740009C8981DE292F22952F70243058F49F70B8
:10175000223080F0992391F0F8019681907F71F406
:10176000FE2CD2CF2A5F2F70223060F0C801BBDC84
:10177000EF2CF6CF992311F0882391F3805E883007
:1017800078F3F4CF803F60F3815F833078F7E8CF60
:101790008091CF0281608093CF02B5CF9D111EC092
:1017A0009091C902C9121AC04091D0025091D10241
:1017B00017962D913C9118974217530779F4E11031
:1017C0000DC016968C93C8018EDC89E0F801A9EC57
:1017D000B2E001900D928A95E1F74CCFC801D5DCBB
:1017E000882309F449CFEE2009F446CF8091CF0237
:1017F0008032B0F02091C9023091CA023B872A871B
:101800009D868C869091CD029E871F86888B8091C5
:10181000D0029091D1029A8B898BCE010A9663DC1B
:1018200089E0F801A9ECB2E001900D928A95E1F708
:1018300070DE57DE23CF9091CF02292F207F81F4D5
:10184000682D9E8A8D8AA6017E899E2DAEDC89EC4C
:1018500092E049DC89E0F50111928A95E9F76BCFB6
:10186000882309F451CF8091CA028D111BC0809149
:10187000C902C81217C04091D0025091D1021796E8
:101880002D913C9118974217530761F4E1100AC05B
:1018900016969C93C80127DC89E0F50111928A9580
:1018A000E9F732CFC80171DC882309F4E5CEEE20D8
:1018B00009F4E2CE8091CF02803208F4B1CF2091BA
:1018C000C9023091CA023A8329839C828B8290910B
:1018D000CD029D831E828F838091D0029091D10290
:1018E00099878887CE0101969ACF2417350708F08B
:1018F00046C0882309F4C2CEFE2CEE2009F4BCCEEB
:101900008091CA028D112FC08091C902C8122BC0CC
:101910004091D0025091D10217968D919C911897C9
:101920004817590701F52A3A3105A0F49091CF02E2
:1019300090FD10C0907F71F08091CF0216968C932D
:101940001697903F09F43FCF982F907F905F8F704C
:10195000892B37CF89E0F801A9ECB2E001900D9214
:101960008A95E1F7D1CEC80110DC811159CF809161
:10197000CF0281608093CF02C801B5DBC5CE682D50
:101980009E8A8D8AA6017E899E2D0FDC89E0F50155
:1019900011928A95E9F76ECEA2E1B0E0E2EDFCE0AB
:1019A0000C9494290A871B872C873D874E875F8775
:1019B000688B798B8A8BCE010A962BDE8823C1F047
:1019C0004E85442349F00A851B852C853D855F851E
:1019D000688979898A89F3DB89E0F82E80917F0212
:1019E0009091800289133BC06296E5E00C94B02987
:1019F00089E0FE013A96DE01119601900D928A95DA
:101A0000E1F78E85882341F32091800230E0C901FF
:101A100001968770992740917F024817190691F027
:101A200099E0929FD001939FB00D1124AF57BD4F05
:101A3000FE01319601900D929A95E1F78093800214
:101A400029DDCACF85DB1092800210927F0289E0E7
:101A5000E9ECF2E0DF011D928A95E9F7BDCF8F9D99
:101A6000C00111248F579D4FD4DD882309F4BCCFCA
:101A7000E0917F02FE9EF0011124EF57FD4F00819F
:101A800011812281338144815581668177818085EE
:101A900096DB80917F0290E0019687709927809372
:101AA0007F029CCF8091FA0286958695869508954F
:101AB0008091FA02877008959091FA02977081E000
:101AC00009F480E0089580912603089590912603FB
:101AD000892B80932603089580959091260398235F
:101AE000909326030895109226030895809125036C
:101AF000089590912503892B80932503089580955F
:101B0000909125039823909325030895109225031F
:101B100008958091FC0208950895FECF0895909154
:101B2000FB02292F282329F0809589238093FB022B
:101B3000F4CF08950895FECF08959091FC02292FC7
:101B40002823281721F0982B9093FC02F4CF0895B6
:101B50009091FC02292F282329F0809589238093D6
:101B6000FC02E9CF08958091FC02882321F01092B5
:101B7000FC0280E0E0CF0895CF93C09126038091CE
:101B80002503C82B8091FC02882329F0C82B0E94D2
:101B9000151F8111E8DF8C2FCF910895CF93DF932C
:101BA000C091A001D091A101E7DF8883C091A0017D
:101BB000D091A10148E050E062EF72E0CE010E94B6
:101BC000BE29892B59F088E0FE01A2EFB2E0019016
:101BD0000D928A95E1F7CE010E94B21EDF91CF915E
:101BE0000895CF93DF93C0919E01D0919F01C4DFF0
:101BF0008983C0919E01D0919F0140E250E062ED47
:101C000072E0CE010E94BE29892B59F080E2FE01CC
:101C1000A2EDB2E001900D928A95E1F7CE010E940B
:101C2000BD1EDF91CF9108950E944620813029F496
:101C30008091F70387FF01C0D4CFB0CF0895FECFC6
:101C400008959091F80392FF0EC098E0899F90014B
:101C50001124622B6093FA020EDB8091FA028695C2
:101C600086958695ECCF07CB1092FA0280E0E7CFFD
:101C70009091FA02809589238093FA02282F277089
:101C800059F4891749F09091F80392FF05C08695A1
:101C900086958695FEDAE8CF08959091F80392FB39
:101CA000222720F9281759F080FB92F99093F80326
:101CB0008091F7039091F80333D082E0D9CF089553
:101CC0008091F80382FB882780F991E08927E5CF8E
:101CD00081E0E3CF80E0E1CF6FEF7FEF90E080E045
:101CE0000C940A2A90E080E00E94DC2921E0853EE5
:101CF0009E4F09F020E0822F089582E090E00C943E
:101D0000D42983E090E00E94D42990E00895682FC0
:101D100083E090E00C94F02984E090E00C94DC29BE
:101D2000BC0184E090E00C940A2AAB01BC018FE076
:101D300090E00C94022AAB01BC0183E190E00C948A
:101D4000022A60E070E0CB01F6CF60E070E0CB01EA
:101D5000ECDFF7CFA8E0B0E0E0EBFEE00C949729D1
:101D600065EE7EEF90E080E00E940A2A60E082E06B
:101D700090E00E94F02981E090E090937E028093B1
:101D80007D02C5DF60E074E184E090E00E940A2AF1
:101D900060E086E090E00E94F02960E087E090E05B
:101DA0000E94F02940E050E0BA0188E090E00E94F3
:101DB000022A60E083E290E00E94F02960E08CE07B
:101DC00090E00E94F02960E08DE090E00E94F02910
:101DD00019821A821B821C821D821E821F82188613
:101DE00048E050E067E170E0CE0101960E94E129F1
:101DF00040E050E0BA018FE190E00E94022AA5DFA6
:101E00002896E2E00C94B329A5CF0895682F8EE0C0
:101E100090E00C94F029A6E0B0E0E1E1FFE00C9442
:101E200095290E94E5208C01809127039091280339
:101E30008017910781F019821A820E94E520682F8D
:101E400049815A81792F80E090E00E94D705109354
:101E50002803009327032696E4E00C94B129E8D2E6
:101E60006093350370933603809337039093380360
:101E70006093310370933203809333039093340360
:101E8000089508950895FDCF08950895FECF08950B
:101E900081E0089581E392E1DBD6F4DFF4CF99C4C9
:101EA000089508950895FDDFFDCF1CDF811101C065
:101EB000ABDF23DF809339032FDF9093F803809308
:101EC000F703E9D61EDF8FD980917B0290917C02C7
:101ED000A3C90E94DC2087D281D4D9D3E6DF0E9437
:101EE000B7050E94811A87D4D1CF73D4882329F0F3
:101EF0000E947B1E0E949418A5C70895A6E0B0E03A
:101F0000E4E8FFE00C948E29C3DF811108C083DF71
:101F1000ECDF0E94BF052696EBE00C94AA29D6D3ED
:101F200089E2A82E83E0B82E750110E0F701019137
:101F30007F01812FB0D21F5F183009F43DC0081710
:101F4000A9F38091390381FDACD2A9DFC82E10E03E
:101F500099249394812F9FD2082FF50181915F01DD
:101F6000081729F1D02ED826F12CEE24E3948D2DDC
:101F70008E21A9F0CC2099F0F9821A830E94E520E5
:101F80009C838B839D8291E0802F8E2109F490E0C9
:101F900049815A816B817C818D810E94D705F394A0
:101FA000EE0CF6E0FF12E3CFF501319700831F5FDF
:101FB000183081F654DFACCF0813C3CFA8CF1F93DE
:101FC000CF93DF931FD1EC01C11580E5D807F0F561
:101FD000C11580E4D80708F09AC0C03ED10520F5AD
:101FE000CD3CD10508F082C0C83AD10578F4C53A95
:101FF000D10508F073C0C130D10519F1209709F15E
:10200000C430D105F0F4D0E0C0E01BC0C33CD10522
:10201000D0F7C85AD0E0CC0FDD1FC55FDD4F099067
:10202000D881C02DD4640DC0C11580E2D80708F056
:10203000CCC0C11581E0D80708F05AC0C83ED10510
:1020400010F7CE01DF91CF911F910895C03682E540
:10205000D80718F5C03482E5D80708F068C0C03248
:1020600082E5D80708F05CC0C11582E5D80708F4FE
:1020700093C02C2F2695269580E2289F900111244D
:102080008C2F8370C1E0D0E002C0CC0FDD1F8A9599
:10209000E2F7C22BD32BDD68D4CFC03A82E5D80754
:1020A00060F4C03882E5D80708F456C0CF71D0E09C
:1020B000DC2FCC27C46FD06AC4CFC03C82E5D807E0
:1020C00008F45FC0C03E82E5D80708F09CCFDC2F43
:1020D000CC27CC27DF71C06FD06AB3CFC55AD0E010
:1020E000CF5BDD4FC881D0E0D064ABCFD065A9CF46
:1020F0008D2F2AD1182FCE01992784D0C12FD0E05F
:10210000DC2FCC27CC27DF71C82BD92B9ACFCE015F
:10211000992778D0CC27DF70C82BD92BD06A91CFE4
:10212000CF71D0E0DC2FCC27C16FD06A8ACF2C2FA3
:1021300026952695277080E2289F900111248C2FE8
:102140008370C1E0D0E002C0CC0FDD1F8A95E2F7BA
:10215000C22BD32BDC6875CF2C2F269526952770A4
:1021600080E2289F900111248C2F8370C1E0D0E081
:1021700002C0CC0FDD1F8A95E2F7C22BD32BDA68A1
:1021800060CF8C2F8F71E0D0C82FD0E0DC2FCC2710
:10219000CC27DF71D06255CF8C2F8F71D5D055E011
:1021A000D695C7955A95E1F7CF70D0E0DC2FCC27B4
:1021B000282F30E084FF05C044E0220F331F4A95EA
:1021C000E1F7C22BD32BD0693CCF8D2F8F71BCD0C0
:1021D000182FCE01992716D0C12FD0E0DC2FCC27A5
:1021E000CC27DF71C82BD92BD5CF462F783028F4D8
:1021F000663018F4672F0C946E0390E080E0089529
:10220000F4DFDDCE82389105B9F1B0F48133910568
:1022100009F47DC048F48932910509F46DC08A3211
:10222000910509F47BC008958533910509F45FC0D9
:102230008933910509F10895833E9105D9F138F468
:10224000803E910529F1823E910579F10895863EFF
:102250009105D9F1873E910509F43EC0843E910570
:1022600041F52091F80321FF24C08091F70384FDFC
:1022700019C087EE90E008952091F703237009F0CC
:102280005AC02091F80323FF14C089E290E008951A
:102290002091F70320FD38C03091F80330FF09C0CA
:1022A00024FF43C090E080E008952091F70322FDD1
:1022B000F7CF08952091F70322FD3AC03091F8033B
:1022C00030FD39C024FFF5CFEDCF2091F70323FF78
:1022D000F0CF24FDE7CFCDCF2091F70323FD2EC013
:1022E0003091F80331FFEECF84EE90E00895209115
:1022F000F70325FFDECFC9CF2091F70325FD21C0CD
:102300002091F80323FFD5CF89E390E0D2CF20912D
:10231000F70326FFCECF8AE290E008952091F703DD
:1023200026FFC7CF81E390E0089583EE90E0089503
:1023300082EE90E0089580EE90E0089586EE90E0C1
:10234000089585E390E008959091F70392FF10C0FF
:1023500041E0282F2471243009F040E031E0282F9B
:102360002871283009F030E0431711F02CE0822763
:1023700093FF10C041E0282F2471243109F040E080
:1023800031E0282F2871283109F030E0431711F08F
:102390002CE082273091F80330FF10C051E0282F45
:1023A0002171213009F050E041E0282F28712830B8
:1023B00009F040E0541711F029E0822731FF10C0E6
:1023C00041E0282F2171213109F040E031E0282F30
:1023D0002871283109F030E0431711F029E08227F5
:1023E00094FD877E08951092F9031092FA031092DB
:1023F000FB031092FC030895CF92DF92EF92FF92BD
:102400006B017C01E6D181110EC00E94F120C61A39
:10241000D70AE80AF90AC092F903D092FA03E092C7
:10242000FB03F092FC03FF90EF90DF90CF900895B4
:102430000F931F93CED1882329F00E94F1201F9182
:102440000F9108950E94F1200091F9031091FA0371
:102450002091FB033091FC03600F711F821F931FBB
:10246000EECF80E00895CF939C01205E3245C1E01D
:102470002032310538F4FB01C581C11103C08F71D1
:102480000E9466048C2FCF9108950895FECF089581
:102490000895FECF0895E82FF0E0EA5FFB4F8081BA
:1024A0000895089580EA8A95F1F7089500C0089587
:1024B000F9CF08950895FECF0895EF92FF921F93EC
:1024C000CF93DF9300D000D0CDB7DEB782D1182FE5
:1024D00060910E04882309F445C019821A821B8278
:1024E0001C82862F90E09E012F5F3F4F7901B9013A
:1024F0008A5F9B4F8CD18823E1F08091FD0390E0AF
:1025000044E050E0B7018A5F9B4F0E94BE2921E062
:1025100020933A03892BC1F410E0BBDF812F0F9089
:102520000F900F900F90DF91CF911F91FF90EF9040
:10253000089580913A03882379F384E0F70111929A
:102540008A95E9F710923A03E091FD03F0E0EA5F23
:10255000FB4F89819A81AB81BC8180839183A28367
:10256000B383DBCF70E06A5F7B4F8091FD0390E027
:102570008A5F9B4FD1D19FDFD1CFF894E82FE295AE
:10258000EF70F0E031A1282F2F7081E090E001C0C2
:10259000880F2A95EAF7982F9095932391A392A1FB
:1025A000892B82A378940895CF93DF9384E9E5DFA4
:1025B00086E6E3DF87E9E1DF86ECDFDFC4E4D2E033
:1025C00089918F3F09F0D9DF82E0CA34D807C1F77B
:1025D000DF91CF910895B0E0A0E0E1EFF2E10C943B
:1025E0009129EC01D62E062F10E0C801865B9D4F85
:1025F0007C01FC0180818F3F09F442C0F894E82FF0
:10260000E295EF70F0E091A18F7021E030E001C021
:10261000220F8A95EAF7892F822B81A382A1209528
:10262000282322A3789442DFE4E4F2E04AE452E073
:1026300031E0C12C21912F3F41F1A22FA295AF7023
:10264000B0E090968C9190E02F7002C095958795A0
:102650002A95E2F780FD19C0832FC82A330F4E1741
:102660005F0741F7F70180818F3F09F086DF61E066
:10267000C11001C060E08D2D1BDFC00FD11FC882CB
:10268000CDB7DEB7E8E00C94AD2980E0E6CF8091CD
:10269000A2018091A20194E0811190E090930E0438
:1026A00084E0891B8093FD037FDF88E0E6E0F4E0AF
:1026B000DF01982F1D929A95E9F7EEEFF3E0DF0125
:1026C0001D928A95E9F784E03CD0E0CEA8E0B0E026
:1026D000ECE6F3E10C9494298E010F5F1F4F88E024
:1026E000F80111928A95E9F7F12C6F2DC80173DF7B
:1026F000F394F4E0FF12F9CF48E050E0B8018EEF18
:1027000093E00E94BE2921E0009709F420E0892B84
:1027100041F088E0F801AEEFB3E001900D928A95A8
:10272000E1F760910E0470E06A5F7B4F44E08EEF4A
:1027300093E008D0182FC1DE812B2896E5E00C9499
:10274000B0290895B0E0A0E0E8EAF3E10C94912903
:102750006C017B01042FC22F222379F081E080934A
:102760003D030E94E52090933C0380933B0380E06F
:10277000CDB7DEB7E8E00C94AD29D0913D03DD2361
:10278000B1F380913B0390913C030E94FD2005979B
:1027900070F310E0A801B601C7010E94BE29892B81
:1027A00031F0A801B601C7010E94CB29CD2F1092AC
:1027B0003D038C2FDDCFCF930E945229C82F81116A
:1027C00002C00E944E298C2FCF9108958091410321
:1027D0000895809140030895FCCF0895ECDF809325
:1027E0004003FADF80934103F1DF8093A201F1DF20
:1027F000811142C00895EDDF811101C040C00895EC
:1028000081E0909142039A3008F080E008950F93A0
:102810001F93CF93DF93EC018B01809142038A30A9
:10282000B0F4B801CE0176D0C82F811122C08091BA
:1028300042038F3FB9F40E94E52090933F038093B9
:102840003E038C2FDF91CF911F910F9108958091BE
:102850003E0390913F030E94FD20843F914008F782
:10286000C0E0EFCF8F5F809342038A3020F7C1E052
:10287000E8CF10924203E5CF0C94BE2108950C944A
:10288000C1210895B0E0A0E0E8E4F4E10C949229BD
:102890007901C82F880FDD0B41155105A9F0FE0104
:1028A00093E0EE0FFF1F9A95E1F7ED55FE4F818102
:1028B00092818D5B9C4F208130E04217530708F4D2
:1028C0009A01A9010E94CB29CE010E94A122D82EF3
:1028D0008823D1F001151105B9F083E0CC0FDD1F7D
:1028E0008A95E1F7FE01ED55FE4F438150E0041754
:1028F000150708F4A801CD55DE4F6C817D816D5B15
:102900007C4FC7010E94CB298D2DCDB7DEB7E7E004
:102910000C94AE292FC108954BC10895A4E0B0E0F6
:10292000E4E9F4E10C9495296091600370916103EE
:1029300080916203909163030E940C2111E0643640
:1029400071058105910508F173DD6E5F7F4F8F4F33
:102950009F4F69837A838B839C8310E000E030E093
:1029600020E044E050E0BE016F5F7F4F83E08ADFEC
:10297000182F882351F00E94F12060936003709318
:1029800061038093620390936303812F2496E4E0B4
:102990000C94B129B0E0A0E0E0EDF4E10C948F29B3
:1029A0007C015B016A012CDF01E010E0882311F05B
:1029B0000AE010E0C1E0D0E0B501C701F6010995D9
:1029C000811104C021960C171D072CF4CDB7DEB77A
:1029D000EAE00C94AB29CC9F9001CD9F300D300DD7
:1029E000112490E080E045E34A95F1F7000001965C
:1029F00082179307C1F7E0CF0F931F93CF93DF9315
:102A0000EC0160914E0270914F026B5F7F4F44E08A
:102A100050E00E94BE298C0160915C0370915D03BF
:102A200080915E0390915F030E940C2164367105D2
:102A30008105910510F4012BE1F010E000E030E099
:102A400020E044E050E0BE0182E01CDFC82F882374
:102A500051F00E94F12060935C0370935D038093BA
:102A60005E0390935F038C2FDF91CF911F910F91A5
:102A70000895C1E0F8CFA5E0B0E0E1E4F5E10C9401
:102A80008F295B01E0904E02F0904F0201E010E0D0
:102A90009E012B5F3F4F50E040E070E060E080E03F
:102AA000F1DE182F882309F448C067018FEFC81A98
:102AB000D80A609158037091590380915A039091FC
:102AC0005B030E940C21643671058105910570F14C
:102AD00004E010E09E012F5F3F4F50E040E070E0C7
:102AE00060E081E0CFDEF82E64E070E0C6010AD538
:102AF00011E09D81981310E01F2151F10E94F120F7
:102B0000609358037093590380935A0390935B0327
:102B100089819A81AB81BC81809354039093550342
:102B2000A0935603B093570311E012C064E070E025
:102B3000C601E8D49D818913CBCFF70181819281B1
:102B4000A381B48189839A83AB83BC831111E0CFC5
:102B50008091540390915503A0915603B09157036F
:102B6000F50180839183A283B383812F2596EAE0C8
:102B70000C94AB290F931F93CF93DF93EC018B0140
:102B80004BE355E107DF811106C080E0DF91CF9173
:102B90001F910F9108954CEF54E1B801CE01FADE78
:102BA000882399F34EE854E1B801CE01F3DEEECF6D
:102BB0000F931F93CF93DF938C01C0914E02D0915E
:102BC0004F02CE01019624E0FB01DC0101900D9241
:102BD0002A95E1F764E070E095D48883FE0135968C
:102BE00084E0D80101900D928A95E1F769857A8594
:102BF0008B859C85009150031091510320915203C5
:102C000030915303601771078207930749F060936F
:102C10005003709351038093520390935303ECDB62
:102C2000DF91CF911F910F91089568C908950E9477
:102C30007F200E9435242ED90E944D244AD90E941B
:102C400056240E945924F1DF0E946F242CD9F9CF19
:102C5000909351028093500208953EC80895B6DDC6
:102C6000811105C084E017DC86958170089580E0AD
:102C7000FACF2CDD2FEF86E791E021508040904085
:102C8000E1F700C0000022DDEADF882319F0E5DF6C
:102C90000C944C210895EDCF08958832910548F4A5
:102CA0008E319105A0F4049750F082E00E94790DD6
:102CB0000EC08D329105C9F320F48A9741F080E06F
:102CC00008958C34910519F08D329240C1F781E05E
:102CD0000895EF92FF920F931F93CF93DF93EC0130
:102CE0007B01C3378CE7D80761F4FB011581112301
:102CF00011F0B9D010E0812FCDB7DEB7E6E00C942B
:102D0000AF290E94630D082F0E94890D082B7CD0EB
:102D1000811107C0023211F011E0EDCF79D0F9D660
:102D2000FBCF69D0F70115811123B1F30D7909F0BB
:102D300054C0C034F2E5DF0720F5C11582E5D8079D
:102D4000D0F6C115E0E4DE0790F4C115F0E2DF072C
:102D5000B0F5C63ED10579F20E94860DCE019DDF09
:102D6000C82F8823D1F10E94140E1C2FC4CFC11587
:102D700080E5D80788F7F7018681807F69F2DD2733
:102D8000EBCFC03EE2E5DE07A0F4C03CF2E5DF0792
:102D900008F0B1CFC03682E5D807F0F2C03AE2E5DC
:102DA000DE0708F4A8CFC43BF2E5DF0709F4A3CFA0
:102DB000D3CFCE0187579C47029770F69CCFF7017F
:102DC0008681807FE1F68D2F8F71823189F038F412
:102DD000C1EED0E0823009F4BFCF28D08CCF84314F
:102DE00009F489CFC6EED2E1863109F4B5CFF5CF2B
:102DF000C5EED0E0B1CF0E94E52088579C4E90935D
:102E0000650380936403089580916603089508958F
:102E100080916603811109C00E94730D0E94B30D59
:102E2000EADF81E080936603F2CF08958091660324
:102E3000882339F082E20E9496081092660380E0AF
:102E4000E6CF089580916603882361F00E94E52013
:102E50002091640330916503821B930B8F3F9F4742
:102E600008F4E4CF089580916603882309F0DECF4B
:102E7000CFCF0895EF92FF920F931F93CF93DF93DD
:102E80008091DA03882361F0E09167038DE0F82EEA
:102E90008091DA03E81748F01092DA031092670382
:102EA000CDB7DEB7E6E00C94AF29EE24E394EE0E46
:102EB000E0926703CE2FD0E0EF9DF0011124EE5891
:102EC000FC4F84818823A9F087819085892B99F410
:102ED000818592858F3F980771F061E0CADFFC9E83
:102EE000F001FD9EF00D1124EE58FC4F14820E945B
:102EF000860DEE2DCDCF0081118122813381448159
:102F000055816681778180850E94CC0CE8CF089539
:102F1000CF93DF931092DC031092DB03D0E0C0E08C
:102F20000E947003C817D90718F0DF91CF91089558
:102F3000CE010E948303FC018581811102C01482AD
:102F400016822196EDCF1F93CF93DF9310917003DC
:102F5000209171032117D1F0C12FD0E0FE01EE0FB7
:102F6000FF1FE859FC4F408151814817590791F4E0
:102F70000E94830321E0FC0124838091700381136C
:102F800005C02196C370DD27C0937003DF91CF91F8
:102F90001F91089521961C2F1370DCCFB0E0A0E0A4
:102FA000E4EDF7E10C948C29EB012C81211152C046
:102FB0007090DA03A2E7B3E030E020E0812C61E01A
:102FC00070E0271508F045C01B96CD90DC901C974B
:102FD000A880B9804FEF5FEF912CE92CF12CF7011D
:102FE000EE0FFF1FEA0DFB1D05911491C016D106CF
:102FF00009F4A7010115110511F09394EECF4F3F8D
:10300000540781F1FB0102C0EE0FFF1F4A95E2F762
:103010008E2AAB01092C02C0440F551F0A94E2F717
:103020004150510984161506D1F44A815B816DE047
:10303000629FF001639FF00D1124EE58FC4F508702
:10304000478324E02483108211829287818721E0C4
:103050002D8379DFCDB7DEB7EDE00C94A829149667
:103060001C9214972F5F3F4F1D96ABCF0F931F936A
:10307000CF93DF93C0917003809171038C1307C0CD
:10308000F9DE46DFDF91CF911F910F910895D0E0D7
:103090008E01000F111F08591C4FF801808191818A
:1030A0000E948303BC01F8018081918177DF219622
:1030B000C370E2CFEF92FF921F93CF93DF93FC0197
:1030C0002081318110E040E050E0E52FF0E0EE0F8C
:1030D000FF1FE20FF31FA591B4911097B9F0FB0108
:1030E000C081D18140E005C0AE15BF0509F411E0F3
:1030F0004F5FE42FF0E0EE0FFF1FEC0FFD1FE59098
:10310000F490E114F10481F75F5FDFCF112349F000
:10311000451708F4CB01DF91CF911F91FF90EF90FD
:10312000089590E080E0F7CF8091C301882329F1D2
:103130008091DD039091DE030097F9F00E94FD205D
:103140002091DB033091DC0328173907B0F490910C
:10315000700380917103981751F088DF1092DC039F
:103160001092DB031092DE031092DD03089582DEDD
:103170001092DE031092DD03CBCE08951092DE0391
:103180001092DD031092C30180917103809370034C
:10319000BFDE70CE8091C301882309F0EFCF81E0BC
:1031A0008093C3010895ACE0B0E0E9EDF8E10C9440
:1031B00087294C016B0180352CE7920761F4FB01F4
:1031C00015811123D9F081E08093C301812F2C96C2
:1031D000E2E10C94A3298135FCE79F0731F4FB0160
:1031E0001581112359F0CADFF1CF82359C4731F4A4
:1031F000FB011581112311F0CDDFE8CF20917B0277
:1032000030917C0280917D0290917E02822B932BE3
:103210000E948305182F7BDE181731F0F6016081BC
:1032200071810E94F5104C01B12CA12C1C866624E2
:103230006394712CCE0101969B878A870E9470034C
:10324000A816B906B8F1F6018581882309F44AC1A8
:10325000FC85FF2309F446C1B8D79093DE03809321
:10326000DD038091DA03883008F591E0980F9093A0
:10327000DA0399E0F601DE01119601900D929A951C
:10328000E1F72DE0829FC00111248E589C4F29E068
:10329000FE013196DC0101900D922A95E1F72FEFA6
:1032A0003FEFFC0132872187948683861C85109529
:1032B00011708CCFC5010E9483037C01FC01408109
:1032C000518144244A94542C60E0262F30E0F901C7
:1032D000EE0FFF1FE40FF51F859194918816990654
:1032E00009F42901892B11F06F5FEFCF80E0FFEF28
:1032F0004F165F0609F445C0F70144813090C301C1
:10330000832D411180E0F82FF1703F2EF7012580C9
:103310008681F6019581992309F483C0332009F44D
:1033200080C0211015C09301042C01C0220F0A9403
:10333000EAF7822BF70186838091DB039091DC030F
:10334000C29730F482E390E09093DC038093DB0338
:10335000C30102C0880F991F6A95E2F70197F70130
:1033600026812817190681F58091DD039091DE03EF
:10337000009771F042D7C39758F021E0F7012483FA
:1033800081E0FC85F82BFC872FEFA21AB20A56CFFA
:103390002090700390E080E020917103221216C00B
:1033A000E816F90689F0422C512CF201EE0FFF1FAE
:1033B000E859FC4FB182A0822FEF421A520A83E0F3
:1033C0004822552440927103832DDBCF422C512C8F
:1033D000F201EE0FFF1FE859FC4F808191810E949E
:1033E00083038C01B70166DE0097A1F021E0FC01A8
:1033F0002483E816F90641F32091700322120AC0D3
:103400000817190739F492012F5F3F4F23703327B4
:1034100020937003EFEF4E1A5E0AF42DF3702F2EF7
:10342000BBCF90E021101EC0930102C0220F331FBA
:103430006A95E2F7215031092817390729F4442306
:1034400009F44EC0C5017FDDC301042C01C0880F03
:103450000A94EAF7982F9095F7018681892386834D
:10346000322CB2CFAC01042C02C0559547950A947A
:10347000E2F7BA01617077279C012150310982235C
:103480009323892B49F5672B39F1F70182819381C9
:10349000892BF1F0EA85FB8527E011922A95E9F75F
:1034A00094D6282F8B839C8384E08D83F7018281BF
:1034B0009381782F8887998709811A813C8144E01C
:1034C0005E816F81892F0E94CC0CF7011582BCCFE1
:1034D00060E0C501CEDCF9CFF42FF1702F2EB4CF10
:1034E000232CB2CF9091700380917103981711F043
:1034F000BDDDDCCEBFDC1092DE031092DD0308DD03
:10350000D5CE0895FC01680F791F8FEF91E36E17F8
:103510007F0709F408952191822728E030E087FF92
:1035200006C0880F892721503109C9F7F0CF880FCD
:10353000FACF9C01FB018581882359F12137FCE7F3
:103540003F07B9F022379CE73907E9F020373C47BD
:1035500009F560E280919C0190919D010E946305B4
:10356000FC01019620812032D9F3CF0126D280E0E0
:10357000089580919C0190919D01059690939D01E5
:1035800080939C01F4CF80919C0190919D010597BF
:10359000F5CF81E00895CF93DF93EB0186319C470F
:1035A00001F50E94630D9D81992391F08A7A91E043
:1035B00009F490E09093DF03811108C089E2E1D41F
:1035C0000E94140E80E0DF91CF91089585E3F7CF3C
:1035D0008091DF03811103C089E2EAD4F1CF85E352
:1035E000FCCF81E0F0CFCF93DF93EC01FB0185812D
:1035F000882309F4D2C09E0130572332310508F0E8
:10360000B2C00E948C0E9093F8038093F703FE01E2
:10361000E150F047E232F10520F4E45DF54D0C9401
:1036200081298091F70381608093F70393C0809193
:10363000F80388608093F8038DC08091F70382605F
:10364000F3CF8091F7038460EFCF8091F703886018
:10365000EBCF8091F8038160EDCF8091F803826019
:10366000E9CF8091F7038061DFCF8091F70380621B
:10367000DBCF8091F7038064D7CF0E94A8088091A8
:10368000F7038068D1CF8091F7038C60CDCF809114
:10369000F8038360CFCF8091F7038E7FC5CF8091F1
:1036A000F803877FC7CF8091F7038D7FBDCF8091CF
:1036B000F7038B7FB9CF8091F703877FB5CF8091D8
:1036C000F8038E7FB7CF8091F8038D7FB3CF8091C1
:1036D000F7038F7EA9CF8091F7038F7DA5CF8091CF
:1036E000F7038F7BA1CF0E94A8088091F7038F7703
:1036F0009BCF8091F703837F97CF8091F8038C7FD6
:1037000099CF8091F70382FB992790F921E09227C6
:1037100090FB82F990FB83F987CF8091F803982F73
:10372000909591708E7F892B90FB81F983CF90913A
:10373000F703892F8F7B96FF806476CF0E94A808BD
:103740009091F703892F97FB87F980586DCF81E01F
:103750000E94060F8091F7039091F8030E94900E4B
:103760000E94A80880E0DF91CF91089580E0F0CF1B
:103770009091F703892F8F7E94FF806155CF9091B0
:10378000F703892F8E7F90FF81604ECF9091F803D1
:10379000892F877F93FF88604DCF81E0E4CFB0E031
:1037A000A0E0E5EDFBE10C949029E82FF0E0E8566D
:1037B000FD4FB490282F26952695269530E0F901E7
:1037C000E85CFC4F0491877010E0082E02C015954C
:1037D00007950A94E2F701701127F901E85DFC4FA3
:1037E000E490F12C082E02C0F594E7940A94E2F7D5
:1037F00091E0E922FF24F901E85EFC4FC491D0E09A
:1038000002C0D595C7958A95E2F7C170DD27C62E0F
:10381000D12C0115110549F5E114F10431F086EEC2
:103820000E941006C601009771F5B6018B2D0E940B
:103830007306C601009779F5E114F104A1F50115AD
:10384000110531F081EE0E944D06C6010097C9F5C1
:10385000CD2B31F08CE20E948906C114D104C9F548
:10386000CDB7DEB7E9E00C94AC2981EE0E941006DA
:10387000C601009789F2EFE9FFE03197F1F700C048
:1038800000000197F6CFEFE9FFE03197F1F700C0B4
:1038900000000197C8CFEFE9FFE03197F1F700C0D2
:1038A00000000197C7CF86EE0E944D06C601009723
:1038B00031F2EFE9FFE03197F1F700C00000019726
:1038C000F6CFEFE9FFE03197F1F700C00000019774
:1038D000BDCF8FE99FE00197F1F700C0000091E0B4
:1038E000C91AD108BACFEF92FF920F931F93CF93CB
:1038F000DF93EC01162F0AE08881882309F458C071
:10390000813009F052C08981813071F47E0182E0FA
:10391000E80EF11C8A810E948906E701812F90E060
:103920000097D9F52196E8CF823041F47E01E2E09C
:10393000EE0EF11C8A810E941006EFCF833041F415
:103940007E01F2E0EF0EF11C8A810E944D06E5CF68
:10395000843011F02196E2CF2A81229690E080E017
:10396000AE014F5F5F4F2053330B2A30310550F0CB
:103970000097A1F2EFE9FFE03197F1F700C00000F6
:103980000197F6CF089FB001099F700D1124C9015E
:10399000860F971F2981EA01E3CFEFE9FFE0319716
:1039A000F1F700C000000197BBCF612FF8DEBACF5E
:1039B000CDB7DEB7E6E00C94AF2960E094CF0F936B
:1039C0001F93CF93DF93C42FD22FFC0185818823CF
:1039D000C1F04093E203F9D39093E1038093E003B5
:1039E00080E28C0F883040F4C77081E001C0880FFE
:1039F000CA95EAF70E949006DF91CF911F910F912F
:103A000008951091E203141335C08091E003909162
:103A1000E103F3D320919C0130919D01821793071C
:103A200048F5C0E2CD0F1D17B9F080E2810F883054
:103A300040F4177081E001C0880F1A95EAF70E94E0
:103A40009506C83048F481E09D2F977001C0880F1B
:103A50009A95EAF70E949006802F0E948906C83046
:103A600058F6D77081E001C0880FDA95EAF70E9416
:103A70009506C2CF80E28C0F883008F0BDCFC770AA
:103A800081E001C0880FCA95EAF7F1CF0F93DB01FF
:103A900088519C478730910598F5FC01E25BF54D14
:103AA0000C94812906E221EE41EE6AE17CE7CD012A
:103AB00086DF80E00F91089507E225EE45EE6BE189
:103AC0007CE7F5CF06E221EE40EE68E17CE7EFCF40
:103AD00007E225EE44EE69E17CE7E9CF06E221EE5C
:103AE00042EE6CE17CE7E3CF07E225EE46EE6DE1C6
:103AF0007CE7DDCF08E221E045EE6EE17CE7D7CF41
:103B000015968C91882319F01092E203D3CF81E0AF
:103B1000D1CF1092E20308954115510511F0FA0139
:103B200009950895CF93DF93EC014A855B856E85F7
:103B30007F85F2DF8B810E947F0D8C810E946C0D4E
:103B40000E94140E86E0FE0111928A95E9F7DF913A
:103B5000CF910895CF93DF93EC018D8181FD10C04B
:103B600082608D838B810E94790D8C810E94660D0D
:103B70000E94140E488559856E857F85CE01CCDF65
:103B80001092E6031092E5038D8180FD02C0CE0104
:103B9000C9DFDF91CF910895CF93DF93EC018A8144
:103BA000823041F4FB01828193810E94D2038D8196
:103BB00082608D83DF91CF910895FB018081918197
:103BC0000C94D203FC018281813031F4FB018081AD
:103BD00091810C94E60308958230E9F7FB0182811C
:103BE0009381F7CF0F931F93CF938C01FB01C58176
:103BF000CC23A9F08091E5039091E6030097A1F012
:103C00008017910789F099270E949603FC0125816E
:103C100024602583118300839DDF0E94860D8C2FF5
:103C2000CF911F910F910895C0E0F9CFEF92FF92CD
:103C30000F931F93CF93DF937C018B0197558F3F99
:103C4000910519F010F011E036C00E94850397012C
:103C500033272817390708F04CC0C9010E94960382
:103C6000EC01F80115818D8110FB80F98D83112302
:103C700041F1ABD29093E4038093E3038A818F5F99
:103C80008A830E94630D8B830E94760D9B81892B12
:103C90008B830E94890D8C834E815F816E857F8529
:103CA000CE013ADF8D8181FF02C0F12CE12CF09230
:103CB000E603E092E503812FCDB7DEB7E6E00C9492
:103CC000AF294C855D856E857F85CE0125DF8D8191
:103CD00081FFB9CFCE0126DF8091E5039091E60305
:103CE0008E159F0509F0AFCF1092E6031092E50301
:103CF000AACF10E0E0CF8091E5039091E603892BF5
:103D0000B9F08091E3039091E40377D220919C0174
:103D100030919D012817390758F48091E50390915F
:103D2000E60399270E949603FC01258122FF12CF0A
:103D300008959093ED038093EC0308950E94E91396
:103D4000811103C08091E7030895E091EC03F091A5
:103D5000ED03309729F00190F081E02D0995089549
:103D600080E00895E091EC03F091ED03309721F0AD
:103D70000280F381E02D09950895E091EC03F09124
:103D8000ED03309739F026E0DC012C930480F581B7
:103D9000E02D09950895A3E0B0E0E1EDFEE10C947B
:103DA00097292091EA033091EB0328173907A1F0F6
:103DB0009093EB038093EA03E091EC03F091ED0321
:103DC000309751F023E029839B838A830084F18517
:103DD000E02DCE01019609952396E2E00C94B329DB
:103DE000A3E0B0E0E6EFFEE10C9497292091E80310
:103DF0003091E90328173907A1F09093E9038093E4
:103E0000E803E091EC03F091ED03309751F024E0EA
:103E100029839B838A830084F185E02DCE0101965E
:103E200009952396E2E00C94B329CF93DF93C091D8
:103E3000A001D091A101229629D1813081F48091F5
:103E4000F70387FF0CC0C0919E01D0919F0122967D
:103E50009EE180E0915028F4DF91CF91089596E0A3
:103E6000F8CF29912223B1F38F5FF4CFCF93C82FDE
:103E7000811102C080E023C009D1813011F5809109
:103E8000F70387FF1EC0EC2FE695E695E695EE3129
:103E900088F780919E0190919F01E80FF92FF11D05
:103EA000228130E0C77081E090E002C0880F991F46
:103EB000CA95E2F72823392381E0232BD9F2CF9149
:103EC00008958091A0019091A101FC01329608967D
:103ED00021912C1721F0E817F907D1F7CBCF81E01A
:103EE000EECF9C01FC0132969FEF80E04191461796
:103EF00051F09F3F19F4411101C0982F8F5F863018
:103F0000A9F79F3F09F40895290F311D97FD3A95B0
:103F1000F90162830895FC013296089621912613D7
:103F200003C0DF0111971C92E817F907B9F708954C
:103F3000E62FE695E695E695EE3168F4E80FF92F61
:103F4000F11D677021E030E001C0220F6A95EAF7A9
:103F50008281822B82830895E62FE695E695E69589
:103F6000EE3170F4E80FF92FF11D677021E030E0B9
:103F700001C0220F6A95EAF72095828128232283C7
:103F80000895CF93C82F82D06C2F813059F480913F
:103F9000F70387FF07C080919E0190919F01C8DFC2
:103FA000CF9108958091A0019091A1019ADFF8CF5F
:103FB000CF93C82F6BD06C2F813059F48091F703C9
:103FC00087FF07C080919E0190919F01C5DFCF912F
:103FD00008958091A0019091A1019DDFF8CF56D066
:103FE000813079F48091F70387FF0BC0E0919E0147
:103FF000F0919F0132968EE1DF011D928A95E9F7DB
:104000000895E091A001F091A101329686E0F4CFED
:104010000895FECF089581110CC081E08093C701FF
:104020006091C4017091C5018091C6019091C70152
:10403000F0CF82E0F3CF83E08093C7016091C401A9
:104040007091C5018091C6019091C701E2CFE3CF85
:10405000089581E08093C7016091C4017091C5010A
:104060008091C6019091C701D4CFF3CF089591E01C
:10407000811101C090E09093C6016091C4017091DC
:10408000C5018091C6019091C701C3CF8091C6013F
:1040900008958093C5016091C4017091C50180911C
:1040A000C6019091C701B5CF8091C5010895809355
:1040B000C4016091C4017091C5018091C6019091C5
:1040C000C701A7CF8091C401089508950895FECF38
:1040D000089508950895F9CF0895CF93FADF0E94C7
:1040E0006613F8DFC0E08C2F0E944B12811105C0CF
:1040F000CF5FC830C1F7CF91089581E0FCCF85B77D
:10410000806885BF85B7806885BF08951F921FB6F8
:104110001F9211248F939F93AF93BF938091EE03CF
:10412000811113C080910F0490911004A09111048B
:10413000B09112044196A11DB11D80930F0490937C
:104140001004A0931104B0931204BF91AF919F91FA
:104150008F911F901FBE1F90189580911704843077
:1041600031F10E9405051092EE0388E190E020E411
:104170000FB6F894A895809360000FBE209360005E
:1041800083B7817F846083BF83B7816083BF789466
:10419000889583B78E7F83BF0FB6F894A8958091DA
:1041A0006000886180936000109260000FBE0895E7
:1041B0000E94A8080C94080582E084BD93E095BD98
:1041C0009AEF97BD80936E0008952FB7F894809171
:1041D0000F0490911004A0911104B09112042FBF0C
:1041E00008952FB7F89460910F0470911004809196
:1041F0001104909112042FBF08959C014FB7F894B9
:1042000080910F0490911004A0911104B0911204B8
:104210004FBF821B930B0895CF92DF92EF92FF92D4
:104220002FB7F894C0900F04D0901004E0901104C0
:10423000F09012042FBFA7019601261B370B480BE5
:10424000590BCA01B901FF90EF90DF90CF9008950C
:1042500078941F921FB61F9211248F939F93AF9350
:10426000BF9380910F0490911004A0911104B0911C
:1042700012040196A11DB11D80930F0490931004A8
:10428000A0931104B0931204BF91AF919F918F91AD
:104290001F901FBE1F90189587E797E7909301081E
:1042A0008093000888E19AE00FB6F894A89580936F
:1042B00060000FBE90936000FFCF88E19AE00FB6D8
:1042C000F894A895809360000FBE90936000FFCF94
:1042D0008EE14A9B02C08150E1F74A9BFECF0895D0
:1042E0005A9880E28A95F1F75A9A0895FC013BE0CA
:1042F0003A95F1F798E020E080E031E040E14A951E
:10430000F1F7880F4A9B02C08160232742E04A955B
:10431000F1F7000040E14A95F1F7915079F790E10B
:104320009A95F1F799B132E03A95F1F7000040E142
:104330004A95F1F792FB992790F992272081920FE5
:1043400090830895A1E0B0E0E7EAF1E2ECC71982BA
:104350008C017C01E60EF11C0E151F0539F481E07D
:104360009981911180E02196E6E0F9C7B1DFCE0195
:104370000196BCDFF80181938F01EECF529A5A9AD1
:10438000089552985A9AEA9AE9E6F0E080818F7C83
:10439000808308956150770B91E001C0990F6A9571
:1043A000EAF720E031E0911108C0222391F05A9AF7
:1043B00080E28A95F1F75A980895492F482339F0F9
:1043C0005A9A232740E24A95F1F79695ECCF5A98EE
:1043D000F9CF5A98EDCFFF920F931F93CF93DF93AE
:1043E000EC018C01060F111DC017D10721F4CDB7C8
:1043F000DEB7E5E0B5C7F99073DF68E08F2DCADF5F
:10440000F3CF1F920F920FB60F9211240F931F93A9
:104410002F933F934F935F936F937F938F939F93CC
:10442000AF93BF93EF93FF93CF93DF930F92CDB7EB
:10443000DEB719824DDFCE01019658DF082F0695B1
:1044400006950695282F22952570902F9570290F97
:10445000922F937026952695920F982797708981B1
:10446000982B09F058C0053008F055C080E18A95B6
:10447000F1F75A9A529A82E08A95F1F700C05A9859
:1044800088E0089F80011124D801AD55BE4F1696D3
:10449000ED91FC9117973097A9F060914E027091C1
:1044A0004F0214962D913C911597260F371F1196A8
:1044B0008D919C911297680F791F13964C911397C9
:1044C0008C910995F801ED55FE4F6381662349F003
:1044D00020914E0230914F0284819581820F931F6B
:1044E0007ADFFEDE80E18A95F1F75A9852985A9A5F
:1044F00080E18A95F1F7F801ED55FE4F6081662362
:1045000049F020914E0230914F0281819281820FB9
:10451000931F18DFDDDE0F90DF91CF91FF91EF91B8
:10452000BF91AF919F918F917F916F915F914F91CB
:104530003F912F911F910F910F900FBE0F901F90E1
:1045400018950F931F93CF93DF93EC0105970CF011
:1045500049C0F894529A5A9885E08A95F1F700007C
:104560009C2F969595708C2F8570980F892F83704E
:104570009695969523E0CC0FDD1F2A95E1F7980FCD
:104580008E01092BADDE00C068E0802F03DF80E1E3
:104590008A95F1F752985A9A4A9B1DC087E090E09D
:1045A0004A991BC0FE01ED55FE4F63816623F1F071
:1045B00020914E0230914F0284819581820F931F8A
:1045C000C1DE811113C0529A5A9A7894DF91CF912B
:1045D0001F910F91089500C0DFCF019729F4529ADF
:1045E0005A9A789480E0F2CF00C0DACF71DE80E290
:1045F0008A95F1F75A98529A80E18A95F1F7CD554C
:10460000DE4F6881662349F020914E0230914F02BF
:1046100089819A81820F931FDEDE62DE789481E0C9
:10462000D5CF08959B01BA01909117049430E1F41D
:104630008F708093E9009FEF8091E800915085FD95
:1046400006C085ED8A95F1F700009111F5CF8091B4
:10465000E80085FF09C050E040E0C901B5D1809174
:10466000E8008E778093E800089543E050E0BC01B5
:1046700082E0D8CF40E250E0BC0182E0D3CFCF93BC
:10468000DF93EC0103DD48E050E0BE0181E0CADFCA
:1046900088E0FE01AFEEB3E001900D928A95E1F75C
:1046A000DF91CF91089580911604811107C01AD32C
:1046B00071D38091E20084608093E20008951092AB
:1046C00016040895C6DC81E0D2CC6091130481E029
:1046D000611101C080E0AFCC9091170481E094306B
:1046E00009F080E060911304B2CC42E061EC81E01B
:1046F00075D242E261EC82E071D29091170481E0C0
:10470000943009F080E06091130485CC8091190405
:10471000833009F45EC030F48130C1F1823009F495
:1047200094C008958A3009F483C08B3009F46BC0BB
:10473000893009F04DC080911804813209F048C0D9
:1047400080911C0490911D04029708F041C0809153
:10475000E800877F8093E8008091E80082FF34C002
:104760009091F3008091F200029731F48091F10072
:10477000813011F0863019F48091F1008ADC80914B
:10478000E8008B778093E8005DD222C08091180406
:10479000813AF1F48091E800877F8093E80080916E
:1047A0001C0490911D04892B59F468E08FEE93E06E
:1047B00070E057D18091E8008B778093E8000895EE
:1047C00060E090E080E0F4CF809117048111C4CFC5
:1047D000089580911804813AD9F780911C04909132
:1047E0001D04892BA9F78091E800877F8093E8005A
:1047F0008091E80080FFFCCF49DC8093F10080913C
:10480000E8008E77BFCF80911804813209F780913C
:104810001C0490911D04892BD9F68091E800877FB4
:104820008093E8000FD280911A0421DC0C94A80830
:1048300080911804813261F68091E800877F80932F
:10484000E80000D280911B0432CC80911804813A98
:1048500009F0BECF8091E800877F8093E8008091C7
:10486000E80080FFFCCF2EDCC8CF84B7877F84BFF1
:104870000FB6F894A89580916000886180936000DD
:10488000109260000FBE80E890E00FB6F89480931D
:104890006100909361000FBEE8CB24D27BD2E2EEA0
:1048A000F0E08081846080837894DEC488EC91E0BD
:1048B00040CA80911704853029F48091170485300F
:1048C00011F076CC089549DC08DC8823B1F380919F
:1048D0001504882391F362D00E94A808EECF0895B2
:1048E0009A0140911E0450911F0400C0492F552782
:1048F0004330510519F168F44130510509F444C0C1
:104900004230510509F445C090E080E050E040E0BD
:1049100025C04132510549F142325105A9F784E4DD
:1049200090E046E254E061157105C1F08DE690E03B
:1049300049EB53E06130710589F0E6CF992781306A
:10494000910581F0009729F00297F1F6E8E4F3E091
:1049500002C0E8E6F3E0849190E0AF01F9015183F1
:1049600040830895E6E5F3E0F6CF89E090E04EE776
:1049700053E06115710591F389E090E047E953E058
:104980006130710559F3C0CF82E190E047EA53E00E
:10499000E5CF8BE390E04CE653E0E0CF80E189BDCA
:1049A00082E189BD09B400FEFDCF8091D8008F7DE2
:1049B0008093D8008091E00082608093E000809135
:1049C000E00081FDFCCF0895AF92BF92CF92DF92BD
:1049D000FF920F931F93CF93DF936C01EB018A013A
:1049E00050D1F82E811123C00115110539F0F801BD
:1049F00080819181C81BD90BC80ED91EB12CA12C66
:104A00002097A9F08091E80085FD21C08091E80001
:104A10008E778093E80001151105A1F0F8018081DF
:104A20009181A80EB91EB182A08285E0F82E8F2D4B
:104A3000DF91CF911F910F91FF90DF90CF90BF90AA
:104A4000AF9008951ED18823D9F2F82EF0CFF60149
:104A500081916F018093F1002197FFEFAF1ABF0A98
:104A6000CFCFFC0180911E0490911F0486179707F9
:104A7000A0F06115710529F49091E8009E7790935C
:104A8000E80090E06115710551F4911108C0809122
:104A9000E80082FF34C080E00895BC01F2CF80912D
:104AA00017048823C1F18530C1F18091E80083FDAE
:104AB00030C08091E80082FDEACF8091E80080FF5D
:104AC000E1CF8091F3002091F200382F611571053C
:104AD00019F02830310558F091E02830310509F0FF
:104AE00090E02091E8002E772093E800CBCF8191D1
:104AF0008093F100615071092F5F3F4FE7CF8091A4
:104B00001704882341F0853041F08091E80083FF4D
:104B1000BECF81E0089582E0089583E00895FC010E
:104B200080911E0490911F0486179707A0F06115CD
:104B3000710529F48091E8008E778093E80090E079
:104B40006115710551F4911108C08091E80082FF50
:104B500035C080E00895BC01F2CF8091170488230E
:104B6000C9F18530C9F18091E80083FD31C08091A1
:104B7000E80082FDEACF8091E80080FFE1CF8091DC
:104B8000F3002091F200382F6115710519F02830DB
:104B9000310558F091E02830310509F090E080911E
:104BA000E8008E778093E800CBCF84918093F1006A
:104BB0003196615071092F5F3F4FE6CF8091170406
:104BC000882341F0853041F08091E80083FFBDCF1C
:104BD00081E0089582E0089583E00895982F97304A
:104BE00028F08F708093E90081E008959093E900A8
:104BF000242F762F50E0981731F07091EC0020911F
:104C0000ED005091F00021FD02C09F5FE8CF309190
:104C1000EB003E7F3093EB003091ED003D7F309311
:104C2000ED003091EB0031603093EB007093EC00BD
:104C30002093ED005093F0002091EE0027FDE5CF8A
:104C400080E008958091180487FF13C08091E800E8
:104C500082FF06C08091E8008B778093E80004C053
:104C6000809117048111F2CF089580911704882351
:104C7000D9F38091E80080FFF8CF8091E8008E772B
:104C8000ECCF2091E4003091E50095E6A901209158
:104C9000EC00822F817020FF06C08091E80080FF29
:104CA00006C080E008952091E80022FD1AC080919E
:104CB0001704882389F0853089F08091EB0085FD09
:104CC0000FC02091E4003091E50042175307F9F23C
:104CD0009150E1F684E0089582E0089583E008951C
:104CE00081E0089567D06ED0E0EEF0E080818160D1
:104CF0008083E8EDF0E080818F77808319BCA7ED99
:104D0000B0E08C918E7F8C9380818F7E8083109217
:104D1000160408950F931F93CF93DF934BD052D077
:104D2000C8EDD0E088818F77888388818068888308
:104D300088818F7D888319BC109217041092130408
:104D4000109215041092140400EE10E0F801808116
:104D50008B7F808388818160888342E060E080E08F
:104D60003DDFE1EEF0E080818E7F8083E2EEF0E0D7
:104D7000808181608083808188608083F801808168
:104D80008E7F8083888180618883DF91CF911F919E
:104D90000F910895E8EDF0E080818F7E8083E7ED4C
:104DA000F0E080818160808384E082BF81E0809335
:104DB0001604B0CFE8EDF0E080818E7F8083109202
:104DC000E20008951092DA001092E10008951F9217
:104DD0000F920FB60F9211242F933F934F935F932F
:104DE0006F937F938F939F93AF93BF93EF93FF93B3
:104DF0008091E10082FF0AC08091E20082FF06C03C
:104E00008091E1008B7F8093E1002DD28091DA00C8
:104E100080FF18C08091D80080FF14C08091DA0014
:104E20008E7F8093DA008091D90080FF91C080E16D
:104E300089BD82E189BD09B400FEFDCF81E0809388
:104E4000170431DC8091E10080FF18C08091E200FE
:104E500080FF14C08091E2008E7F8093E2008091F9
:104E6000E20080618093E2008091D80080628093AC
:104E7000D80019BC85E08093170427DC8091E100FD
:104E800084FF2AC08091E20084FF26C080E189BDB2
:104E900082E189BD89B5982F917080FFFBCF809109
:104EA000D8008F7D8093D8008091E1008F7E809321
:104EB000E1008091E2008F7E8093E2008091E20029
:104EC00081608093E20080911304882309F445C037
:104ED00084E08093170400DC8091E10083FF27C009
:104EE0008091E20083FF23C08091E100877F80935F
:104EF000E10082E080931704109213048091E10096
:104F00008E7F8093E1008091E2008E7F8093E200AB
:104F10008091E20080618093E20042E060E080E006
:104F20005DDE8091F00088608093F000CBDBFF9124
:104F3000EF91BF91AF919F918F917F916F915F9111
:104F40004F913F912F910F900FBE0F901F9018958A
:104F500019BC10921704B3DB75CF8091E30087FD75
:104F600093E090931704B7CF1F920F920FB60F9252
:104F700011242F933F934F935F936F937F938F935E
:104F80009F93AF93BF93CF93DF93EF93FF93D09112
:104F9000E900DF708091EC00C82FC17080FDC0E88F
:104FA0001092E9008091F000877F8093F000789460
:104FB0001ED01092E9008091F00088608093F0008C
:104FC000CD2BCF70C093E900FF91EF91DF91CF918E
:104FD000BF91AF919F918F917F916F915F914F9111
:104FE0003F912F910F900FBE0F901F901895AAE23E
:104FF000B0E0ECEFF7E29AC188E194E02091F10093
:10500000FC012193CF01F4E080329F07B9F77EDBEA
:105010008091E80083FF16C18091180490911904D3
:105020009A3008F00FC1E92FF0E0EB5AF54D69C155
:10503000803899F0823809F005C180911C048F7086
:10504000873008F0FFC08093E9008091EB0085FB7A
:10505000882780F91092E90006C08091140490918D
:105060001504911182609091E800977F9093E80079
:105070008093F1001092F1008091E8008E77DFC0FC
:10508000882309F4CDC0823009F0DCC080911A0475
:105090008111D0C080911C048F702FEF280F263013
:1050A00008F0D0C08093E9002091EB0020FFC2C03F
:1050B000933031F48091EB0080628093EB00BAC0B2
:1050C0009091EB0090619093EB0021E030E001C003
:1050D000220F8A95EAF72093EA001092EA00809165
:1050E000EB008860EACF8111ADC010911A041F77E0
:1050F0008091E3008078812B8093E3008091E80029
:10510000877F8093E8009EDD8091E80080FFFCCFE0
:105110008091E30080688093E30082E0111183E0D6
:10512000809317048FC08058823008F08BC0809124
:105130001A0490911B048C3D23E0920799F583E0BB
:105140008A838AE289834FB7F894DE01139620E0C0
:105150003EE051E2E32FF0E050935700E49120FF4E
:1051600003C0E295EF703F5FEF708E2F90E0EA3062
:10517000B8F0C7968D939D932F5F243159F74FBF99
:105180008091E800877F8093E8006AE270E0CE01BA
:10519000019667DC8091E8008B778093E80052C02D
:1051A000C096E8CF60911C0470911D04AE014F5F62
:1051B0005F4F96DBBC01892B09F444C09091E80055
:1051C000977F9093E80089819A81A9DCE3CF8038AA
:1051D000C9F58091E800877F8093E80080911304EF
:1051E0008093F10049CF81112DC090911A04923023
:1051F00048F58091E800877F8093E800909313043E
:1052000021DD80911304882311F084E005C0809192
:10521000E30087FDFACF81E08093170466DA12C0BD
:1052200080911A04813071F481E0933009F080E0BC
:10523000809315041092E9008091E800877F8093A5
:10524000E80000DD8091E80083FF0AC08091E8005B
:10525000877F8093E8008091EB0080628093EB0071
:10526000AA96E3E07FC00895CF9380911704882326
:1052700099F0C091E900CF709091EC00892F817076
:1052800090FD80E8C82B1092E9008091E80083FD32
:10529000AEDECF70C093E900CF91089523DD109268
:1052A00017040895E8EDF0E08081806180838AE151
:1052B0008A95F1F700C08091D90081700895A1E22C
:1052C0001A2EAA1BBB1BFD010DC0AA1FBB1FEE1F80
:1052D000FF1FA217B307E407F50720F0A21BB30BCB
:1052E000E40BF50B661F771F881F991F1A9469F747
:1052F00060957095809590959B01AC01BD01CF01A3
:105300000895EE0FFF1F0590F491E02D09942F9260
:105310003F924F925F926F927F928F929F92AF9245
:10532000BF92CF92DF92EF92FF920F931F93CF9392
:10533000DF93CDB7DEB7CA1BDB0B0FB6F894DEBF29
:105340000FBECDBF09942A88398848885F846E844F
:105350007D848C849B84AA84B984C884DF80EE8099
:10536000FD800C811B81AA81B981CE0FD11D0FB6A2
:10537000F894DEBF0FBECDBFED010895FB01DC0147
:1053800004C08D910190801921F441505040C8F71C
:10539000881B990B0895FB01DC0102C001900D925E
:1053A00041505040D8F70895F999FECF92BD81BD84
:1053B000F89A992780B50895A8E1B0E042E050E05E
:1053C0002FC0DC01A40FB51F4150504040F0CB016D
:1053D000840F951F2E9105D041505040D8F7089565
:1053E000262FF999FECF92BD81BDF89A019700B49E
:1053F000021639F01FBA20BD0FB6F894FA9AF99A3E
:105400000FBE08950396272FECDFEADF252FE9DF93
:10541000242FE7CF0196272FE4DFE2CFDC01CB0179
:10542000FC01F999FECF06C0F2BDE1BDF89A3196B4
:1054300000B40D9241505040B8F70895F894FFCF52
:10544000D806D8061A071A077307000700070007CF
:105450008F07F807040804084B1BBF1B531B1D1BB9
:10546000211B571B251B5B1B671B311BB81B351BE7
:105470006B1B391B6F1B971B3D1B731B9E1B431B19
:10548000791B811B291B5F1B2D1B631B471B7D1B6E
:105490008D1BA71BB61B171B4F1BC61B621D681D50
:1054A000521D5C1D6E1D741D7A1D1828402822296E
:0E54B00040282229732893282229E728F32870
:1054BE009202737C0000008C02737C0000000000DE
:1054CE0000000000CC1DDD1DE21D00009601000055
:1054DE0000000000CC1DDD1DE21D00009201000049
:1054EE0000000000CC1DDD1DE21D00008E0100003D
:1054FE0000000000CC1DDD1DE21D00008A01000031
:10550E0000000000CC1DDD1DE21D00008601000024
:10551E0000000000CC1DDD1DE21D00008201000018
:10552E0000000000CC1DDD1DE21D00007E013800D4
:10553E0031003600300010002F001300340023021B
:10554E0031002D002E0235023500FF00AA00FD02AB
:10555E001D03010000000100000000000000040116
:10556E000000000405000000000000040900000017
:10557E00000000010000010054203F233A231123B4
:10558E003523E200E900EA00B500B600B700CD0011
:10559E008301CC008A01920194012102230224028C
:1055AE002502260227022A02B300B4006F00700003
:1055BE009F01CB019F02A002818283E200E900EAF3
:1055CE0000B500B600B700CD008301CC008A019271
:1055DE000194012102230224022502260227022A17
:1055EE0002B300B4006F0070009F01CB019F02A0B8
:1055FE0002818283F4F5F6F73133946697C643033E
:00000001FF
