:1000000031C200004CC200004AC200000C94F8212A
:1000100046C2000044C2000042C2000040C20000CC
:100020003EC200003CC200000C94DE260C94AB27BC
:100030000C947D2034C2000032C2000030C20000A7
:100040002EC200002CC200002AC2000028C20000FC
:1000500026C200000C941F2122C2000020C2000012
:100060001EC200001CC200001AC2000018C200001C
:1000700016C2000014C2000012C2000010C200002C
:100080000EC200000CC200000AC2000008C200003C
:1000900006C2000004C2000002C2000000C200004C
:1000A000FEC10000FCC10000FAC1000000003400E5
:1000B0003600370013001C00000004001224082240
:1000C00018280C000000330014000D000E001B0067
:1000D0000000000000000000417E2C2100000F0005
:1000E000150006000A00090000001600113417323E
:1000F0000B38070000001D0019001A001000050051
:100100000000000000000000427E283100001400C2
:100110001A0008001500170000000400160007224E
:1001200009000A0000001D001B0006001900050060
:100130000000000000000000417E2C00000002577B
:1001400012000C0018001C00000033000F000E32DB
:100150000D000B000000055737000457035711002E
:100160000000000000000000427E28000000437EE6
:10017000447E457E467E2A0800002B022B00E100CB
:10018000E3002A040000477E487E497E4A7E4C04F4
:1001900000000000000000000000000000004F12FE
:1001A000521251125012501A00004F0052005100CA
:1001B0005000501800004F1452145114501450168F
:1001C0000000000000000000407E2C0F00001E0216
:1001D0001F02200221022202000059005A005B0087
:1001E0005C005D0000002F0230022D000157005717
:1001F00000000000000000002D0204520000270251
:100200002602250224022302000062006100600031
:100210005F005E0000003100310230002F00380026
:1002200000000000000000000000000000004B7E05
:100230000000220A210A210B0000000000004700F4
:100240004800060800005000510052004F001908F5
:100250000000000000000000417E2C000000AE0005
:100260000000A800AE0029000000BB00A900AA0001
:10027000BC002A0000004F00520051005000000056
:100280000000000000000000427E28000822173213
:10029000000000000000000000002A2B28000000E1
:1002A0000000000000000000000000000029000025
:1002B00000002C1E3420212224342627252E362D02
:1002C0003738271E1F202122232425263333362E9C
:1002D00037381F0405060708090A0B0C0D0E0F100E
:1002E0001112131415161718191A1B1C1D2F313053
:1002F000232D350405060708090A0B0C0D0E0F10F7
:100300001112131415161718191A1B1C1D2F313032
:10031000354C00000000000000000000000000005C
:1003200000000000000000000000000000000000CD
:100330000000000000007E0F00D4FFFFFFC7000098
:1003400000780C0343006F0072006E00650000002F
:10035000100366006F006F007300740061006E0090
:1003600000000403090409023B00020100A0FA098D
:1003700004000001030101000921110100012244D0
:1003800000070581030800010904010001030000C2
:1003900000092111010001226D00070582032000E0
:1003A0000112010002000000085346010001000193
:1003B00002000105010980A101850319012AB70086
:1003C000150126B700950175108100C0050C0901C3
:1003D000A101850419012AA002150126A002950198
:1003E00075108100C005010906A1018506050719E0
:1003F000E029E71500250195087501810205071917
:100400000029EF1500250195F075018102050819F5
:10041000012905950575019102950175039101C0AA
:1004200005010906A101050719E029E715002501C5
:10043000950875018102950175088101050719006C
:1004400029FF150026FF009506750881000508198B
:100450000129051500250195057501910295017584
:10046000039101C011241FBECFEFDAE0DEBFCDBF84
:1004700012E0A0E0B1E0E4ECF4E502C005900D92DA
:10048000A633B107D9F724E0A6E3B2E001C01D927C
:10049000A830B207E1F70E940D160C94152AB0CDD2
:1004A00080913D02882321F010923D028AEA33D4E4
:1004B00080913C02882321F010923C0288E82BC4F2
:1004C0000895892B39F4662329F080E0BAD681118A
:1004D0000C94FE160895CF9380549E47C1E08C3053
:1004E000910508F047C0FC01E95EF54DDB0115966A
:1004F000CC910C947829C11102C0C0E03BC083E0CC
:1005000090E077D68FEF02D48CE280D317D6F5CF68
:10051000CC23A1F00E94DC2090933B0280933A020E
:1005200084E08FD6882311F084E0A9D682E089D6B2
:10053000C82F82E0C111E1CF94D61CC0B1DF82E0A8
:1005400080D6882311F082E09AD682E07AD6811193
:100550000DC00E94DC2020913A0230913B02821BA8
:10056000930B8A3A910510F489E2C9D310923B02A9
:1005700010923A028C2FCF910895CC2399F00E94CB
:10058000DC20909339028093380284E05AD6882385
:1005900011F084E074D683E054D6C82F8111ADCF1A
:1005A00083E0CACF7DDF83E04CD6882311F083E05F
:1005B00066D683E046D681110DC00E94DC202091D2
:1005C000380230913902821B930B8A3A910510F45C
:1005D0008AE295D31092390210923802CBCFCC2305
:1005E00009F494CF88E892D38FE210D386CFCC233E
:1005F00009F48CCF88E88AD380E3F7CF83E3CC2358
:1006000009F484CF83D38BE2F0CFCC2309F47ECFDF
:1006100081E1F8CFCC2309F470CFC0913D02C11124
:1006200010C080913C02882321F010923C020E946D
:10063000690D8AEA6BD38BE262D381E080933D023D
:1006400099CF8BE25CD359CFCC2309F456CFC0911C
:100650003C02C111F6CF80913D02882321F0109217
:100660003D020E94690D88E851D38BE248D381E0B6
:1006700080933C027FCFCC2309F448CF81E146D35D
:1006800080E5B3CFCC2309F441CF81E13FD38FE4A0
:10069000ACCFCC2309F43ACF8CEC38D38CE0A5CF87
:1006A0008530B8F46830A8F4463098F450E096E00D
:1006B000699F400D511D1124FA0190E3899FE00DBF
:1006C000F11D1124EE0FFF1FE455FF4F859194910A
:1006D000089581E090E00895E3CF089581E090E0EF
:1006E0000895892B19F480E091E0089590E080E06E
:1006F0000895F7CF089586E090E00895863091053B
:1007000040F424E0880F991F2A95E1F7895F9E4FF6
:10071000089590E080E00895F1CF08959C013A9506
:1007200021153F4150F5FC01EE27F170BC01662711
:100730007270AC01442754709C012227387094FFDA
:100740000EC080E1EF2B09F480E0672B09F0806296
:10075000452B09F08064232B89F08068089581E09F
:10076000EF2B09F480E0672B09F08260452B09F03C
:100770008460232B19F08860089580E00895CF935A
:10078000DF93EB01CBDFFE010995DF91CF91089557
:10079000CF93DF93EC01805E9109089720F067E822
:1007A00078E0209711F466E876E0CE01E8DF8C2F40
:1007B0002DD2DF91CF910895CF93DF93EC0163D2D7
:1007C000CE01805E9109089720F06CE878E02097D0
:1007D00011F46BE876E0CE01D2DFDF91CF9108957E
:1007E00081E00895FDCF089581E0089574CE0895C5
:1007F0000895FECF0895A6E0B0E0E1E0F4E00C94A7
:100800008D2949835A839E8330914A0289819A8136
:10081000311117C03E81332389F0222379F0D8D5D6
:10082000182F682F89819A81B2D569817A81812FA9
:100830000E94EB102696E3E00C94A929B9D5182F55
:10084000F4CFC6D569817A81F3CFFC01262F878149
:100850009085009739F44081518162817381848150
:100860009581C9CF0895CF93DF93EC0161E0EDDF6F
:10087000BE01B8DF882351F061E0CE01E6DFBE01A2
:100880000E94C9188170DF91CF91089580E0FACF5E
:10089000CF93DF93EC0160E0D8DFBE01AADFDF91E8
:1008A000CF91089521E030E0A90102C0440F551F07
:1008B0008A95E2F7CA018DC4CF93C82F81E090E0FA
:1008C0000C2E02C0880F991F0A94E2F70E947D0E39
:1008D0008C2FE8DFCF91089581E00895FDCF089532
:1008E000CF93C82F2BD48C2FF9DF2FEF84E39CE01C
:1008F000215080409040E1F700C00000CF91089562
:1009000081E0EEDF0C94432180E0EADF0C94542177
:100910000F931F93CF93DF938C0161E096DFEC017F
:10092000B8010E94E91D882321F061E0C8018DDF34
:10093000EC01B801CE015ADF811106C080E0DF91E1
:10094000CF911F910F910895B801CE010E945F16BB
:100950008823A1F3B801CE010E940D1E882371F3F4
:10096000B801CE010E94901A882341F3B801CE014C
:100970000E943D1D882311F3B801CE010E94EA1A9E
:100980008823E1F2B801CE010E94C21A8823B1F295
:10099000B801CE010E942912882381F2F8018581D5
:1009A000882361F0C330FCE7DF07D9F050F4C115AC
:1009B000ECE7DE07A1F0C130DC47A9F0C80114DF85
:1009C000BECFCB358CE7D80799F0CC35ECE7DE0706
:1009D00061F0CA35DC4791F70E945E0EEFCF90DFE1
:1009E000ADCF0E94620E90DFA9CF0E94560EE6CFD7
:1009F0000E94600EE3CF0E945E20B2C0B3D00C9480
:100A000062202F923F924F925F926F927F928F92CD
:100A10009F92AF92BF92CF92DF92EF92FF920F938D
:100A2000CF93DF931C0129013A016B0181E0C81AC1
:100A3000D108E101CC0DDD1D1882F12CE12C8AE0FA
:100A4000882E912CA12CB12CEC14FD0498F0C1013E
:100A5000DF91CF910F91FF90EF90DF90CF90BF90FB
:100A6000AF909F908F907F906F905F904F903F904E
:100A70002F900895C301B201A50194010E94562947
:100A8000605D603319F4E114F10431F04114510454
:100A90006104710409F4602F6A93C301B201A501D6
:100AA00094010E94562929013A018FEFE81AF80AA9
:100AB000CBCF0F9320917F01309180012817390708
:100AC00021F420914402261789F0909380018093AD
:100AD0007F01609344029C0150E040E0062F66E0F5
:100AE00070E08EE392E08DDF0F9108958EE392E047
:100AF000FBCF292F332740E02115310511F0C90123
:100B000048E09C0164E0369527956A95E1F7211548
:100B1000310511F04C5FC9019C013695279536953A
:100B200027952115310511F04E5FC90196958795DE
:100B3000892B09F04F5F842F089581E0089508956F
:100B4000CF93DF93D82FF9DFC82F882311F08D2F93
:100B5000F6DF8C2FDF91CF9108950895F1CF08959E
:100B600080E0FCCF0E94951EF9CFCF930E94951E86
:100B7000C82F809145028C1771F0C09345020E94E6
:100B8000E820609346027093470280934802909356
:100B900049028C2FE3DFCF910895AFE0B0E0E3EDA1
:100BA000F5E00C948C294A875B876C877D878E875C
:100BB0009F879111A1D71F821886198686E0FE01B2
:100BC0003A96DE01119601900D928A95E1F78D819A
:100BD00081110EC009811A812B813C814D815E817A
:100BE0006F8178858985CED62F96E4E00C94A8296C
:100BF000CE01019638DE8111EDCFF6CFFC012481C4
:100C0000213019F48081918114C40895CF93C82FA5
:100C1000882389F08CEF8C0F813A78F48C2F0E9416
:100C20002D1F882321F08C2F0E94CF1FF3D78C2FEC
:100C30000E94B81FEFD7CF91089580E28C0F8830C3
:100C400040F4C77081E001C0880FCA95EAF734D735
:100C5000F1CFEBE5EC0FE33040F4F0E0E351FE4F71
:100C6000808190E00E94C21EE6CFC85ACB3118F7AF
:100C7000EC2FF0E0EE0FFF1FE954FE4F80819181D1
:100C80000E94E71ED8CF882319F19CEF980F913A64
:100C900018F40E94CF1FBEC790E2980F983048F416
:100CA000877091E001C0990F8A95EAF7892F0AD7DA
:100CB000F2CF9BE5980F933020F490E080E00C9405
:100CC000C21E885A8B3120F490E080E00C94E71E1D
:100CD00008951F93CF93DF93182FEB0197DF209791
:100CE00031F4812FD0DFDF91CF911F9108958FE9EB
:100CF0009FE00197F1F700C000002197F0CF70E06E
:100D000060E0893311F460E570E0E3CF882311F0EF
:100D1000D3D680C70895882311F0D4D67BC7089511
:100D2000B0E0A0E0E6E9F6E00C9487296C01D62F4C
:100D3000C72FFC011581068102950F70B3D6E82EEE
:100D40008823E9F0E12E1123D1F08C2F807F8034AD
:100D500061F080E28D0F8830F8F08C2F807E803239
:100D600021F4D230C8F00023B9F08091E00382FF73
:100D700013C082E073D796D691E0E82EE926BC2E08
:100D8000B2949FE0B922FBE0FB1580F1EB2DF0E07F
:100D9000ED5DF54D0C947829E12CF1CF0C2F0F70FF
:100DA000C07F11F00295007F112381F0002349F0EC
:100DB00080E28D0F883010F0D11105C0802F7CD6D5
:100DC00029D78D2F4CC0802F8AD6FACF8D2F5BDF8D
:100DD000002361F080E28D0F883010F0D11103C044
:100DE000802F70D602C0802F80D614D7EB2DE8500C
:100DF000FF0B349718F40E94951EB0DEEE2059F0D8
:100E00004DD680FD08C0F601158242D62AD2C60111
:100E100060D13ED634D2CDB7DEB7E9E00C94A32939
:100E20002C2F2F70F22EC07FC03219F0F29480EF79
:100E3000F822DD2341F0D13089F1112309F439C0C2
:100E40000023D1F0BECF8091E00382FD11C01123B9
:100E500041F0FF2019F08F2D2FD6DCD680E0D6DEB2
:100E6000C5CF80E010DFFF2009F4C0CF8F2DB9CFB0
:100E7000112359F0011103C08F2D48DFB7CF013086
:100E800009F0B4CF8F2D4FD6B1CF0111AFCF8F2D39
:100E900042DF8F2D53D68F2D38D6A8CF112321F0C6
:100EA000023008F0A3CFE8CF0111A0CF8F2D33DFA0
:100EB0009DCF0023D9F3D93349F43FEF87EE93E078
:100EC000315080409040E1F700C000008D2FDBDE04
:100ED0008DCF8C2F86958695837069F0813009F0CF
:100EE00085CF8D2F9C2F9370111102C080E090E070
:100EF0000E94E71E7BCF8D2F9C2F9370111102C093
:100F000080E090E00E94C21E71CF8C2F837081F52B
:100F100011116CCF4D2F429546954770440F440FE9
:100F20002D2F2F7030E0042E02C0220F331F0A94A1
:100F3000E2F790E080E0D4FF09C08FE090E002C0CB
:100F4000880F991F4A95E2F780959095C695C695AA
:100F5000C370822B932BC23039F040F4C13011F0B2
:100F600041D144CF38D142CF44D140CF32D13ECF0E
:100F70008695112311F08C2F8170882309F436CFC8
:100F80004D2F429546954770440F440F2D2F2F70DB
:100F900030E0042E02C0220F331F0A94E2F790E0E3
:100FA00080E0D4FF09C08FE090E002C0880F991F55
:100FB0004A95E2F780959095C695C695C370822BA9
:100FC000932BC23039F040F4C13011F07DD10ECFF7
:100FD00074D10CCF80D10ACF17D108CFCF70112395
:100FE00021F08C2F3ED18D2F48CF8D2F94DE8C2F6A
:100FF00046D1FCCED23F31F160F4D03FB9F0D13FC1
:1010000081F0112309F43BC00111DBCE8C2F8F71CD
:101010001DC0D33FE9F0D43FA1F78091E00382FDEA
:101020001FC08C2F8F71112319F310C0112331F0C1
:101030000111DCCE8C2F8F7132D1D8CE023008F066
:10104000D5CEF8CF8C2F8F711111D2CF0AD1CECE41
:10105000112321F08C2F8F71FAD0C8CEDBD0C6CEF1
:10106000112329F063E08C2F8F71E1D5BFCE81E091
:10107000F5D5023008F4BACE82E0F0D5B7CE002321
:1010800059F0D93309F022CFEFEFF7EE23E0E1502A
:10109000F0402040E1F718CF8C2F8F71A9CF0F932C
:1010A0001F93CF93DF93EC018F819885009761F0B8
:1010B0007CD78C0117D18CD0B801CE0131DEDF9105
:1010C000CF911F910F910895688179818D81BAD157
:1010D000F0CFCF93DF93EC018C81882381F0CE0198
:1010E00017DC81110FC0DED4882349F08D8188235D
:1010F00031F08091E00382FF02C082E0AFD5DF9142
:10110000CF910895CE01CBDFCE01C2DBF8CF88238B
:1011100011F0E5D47FC50895882311F0E6D47AC58F
:10112000089590E080E00E94C21E90E080E00E945E
:10113000E71EE2D46FC50E94E61FF3CFCAD4FBCFEF
:1011400092959F70963091F058F4925F9F70923014
:1011500058F4803F19F030F4883E30F481E008956F
:101160009A5FF4CF843FD1F380E00895883EB0F3D6
:10117000813FD1F7F3CFFC018481882351F087812F
:101180009085009711F011D7DBCF8081918151D1EB
:10119000FBCF80E00895A6E0B0E0E1EDF8E00C942C
:1011A0008E292696E2E00C94AA29A9E0B0E0EBEDA6
:1011B000F8E00C948C292996E4E00C94A829089571
:1011C000FECF0895FDDF9093660280936502089537
:1011D0000895F8CF08952091650230916602822B20
:1011E000932BF0CF209165023091660282239323E6
:1011F000E9CF209165023091660282279327E2CFE2
:10120000DECF0895FDCF0895FDDF909364028093B3
:101210006302089590E080E0F7CF009729F481E021
:10122000662371F080E00CC021E030E002C0220FA4
:10123000331F6A95E2F72823392381E0232B91F3AA
:101240000895682F8091630290916402E6CF21E0B7
:1012500030E0A90102C0440F551F8A95E2F7CA0188
:10126000D3CF21E030E002C0220F331F8A95E2F78E
:101270008091630290916402822B932BC5CF21E071
:1012800030E002C0220F331F8A95E2F72095309597
:10129000809163029091640282239323B5CF21E071
:1012A00030E002C0220F331F8A95E2F7809163027B
:1012B0009091640282279327A7CF209163023091F7
:1012C0006402822B932BA0CF2091630230916402A1
:1012D0008223932399CF2091630230916402822765
:1012E000932792CF0895262F277091E001C0990F80
:1012F0002A95EAF723E0769567952A95E1F7660F38
:10130000771F660F771FFA01E60FF71F50E040E0E6
:10131000682F70E08191DF0111979B01042E02C0BC
:10132000369527950A94E2F72170219528272923DD
:1013300028272C934F5F5F4F4430510559F708958C
:10134000A82FA77023E0969587952A95E1F7880F37
:10135000991F880F991FFB01E80FF91F50E040E02B
:1013600080E0219130E00A2E02C0369527950A943C
:10137000E2F721703327042E01C0220F0A94EAF706
:10138000822B4F5F5F4F4430510559F70895262F48
:10139000983068F4863058F4682F70E086E0989FA3
:1013A000600D711D11244BE452E0822F9CCF0895F3
:1013B000292F983058F4863048F490E06BE472E0BE
:1013C00036E0239F800D911D1124BACF80E008954F
:1013D000B0E0A0E0EEEEF9E00C9487297C010091EA
:1013E0006302109164028091650290916602082B5D
:1013F000192BCFE0D0E0CC24C394D12CBC2EC60155
:101400000C2E02C0880F991F0A94E2F780239123C3
:10141000892B49F4219790F7B12C8B2DCDB7DEB7EE
:10142000E9E00C94A329B7018C2FE0D6019791F342
:10143000F4CFCF93DF93EC01CBDFBE01D7D6DF91A2
:10144000CF9108951F93CF93DF93EB0190914A02C0
:10145000992331F0CB01EDDFDF91CF911F910895FA
:10146000882351F0CB01B4DF182F682FCE018FDF16
:10147000BE01812FBBD6F0CFCB019ADF182FF8CF5A
:10148000FF920F931F93CF93DF93C091670289E080
:10149000F82E809168028C1305C0CDB7DEB7E5E069
:1014A0000C94A729D0E0FC9EF001FD9EF00D1124C4
:1014B000E759FD4F0081118122813381448155819B
:1014C00066817781808571DE2196C770E2CF0F93A8
:1014D0001F930091B1021091B2022091B30230919A
:1014E000B4024091B5025091B6026091B70270917A
:1014F000B8028091B90259DE1F910F9108950F93A0
:101500001F93CF93DF938091B702807F09F04FC084
:101510008091B602882309F44AC0E0916702D09115
:1015200068021091B2020091B1024091B302509151
:10153000B4026091810170918201C9E0DE17B9F1B6
:101540008E2F90E0EC9FF0011124E759FD4F24818C
:10155000222391F1C89FF001C99FF00D1124DF01F2
:10156000A759BD4F11962C911197211325C02C918D
:10157000201322C015962C91159721111DC012968B
:101580002D913C91241B350B26173707A8F4809129
:10159000B7028F7080618093B702E159FD4F80815F
:1015A0008F708061808381EB92E093DD69DFDF9152
:1015B000CF911F910F910895FC013196E770BECF36
:1015C000482F209167029091680259E0291302C0C8
:1015D00080E0089530E0529FF001539FF00D1124F8
:1015E000E759FD4F8181681306C08081481303C00D
:1015F00085818111EECF2F5F3F4F2770E7CFA8E1A4
:10160000B0E0E5E0FBE00C9484298C0186E0F80171
:10161000DE01539601900D928A95E1F7D801149658
:101620008C9114971596EC90159791EBA92E92E05A
:10163000B92E9091B50291111AC08823A9F0EE201D
:1016400089F0C80198DDF82E882361F089E0F8015F
:10165000D50101900D928A95E1F7C501CFDA4FDFF0
:1016600036DF48C0C80135DDFF24F39443C0F801DC
:10167000C080D18082809380F090B6022091B30226
:101680003091B402A401421B530B9A014091810195
:1016900050918201FF2009F41EC12417350708F07C
:1016A000C0C0882339F19091B2028091B702282FEF
:1016B000207F09F069C09D1122C09091B102C9122A
:1016C0001EC04091B8025091B9022781308542175F
:1016D0005307A9F4E11052C08F7080618093B70264
:1016E000F6DE81EB92E0F5DC8091B702D801169628
:1016F0008C93F12C8F2D6896ECE00C94A029E110CE
:101700003DC06D2D8C2D5CDFE82E882361F081EBD0
:1017100092E0DFDC89E0E1EBF2E0DF011D928A95E7
:10172000E9F7D5DEE6CFCB8ADC8A8B899C8981DE1E
:10173000292F22952F70243058F49F70223080F08A
:10174000992391F0F8019681907F71F4FE2CD2CF0D
:101750002A5F2F70223060F0C801BBDCEF2CF6CF7F
:10176000992311F0882391F3805E883078F3F4CFC9
:10177000803F60F3815F833078F7E8CF8091B702D4
:1017800081608093B702B5CF9D111EC09091B102C8
:10179000C9121AC04091B8025091B90217962D9102
:1017A0003C9118974217530779F4E1100DC0169633
:1017B0008C93C8018EDC89E0F801A1EBB2E00190C6
:1017C0000D928A95E1F74CCFC801D5DC882309F446
:1017D00049CFEE2009F446CF8091B7028032B0F0B5
:1017E0002091B1023091B2023B872A879D868C8678
:1017F0009091B5029E871F86888B8091B802909148
:10180000B9029A8B898BCE010A9663DC89E0F801D4
:10181000A1EBB2E001900D928A95E1F770DE57DE00
:1018200023CF9091B702292F207F81F4682D9E8AC3
:101830008D8AA6017E899E2DAEDC81EB92E049DC8B
:1018400089E0F50111928A95E9F76BCF882309F4B5
:1018500051CF8091B2028D111BC08091B102C8128C
:1018600017C04091B8025091B90217962D913C9142
:1018700018974217530761F4E1100AC016969C931B
:10188000C80127DC89E0F50111928A95E9F732CF8A
:10189000C80171DC882309F4E5CEEE2009F4E2CE1C
:1018A0008091B702803208F4B1CF2091B10230911B
:1018B000B2023A8329839C828B829091B5029D83E8
:1018C0001E828F838091B8029091B9029987888790
:1018D000CE0101969ACF2417350708F046C0882319
:1018E00009F4C2CEFE2CEE2009F4BCCE8091B202E7
:1018F0008D112FC08091B102C8122BC04091B80247
:101900005091B90217968D919C91189748175907D5
:1019100001F52A3A3105A0F49091B70290FD10C06C
:10192000907F71F08091B70216968C931697903F36
:1019300009F43FCF982F907F905F8F70892B37CF1E
:1019400089E0F801A1EBB2E001900D928A95E1F7F0
:10195000D1CEC80110DC811159CF8091B7028160CE
:101960008093B702C801B5DBC5CE682D9E8A8D8AEB
:10197000A6017E899E2D0FDC89E0F50111928A95E2
:10198000E9F76ECEA2E1B0E0E8ECFCE00C948B2924
:101990000A871B872C873D874E875F87688B798BEB
:1019A0008A8BCE010A962BDE8823C1F04E85442314
:1019B00049F00A851B852C853D855F856889798975
:1019C0008A89F3DB89E0F82E8091670290916802A2
:1019D00089133BC06296E5E00C94A72989E0FE01DB
:1019E0003A96DE01119601900D928A95E1F78E8567
:1019F000882341F32091680230E0C9010196877085
:101A00009927409167024817190691F099E0929F33
:101A1000D001939FB00D1124A759BD4FFE013196FF
:101A200001900D929A95E1F78093680229DDCACF63
:101A300085DB109268021092670289E0E1EBF2E028
:101A4000DF011D928A95E9F7BDCF8F9DC00111245A
:101A500087599D4FD4DD882309F4BCCFE0916702FC
:101A6000FE9EF0011124E759FD4F00811181228172
:101A700033814481558166817781808596DB8091B1
:101A8000670290E0019687709927809367029CCF48
:101A90008091E20286958695869508958091E2026E
:101AA000877008959091E202977081E009F480E0D8
:101AB000089580910E03089590910E03892B8093D1
:101AC0000E030895809590910E03982390930E0332
:101AD000089510920E03089580910D03089590913A
:101AE0000D03892B80930D030895809590910D032C
:101AF000982390930D03089510920D0308958091FB
:101B0000E40208950895FECF08959091E302292FED
:101B1000282329F0809589238093E302F4CF089548
:101B20000895FECF08959091E402292F28232817C5
:101B300021F0982B9093E402F4CF08959091E40261
:101B4000292F282329F0809589238093E402E9CF67
:101B500008958091E402882321F01092E40280E04D
:101B6000E0CF0895CF93C0910E0380910D03C82B51
:101B70008091E402882329F0C82B0E940C1F811158
:101B8000E8DF8C2FCF910895CF93DF93C09185012B
:101B9000D0918601E7DF8883C0918501D0918601CD
:101BA00048E050E06AED72E0CE010E94B529892B31
:101BB00059F088E0FE01AAEDB2E001900D928A95FD
:101BC000E1F7CE010E94A91EDF91CF910895CF9336
:101BD000DF93C0918301D0918401C4DF8983C091D8
:101BE0008301D091840140E250E06AEB72E0CE01C3
:101BF0000E94B529892B59F080E2FE01AAEBB2E0E0
:101C000001900D928A95E1F7CE010E94B41EDF91FA
:101C1000CF9108950E943D20813029F48091DF0307
:101C200087FF01C0D4CFB0CF0895FECF0895909123
:101C3000E00392FF0EC098E0899F90011124622B6F
:101C40006093E2020EDB8091E2028695869586958E
:101C5000ECCF07CB1092E20280E0E7CF9091E20256
:101C6000809589238093E202282F277059F48917E1
:101C700049F09091E00392FF05C086958695869580
:101C8000FEDAE8CF08959091E00392FB222720F935
:101C9000281759F080FB92F99093E0038091DF03BD
:101CA0009091E00333D082E0D9CF08958091E00392
:101CB00082FB882780F991E08927E5CF81E0E3CF97
:101CC00080E0E1CF6FEF7FEF90E080E00C94012A9D
:101CD00090E080E00E94D32921E0853E9E4F09F0EC
:101CE00020E0822F089582E090E00C94CB2983E0DD
:101CF00090E00E94CB2990E00895682F83E090E067
:101D00000C94E72984E090E00C94D329BC0184E092
:101D100090E00C94012AAB01BC018FE090E00C94A0
:101D2000F929AB01BC0183E190E00C94F92960E052
:101D300070E0CB01F6CF60E070E0CB01ECDFF7CFD5
:101D4000A8E0B0E0E6EAFEE00C948E2965EE7EEFB6
:101D500090E080E00E94012A60E082E090E00E9432
:101D6000E72981E090E09093660280936502C5DFE9
:101D700060E074E184E090E00E94012A60E086E087
:101D800090E00E94E72960E087E090E00E94E72968
:101D900040E050E0BA0188E090E00E94F92960E05C
:101DA00083E290E00E94E72960E08CE090E00E94EE
:101DB000E72960E08DE090E00E94E72919821A820D
:101DC0001B821C821D821E821F82188648E050E002
:101DD00067E170E0CE0101960E94D82940E050E012
:101DE000BA018FE190E00E94F929A5DF2896E2E090
:101DF0000C94AA29A5CF0895682F8EE090E00C944A
:101E0000E729A6E0B0E0E7E0FFE00C948C290E940F
:101E1000DC208C0180910F039091100380179107B3
:101E200081F019821A820E94DC20682F49815A8130
:101E3000792F80E090E00E94CD051093100300936D
:101E40000F032696E4E00C94A829E8D260931D03C2
:101E500070931E0380931F039093200360931903D4
:101E600070931A0380931B0390931C0308950895A5
:101E70000895FDCF08950895FECF089581E0089557
:101E800087E292E1DBD6F4DFF4CF99C40895089598
:101E90000895FDDFFDCF1CDF811101C0ABDF23DF23
:101EA000809321032FDF9093E0038093DF03E9D633
:101EB0001EDF8FD98091630290916402A3C90E94B2
:101EC000D32087D281D4D9D3E6DF0E94AD050E940A
:101ED000781A87D4D1CF73D4882329F00E94721E38
:101EE0000E948A18A5C70895A6E0B0E0EAE7FFE0DF
:101EF0000C948529C3DF811108C083DFECDF0E94C9
:101F0000B5052696EBE00C94A129D6D381E1A82E45
:101F100083E0B82E750110E0F70101917F01812F58
:101F2000B0D21F5F183009F43DC00817A9F38091A3
:101F3000210381FDACD2A9DFC82E10E0992493942F
:101F4000812F9FD2082FF50181915F01081729F198
:101F5000D02ED826F12CEE24E3948D2D8E21A9F0DD
:101F6000CC2099F0F9821A830E94DC209C838B8319
:101F70009D8291E0802F8E2109F490E049815A8161
:101F80006B817C818D810E94CD05F394EE0CF6E08F
:101F9000FF12E3CFF501319700831F5F183081F600
:101FA00054DFACCF0813C3CFA8CF1F93CF93DF93D9
:101FB0001FD1EC01C11580E5D807F0F5C11580E40B
:101FC000D80708F09AC0C03ED10520F5CD3CD10518
:101FD00008F082C0C83AD10578F4C53AD10508F0B6
:101FE00073C0C130D10519F1209709F1C430D10572
:101FF000F0F4D0E0C0E01BC0C33CD105D0F7C85A14
:10200000D0E0CC0FDD1FC051DE4F0990D881C02D2C
:10201000D4640DC0C11580E2D80708F0CCC0C1154A
:1020200081E0D80708F05AC0C83ED10510F7CE01AC
:10203000DF91CF911F910895C03682E5D80718F53A
:10204000C03482E5D80708F068C0C03282E5D807FE
:1020500008F05CC0C11582E5D80708F493C02C2FA6
:102060002695269580E2289F900111248C2F83705D
:10207000C1E0D0E002C0CC0FDD1F8A95E2F7C22B91
:10208000D32BDD68D4CFC03A82E5D80760F4C038DE
:1020900082E5D80708F456C0CF71D0E0DC2FCC27FA
:1020A000C46FD06AC4CFC03C82E5D80708F45FC0D3
:1020B000C03E82E5D80708F09CCFDC2FCC27CC2788
:1020C000DF71C06FD06AB3CFC55AD0E0CA5DDD4FB3
:1020D000C881D0E0D064ABCFD065A9CF8D2F2AD1F5
:1020E000182FCE01992784D0C12FD0E0DC2FCC2728
:1020F000CC27DF71C82BD92B9ACFCE01992778D066
:10210000CC27DF70C82BD92BD06A91CFCF71D0E00C
:10211000DC2FCC27C16FD06A8ACF2C2F269526952D
:10212000277080E2289F900111248C2F8370C1E0DA
:10213000D0E002C0CC0FDD1F8A95E2F7C22BD32B73
:10214000DC6875CF2C2F26952695277080E2289F76
:10215000900111248C2F8370C1E0D0E002C0CC0F1D
:10216000DD1F8A95E2F7C22BD32BDA6860CF8C2F64
:102170008F71E0D0C82FD0E0DC2FCC27CC27DF71C7
:10218000D06255CF8C2F8F71D5D055E0D695C7959D
:102190005A95E1F7CF70D0E0DC2FCC27282F30E024
:1021A00084FF05C044E0220F331F4A95E1F7C22B9C
:1021B000D32BD0693CCF8D2F8F71BCD0182FCE017F
:1021C000992716D0C12FD0E0DC2FCC27CC27DF7188
:1021D000C82BD92BD5CF462F783028F4663018F489
:1021E000672F0C946C0390E080E00895F4DFDDCE5F
:1021F00082389105B9F1B0F48133910509F47DC0BD
:1022000048F48932910509F46DC08A32910509F4C8
:102210007BC008958533910509F45FC0893391052A
:1022200009F10895833E9105D9F138F4803E910576
:1022300029F1823E910579F10895863E9105D9F103
:10224000873E910509F43EC0843E910541F52091F9
:10225000E00321FF24C08091DF0384FD19C087EED5
:1022600090E008952091DF03237009F05AC0209177
:10227000E00323FF14C089E290E008952091DF037A
:1022800020FD38C03091E00330FF09C024FF43C077
:1022900090E080E008952091DF0322FDF7CF0895BC
:1022A0002091DF0322FD3AC03091E00330FD39C0B8
:1022B00024FFF5CFEDCF2091DF0323FFF0CF24FDE6
:1022C000E7CFCDCF2091DF0323FD2EC03091E00377
:1022D00031FFEECF84EE90E008952091DF0325FFDB
:1022E000DECFC9CF2091DF0325FD21C02091E0037F
:1022F00023FFD5CF89E390E0D2CF2091DF0326FFE3
:10230000CECF8AE290E008952091DF0326FFC7CF69
:1023100081E390E0089583EE90E0089582EE90E0EE
:10232000089580EE90E0089586EE90E0089585E3AC
:1023300090E008959091DF0392FF10C041E0282FB4
:102340002471243009F040E031E0282F2871283032
:1023500009F030E0431711F02CE0822793FF10C002
:1023600041E0282F2471243109F040E031E0282F8A
:102370002871283109F030E0431711F02CE0822752
:102380003091E00330FF10C051E0282F217121303F
:1023900009F050E041E0282F2871283009F040E092
:1023A000541711F029E0822731FF10C041E0282F97
:1023B0002171213109F040E031E0282F28712831C6
:1023C00009F030E0431711F029E0822794FD877E61
:1023D00008951092E1031092E2031092E303109229
:1023E000E4030895CF92DF92EF92FF926B017C019C
:1023F000E6D181110EC00E94E820C61AD70AE80A69
:10240000F90AC092E103D092E203E092E303F09272
:10241000E403FF90EF90DF90CF9008950F931F9308
:10242000CED1882329F00E94E8201F910F910895B2
:102430000E94E8200091E1031091E2032091E30360
:102440003091E403600F711F821F931FEECF80E075
:102450000895CF939C01205E3245C1E020323105C2
:1024600038F4FB01C581C11103C08F710E945C0467
:102470008C2FCF9108950895FECF08950895FECF33
:102480000895E82FF0E0E251FC4F8081089508950F
:1024900080EA8A95F1F7089500C00895F9CF08956C
:1024A0000895FECF0895EF92FF921F93CF93DF938D
:1024B00000D000D0CDB7DEB782D1182F6091F603DF
:1024C000882309F445C019821A821B821C82862F38
:1024D00090E09E012F5F3F4F7901B90182519C4FDF
:1024E0008CD18823E1F08091E50390E044E050E056
:1024F000B70182519C4F0E94B52921E0209322030D
:10250000892BC1F410E0BBDF812F0F900F900F904B
:102510000F90DF91CF911F91FF90EF9008958091E0
:102520002203882379F384E0F70111928A95E9F771
:1025300010922203E091E503F0E0E251FC4F898123
:102540009A81AB81BC8180839183A283B383DBCFEB
:1025500070E062517C4F8091E50390E082519C4F86
:10256000D1D19FDFD1CFF894E82FE295EF70F0E062
:1025700031A1282F2F7081E090E001C0880F2A95AB
:10258000EAF7982F9095932391A392A1892B82A388
:1025900078940895CF93DF9384E9E5DF86E6E3DF5F
:1025A00087E9E1DF86ECDFDFC9E2D2E089918F3F86
:1025B00009F0D9DF82E0CF32D807C1F7DF91CF91A0
:1025C0000895B0E0A0E0E7EEF2E10C948829EC0178
:1025D000D62E062F10E0C801815D9D4F7C01FC01C5
:1025E00080818F3F09F442C0F894E82FE295EF70A4
:1025F000F0E091A18F7021E030E001C0220F8A95B8
:10260000EAF7892F822B81A382A12095282322A378
:10261000789442DFE9E2F2E04FE252E031E0C12C8F
:1026200021912F3F41F1A22FA295AF70B0E090967B
:102630008C9190E02F7002C0959587952A95E2F7CE
:1026400080FD19C0832FC82A330F4E175F0741F74B
:10265000F70180818F3F09F086DF61E0C11001C082
:1026600060E08D2D1BDFC00FD11FC882CDB7DEB754
:10267000E8E00C94A42980E0E6CF80918701809166
:10268000870194E0811190E09093F60384E0891B28
:102690008093E5037FDF88E0EEEEF3E0DF01982F23
:1026A0001D929A95E9F7E6EEF3E0DF011D928A9517
:1026B000E9F784E03CD0E0CEA8E0B0E0E2E6F3E168
:1026C0000C948B298E010F5F1F4F88E0F801119247
:1026D0008A95E9F7F12C6F2DC80173DFF394F4E0CC
:1026E000FF12F9CF48E050E0B80186EE93E00E9477
:1026F000B52921E0009709F420E0892B41F088E01A
:10270000F801A6EEB3E001900D928A95E1F7609191
:10271000F60370E062517C4F44E086EE93E008D00F
:10272000182FC1DE812B2896E5E00C94A729089587
:10273000B0E0A0E0EEE9F3E10C9488296C017B01A4
:10274000042FC22F222379F081E0809325030E9479
:10275000DC20909324038093230380E0CDB7DEB781
:10276000E8E00C94A429D0912503DD23B1F38091F6
:102770002303909124030E94F420059770F310E046
:10278000A801B601C7010E94B529892B31F0A80123
:10279000B601C7010E94C229CD2F109225038C2FAC
:1027A000DDCFCF930E944929C82F811102C00E941A
:1027B00045298C2FCF910895809129030895809108
:1027C00028030895FCCF0895ECDF80932803FADFF7
:1027D00080932903F1DF80938701F1DF811142C0EB
:1027E0000895EDDF811101C040C0089581E090910E
:1027F0002A039A3008F080E008950F931F93CF9337
:10280000DF93EC018B0180912A038A30B0F4B80188
:10281000CE0176D0C82F811122C080912A038F3F2C
:10282000B9F40E94DC2090932703809326038C2F19
:10283000DF91CF911F910F91089580912603909180
:1028400027030E94F420843F914008F7C0E0EFCFB7
:102850008F5F80932A038A3020F7C1E0E8CF10927F
:102860002A03E5CF0C94B52108950C94B82108955E
:10287000B0E0A0E0EEE3F4E10C9489297901C82FDF
:10288000880FDD0B41155105A9F0FE0193E0EE0F15
:10289000FF1F9A95E1F7E857FE4F81819281855D90
:1028A0009C4F208130E04217530708F49A01A90198
:1028B0000E94C229CE010E949822D82E8823D1F0EE
:1028C00001151105B9F083E0CC0FDD1F8A95E1F702
:1028D000FE01E857FE4F438150E00417150708F446
:1028E000A801C857DE4F6C817D81655D7C4FC701B3
:1028F0000E94C2298D2DCDB7DEB7E7E00C94A52943
:102900002FC108954BC10895A4E0B0E0EAE8F4E1D6
:102910000C948C29609148037091490380914A037B
:1029200090914B030E94032111E0643671058105EB
:10293000910508F173DD6E5F7F4F8F4F9F4F698365
:102940007A838B839C8310E000E030E020E044E059
:1029500050E0BE016F5F7F4F83E08ADF182F88232E
:1029600051F00E94E82060934803709349038093DC
:102970004A0390934B03812F2496E4E00C94A829FA
:10298000B0E0A0E0E6ECF4E10C9486297C015B0168
:102990006A012CDF01E010E0882311F00AE010E06A
:1029A000C1E0D0E0B501C701F6010995811104C06D
:1029B00021960C171D072CF4CDB7DEB7EAE00C9476
:1029C000A229CC9F9001CD9F300D300D112490E0B5
:1029D00080E045E34A95F1F70000019682179307DE
:1029E000C1F7E0CF0F931F93CF93DF93EC0160917A
:1029F0003302709134026B5F7F4F44E050E00E94DD
:102A0000B5298C0160914403709145038091460380
:102A1000909147030E940321643671058105910559
:102A200010F4012BE1F010E000E030E020E044E0A1
:102A300050E0BE0182E01CDFC82F882351F00E94C5
:102A4000E82060934403709345038093460390937A
:102A500047038C2FDF91CF911F910F910895C1E013
:102A6000F8CFA5E0B0E0E7E3F5E10C9486295B013F
:102A7000E0903302F090340201E010E09E012B5F01
:102A80003F4F50E040E070E060E080E0F1DE182F62
:102A9000882309F448C067018FEFC81AD80A6091EB
:102AA00040037091410380914203909143030E943F
:102AB0000321643671058105910570F104E010E091
:102AC0009E012F5F3F4F50E040E070E060E081E00A
:102AD000CFDEF82E64E070E0C6010BD511E09D81D9
:102AE000981310E01F2151F10E94E82060934003E9
:102AF00070934103809342039093430389819A81A9
:102B0000AB81BC8180933C0390933D03A0933E0333
:102B1000B0933F0311E012C064E070E0C601E9D455
:102B20009D818913CBCFF70181819281A381B481EB
:102B300089839A83AB83BC831111E0CF80913C03DE
:102B400090913D03A0913E03B0913F03F501808336
:102B50009183A283B383812F2596EAE00C94A22966
:102B60000F931F93CF93DF93EC018B0141E355E16A
:102B700007DF811106C080E0DF91CF911F910F9197
:102B8000089542EF54E1B801CE01FADE882399F3AB
:102B900044E854E1B801CE01F3DEEECF0F931F936A
:102BA000CF93DF938C01C0913302D0913402CE01D8
:102BB000019624E0FB01DC0101900D922A95E1F7DA
:102BC00064E070E096D48883FE01359684E0D801F5
:102BD00001900D928A95E1F769857A858B859C85B0
:102BE000009138031091390320913A0330913B034F
:102BF000601771078207930749F060933803709359
:102C0000390380933A0390933B03ECDBDF91CF9140
:102C10001F910F91089568C908950E9476200E941F
:102C20002C242ED90E9444244AD90E944D240E946B
:102C30005024F1DF0E9466242CD9F9CF90933702FB
:102C40008093360208953EC80895B6DD811105C00F
:102C500084E017DC86958170089580E0FACF2CDD42
:102C60002FEF86E791E0215080409040E1F700C0CF
:102C7000000022DDEADF882319F0E5DF0C94432110
:102C80000895EDCF08958832910548F48E3191056D
:102C9000A0F4049750F082E00E946F0D0EC08D32B8
:102CA0009105C9F320F48A9741F080E008958C34AF
:102CB000910519F08D329240C1F781E00895EF92AD
:102CC000FF920F931F93CF93DF93EC017B01C337E8
:102CD0008CE7D80761F4FB011581112311F0B9D0FD
:102CE00010E0812FCDB7DEB7E6E00C94A6290E9454
:102CF000590D082F0E947F0D082B7CD0811107C031
:102D0000023211F011E0EDCF79D0FAD6FBCF69D0C5
:102D1000F70115811123B1F30D7909F054C0C034C6
:102D2000F2E5DF0720F5C11582E5D807D0F6C11519
:102D3000E0E4DE0790F4C115F0E2DF07B0F5C63E2F
:102D4000D10579F20E947C0DCE019DDFC82F88232A
:102D5000D1F10E940A0E1C2FC4CFC11580E5D807FF
:102D600088F7F7018681807F69F2DD27EBCFC03ECF
:102D7000E2E5DE07A0F4C03CF2E5DF0708F0B1CFE2
:102D8000C03682E5D807F0F2C03AE2E5DE0708F483
:102D9000A8CFC43BF2E5DF0709F4A3CFD3CFCE0120
:102DA00087579C47029770F69CCFF7018681807FFA
:102DB000E1F68D2F8F71823189F038F4C1EED0E0C9
:102DC000823009F4BFCF28D08CCF843109F489CF69
:102DD000C6EED2E1863109F4B5CFF5CFC5EED0E02D
:102DE000B1CF0E94DC2088579C4E90934D03809376
:102DF0004C03089580914E030895089580914E03E9
:102E0000811109C00E94690D0E94A90DEADF81E0CD
:102E100080934E03F2CF089580914E03882339F0BA
:102E200082E20E948C0810924E0380E0E6CF089563
:102E300080914E03882361F00E94DC2020914C0396
:102E400030914D03821B930B8F3F9F4708F4E4CFD3
:102E5000089580914E03882309F0DECFCFCFEF9203
:102E6000FF920F931F93CF93DF938091C203882328
:102E700061F0E0914F038DE0F82E8091C203E817D6
:102E800048F01092C20310924F03CDB7DEB7E6E0D0
:102E90000C94A629EE24E394EE0EE0924F03CE2F7D
:102EA000D0E0EF9DF0011124E65AFC4F8481882385
:102EB000B1F087819085892BA1F4818592858F3F20
:102EC000980779F061E00E946102FC9EF001FD9E8E
:102ED000F00D1124E65AFC4F14820E947C0DEE2D59
:102EE000CCCF00811181228133814481558166815B
:102EF000778180850E94C20CE8CF0895CF93DF933D
:102F00001092C4031092C303D0E0C0E00E946E038D
:102F1000C817D90718F0DF91CF910895CE010E940C
:102F20007903FC018581811102C0148216822196E9
:102F3000EDCF1F93CF93DF93109158032091590346
:102F40002117D1F0C12FD0E0FE01EE0FFF1FE05B93
:102F5000FC4F408151814817590791F40E94790331
:102F600021E0FC01248380915803811305C0219640
:102F7000C370DD27C0935803DF91CF911F9108954F
:102F800021961C2F1370DCCFB0E0A0E0EAECF7E153
:102F90000C948329EB012C81211152C07090C20343
:102FA000AAE5B3E030E020E0812C61E070E0271575
:102FB00008F045C01B96CD90DC901C97A880B98086
:102FC0004FEF5FEF912CE92CF12CF701EE0FFF1F73
:102FD000EA0DFB1D05911491C016D10609F4A70155
:102FE0000115110511F09394EECF4F3F540781F175
:102FF000FB0102C0EE0FFF1F4A95E2F78E2AAB01DC
:10300000092C02C0440F551F0A94E2F741505109A0
:1030100084161506D1F44A815B816DE0629FF00150
:10302000639FF00D1124E65AFC4F5087478324E03C
:103030002483108211829287818721E02D8379DF9A
:10304000CDB7DEB7EDE00C949F2914961C9214972F
:103050002F5F3F4F1D96ABCF0F931F93CF93DF93FF
:10306000C0915803809159038C1307C0F8DE46DFE6
:10307000DF91CF911F910F910895D0E08E01000F45
:10308000111F005B1C4FF801808191810E94790320
:10309000BC01F8018081918177DF2196C370E2CF76
:1030A000EF92FF921F93CF93DF93FC012081318138
:1030B00010E040E050E0E52FF0E0EE0FFF1FE20FE0
:1030C000F31FA591B4911097B9F0FB01C081D18194
:1030D00040E005C0AE15BF0509F411E04F5FE42FD5
:1030E000F0E0EE0FFF1FEC0FFD1FE590F490E114F0
:1030F000F10481F75F5FDFCF112349F0451708F432
:10310000CB01DF91CF911F91FF90EF90089590E058
:1031100080E0F7CF8091A801882329F18091C50331
:103120009091C6030097F9F00E94F4202091C30308
:103130003091C40328173907B0F490915803809157
:103140005903981751F088DF1092C4031092C303FB
:103150001092C6031092C503089581DE1092C60333
:103160001092C503CBCE08951092C6031092C503EA
:103170001092A8018091590380935803BFDE6FCE4F
:103180008091A801882309F0EFCF81E08093A80106
:103190000895ACE0B0E0EFECF8E10C947E294C012E
:1031A0006B0180352CE7920761F4FB011581112337
:1031B000D9F081E08093A801812F2C96E2E10C9454
:1031C0009A298135FCE79F0731F4FB011581112312
:1031D00059F0CADFF1CF82359C4731F4FB011581EC
:1031E000112311F0CDDFE8CF20916302309164020A
:1031F0008091650290916602822B932B0E94790543
:10320000182F7BDE181731F0F601608171810E9462
:10321000EB104C01B12CA12C1C8666246394712CFC
:10322000CE0101969B878A870E946E03A816B90675
:10323000B8F1F6018581882309F44BC1FC85FF2391
:1032400009F447C1B9D79093C6038093C503809111
:10325000C203883008F591E0980F9093C20399E07B
:10326000F601DE01119601900D929A95E1F72DE09D
:10327000829FC0011124865A9C4F29E0FE0131969D
:10328000DC0101900D922A95E1F72FEF3FEFFC0151
:1032900032872187948683861C85109511708CCF88
:1032A000C5010E9479037C01FC01408151814424C5
:1032B0004A94542C60E0262F30E0F901EE0FFF1FF6
:1032C000E40FF51F859194918816990609F4290158
:1032D000892B11F06F5FEFCF80E0FFEF4F165F0695
:1032E00009F445C0F70144813090A801832D4111B4
:1032F00080E0F82FF1703F2EF70125808681F601DE
:103300009581992309F483C0332009F480C02110EA
:1033100015C09301042C01C0220F0A94EAF7822BF6
:10332000F70186838091C3039091C403C29730F460
:1033300082E390E09093C4038093C303C30102C06F
:10334000880F991F6A95E2F70197F70126812817E0
:10335000190681F58091C5039091C603009771F01D
:1033600043D7C39758F021E0F701248381E0FC851F
:10337000F82BFC872FEFA21AB20A56CF20905803E1
:1033800090E080E020915903221216C0E816F90659
:1033900089F0422C512CF201EE0FFF1FE05BFC4F35
:1033A000B182A0822FEF421A520A83E048225524AC
:1033B00040925903832DDBCF422C512CF201EE0FAA
:1033C000FF1FE05BFC4F808191810E9479038C019B
:1033D000B70166DE0097A1F021E0FC012483E81626
:1033E000F90641F32091580322120AC00817190761
:1033F00039F492012F5F3F4F2370332720935803F6
:10340000EFEF4E1A5E0AF42DF3702F2EBBCF90E033
:1034100021101EC0930102C0220F331F6A95E2F7EC
:10342000215031092817390729F4442309F44FC0E2
:10343000C5017FDDC301042C01C0880F0A94EAF79F
:10344000982F9095F701868189238683322CB2CFFD
:10345000AC01042C02C0559547950A94E2F7BA01D5
:10346000617077279C012150310982239323892B96
:1034700051F5672B41F1F70182819381892BF1F09E
:10348000EA85FB8527E011922A95E9F795D6282F42
:103490008B839C8384E08D83F70182819381782FD5
:1034A0008887998709811A813C8144E05E816F8118
:1034B000892F0E94C20CF7011582BCCF60E0C501C4
:1034C0000E946102F8CFF42FF1702F2EB3CF232C7E
:1034D000B1CF9091580380915903981711F0BCDD3A
:1034E000DBCEBDDC1092C6031092C50307DDD4CE3F
:1034F0000895FC01680F791F8FEF91E36E177F0726
:1035000009F408952191822728E030E087FF06C062
:10351000880F892721503109C9F7F0CF880FFACFDA
:103520009C01FB018581882359F12137FCE73F0786
:10353000B9F022379CE73907E9F020373C4709F515
:1035400060E280918101909182010E945905FC0105
:10355000019620812032D9F3CF0126D280E0089550
:1035600080918101909182010596909382018093D0
:103570008101F4CF80918101909182010597F5CF6F
:1035800081E00895CF93DF93EB0186319C4701F5ED
:103590000E94590D9D81992391F08A7A91E009F456
:1035A00090E09093C703811108C089E2E1D40E94A2
:1035B0000A0E80E0DF91CF91089585E3F7CF8091E7
:1035C000C703811103C089E2EAD4F1CF85E3FCCFC0
:1035D00081E0F0CFCF93DF93EC01FB01858188235D
:1035E00009F4D2C09E0130572332310508F0B2C031
:1035F0000E94820E9093E0038093DF03FE01E1506E
:10360000F047E232F10520F4E15DF54D0C947829A4
:103610008091DF0381608093DF0393C08091E0039A
:1036200088608093E0038DC08091DF038260F3CFD8
:103630008091DF038460EFCF8091DF038860EBCF60
:103640008091E0038160EDCF8091E0038260E9CF5B
:103650008091DF038061DFCF8091DF038062DBCF69
:103660008091DF038064D7CF0E949E088091DF03A2
:103670008068D1CF8091DF038C60CDCF8091E00353
:103680008360CFCF8091DF038E7FC5CF8091E00331
:10369000877FC7CF8091DF038D7FBDCF8091DF0310
:1036A0008B7FB9CF8091DF03877FB5CF8091E00317
:1036B0008E7FB7CF8091E0038D7FB3CF8091DF0302
:1036C0008F7EA9CF8091DF038F7DA5CF8091DF030F
:1036D0008F7BA1CF0E949E088091DF038F779BCFC5
:1036E0008091DF03837F97CF8091E0038C7F99CF18
:1036F0008091DF0382FB992790F921E0922790FBCC
:1037000082F990FB83F987CF8091E003982F909501
:1037100091708E7F892B90FB81F983CF9091DF038D
:10372000892F8F7B96FF806476CF0E949E089091B0
:10373000DF03892F97FB87F980586DCF81E00E94C6
:10374000FC0E8091DF039091E0030E94860E0E94A0
:103750009E0880E0DF91CF91089580E0F0CF9091B6
:10376000DF03892F8F7E94FF806155CF9091DF0317
:10377000892F8E7F90FF81604ECF9091E003892F3B
:10378000877F93FF88604DCF81E0E4CFB0E0A0E079
:10379000ECECFBE10C948729E82FF0E0EE56FD4FAE
:1037A000B490282F26952695269530E0F901EE5CF9
:1037B000FC4F0491877010E0082E02C01595079504
:1037C0000A94E2F701701127F901EE5DFC4FE490D5
:1037D000F12C082E02C0F594E7940A94E2F791E0E8
:1037E000E922FF24F901EE5EFC4FC491D0E002C053
:1037F000D595C7958A95E2F7C170DD27C62ED12CE5
:103800000115110549F5E114F10431F086EE0E942D
:103810000606C601009771F5B6018B2D0E94690658
:10382000C601009779F5E114F104A1F50115110520
:1038300031F081EE0E944306C6010097C9F5CD2BF9
:1038400031F08CE20E947F06C114D104C9F5CDB7D6
:10385000DEB7E9E00C94A32981EE0E940606C601BA
:10386000009789F2EFE9FFE03197F1F700C000001F
:103870000197F6CFEFE9FFE03197F1F700C00000C4
:103880000197C8CFEFE9FFE03197F1F700C00000E2
:103890000197C7CF86EE0E944306C601009731F21A
:1038A000EFE9FFE03197F1F700C000000197F6CF94
:1038B000EFE9FFE03197F1F700C000000197BDCFBD
:1038C0008FE99FE00197F1F700C0000091E0C91A6D
:1038D000D108BACFEF92FF920F931F93CF93DF934C
:1038E000EC01162F0AE08881882309F458C0813042
:1038F00009F052C08981813071F47E0182E0E80EC6
:10390000F11C8A810E947F06E701812F90E00097D9
:10391000D9F52196E8CF823041F47E01E2E0EE0E47
:10392000F11C8A810E940606EFCF833041F47E01AC
:10393000F2E0EF0EF11C8A810E944306E5CF84304D
:1039400011F02196E2CF2A81229690E080E0AE012C
:103950004F5F5F4F2053330B2A30310550F00097F3
:10396000A1F2EFE9FFE03197F1F700C00000019705
:10397000F6CF089FB001099F700D1124C901860F71
:10398000971F2981EA01E3CFEFE9FFE03197F1F7D3
:1039900000C000000197BBCF612FF8DEBACFCDB7D2
:1039A000DEB7E6E00C94A62960E094CF0F931F9356
:1039B000CF93DF93C42FD22FFC0185818823C1F0E0
:1039C0004093CA03F9D39093C9038093C80380E25C
:1039D0008C0F883040F4C77081E001C0880FCA9511
:1039E000EAF70E948606DF91CF911F910F9108950B
:1039F0001091CA03141335C08091C8039091C90374
:103A0000F3D320918101309182018217930748F509
:103A1000C0E2CD0F1D17B9F080E2810F883040F46D
:103A2000177081E001C0880F1A95EAF70E948B0693
:103A3000C83048F481E09D2F977001C0880F9A9597
:103A4000EAF70E948606802F0E947F06C83058F64B
:103A5000D77081E001C0880FDA95EAF70E948B06E3
:103A6000C2CF80E28C0F883008F0BDCFC77081E0F4
:103A700001C0880FCA95EAF7F1CF0F93DB01885197
:103A80009C478730910598F5FC01EF5AF54D0C9451
:103A9000782906E221EE41EE6AE17CE7CD0186DF7E
:103AA00080E00F91089507E225EE45EE6BE17CE79B
:103AB000F5CF06E221EE40EE68E17CE7EFCF07E2CA
:103AC00025EE44EE69E17CE7E9CF06E221EE42EE25
:103AD0006CE17CE7E3CF07E225EE46EE6DE17CE7A3
:103AE000DDCF08E221E045EE6EE17CE7D7CF159609
:103AF0008C91882319F01092CA03D3CF81E0D1CFE3
:103B00001092CA0308954115510511F0FA01099563
:103B10000895CF93DF93EC014A855B856E857F85A1
:103B2000F2DF8B810E94750D8C810E94620D0E94D4
:103B30000A0E86E0FE0111928A95E9F7DF91CF9196
:103B40000895CF93DF93EC018D8181FD10C08260D9
:103B50008D838B810E946F0D8C810E945C0D0E9471
:103B60000A0E488559856E857F85CE01CCDF10927F
:103B7000CE031092CD038D8180FD02C0CE01C9DF3E
:103B8000DF91CF910895CF93DF93EC018A8182304A
:103B900041F4FB01828193810E94C8038D81826080
:103BA0008D83DF91CF910895FB01808191810C94E9
:103BB000C803FC018281813031F4FB018081918155
:103BC0000C94DC0308958230E9F7FB018281938134
:103BD000F7CF0F931F93CF938C01FB01C581CC23AB
:103BE000A9F08091CD039091CE030097A1F08017AA
:103BF000910789F099270E948C03FC01258124609C
:103C00002583118300839DDF0E947C0D8C2FCF9133
:103C10001F910F910895C0E0F9CFEF92FF920F939B
:103C20001F93CF93DF937C018B0197558F3F9105B5
:103C300019F010F011E036C00E947B039701332782
:103C40002817390708F04CC0C9010E948C03EC0109
:103C5000F80115818D8110FB80F98D83112341F1CD
:103C6000ABD29093CC038093CB038A818F5F8A83FE
:103C70000E94590D8B830E946C0D9B81892B8B8335
:103C80000E947F0D8C834E815F816E857F85CE0182
:103C90003ADF8D8181FF02C0F12CE12CF092CE033E
:103CA000E092CD03812FCDB7DEB7E6E00C94A629D4
:103CB0004C855D856E857F85CE0125DF8D8181FFF9
:103CC000B9CFCE0126DF8091CD039091CE038E1522
:103CD0009F0509F0AFCF1092CE031092CD03AACF6B
:103CE00010E0E0CF8091CD039091CE03892BB9F005
:103CF0008091CB039091CC0377D2209181013091B8
:103D000082012817390758F48091CD039091CE0392
:103D100099270E948C03FC01258122FF12CF089570
:103D20009093D5038093D40308950E94DF138111EB
:103D300003C08091CF030895E091D403F091D5039F
:103D4000309729F00190F081E02D0995089580E0E9
:103D50000895E091D403F091D503309721F00280CB
:103D6000F381E02D09950895E091D403F091D503F6
:103D7000309739F026E0DC012C930480F581E02DAA
:103D800009950895A3E0B0E0E8ECFEE10C948E29DB
:103D90002091D2033091D30328173907A1F09093D3
:103DA000D3038093D203E091D403F091D5033097ED
:103DB00051F023E029839B838A830084F185E02DE1
:103DC000CE01019609952396E2E00C94AA29A3E07E
:103DD000B0E0EDEEFEE10C948E292091D0033091FD
:103DE000D10328173907A1F09093D1038093D00312
:103DF000E091D403F091D503309751F024E029836A
:103E00009B838A830084F185E02DCE01019609957C
:103E10002396E2E00C94AA29CF93DF93C091850109
:103E2000D0918601229629D1813081F48091DF03DF
:103E300087FF0CC0C0918301D091840122969EE13E
:103E400080E0915028F4DF91CF91089596E0F8CF6B
:103E500029912223B1F38F5FF4CFCF93C82F811123
:103E600002C080E023C009D1813011F58091DF03C9
:103E700087FF1EC0EC2FE695E695E695EE3188F7B4
:103E80008091830190918401E80FF92FF11D228127
:103E900030E0C77081E090E002C0880F991FCA959A
:103EA000E2F72823392381E0232BD9F2CF9108951B
:103EB0008091850190918601FC01329608962191AE
:103EC0002C1721F0E817F907D1F7CBCF81E0EECF1F
:103ED0009C01FC0132969FEF80E04191461751F022
:103EE0009F3F19F4411101C0982F8F5F8630A9F7C9
:103EF0009F3F09F40895290F311D97FD3A95F90167
:103F000062830895FC01329608962191261303C01E
:103F1000DF0111971C92E817F907B9F70895E62F0A
:103F2000E695E695E695EE3168F4E80FF92FF11D78
:103F3000677021E030E001C0220F6A95EAF78281C4
:103F4000822B82830895E62FE695E695E695EE317D
:103F500070F4E80FF92FF11D677021E030E001C027
:103F6000220F6A95EAF720958281282322830895FB
:103F7000CF93C82F82D06C2F813059F48091DF030A
:103F800087FF07C08091830190918401C8DFCF91A2
:103F9000089580918501909186019ADFF8CFCF93A3
:103FA000C82F6BD06C2F813059F48091DF0387FFCD
:103FB00007C08091830190918401C5DFCF9108955E
:103FC00080918501909186019DDFF8CF56D0813098
:103FD00079F48091DF0387FF0BC0E0918301F091BA
:103FE000840132968EE1DF011D928A95E9F70895EA
:103FF000E0918501F0918601329686E0F4CF089534
:10400000FECF089581110CC081E08093AC016091D6
:10401000A9017091AA018091AB019091AC01F0CF00
:1040200082E0F3CF83E08093AC016091A9017091AD
:10403000AA018091AB019091AC01E2CFE3CF08954A
:1040400081E08093AC016091A9017091AA018091F7
:10405000AB019091AC01D4CFF3CF089591E08111E1
:1040600001C090E09093AB016091A9017091AA0109
:104070008091AB019091AC01C3CF8091AB010895C9
:104080008093AA016091A9017091AA018091AB016E
:104090009091AC01B5CF8091AA0108958093A901B8
:1040A0006091A9017091AA018091AB019091AC013E
:1040B000A7CF8091A901089508950895FECF08958E
:1040C00008950895F9CF0895CF93FADF0E945C1305
:1040D000F8DFC0E08C2F0E944112811105C0CF5F34
:1040E000C830C1F7CF91089581E0FCCF85B78068D3
:1040F00085BF85B7806885BF08951F921FB61F9240
:1041000011248F939F93AF93BF938091D603811116
:1041100013C08091F7039091F803A091F903B09137
:10412000FA034196A11DB11D8093F7039093F80304
:10413000A093F903B093FA03BF91AF919F918F9130
:104140001F901FBE1F9018958091FF03843031F19E
:104150000E94FB041092D60388E190E020E40FB6A1
:10416000F894A895809360000FBE2093600083B7F9
:10417000817F846083BF83B7816083BF7894889593
:1041800083B78E7F83BF0FB6F894A89580916000A7
:10419000886180936000109260000FBE08950E94B5
:1041A0009E080C94FE0482E084BD93E095BD9AEFD6
:1041B00097BD80936E0008952FB7F8948091F70310
:1041C0009091F803A091F903B091FA032FBF0895DD
:1041D0002FB7F8946091F7037091F8038091F90379
:1041E0009091FA032FBF08959C014FB7F8948091E6
:1041F000F7039091F803A091F903B091FA034FBF30
:10420000821B930B0895CF92DF92EF92FF922FB70C
:10421000F894C090F703D090F803E090F903F09081
:10422000FA032FBFA7019601261B370B480B590B2A
:10423000CA01B901FF90EF90DF90CF900895789474
:104240001F921FB61F9211248F939F93AF93BF931A
:104250008091F7039091F803A091F903B091FA03CC
:104260000196A11DB11D8093F7039093F803A093CD
:10427000F903B093FA03BF91AF919F918F911F9073
:104280001FBE1F90189587E797E7909301088093CA
:10429000000888E19AE00FB6F894A8958093600032
:1042A0000FBE90936000FFCF88E19AE00FB6F894BC
:1042B000A895809360000FBE90936000FFCF8EE1C1
:1042C0004A9B02C08150E1F74A9BFECF08955A985D
:1042D00080E28A95F1F75A9A0895FC013BE03A95FD
:1042E000F1F798E020E080E031E040E14A95F1F715
:1042F000880F4A9B02C08160232742E04A95F1F76C
:10430000000040E14A95F1F7915079F790E19A95D4
:10431000F1F799B132E03A95F1F7000040E14A95A2
:10432000F1F792FB992790F992272081920F9083C1
:104330000895A1E0B0E0EEE9F1E2ECC719828C014A
:104340007C01E60EF11C0E151F0539F481E0998100
:10435000911180E02196E6E0F9C7B1DFCE01019628
:10436000BCDFF80181938F01EECF529A5A9A0895DB
:1043700052985A9AEA9AE9E6F0E080818F7C80832D
:1043800008956150770B91E001C0990F6A95EAF7A3
:1043900020E031E0911108C0222391F05A9A80E286
:1043A0008A95F1F75A980895492F482339F05A9A77
:1043B000232740E24A95F1F79695ECCF5A98F9CF2A
:1043C0005A98EDCFFF920F931F93CF93DF93EC0199
:1043D0008C01060F111DC017D10721F4CDB7DEB730
:1043E000E5E0B5C7F99073DF68E08F2DCADFF3CF42
:1043F0001F920F920FB60F9211240F931F932F93BA
:104400003F934F935F936F937F938F939F93AF935C
:10441000BF93EF93FF93CF93DF930F92CDB7DEB7A8
:1044200019824DDFCE01019658DF082F06950695BB
:104430000695282F22952570902F9570290F922F81
:10444000937026952695920F982797708981982BBF
:1044500009F058C0053008F055C080E18A95F1F7A1
:104460005A9A529A82E08A95F1F700C05A9888E0E9
:10447000089F80011124D801A857BE4F1696ED91D0
:10448000FC9117973097A9F0609133027091340234
:1044900014962D913C911597260F371F11968D91EB
:1044A0009C911297680F791F13964C9113978C91DA
:1044B0000995F801E857FE4F6381662349F0209182
:1044C00033023091340284819581820F931F7ADF09
:1044D000FEDE80E18A95F1F75A9852985A9A80E167
:1044E0008A95F1F7F801E857FE4F6081662349F09D
:1044F000209133023091340281819281820F931F87
:1045000018DFDDDE0F90DF91CF91FF91EF91BF912A
:10451000AF919F918F917F916F915F914F913F915B
:104520002F911F910F910F900FBE0F901F90189514
:104530000F931F93CF93DF93EC0105970CF049C0C5
:10454000F894529A5A9885E08A95F1F700009C2FCA
:10455000969595708C2F8570980F892F83709695FE
:10456000969523E0CC0FDD1F2A95E1F7980F8E0179
:10457000092BADDE00C068E0802F03DF80E18A9563
:10458000F1F752985A9A4A9B1DC087E090E04A99E9
:104590001BC0FE01E857FE4F63816623F1F02091B6
:1045A00033023091340284819581820F931FC1DEE2
:1045B000811113C0529A5A9A7894DF91CF911F912A
:1045C0000F91089500C0DFCF019729F4529A5A9AAB
:1045D000789480E0F2CF00C0DACF71DE80E28A9575
:1045E000F1F75A98529A80E18A95F1F7C857DE4F51
:1045F0006881662349F02091330230913402898129
:104600009A81820F931FDEDE62DE789481E0D5CF3F
:1046100008959B01BA019091FF039430E1F48F70EB
:104620008093E9009FEF8091E800915085FD06C0DE
:1046300085ED8A95F1F700009111F5CF8091E800A2
:1046400085FF09C050E040E0C901B5D18091E80084
:104650008E778093E800089543E050E0BC0182E04B
:10466000D8CF40E250E0BC0182E0D3CFCF93DF93BC
:10467000EC0103DD48E050E0BE0181E0CADF88E0E4
:10468000FE01A7EDB3E001900D928A95E1F7DF916D
:10469000CF9108958091FE03811107C01AD371D381
:1046A0008091E20084608093E20008951092FE03FE
:1046B0000895C6DC81E0D2CC6091FB0381E06111FA
:1046C00001C080E0AFCC9091FF0381E0943009F00D
:1046D00080E06091FB03B2CC42E061EC81E075D2F6
:1046E00042E261EC82E071D29091FF0381E094306C
:1046F00009F080E06091FB0385CC80910104833058
:1047000009F45EC030F48130C1F1823009F494C004
:1047100008958A3009F483C08B3009F46BC0893066
:1047200009F04DC080910004813209F048C08091A9
:10473000040490910504029708F041C08091E800BC
:10474000877F8093E8008091E80082FF34C09091D9
:10475000F3008091F200029731F48091F1008130F2
:1047600011F0863019F48091F1008ADC8091E80024
:104770008B778093E8005DD222C080910004813A5B
:10478000F1F48091E800877F8093E8008091040431
:1047900090910504892B59F468E087ED93E070E06F
:1047A00057D18091E8008B778093E800089560E00E
:1047B00090E080E0F4CF8091FF038111C4CF089591
:1047C00080910004813AD9F7809104049091050406
:1047D000892BA9F78091E800877F8093E80080917A
:1047E000E80080FFFCCF49DC8093F1008091E80075
:1047F0008E77BFCF80910004813209F78091040445
:1048000090910504892BD9F68091E800877F8093E9
:10481000E8000FD28091020421DC0C949E08809164
:104820000004813261F68091E800877F8093E80080
:1048300000D28091030432CC80910004813A09F0C7
:10484000BECF8091E800877F8093E8008091E800E8
:1048500080FFFCCF2EDCC8CF84B7877F84BF0FB624
:10486000F894A89580916000886180936000109210
:1048700060000FBE80E890E00FB6F894809361006E
:10488000909361000FBEE8CB24D27BD2E2EEF0E041
:104890008081846080837894DEC48DEA91E040CA90
:1048A0008091FF03853029F48091FF03853011F05A
:1048B00076CC089549DC08DC8823B1F38091FD03B0
:1048C000882391F362D00E949E08EECF08959A014A
:1048D000409106045091070400C0492F55274330EA
:1048E000510519F168F44130510509F444C04230D2
:1048F000510509F445C090E080E050E040E025C05B
:104900004132510549F142325105A9F784E490E062
:1049100040E254E061157105C1F08DE690E043EB93
:1049200053E06130710589F0E6CF99278130910518
:1049300081F0009729F00297F1F6E2E4F3E002C07B
:10494000E2E6F3E0849190E0AF01F9015183408306
:104950000895E0E5F3E0F6CF89E090E048E753E022
:104960006115710591F389E090E041E953E0613010
:10497000710559F3C0CF82E190E041EA53E0E5CF01
:104980008BE390E046E653E0E0CF80E189BD82E131
:1049900089BD09B400FEFDCF8091D8008F7D809342
:1049A000D8008091E00082608093E0008091E00078
:1049B00081FDFCCF0895AF92BF92CF92DF92FF921C
:1049C0000F931F93CF93DF936C01EB018A0150D1BA
:1049D000F82E811123C00115110539F0F8018081ED
:1049E0009181C81BD90BC80ED91EB12CA12C2097C0
:1049F000A9F08091E80085FD21C08091E8008E77C4
:104A00008093E80001151105A1F0F80180819181E2
:104A1000A80EB91EB182A08285E0F82E8F2DDF91FD
:104A2000CF911F910F91FF90DF90CF90BF90AF90EB
:104A300008951ED18823D9F2F82EF0CFF601819186
:104A40006F018093F1002197FFEFAF1ABF0ACFCF1C
:104A5000FC01809106049091070486179707A0F047
:104A60006115710529F49091E8009E779093E80014
:104A700090E06115710551F4911108C08091E80032
:104A800082FF34C080E00895BC01F2CF8091FF0323
:104A90008823C1F18530C1F18091E80083FD30C0E9
:104AA0008091E80082FDEACF8091E80080FFE1CFAD
:104AB0008091F3002091F200382F6115710519F0F3
:104AC0002830310558F091E02830310509F090E0A8
:104AD0002091E8002E772093E800CBCF819180933E
:104AE000F100615071092F5F3F4FE7CF8091FF03C5
:104AF000882341F0853041F08091E80083FFBECFEC
:104B000081E0089582E0089583E00895FC0180919A
:104B100006049091070486179707A0F061157105A8
:104B200029F48091E8008E778093E80090E0611589
:104B3000710551F4911108C08091E80082FF35C0E1
:104B400080E00895BC01F2CF8091FF038823C9F172
:104B50008530C9F18091E80083FD31C08091E80083
:104B600082FDEACF8091E80080FFE1CF8091F300E1
:104B70002091F200382F6115710519F028303105A8
:104B800058F091E02830310509F090E08091E8007C
:104B90008E778093E800CBCF84918093F10031969B
:104BA000615071092F5F3F4FE6CF8091FF0388234B
:104BB00041F0853041F08091E80083FFBDCF81E076
:104BC000089582E0089583E00895982F973028F0A3
:104BD0008F708093E90081E008959093E900242F7D
:104BE000762F50E0981731F07091EC002091ED0095
:104BF0005091F00021FD02C09F5FE8CF3091EB00A3
:104C00003E7F3093EB003091ED003D7F3093ED001F
:104C10003091EB0031603093EB007093EC00209307
:104C2000ED005093F0002091EE0027FDE5CF80E0ED
:104C300008958091000487FF13C08091E80082FFEF
:104C400006C08091E8008B778093E80004C08091D3
:104C5000FF038111F2CF08958091FF038823D9F3D8
:104C60008091E80080FFF8CF8091E8008E77ECCF4C
:104C70002091E4003091E50095E6A9012091EC0037
:104C8000822F817020FF06C08091E80080FF06C05F
:104C900080E008952091E80022FD1AC08091FF0372
:104CA000882389F0853089F08091EB0085FD0FC065
:104CB0002091E4003091E50042175307F9F291503A
:104CC000E1F684E0089582E0089583E0089581E0AC
:104CD000089567D06ED0E0EEF0E08081816080833F
:104CE000E8EDF0E080818F77808319BCA7EDB0E01C
:104CF0008C918E7F8C9380818F7E80831092FE03B7
:104D000008950F931F93CF93DF934BD052D0C8EDEC
:104D1000D0E088818F7788838881806888838881C4
:104D20008F7D888319BC1092FF031092FB031092B1
:104D3000FD031092FC0300EE10E0F80180818B7FF0
:104D4000808388818160888342E060E080E03DDF8D
:104D5000E1EEF0E080818E7F8083E2EEF0E0808102
:104D600081608083808188608083F80180818E7F6C
:104D70008083888180618883DF91CF911F910F911B
:104D80000895E8EDF0E080818F7E8083E7EDF0E02C
:104D900080818160808384E082BF81E08093FE0314
:104DA000B0CFE8EDF0E080818E7F80831092E2004A
:104DB00008951092DA001092E10008951F920F9268
:104DC0000FB60F9211242F933F934F935F936F93DE
:104DD0007F938F939F93AF93BF93EF93FF938091B4
:104DE000E10082FF0AC08091E20082FF06C080914C
:104DF000E1008B7F8093E1002DD28091DA0080FF6B
:104E000018C08091D80080FF14C08091DA008E7F96
:104E10008093DA008091D90080FF91C080E189BD44
:104E200082E189BD09B400FEFDCF81E08093FF03DC
:104E300031DC8091E10080FF18C08091E20080FFAA
:104E400014C08091E2008E7F8093E2008091E200A6
:104E500080618093E2008091D80080628093D800C6
:104E600019BC85E08093FF0327DC8091E10084FF7B
:104E70002AC08091E20084FF26C080E189BD82E1E2
:104E800089BD89B5982F917080FFFBCF8091D800A4
:104E90008F7D8093D8008091E1008F7E8093E10028
:104EA0008091E2008F7E8093E2008091E200816039
:104EB0008093E2008091FB03882309F445C084E0DD
:104EC0008093FF0300DC8091E10083FF27C0809185
:104ED000E20083FF23C08091E100877F8093E1009F
:104EE00082E08093FF031092FB038091E1008E7FAC
:104EF0008093E1008091E2008E7F8093E2008091B8
:104F0000E20080618093E20042E060E080E05DDEEC
:104F10008091F00088608093F000CBDBFF91EF91EF
:104F2000BF91AF919F918F917F916F915F914F91C1
:104F30003F912F910F900FBE0F901F90189519BCA5
:104F40001092FF03B3DB75CF8091E30087FD93E000
:104F50009093FF03B7CF1F920F920FB60F921124B9
:104F60002F933F934F935F936F937F938F939F9371
:104F7000AF93BF93CF93DF93EF93FF93D091E9006B
:104F8000DF708091EC00C82FC17080FDC0E81092E6
:104F9000E9008091F000877F8093F00078941ED024
:104FA0001092E9008091F00088608093F000CD2B92
:104FB000CF70C093E900FF91EF91DF91CF91BF9146
:104FC000AF919F918F917F916F915F914F913F91A1
:104FD0002F910F900FBE0F901F901895AAE2B0E08E
:104FE000E3EFF7E29AC180E094E02091F100FC0148
:104FF0002193CF01F4E088309F07B9F77EDB8091E1
:10500000E80083FF16C180910004909101049A305A
:1050100008F00FC1E92FF0E0E85AF54D69C180387A
:1050200099F0823809F005C1809104048F708730AF
:1050300008F0FFC08093E9008091EB0085FB882792
:1050400080F91092E90006C08091FC039091FD0365
:10505000911182609091E800977F9093E80080938F
:10506000F1001092F1008091E8008E77DFC0882374
:1050700009F4CDC0823009F0DCC0809102048111B6
:10508000D0C0809104048F702FEF280F263008F0D5
:10509000D0C08093E9002091EB0020FFC2C0933084
:1050A00031F48091EB0080628093EB00BAC0909164
:1050B000EB0090619093EB0021E030E001C0220F03
:1050C0008A95EAF72093EA001092EA008091EB00BB
:1050D0008860EACF8111ADC0109102041F778091E2
:1050E000E3008078812B8093E3008091E800877F44
:1050F0008093E8009EDD8091E80080FFFCCF8091E6
:10510000E30080688093E30082E0111183E08093E4
:10511000FF038FC08058823008F08BC0809102045A
:10512000909103048C3D23E0920799F583E08A83F4
:105130008AE289834FB7F894DE01139620E03EE0BF
:1051400051E2E32FF0E050935700E49120FF03C0B9
:10515000E295EF703F5FEF708E2F90E0EA30B8F08D
:10516000C7968D939D932F5F243159F74FBF809140
:10517000E800877F8093E8006AE270E0CE01019644
:1051800067DC8091E8008B778093E80052C0C0967E
:10519000E8CF6091040470910504AE014F5F5F4F4A
:1051A00096DBBC01892B09F444C09091E800977FFD
:1051B0009093E80089819A81A9DCE3CF8038C9F512
:1051C0008091E800877F8093E8008091FB038093C3
:1051D000F10049CF81112DC090910204923048F521
:1051E0008091E800877F8093E8009093FB0321DDA6
:1051F0008091FB03882311F084E005C08091E300D7
:1052000087FDFACF81E08093FF0366DA12C08091B8
:105210000204813071F481E0933009F080E08093E2
:10522000FD031092E9008091E800877F8093E800F9
:1052300000DD8091E80083FF0AC08091E800877F4D
:105240008093E8008091EB0080628093EB00AA9647
:10525000E3E07FC00895CF938091FF03882399F006
:10526000C091E900CF709091EC00892F817090FD82
:1052700080E8C82B1092E9008091E80083FDAEDE43
:10528000CF70C093E900CF91089523DD1092FF0302
:105290000895E8EDF0E08081806180838AE18A955D
:1052A000F1F700C08091D90081700895A1E21A2E13
:1052B000AA1BBB1BFD010DC0AA1FBB1FEE1FFF1FBA
:1052C000A217B307E407F50720F0A21BB30BE40B0A
:1052D000F50B661F771F881F991F1A9469F7609551
:1052E0007095809590959B01AC01BD01CF0108950B
:1052F000EE0FFF1F0590F491E02D09942F923F923D
:105300004F925F926F927F928F929F92AF92BF92D5
:10531000CF92DF92EF92FF920F931F93CF93DF9381
:10532000CDB7DEB7CA1BDB0B0FB6F894DEBF0FBEDE
:10533000CDBF09942A88398848885F846E847D842B
:105340008C849B84AA84B984C884DF80EE80FD802D
:105350000C811B81AA81B981CE0FD11D0FB6F894A3
:10536000DEBF0FBECDBFED010895FB01DC0104C01F
:105370008D910190801921F441505040C8F7881B4D
:10538000990B0895FB01DC0102C001900D92415080
:105390005040D8F70895F999FECF92BD81BDF89A93
:1053A000992780B50895A8E1B0E042E050E02FC011
:1053B000DC01A40FB51F4150504040F0CB01840FD9
:1053C000951F2E9105D041505040D8F70895262FB3
:1053D000F999FECF92BD81BDF89A019700B40216EB
:1053E00039F01FBA20BD0FB6F894FA9AF99A0FBE99
:1053F00008950396272FECDFEADF252FE9DF242F1E
:10540000E7CF0196272FE4DFE2CFDC01CB01FC01DF
:10541000F999FECF06C0F2BDE1BDF89A319600B40D
:105420000D9241505040B8F70895F894FFCF7B0299
:105430008802BD02EF02F702FE0205030A032403FD
:105440003B0342034903CE06CE0610071007690747
:10545000F606F606F6068507EE07FA07FA07421B78
:10546000B61B4A1B141B181B4E1B1C1B521B5E1B1E
:10547000281BAF1B2C1B621B301B661B8E1B341B97
:105480006A1B951B3A1B701B781B201B561B241B89
:105490005A1B3E1B741B841B9E1BAD1B0E1B461B05
:1054A000BD1B591D5F1D491D531D651D6B1D711DC4
:1054B0000F2837281929372819296A288A281929ED
:0454C000DE28EA28D0
:1054C4008C020000000000000000000000C31DD496
:1054D4001DD91D00007B01000000000000C31DD485
:1054E4001DD91D00007701000000000000C31DD479
:1054F4001DD91D00007301000000000000C31DD46D
:105504001DD91D00006F01000000000000C31DD460
:105514001DD91D00006B01000000000000C31DD454
:105524001DD91D000067013800310036003000101D
:10553400002F00130034002E022E0035023500FF28
:1055440000AA00E5020503010000000100000000BC
:105554000000000401000000040500000000000039
:10556400040900000000000001000001004B203687
:1055740023312308232C23E200E900EA00B500B616
:1055840000B700CD008301CC008A0192019401216F
:1055940002230224022502260227022A02B300B4AF
:1055A400006F0070009F01CB019F02A002818283E3
:1055B400E200E900EA00B500B600B700CD008301BF
:1055C400CC008A01920194012102230224022502C3
:1055D400260227022A02B300B4006F0070009F0164
:1055E400CB019F02A002818283F4F5F6F731339454
:0655F4006697C62B0300C0
:00000001FF
