:1000000034C200004FC200004DC200000C942C22EC
:1000100049C2000047C2000045C2000043C20000C0
:1000200041C200003FC200000C9412270C94DF274D
:100030000C94B12037C2000035C2000033C200006A
:1000400031C200002FC200002DC200002BC20000F0
:1000500029C200000C94532125C2000023C20000D5
:1000600021C200001FC200001DC200001BC2000010
:1000700019C2000017C2000015C2000013C2000020
:1000800011C200000FC200000DC200000BC2000030
:1000900009C2000007C2000005C2000003C2000040
:1000A00001C20000FFC10000FDC1000000003400DB
:1000B0003600370013001C00000004001224082240
:1000C00018280C000000330014000D000E001B0067
:1000D0000000000000000000417E2C2100000F0005
:1000E000150006000A00090000001600113417323E
:1000F0000B38070000001D0019001A001000050051
:100100000000000000000000427E283100001400C2
:100110001A0008001500170000000400160007224E
:1001200009000A0000001D001B0006001900050060
:100130000000000000000000417E2C00000002577B
:1001400012000C0018001C00000033000F000E32DB
:100150000D000B000000055737000457035711002E
:100160000000000000000000427E28000000437EE6
:10017000447E457E467E2A0800002B022B00E100CB
:10018000E3002A040000477E487E497E4A7E4C04F4
:1001900000000000000000000000000000004F12FE
:1001A000521251125012501A00004F0052005100CA
:1001B0005000501800004F1452145114501450168F
:1001C0000000000000000000407E2C0F00001E0216
:1001D0001F02200221022202000059005A005B0087
:1001E0005C005D0000002F0230022D000157005717
:1001F00000000000000000002D0204520000310049
:100200003102250224022302000062006100600026
:100210005F005E0000002702260230002F00380039
:1002200000000000000000000000000000004B7E05
:100230000000220A210A210B0000000000004700F4
:100240004800060800005000510052004F001908F5
:100250000000000000000000417E2C000000AE0005
:100260000000A800AE0029000000BB00A900AA0001
:10027000BC002A0000004F00520051005000000056
:100280000000000000000000427E280007220E321D
:1002900000000822173200000000000000000000EB
:1002A0002A2B2800000000000000000000000000D1
:1002B00000000029000000002C1E342021222434DC
:1002C0002627252E362D3738271E1F2021222324AE
:1002D00025263333362E37381F0405060708090A4A
:1002E0000B0C0D0E0F101112131415161718191AE6
:1002F0001B1C1D2F3130232D350405060708090A64
:100300000B0C0D0E0F101112131415161718191AC5
:100310001B1C1D2F3130354C000000000000000078
:1003200000000000000000000000000000000000CD
:100330000000000000000000000000007E0F00D45C
:10034000FFFFFFC7000000780C0343006F0072003E
:100350006E0065000000100366006F006F00730000
:10036000740061006E0000000403090409023B00F0
:10037000020100A0FA0904000001030101000921A3
:10038000110100012244000705810308000109044E
:1003900001000103000000092111010001226D008C
:1003A000070582032000011201000200000008532B
:1003B00046010001000102000105010980A101853B
:1003C0000319012AB700150126B7009501751081A0
:1003D00000C0050C0901A101850419012AA002151C
:1003E0000126A002950175108100C005010906A132
:1003F000018506050719E029E7150025019508750F
:100400000181020507190029EF1500250195F075F6
:1004100001810205081901290595057501910295CB
:100420000175039101C005010906A101050719E045
:1004300029E71500250195087501810295017508C8
:1004400081010507190029FF150026FF0095067593
:100450000881000508190129051500250195057574
:10046000019102950175039101C011241FBECFEFC8
:10047000DAE0DEBFCDBF12E0A0E0B1E0E4E1F5E5F7
:1004800002C005900D92AC33B107D9F724E0ACE37C
:10049000B2E001C01D92AE30B207E1F70E944216F1
:1004A0000C94492AADCD80914302882321F010920B
:1004B00043028AEA65D480914202882321F0109297
:1004C000420288E85DC40895CF93FB0185342EE78E
:1004D000920709F4D9C008F581342EE7920709F490
:1004E00065C060F48932910509F44EC080349E479E
:1004F00009F450C0C1E08C2FCF9108952581833439
:100500003EE7930709F4B8C008F488C0222309F431
:100510004BC088E830D480E3B5C088342EE792071A
:1005200009F4C3C0F8F486342EE7920709F4B4C086
:1005300087349E47F9F68581882351F1C0914302A3
:10054000C111B0C080914202882321F01092420272
:100550000E949E0D8AEA0FD48BE206D481E080933C
:100560004302C9CF8A342EE7920709F4BEC008F4CB
:10057000B4C08B349E4709F0BDCF85818823A1F09C
:100580008CECF9D38CE07EC08581882309F43EC0D1
:10059000C0E0B1CF85818823D9F383E090E05ED6B7
:1005A0008FEFE9D38CE267D3FED5F2CF8581882324
:1005B000A1F00E941021909341028093400284E0B8
:1005C00075D6882311F084E08FD682E06FD6C82FCD
:1005D00082E0C111DDCF7AD68ECF65DF82E066D6AC
:1005E000882311F082E080D682E060D68111D0CFDE
:1005F0000E9410212091400230914102821B930BF6
:100600008A3A910508F0C4CF89E2AED30E942F1731
:10061000882309F4BDCF0E944117BACF222399F055
:100620000E94102190933F0280933E0284E03ED6C8
:10063000882311F084E058D683E038D6C82F811182
:10064000A7CF83E0C8CF2FDF83E030D6882311F017
:1006500083E04AD683E02AD681119ACF0E941021E6
:1006600020913E0230913F02821B930B8A3A910502
:1006700008F08ECF8AE2C9CF222309F495CF88E80B
:100680007AD38FE2F8D284CF8581882309F48CCF86
:1006900083E371D38BE2F6CF8581882309F484CF7D
:1006A00081E1F7CF8BE260D373CF8581882309F492
:1006B0006FCFC0914202C111F5CF809143028823D0
:1006C00021F0109243020E949E0D88E854D38BE2E1
:1006D0004BD381E0809342020ECF8581882309F4B9
:1006E00063CF81E148D380E5CDCF8581882309F4AC
:1006F0005BCF81E140D38FE4C5CF8530B8F468305B
:10070000A8F4463098F450E096E0699F400D511DE2
:100710001124FA0190E3899FE00DF11D1124EE0FE1
:10072000FF1FE455FF4F85919491089581E090E07B
:100730000895E3CF089582E090E008958230910516
:1007400050F447E0489F9001499F300D1124C901A2
:1007500080509F4F089590E080E00895EFCF089576
:1007600086E090E008958630910540F424E0880FFB
:10077000991F2A95E1F7825F9E4F089590E080E0EF
:100780000895F1CF08959C013A9521153F4150F508
:10079000FC01EE27F170BC0166277270AC014427A2
:1007A00054709C012227387094FF0EC080E1EF2B1B
:1007B00009F480E0672B09F08062452B09F0806422
:1007C000232B89F08068089581E0EF2B09F480E005
:1007D000672B09F08260452B09F08460232B19F008
:1007E0008860089580E00895CF93DF93EB01CBDF1D
:1007F000FE010995DF91CF910895CF93DF93EC012E
:10080000805E9109089720F06CEB78E0209711F456
:100810006BEB76E0CE01E8DF8C2F2DD2DF91CF910C
:100820000895CF93DF93EC0163D2CE01805E9109EE
:10083000089720F061EC78E0209711F460EC76E006
:10084000CE01D2DFDF91CF91089581E00895FDCFF1
:10085000089581E0089538CE08950895FECF089553
:10086000A6E0B0E0E6E3F4E00C94C12949835A83A2
:100870009E833091500289819A81311117C03E8147
:10088000332389F0222379F0D8D5182F682F898156
:100890009A81B2D569817A81812F0E942011269692
:1008A000E3E00C94DD29B9D5182FF4CFC6D56981C2
:1008B0007A81F3CFFC01262F87819085009739F448
:1008C000408151816281738184819581C9CF08956E
:1008D000CF93DF93EC0161E0EDDFBE01B8DF882349
:1008E00051F061E0CE01E6DFBE010E94FE1881708A
:1008F000DF91CF91089580E0FACFCF93DF93EC01A1
:1009000060E0D8DFBE01AADFDF91CF91089521E03A
:1009100030E0A90102C0440F551F8A95E2F7CA01D1
:100920008DC4CF93C82F81E090E00C2E02C0880FB9
:10093000991F0A94E2F70E94B20E8C2FE8DFCF9144
:10094000089581E00895FDCF0895CF93C82F2BD44B
:100950008C2FF9DF2FEF84E39CE021508040904002
:10096000E1F700C00000CF91089581E0EEDF0C9424
:10097000772180E0EADF0C9488210F931F93CF93B7
:10098000DF938C0161E096DFEC01B8010E941D1E2F
:10099000882321F061E0C8018DDFEC01B801CE01B0
:1009A0005ADF811106C080E0DF91CF911F910F9136
:1009B0000895B801CE010E9494168823A1F3B801CE
:1009C000CE010E94411E882371F3B801CE010E941E
:1009D000C41A882341F3B801CE010E94711D8823F7
:1009E00011F3B801CE010E941E1B8823E1F2B80169
:1009F000CE010E94F61A8823B1F2B801CE010E94FE
:100A00005E12882381F2F8018581882361F0C3306A
:100A1000FCE7DF07D9F050F4C115ECE7DE07A1F0E1
:100A2000C130DC47A9F0C80114DFBECFCB358CE75D
:100A3000D80799F0CC35ECE7DE0761F0CA35DC4722
:100A400091F70E94930EEFCF90DFADCF0E94970EEB
:100A500090DFA9CF0E948B0EE6CF0E94950EE3CFC8
:100A60000E949220B2C0B3D00C9496202F923F9255
:100A70004F925F926F927F928F929F92AF92BF92AE
:100A8000CF92DF92EF92FF920F93CF93DF931C01EF
:100A900029013A016B0181E0C81AD108E101CC0DAE
:100AA000DD1D1882F12CE12C8AE0882E912CA12CDE
:100AB000B12CEC14FD0498F0C101DF91CF910F919E
:100AC000FF90EF90DF90CF90BF90AF909F908F906E
:100AD0007F906F905F904F903F902F900895C3014B
:100AE000B201A50194010E948A29605D603319F466
:100AF000E114F10431F0411451046104710409F46A
:100B0000602F6A93C301B201A50194010E948A2952
:100B100029013A018FEFE81AF80ACBCF0F93209101
:100B20008601309187012817390721F420914A0264
:100B3000261789F0909387018093860160934A027B
:100B40009C0150E040E0062F66E070E084E492E013
:100B50008DDF0F91089584E492E0FBCF292F332796
:100B600040E02115310511F0C90148E09C0164E025
:100B7000369527956A95E1F72115310511F04C5FFF
:100B8000C9019C0136952795369527952115310584
:100B900011F04E5FC90196958795892B09F04F5F3B
:100BA000842F089581E008950895CF93DF93D82F7F
:100BB000F9DFC82F882311F08D2FF6DF8C2FDF91FE
:100BC000CF9108950895F1CF089580E0FCCF0E9461
:100BD000C91EF9CFCF930E94C91EC82F80914B0226
:100BE0008C1771F0C0934B020E941C2160934C0241
:100BF00070934D0280934E0290934F028C2FE3DF4F
:100C0000CF910895AFE0B0E0E8E0F6E00C94C029A1
:100C10004A875B876C877D878E879F879111A1D7D5
:100C20001F821886198686E0FE013A96DE0111962B
:100C300001900D928A95E1F78D8181110EC0098195
:100C40001A812B813C814D815E816F8178858985F8
:100C5000CED62F96E4E00C94DC29CE01019638DE46
:100C60008111EDCFF6CFFC012481213019F4808170
:100C7000918114C40895CF93C82F882389F08CEFF5
:100C80008C0F813A78F48C2F0E94611F882321F009
:100C90008C2F0E940320F3D78C2F0E94EC1FEFD7DC
:100CA000CF91089580E28C0F883040F4C77081E0C6
:100CB00001C0880FCA95EAF734D7F1CFEBE5EC0F06
:100CC000E33040F4F0E0EC50FE4F808190E00E9471
:100CD000F61EE6CFC85ACB3118F7EC2FF0E0EE0F36
:100CE000FF1FE254FE4F808191810E941B1FD8CFCD
:100CF000882319F19CEF980F913A18F40E94032071
:100D0000BEC790E2980F983048F4877091E001C018
:100D1000990F8A95EAF7892F0AD7F2CF9BE5980FAA
:100D2000933020F490E080E00C94F61E885A8B31CA
:100D300020F490E080E00C941B1F08951F93CF9344
:100D4000DF93182FEB0197DF209731F4812FD0DF4D
:100D5000DF91CF911F9108958FE99FE00197F1F7FF
:100D600000C000002197F0CF70E060E0893311F4FB
:100D700060E570E0E3CF882311F0D3D680C70895F3
:100D8000882311F0D4D67BC70895B0E0A0E0EBEC47
:100D9000F6E00C94BB296C01D62FC72FFC011581FE
:100DA000068102950F70B3D6E82E8823E9F0E12E74
:100DB0001123D1F08C2F807F803461F080E28D0F81
:100DC0008830F8F08C2F807E803221F4D230C8F049
:100DD0000023B9F08091E60382FF13C082E073D74D
:100DE00096D691E0E82EE926BC2EB2949FE0B92277
:100DF000FBE0FB1580F1EB2DF0E0E55BF54D0C948D
:100E0000AC29E12CF1CF0C2F0F70C07F11F00295AF
:100E1000007F112381F0002349F080E28D0F88309C
:100E200010F0D11105C0802F7CD629D78D2F4CC052
:100E3000802F8AD6FACF8D2F5BDF002361F080E20E
:100E40008D0F883010F0D11103C0802F70D602C0F2
:100E5000802F80D614D7EB2DE850FF0B349718F471
:100E60000E94C91EB0DEEE2059F04DD680FD08C0AC
:100E7000F601158242D62AD2C60160D13ED634D2BE
:100E8000CDB7DEB7E9E00C94D7292C2F2F70F22EC6
:100E9000C07FC03219F0F29480EFF822DD2341F0D8
:100EA000D13089F1112309F439C00023D1F0BECF2C
:100EB0008091E60382FD11C0112341F0FF2019F05B
:100EC0008F2D2FD6DCD680E0D6DEC5CF80E010DFB8
:100ED000FF2009F4C0CF8F2DB9CF112359F0011194
:100EE00003C08F2D48DFB7CF013009F0B4CF8F2D6D
:100EF0004FD6B1CF0111AFCF8F2D42DF8F2D53D6FB
:100F00008F2D38D6A8CF112321F0023008F0A3CFBF
:100F1000E8CF0111A0CF8F2D33DF9DCF0023D9F370
:100F2000D93349F43FEF87EE93E031508040904051
:100F3000E1F700C000008D2FDBDE8DCF8C2F869572
:100F40008695837069F0813009F085CF8D2F9C2FB5
:100F50009370111102C080E090E00E941B1F7BCFB4
:100F60008D2F9C2F9370111102C080E090E00E94A1
:100F7000F61E71CF8C2F837081F511116CCF4D2F20
:100F8000429546954770440F440F2D2F2F7030E047
:100F9000042E02C0220F331F0A94E2F790E080E093
:100FA000D4FF09C08FE090E002C0880F991F4A95D6
:100FB000E2F780959095C695C695C370822B932BCA
:100FC000C23039F040F4C13011F041D144CF38D1B2
:100FD00042CF44D140CF32D13ECF8695112311F07C
:100FE0008C2F8170882309F436CF4D2F429546957A
:100FF0004770440F440F2D2F2F7030E0042E02C095
:10100000220F331F0A94E2F790E080E0D4FF09C07A
:101010008FE090E002C0880F991F4A95E2F7809513
:101020009095C695C695C370822B932BC23039F02C
:1010300040F4C13011F07DD10ECF74D10CCF80D1EE
:101040000ACF17D108CFCF70112321F08C2F3ED1BA
:101050008D2F48CF8D2F94DE8C2F46D1FCCED23FE2
:1010600031F160F4D03FB9F0D13F81F0112309F4A0
:101070003BC00111DBCE8C2F8F711DC0D33FE9F037
:10108000D43FA1F78091E60382FD1FC08C2F8F71A2
:10109000112319F310C0112331F00111DCCE8C2F74
:1010A0008F7132D1D8CE023008F0D5CEF8CF8C2F48
:1010B0008F711111D2CF0AD1CECE112321F08C2FF6
:1010C0008F71FAD0C8CEDBD0C6CE112329F063E0F1
:1010D0008C2F8F71E1D5BFCE81E0F5D5023008F4B9
:1010E000BACE82E0F0D5B7CE002359F0D93309F05B
:1010F00022CFEFEFF7EE23E0E150F0402040E1F7A0
:1011000018CF8C2F8F71A9CF0F931F93CF93DF939D
:10111000EC018F819885009761F07CD78C0117D105
:101120008CD0B801CE0131DEDF91CF911F910F91AC
:101130000895688179818D81BAD1F0CFCF93DF9303
:10114000EC018C81882381F0CE0117DC81110FC066
:10115000DED4882349F08D81882331F08091E60325
:1011600082FF02C082E0AFD5DF91CF910895CE011A
:10117000CBDFCE01C2DBF8CF882311F0E5D47FC5E9
:101180000895882311F0E6D47AC5089590E080E0B0
:101190000E94F61E90E080E00E941B1FE2D46FC503
:1011A0000E941A20F3CFCAD4FBCF92959F7096303D
:1011B00091F058F4925F9F70923058F4803F19F08C
:1011C00030F4883E30F481E008959A5FF4CF843F94
:1011D000D1F380E00895883EB0F3813FD1F7F3CF9B
:1011E000FC018481882351F087819085009711F05C
:1011F00011D7DBCF8081918151D1FBCF80E0089561
:10120000A6E0B0E0E6E0F9E00C94C2292696E2E020
:101210000C94DE29A9E0B0E0E0E1F9E00C94C029EB
:101220002996E4E00C94DC290895FECF0895FDDFB3
:1012300090936C0280936B0208950895F8CF0895FF
:1012400020916B0230916C02822B932BF0CF209176
:101250006B0230916C0282239323E9CF20916B02C1
:1012600030916C0282279327E2CFDECF0895FDCF25
:101270000895FDDF90936A0280936902089590E0DB
:1012800080E0F7CF009729F481E0662371F080E0D9
:101290000CC021E030E002C0220F331F6A95E2F754
:1012A0002823392381E0232B91F30895682F80911F
:1012B000690290916A02E6CF21E030E0A90102C004
:1012C000440F551F8A95E2F7CA01D3CF21E030E0E1
:1012D00002C0220F331F8A95E2F780916902909134
:1012E0006A02822B932BC5CF21E030E002C0220F8F
:1012F000331F8A95E2F7209530958091690290918D
:101300006A0282239323B5CF21E030E002C0220F8E
:10131000331F8A95E2F78091690290916A028227D1
:101320009327A7CF2091690230916A02822B932BD9
:10133000A0CF2091690230916A028223932399CF32
:101340002091690230916A028227932792CF0895F3
:10135000262F277091E001C0990F2A95EAF723E024
:10136000769567952A95E1F7660F771F660F771FC9
:10137000FA01E60FF71F50E040E0682F70E081911E
:10138000DF0111979B01042E02C0369527950A9420
:10139000E2F7217021952827292328272C934F5FD6
:1013A0005F4F4430510559F70895A82FA77023E0E7
:1013B000969587952A95E1F7880F991F880F991FB1
:1013C000FB01E80FF91F50E040E080E0219130E0A0
:1013D0000A2E02C0369527950A94E2F7217033272A
:1013E000042E01C0220F0A94EAF7822B4F5F5F4F51
:1013F0004430510559F70895262F983068F4863007
:1014000058F4682F70E086E0989F600D711D1124DC
:1014100041E552E0822F9CCF0895292F983058F44F
:10142000863048F490E061E572E036E0239F800D5D
:10143000911D1124BACF80E00895B0E0A0E0E3E26E
:10144000FAE00C94BB297C010091690210916A02B8
:1014500080916B0290916C02082B192BCFE0D0E0A9
:10146000CC24C394D12CBC2EC6010C2E02C0880FF4
:10147000991F0A94E2F780239123892B49F421973D
:1014800090F7B12C8B2DCDB7DEB7E9E00C94D729BE
:10149000B7018C2FE0D6019791F3F4CFCF93DF9370
:1014A000EC01CBDFBE01D7D6DF91CF9108951F931A
:1014B000CF93DF93EB0190915002992331F0CB0150
:1014C000EDDFDF91CF911F910895882351F0CB017B
:1014D000B4DF182F682FCE018FDFBE01812FBBD65E
:1014E000F0CFCB019ADF182FF8CFFF920F931F9305
:1014F000CF93DF93C0916D0289E0F82E80916E0248
:101500008C1305C0CDB7DEB7E5E00C94DB29D0E045
:10151000FC9EF001FD9EF00D1124E159FD4F00816C
:101520001181228133814481558166817781808553
:1015300071DE2196C770E2CF0F931F930091B7021F
:101540001091B8022091B9023091BA024091BB02C9
:101550005091BC026091BD027091BE028091BF02A9
:1015600059DE1F910F9108950F931F93CF93DF932F
:101570008091BD02807F09F04FC08091BC0288231A
:1015800009F44AC0E0916D02D0916E021091B80248
:101590000091B7024091B9025091BA02609188015E
:1015A00070918901C9E0DE17B9F18E2F90E0EC9FB0
:1015B000F0011124E159FD4F2481222391F1C89FAC
:1015C000F001C99FF00D1124DF01A159BD4F119603
:1015D0002C911197211325C02C91201322C0159610
:1015E0002C91159721111DC012962D913C91241B11
:1015F000350B26173707A8F48091BD028F708061E4
:101600008093BD02EB58FD4F80818F708061808395
:1016100087EB92E093DD69DFDF91CF911F910F910E
:101620000895FC013196E770BECF482F20916D02DE
:1016300090916E0259E0291302C080E0089530E0D5
:10164000529FF001539FF00D1124E159FD4F81810C
:10165000681306C08081481303C085818111EECFD5
:101660002F5F3F4F2770E7CFA8E1B0E0EAE3FBE050
:101670000C94B8298C0186E0F801DE0153960190A4
:101680000D928A95E1F7D80114968C9114971596CE
:10169000EC90159797EBA92E92E0B92E9091BB0292
:1016A00091111AC08823A9F0EE2089F0C80198DDB5
:1016B000F82E882361F089E0F801D50101900D92A0
:1016C0008A95E1F7C501CFDA4FDF36DF48C0C801A0
:1016D00035DDFF24F39443C0F801C080D1808280BF
:1016E0009380F090BC022091B9023091BA02A4011B
:1016F000421B530B9A014091880150918901FF20B0
:1017000009F41EC12417350708F0C0C0882339F139
:101710009091B8028091BD02282F207F09F069C006
:101720009D1122C09091B702C9121EC04091BE0205
:101730005091BF022781308542175307A9F4E11069
:1017400052C08F7080618093BD02F6DE87EB92E01D
:10175000F5DC8091BD02D80116968C93F12C8F2D6B
:101760006896ECE00C94D429E1103DC06D2D8C2DD1
:101770005CDFE82E882361F087EB92E0DFDC89E014
:10178000E7EBF2E0DF011D928A95E9F7D5DEE6CFBF
:10179000CB8ADC8A8B899C8981DE292F22952F7048
:1017A000243058F49F70223080F0992391F0F80192
:1017B0009681907F71F4FE2CD2CF2A5F2F70223059
:1017C00060F0C801BBDCEF2CF6CF992311F0882321
:1017D00091F3805E883078F3F4CF803F60F3815FCF
:1017E000833078F7E8CF8091BD0281608093BD029D
:1017F000B5CF9D111EC09091B702C9121AC0409179
:10180000BE025091BF0217962D913C911897421736
:10181000530779F4E1100DC016968C93C8018EDC45
:1018200089E0F801A7EBB2E001900D928A95E1F70B
:101830004CCFC801D5DC882309F449CFEE2009F448
:1018400046CF8091BD028032B0F02091B702309136
:10185000B8023B872A879D868C869091BB029E8723
:101860001F86888B8091BE029091BF029A8B898BD4
:10187000CE010A9663DC89E0F801A7EBB2E00190A3
:101880000D928A95E1F770DE57DE23CF9091BD026D
:10189000292F207F81F4682D9E8A8D8AA6017E895A
:1018A0009E2DAEDC87EB92E049DC89E0F5011192D8
:1018B0008A95E9F76BCF882309F451CF8091B8025C
:1018C0008D111BC08091B702C81217C04091BE0293
:1018D0005091BF0217962D913C91189742175307CC
:1018E00061F4E1100AC016969C93C80127DC89E0D8
:1018F000F50111928A95E9F732CFC80171DC88238E
:1019000009F4E5CEEE2009F4E2CE8091BD028032EA
:1019100008F4B1CF2091B7023091B8023A832983FD
:101920009C828B829091BB029D831E828F838091CB
:10193000BE029091BF0299878887CE0101969ACF07
:101940002417350708F046C0882309F4C2CEFE2CC0
:10195000EE2009F4BCCE8091B8028D112FC0809189
:10196000B702C8122BC04091BE025091BF02179619
:101970008D919C9118974817590701F52A3A31051E
:10198000A0F49091BD0290FD10C0907F71F0809105
:10199000BD0216968C931697903F09F43FCF982F6F
:1019A000907F905F8F70892B37CF89E0F801A7EB8C
:1019B000B2E001900D928A95E1F7D1CEC80110DC1A
:1019C000811159CF8091BD0281608093BD02C80111
:1019D000B5DBC5CE682D9E8A8D8AA6017E899E2D97
:1019E0000FDC89E0F50111928A95E9F76ECEA2E14C
:1019F000B0E0EDEFFCE00C94BF290A871B872C8731
:101A00003D874E875F87688B798B8A8BCE010A96DC
:101A10002BDE8823C1F04E85442349F00A851B85BF
:101A20002C853D855F85688979898A89F3DB89E022
:101A3000F82E80916D0290916E0289133BC06296E0
:101A4000E5E00C94DB2989E0FE013A96DE0111966F
:101A500001900D928A95E1F78E85882341F32091BC
:101A60006E0230E0C90101968770992740916D029E
:101A70004817190691F099E0929FD001939FB00DFD
:101A80001124A159BD4FFE01319601900D929A95F6
:101A9000E1F780936E0229DDCACF85DB10926E02DA
:101AA00010926D0289E0E7EBF2E0DF011D928A956A
:101AB000E9F7BDCF8F9DC001112481599D4FD4DD21
:101AC000882309F4BCCFE0916D02FE9EF001112441
:101AD000E159FD4F0081118122813381448155817B
:101AE00066817781808596DB80916D0290E001961A
:101AF0008770992780936D029CCF8091E80286952C
:101B00008695869508958091E80287700895909152
:101B1000E802977081E009F480E008958091140351
:101B2000089590911403892B809314030895809550
:101B30009091140398239093140308951092140322
:101B4000089580911303089590911303892B809336
:101B50001303089580959091130398239093130392
:101B600008951092130308958091EA02089508954C
:101B7000FECF08959091E902292F282329F080951E
:101B800089238093E902F4CF08950895FECF089544
:101B90009091EA02292F2823281721F0982B90935F
:101BA000EA02F4CF08959091EA02292F282329F020
:101BB000809589238093EA02E9CF08958091EA0213
:101BC000882321F01092EA0280E0E0CF0895CF93BD
:101BD000C091140380911303C82B8091EA028823DB
:101BE00029F0C82B0E94401F8111E8DF8C2FCF9174
:101BF0000895CF93DF93C0918C01D0918D01E7DFE1
:101C00008883C0918C01D0918D0148E050E060EE56
:101C100072E0CE010E94E929892B59F088E0FE018B
:101C2000A0EEB2E001900D928A95E1F7CE010E94FC
:101C3000DD1EDF91CF910895CF93DF93C0918A018C
:101C4000D0918B01C4DF8983C0918A01D0918B012F
:101C500040E250E060EC72E0CE010E94E929892B5D
:101C600059F080E2FE01A0ECB2E001900D928A955D
:101C7000E1F7CE010E94E81EDF91CF9108950E9406
:101C80007120813029F48091E50387FF01C0D4CF12
:101C9000B0CF0895FECF08959091E60392FF0EC055
:101CA00098E0899F90011124622B6093E8020EDB7B
:101CB0008091E802869586958695ECCF07CB1092A9
:101CC000E80280E0E7CF9091E80280958923809335
:101CD000E802282F277059F4891749F09091E603FC
:101CE00092FF05C0869586958695FEDAE8CF089521
:101CF0009091E60392FB222720F9281759F080FBE8
:101D000092F99093E6038091E5039091E60333D036
:101D100082E0D9CF08958091E60382FB882780F97D
:101D200091E08927E5CF81E0E3CF80E0E1CF6FEF5D
:101D30007FEF90E080E00C94352A90E080E00E94F4
:101D4000072A21E0853E9E4F09F020E0822F08956A
:101D500082E090E00C94FF2983E090E00E94FF294C
:101D600090E00895682F83E090E00C941B2A84E0B3
:101D700090E00C94072ABC0184E090E00C94352A92
:101D8000AB01BC018FE090E00C942D2AAB01BC01AB
:101D900083E190E00C942D2A60E070E0CB01F6CF57
:101DA00060E070E0CB01ECDFF7CFA8E0B0E0EBED56
:101DB000FEE00C94C22965EE7EEF90E080E00E9488
:101DC000352A60E082E090E00E941B2A81E090E0EA
:101DD00090936C0280936B02C5DF60E074E184E055
:101DE00090E00E94352A60E086E090E00E941B2A85
:101DF00060E087E090E00E941B2A40E050E0BA01DA
:101E000088E090E00E942D2A60E083E290E00E944A
:101E10001B2A60E08CE090E00E941B2A60E08DE0CD
:101E200090E00E941B2A19821A821B821C821D824A
:101E30001E821F82188648E050E067E170E0CE0104
:101E400001960E940C2A40E050E0BA018FE190E038
:101E50000E942D2AA5DF2896E2E00C94DE29A5CF6A
:101E60000895682F8EE090E00C941B2AA6E0B0E065
:101E7000ECE3FFE00C94C0290E9410218C018091BA
:101E80001503909116038017910781F019821A8229
:101E90000E941021682F49815A81792F80E090E0BB
:101EA0000E94020610931603009315032696E4E0A1
:101EB0000C94DC29E8D2609323037093240380936D
:101EC00025039093260360931F0370932003809350
:101ED000210390932203089508950895FDCF089556
:101EE0000895FECF089581E008958CE592E1DBD658
:101EF000F4DFF4CF99C4089508950895FDDFFDCF70
:101F00001CDF811101C0ABDF23DF809327032FDFAC
:101F10009093E6038093E503E9D61EDF8FD9809185
:101F2000690290916A02A3C90E94072187D281D4D5
:101F3000D9D3E6DF0E94E2050E94AC1A87D4D1CF44
:101F400073D4882329F00E94A61E0E94BF18A5C73B
:101F50000895A6E0B0E0EFEAFFE00C94B929C3DFF2
:101F6000811108C083DFECDF0E94EA052696EBE0D2
:101F70000C94D529D6D387E1A82E83E0B82E75011D
:101F800010E0F70101917F01812FB0D21F5F18305F
:101F900009F43DC00817A9F38091270381FDACD255
:101FA000A9DFC82E10E099249394812F9FD2082F87
:101FB000F50181915F01081729F1D02ED826F12C67
:101FC000EE24E3948D2D8E21A9F0CC2099F0F98296
:101FD0001A830E9410219C838B839D8291E0802F25
:101FE0008E2109F490E049815A816B817C818D8139
:101FF0000E940206F394EE0CF6E0FF12E3CFF50127
:10200000319700831F5F183081F654DFACCF08137F
:10201000C3CFA8CF1F93CF93DF931FD1EC01C1157E
:1020200080E5D807F0F5C11580E4D80708F09AC01C
:10203000C03ED10520F5CD3CD10508F082C0C83A9C
:10204000D10578F4C53AD10508F073C0C130D10587
:1020500019F1209709F1C430D105F0F4D0E0C0E0C7
:102060001BC0C33CD105D0F7C85AD0E0CC0FDD1F50
:10207000C950DE4F0990D881C02DD4640DC0C11560
:1020800080E2D80708F0CCC0C11581E0D80708F07D
:102090005AC0C83ED10510F7CE01DF91CF911F91F4
:1020A0000895C03682E5D80718F5C03482E5D80710
:1020B00008F068C0C03282E5D80708F05CC0C115DE
:1020C00082E5D80708F493C02C2F2695269580E248
:1020D000289F900111248C2F8370C1E0D0E002C0B2
:1020E000CC0FDD1F8A95E2F7C22BD32BDD68D4CF4E
:1020F000C03A82E5D80760F4C03882E5D80708F412
:1021000056C0CF71D0E0DC2FCC27C46FD06AC4CFCB
:10211000C03C82E5D80708F45FC0C03E82E5D8071E
:1021200008F09CCFDC2FCC27CC27DF71C06FD06AA2
:10213000B3CFC55AD0E0C35DDD4FC881D0E0D064D5
:10214000ABCFD065A9CF8D2F2AD1182FCE019927DB
:1021500084D0C12FD0E0DC2FCC27CC27DF71C82B57
:10216000D92B9ACFCE01992778D0CC27DF70C82BF6
:10217000D92BD06A91CFCF71D0E0DC2FCC27C16FA3
:10218000D06A8ACF2C2F26952695277080E2289F2B
:10219000900111248C2F8370C1E0D0E002C0CC0FDD
:1021A000DD1F8A95E2F7C22BD32BDC6875CF2C2F6D
:1021B00026952695277080E2289F900111248C2F68
:1021C0008370C1E0D0E002C0CC0FDD1F8A95E2F73A
:1021D000C22BD32BDA6860CF8C2F8F71E0D0C82F41
:1021E000D0E0DC2FCC27CC27DF71D06255CF8C2FED
:1021F0008F71D5D055E0D695C7955A95E1F7CF7038
:10220000D0E0DC2FCC27282F30E084FF05C044E04D
:10221000220F331F4A95E1F7C22BD32BD0693CCF55
:102220008D2F8F71BCD0182FCE01992716D0C12FBA
:10223000D0E0DC2FCC27CC27DF71C82BD92BD5CF12
:10224000462F783028F4663018F4672F0C949903E1
:1022500090E080E00895F4DFDDCE82389105B9F199
:10226000B0F48133910509F47DC048F489329105B9
:1022700009F46DC08A32910509F47BC00895853355
:10228000910509F45FC08933910509F10895833EF2
:102290009105D9F138F4803E910529F1823E9105EE
:1022A00079F10895863E9105D9F1873E910509F4AB
:1022B0003EC0843E910541F52091E60321FF24C0F4
:1022C0008091E50384FD19C087EE90E00895209188
:1022D000E503237009F05AC02091E60323FF14C0E0
:1022E00089E290E008952091E50320FD38C0309107
:1022F000E60330FF09C024FF43C090E080E008956A
:102300002091E50322FDF7CF08952091E50322FDFA
:102310003AC03091E60330FD39C024FFF5CFEDCF50
:102320002091E50323FFF0CF24FDE7CFCDCF20910F
:10233000E50323FD2EC03091E60331FFEECF84EE9E
:1023400090E008952091E50325FFDECFC9CF2091CD
:10235000E50325FD21C02091E60323FFD5CF89E3C6
:1023600090E0D2CF2091E50326FFCECF8AE290E025
:1023700008952091E50326FFC7CF81E390E00895FB
:1023800083EE90E0089582EE90E0089580EE90E074
:10239000089586EE90E0089585E390E00895909189
:1023A000E50392FF10C041E0282F2471243009F08A
:1023B00040E031E0282F2871283009F030E0431741
:1023C00011F02CE0822793FF10C041E0282F2471E8
:1023D000243109F040E031E0282F2871283109F03C
:1023E00030E0431711F02CE082273091E60330FFF4
:1023F00010C051E0282F2171213009F050E041E058
:10240000282F2871283009F040E0541711F029E0F6
:10241000822731FF10C041E0282F2171213109F0BE
:1024200040E031E0282F2871283109F030E04317CF
:1024300011F029E0822794FD877E08951092E7032A
:102440001092E8031092E9031092EA030895CF92E4
:10245000DF92EF92FF926B017C01E6D181110EC0F9
:102460000E941C21C61AD70AE80AF90AC092E7039B
:10247000D092E803E092E903F092EA03FF90EF9034
:10248000DF90CF9008950F931F93CED1882329F02A
:102490000E941C211F910F9108950E941C21009100
:1024A000E7031091E8032091E9033091EA03600FFC
:1024B000711F821F931FEECF80E00895CF939C0180
:1024C000205E3245C1E02032310538F4FB01C58180
:1024D000C11103C08F710E9491048C2FCF91089578
:1024E0000895FECF08950895FECF0895E82FF0E0F7
:1024F000EC50FC4F80810895089580EA8A95F1F7A9
:10250000089500C00895F9CF08950895FECF089565
:10251000EF92FF921F93CF93DF9300D000D0CDB7FF
:10252000DEB782D1182F6091FC03882309F445C0DF
:1025300019821A821B821C82862F90E09E012F5FD7
:102540003F4F7901B9018C509C4F8CD18823E1F029
:102550008091EB0390E044E050E0B7018C509C4F39
:102560000E94E92921E020932803892BC1F410E07F
:10257000BBDF812F0F900F900F900F90DF91CF91C5
:102580001F91FF90EF90089580912803882379F39D
:1025900084E0F70111928A95E9F710922803E091FF
:1025A000EB03F0E0EC50FC4F89819A81AB81BC8158
:1025B00080839183A283B383DBCF70E06C507C4F28
:1025C0008091EB0390E08C509C4FD1D19FDFD1CF15
:1025D000F894E82FE295EF70F0E031A1282F2F70EA
:1025E00081E090E001C0880F2A95EAF7982F909536
:1025F000932391A392A1892B82A378940895CF93DA
:10260000DF9384E9E5DF86E6E3DF87E9E1DF86EC57
:10261000DFDFC0E3D2E089918F3F09F0D9DF82E0AC
:10262000C633D807C1F7DF91CF910895B0E0A0E09D
:10263000ECE1F3E10C94BC29EC01D62E062F10E05E
:10264000C8018A5C9D4F7C01FC0180818F3F09F4A9
:1026500042C0F894E82FE295EF70F0E091A18F70FE
:1026600021E030E001C0220F8A95EAF7892F822B02
:1026700081A382A12095282322A3789442DFE0E35E
:10268000F2E046E352E031E0C12C21912F3F41F1CD
:10269000A22FA295AF70B0E090968C9190E02F7031
:1026A00002C0959587952A95E2F780FD19C0832F82
:1026B000C82A330F4E175F0741F7F70180818F3F1C
:1026C00009F086DF61E0C11001C060E08D2D1BDFE5
:1026D000C00FD11FC882CDB7DEB7E8E00C94D8296F
:1026E00080E0E6CF80918E0180918E0194E081118F
:1026F00090E09093FC0384E0891B8093EB037FDFE1
:1027000088E0E4EFF3E0DF01982F1D929A95E9F756
:10271000ECEEF3E0DF011D928A95E9F784E03CD00E
:10272000E0CEA8E0B0E0E7E9F3E10C94BF298E0128
:102730000F5F1F4F88E0F80111928A95E9F7F12C9D
:102740006F2DC80173DFF394F4E0FF12F9CF48E076
:1027500050E0B8018CEE93E00E94E92921E0009757
:1027600009F420E0892B41F088E0F801ACEEB3E0F9
:1027700001900D928A95E1F76091FC0370E06C5036
:102780007C4F44E08CEE93E008D0182FC1DE812B03
:102790002896E5E00C94DB290895B0E0A0E0E3ED95
:1027A000F3E10C94BC296C017B01042FC22F22237E
:1027B00079F081E080932B030E94102190932A03EB
:1027C0008093290380E0CDB7DEB7E8E00C94D829E8
:1027D000D0912B03DD23B1F38091290390912A033B
:1027E0000E942821059770F310E0A801B601C701E7
:1027F0000E94E929892B31F0A801B601C7010E9486
:10280000F629CD2F10922B038C2FDDCFCF930E9472
:102810007D29C82F811102C00E9479298C2FCF9168
:10282000089580912F03089580912E030895FCCF81
:102830000895ECDF80932E03FADF80932F03F1DFFE
:1028400080938E01F1DF811142C00895EDDF811187
:1028500001C040C0089581E0909130039A3008F0A3
:1028600080E008950F931F93CF93DF93EC018B01CA
:10287000809130038A30B0F4B801CE0176D0C82FF1
:10288000811122C0809130038F3FB9F40E94102142
:1028900090932D0380932C038C2FDF91CF911F9168
:1028A0000F91089580912C0390912D030E9428216F
:1028B000843F914008F7C0E0EFCF8F5F80933003F3
:1028C0008A3020F7C1E0E8CF10923003E5CF0C94B6
:1028D000E92108950C94EC210895B0E0A0E0E3E72D
:1028E000F4E10C94BD297901C82F880FDD0B411547
:1028F0005105A9F0FE0193E0EE0FFF1F9A95E1F755
:10290000E157FE4F818192818F5C9C4F208130E0A6
:102910004217530708F49A01A9010E94F629CE0133
:102920000E94CC22D82E8823D1F001151105B9F0D0
:1029300083E0CC0FDD1F8A95E1F7FE01E157FE4FE2
:10294000438150E00417150708F4A801C157DE4F72
:102950006C817D816F5C7C4FC7010E94F6298D2DB3
:10296000CDB7DEB7E7E00C94D9292FC108954BC14C
:102970000895A4E0B0E0EFEBF4E10C94C02960917D
:102980004E0370914F0380915003909151030E9428
:10299000372111E0643671058105910508F173DD79
:1029A0006E5F7F4F8F4F9F4F69837A838B839C83AA
:1029B00010E000E030E020E044E050E0BE016F5F56
:1029C0007F4F83E08ADF182F882351F00E941C215B
:1029D00060934E0370934F03809350039093510381
:1029E000812F2496E4E00C94DC29B0E0A0E0EBEF2A
:1029F000F4E10C94BA297C015B016A012CDF01E04F
:102A000010E0882311F00AE010E0C1E0D0E0B50149
:102A1000C701F6010995811104C021960C171D0705
:102A20002CF4CDB7DEB7EAE00C94D629CC9F900108
:102A3000CD9F300D300D112490E080E045E34A95A4
:102A4000F1F70000019682179307C1F7E0CF0F93CB
:102A50001F93CF93DF93EC0160913A0270913B0298
:102A60006B5F7F4F44E050E00E94E9298C01609148
:102A70004A0370914B0380914C0390914D030E9447
:102A80003721643671058105910510F4012BE1F0C1
:102A900010E000E030E020E044E050E0BE0182E0E1
:102AA0001CDFC82F882351F00E941C2160934A0329
:102AB00070934B0380934C0390934D038C2FDF91C5
:102AC000CF911F910F910895C1E0F8CFA5E0B0E03C
:102AD000ECE6F5E10C94BA295B01E0903A02F09043
:102AE0003B0201E010E09E012B5F3F4F50E040E0D1
:102AF00070E060E080E0F1DE182F882309F448C020
:102B000067018FEFC81AD80A609146037091470396
:102B100080914803909149030E94372164367105E2
:102B20008105910570F104E010E09E012F5F3F4F99
:102B300050E040E070E060E081E0CFDEF82E64E03D
:102B400070E0C6010AD511E09D81981310E01F21A5
:102B500051F10E941C2160934603709347038093B8
:102B600048039093490389819A81AB81BC8180930A
:102B7000420390934303A0934403B093450311E0B1
:102B800012C064E070E0C601E8D49D818913CBCF08
:102B9000F70181819281A381B48189839A83AB8378
:102BA000BC831111E0CF8091420390914303A09127
:102BB0004403B0914503F50180839183A283B383DD
:102BC000812F2596EAE00C94D6290F931F93CF937B
:102BD000DF93EC018B0146E655E107DF811106C06A
:102BE00080E0DF91CF911F910F91089547E255E169
:102BF000B801CE01FADE882399F349EB54E1B8011C
:102C0000CE01F3DEEECF0F931F93CF93DF938C01B2
:102C1000C0913A02D0913B02CE01019624E0FB0123
:102C2000DC0101900D922A95E1F764E070E095D403
:102C30008883FE01359684E0D80101900D928A9533
:102C4000E1F769857A858B859C8500913E0310911B
:102C50003F032091400330914103601771078207C1
:102C6000930749F060933E0370933F0380934003C2
:102C700090934103ECDBDF91CF911F910F91089569
:102C800068C908950E94AA200E9460242ED90E943B
:102C900078244AD90E9481240E948424F1DF0E9472
:102CA0009A242CD9F9CF90933D0280933C02089549
:102CB0003EC80895B6DD811105C084E017DC869515
:102CC0008170089580E0FACF2CDD2FEF86E791E048
:102CD000215080409040E1F700C0000022DDEADF93
:102CE000882319F0E5DF0C9477210895EDCF08953E
:102CF0008832910548F48E319105A0F4049750F084
:102D000082E00E94A40D0EC08D329105C9F320F41B
:102D10008A9741F080E008958C34910519F08D3246
:102D20009240C1F781E00895EF92FF920F931F93B5
:102D3000CF93DF93EC017B01C3378CE7D80761F4B5
:102D4000FB011581112311F0B9D010E0812FCDB70F
:102D5000DEB7E6E00C94DA290E948E0D082F0E945F
:102D6000B40D082B7CD0811107C0023211F011E0A4
:102D7000EDCF79D0F9D6FBCF69D0F70115811123BA
:102D8000B1F30D7909F054C0C034F2E5DF0720F546
:102D9000C11582E5D807D0F6C115E0E4DE0790F44E
:102DA000C115F0E2DF07B0F5C63ED10579F20E9409
:102DB000B10DCE019DDFC82F8823D1F10E943F0EB7
:102DC0001C2FC4CFC11580E5D80788F7F70186818D
:102DD000807F69F2DD27EBCFC03EE2E5DE07A0F49D
:102DE000C03CF2E5DF0708F0B1CFC03682E5D80776
:102DF000F0F2C03AE2E5DE0708F4A8CFC43BF2E502
:102E0000DF0709F4A3CFD3CFCE0187579C470297A2
:102E100070F69CCFF7018681807FE1F68D2F8F7150
:102E2000823189F038F4C1EED0E0823009F4BFCFAE
:102E300028D08CCF843109F489CFC6EED2E1863117
:102E400009F4B5CFF5CFC5EED0E0B1CF0E94102187
:102E500088579C4E9093530380935203089580911A
:102E600054030895089580915403811109C00E946C
:102E70009E0D0E94DE0DEADF81E080935403F2CFC5
:102E8000089580915403882339F082E20E94C1089A
:102E90001092540380E0E6CF089580915403882374
:102EA00061F00E9410212091520330915303821B44
:102EB000930B8F3F9F4708F4E4CF0895809154030C
:102EC000882309F0DECFCFCF0895EF92FF920F93C2
:102ED0001F93CF93DF938091C803882361F0E09123
:102EE00055038DE0F82E8091C803E81748F0109242
:102EF000C80310925503CDB7DEB7E6E00C94DA298B
:102F0000EE24E394EE0EE0925503CE2FD0E0EF9D39
:102F1000F0011124E05AFC4F84818823A9F08781B5
:102F20009085892B99F4818592858F3F980771F060
:102F300061E0CADFFC9EF001FD9EF00D1124E05A15
:102F4000FC4F14820E94B10DEE2DCDCF0081118176
:102F500022813381448155816681778180850E94F9
:102F6000F70CE8CF0895CF93DF931092CA03109225
:102F7000C903D0E0C0E00E949B03C817D90718F02E
:102F8000DF91CF910895CE010E94AE03FC018581AF
:102F9000811102C0148216822196EDCF1F93CF9328
:102FA000DF9310915E0320915F032117D1F0C12FB1
:102FB000D0E0FE01EE0FFF1FEA5AFC4F4081518125
:102FC0004817590791F40E94AE0321E0FC012483C5
:102FD00080915E03811305C02196C370DD27C093E5
:102FE0005E03DF91CF911F91089521961C2F1370DE
:102FF000DCCFB0E0A0E0EFEFF7E10C94B729EB01F4
:103000002C81211152C07090C803A0E6B3E030E0DB
:1030100020E0812C61E070E0271508F045C01B9688
:10302000CD90DC901C97A880B9804FEF5FEF912C7A
:10303000E92CF12CF701EE0FFF1FEA0DFB1D0591A6
:103040001491C016D10609F4A7010115110511F05C
:103050009394EECF4F3F540781F1FB0102C0EE0F76
:10306000FF1F4A95E2F78E2AAB01092C02C0440FDC
:10307000551F0A94E2F74150510984161506D1F400
:103080004A815B816DE0629FF001639FF00D112426
:10309000E05AFC4F5087478324E02483108211823A
:1030A0009287818721E02D8379DFCDB7DEB7EDE010
:1030B0000C94D32914961C9214972F5F3F4F1D96A2
:1030C000ABCF0F931F93CF93DF93C0915E0380919B
:1030D0005F038C1307C0F9DE46DFDF91CF911F91AC
:1030E0000F910895D0E08E01000F111F0A5A1C4F56
:1030F000F801808191810E94AE03BC01F8018081BA
:10310000918177DF2196C370E2CFEF92FF921F93F8
:10311000CF93DF93FC012081318110E040E050E04B
:10312000E52FF0E0EE0FFF1FE20FF31FA591B49122
:103130001097B9F0FB01C081D18140E005C0AE1508
:10314000BF0509F411E04F5FE42FF0E0EE0FFF1F21
:10315000EC0FFD1FE590F490E114F10481F75F5F3F
:10316000DFCF112349F0451708F4CB01DF91CF9150
:103170001F91FF90EF90089590E080E0F7CF80914D
:10318000AF01882329F18091CB039091CC03009764
:10319000F9F00E9428212091C9033091CA03281711
:1031A0003907B0F490915E0380915F03981751F056
:1031B00088DF1092CA031092C9031092CC031092B8
:1031C000CB03089582DE1092CC031092CB03CBCEBA
:1031D00008951092CC031092CB031092AF0180910E
:1031E0005F0380935E03BFDE70CE8091AF018823C2
:1031F00009F0EFCF81E08093AF010895ACE0B0E03B
:10320000E4E0F9E10C94B2294C016B0180352CE724
:10321000920761F4FB0115811123D9F081E08093BD
:10322000AF01812F2C96E2E10C94CE298135FCE789
:103230009F0731F4FB011581112359F0CADFF1CF4B
:1032400082359C4731F4FB011581112311F0CDDF4C
:10325000E8CF2091690230916A0280916B029091CF
:103260006C02822B932B0E94AE05182F7BDE181761
:1032700031F0F601608171810E9420114C01B12C66
:10328000A12C1C8666246394712CCE0101969B8729
:103290008A870E949B03A816B906B8F1F6018581BA
:1032A000882309F44AC1FC85FF2309F446C1B8D735
:1032B0009093CC038093CB038091C803883008F5AA
:1032C00091E0980F9093C80399E0F601DE01119602
:1032D00001900D929A95E1F72DE0829FC001112493
:1032E000805A9C4F29E0FE013196DC0101900D923D
:1032F0002A95E1F72FEF3FEFFC0132872187948673
:1033000083861C85109511708CCFC5010E94AE0379
:103310007C01FC014081518144244A94542C60E09A
:10332000262F30E0F901EE0FFF1FE40FF51F859106
:1033300094918816990609F42901892B11F06F5F81
:10334000EFCF80E0FFEF4F165F0609F445C0F701AD
:1033500044813090AF01832D411180E0F82FF1704E
:103360003F2EF70125808681F6019581992309F486
:1033700083C0332009F480C0211015C09301042CB0
:1033800001C0220F0A94EAF7822BF701868380910D
:10339000C9039091CA03C29730F482E390E09093FE
:1033A000CA038093C903C30102C0880F991F6A959D
:1033B000E2F70197F70126812817190681F5809118
:1033C000CB039091CC03009771F042D7C39758F08C
:1033D00021E0F701248381E0FC85F82BFC872FEFA7
:1033E000A21AB20A56CF20905E0390E080E02091AE
:1033F0005F03221216C0E816F90689F0422C512C00
:10340000F201EE0FFF1FEA5AFC4FB182A0822FEFAC
:10341000421A520A83E04822552440925F03832DCA
:10342000DBCF422C512CF201EE0FFF1FEA5AFC4F6A
:10343000808191810E94AE038C01B70166DE009706
:10344000A1F021E0FC012483E816F90641F3209164
:103450005E0322120AC00817190739F492012F5F80
:103460003F4F2370332720935E03EFEF4E1A5E0A1F
:10347000F42DF3702F2EBBCF90E021101EC09301CE
:1034800002C0220F331F6A95E2F721503109281735
:10349000390729F4442309F44EC0C5017FDDC30177
:1034A000042C01C0880F0A94EAF7982F9095F70131
:1034B000868189238683322CB2CFAC01042C02C0D2
:1034C000559547950A94E2F7BA01617077279C01F8
:1034D0002150310982239323892B49F5672B39F138
:1034E000F70182819381892BF1F0EA85FB8527E042
:1034F00011922A95E9F794D6282F8B839C8384E038
:103500008D83F70182819381782F8887998709813C
:103510001A813C8144E05E816F81892F0E94F70C03
:10352000F7011582BCCF60E0C501CEDCF9CFF42FE6
:10353000F1702F2EB4CF232CB2CF90915E038091E7
:103540005F03981711F0BDDDDCCEBFDC1092CC0319
:103550001092CB0308DDD5CE0895FC01680F791FCA
:103560008FEF91E36E177F0709F408952191822769
:1035700028E030E087FF06C0880F892721503109F5
:10358000C9F7F0CF880FFACF9C01FB018581882312
:1035900059F12137FCE73F07B9F022379CE739079B
:1035A000E9F020373C4709F560E28091880190916D
:1035B00089010E948E05FC01019620812032D9F3F9
:1035C000CF0126D280E008958091880190918901F1
:1035D00005969093890180938801F4CF80918801AA
:1035E000909189010597F5CF81E00895CF93DF93FE
:1035F000EB0186319C4701F50E948E0D9D81992338
:1036000091F08A7A91E009F490E09093CD038111D2
:1036100008C089E2E1D40E943F0E80E0DF91CF91A3
:10362000089585E3F7CF8091CD03811103C089E22E
:10363000EAD4F1CF85E3FCCF81E0F0CFCF93DF93E5
:10364000EC01FB018581882309F4D2C09E0130572B
:103650002332310508F0B2C00E94B70E9093E60302
:103660008093E503FE01E150F047E232F10520F4DA
:10367000E95AF54D0C94AC298091E5038160809363
:10368000E50393C08091E60388608093E6038DC0D4
:103690008091E5038260F3CF8091E5038460EFCFF2
:1036A0008091E5038860EBCF8091E6038160EDCFE8
:1036B0008091E6038260E9CF8091E5038061DFCFEE
:1036C0008091E5038062DBCF8091E5038064D7CFF2
:1036D0000E94D3088091E5038068D1CF8091E503F3
:1036E0008C60CDCF8091E6038360CFCF8091E503DE
:1036F0008E7FC5CF8091E603877FC7CF8091E5039A
:103700008D7FBDCF8091E5038B7FB9CF8091E5039D
:10371000877FB5CF8091E6038E7FB7CF8091E60398
:103720008D7FB3CF8091E5038F7EA9CF8091E50394
:103730008F7DA5CF8091E5038F7BA1CF0E94D30819
:103740008091E5038F779BCF8091E503837F97CFAF
:103750008091E6038C7F99CF8091E50382FB9927C6
:1037600090F921E0922790FB82F990FB83F987CFB3
:103770008091E603982F909591708E7F892B90FB16
:1037800081F983CF9091E503892F8F7B96FF806429
:1037900076CF0E94D3089091E503892F97FB87F994
:1037A00080586DCF81E00E94310F8091E5039091A8
:1037B000E6030E94BB0E0E94D30880E0DF91CF9108
:1037C000089580E0F0CF9091E503892F8F7E94FFDC
:1037D000806155CF9091E503892F8E7F90FF8160A6
:1037E0004ECF9091E603892F877F93FF88604DCF5E
:1037F00081E0E4CFB0E0A0E0E0E0FCE10C94BB2984
:10380000E82FF0E0E856FD4FB490282F2695269536
:10381000269530E0F901E85CFC4F0491877010E0D8
:10382000082E02C0159507950A94E2F7017011273A
:10383000F901E85DFC4FE490F12C082E02C0F594EC
:10384000E7940A94E2F791E0E922FF24F901E85EA7
:10385000FC4FC491D0E002C0D595C7958A95E2F798
:10386000C170DD27C62ED12C0115110549F5E114D3
:10387000F10431F086EE0E943B06C601009771F517
:10388000B6018B2D0E949E06C601009779F5E114C2
:10389000F104A1F50115110531F081EE0E947806C1
:1038A000C6010097C9F5CD2B31F08CE20E94B40619
:1038B000C114D104C9F5CDB7DEB7E9E00C94D7291E
:1038C00081EE0E943B06C601009789F2EFE9FFE016
:1038D0003197F1F700C000000197F6CFEFE9FFE064
:1038E0003197F1F700C000000197C8CFEFE9FFE082
:1038F0003197F1F700C000000197C7CF86EE0E9414
:103900007806C601009731F2EFE9FFE03197F1F751
:1039100000C000000197F6CFEFE9FFE03197F1F723
:1039200000C000000197BDCF8FE99FE00197F1F73C
:1039300000C0000091E0C91AD108BACFEF92FF92FF
:103940000F931F93CF93DF93EC01162F0AE088812A
:10395000882309F458C0813009F052C08981813030
:1039600071F47E0182E0E80EF11C8A810E94B406A7
:10397000E701812F90E00097D9F52196E8CF8230BA
:1039800041F47E01E2E0EE0EF11C8A810E943B06CA
:10399000EFCF833041F47E01F2E0EF0EF11C8A811B
:1039A0000E947806E5CF843011F02196E2CF2A817B
:1039B000229690E080E0AE014F5F5F4F2053330BC3
:1039C0002A30310550F00097A1F2EFE9FFE031977E
:1039D000F1F700C000000197F6CF089FB001099FE2
:1039E000700D1124C901860F971F2981EA01E3CFC9
:1039F000EFE9FFE03197F1F700C000000197BBCF7E
:103A0000612FF8DEBACFCDB7DEB7E6E00C94DA2945
:103A100060E094CF0F931F93CF93DF93C42FD22FE7
:103A2000FC0185818823C1F04093D003F9D39093A2
:103A3000CF038093CE0380E28C0F883040F4C770B0
:103A400081E001C0880FCA95EAF70E94BB06DF91AA
:103A5000CF911F910F9108951091D003141335C089
:103A60008091CE039091CF03F3D3209188013091C0
:103A700089018217930748F5C0E2CD0F1D17B9F0F1
:103A800080E2810F883040F4177081E001C0880F18
:103A90001A95EAF70E94C006C83048F481E09D2FCD
:103AA000977001C0880F9A95EAF70E94BB06802F95
:103AB0000E94B406C83058F6D77081E001C0880F64
:103AC000DA95EAF70E94C006C2CF80E28C0F8830F8
:103AD00008F0BDCFC77081E001C0880FCA95EAF732
:103AE000F1CF0F93DB0188519C478730910598F502
:103AF000FC01E758F54D0C94AC2906E221EE41EEAD
:103B00006AE17CE7CD0186DF80E00F91089507E24E
:103B100025EE45EE6BE17CE7F5CF06E221EE40EEC7
:103B200068E17CE7EFCF07E225EE44EE69E17CE750
:103B3000E9CF06E221EE42EE6CE17CE7E3CF07E25B
:103B400025EE46EE6DE17CE7DDCF08E221E045EEB3
:103B50006EE17CE7D7CF15968C91882319F01092EF
:103B6000D003D3CF81E0D1CF1092D0030895411577
:103B7000510511F0FA0109950895CF93DF93EC01F7
:103B80004A855B856E857F85F2DF8B810E94AA0D59
:103B90008C810E94970D0E943F0E86E0FE011192DB
:103BA0008A95E9F7DF91CF910895CF93DF93EC01E8
:103BB0008D8181FD10C082608D838B810E94A40D58
:103BC0008C810E94910D0E943F0E488559856E851B
:103BD0007F85CE01CCDF1092D4031092D3038D8168
:103BE00080FD02C0CE01C9DFDF91CF910895CF9350
:103BF000DF93EC018A81823041F4FB018281938161
:103C00000E94FD038D8182608D83DF91CF910895A5
:103C1000FB01808191810C94FD03FC018281813044
:103C200031F4FB01808191810C941104089582305C
:103C3000E9F7FB0182819381F7CF0F931F93CF9315
:103C40008C01FB01C581CC23A9F08091D303909115
:103C5000D4030097A1F08017910789F099270E945B
:103C6000C103FC01258124602583118300839DDF2E
:103C70000E94B10D8C2FCF911F910F910895C0E03C
:103C8000F9CFEF92FF920F931F93CF93DF937C01B5
:103C90008B0197558F3F910519F010F011E036C058
:103CA0000E94B003970133272817390708F04CC04A
:103CB000C9010E94C103EC01F80115818D8110FB3F
:103CC00080F98D83112341F1ABD29093D20380937D
:103CD000D1038A818F5F8A830E948E0D8B830E941D
:103CE000A10D9B81892B8B830E94B40D8C834E8107
:103CF0005F816E857F85CE013ADF8D8181FF02C0B5
:103D0000F12CE12CF092D403E092D303812FCDB7B4
:103D1000DEB7E6E00C94DA294C855D856E857F85FB
:103D2000CE0125DF8D8181FFB9CFCE0126DF8091C5
:103D3000D3039091D4038E159F0509F0AFCF109255
:103D4000D4031092D303AACF10E0E0CF8091D30325
:103D50009091D403892BB9F08091D1039091D20333
:103D600077D220918801309189012817390758F4BA
:103D70008091D3039091D40399270E94C103FC0141
:103D8000258122FF12CF08959093DB038093DA03FD
:103D900008950E941414811103C08091D5030895E1
:103DA000E091DA03F091DB03309729F00190F08184
:103DB000E02D0995089580E00895E091DA03F091EF
:103DC000DB03309721F00280F381E02D09950895FF
:103DD000E091DA03F091DB03309739F026E0DC0163
:103DE0002C930480F581E02D09950895A3E0B0E0BF
:103DF000ECEFFEE10C94C2292091D8033091D90355
:103E000028173907A1F09093D9038093D803E09144
:103E1000DA03F091DB03309751F023E029839B8391
:103E20008A830084F185E02DCE01019609952396C1
:103E3000E2E00C94DE29A3E0B0E0E1E2FFE10C94C3
:103E4000C2292091D6033091D70328173907A1F052
:103E50009093D7038093D603E091DA03F091DB03CC
:103E6000309751F024E029839B838A830084F18575
:103E7000E02DCE01019609952396E2E00C94DE290F
:103E8000CF93DF93C0918C01D0918D01229629D1DF
:103E9000813081F48091E50387FF0CC0C0918A01D5
:103EA000D0918B0122969EE180E0915028F4DF9121
:103EB000CF91089596E0F8CF29912223B1F38F5F37
:103EC000F4CFCF93C82F811102C080E023C009D165
:103ED000813011F58091E50387FF1EC0EC2FE69538
:103EE000E695E695EE3188F780918A0190918B01F5
:103EF000E80FF92FF11D228130E0C77081E090E0DA
:103F000002C0880F991FCA95E2F72823392381E060
:103F1000232BD9F2CF91089580918C0190918D013E
:103F2000FC013296089621912C1721F0E817F90729
:103F3000D1F7CBCF81E0EECF9C01FC0132969FEF11
:103F400080E04191461751F09F3F19F4411101C0A3
:103F5000982F8F5F8630A9F79F3F09F40895290FA6
:103F6000311D97FD3A95F90162830895FC0132965F
:103F700008962191261303C0DF0111971C92E817C0
:103F8000F907B9F70895E62FE695E695E695EE313F
:103F900068F4E80FF92FF11D677021E030E001C0EF
:103FA000220F6A95EAF78281822B82830895E62F99
:103FB000E695E695E695EE3170F4E80FF92FF11DE0
:103FC000677021E030E001C0220F6A95EAF7209582
:103FD0008281282322830895CF93C82F82D06C2F0B
:103FE000813059F48091E50387FF07C080918A01F1
:103FF00090918B01C8DFCF91089580918C019091B1
:104000008D019ADFF8CFCF93C82F6BD06C2F813002
:1040100059F48091E50387FF07C080918A01909150
:104020008B01C5DFCF91089580918C0190918D0116
:104030009DDFF8CF56D0813079F48091E50387FF7A
:104040000BC0E0918A01F0918B0132968EE1DF0185
:104050001D928A95E9F70895E0918C01F0918D0108
:10406000329686E0F4CF0895FECF089581110CC0FA
:1040700081E08093B3016091B0017091B1018091B2
:10408000B2019091B301F0CF82E0F3CF83E080934F
:10409000B3016091B0017091B1018091B201909132
:1040A000B301E2CFE3CF089581E08093B301609143
:1040B000B0017091B1018091B2019091B301D4CF60
:1040C000F3CF089591E0811101C090E09093B20187
:1040D0006091B0017091B1018091B2019091B301F2
:1040E000C3CF8091B20108958093B1016091B00176
:1040F0007091B1018091B2019091B301B5CF8091DF
:10410000B10108958093B0016091B0017091B10147
:104110008091B2019091B301A7CF8091B001089531
:1041200008950895FECF089508950895F9CF08954C
:10413000CF93FADF0E949113F8DFC0E08C2F0E942A
:104140007612811105C0CF5FC830C1F7CF910895B5
:1041500081E0FCCF85B7806885BF85B7806885BF63
:1041600008951F921FB61F9211248F939F93AF93B0
:10417000BF938091DC03811113C08091FD03909166
:10418000FE03A091FF03B09100044196A11DB11D53
:104190008093FD039093FE03A093FF03B09300046C
:1041A000BF91AF919F918F911F901FBE1F90189547
:1041B00080910504843031F10E9430051092DC03B7
:1041C00088E190E020E40FB6F894A8958093600011
:1041D0000FBE2093600083B7817F846083BF83B765
:1041E000816083BF7894889583B78E7F83BF0FB635
:1041F000F894A89580916000886180936000109287
:1042000060000FBE08950E94D3080C94330582E02D
:1042100084BD93E095BD9AEF97BD80936E0008959D
:104220002FB7F8948091FD039091FE03A091FF03B6
:10423000B09100042FBF08952FB7F8946091FD034B
:104240007091FE038091FF03909100042FBF0895A9
:104250009C014FB7F8948091FD039091FE03A091CB
:10426000FF03B09100044FBF821B930B0895CF92C0
:10427000DF92EF92FF922FB7F894C090FD03D09099
:10428000FE03E090FF03F09000042FBFA70196010A
:10429000261B370B480B590BCA01B901FF90EF9051
:1042A000DF90CF90089578941F921FB61F9211242B
:1042B0008F939F93AF93BF938091FD039091FE03E3
:1042C000A091FF03B09100040196A11DB11D809340
:1042D000FD039093FE03A093FF03B0930004BF91EE
:1042E000AF919F918F911F901FBE1F90189587E7E8
:1042F00097E7909301088093000888E19AE00FB651
:10430000F894A895809360000FBE90936000FFCF53
:1043100088E19AE00FB6F894A895809360000FBEEC
:1043200090936000FFCF8EE14A9B02C08150E1F77D
:104330004A9BFECF08955A9880E28A95F1F75A9ADF
:104340000895FC013BE03A95F1F798E020E080E029
:1043500031E040E14A95F1F7880F4A9B02C0816045
:10436000232742E04A95F1F7000040E14A95F1F732
:10437000915079F790E19A95F1F799B132E03A9539
:10438000F1F7000040E14A95F1F792FB992790F987
:1043900092272081920F90830895A1E0B0E0E2ED92
:1043A000F1E2ECC719828C017C01E60EF11C0E15BE
:1043B0001F0539F481E09981911180E02196E6E0B2
:1043C000F9C7B1DFCE010196BCDFF80181938F01FF
:1043D000EECF529A5A9A089552985A9AEA9AE9E672
:1043E000F0E080818F7C808308956150770B91E0AD
:1043F00001C0990F6A95EAF720E031E0911108C0F9
:10440000222391F05A9A80E28A95F1F75A980895FA
:10441000492F482339F05A9A232740E24A95F1F769
:104420009695ECCF5A98F9CF5A98EDCFFF920F930B
:104430001F93CF93DF93EC018C01060F111DC01762
:10444000D10721F4CDB7DEB7E5E0B5C7F99073DF4A
:1044500068E08F2DCADFF3CF1F920F920FB60F9235
:1044600011240F931F932F933F934F935F936F9359
:104470007F938F939F93AF93BF93EF93FF93CF93CC
:10448000DF930F92CDB7DEB719824DDFCE010196D3
:1044900058DF082F069506950695282F229525703A
:1044A000902F9570290F922F937026952695920F35
:1044B000982797708981982B09F058C0053008F02B
:1044C00055C080E18A95F1F75A9A529A82E08A950E
:1044D000F1F700C05A9888E0089F80011124D801A4
:1044E000A157BE4F1696ED91FC9117973097A9F002
:1044F00060913A0270913B0214962D913C91159770
:10450000260F371F11968D919C911297680F791F76
:1045100013964C9113978C910995F801E157FE4F32
:104520006381662349F020913A0230913B028481F5
:104530009581820F931F7ADFFEDE80E18A95F1F785
:104540005A9852985A9A80E18A95F1F7F801E15702
:10455000FE4F6081662349F020913A0230913B0280
:1045600081819281820F931F18DFDDDE0F90DF9132
:10457000CF91FF91EF91BF91AF919F918F917F91DB
:104580006F915F914F913F912F911F910F910F90DC
:104590000FBE0F901F9018950F931F93CF93DF932B
:1045A000EC0105970CF049C0F894529A5A9885E0AE
:1045B0008A95F1F700009C2F969595708C2F857049
:1045C000980F892F83709695969523E0CC0FDD1F69
:1045D0002A95E1F7980F8E01092BADDE00C068E047
:1045E000802F03DF80E18A95F1F752985A9A4A9B0F
:1045F0001DC087E090E04A991BC0FE01E157FE4FC5
:1046000063816623F1F020913A0230913B0284816C
:104610009581820F931FC1DE811113C0529A5A9A5D
:104620007894DF91CF911F910F91089500C0DFCF53
:10463000019729F4529A5A9A789480E0F2CF00C0F8
:10464000DACF71DE80E28A95F1F75A98529A80E1CA
:104650008A95F1F7C157DE4F6881662349F02091B2
:104660003A0230913B0289819A81820F931FDEDEEC
:1046700062DE789481E0D5CF08959B01BA019091D4
:1046800005049430E1F48F708093E9009FEF8091EE
:10469000E800915085FD06C085ED8A95F1F7000090
:1046A0009111F5CF8091E80085FF09C050E040E00E
:1046B000C901B5D18091E8008E778093E800089514
:1046C00043E050E0BC0182E0D8CF40E250E0BC01C2
:1046D00082E0D3CFCF93DF93EC0103DD48E050E0DD
:1046E000BE0181E0CADF88E0FE01ADEDB3E00190DC
:1046F0000D928A95E1F7DF91CF910895809104049E
:10470000811107C01AD371D38091E2008460809335
:10471000E2000895109204040895C6DC81E0D2CC32
:104720006091010481E0611101C080E0AFCC909103
:10473000050481E0943009F080E060910104B2CC7E
:1047400042E061EC81E075D242E261EC82E071D23C
:104750009091050481E0943009F080E060910104BB
:1047600085CC80910704833009F45EC030F4813039
:10477000C1F1823009F494C008958A3009F483C0ED
:104780008B3009F46BC0893009F04DC0809106046C
:10479000813209F048C080910A0490910B0402977D
:1047A00008F041C08091E800877F8093E800809105
:1047B000E80082FF34C09091F3008091F2000297EC
:1047C00031F48091F100813011F0863019F480913C
:1047D000F1008ADC8091E8008B778093E8005DD25D
:1047E00022C080910604813AF1F48091E800877F2D
:1047F0008093E80080910A0490910B04892B59F46E
:1048000068E08DED93E070E057D18091E8008B7700
:104810008093E800089560E090E080E0F4CF80911C
:1048200005048111C4CF089580910604813AD9F717
:1048300080910A0490910B04892BA9F78091E800DC
:10484000877F8093E8008091E80080FFFCCF49DCFF
:104850008093F1008091E8008E77BFCF80910604AD
:10486000813209F780910A0490910B04892BD9F6C3
:104870008091E800877F8093E8000FD28091080440
:1048800021DC0C94D30880910604813261F680917A
:10489000E800877F8093E80000D28091090432CC41
:1048A00080910604813A09F0BECF8091E800877FAD
:1048B0008093E8008091E80080FFFCCF2EDCC8CF19
:1048C00084B7877F84BF0FB6F894A8958091600065
:1048D000886180936000109260000FBE80E890E0D5
:1048E0000FB6F89480936100909361000FBEE8CBFF
:1048F00024D27BD2E2EEF0E08081846080837894E1
:10490000DEC484EB91E040CA80910504853029F42F
:1049100080910504853011F076CC089549DC08DCDF
:104920008823B1F380910304882391F362D00E941D
:10493000D308EECF08959A0140910C0450910D04D4
:1049400000C0492F55274330510519F168F4413013
:10495000510509F444C04230510509F445C090E0C6
:1049600080E050E040E025C04132510549F142323B
:104970005105A9F784E490E046E254E06115710521
:10498000C1F08DE690E049EB53E06130710589F0AC
:10499000E6CF99278130910581F0009729F00297A1
:1049A000F1F6E8E4F3E002C0E8E6F3E0849190E099
:1049B000AF01F901518340830895E6E5F3E0F6CFB6
:1049C00089E090E04EE753E06115710591F389E0CD
:1049D00090E047E953E06130710559F3C0CF82E1BF
:1049E00090E047EA53E0E5CF8BE390E04CE653E0FC
:1049F000E0CF80E189BD82E189BD09B400FEFDCF31
:104A00008091D8008F7D8093D8008091E0008260F3
:104A10008093E0008091E00081FDFCCF0895AF928B
:104A2000BF92CF92DF92FF920F931F93CF93DF93AA
:104A30006C01EB018A0150D1F82E811123C00115C0
:104A4000110539F0F80180819181C81BD90BC80E7E
:104A5000D91EB12CA12C2097A9F08091E80085FDEA
:104A600021C08091E8008E778093E8000115110540
:104A7000A1F0F80180819181A80EB91EB182A082B7
:104A800085E0F82E8F2DDF91CF911F910F91FF9030
:104A9000DF90CF90BF90AF9008951ED18823D9F2B8
:104AA000F82EF0CFF60181916F018093F1002197EC
:104AB000FFEFAF1ABF0ACFCFFC0180910C04909199
:104AC0000D0486179707A0F06115710529F49091E0
:104AD000E8009E779093E80090E06115710551F42D
:104AE000911108C08091E80082FF34C080E00895F1
:104AF000BC01F2CF809105048823C1F18530C1F15A
:104B00008091E80083FD30C08091E80082FDEACF0B
:104B10008091E80080FFE1CF8091F3002091F200C6
:104B2000382F6115710519F02830310558F091E0E2
:104B30002830310509F090E02091E8002E7720938D
:104B4000E800CBCF81918093F100615071092F5F14
:104B50003F4FE7CF80910504882341F0853041F035
:104B60008091E80083FFBECF81E0089582E0089540
:104B700083E00895FC0180910C0490910D04861748
:104B80009707A0F06115710529F48091E8008E77F0
:104B90008093E80090E06115710551F4911108C00F
:104BA0008091E80082FF35C080E00895BC01F2CF1B
:104BB000809105048823C9F18530C9F18091E8000E
:104BC00083FD31C08091E80082FDEACF8091E8004A
:104BD00080FFE1CF8091F3002091F200382F611522
:104BE000710519F02830310558F091E02830310571
:104BF00009F090E08091E8008E778093E800CBCFB9
:104C000084918093F1003196615071092F5F3F4F7D
:104C1000E6CF80910504882341F0853041F08091F2
:104C2000E80083FFBDCF81E0089582E0089583E02E
:104C30000895982F973028F08F708093E90081E0D5
:104C400008959093E900242F762F50E0981731F0C3
:104C50007091EC002091ED005091F00021FD02C018
:104C60009F5FE8CF3091EB003E7F3093EB003091B7
:104C7000ED003D7F3093ED003091EB0031603093DB
:104C8000EB007093EC002093ED005093F000209126
:104C9000EE0027FDE5CF80E008958091060487FFB0
:104CA00013C08091E80082FF06C08091E8008B77F6
:104CB0008093E80004C0809105048111F2CF08952B
:104CC000809105048823D9F38091E80080FFF8CF14
:104CD0008091E8008E77ECCF2091E4003091E500E0
:104CE00095E6A9012091EC00822F817020FF06C07B
:104CF0008091E80080FF06C080E008952091E800E0
:104D000022FD1AC080910504882389F0853089F03E
:104D10008091EB0085FD0FC02091E4003091E5000B
:104D200042175307F9F29150E1F684E0089582E0CA
:104D3000089583E0089581E0089567D06ED0E0EE95
:104D4000F0E0808181608083E8EDF0E080818F7702
:104D5000808319BCA7EDB0E08C918E7F8C9380810D
:104D60008F7E80831092040408950F931F93CF9336
:104D7000DF934BD052D0C8EDD0E088818F77888305
:104D800088818068888388818F7D888319BC109290
:104D9000050410920104109203041092020400EE24
:104DA00010E0F80180818B7F808388818160888317
:104DB00042E060E080E03DDFE1EEF0E080818E7F68
:104DC0008083E2EEF0E08081816080838081886072
:104DD0008083F80180818E7F8083888180618883D1
:104DE000DF91CF911F910F910895E8EDF0E0808160
:104DF0008F7E8083E7EDF0E080818160808384E0B6
:104E000082BF81E080930404B0CFE8EDF0E08081C0
:104E10008E7F80831092E20008951092DA00109243
:104E2000E10008951F920F920FB60F9211242F9355
:104E30003F934F935F936F937F938F939F93AF9322
:104E4000BF93EF93FF938091E10082FF0AC08091AE
:104E5000E20082FF06C08091E1008B7F8093E10039
:104E60002DD28091DA0080FF18C08091D80080FF99
:104E700014C08091DA008E7F8093DA008091D9008F
:104E800080FF91C080E189BD82E189BD09B400FE47
:104E9000FDCF81E08093050431DC8091E10080FF4B
:104EA00018C08091E20080FF14C08091E2008E7FE4
:104EB0008093E2008091E20080618093E200809123
:104EC000D80080628093D80019BC85E080930504E7
:104ED00027DC8091E10084FF2AC08091E20084FFFA
:104EE00026C080E189BD82E189BD89B5982F917086
:104EF00080FFFBCF8091D8008F7D8093D800809178
:104F0000E1008F7E8093E1008091E2008F7E8093AC
:104F1000E2008091E20081608093E20080910104D0
:104F2000882309F445C084E08093050400DC809167
:104F3000E10083FF27C08091E20083FF23C08091BE
:104F4000E100877F8093E10082E080930504109266
:104F500001048091E1008E7F8093E1008091E20066
:104F60008E7F8093E2008091E20080618093E20076
:104F700042E060E080E05DDE8091F0008860809338
:104F8000F000CBDBFF91EF91BF91AF919F918F919B
:104F90007F916F915F914F913F912F910F900FBE35
:104FA0000F901F90189519BC10920504B3DB75CFB4
:104FB0008091E30087FD93E090930504B7CF1F92A3
:104FC0000F920FB60F9211242F933F934F935F933D
:104FD0006F937F938F939F93AF93BF93CF93DF9301
:104FE000EF93FF93D091E900DF708091EC00C82F20
:104FF000C17080FDC0E81092E9008091F000877FC9
:105000008093F00078941ED01092E9008091F00017
:1050100088608093F000CD2BCF70C093E900FF91A2
:10502000EF91DF91CF91BF91AF919F918F917F9140
:105030006F915F914F913F912F910F900FBE0F9005
:105040001F901895AAE2B0E0E7E2F8E29AC186E084
:1050500094E02091F100FC012193CF01F4E08E3027
:105060009F07B9F77EDB8091E80083FF16C180912E
:105070000604909107049A3008F00FC1E92FF0E080
:10508000E058F54D69C1803899F0823809F005C1C2
:1050900080910A048F70873008F0FFC08093E90088
:1050A0008091EB0085FB882780F91092E90006C00B
:1050B0008091020490910304911182609091E80024
:1050C000977F9093E8008093F1001092F100809117
:1050D000E8008E77DFC0882309F4CDC0823009F064
:1050E000DCC0809108048111D0C080910A048F70C7
:1050F0002FEF280F263008F0D0C08093E9002091D0
:10510000EB0020FFC2C0933031F48091EB0080624D
:105110008093EB00BAC09091EB0090619093EB000C
:1051200021E030E001C0220F8A95EAF72093EA00DF
:105130001092EA008091EB008860EACF8111ADC047
:10514000109108041F778091E3008078812B809371
:10515000E3008091E800877F8093E8009EDD8091E6
:10516000E80080FFFCCF8091E30080688093E3003B
:1051700082E0111183E0809305048FC08058823053
:1051800008F08BC080910804909109048C3D23E0C5
:10519000920799F583E08A838AE289834FB7F8946E
:1051A000DE01139620E03EE051E2E32FF0E0509361
:1051B0005700E49120FF03C0E295EF703F5FEF706E
:1051C0008E2F90E0EA30B8F0C7968D939D932F5FB5
:1051D000243159F74FBF8091E800877F8093E80022
:1051E0006AE270E0CE01019667DC8091E8008B777F
:1051F0008093E80052C0C096E8CF60910A04709195
:105200000B04AE014F5F5F4F96DBBC01892B09F4A5
:1052100044C09091E800977F9093E80089819A813B
:10522000A9DCE3CF8038C9F58091E800877F8093BF
:10523000E800809101048093F10049CF81112DC0D5
:1052400090910804923048F58091E800877F809320
:10525000E8009093010421DD80910104882311F07E
:1052600084E005C08091E30087FDFACF81E0809360
:10527000050466DA12C080910804813071F481E07F
:10528000933009F080E0809303041092E90080914C
:10529000E800877F8093E80000DD8091E80083FFCD
:1052A0000AC08091E800877F8093E8008091EB003E
:1052B00080628093EB00AA96E3E07FC00895CF93CD
:1052C00080910504882399F0C091E900CF709091F6
:1052D000EC00892F817090FD80E8C82B1092E900C6
:1052E0008091E80083FDAEDECF70C093E900CF91DE
:1052F000089523DD109205040895E8EDF0E0808123
:10530000806180838AE18A95F1F700C08091D9009D
:1053100081700895A1E21A2EAA1BBB1BFD010DC0CE
:10532000AA1FBB1FEE1FFF1FA217B307E407F50755
:1053300020F0A21BB30BE40BF50B661F771F881F31
:10534000991F1A9469F760957095809590959B01C7
:10535000AC01BD01CF010895EE0FFF1F0590F49140
:10536000E02D09942F923F924F925F926F927F921D
:105370008F929F92AF92BF92CF92DF92EF92FF9265
:105380000F931F93CF93DF93CDB7DEB7CA1BDB0B11
:105390000FB6F894DEBF0FBECDBF09942A883988B6
:1053A00048885F846E847D848C849B84AA84B984BD
:1053B000C884DF80EE80FD800C811B81AA81B981C9
:1053C000CE0FD11D0FB6F894DEBF0FBECDBFED01DD
:1053D0000895FB01DC0104C08D910190801921F436
:1053E00041505040C8F7881B990B0895FB01DC0120
:1053F00002C001900D9241505040D8F70895F9999C
:10540000FECF92BD81BDF89A992780B50895A8E195
:10541000B0E042E050E02FC0DC01A40FB51F4150C6
:10542000504040F0CB01840F951F2E9105D0415084
:105430005040D8F70895262FF999FECF92BD81BD2F
:10544000F89A019700B4021639F01FBA20BD0FB6C2
:10545000F894FA9AF99A0FBE08950396272FECDF75
:10546000EADF252FE9DF242FE7CF0196272FE4DF9E
:10547000E2CFDC01CB01FC01F999FECF06C0F2BD01
:10548000E1BDF89A319600B40D9241505040B8F702
:105490000895F894FFCF03070307450745079E07C4
:1054A0002B072B072B07BA0723082F082F08761B7B
:1054B000EA1B7E1B481B4C1B821B501B861B921B2E
:1054C0005C1BE31B601B961B641B9A1BC21B681BA7
:1054D0009E1BC91B6E1BA41BAC1B541B8A1B581B99
:1054E0008E1B721BA81BB81BD21BE11B421B7A1B15
:1054F000F11B8D1D931D7D1D871D991D9F1DA51DD4
:1055000043286B284D296B284D299E28BE284D29FC
:0455100012291E2915
:105514009202737C0000008C02737C000000000087
:1055240000000000F71D081E0D1E0000820100008F
:1055340000000000F71D081E0D1E00007E01000083
:1055440000000000F71D081E0D1E00007A01000077
:1055540000000000F71D081E0D1E0000760100006B
:1055640000000000F71D081E0D1E0000720100005F
:1055740000000000F71D081E0D1E00006E0138001B
:1055840031003600300010002F00130034002E02CA
:105594002E0035023500FF00AA00EB020B030100C8
:1055A40000000100000000000000040100000004ED
:1055B40005000000000000040900000000000001D4
:1055C400000001007F206A2365233C236023E2005E
:1055D400E900EA00B500B600B700CD008301CC00B5
:1055E4008A01920194012102230224022502260247
:1055F40027022A02B300B4006F0070009F01CB01A0
:105604009F02A002818283E200E900EA00B500B6AD
:1056140000B700CD008301CC008A019201940121DE
:1056240002230224022502260227022A02B300B41E
:10563400006F0070009F01CB019F02A00281828352
:0C564400F4F5F6F73133946697C6310395
:00000001FF
