:100000003BC2000056C2000054C200000C94AC2257
:1000100050C200004EC200004CC200004AC20000A4
:1000200048C2000046C200000C9492270C945F283E
:100030000C9431213EC200003CC200003AC20000D4
:1000400038C2000036C2000034C2000032C20000D4
:1000500030C200000C94D3212CC200002AC2000040
:1000600028C2000026C2000024C2000022C20000F4
:1000700020C200001EC200001CC200001AC2000004
:1000800018C2000016C2000014C2000012C2000014
:1000900010C200000EC200000CC200000AC2000024
:1000A00008C2000006C2000004C200002F2F003F5B
:1000B000002F003D3D003D002B00000034003600C5
:1000C000370013001C000000040012240822182826
:1000D0000C000000330014000D000E001B00000097
:1000E00000000000000029422C2100000F00150034
:1000F00006000A00090000001600113417320B3800
:10010000070000001D0019001A0010000500000083
:100110000000000000002A432831000014001A00EB
:10012000080015001700000004001600072209004F
:100130000A0000001D001B00060019000500000059
:1001400000000000000029422C00000003571200AC
:100150000C0018001C00000033000F000E320D00D0
:100160000B00000006573700055704571100000028
:100170000000000000002A4328000000417E427E6B
:10018000437E447E2A0800002B022B00E100E3009E
:100190002A040000457E467E477E487E4C040000CF
:1001A0000000000000000000000000004F1252128A
:1001B00051125012501A00004F00520051005000CE
:1001C000501800004F1452145114501450160000CF
:1001D000000000000000407E2C0F00001E021F02E5
:1001E000200221022202000059005A005B005C003C
:1001F0005D0000002F0230022D0001570057000063
:100200000000000000002D02045200003100310205
:1002100025022402230200006200610060005F00EA
:100220005E0000002702260230002F000257000067
:10023000000000000000000000000000497E0000F7
:10024000220A210A210B000000000000470048009C
:10025000060800005000510052004F00190800002D
:100260000000000000004A7E2C000000000000009A
:10027000A800AE0029000000BB00A900AA00BC0035
:100280002A0000004F005200510050000000000002
:100290000000000000004A7E280007220E32000005
:1002A00008221732000000000000000000002A2B86
:1002B0002800000000000000000000000000000016
:1002C0000029000000002C1E34202122243426277F
:1002D000252E362D3738271E1F20212223242526A0
:1002E0003333362E37381F0405060708090A0B0C6E
:1002F0000D0E0F101112131415161718191A1B1CB6
:100300001D2F3130232D350405060708090A0B0C73
:100310000D0E0F101112131415161718191A1B1C95
:100320001D2F3130354C000000000000000000009F
:1003300000000000000000000000000000000000BD
:10034000000000000000000000007E0F00D4FFFF4E
:10035000FFC7000000780C0343006F0072006E00BE
:1003600065000000100366006F006F0073007400EA
:1003700061006E0000000403090409023B00020151
:1003800000A0FA0904000001030101000921110184
:10039000000122440007058103080001090401004F
:1003A0000103000000092111010001226D00070571
:1003B00082032000011201000200000008534601E0
:1003C0000001000102000105010980A10185031956
:1003D000012AB700150126B700950175108100C0EC
:1003E000050C0901A101850419012AA002150126A5
:1003F000A002950175108100C005010906A10185C3
:1004000006050719E029E715002501950875018102
:10041000020507190029EF1500250195F0750181E6
:1004200002050819012905950575019102950175C7
:10043000039101C005010906A101050719E029E79B
:100440001500250195087501810295017508810146
:100450000507190029FF150026FF0095067508817C
:10046000000508190129051500250195057501915B
:1004700002950175039101C011241FBECFEFDAE090
:10048000DEBFCDBF12E0A0E0B1E0E4E1F6E502C0DE
:1004900005900D92A834B107D9F724E0A8E4B2E0A2
:1004A00001C01D92A831B207E1F70E945C160C94BE
:1004B000C92AA6CDCF93DF93EC018A81813041F424
:1004C00060E088EB90E00E94251DDF91CF910895B8
:1004D000823021F460E086EB90E0F5CF833029F4A0
:1004E00060E083EB90E00E94251DCE010E943F1F3B
:1004F000ECCFCF93DF93EC018A81813041F460E04F
:1005000081EB90E00E94251DDF91CF91089582300C
:1005100021F460E08FEA90E0F5CF833029F460E0C9
:100520008CEA90E00E94251DCE010E943F1FECCF77
:1005300080914D02882321F010924D028AEA3AD42C
:1005400080914C02882321F010924C0288E832C43A
:100550000895CF93FB01C581CC2309F4AAC021E003
:1005600020934B0220934A028434FEE79F0709F44C
:1005700079C0E0F48034EEE79E0709F44AC058F4ED
:10058000893222E4920709F44EC08A32934409F476
:100590005DC0C1E04AC08234FEE79F0709F45EC037
:1005A00008F457C083E301D48BE256C08734EEE7EA
:1005B0009E0709F470C0E0F485342EE7920709F431
:1005C00053C086349E4729F7C0914C02C11160C0C8
:1005D00080914D02882321F010924D020E94B80DA7
:1005E00088E8E3D38BE2DAD381E080934C021DC02C
:1005F0008934FEE79F0709F456C008F450C08A34D6
:100600009E4739F684E06CD6882359F084E086D67C
:1006100008C083E090E03CD68FEFC7D38CE245D38F
:10062000DCD5C0E002C010924B028C2FCF91089510
:100630007FDF80914B02882309F4ABCF82E050D654
:10064000882309F4A6CF82E069D6EFCF10924A0240
:10065000ECCF88E8AAD38FE228D3E3CF88E8A5D3EC
:1006600080E3FACF81E19FCFC0914D02C11110C04C
:1006700080914C02882321F010924C020E94B80D08
:100680008AEA93D38BE28AD381E080934D02CDCF67
:100690008BE284D3C6CF81E188D380E5DDCF81E1D1
:1006A00084D38FE4D9CF8CEC80D38CE0D5CF95D593
:1006B000BCCF8434FEE79F0709F4B2CFE8F480345E
:1006C000EEE79E0709F4ADCF08F0AACF893222E405
:1006D000920709F4ADCF8A32934409F05ACF28DF4C
:1006E00080914A02882309F454CF83E0F9D5882306
:1006F00009F44FCF83E0A8CF8734FEE79F0709F4C2
:100700008FCF50F48534EEE79E0709F48ACF863404
:100710009E4709F486CF3DCF89342EE7920739F200
:1007200008F47ECF8A349E4709F46CCF32CF8530EF
:10073000B8F46830A8F4463098F450E096E0699F29
:10074000400D511D1124FA0190E3899FE00DF11D28
:100750001124EE0FFF1FE654FF4F859194910895E9
:1007600081E090E00895E3CF089582E090E008955D
:100770008230910550F447E0489F9001499F300D29
:100780001124C90180509F4F089590E080E00895A2
:10079000EFCF089587E090E008958730910540F409
:1007A00024E0880F991F2A95E1F7825F9E4F0895F4
:1007B00090E080E00895F1CF08959C013A952115CD
:1007C0003F4150F5FC01EE27F170BC0166277270C5
:1007D000AC01442754709C012227387094FF0EC04E
:1007E00080E1EF2B09F480E0672B09F08062452B54
:1007F00009F08064232B89F08068089581E0EF2B55
:1008000009F480E0672B09F08260452B09F08460D1
:10081000232B19F08860089580E00895CF93DF932B
:10082000EB01CBDFFE010995DF91CF910895CF93C6
:10083000DF93EC01805E9109089720F066ED78E087
:10084000209711F465ED76E0CE01E8DF8C2F2DD2F4
:10085000DF91CF910895CF93DF93EC0163D2CE0166
:10086000805E9109089720F06BED78E0209711F4F5
:100870006AED76E0CE01D2DFDF91CF91089581E07D
:100880000895FDCF089581E0089563CE08950895F9
:10089000FECF0895A6E0B0E0E0E5F4E00C94412A34
:1008A00049835A839E8330915A0289819A813111FA
:1008B00017C03E81332389F0222379F0D8D5182F31
:1008C000682F89819A81B2D569817A81812F0E94AE
:1008D0003A112696E3E00C945D2AB9D5182FF4CF8F
:1008E000C6D569817A81F3CFFC01262F8781908557
:1008F000009739F4408151816281738184819581AF
:10090000C9CF0895CF93DF93EC0161E0EDDFBE0125
:10091000B8DF882351F061E0CE01E6DFBE010E941E
:1009200018198170DF91CF91089580E0FACFCF93AD
:10093000DF93EC0160E0D8DFBE01AADFDF91CF9149
:10094000089521E030E0A90102C0440F551F8A95A7
:10095000E2F7CA018DC4CF93C82F81E090E00C2E3E
:1009600002C0880F991F0A94E2F70E94CC0E8C2FC8
:10097000E8DFCF91089581E00895FDCF0895CF93EA
:10098000C82F2BD48C2FF9DF2FEF84E39CE021506C
:1009900080409040E1F700C00000CF91089581E0D1
:1009A000EEDF0C94F72180E0EADF0C9408220F932D
:1009B0001F93CF93DF938C0161E096DFEC01B801C8
:1009C0000E94981E882321F061E0C8018DDFEC01B0
:1009D000B801CE015ADF811106C080E0DF91CF91CE
:1009E0001F910F910895B801CE010E94AE16882381
:1009F000A1F3B801CE010E94BC1E882371F3B80197
:100A0000CE010E94DF1A882341F3B801CE010E9473
:100A1000EC1D882311F3B801CE010E94391B8823F5
:100A2000E1F2B801CE010E94111B8823B1F2B80196
:100A3000CE010E947812882381F2F80185818823F3
:100A400061F0C330FCE7DF07D9F050F4C115ECE7E3
:100A5000DE07A1F0C130DC47A9F0C80114DFBECF2A
:100A6000CB358CE7D80799F0CC35ECE7DE0761F0A1
:100A7000CA35DC4791F70E94AD0EEFCF90DFADCFC6
:100A80000E94B10E90DFA9CF0E94A50EE6CF0E9472
:100A9000AF0EE3CF0E941221B2C0B3D00C94162146
:100AA0002F923F924F925F926F927F928F929F927E
:100AB000AF92BF92CF92DF92EF92FF920F93CF93BC
:100AC000DF931C0129013A016B0181E0C81AD108AA
:100AD000E101CC0DDD1D1882F12CE12C8AE0882E7D
:100AE000912CA12CB12CEC14FD0498F0C101DF91E4
:100AF000CF910F91FF90EF90DF90CF90BF90AF908C
:100B00009F908F907F906F905F904F903F902F902D
:100B10000895C301B201A50194010E940A2A605DF3
:100B2000603319F4E114F10431F04114510461040B
:100B3000710409F4602F6A93C301B201A501940105
:100B40000E940A2A29013A018FEFE81AF80ACBCF4E
:100B50000F9320919201309193012817390721F4C6
:100B600020915402261789F090939301809392016B
:100B7000609354029C0150E040E0062F66E070E074
:100B80008EE492E08DDF0F9108958EE492E0FBCF2A
:100B9000292F332740E02115310511F0C90148E024
:100BA0009C0164E0369527956A95E1F7211531059A
:100BB00011F04C5FC9019C01369527953695279514
:100BC0002115310511F04E5FC90196958795892B46
:100BD00009F04F5F842F089581E008950895CF9321
:100BE000DF93D82FF9DFC82F882311F08D2FF6DF80
:100BF0008C2FDF91CF9108950895F1CF089580E073
:100C0000FCCF0E94491FF9CFCF930E94491FC82FE4
:100C1000809155028C1771F0C09355020E949C215F
:100C20006093560270935702809358029093590232
:100C30008C2FE3DFCF910895AFE0B0E0E2E2F6E081
:100C40000C94402A4A875B876C877D878E879F87B5
:100C50009111A1D71F821886198686E0FE013A9667
:100C6000DE01119601900D928A95E1F78D81811137
:100C70000EC009811A812B813C814D815E816F817B
:100C800078858985CED62F96E4E00C945C2ACE0137
:100C9000019638DE8111EDCFF6CFFC0124812130A1
:100CA00019F48081918114C40895CF93C82F8823AB
:100CB00089F08CEF8C0F813A78F48C2F0E94E11F21
:100CC000882321F08C2F0E948320F3D78C2F0E9441
:100CD0006C20EFD7CF91089580E28C0F883040F4DC
:100CE000C77081E001C0880FCA95EAF734D7F1CF09
:100CF000EBE5EC0FE33040F4F0E0E050FE4F808194
:100D000090E00E94761FE6CFC85ACB3118F7EC2F3F
:100D1000F0E0EE0FFF1FE653FE4F808191810E94AD
:100D20009B1FD8CF882319F19CEF980F913A18F4A4
:100D30000E948320BEC790E2980F983048F48770D5
:100D400091E001C0990F8A95EAF7892F0AD7F2CF6F
:100D50009BE5980F933020F490E080E00C94761F90
:100D6000885A8B3120F490E080E00C949B1F08950A
:100D70001F93CF93DF93182FEB0197DF209731F468
:100D8000812FD0DFDF91CF911F9108958FE99FE0F0
:100D90000197F1F700C000002197F0CF70E060E00C
:100DA000893311F460E570E0E3CF882311F0D3D6E6
:100DB00080C70895882311F0D4D67BC70895B0E08A
:100DC000A0E0E5EEF6E00C943B2A6C01D62FC72F8D
:100DD000FC011581068102950F70B3D6E82E882399
:100DE000E9F0E12E1123D1F08C2F807F803461F067
:100DF00080E28D0F8830F8F08C2F807E803221F4D5
:100E0000D230C8F00023B9F08091F00382FF13C004
:100E100082E073D796D691E0E82EE926BC2EB294F4
:100E20009FE0B922FBE0FB1580F1EB2DF0E0E553EC
:100E3000F54D0C942C2AE12CF1CF0C2F0F70C07FB4
:100E400011F00295007F112381F0002349F080E228
:100E50008D0F883010F0D11105C0802F7CD629D796
:100E60008D2F4CC0802F8AD6FACF8D2F5BDF0023C9
:100E700061F080E28D0F883010F0D11103C0802F17
:100E800070D602C0802F80D614D7EB2DE850FF0B10
:100E9000349718F40E94491FB0DEEE2059F04DD669
:100EA00080FD08C0F601158242D62AD2C60160D163
:100EB0003ED634D2CDB7DEB7E9E00C94572A2C2FBA
:100EC0002F70F22EC07FC03219F0F29480EFF8221A
:100ED000DD2341F0D13089F1112309F439C0002319
:100EE000D1F0BECF8091F00382FD11C0112341F0FB
:100EF000FF2019F08F2D2FD6DCD680E0D6DEC5CFAF
:100F000080E010DFFF2009F4C0CF8F2DB9CF11236F
:100F100059F0011103C08F2D48DFB7CF013009F020
:100F2000B4CF8F2D4FD6B1CF0111AFCF8F2D42DF70
:100F30008F2D53D68F2D38D6A8CF112321F0023014
:100F400008F0A3CFE8CF0111A0CF8F2D33DF9DCFC5
:100F50000023D9F3D93349F43FEF87EE93E03150C2
:100F600080409040E1F700C000008D2FDBDE8DCF88
:100F70008C2F86958695837069F0813009F085CF36
:100F80008D2F9C2F9370111102C080E090E00E9481
:100F90009B1F7BCF8D2F9C2F9370111102C080E07F
:100FA00090E00E94761F71CF8C2F837081F5111114
:100FB0006CCF4D2F429546954770440F440F2D2F0F
:100FC0002F7030E0042E02C0220F331F0A94E2F784
:100FD00090E080E0D4FF09C08FE090E002C0880F6D
:100FE000991F4A95E2F780959095C695C695C3706E
:100FF000822B932BC23039F040F4C13011F041D133
:1010000044CF38D142CF44D140CF32D13ECF869564
:10101000112311F08C2F8170882309F436CF4D2FC6
:10102000429546954770440F440F2D2F2F7030E0A6
:10103000042E02C0220F331F0A94E2F790E080E0F2
:10104000D4FF09C08FE090E002C0880F991F4A9535
:10105000E2F780959095C695C695C370822B932B29
:10106000C23039F040F4C13011F07DD10ECF74D1CF
:101070000CCF80D10ACF17D108CFCF70112321F028
:101080008C2F3ED18D2F48CF8D2F94DE8C2F46D1C3
:10109000FCCED23F31F160F4D03FB9F0D13F81F0C6
:1010A000112309F43BC00111DBCE8C2F8F711DC0C1
:1010B000D33FE9F0D43FA1F78091F00382FD1FC038
:1010C0008C2F8F71112319F310C0112331F00111EE
:1010D000DCCE8C2F8F7132D1D8CE023008F0D5CE35
:1010E000F8CF8C2F8F711111D2CF0AD1CECE112310
:1010F00021F08C2F8F71FAD0C8CEDBD0C6CE112351
:1011000029F063E08C2F8F71E1D5BFCE81E0F5D55A
:10111000023008F4BACE82E0F0D5B7CE002359F001
:10112000D93309F022CFEFEFF7EE23E0E150F040A2
:101130002040E1F718CF8C2F8F71A9CF0F931F9309
:10114000CF93DF93EC018F819885009761F07CD776
:101150008C0117D18CD0B801CE0131DEDF91CF9157
:101160001F910F910895688179818D81BAD1F0CF57
:10117000CF93DF93EC018C81882381F0CE0117DCC3
:1011800081110FC0DED4882349F08D81882331F08E
:101190008091F00382FF02C082E0AFD5DF91CF9152
:1011A0000895CE01CBDFCE01C2DBF8CF882311F04A
:1011B000E5D47FC50895882311F0E6D47AC5089553
:1011C00090E080E00E94761F90E080E00E949B1FEC
:1011D000E2D46FC50E949A20F3CFCAD4FBCF929578
:1011E0009F70963091F058F4925F9F70923058F44F
:1011F000803F19F030F4883E30F481E008959A5F22
:10120000F4CF843FD1F380E00895883EB0F3813F6E
:10121000D1F7F3CFFC018481882351F08781908539
:10122000009711F011D7DBCF8081918151D1FBCF95
:1012300080E00895A6E0B0E0E0E2F9E00C94422AF4
:101240002696E2E00C945E2AA9E0B0E0EAE2F9E03A
:101250000C94402A2996E4E00C945C2A0895FECF71
:101260000895FDDF909376028093750208950895A6
:10127000F8CF08952091750230917602822B932B3E
:10128000F0CF209175023091760282239323E9CF2B
:10129000209175023091760282279327E2CFDECF2C
:1012A0000895FDCF0895FDDF90937402809373023B
:1012B000089590E080E0F7CF009729F481E066235D
:1012C00071F080E00CC021E030E002C0220F331F3B
:1012D0006A95E2F72823392381E0232B91F30895BF
:1012E000682F8091730290917402E6CF21E030E084
:1012F000A90102C0440F551F8A95E2F7CA01D3CF56
:1013000021E030E002C0220F331F8A95E2F780917E
:10131000730290917402822B932BC5CF21E030E0B1
:1013200002C0220F331F8A95E2F7209530958091F5
:1013300073029091740282239323B5CF21E030E0B1
:1013400002C0220F331F8A95E2F7809173029091B9
:10135000740282279327A7CF2091730230917402E1
:10136000822B932BA0CF20917302309174028223A1
:10137000932399CF2091730230917402822793278F
:1013800092CF0895262F277091E001C0990F2A95DA
:10139000EAF723E0769567952A95E1F7660F771FC0
:1013A000660F771FFA01E60FF71F50E040E0682F45
:1013B00070E08191DF0111979B01042E02C03695E8
:1013C00027950A94E2F721702195282729232827B9
:1013D0002C934F5F5F4F4430510559F70895A82F64
:1013E000A77023E0969587952A95E1F7880F991FB6
:1013F000880F991FFB01E80FF91F50E040E080E0E3
:10140000219130E00A2E02C0369527950A94E2F722
:1014100021703327042E01C0220F0A94EAF7822B91
:101420004F5F5F4F4430510559F70895262F98308C
:1014300068F4863058F4682F70E086E0989F600D5D
:10144000711D11244BE552E0822F9CCF0895292F66
:10145000983058F4863048F490E06BE572E036E05E
:10146000239F800D911D1124BACF80E00895B0E034
:10147000A0E0EDE3FAE00C943B2A7C0100917302BA
:10148000109174028091750290917602082B192BAD
:10149000CFE0D0E0CC24C394D12CBC2EC6010C2EBE
:1014A00002C0880F991F0A94E2F780239123892BA9
:1014B00049F4219790F7B12C8B2DCDB7DEB7E9E039
:1014C0000C94572AB7018C2FE0D6019791F3F4CFF3
:1014D000CF93DF93EC01CBDFBE01D7D6DF91CF9165
:1014E00008951F93CF93DF93EB0190915A029923B4
:1014F00031F0CB01EDDFDF91CF911F91089588236B
:1015000051F0CB01B4DF182F682FCE018FDFBE0161
:10151000812FBBD6F0CFCB019ADF182FF8CFFF92E7
:101520000F931F93CF93DF93C091770289E0F82E3A
:10153000809178028C1305C0CDB7DEB7E5E00C943E
:101540005B2AD0E0FC9EF001FD9EF00D1124E758CF
:10155000FD4F008111812281338144815581668153
:101560007781808571DE2196C770E2CF0F931F933C
:101570000091C1021091C2022091C3023091C402B5
:101580004091C5025091C6026091C7027091C80295
:101590008091C90259DE1F910F9108950F931F93F7
:1015A000CF93DF938091C702807F09F04FC0809175
:1015B000C602882309F44AC0E0917702D0917802EC
:1015C0001091C2020091C1024091C3025091C40225
:1015D0006091940170919501C9E0DE17B9F18E2FE9
:1015E00090E0EC9FF0011124E758FD4F2481222365
:1015F00091F1C89FF001C99FF00D1124DF01A75898
:10160000BD4F11962C911197211325C02C912013B9
:1016100022C015962C91159721111DC012962D915F
:101620003C91241B350B26173707A8F48091C7027D
:101630008F7080618093C702E158FD4F80818F7069
:101640008061808381EC92E093DD69DFDF91CF914F
:101650001F910F910895FC013196E770BECF482F7E
:10166000209177029091780259E0291302C080E01E
:10167000089530E0529FF001539FF00D1124E75878
:10168000FD4F8181681306C08081481303C08581A6
:101690008111EECF2F5F3F4F2770E7CFA8E1B0E079
:1016A000E4E5FBE00C94382A8C0186E0F801DE01C9
:1016B000539601900D928A95E1F7D80114968C917A
:1016C00014971596EC90159791ECA92E92E0B92EEF
:1016D0009091C50291111AC08823A9F0EE2089F0DB
:1016E000C80198DDF82E882361F089E0F801D50162
:1016F00001900D928A95E1F7C501CFDA4FDF36DF11
:1017000048C0C80135DDFF24F39443C0F801C08010
:10171000D18082809380F090C6022091C3023091E4
:10172000C402A401421B530B9A01409194015091B1
:101730009501FF2009F41EC12417350708F0C0C029
:10174000882339F19091C2028091C702282F207F0F
:1017500009F069C09D1122C09091C102C9121EC03A
:101760004091C8025091C902278130854217530722
:10177000A9F4E11052C08F7080618093C702F6DE39
:1017800081EC92E0F5DC8091C702D80116968C932B
:10179000F12C8F2D6896ECE00C94542AE1103DC09A
:1017A0006D2D8C2D5CDFE82E882361F081EC92E0BA
:1017B000DFDC89E0E1ECF2E0DF011D928A95E9F7D8
:1017C000D5DEE6CFCB8ADC8A8B899C8981DE292F06
:1017D00022952F70243058F49F70223080F0992386
:1017E00091F0F8019681907F71F4FE2CD2CF2A5FA0
:1017F0002F70223060F0C801BBDCEF2CF6CF9923AC
:1018000011F0882391F3805E883078F3F4CF803F25
:1018100060F3815F833078F7E8CF8091C702816001
:101820008093C702B5CF9D111EC09091C102C9120D
:101830001AC04091C8025091C90217962D913C914F
:1018400018974217530779F4E1100DC016968C9340
:10185000C8018EDC89E0F801A1ECB2E001900D92A4
:101860008A95E1F74CCFC801D5DC882309F449CF2C
:10187000EE2009F446CF8091C7028032B0F020916B
:10188000C1023091C2023B872A879D868C86909147
:10189000C5029E871F86888B8091C8029091C902DD
:1018A0009A8B898BCE010A9663DC89E0F801A1EC62
:1018B000B2E001900D928A95E1F770DE57DE23CFFA
:1018C0009091C702292F207F81F4682D9E8A8D8AEE
:1018D000A6017E899E2DAEDC81EC92E049DC89E098
:1018E000F50111928A95E9F76BCF882309F451CF5E
:1018F0008091C2028D111BC08091C102C81217C015
:101900004091C8025091C90217962D913C911897A9
:101910004217530761F4E1100AC016969C93C80160
:1019200027DC89E0F50111928A95E9F732CFC801E9
:1019300071DC882309F4E5CEEE2009F4E2CE809133
:10194000C702803208F4B1CF2091C1023091C202A7
:101950003A8329839C828B829091C5029D831E824B
:101960008F838091C8029091C90299878887CE01A0
:1019700001969ACF2417350708F046C0882309F44A
:10198000C2CEFE2CEE2009F4BCCE8091C2028D1195
:101990002FC08091C102C8122BC04091C802509143
:1019A000C90217968D919C9118974817590701F510
:1019B0002A3A3105A0F49091C70290FD10C0907FA3
:1019C00071F08091C70216968C931697903F09F498
:1019D0003FCF982F907F905F8F70892B37CF89E012
:1019E000F801A1ECB2E001900D928A95E1F7D1CE19
:1019F000C80110DC811159CF8091C70281608093AA
:101A0000C702C801B5DBC5CE682D9E8A8D8AA601A6
:101A10007E899E2D0FDC89E0F50111928A95E9F708
:101A20006ECEA2E1B0E0E7E1FDE00C943F2A0A8728
:101A30001B872C873D874E875F87688B798B8A8BC6
:101A4000CE010A962BDE8823C1F04E85442349F04F
:101A50000A851B852C853D855F85688979898A89FA
:101A6000F3DB89E0F82E8091770290917802891358
:101A70003BC06296E5E00C945B2A89E0FE013A9651
:101A8000DE01119601900D928A95E1F78E858823EB
:101A900041F32091780230E0C901019687709927BF
:101AA000409177024817190691F099E0929FD00172
:101AB000939FB00D1124A758BD4FFE0131960190A0
:101AC0000D929A95E1F78093780229DDCACF85DBE4
:101AD000109278021092770289E0E1ECF2E0DF01E7
:101AE0001D928A95E9F7BDCF8F9DC00111248758BB
:101AF0009D4FD4DD882309F4BCCFE0917702FE9E90
:101B0000F0011124E758FD4F0081118122813381BA
:101B10004481558166817781808596DB809177024B
:101B200090E0019687709927809377029CCF8091EF
:101B3000F20286958695869508958091F2028770C7
:101B400008959091F202977081E009F480E0089581
:101B500080911E03089590911E03892B80931E038C
:101B60000895809590911E03982390931E030895E5
:101B700010921E03089580911D03089590911D03F6
:101B8000892B80931D030895809590911D039823C0
:101B900090931D03089510921D0308958091F402FF
:101BA00008950895FECF08959091F302292F2823D8
:101BB00029F0809589238093F302F4CF0895089546
:101BC000FECF08959091F402292F2823281721F0A1
:101BD000982B9093F402F4CF08959091F402292F5A
:101BE000282329F0809589238093F402E9CF089572
:101BF0008091F402882321F01092F40280E0E0CF7B
:101C00000895CF93C0911E0380911D03C82B80912E
:101C1000F402882329F0C82B0E94C01F8111E8DF3D
:101C20008C2FCF910895CF93DF93C0919801D091DD
:101C30009901E7DF8883C0919801D091990148E02C
:101C400050E06AEE72E0CE010E94692A892B59F0B9
:101C500088E0FE01AAEEB2E001900D928A95E1F7CC
:101C6000CE010E945D1FDF91CF910895CF93DF9346
:101C7000C0919601D0919701C4DF8983C0919601EC
:101C8000D091970140E250E06AEC72E0CE010E94F0
:101C9000692A892B59F080E2FE01AAECB2E001909A
:101CA0000D928A95E1F7CE010E94681FDF91CF91D6
:101CB00008950E94F120813029F48091EF0387FF7D
:101CC00001C0D4CFB0CF0895FECF08959091F00316
:101CD00092FF0EC098E0899F90011124622B6093BF
:101CE000F2020EDB8091F202869586958695ECCF06
:101CF00007CB1092F20280E0E7CF9091F20280953C
:101D000089238093F202282F277059F4891749F00C
:101D10009091F00392FF05C0869586958695FEDA30
:101D2000E8CF08959091F00392FB222720F928171D
:101D300059F080FB92F99093F0038091EF0390911A
:101D4000F00333D082E0D9CF08958091F00382FB75
:101D5000882780F991E08927E5CF81E0E3CF80E013
:101D6000E1CF6FEF7FEF90E080E00C94B52A90E038
:101D700080E00E94872A21E0853E9E4F09F020E006
:101D8000822F089582E090E00C947F2A83E090E017
:101D90000E947F2A90E00895682F83E090E00C94E1
:101DA0009B2A84E090E00C94872ABC0184E090E0B8
:101DB0000C94B52AAB01BC018FE090E00C94AD2AE5
:101DC000AB01BC0183E190E00C94AD2A60E070E0CF
:101DD000CB01F6CF60E070E0CB01ECDFF7CFA8E0FD
:101DE000B0E0E5EFFEE00C94422A65EE7EEF90E075
:101DF00080E00E94B52A60E082E090E00E949B2A89
:101E000081E090E09093760280937502C5DF60E0F8
:101E100074E184E090E00E94B52A60E086E090E002
:101E20000E949B2A60E087E090E00E949B2A40E0AD
:101E300050E0BA0188E090E00E94AD2A60E083E2C1
:101E400090E00E949B2A60E08CE090E00E949B2A38
:101E500060E08DE090E00E949B2A19821A821B822A
:101E60001C821D821E821F82188648E050E067E1B6
:101E700070E0CE0101960E948C2A40E050E0BA0149
:101E80008FE190E00E94AD2AA5DF2896E2E00C9455
:101E90005E2AA5CF0895682F8EE090E00C949B2ACF
:101EA000A6E0B0E0E6E5FFE00C94402A0E94902115
:101EB0008C0180911F03909120038017910781F07E
:101EC00019821A820E949021682F49815A81792FA4
:101ED00080E090E00E941C061093200300931F03F3
:101EE0002696E4E00C945C2AE8D260932D0370936C
:101EF0002E0380932F0390933003609329037093F4
:101F00002A0380932B0390932C030895089508953A
:101F1000FDCF08950895FECF089581E0089586E7E6
:101F200092E1DBD6F4DFF4CF99C4089508950895C3
:101F3000FDDFFDCF1CDF811101C0ABDF23DF80930C
:101F400031032FDF9093F0038093EF03E9D61EDF78
:101F50008FD98091730290917402A3C90E94872146
:101F600087D281D4D9D3E6DF0E94FC050E94C71A2C
:101F700087D4D1CF73D4882329F00E94211F0E94D7
:101F8000D918A5C70895A6E0B0E0E9ECFFE00C94ED
:101F9000392AC3DF811108C083DFECDF0E94040609
:101FA0002696EBE00C94552AD6D381E2A82E83E046
:101FB000B82E750110E0F70101917F01812FB0D299
:101FC0001F5F183009F43DC00817A9F38091310351
:101FD00081FDACD2A9DFC82E10E099249394812F03
:101FE0009FD2082FF50181915F01081729F1D02EAA
:101FF000D826F12CEE24E3948D2D8E21A9F0CC204F
:1020000099F0F9821A830E9490219C838B839D8290
:1020100091E0802F8E2109F490E049815A816B81F3
:102020007C818D810E941C06F394EE0CF6E0FF1279
:10203000E3CFF501319700831F5F183081F654DF3D
:10204000ACCF0813C3CFA8CF1F93CF93DF931FD17B
:10205000EC01C11580E5D807F0F5C11580E4D8077B
:1020600008F09AC0C03ED10520F5CD3CD10508F05E
:1020700082C0C83AD10578F4C53AD10508F073C0DA
:10208000C130D10519F1209709F1C430D105F0F420
:10209000D0E0C0E01BC0C33CD105D0F7C85AD0E0A7
:1020A000CC0FDD1FCD5FDD4F0990D881C02DD464EA
:1020B0000DC0C11580E2D80708F0CCC0C11581E081
:1020C000D80708F05AC0C83ED10510F7CE01DF91FD
:1020D000CF911F910895C03682E5D80718F5C03416
:1020E00082E5D80708F068C0C03282E5D80708F05A
:1020F0005CC0C11582E5D80708F493C02C2F269543
:10210000269580E2289F900111248C2F8370C1E0D6
:10211000D0E002C0CC0FDD1F8A95E2F7C22BD32B93
:10212000DD68D4CFC03A82E5D80760F4C03882E5D4
:10213000D80708F456C0CF71D0E0DC2FCC27C46F8D
:10214000D06AC4CFC03C82E5D80708F45FC0C03E67
:1021500082E5D80708F09CCFDC2FCC27CC27DF7195
:10216000C06FD06AB3CFC55AD0E0C75CDD4FC8811D
:10217000D0E0D064ABCFD065A9CF8D2F2AD1182F56
:10218000CE01992784D0C12FD0E0DC2FCC27CC27DB
:10219000DF71C82BD92B9ACFCE01992778D0CC27C5
:1021A000DF70C82BD92BD06A91CFCF71D0E0DC2F54
:1021B000CC27C16FD06A8ACF2C2F26952695277001
:1021C00080E2289F900111248C2F8370C1E0D0E021
:1021D00002C0CC0FDD1F8A95E2F7C22BD32BDC683F
:1021E00075CF2C2F26952695277080E2289F900189
:1021F00011248C2F8370C1E0D0E002C0CC0FDD1F12
:102200008A95E2F7C22BD32BDA6860CF8C2F8F71BF
:10221000E0D0C82FD0E0DC2FCC27CC27DF71D062F4
:1022200055CF8C2F8F71D5D055E0D695C7955A953F
:10223000E1F7CF70D0E0DC2FCC27282F30E084FFEF
:1022400005C044E0220F331F4A95E1F7C22BD32B80
:10225000D0693CCF8D2F8F71BCD0182FCE0199271C
:1022600016D0C12FD0E0DC2FCC27CC27DF71C82BB4
:10227000D92BD5CF462F783028F4663018F4672F45
:102280000C94B30390E080E00895F4DFDDCE823853
:102290009105B9F1B0F48133910509F47DC048F49A
:1022A0008932910509F46DC08A32910509F47BC029
:1022B00008958533910509F45FC08933910509F1CB
:1022C0000895833E9105D9F138F4803E910529F1B6
:1022D000823E910579F10895863E9105D9F1873EB8
:1022E000910509F43EC0843E910541F52091F0032B
:1022F00021FF24C08091EF0384FD19C087EE90E098
:1023000008952091EF03237009F05AC02091F00343
:1023100023FF14C089E290E008952091EF0320FD8F
:1023200038C03091F00330FF09C024FF43C090E073
:1023300080E008952091EF0322FDF7CF08952091CA
:10234000EF0322FD3AC03091F00330FD39C024FF85
:10235000F5CFEDCF2091EF0323FFF0CF24FDE7CFA2
:10236000CDCF2091EF0323FD2EC03091F00331FF3C
:10237000EECF84EE90E008952091EF0325FFDECFAD
:10238000C9CF2091EF0325FD21C02091F00323FF49
:10239000D5CF89E390E0D2CF2091EF0326FFCECFB7
:1023A0008AE290E008952091EF0326FFC7CF81E3F2
:1023B00090E0089583EE90E0089582EE90E0089515
:1023C00080EE90E0089586EE90E0089585E390E039
:1023D00008959091EF0392FF10C041E0282F2471DF
:1023E000243009F040E031E0282F2871283009F02E
:1023F00030E0431711F02CE0822793FF10C041E03A
:10240000282F2471243109F040E031E0282F287171
:10241000283109F030E0431711F02CE08227309189
:10242000F00330FF10C051E0282F2171213009F056
:1024300050E041E0282F2871283009F040E054177F
:1024400011F029E0822731FF10C041E0282F2171CF
:10245000213109F040E031E0282F2871283109F0BE
:1024600030E0431711F029E0822794FD877E08951C
:102470001092F1031092F2031092F3031092F403FE
:102480000895CF92DF92EF92FF926B017C01E6D12B
:1024900081110EC00E949C21C61AD70AE80AF90AC7
:1024A000C092F103D092F203E092F303F092F403AE
:1024B000FF90EF90DF90CF9008950F931F93CED1B0
:1024C000882329F00E949C211F910F9108950E945A
:1024D0009C210091F1031091F2032091F3033091BC
:1024E000F403600F711F821F931FEECF80E00895E9
:1024F000CF939C01205E3245C1E02032310538F493
:10250000FB01C581C11103C08F710E94AB048C2FE8
:10251000CF9108950895FECF08950895FECF0895B0
:10252000E82FF0E0E250FC4F80810895089580EAA2
:102530008A95F1F7089500C00895F9CF0895089598
:10254000FECF0895EF92FF921F93CF93DF9300D0B9
:1025500000D0CDB7DEB782D1182F60910604882352
:1025600009F445C019821A821B821C82862F90E0D2
:102570009E012F5F3F4F7901B90182509C4F8CD152
:102580008823E1F08091F50390E044E050E0B7014A
:1025900082509C4F0E94692A21E020933203892BAC
:1025A000C1F410E0BBDF812F0F900F900F900F90C0
:1025B000DF91CF911F91FF90EF90089580913203AA
:1025C000882379F384E0F70111928A95E9F7109254
:1025D0003203E091F503F0E0E250FC4F89819A81EB
:1025E000AB81BC8180839183A283B383DBCF70E016
:1025F00062507C4F8091F50390E082509C4FD1D186
:102600009FDFD1CFF894E82FE295EF70F0E031A191
:10261000282F2F7081E090E001C0880F2A95EAF7FB
:10262000982F9095932391A392A1892B82A37894BC
:102630000895CF93DF9384E9E5DF86E6E3DF87E95A
:10264000E1DF86ECDFDFCCE3D2E089918F3F09F058
:10265000D9DF82E0C234D807C1F7DF91CF91089566
:10266000B0E0A0E0E6E3F3E10C943C2AEC01D62EC6
:10267000062F10E0C8018E5B9D4F7C01FC0180811C
:102680008F3F09F442C0F894E82FE295EF70F0E034
:1026900091A18F7021E030E001C0220F8A95EAF706
:1026A000892F822B81A382A12095282322A37894AD
:1026B00042DFECE3F2E042E452E031E0C12C219150
:1026C0002F3F41F1A22FA295AF70B0E090968C9170
:1026D00090E02F7002C0959587952A95E2F780FDCE
:1026E00019C0832FC82A330F4E175F0741F7F70130
:1026F00080818F3F09F086DF61E0C11001C060E09A
:102700008D2D1BDFC00FD11FC882CDB7DEB7E8E02B
:102710000C94582A80E0E6CF80919A0180919A012A
:1027200094E0811190E09093060484E0891B8093EB
:10273000F5037FDF88E0EEEFF3E0DF01982F1D92D5
:102740009A95E9F7E6EFF3E0DF011D928A95E9F744
:1027500084E03CD0E0CEA8E0B0E0E1EBF3E10C9403
:102760003F2A8E010F5F1F4F88E0F80111928A9572
:10277000E9F7F12C6F2DC80173DFF394F4E0FF1239
:10278000F9CF48E050E0B80186EF93E00E94692A53
:1027900021E0009709F420E0892B41F088E0F8015E
:1027A000A6EFB3E001900D928A95E1F760910604DF
:1027B00070E062507C4F44E086EF93E008D0182F21
:1027C000C1DE812B2896E5E00C945B2A0895B0E0E9
:1027D000A0E0EDEEF3E10C943C2A6C017B01042FA8
:1027E000C22F222379F081E0809335030E9490214B
:1027F000909334038093330380E0CDB7DEB7E8E0F5
:102800000C94582AD0913503DD23B1F38091330322
:10281000909134030E94A821059770F310E0A8015D
:10282000B601C7010E94692A892B31F0A801B601BF
:10283000C7010E94762ACD2F109235038C2FDDCF51
:10284000CF930E94FD29C82F811102C00E94F9294F
:102850008C2FCF910895809139030895809138038A
:102860000895FCCF0895ECDF80933803FADF80935E
:102870003903F1DF80939A01F1DF811142C008959D
:10288000EDDF811101C040C0089581E090913A03CD
:102890009A3008F080E008950F931F93CF93DF9351
:1028A000EC018B0180913A038A30B0F4B801CE017B
:1028B00076D0C82F811122C080913A038F3FB9F49E
:1028C0000E94902190933703809336038C2FDF91E1
:1028D000CF911F910F910895809136039091370306
:1028E0000E94A821843F914008F7C0E0EFCF8F5F9E
:1028F00080933A038A3020F7C1E0E8CF10923A0380
:10290000E5CF0C94692208950C946C220895B0E0F0
:10291000A0E0EDE8F4E10C943D2A7901C82F880F7E
:10292000DD0B41155105A9F0FE0193E0EE0FFF1FED
:102930009A95E1F7E556FE4F81819281855C9C4F27
:10294000208130E04217530708F49A01A9010E9440
:10295000762ACE010E944C23D82E8823D1F001156F
:102960001105B9F083E0CC0FDD1F8A95E1F7FE0178
:10297000E556FE4F438150E00417150708F4A801FF
:10298000C556DE4F6C817D81655C7C4FC7010E941E
:10299000762A8D2DCDB7DEB7E7E00C94592A2FC1EA
:1029A00008954BC10895A4E0B0E0E9EDF4E10C9482
:1029B000402A609158037091590380915A03909175
:1029C0005B030E94B72111E0643671058105910512
:1029D00008F173DD6E5F7F4F8F4F9F4F69837A835E
:1029E0008B839C8310E000E030E020E044E050E086
:1029F000BE016F5F7F4F83E08ADF182F882351F07D
:102A00000E949C21609358037093590380935A034A
:102A100090935B03812F2496E4E00C945C2AB0E051
:102A2000A0E0E5E1F5E10C943A2A7C015B016A0142
:102A30002CDF01E010E0882311F00AE010E0C1E093
:102A4000D0E0B501C701F6010995811104C02196B6
:102A50000C171D072CF4CDB7DEB7EAE00C94562A0C
:102A6000CC9F9001CD9F300D300D112490E080E07F
:102A700045E34A95F1F70000019682179307C1F7E5
:102A8000E0CF0F931F93CF93DF93EC016091460249
:102A9000709147026B5F7F4F44E050E00E94692ACB
:102AA0008C0160915403709155038091560390916D
:102AB00057030E94B721643671058105910510F412
:102AC000012BE1F010E000E030E020E044E050E0D5
:102AD000BE0182E01CDFC82F882351F00E949C2198
:102AE0006093540370935503809356039093570358
:102AF0008C2FDF91CF911F910F910895C1E0F8CFF6
:102B0000A5E0B0E0E6E8F5E10C943A2A5B01E0903C
:102B10004602F090470201E010E09E012B5F3F4F1C
:102B200050E040E070E060E080E0F1DE182F8823A4
:102B300009F448C067018FEFC81AD80A60915003A2
:102B40007091510380915203909153030E94B721D9
:102B5000643671058105910570F104E010E09E0175
:102B60002F5F3F4F50E040E070E060E081E0CFDE5B
:102B7000F82E64E070E0C6010BD511E09D8198133A
:102B800010E01F2151F10E949C216093500370932B
:102B90005103809352039093530389819A81AB81AF
:102BA000BC8180934C0390934D03A0934E03B0934C
:102BB0004F0311E012C064E070E0C601E9D49D81CA
:102BC0008913CBCFF70181819281A381B48189835D
:102BD0009A83AB83BC831111E0CF80914C03909119
:102BE0004D03A0914E03B0914F03F5018083918373
:102BF000A283B383812F2596EAE00C94562A0F9383
:102C00001F93CF93DF93EC018B0140E855E107DF81
:102C1000811106C080E0DF91CF911F910F9108953F
:102C200041E455E1B801CE01FADE882399F343ED82
:102C300054E1B801CE01F3DEEECF0F931F93CF9393
:102C4000DF938C01C0914602D0914702CE010196DC
:102C500024E0FB01DC0101900D922A95E1F764E08C
:102C600070E096D48883FE01359684E0D801019007
:102C70000D928A95E1F769857A858B859C8500910F
:102C800048031091490320914A0330914B03601788
:102C900071078207930749F06093480370934903D3
:102CA00080934A0390934B03ECDBDF91CF911F910C
:102CB0000F91089568C908950E942A210E94E02476
:102CC0002ED90E94F8244AD90E9401250E94042589
:102CD000F1DF0E941A252CD9F9CF909349028093F5
:102CE000480208953EC80895B6DD811105C084E00C
:102CF00017DC86958170089580E0FACF2CDD2FEFE8
:102D000086E791E0215080409040E1F700C000004C
:102D100022DDEADF882319F0E5DF0C94F72108951E
:102D2000EDCF08958832910548F48E319105A0F4D5
:102D3000049750F082E00E94BE0D0EC08D329105C6
:102D4000C9F320F48A9741F080E008958C3491050E
:102D500019F08D329240C1F781E00895EF92FF9211
:102D60000F931F93CF93DF93EC017B01C3378CE765
:102D7000D80761F4FB011581112311F0B9D010E0DF
:102D8000812FCDB7DEB7E6E00C945A2A0E94A80D39
:102D9000082F0E94CE0D082B7CD0811107C0023273
:102DA00011F011E0EDCF79D05AD7FBCF69D0F70100
:102DB00015811123B1F30D7909F054C0C034F2E547
:102DC000DF0720F5C11582E5D807D0F6C115E0E48C
:102DD000DE0790F4C115F0E2DF07B0F5C63ED1057D
:102DE00079F20E94CB0DCE019DDFC82F8823D1F14F
:102DF0000E94590E1C2FC4CFC11580E5D80788F753
:102E0000F7018681807F69F2DD27EBCFC03EE2E5E6
:102E1000DE07A0F4C03CF2E5DF0708F0B1CFC03612
:102E200082E5D807F0F2C03AE2E5DE0708F4A8CF61
:102E3000C43BF2E5DF0709F4A3CFD3CFCE01875718
:102E40009C47029770F69CCFF7018681807FE1F660
:102E50008D2F8F71823189F038F4C1EED0E082304D
:102E600009F4BFCF28D08CCF843109F489CFC6EEC6
:102E7000D2E1863109F4B5CFF5CFC5EED0E0B1CFC0
:102E80000E94902188579C4E90935D0380935C0331
:102E9000089580915E030895089580915E038111E5
:102EA00009C00E94B80D0E94F80DEADF81E080930E
:102EB0005E03F2CF089580915E03882339F082E2A9
:102EC0000E94DB0810925E0380E0E6CF08958091B7
:102ED0005E03882361F00E94902120915C03309171
:102EE0005D03821B930B8F3F9F4708F4E4CF089547
:102EF00080915E03882309F0DECFCFCF0895EF9253
:102F0000FF920F931F93CF93DF938091D203882377
:102F100061F0E0915F038DE0F82E8091D203E81715
:102F200048F01092D20310925F03CDB7DEB7E6E00F
:102F30000C945A2AEE24E394EE0EE0925F03CE2F17
:102F4000D0E0EF9DF0011124E659FC4F84818823E5
:102F5000A9F087819085892B99F4818592858F3F8F
:102F6000980771F061E0CADFFC9EF001FD9EF00D54
:102F70001124E659FC4F14820E94CB0DEE2DCDCFCB
:102F8000008111812281338144815581668177815D
:102F900080850E94110DE8CF0895CF93DF931092A2
:102FA000D4031092D303D0E0C0E00E94B503C81749
:102FB000D90718F0DF91CF910895CE010E94C80380
:102FC000FC018581811102C0148216822196EDCF09
:102FD0001F93CF93DF93109168032091690321170A
:102FE000D1F0C12FD0E0FE01EE0FFF1FE05AFC4FE1
:102FF000408151814817590791F40E94C80321E08C
:10300000FC01248380916803811305C02196C3705D
:10301000DD27C0936803DF91CF911F91089521961A
:103020001C2F1370DCCFB0E0A0E0E9E1F8E10C94D4
:10303000372AEB012C81211152C07090D203AAE6ED
:10304000B3E030E020E0812C61E070E0271508F06B
:1030500045C01B96CD90DC901C97A880B9804FEF9F
:103060005FEF912CE92CF12CF701EE0FFF1FEA0D19
:10307000FB1D05911491C016D10609F4A701011595
:10308000110511F09394EECF4F3F540781F1FB01EE
:1030900002C0EE0FFF1F4A95E2F78E2AAB01092C02
:1030A00002C0440F551F0A94E2F74150510984169B
:1030B0001506D1F44A815B816DE0629FF001639F48
:1030C000F00D1124E659FC4F5087478324E02483F8
:1030D000108211829287818721E02D8379DFCDB71D
:1030E000DEB7EDE00C94532A14961C9214972F5FD0
:1030F0003F4F1D96ABCF0F931F93CF93DF93C0919C
:103100006803809169038C1307C0F9DE46DFDF9105
:10311000CF911F910F910895D0E08E01000F111FE4
:10312000005A1C4FF801808191810E94C803BC01A4
:10313000F8018081918177DF2196C370E2CFEF9211
:10314000FF921F93CF93DF93FC012081318110E028
:1031500040E050E0E52FF0E0EE0FFF1FE20FF31F1D
:10316000A591B4911097B9F0FB01C081D18140E0E5
:1031700005C0AE15BF0509F411E04F5FE42FF0E084
:10318000EE0FFF1FEC0FFD1FE590F490E114F1042A
:1031900081F75F5FDFCF112349F0451708F4CB01BA
:1031A000DF91CF911F91FF90EF90089590E080E024
:1031B000F7CF8091BB01882329F18091D5039091AD
:1031C000D6030097F9F00E94A8212091D3033091F3
:1031D000D40328173907B0F49091680380916903EC
:1031E000981751F088DF1092D4031092D3031092F5
:1031F000D6031092D503089582DE1092D603109262
:10320000D503CBCE08951092D6031092D503109219
:10321000BB018091690380936803BFDE70CE80910B
:10322000BB01882309F0EFCF81E08093BB010895B3
:10323000ACE0B0E0EEE1F9E10C94322A4C016B0114
:1032400080352CE7920761F4FB0115811123D9F039
:1032500081E08093BB01812F2C96E2E10C944E2AF1
:103260008135FCE79F0731F4FB011581112359F0EB
:10327000CADFF1CF82359C4731F4FB011581112360
:1032800011F0CDDFE8CF209173023091740280916C
:10329000750290917602822B932B0E94C805182FFD
:1032A0007BDE181731F0F601608171810E943A11BE
:1032B0004C01B12CA12C1C8666246394712CCE0188
:1032C00001969B878A870E94B503A816B906C0F1AC
:1032D000F6018581882309F44BC1FC85FF2309F49D
:1032E00047C10E9490219093D6038093D50380918B
:1032F000D203883008F591E0980F9093D20399E0BB
:10330000F601DE01119601900D929A95E1F72DE0FC
:10331000829FC001112486599C4F29E0FE013196FD
:10332000DC0101900D922A95E1F72FEF3FEFFC01B0
:1033300032872187948683861C85109511708BCFE8
:10334000C5010E94C8037C01FC01408151814424D5
:103350004A94542C60E0262F30E0F901EE0FFF1F55
:10336000E40FF51F859194918816990609F42901B7
:10337000892B11F06F5FEFCF80E0FFEF4F165F06F4
:1033800009F445C0F70144813090BB01832D411100
:1033900080E0F82FF1703F2EF70125808681F6013D
:1033A0009581992309F483C0332009F480C021104A
:1033B00015C09301042C01C0220F0A94EAF7822B56
:1033C000F70186838091D3039091D403C29730F4A0
:1033D00082E390E09093D4038093D303C30102C0AF
:1033E000880F991F6A95E2F70197F7012681281740
:1033F000190681F58091D5039091D603009771F05D
:10340000A7D7C39758F021E0F701248381E0FC851A
:10341000F82BFC872FEFA21AB20A55CF2090680331
:1034200090E080E020916903221216C0E816F906A8
:1034300089F0422C512CF201EE0FFF1FE05AFC4F95
:10344000B182A0822FEF421A520A83E0482255240B
:1034500040926903832DDBCF422C512CF201EE0FF9
:10346000FF1FE05AFC4F808191810E94C8038C01AC
:10347000B70165DE0097A1F021E0FC012483E81686
:10348000F90641F32091680322120AC008171907B0
:1034900039F492012F5F3F4F237033272093680345
:1034A000EFEF4E1A5E0AF42DF3702F2EBBCF90E093
:1034B00021101EC0930102C0220F331F6A95E2F74C
:1034C000215031092817390729F4442309F44EC043
:1034D000C5017EDDC301042C01C0880F0A94EAF700
:1034E000982F9095F701868189238683322CB2CF5D
:1034F000AC01042C02C0559547950A94E2F7BA0135
:10350000617077279C012150310982239323892BF5
:1035100049F5672B39F1F70182819381892BF1F00D
:10352000EA85FB8527E011922A95E9F7F9D6282F3D
:103530008B839C8384E08D83F70182819381782F34
:103540008887998709811A813C8144E05E816F8177
:10355000892F0E94110DF7011582BCCF60E0C501D3
:10356000CDDCF9CFF42FF1702F2EB4CF232CB2CFB6
:103570009091680380916903981711F0BCDDDCCE4F
:10358000BEDC1092D6031092D50307DDD5CE089588
:10359000FC01680F791F8FEF91E36E177F0709F425
:1035A00008952191822728E030E087FF06C0880F28
:1035B000892721503109C9F7F0CF880FFACF9C0134
:1035C000FB018581882359F12137FCE73F07B9F0DA
:1035D00022379CE73907E9F020373C4709F560E2DC
:1035E00080919401909195010E94A805FC0101969B
:1035F00020812032D9F3CF0126D280E00895809136
:103600009401909195010596909395018093940172
:10361000F4CF80919401909195010597F5CF81E0C9
:103620000895CF93DF93EB0186319C4701F50E940B
:10363000A80D9D81992391F08A7A91E009F490E098
:103640009093D703811108C089E246D50E94590E94
:1036500080E0DF91CF91089585E3F7CF8091D70384
:10366000811103C089E24FD5F1CF85E3FCCF81E022
:10367000F0CFCF93DF93EC01FB018581882309F420
:10368000D2C09E0130572332310508F0B2C00E94EB
:10369000D10E9093F0038093EF03FE01E150F047C9
:1036A000E232F10520F4E952F54D0C942C2A809178
:1036B000EF0381608093EF0393C08091F0038860F3
:1036C0008093F0038DC08091EF038260F3CF8091EF
:1036D000EF038460EFCF8091EF038860EBCF8091A0
:1036E000F0038160EDCF8091F0038260E9CF80919B
:1036F000EF038061DFCF8091EF038062DBCF8091A9
:10370000EF038064D7CF0E94ED088091EF038068BB
:10371000D1CF8091EF038C60CDCF8091F003836097
:10372000CFCF8091EF038E7FC5CF8091F003877F4D
:10373000C7CF8091EF038D7FBDCF8091EF038B7F4B
:10374000B9CF8091EF03877FB5CF8091F0038E7F53
:10375000B7CF8091F0038D7FB3CF8091EF038F7E41
:10376000A9CF8091EF038F7DA5CF8091EF038F7B51
:10377000A1CF0E94ED088091EF038F779BCF8091BE
:10378000EF03837F97CF8091F0038C7F99CF809157
:10379000EF0382FB992790F921E0922790FB82F9B1
:1037A00090FB83F987CF8091F003982F90959170CB
:1037B0008E7F892B90FB81F983CF9091EF03892F26
:1037C0008F7B96FF806476CF0E94ED089091EF0387
:1037D000892F97FB87F980586DCF81E00E944B0FAE
:1037E0008091EF039091F0030E94D50E0E94ED08A6
:1037F00080E0DF91CF91089580E0F0CF9091EF03CA
:10380000892F8F7E94FF806155CF9091EF03892F90
:103810008E7F90FF81604ECF9091F003892F877F3C
:1038200093FF88604DCF81E0E4CFB0E0A0E0EBE112
:10383000FCE10C943B2AE82FF0E0EA55FD4FB490F0
:10384000282F26952695269530E0F901EA5BFC4F56
:103850000491877010E0082E02C0159507950A9410
:10386000E2F701701127F901EA5CFC4FE490F12CBA
:10387000082E02C0F594E7940A94E2F791E0E92259
:10388000FF24F901EA5DFC4FC491D0E002C0D59558
:10389000C7958A95E2F7C170DD27C62ED12C011598
:1038A000110549F5E114F10431F086EE0E94550648
:1038B000C601009771F5B6018B2D0E94B806C601AE
:1038C000009779F5E114F104A1F50115110531F026
:1038D00081EE0E949206C6010097C9F5CD2B31F00A
:1038E0008CE20E94CE06C114D104C9F5CDB7DEB773
:1038F000E9E00C94572A81EE0E945506C601009714
:1039000089F2EFE9FFE03197F1F700C0000001977D
:10391000F6CFEFE9FFE03197F1F700C00000019723
:10392000C8CFEFE9FFE03197F1F700C00000019741
:10393000C7CF86EE0E949206C601009731F2EFE9EA
:10394000FFE03197F1F700C000000197F6CFEFE9F3
:10395000FFE03197F1F700C000000197BDCF8FE97C
:103960009FE00197F1F700C0000091E0C91AD1086B
:10397000BACFEF92FF920F931F93CF93DF93EC0197
:10398000162F0AE08881882309F458C0813009F095
:1039900052C08981813071F47E0182E0E80EF11C11
:1039A0008A810E94CE06E701812F90E00097D9F529
:1039B0002196E8CF823041F47E01E2E0EE0EF11C68
:1039C0008A810E945506EFCF833041F47E01F2E0F8
:1039D000EF0EF11C8A810E949206E5CF843011F02F
:1039E0002196E2CF2A81229690E080E0AE014F5FDF
:1039F0005F4F2053330B2A30310550F00097A1F26E
:103A0000EFE9FFE03197F1F700C000000197F6CF32
:103A1000089FB001099F700D1124C901860F971FDF
:103A20002981EA01E3CFEFE9FFE03197F1F700C028
:103A300000000197BBCF612FF8DEBACFCDB7DEB75C
:103A4000E6E00C945A2A60E094CFEF92FF920F9335
:103A50001F93CF93DF938C01F62E8AE0E82EF801B6
:103A60008491882309F44CC0813009F045C0E801F5
:103A70002196FE018491813049F42196FE018491C2
:103A80000E94CE068E010F5F1F4FE9CF823039F4BE
:103A9000E8012296FE0184910E945506F3CF8330FF
:103AA00039F4E8012296FE0184910E949206EACF41
:103AB000843041F7E8012296FE01249190E080E0F5
:103AC000FE0131962053330B2A30310550F0009718
:103AD000C9F2EFE9FFE03197F1F700C0000001976C
:103AE000F6CFE89EA001E99E500D1124C901840F74
:103AF000951F2491EF01E4CF6F2D97DEE801C2CF2F
:103B0000CDB7DEB7E6E00C945A2A0F931F93CF93FC
:103B1000DF93C42FD22FFC0185818823C1F040930D
:103B2000DA03FED39093D9038093D80380E28C0FFD
:103B3000883040F4C77081E001C0880FCA95EAF769
:103B40000E94D506DF91CF911F910F91089510919A
:103B5000DA03141335C08091D8039091D903F8D3B8
:103B600020919401309195018217930748F5C0E2A6
:103B7000CD0F1D17B9F080E2810F883040F4177027
:103B800081E001C0880F1A95EAF70E94DA06C83072
:103B900048F481E09D2F977001C0880F9A95EAF74D
:103BA0000E94D506802F0E94CE06C83058F6D770E6
:103BB00081E001C0880FDA95EAF70E94DA06C2CFE9
:103BC00080E28C0F883008F0BDCFC77081E001C063
:103BD000880FCA95EAF7F1CF0F93DB0188519C4714
:103BE0008730910598F5FC01E750F54D0C942C2A8F
:103BF00006E221EE41EE6AE17CE7CD0186DF80E05E
:103C00000F91089507E225EE45EE6BE17CE7F5CFD5
:103C100006E221EE40EE68E17CE7EFCF07E225EE19
:103C200044EE69E17CE7E9CF06E221EE42EE6CE189
:103C30007CE7E3CF07E225EE46EE6DE17CE7DDCFE2
:103C400008E221E045EE6EE17CE7D7CF15968C9136
:103C5000882319F01092DA03D3CF81E0D1CF1092EC
:103C6000DA0308954115510511F0FA0109950895F7
:103C7000CF93DF93EC014A855B856E857F85F2DF0C
:103C80008B810E94C40D8C810E94B10D0E94590E3F
:103C900086E0FE0111928A95E9F7DF91CF910895B0
:103CA000CF93DF93EC018D8181FD10C082608D8305
:103CB0008B810E94BE0D8C810E94AB0D0E94590E1B
:103CC000488559856E857F85CE01CCDF1092DE0355
:103CD0001092DD038D8180FD02C0CE01C9DFDF912E
:103CE000CF910895CF93DF93EC018A81823041F424
:103CF000FB01828193810E9417048D8182608D83F4
:103D0000DF91CF910895FB01808191810C9417047C
:103D1000FC018281813031F4FB01808191810C941E
:103D20002B0408958230E9F7FB0182819381F7CF5C
:103D30000F931F93CF938C01FB01C581CC23A9F076
:103D40008091DD039091DE030097A1F08017910729
:103D500089F099270E94DB03FC01258124602583DB
:103D6000118300839DDF0E94CB0D8C2FCF911F917B
:103D70000F910895C0E0F9CFEF92FF920F931F9338
:103D8000CF93DF937C018B0197558F3F910519F0FD
:103D900010F011E036C00E94CA039701332728179C
:103DA000390708F04CC0C9010E94DB03EC01F8019F
:103DB00015818D8110FB80F98D83112341F1B0D2E3
:103DC0009093DC038093DB038A818F5F8A830E9458
:103DD000A80D8B830E94BB0D9B81892B8B830E9436
:103DE000CE0D8C834E815F816E857F85CE013ADF5B
:103DF0008D8181FF02C0F12CE12CF092DE03E09274
:103E0000DD03812FCDB7DEB7E6E00C945A2A4C854E
:103E10005D856E857F85CE0125DF8D8181FFB9CFE0
:103E2000CE0126DF8091DD039091DE038E159F0584
:103E300009F0AFCF1092DE031092DD03AACF10E09D
:103E4000E0CF8091DD039091DE03892BB9F0809162
:103E5000DB039091DC037CD2209194013091950199
:103E60002817390758F48091DD039091DE039927D4
:103E70000E94DB03FC01258122FF12CF08951092DE
:103E8000DE031092DD03F4CE9093E5038093E40308
:103E900008950E942E14811103C08091DF030895BC
:103EA000E091E403F091E503309729F00190F0816F
:103EB000E02D0995089580E00895E091E403F091E4
:103EC000E503309721F00280F381E02D09950895F4
:103ED000E091E403F091E503309739F026E0DC014E
:103EE0002C930480F581E02D09950895A3E0B0E0BE
:103EF000ECE7FFE10C94422A2091E2033091E303C6
:103F000028173907A1F09093E3038093E203E0912F
:103F1000E403F091E503309751F023E029839B837C
:103F20008A830084F185E02DCE01019609952396C0
:103F3000E2E00C945E2AA3E0B0E0E1EAFFE10C9439
:103F4000422A2091E0033091E10328173907A1F0BC
:103F50009093E1038093E003E091E403F091E503A3
:103F6000309751F024E029839B838A830084F18574
:103F7000E02DCE01019609952396E2E00C945E2A8D
:103F8000CF93DF93C0919801D0919901229629D1C6
:103F9000813081F48091EF0387FF0CC0C0919601BE
:103FA000D091970122969EE180E0915028F4DF9114
:103FB000CF91089596E0F8CF29912223B1F38F5F36
:103FC000F4CFCF93C82F811102C080E023C009D164
:103FD000813011F58091EF0387FF1EC0EC2FE6952D
:103FE000E695E695EE3188F78091960190919701DC
:103FF000E80FF92FF11D228130E0C77081E090E0D9
:1040000002C0880F991FCA95E2F72823392381E05F
:10401000232BD9F2CF910895809198019091990125
:10402000FC013296089621912C1721F0E817F90728
:10403000D1F7CBCF81E0EECF9C01FC0132969FEF10
:1040400080E04191461751F09F3F19F4411101C0A2
:10405000982F8F5F8630A9F79F3F09F40895290FA5
:10406000311D97FD3A95F90162830895FC0132965E
:1040700008962191261303C0DF0111971C92E817BF
:10408000F907B9F70895E62FE695E695E695EE313E
:1040900068F4E80FF92FF11D677021E030E001C0EE
:1040A000220F6A95EAF78281822B82830895E62F98
:1040B000E695E695E695EE3170F4E80FF92FF11DDF
:1040C000677021E030E001C0220F6A95EAF7209581
:1040D0008281282322830895CF93C82F82D06C2F0A
:1040E000813059F48091EF0387FF07C080919601DA
:1040F00090919701C8DFCF91089580919801909198
:1041000099019ADFF8CFCF93C82F6BD06C2F8130F5
:1041100059F48091EF0387FF07C080919601909139
:104120009701C5DFCF9108958091980190919901F1
:104130009DDFF8CF56D0813079F48091EF0387FF6F
:104140000BC0E0919601F091970132968EE1DF016C
:104150001D928A95E9F70895E0919801F0919901EF
:10416000329686E0F4CF0895FECF089581110CC0F9
:1041700081E08093BF016091BC017091BD0180918D
:10418000BE019091BF01F0CF82E0F3CF83E0809336
:10419000BF016091BC017091BD018091BE01909101
:1041A000BF01E2CFE3CF089581E08093BF0160912A
:1041B000BC017091BD018091BE019091BF01D4CF2F
:1041C000F3CF089591E0811101C090E09093BE017A
:1041D0006091BC017091BD018091BE019091BF01C1
:1041E000C3CF8091BE0108958093BD016091BC0151
:1041F0007091BD018091BE019091BF01B5CF8091BA
:10420000BD0108958093BC016091BC017091BD0116
:104210008091BE019091BF01A7CF8091BC0108950C
:1042200008950895FECF089508950895F9CF08954B
:10423000CF93FADF0E94AB13F8DFC0E08C2F0E940F
:104240009012811105C0CF5FC830C1F7CF9108959A
:1042500081E0FCCF85B7806885BF85B7806885BF62
:1042600008951F921FB61F9211248F939F93AF93AF
:10427000BF938091E603811113C080910704909150
:104280000804A0910904B0910A044196A11DB11D32
:104290008093070490930804A0930904B0930A0440
:1042A000BF91AF919F918F911F901FBE1F90189546
:1042B00080910F04843031F10E944A051092E60388
:1042C00088E190E020E40FB6F894A8958093600010
:1042D0000FBE2093600083B7817F846083BF83B764
:1042E000816083BF7894889583B78E7F83BF0FB634
:1042F000F894A89580916000886180936000109286
:1043000060000FBE08950E94ED080C944D0582E0F8
:1043100084BD93E095BD9AEF97BD80936E0008959C
:104320002FB7F8948091070490910804A091090494
:10433000B0910A042FBF08952FB7F8946091070435
:10434000709108048091090490910A042FBF089588
:104350009C014FB7F8948091070490910804A091B4
:104360000904B0910A044FBF821B930B0895CF92AA
:10437000DF92EF92FF922FB7F894C0900704D0908D
:104380000804E0900904F0900A042FBFA7019601E9
:10439000261B370B480B590BCA01B901FF90EF9050
:1043A000DF90CF90089578941F921FB61F9211242A
:1043B0008F939F93AF93BF938091070490910804CC
:1043C000A0910904B0910A040196A11DB11D80932A
:1043D000070490930804A0930904B0930A04BF91C2
:1043E000AF919F918F911F901FBE1F90189587E7E7
:1043F00097E7909301088093000888E19AE00FB650
:10440000F894A895809360000FBE90936000FFCF52
:1044100088E19AE00FB6F894A895809360000FBEEB
:1044200090936000FFCF8EE14A9B02C08150E1F77C
:104430004A9BFECF08955A9880E28A95F1F75A9ADE
:104440000895FC013BE03A95F1F798E020E080E028
:1044500031E040E14A95F1F7880F4A9B02C0816044
:10446000232742E04A95F1F7000040E14A95F1F731
:10447000915079F790E19A95F1F799B132E03A9538
:10448000F1F7000040E14A95F1F792FB992790F986
:1044900092272081920F90830895A1E0B0E0E2E599
:1044A000F2E2ECC719828C017C01E60EF11C0E15BC
:1044B0001F0539F481E09981911180E02196E6E0B1
:1044C000F9C7B1DFCE010196BCDFF80181938F01FE
:1044D000EECF529A5A9A089552985A9AEA9AE9E671
:1044E000F0E080818F7C808308956150770B91E0AC
:1044F00001C0990F6A95EAF720E031E0911108C0F8
:10450000222391F05A9A80E28A95F1F75A980895F9
:10451000492F482339F05A9A232740E24A95F1F768
:104520009695ECCF5A98F9CF5A98EDCFFF920F930A
:104530001F93CF93DF93EC018C01060F111DC01761
:10454000D10721F4CDB7DEB7E5E0B5C7F99073DF49
:1045500068E08F2DCADFF3CF1F920F920FB60F9234
:1045600011240F931F932F933F934F935F936F9358
:104570007F938F939F93AF93BF93EF93FF93CF93CB
:10458000DF930F92CDB7DEB719824DDFCE010196D2
:1045900058DF082F069506950695282F2295257039
:1045A000902F9570290F922F937026952695920F34
:1045B000982797708981982B09F058C0053008F02A
:1045C00055C080E18A95F1F75A9A529A82E08A950D
:1045D000F1F700C05A9888E0089F80011124D801A3
:1045E000A556BE4F1696ED91FC9117973097A9F0FE
:1045F000609146027091470214962D913C91159757
:10460000260F371F11968D919C911297680F791F75
:1046100013964C9113978C910995F801E556FE4F2E
:104620006381662349F020914602309147028481DC
:104630009581820F931F7ADFFEDE80E18A95F1F784
:104640005A9852985A9A80E18A95F1F7F801E556FE
:10465000FE4F6081662349F0209146023091470267
:1046600081819281820F931F18DFDDDE0F90DF9131
:10467000CF91FF91EF91BF91AF919F918F917F91DA
:104680006F915F914F913F912F911F910F910F90DB
:104690000FBE0F901F9018950F931F93CF93DF932A
:1046A000EC0105970CF049C0F894529A5A9885E0AD
:1046B0008A95F1F700009C2F969595708C2F857048
:1046C000980F892F83709695969523E0CC0FDD1F68
:1046D0002A95E1F7980F8E01092BADDE00C068E046
:1046E000802F03DF80E18A95F1F752985A9A4A9B0E
:1046F0001DC087E090E04A991BC0FE01E556FE4FC1
:1047000063816623F1F02091460230914702848153
:104710009581820F931FC1DE811113C0529A5A9A5C
:104720007894DF91CF911F910F91089500C0DFCF52
:10473000019729F4529A5A9A789480E0F2CF00C0F7
:10474000DACF71DE80E28A95F1F75A98529A80E1C9
:104750008A95F1F7C556DE4F6881662349F02091AE
:1047600046023091470289819A81820F931FDEDED3
:1047700062DE789481E0D5CF08959B01BA019091D3
:104780000F049430E1F48F708093E9009FEF8091E3
:10479000E800915085FD06C085ED8A95F1F700008F
:1047A0009111F5CF8091E80085FF09C050E040E00D
:1047B000C901B5D18091E8008E778093E800089513
:1047C00043E050E0BC0182E0D8CF40E250E0BC01C1
:1047D00082E0D3CFCF93DF93EC0103DD48E050E0DC
:1047E000BE0181E0CADF88E0FE01A7EEB3E00190E0
:1047F0000D928A95E1F7DF91CF91089580910E0493
:10480000811107C01AD371D38091E2008460809334
:10481000E200089510920E040895C6DC81E0D2CC27
:1048200060910B0481E0611101C080E0AFCC9091F8
:104830000F0481E0943009F080E060910B04B2CC69
:1048400042E061EC81E075D242E261EC82E071D23B
:1048500090910F0481E0943009F080E060910B04A6
:1048600085CC80911104833009F45EC030F481302E
:10487000C1F1823009F494C008958A3009F483C0EC
:104880008B3009F46BC0893009F04DC08091100461
:10489000813209F048C08091140490911504029768
:1048A00008F041C08091E800877F8093E800809104
:1048B000E80082FF34C09091F3008091F2000297EB
:1048C00031F48091F100813011F0863019F480913B
:1048D000F1008ADC8091E8008B778093E8005DD25C
:1048E00022C080911004813AF1F48091E800877F22
:1048F0008093E8008091140490911504892B59F459
:1049000068E087EE93E070E057D18091E8008B7704
:104910008093E800089560E090E080E0F4CF80911B
:104920000F048111C4CF089580911004813AD9F702
:104930008091140490911504892BA9F78091E800C7
:10494000877F8093E8008091E80080FFFCCF49DCFE
:104950008093F1008091E8008E77BFCF80911004A2
:10496000813209F78091140490911504892BD9F6AE
:104970008091E800877F8093E8000FD28091120435
:1049800021DC0C94ED0880911004813261F6809155
:10499000E800877F8093E80000D28091130432CC36
:1049A00080911004813A09F0BECF8091E800877FA2
:1049B0008093E8008091E80080FFFCCF2EDCC8CF18
:1049C00084B7877F84BF0FB6F894A8958091600064
:1049D000886180936000109260000FBE80E890E0D4
:1049E0000FB6F89480936100909361000FBEE8CBFE
:1049F00024D27BD2E2EEF0E08081846080837894E0
:104A0000DEC480EC91E040CA80910F04853029F427
:104A100080910F04853011F076CC089549DC08DCD4
:104A20008823B1F380910D04882391F362D00E9412
:104A3000ED08EECF08959A014091160450911704A5
:104A400000C0492F55274330510519F168F4413012
:104A5000510509F444C04230510509F445C090E0C5
:104A600080E050E040E025C04132510549F142323A
:104A70005105A9F784E490E044E354E06115710521
:104A8000C1F08DE690E047EC53E06130710589F0AC
:104A9000E6CF99278130910581F0009729F00297A0
:104AA000F1F6E6E5F3E002C0E6E7F3E0849190E09A
:104AB000AF01F901518340830895E4E6F3E0F6CFB6
:104AC00089E090E04CE853E06115710591F389E0CD
:104AD00090E045EA53E06130710559F3C0CF82E1BF
:104AE00090E045EB53E0E5CF8BE390E04AE753E0FD
:104AF000E0CF80E189BD82E189BD09B400FEFDCF30
:104B00008091D8008F7D8093D8008091E0008260F2
:104B10008093E0008091E00081FDFCCF0895AF928A
:104B2000BF92CF92DF92FF920F931F93CF93DF93A9
:104B30006C01EB018A0150D1F82E811123C00115BF
:104B4000110539F0F80180819181C81BD90BC80E7D
:104B5000D91EB12CA12C2097A9F08091E80085FDE9
:104B600021C08091E8008E778093E800011511053F
:104B7000A1F0F80180819181A80EB91EB182A082B6
:104B800085E0F82E8F2DDF91CF911F910F91FF902F
:104B9000DF90CF90BF90AF9008951ED18823D9F2B7
:104BA000F82EF0CFF60181916F018093F1002197EB
:104BB000FFEFAF1ABF0ACFCFFC018091160490918E
:104BC000170486179707A0F06115710529F49091D5
:104BD000E8009E779093E80090E06115710551F42C
:104BE000911108C08091E80082FF34C080E00895F0
:104BF000BC01F2CF80910F048823C1F18530C1F14F
:104C00008091E80083FD30C08091E80082FDEACF0A
:104C10008091E80080FFE1CF8091F3002091F200C5
:104C2000382F6115710519F02830310558F091E0E1
:104C30002830310509F090E02091E8002E7720938C
:104C4000E800CBCF81918093F100615071092F5F13
:104C50003F4FE7CF80910F04882341F0853041F02A
:104C60008091E80083FFBECF81E0089582E008953F
:104C700083E00895FC018091160490911704861733
:104C80009707A0F06115710529F48091E8008E77EF
:104C90008093E80090E06115710551F4911108C00E
:104CA0008091E80082FF35C080E00895BC01F2CF1A
:104CB00080910F048823C9F18530C9F18091E80003
:104CC00083FD31C08091E80082FDEACF8091E80049
:104CD00080FFE1CF8091F3002091F200382F611521
:104CE000710519F02830310558F091E02830310570
:104CF00009F090E08091E8008E778093E800CBCFB8
:104D000084918093F1003196615071092F5F3F4F7C
:104D1000E6CF80910F04882341F0853041F08091E7
:104D2000E80083FFBDCF81E0089582E0089583E02D
:104D30000895982F973028F08F708093E90081E0D4
:104D400008959093E900242F762F50E0981731F0C2
:104D50007091EC002091ED005091F00021FD02C017
:104D60009F5FE8CF3091EB003E7F3093EB003091B6
:104D7000ED003D7F3093ED003091EB0031603093DA
:104D8000EB007093EC002093ED005093F000209125
:104D9000EE0027FDE5CF80E008958091100487FFA5
:104DA00013C08091E80082FF06C08091E8008B77F5
:104DB0008093E80004C080910F048111F2CF089520
:104DC00080910F048823D9F38091E80080FFF8CF09
:104DD0008091E8008E77ECCF2091E4003091E500DF
:104DE00095E6A9012091EC00822F817020FF06C07A
:104DF0008091E80080FF06C080E008952091E800DF
:104E000022FD1AC080910F04882389F0853089F033
:104E10008091EB0085FD0FC02091E4003091E5000A
:104E200042175307F9F29150E1F684E0089582E0C9
:104E3000089583E0089581E0089567D06ED0E0EE94
:104E4000F0E0808181608083E8EDF0E080818F7701
:104E5000808319BCA7EDB0E08C918E7F8C9380810C
:104E60008F7E808310920E0408950F931F93CF932B
:104E7000DF934BD052D0C8EDD0E088818F77888304
:104E800088818068888388818F7D888319BC10928F
:104E90000F0410920B0410920D0410920C0400EEFB
:104EA00010E0F80180818B7F808388818160888316
:104EB00042E060E080E03DDFE1EEF0E080818E7F67
:104EC0008083E2EEF0E08081816080838081886071
:104ED0008083F80180818E7F8083888180618883D0
:104EE000DF91CF911F910F910895E8EDF0E080815F
:104EF0008F7E8083E7EDF0E080818160808384E0B5
:104F000082BF81E080930E04B0CFE8EDF0E08081B5
:104F10008E7F80831092E20008951092DA00109242
:104F2000E10008951F920F920FB60F9211242F9354
:104F30003F934F935F936F937F938F939F93AF9321
:104F4000BF93EF93FF938091E10082FF0AC08091AD
:104F5000E20082FF06C08091E1008B7F8093E10038
:104F60002DD28091DA0080FF18C08091D80080FF98
:104F700014C08091DA008E7F8093DA008091D9008E
:104F800080FF91C080E189BD82E189BD09B400FE46
:104F9000FDCF81E080930F0431DC8091E10080FF40
:104FA00018C08091E20080FF14C08091E2008E7FE3
:104FB0008093E2008091E20080618093E200809122
:104FC000D80080628093D80019BC85E080930F04DC
:104FD00027DC8091E10084FF2AC08091E20084FFF9
:104FE00026C080E189BD82E189BD89B5982F917085
:104FF00080FFFBCF8091D8008F7D8093D800809177
:10500000E1008F7E8093E1008091E2008F7E8093AB
:10501000E2008091E20081608093E20080910B04C5
:10502000882309F445C084E080930F0400DC80915C
:10503000E10083FF27C08091E20083FF23C08091BD
:10504000E100877F8093E10082E080930F0410925B
:105050000B048091E1008E7F8093E1008091E2005B
:105060008E7F8093E2008091E20080618093E20075
:1050700042E060E080E05DDE8091F0008860809337
:10508000F000CBDBFF91EF91BF91AF919F918F919A
:105090007F916F915F914F913F912F910F900FBE34
:1050A0000F901F90189519BC10920F04B3DB75CFA9
:1050B0008091E30087FD93E090930F04B7CF1F9298
:1050C0000F920FB60F9211242F933F934F935F933C
:1050D0006F937F938F939F93AF93BF93CF93DF9300
:1050E000EF93FF93D091E900DF708091EC00C82F1F
:1050F000C17080FDC0E81092E9008091F000877FC8
:105100008093F00078941ED01092E9008091F00016
:1051100088608093F000CD2BCF70C093E900FF91A1
:10512000EF91DF91CF91BF91AF919F918F917F913F
:105130006F915F914F913F912F910F900FBE0F9004
:105140001F901895AAE2B0E0E7EAF8E29AC180E180
:1051500094E02091F100FC012193CF01F4E088312B
:105160009F07B9F77EDB8091E80083FF16C180912D
:105170001004909111049A3008F00FC1E92FF0E06B
:10518000E050F54D69C1803899F0823809F005C1C9
:10519000809114048F70873008F0FFC08093E9007D
:1051A0008091EB0085FB882780F91092E90006C00A
:1051B00080910C0490910D04911182609091E8000F
:1051C000977F9093E8008093F1001092F100809116
:1051D000E8008E77DFC0882309F4CDC0823009F063
:1051E000DCC0809112048111D0C0809114048F70B2
:1051F0002FEF280F263008F0D0C08093E9002091CF
:10520000EB0020FFC2C0933031F48091EB0080624C
:105210008093EB00BAC09091EB0090619093EB000B
:1052200021E030E001C0220F8A95EAF72093EA00DE
:105230001092EA008091EB008860EACF8111ADC046
:10524000109112041F778091E3008078812B809366
:10525000E3008091E800877F8093E8009EDD8091E5
:10526000E80080FFFCCF8091E30080688093E3003A
:1052700082E0111183E080930F048FC08058823048
:1052800008F08BC080911204909113048C3D23E0B0
:10529000920799F583E08A838AE289834FB7F8946D
:1052A000DE01139620E03EE051E2E32FF0E0509360
:1052B0005700E49120FF03C0E295EF703F5FEF706D
:1052C0008E2F90E0EA30B8F0C7968D939D932F5FB4
:1052D000243159F74FBF8091E800877F8093E80021
:1052E0006AE270E0CE01019667DC8091E8008B777E
:1052F0008093E80052C0C096E8CF6091140470918A
:105300001504AE014F5F5F4F96DBBC01892B09F49A
:1053100044C09091E800977F9093E80089819A813A
:10532000A9DCE3CF8038C9F58091E800877F8093BE
:10533000E80080910B048093F10049CF81112DC0CA
:1053400090911204923048F58091E800877F809315
:10535000E80090930B0421DD80910B04882311F069
:1053600084E005C08091E30087FDFACF81E080935F
:105370000F0466DA12C080911204813071F481E06A
:10538000933009F080E080930D041092E900809141
:10539000E800877F8093E80000DD8091E80083FFCC
:1053A0000AC08091E800877F8093E8008091EB003D
:1053B00080628093EB00AA96E3E07FC00895CF93CC
:1053C00080910F04882399F0C091E900CF709091EB
:1053D000EC00892F817090FD80E8C82B1092E900C5
:1053E0008091E80083FDAEDECF70C093E900CF91DD
:1053F000089523DD10920F040895E8EDF0E0808118
:10540000806180838AE18A95F1F700C08091D9009C
:1054100081700895A1E21A2EAA1BBB1BFD010DC0CD
:10542000AA1FBB1FEE1FFF1FA217B307E407F50754
:1054300020F0A21BB30BE40BF50B661F771F881F30
:10544000991F1A9469F760957095809590959B01C6
:10545000AC01BD01CF010895EE0FFF1F0590F4913F
:10546000E02D09942F923F924F925F926F927F921C
:105470008F929F92AF92BF92CF92DF92EF92FF9264
:105480000F931F93CF93DF93CDB7DEB7CA1BDB0B10
:105490000FB6F894DEBF0FBECDBF09942A883988B5
:1054A00048885F846E847D848C849B84AA84B984BC
:1054B000C884DF80EE80FD800C811B81AA81B981C8
:1054C000CE0FD11D0FB6F894DEBF0FBECDBFED01DC
:1054D0000895FB01DC0104C08D910190801921F435
:1054E00041505040C8F7881B990B0895FB01DC011F
:1054F00002C001900D9241505040D8F70895F9999B
:10550000FECF92BD81BDF89A992780B50895A8E194
:10551000B0E042E050E02FC0DC01A40FB51F4150C5
:10552000504040F0CB01840F951F2E9105D0415083
:105530005040D8F70895262FF999FECF92BD81BD2E
:10554000F89A019700B4021639F01FBA20BD0FB6C1
:10555000F894FA9AF99A0FBE08950396272FECDF74
:10556000EADF252FE9DF242FE7CF0196272FE4DF9D
:10557000E2CFDC01CB01FC01F999FECF06C0F2BD00
:10558000E1BDF89A319600B40D9241505040B8F701
:105590000895F894FFCF1D071D075F075F07B80741
:1055A000450745074507D4073D0849084908911BA9
:1055B000051C991B631B671B9D1B6B1BA11BAD1B54
:1055C000771BFE1B7B1BB11B7F1BB51BDD1B831BCE
:1055D000B91BE41B891BBF1BC71B6F1BA51B731BC0
:1055E000A91B8D1BC31BD31BED1BFC1B5D1B951B3C
:1055F0000C1C081E0E1EF81D021E141E1A1E201E54
:10560000C328EB28CD29EB28CD291E293E29CD29F9
:0456100092299E2914
:10561400A002737C0000009A02737C00000000006A
:1056240000000000721E831E881E00008E01000010
:105634000000000000005A0200000000000000000A
:1056440000000000000079020000000000000000DB
:1056540000000000721E831E881E00008A010000E4
:1056640000000000721E831E881E000086010000D8
:1056740000000000721E831E881E000082010000CC
:1056840000000000721E831E881E00007E01380088
:1056940031003600300010002F00130034003502B2
:1056A4003500FF00AA00F502150301000000010007
:1056B40000000000000004010000000405000000D8
:1056C40000000004090000000000000100000100C7
:1056D400FF20EA23E523BC23E023E200E900EA00FB
:1056E400B500B600B700CD008301CC008A01920159
:1056F40094012102230224022502260227022A02FF
:10570400B300B4006F0070009F01CB019F02A002A0
:10571400818283E200E900EA00B500B600B700CD5B
:10572400008301CC008A0192019401210223022406
:10573400022502260227022A02B300B4006F007079
:10574400009F01CB019F02A002818283F4F5F6F74A
:085754003133946697C63B0354
:00000001FF
