:1000000034C200004FC200004DC200000C945522C3
:1000100049C2000047C2000045C2000043C20000C0
:1000200041C200003FC200000C943B270C940828FA
:100030000C94DA2037C2000035C2000033C2000041
:1000400031C200002FC200002DC200002BC20000F0
:1000500029C200000C947C2125C2000023C20000AC
:1000600021C200001FC200001DC200001BC2000010
:1000700019C2000017C2000015C2000013C2000020
:1000800011C200000FC200000DC200000BC2000030
:1000900009C2000007C2000005C2000003C2000040
:1000A00001C20000FFC10000FDC1000000003400DB
:1000B0003600370013001C00000004001224082240
:1000C00018280C000000330014000D000E001B0067
:1000D0000000000000000000417E2C2100000F0005
:1000E000150006000A00090000001600113417323E
:1000F0000B38070000001D0019001A001000050051
:100100000000000000000000427E283100001400C2
:100110001A0008001500170000000400160007224E
:1001200009000A0000001D001B0006001900050060
:100130000000000000000000417E2C00000003577A
:1001400012000C0018001C00000033000F000E32DB
:100150000D000B000000065737000557045711002B
:100160000000000000000000427E28000000437EE6
:10017000447E457E467E2A0800002B022B00E100CB
:10018000E3002A040000477E487E497E4A7E4C04F4
:1001900000000000000000000000000000004F12FE
:1001A000521251125012501A00004F0052005100CA
:1001B0005000501800004F1452145114501450168F
:1001C0000000000000000000407E2C0F00001E0216
:1001D0001F02200221022202000059005A005B0087
:1001E0005C005D0000002F0230022D000157005717
:1001F00000000000000000002D0204520000310049
:100200003102250224022302000062006100600026
:100210005F005E0000002702260230002F00025718
:1002200000000000000000000000000000004B7E05
:100230000000220A210A210B0000000000004700F4
:100240004800060800005000510052004F001908F5
:100250000000000000000000417E2C0000000000B3
:100260000000A800AE0029000000BB00A900AA0001
:10027000BC002A0000004F00520051005000000056
:100280000000000000000000427E280007220E321D
:1002900000000822173200000000000000000000EB
:1002A0002A2B2800000000000000000000000000D1
:1002B00000000029000000002C1E342021222434DC
:1002C0002627252E362D3738271E1F2021222324AE
:1002D00025263333362E37381F0405060708090A4A
:1002E0000B0C0D0E0F101112131415161718191AE6
:1002F0001B1C1D2F3130232D350405060708090A64
:100300000B0C0D0E0F101112131415161718191AC5
:100310001B1C1D2F3130354C000000000000000078
:1003200000000000000000000000000000000000CD
:100330000000000000000000000000007E0F00D45C
:10034000FFFFFFC7000000780C0343006F0072003E
:100350006E0065000000100366006F006F00730000
:10036000740061006E0000000403090409023B00F0
:10037000020100A0FA0904000001030101000921A3
:10038000110100012244000705810308000109044E
:1003900001000103000000092111010001226D008C
:1003A000070582032000011201000200000008532B
:1003B00046010001000102000105010980A101853B
:1003C0000319012AB700150126B7009501751081A0
:1003D00000C0050C0901A101850419012AA002151C
:1003E0000126A002950175108100C005010906A132
:1003F000018506050719E029E7150025019508750F
:100400000181020507190029EF1500250195F075F6
:1004100001810205081901290595057501910295CB
:100420000175039101C005010906A101050719E045
:1004300029E71500250195087501810295017508C8
:1004400081010507190029FF150026FF0095067593
:100450000881000508190129051500250195057574
:10046000019102950175039101C011241FBECFEFC8
:10047000DAE0DEBFCDBF12E0A0E0B1E0E6E6F5E5F0
:1004800002C005900D92A035B107D9F724E0A0E590
:10049000B2E001C01D92A532B207E1F70E946B16CF
:1004A0000C94722AADCD80915A02882321F01092CB
:1004B0005A028AEA8ED480915902882321F0109240
:1004C000590288E886C40895CF93FB0184342EE74F
:1004D000920709F400C110F580342EE7920709F461
:1004E00060C060F48932910509F44FC084309245B0
:1004F00009F4A5C0C1E08C2FCF910895C581823445
:100500003EE7930709F4A9C008F45AC0CC2309F4C4
:10051000ECC088E859D48FE2D7D33AC088343EE79C
:10052000930709F4EDC0F0F4258186343EE7930784
:1005300009F4DDC008F4D6C0222351F1C0915A025B
:10054000C111DBC080915902882321F01092590219
:100550000E94C70D8AEA38D48BE22FD481E08093C1
:100560005A02C9CF8A342EE7920709F4E8C008F48A
:10057000DFC08B349E4709F0BDCF8581882309F405
:10058000B4C08CEC21D48CE0C7CFC581CC2311F052
:10059000C0E0B1CF0E9458178823D1F30E946A1798
:1005A000AACF85818823A1F383E090E080D68FEFE6
:1005B0000BD48CE289D320D681E080935202E8CF1D
:1005C000CC23B9F00E9439219093580280935702AE
:1005D00084E095D6882329F084E0AFD681E080932B
:1005E000530282E08CD6C82F82E0C111D1CF97D6BA
:1005F00082CF59DF82E083D6882311F082E09DD636
:1006000080915302811116C080915202811112C053
:100610000E9439212091570230915802821B930B7E
:100620008A3A910538F489E2C8D30E94581781119B
:100630000E946A1710925302109252025CCF858179
:10064000882321F081E080935402A2CF84E057D622
:10065000C82F84E0C1119CCFCACFCC23B1F00E9437
:100660003921909356028093550284E048D688231E
:1006700029F084E062D681E08093530283E03FD684
:10068000C82F811185CF83E0B2CF0DDF83E037D64D
:10069000882311F083E051D680915402811116C055
:1006A00080915302811112C00E943921209155027C
:1006B00030915602821B930B8A3A910538F48AE2F4
:1006C0007CD30E94581781110E946A17109253021E
:1006D0001092540210CF8581882339F088E874D3B2
:1006E00080E31ACF83E3211105C086D551CF2223A1
:1006F000E1F381E169D38BE20FCF8BE25ED348CF88
:100700008581882309F444CFC0915902C111F5CFE6
:1007100080915A02882321F010925A020E94C70D3C
:1007200088E852D38BE249D381E080935902E3CE2B
:1007300085818823D1F281E147D380E5EDCE8581A3
:10074000882399F281E140D38FE4E6CE8530B8F476
:100750006830A8F4463098F450E096E0699F400D68
:10076000511D1124FA0190E3899FE00DF11D112420
:10077000EE0FFF1FE455FF4F85919491089581E09E
:1007800090E00895E3CF089582E090E008958230EC
:10079000910550F447E0489F9001499F300D112486
:1007A000C90180509F4F089590E080E00895EFCFF9
:1007B000089587E090E008958730910540F424E0A3
:1007C000880F991F2A95E1F7825F9E4F089590E068
:1007D00080E00895F1CF08959C013A9521153F419D
:1007E00050F5FC01EE27F170BC0166277270AC0178
:1007F000442754709C012227387094FF0EC080E17A
:10080000EF2B09F480E0672B09F08062452B09F09B
:100810008064232B89F08068089581E0EF2B09F430
:1008200080E0672B09F08260452B09F08460232B60
:1008300019F08860089580E00895CF93DF93EB016D
:10084000CBDFFE010995DF91CF910895CF93DF9320
:10085000EC01805E9109089720F065EE78E0209722
:1008600011F464EE76E0CE01E8DF8C2F2DD2DF911B
:10087000CF910895CF93DF93EC0163D2CE01805ED8
:100880009109089720F06AEE78E0209711F469EE5C
:1008900076E0CE01D2DFDF91CF91089581E0089517
:1008A000FDCF089581E008950FCE08950895FECFFD
:1008B0000895A6E0B0E0EFE5F4E00C94EA2949835E
:1008C0005A839E833091670289819A81311117C0C2
:1008D0003E81332389F0222379F0D8D5182F682F51
:1008E00089819A81B2D569817A81812F0E944911CB
:1008F0002696E3E00C94062AB9D5182FF4CFC6D576
:1009000069817A81F3CFFC01262F8781908500973A
:1009100039F4408151816281738184819581C9CF8D
:100920000895CF93DF93EC0161E0EDDFBE01B8DF06
:10093000882351F061E0CE01E6DFBE010E94271955
:100940008170DF91CF91089580E0FACFCF93DF934C
:10095000EC0160E0D8DFBE01AADFDF91CF910895FE
:1009600021E030E0A90102C0440F551F8A95E2F74B
:10097000CA018DC4CF93C82F81E090E00C2E02C035
:10098000880F991F0A94E2F70E94DB0E8C2FE8DF94
:10099000CF91089581E00895FDCF0895CF93C82F9A
:1009A0002BD48C2FF9DF2FEF84E39CE02150804083
:1009B0009040E1F700C00000CF91089581E0EEDFA4
:1009C0000C94A02180E0EADF0C94B1210F931F93D7
:1009D000CF93DF938C0161E096DFEC01B8010E94B8
:1009E000461E882321F061E0C8018DDFEC01B801CB
:1009F000CE015ADF811106C080E0DF91CF911F91B7
:100A00000F910895B801CE010E94BD168823A1F36D
:100A1000B801CE010E946A1E882371F3B801CE018D
:100A20000E94ED1A882341F3B801CE010E949A1D5D
:100A3000882311F3B801CE010E94471B8823E1F2FD
:100A4000B801CE010E941F1B8823B1F2B801CE016C
:100A50000E948712882381F2F8018581882361F042
:100A6000C330FCE7DF07D9F050F4C115ECE7DE072F
:100A7000A1F0C130DC47A9F0C80114DFBECFCB35EF
:100A80008CE7D80799F0CC35ECE7DE0761F0CA3582
:100A9000DC4791F70E94BC0EEFCF90DFADCF0E94F4
:100AA000C00E90DFA9CF0E94B40EE6CF0E94BE0E0A
:100AB000E3CF0E94BB20B2C0B3D00C94BF202F92D2
:100AC0003F924F925F926F927F928F929F92AF92DE
:100AD000BF92CF92DF92EF92FF920F93CF93DF936B
:100AE0001C0129013A016B0181E0C81AD108E1011A
:100AF000CC0DDD1D1882F12CE12C8AE0882E912C82
:100B0000A12CB12CEC14FD0498F0C101DF91CF9120
:100B10000F91FF90EF90DF90CF90BF90AF909F909C
:100B20008F907F906F905F904F903F902F9008959F
:100B3000C301B201A50194010E94B329605D603335
:100B400019F4E114F10431F0411451046104710409
:100B500009F4602F6A93C301B201A50194010E94B8
:100B6000B32929013A018FEFE81AF80ACBCF0F9386
:100B700020919A0130919B012817390721F4209187
:100B80006102261789F090939B0180939A016093EC
:100B900061029C0150E040E0062F66E070E08BE5CA
:100BA00092E08DDF0F9108958BE592E0FBCF292F26
:100BB000332740E02115310511F0C90148E09C01BF
:100BC00064E0369527956A95E1F72115310511F016
:100BD0004C5FC9019C0136952795369527952115BF
:100BE000310511F04E5FC90196958795892B09F063
:100BF0004F5F842F089581E008950895CF93DF9388
:100C0000D82FF9DFC82F882311F08D2FF6DF8C2F16
:100C1000DF91CF9108950895F1CF089580E0FCCF42
:100C20000E94F21EF9CFCF930E94F21EC82F80912E
:100C300062028C1771F0C09362020E94452160939A
:100C400063027093640280936502909366028C2F16
:100C5000E3DFCF910895AFE0B0E0E1E3F6E00C947C
:100C6000E9294A875B876C877D878E879F879111EB
:100C7000A1D71F821886198686E0FE013A96DE010A
:100C8000119601900D928A95E1F78D8181110EC028
:100C900009811A812B813C814D815E816F8178852C
:100CA0008985CED62F96E4E00C94052ACE010196D4
:100CB00038DE8111EDCFF6CFFC012481213019F40B
:100CC0008081918114C40895CF93C82F882389F01F
:100CD0008CEF8C0F813A78F48C2F0E948A1F882326
:100CE00021F08C2F0E942C20F3D78C2F0E941520EE
:100CF000EFD7CF91089580E28C0F883040F4C77011
:100D000081E001C0880FCA95EAF734D7F1CFEBE54F
:100D1000EC0FE33040F4F0E0E85FFD4F808190E0BD
:100D20000E941F1FE6CFC85ACB3118F7EC2FF0E016
:100D3000EE0FFF1FEE52FE4F808191810E94441FF3
:100D4000D8CF882319F19CEF980F913A18F40E949C
:100D50002C20BEC790E2980F983048F4877091E03D
:100D600001C0990F8A95EAF7892F0AD7F2CF9BE540
:100D7000980F933020F490E080E00C941F1F885A65
:100D80008B3120F490E080E00C94441F08951F9371
:100D9000CF93DF93182FEB0197DF209731F4812F4A
:100DA000D0DFDF91CF911F9108958FE99FE00197E8
:100DB000F1F700C000002197F0CF70E060E08933C8
:100DC00011F460E570E0E3CF882311F0D3D680C73B
:100DD0000895882311F0D4D67BC70895B0E0A0E031
:100DE000E4EFF6E00C94E4296C01D62FC72FFC0148
:100DF0001581068102950F70B3D6E82E8823E9F09D
:100E0000E12E1123D1F08C2F807F803461F080E2BD
:100E10008D0F8830F8F08C2F807E803221F4D23014
:100E2000C8F00023B9F08091FD0382FF13C082E077
:100E300073D796D691E0E82EE926BC2EB2949FE0B7
:100E4000B922FBE0FB1580F1EB2DF0E0EC58F54DFD
:100E50000C94D529E12CF1CF0C2F0F70C07F11F02D
:100E60000295007F112381F0002349F080E28D0F6D
:100E7000883010F0D11105C0802F7CD629D78D2F56
:100E80004CC0802F8AD6FACF8D2F5BDF002361F014
:100E900080E28D0F883010F0D11103C0802F70D602
:100EA00002C0802F80D614D7EB2DE850FF0B34976B
:100EB00018F40E94F21EB0DEEE2059F04DD680FDEF
:100EC00008C0F601158242D62AD2C60160D13ED6AC
:100ED00034D2CDB7DEB7E9E00C94002A2C2F2F7066
:100EE000F22EC07FC03219F0F29480EFF822DD2399
:100EF00041F0D13089F1112309F439C00023D1F038
:100F0000BECF8091FD0382FD11C0112341F0FF206F
:100F100019F08F2D2FD6DCD680E0D6DEC5CF80E04D
:100F200010DFFF2009F4C0CF8F2DB9CF112359F066
:100F3000011103C08F2D48DFB7CF013009F0B4CFC6
:100F40008F2D4FD6B1CF0111AFCF8F2D42DF8F2D17
:100F500053D68F2D38D6A8CF112321F0023008F0B8
:100F6000A3CFE8CF0111A0CF8F2D33DF9DCF00237A
:100F7000D9F3D93349F43FEF87EE93E03150804005
:100F80009040E1F700C000008D2FDBDE8DCF8C2F6D
:100F900086958695837069F0813009F085CF8D2F15
:100FA0009C2F9370111102C080E090E00E94441FBA
:100FB0007BCF8D2F9C2F9370111102C080E090E0A9
:100FC0000E941F1F71CF8C2F837081F511116CCF80
:100FD0004D2F429546954770440F440F2D2F2F708B
:100FE00030E0042E02C0220F331F0A94E2F790E093
:100FF00080E0D4FF09C08FE090E002C0880F991F05
:101000004A95E2F780959095C695C695C370822B58
:10101000932BC23039F040F4C13011F041D144CFAC
:1010200038D142CF44D140CF32D13ECF8695112323
:1010300011F08C2F8170882309F436CF4D2F429503
:1010400046954770440F440F2D2F2F7030E0042E2B
:1010500002C0220F331F0A94E2F790E080E0D4FF31
:1010600009C08FE090E002C0880F991F4A95E2F70F
:1010700080959095C695C695C370822B932BC230F0
:1010800039F040F4C13011F07DD10ECF74D10CCFC6
:1010900080D10ACF17D108CFCF70112321F08C2F28
:1010A0003ED18D2F48CF8D2F94DE8C2F46D1FCCE94
:1010B000D23F31F160F4D03FB9F0D13F81F011233C
:1010C00009F43BC00111DBCE8C2F8F711DC0D33FC3
:1010D000E9F0D43FA1F78091FD0382FD1FC08C2F62
:1010E0008F71112319F310C0112331F00111DCCEDF
:1010F0008C2F8F7132D1D8CE023008F0D5CEF8CFF8
:101100008C2F8F711111D2CF0AD1CECE112321F0A5
:101110008C2F8F71FAD0C8CEDBD0C6CE112329F028
:1011200063E08C2F8F71E1D5BFCE81E0F5D5023021
:1011300008F4BACE82E0F0D5B7CE002359F0D93307
:1011400009F022CFEFEFF7EE23E0E150F04020402E
:10115000E1F718CF8C2F8F71A9CF0F931F93CF93E7
:10116000DF93EC018F819885009761F07CD78C012B
:1011700017D18CD0B801CE0131DEDF91CF911F9114
:101180000F910895688179818D81BAD1F0CFCF9385
:10119000DF93EC018C81882381F0CE0117DC811173
:1011A0000FC0DED4882349F08D81882331F08091EF
:1011B000FD0382FF02C082E0AFD5DF91CF91089599
:1011C000CE01CBDFCE01C2DBF8CF882311F0E5D40E
:1011D0007FC50895882311F0E6D47AC5089590E07C
:1011E00080E00E941F1F90E080E00E94441FE2D434
:1011F0006FC50E944320F3CFCAD4FBCF92959F7056
:10120000963091F058F4925F9F70923058F4803F7E
:1012100019F030F4883E30F481E008959A5FF4CFFD
:10122000843FD1F380E00895883EB0F3813FD1F749
:10123000F3CFFC018481882351F08781908500974A
:1012400011F011D7DBCF8081918151D1FBCF80E0AC
:101250000895A6E0B0E0EFE2F9E00C94EB292696C1
:10126000E2E00C94072AA9E0B0E0E9E3F9E00C948D
:10127000E9292996E4E00C94052A0895FECF089503
:10128000FDDF909383028093820208950895F8CF42
:1012900008952091820230918302822B932BF0CF0C
:1012A000209182023091830282239323E9CF2091FF
:1012B00082023091830282279327E2CFDECF089506
:1012C000FDCF0895FDDF9093810280938002089501
:1012D00090E080E0F7CF009729F481E0662371F079
:1012E00080E00CC021E030E002C0220F331F6A957D
:1012F000E2F72823392381E0232B91F30895682F07
:101300008091800290918102E6CF21E030E0A90136
:1013100002C0440F551F8A95E2F7CA01D3CF21E0DE
:1013200030E002C0220F331F8A95E2F780918002DD
:1013300090918102822B932BC5CF21E030E002C037
:10134000220F331F8A95E2F7209530958091800215
:101350009091810282239323B5CF21E030E002C037
:10136000220F331F8A95E2F78091800290918102CB
:1013700082279327A7CF2091800230918102822B70
:10138000932BA0CF2091800230918102822393235E
:1013900099CF20918002309181028227932792CFAA
:1013A0000895262F277091E001C0990F2A95EAF73A
:1013B00023E0769567952A95E1F7660F771F660F0C
:1013C000771FFA01E60FF71F50E040E0682F70E04A
:1013D0008191DF0111979B01042E02C0369527955C
:1013E0000A94E2F7217021952827292328272C9396
:1013F0004F5F5F4F4430510559F70895A82FA770EC
:1014000023E0969587952A95E1F7880F991F880F15
:10141000991FFB01E80FF91F50E040E080E02191A7
:1014200030E00A2E02C0369527950A94E2F7217023
:101430003327042E01C0220F0A94EAF7822B4F5F54
:101440005F4F4430510559F70895262F983068F4BE
:10145000863058F4682F70E086E0989F600D711D0B
:10146000112448E652E0822F9CCF0895292F98300E
:1014700058F4863048F490E068E672E036E0239F46
:10148000800D911D1124BACF80E00895B0E0A0E056
:10149000ECE4FAE00C94E4297C01009180021091C4
:1014A00081028091820290918302082B192BCFE058
:1014B000D0E0CC24C394D12CBC2EC6010C2E02C08B
:1014C000880F991F0A94E2F780239123892B49F40E
:1014D000219790F7B12C8B2DCDB7DEB7E9E00C94B6
:1014E000002AB7018C2FE0D6019791F3F4CFCF9368
:1014F000DF93EC01CBDFBE01D7D6DF91CF9108950A
:101500001F93CF93DF93EB0190916702992331F002
:10151000CB01EDDFDF91CF911F910895882351F02A
:10152000CB01B4DF182F682FCE018FDFBE01812FD2
:10153000BBD6F0CFCB019ADF182FF8CFFF920F93D5
:101540001F93CF93DF93C091840289E0F82E80919E
:1015500085028C1305C0CDB7DEB7E5E00C94042AF4
:10156000D0E0FC9EF001FD9EF00D1124EA57FD4FE6
:101570000081118122813381448155816681778187
:10158000808571DE2196C770E2CF0F931F93009183
:10159000CE021091CF022091D0023091D102409121
:1015A000D2025091D3026091D4027091D502809101
:1015B000D60259DE1F910F9108950F931F93CF9379
:1015C000DF938091D402807F09F04FC08091D302D5
:1015D000882309F44AC0E0918402D09185021091D9
:1015E000CF020091CE024091D0025091D102609181
:1015F0009C0170919D01C9E0DE17B9F18E2F90E03A
:10160000EC9FF0011124EA57FD4F2481222391F130
:10161000C89FF001C99FF00D1124DF01AA57BD4FEB
:1016200011962C911197211325C02C91201322C0C3
:1016300015962C91159721111DC012962D913C9154
:10164000241B350B26173707A8F48091D4028F701E
:1016500080618093D402E457FD4F80818F70806158
:1016600080838EEC92E093DD69DFDF91CF911F9153
:101670000F910895FC013196E770BECF482F20915D
:1016800084029091850259E0291302C080E00895F8
:1016900030E0529FF001539FF00D1124EA57FD4FA7
:1016A0008181681306C08081481303C08581811140
:1016B000EECF2F5F3F4F2770E7CFA8E1B0E0E3E622
:1016C000FBE00C94E1298C0186E0F801DE015396E1
:1016D00001900D928A95E1F7D80114968C91149798
:1016E0001596EC9015979EECA92E92E0B92E90914C
:1016F000D20291111AC08823A9F0EE2089F0C80106
:1017000098DDF82E882361F089E0F801D501019079
:101710000D928A95E1F7C501CFDA4FDF36DF48C079
:10172000C80135DDFF24F39443C0F801C080D180A7
:1017300082809380F090D3022091D0023091D10228
:10174000A401421B530B9A0140919C0150919D01B1
:10175000FF2009F41EC12417350708F0C0C08823F4
:1017600039F19091CF028091D402282F207F09F087
:1017700069C09D1122C09091CE02C9121EC0409135
:10178000D5025091D6022781308542175307A9F41C
:10179000E11052C08F7080618093D402F6DE8EEC2F
:1017A00092E0F5DC8091D402D80116968C93F12C4E
:1017B0008F2D6896ECE00C94FD29E1103DC06D2D55
:1017C0008C2D5CDFE82E882361F08EEC92E0DFDC6C
:1017D00089E0EEECF2E0DF011D928A95E9F7D5DEB3
:1017E000E6CFCB8ADC8A8B899C8981DE292F2295E2
:1017F0002F70243058F49F70223080F0992391F09C
:10180000F8019681907F71F4FE2CD2CF2A5F2F7061
:10181000223060F0C801BBDCEF2CF6CF992311F029
:10182000882391F3805E883078F3F4CF803F60F3B3
:10183000815F833078F7E8CF8091D4028160809314
:10184000D402B5CF9D111EC09091CE02C9121AC00C
:101850004091D5025091D60217962D913C91189740
:101860004217530779F4E1100DC016968C93C80106
:101870008EDC89E0F801AEECB2E001900D928A9521
:10188000E1F74CCFC801D5DC882309F449CFEE201D
:1018900009F446CF8091D4028032B0F02091CE027C
:1018A0003091CF023B872A879D868C869091D20209
:1018B0009E871F86888B8091D5029091D6029A8B45
:1018C000898BCE010A9663DC89E0F801AEECB2E0C8
:1018D00001900D928A95E1F770DE57DE23CF90914B
:1018E000D402292F207F81F4682D9E8A8D8AA6013B
:1018F0007E899E2DAEDC8EEC92E049DC89E0F5011C
:1019000011928A95E9F76BCF882309F451CF809122
:10191000CF028D111BC08091CE02C81217C040911A
:10192000D5025091D60217962D913C9118974217E7
:10193000530761F4E1100AC016969C93C80127DC96
:1019400089E0F50111928A95E9F732CFC80171DC7F
:10195000882309F4E5CEEE2009F4E2CE8091D4028A
:10196000803208F4B1CF2091CE023091CF023A8379
:1019700029839C828B829091D2029D831E828F83C9
:101980008091D5029091D60299878887CE010196E1
:101990009ACF2417350708F046C0882309F4C2CE31
:1019A000FE2CEE2009F4BCCE8091CF028D112FC009
:1019B0008091CE02C8122BC04091D5025091D60220
:1019C00017968D919C9118974817590701F52A3A57
:1019D0003105A0F49091D40290FD10C0907F71F079
:1019E0008091D40216968C931697903F09F43FCFBE
:1019F000982F907F905F8F70892B37CF89E0F80107
:101A0000AEECB2E001900D928A95E1F7D1CEC8011B
:101A100010DC811159CF8091D40281608093D4026F
:101A2000C801B5DBC5CE682D9E8A8D8AA6017E8948
:101A30009E2D0FDC89E0F50111928A95E9F76ECEB3
:101A4000A2E1B0E0E6E2FDE00C94E8290A871B87FA
:101A50002C873D874E875F87688B798B8A8BCE0179
:101A60000A962BDE8823C1F04E85442349F00A856F
:101A70001B852C853D855F85688979898A89F3DB9B
:101A800089E0F82E809184029091850289133BC0F1
:101A90006296E5E00C94042A89E0FE013A96DE01A4
:101AA000119601900D928A95E1F78E85882341F376
:101AB0002091850230E0C9010196877099274091F5
:101AC00084024817190691F099E0929FD001939FE4
:101AD000B00D1124AA57BD4FFE01319601900D9211
:101AE0009A95E1F78093850229DDCACF85DB1092B4
:101AF00085021092840289E0EEECF2E0DF011D9293
:101B00008A95E9F7BDCF8F9DC00111248A579D4F5B
:101B1000D4DD882309F4BCCFE0918402FE9EF0015D
:101B20001124EA57FD4F00811181228133814481C4
:101B3000558166817781808596DB8091840290E073
:101B4000019687709927809384029CCF8091FF0231
:101B500086958695869508958091FF0287700895F1
:101B60009091FF02977081E009F480E008958091E0
:101B70002B03089590912B03892B80932B030895B9
:101B8000809590912B03982390932B0308951092A6
:101B90002B03089580912A03089590912A03892B9D
:101BA00080932A030895809590912A039823909317
:101BB0002A03089510922A0308958091010308953D
:101BC0000895FECF089590910003292F282329F02E
:101BD0008095892380930003F4CF08950895FECF64
:101BE000089590910103292F2823281721F0982B7D
:101BF00090930103F4CF089590910103292F282396
:101C000029F08095892380930103E9CF089580917D
:101C10000103882321F01092010380E0E0CF0895B2
:101C2000CF93C0912B0380912A03C82B809101038D
:101C3000882329F0C82B0E94691F8111E8DF8C2FAF
:101C4000CF910895CF93DF93C091A001D091A101CE
:101C5000E7DF8883C091A001D091A10148E050E066
:101C600067EF72E0CE010E94122A892B59F088E0BA
:101C7000FE01A7EFB2E001900D928A95E1F7CE0147
:101C80000E94061FDF91CF910895CF93DF93C091FB
:101C90009E01D0919F01C4DF8983C0919E01D091A4
:101CA0009F0140E250E067ED72E0CE010E94122AEF
:101CB000892B59F080E2FE01A7EDB2E001900D9270
:101CC0008A95E1F7CE010E94111FDF91CF9108950F
:101CD0000E949A20813029F48091FC0387FF01C083
:101CE000D4CFB0CF0895FECF08959091FD0392FF19
:101CF0000EC098E0899F90011124622B6093FF022F
:101D00000EDB8091FF02869586958695ECCF07CBFA
:101D10001092FF0280E0E7CF9091FF028095892327
:101D20008093FF02282F277059F4891749F090916A
:101D3000FD0392FF05C0869586958695FEDAE8CF6D
:101D400008959091FD0392FB222720F9281759F05E
:101D500080FB92F99093FD038091FC039091FD0329
:101D600033D082E0D9CF08958091FD0382FB88278C
:101D700080F991E08927E5CF81E0E3CF80E0E1CFF2
:101D80006FEF7FEF90E080E00C945E2A90E080E0BF
:101D90000E94302A21E0853E9E4F09F020E0822FEC
:101DA000089582E090E00C94282A83E090E00E945D
:101DB000282A90E00895682F83E090E00C94442A4C
:101DC00084E090E00C94302ABC0184E090E00C9414
:101DD0005E2AAB01BC018FE090E00C94562AAB0167
:101DE000BC0183E190E00C94562A60E070E0CB01E6
:101DF000F6CF60E070E0CB01ECDFF7CFA8E0B0E019
:101E0000E4E0FFE00C94EB2965EE7EEF90E080E0EB
:101E10000E945E2A60E082E090E00E94442A81E015
:101E200090E09093830280938202C5DF60E074E1CA
:101E300084E090E00E945E2A60E086E090E00E94EC
:101E4000442A60E087E090E00E94442A40E050E0AD
:101E5000BA0188E090E00E94562A60E083E290E0B8
:101E60000E94442A60E08CE090E00E94442A60E0F6
:101E70008DE090E00E94442A19821A821B821C8203
:101E80001D821E821F82188648E050E067E170E0E4
:101E9000CE0101960E94352A40E050E0BA018FE160
:101EA00090E00E94562AA5DF2896E2E00C94072ACB
:101EB000A5CF0895682F8EE090E00C94442AA6E008
:101EC000B0E0E5E6FFE00C94E9290E9439218C019D
:101ED00080912C0390912D038017910781F0198236
:101EE0001A820E943921682F49815A81792F80E016
:101EF00090E00E942B0610932D0300932C0326964E
:101F0000E4E00C94052AE8D260933A0370933B0313
:101F100080933C0390933D036093360370933703A3
:101F20008093380390933903089508950895FDCF61
:101F300008950895FECF089581E0089585E892E11F
:101F4000DBD6F4DFF4CF99C4089508950895FDDF3A
:101F5000FDCF1CDF811101C0ABDF23DF80933E0387
:101F60002FDF9093FD038093FC03E9D61EDF8FD90A
:101F70008091800290918102A3C90E94302187D272
:101F800081D4D9D3E6DF0E940B060E94D51A87D4EC
:101F9000D1CF73D4882329F00E94CF1E0E94E81865
:101FA000A5C70895A6E0B0E0E8EDFFE00C94E229B3
:101FB000C3DF811108C083DFECDF0E941306269681
:101FC000EBE00C94FE29D6D38EE2A82E83E0B82E47
:101FD000750110E0F70101917F01812FB0D21F5FE1
:101FE000183009F43DC00817A9F380913E0381FD24
:101FF000ACD2A9DFC82E10E099249394812F9FD2F0
:10200000082FF50181915F01081729F1D02ED826FC
:10201000F12CEE24E3948D2D8E21A9F0CC2099F0A3
:10202000F9821A830E9439219C838B839D8291E0DF
:10203000802F8E2109F490E049815A816B817C8147
:102040008D810E942B06F394EE0CF6E0FF12E3CF95
:10205000F501319700831F5F183081F654DFACCF54
:102060000813C3CFA8CF1F93CF93DF931FD1EC01E9
:10207000C11580E5D807F0F5C11580E4D80708F050
:102080009AC0C03ED10520F5CD3CD10508F082C0F4
:10209000C83AD10578F4C53AD10508F073C0C1300B
:1020A000D10519F1209709F1C430D105F0F4D0E041
:1020B000C0E01BC0C33CD105D0F7C85AD0E0CC0F5C
:1020C000DD1FC55FDD4F0990D881C02DD4640DC0E0
:1020D000C11580E2D80708F0CCC0C11581E0D8074F
:1020E00008F05AC0C83ED10510F7CE01DF91CF915C
:1020F0001F910895C03682E5D80718F5C03482E5EF
:10210000D80708F068C0C03282E5D80708F05CC084
:10211000C11582E5D80708F493C02C2F2695269583
:1021200080E2289F900111248C2F8370C1E0D0E0C1
:1021300002C0CC0FDD1F8A95E2F7C22BD32BDD68DE
:10214000D4CFC03A82E5D80760F4C03882E5D8071A
:1021500008F456C0CF71D0E0DC2FCC27C46FD06A12
:10216000C4CFC03C82E5D80708F45FC0C03E82E51A
:10217000D80708F09CCFDC2FCC27CC27DF71C06FAD
:10218000D06AB3CFC55AD0E0CF5BDD4FC881D0E075
:10219000D064ABCFD065A9CF8D2F2AD1182FCE0117
:1021A000992784D0C12FD0E0DC2FCC27CC27DF713A
:1021B000C82BD92B9ACFCE01992778D0CC27DF70A6
:1021C000C82BD92BD06A91CFCF71D0E0DC2FCC2790
:1021D000C16FD06A8ACF2C2F26952695277080E272
:1021E000289F900111248C2F8370C1E0D0E002C0A1
:1021F000CC0FDD1F8A95E2F7C22BD32BDC6875CF9D
:102200002C2F26952695277080E2289F9001112477
:102210008C2F8370C1E0D0E002C0CC0FDD1F8A9507
:10222000E2F7C22BD32BDA6860CF8C2F8F71E0D00E
:10223000C82FD0E0DC2FCC27CC27DF71D06255CF60
:102240008C2F8F71D5D055E0D695C7955A95E1F76B
:10225000CF70D0E0DC2FCC27282F30E084FF05C0E2
:1022600044E0220F331F4A95E1F7C22BD32BD069EC
:102270003CCF8D2F8F71BCD0182FCE01992716D04F
:10228000C12FD0E0DC2FCC27CC27DF71C82BD92B76
:10229000D5CF462F783028F4663018F4672F0C9489
:1022A000C20390E080E00895F4DFDDCE823891052E
:1022B000B9F1B0F48133910509F47DC048F4893255
:1022C000910509F46DC08A32910509F47BC0089527
:1022D0008533910509F45FC08933910509F10895AB
:1022E000833E9105D9F138F4803E910529F1823E73
:1022F000910579F10895863E9105D9F1873E9105C2
:1023000009F43EC0843E910541F52091FD0321FF73
:1023100024C08091FC0384FD19C087EE90E00895ED
:102320002091FC03237009F05AC02091FD0323FF84
:1023300014C089E290E008952091FC0320FD38C08C
:102340003091FD0330FF09C024FF43C090E080E0DE
:1023500008952091FC0322FDF7CF08952091FC03FE
:1023600022FD3AC03091FD0330FD39C024FFF5CF86
:10237000EDCF2091FC0323FFF0CF24FDE7CFCDCF9D
:102380002091FC0323FD2EC03091FD0331FFEECFE1
:1023900084EE90E008952091FC0325FFDECFC9CFA5
:1023A0002091FC0325FD21C02091FD0323FFD5CF03
:1023B00089E390E0D2CF2091FC0326FFCECF8AE2C2
:1023C00090E008952091FC0326FFC7CF81E390E0C1
:1023D000089583EE90E0089582EE90E0089580EEF7
:1023E00090E0089586EE90E0089585E390E00895EA
:1023F0009091FC0392FF10C041E0282F24712430FB
:1024000009F040E031E0282F2871283009F030E051
:10241000431711F02CE0822793FF10C041E0282FD2
:102420002471243109F040E031E0282F287128314F
:1024300009F030E0431711F02CE082273091FD03C2
:1024400030FF10C051E0282F2171213009F050E0F9
:1024500041E0282F2871283009F040E0541711F08E
:1024600029E0822731FF10C041E0282F217121315E
:1024700009F040E031E0282F2871283109F030E0E0
:10248000431711F029E0822794FD877E089510926A
:10249000FE031092FF0310920004109201040895AD
:1024A000CF92DF92EF92FF926B017C01E6D1811116
:1024B0000EC00E944521C61AD70AE80AF90AC0923E
:1024C000FE03D092FF03E0920004F0920104FF901B
:1024D000EF90DF90CF9008950F931F93CED1882374
:1024E00029F00E9445211F910F9108950E944521D6
:1024F0000091FE031091FF0320910004309101042C
:10250000600F711F821F931FEECF80E00895CF935D
:102510009C01205E3245C1E02032310538F4FB01D8
:10252000C581C11103C08F710E94BA048C2FCF9155
:1025300008950895FECF08950895FECF0895E82FD9
:10254000F0E0E55FFB4F80810895089580EA8A9569
:10255000F1F7089500C00895F9CF08950895FECFCA
:102560000895EF92FF921F93CF93DF9300D000D096
:10257000CDB7DEB782D1182F60911304882309F4F8
:1025800045C019821A821B821C82862F90E09E0110
:102590002F5F3F4F7901B901855F9B4F8CD1882315
:1025A000E1F08091020490E044E050E0B701855FE3
:1025B0009B4F0E94122A21E020933F03892BC1F4F4
:1025C00010E0BBDF812F0F900F900F900F90DF91E5
:1025D000CF911F91FF90EF90089580913F03882342
:1025E00079F384E0F70111928A95E9F710923F039D
:1025F000E0910204F0E0E55FFB4F89819A81AB81B5
:10260000BC8180839183A283B383DBCF70E0655F5D
:102610007B4F8091020490E0855F9B4FD1D19FDF7B
:10262000D1CFF894E82FE295EF70F0E031A1282F98
:102630002F7081E090E001C0880F2A95EAF7982F6B
:102640009095932391A392A1892B82A378940895C6
:10265000CF93DF9384E9E5DF86E6E3DF87E9E1DF17
:1026600086ECDFDFC4E4D2E089918F3F09F0D9DF47
:1026700082E0CA34D807C1F7DF91CF910895B0E066
:10268000A0E0E5E4F3E10C94E529EC01D62E062F59
:1026900010E0C801865B9D4F7C01FC0180818F3F6B
:1026A00009F442C0F894E82FE295EF70F0E091A1B0
:1026B0008F7021E030E001C0220F8A95EAF7892F60
:1026C000822B81A382A12095282322A3789442DF24
:1026D000E4E4F2E04AE452E031E0C12C21912F3FE2
:1026E00041F1A22FA295AF70B0E090968C9190E04E
:1026F0002F7002C0959587952A95E2F780FD19C045
:10270000832FC82A330F4E175F0741F7F7018081E7
:102710008F3F09F086DF61E0C11001C060E08D2DC0
:102720001BDFC00FD11FC882CDB7DEB7E8E00C9425
:10273000012A80E0E6CF8091A2018091A20194E07D
:10274000811190E09093130484E0891B809302042C
:102750007FDF88E0EBE0F4E0DF01982F1D929A958F
:10276000E9F7E3E0F4E0DF011D928A95E9F784E000
:102770003CD0E0CEA8E0B0E0E0ECF3E10C94E82936
:102780008E010F5F1F4F88E0F80111928A95E9F7DB
:10279000F12C6F2DC80173DFF394F4E0FF12F9CF31
:1027A00048E050E0B80183E094E00E94122A21E062
:1027B000009709F420E0892B41F088E0F801A3E0BC
:1027C000B4E001900D928A95E1F76091130470E0F6
:1027D000655F7B4F44E083E094E008D0182FC1DEB2
:1027E000812B2896E5E00C94042A0895B0E0A0E03F
:1027F000ECEFF3E10C94E5296C017B01042FC22F6F
:10280000222379F081E0809342030E943921909342
:1028100041038093400380E0CDB7DEB7E8E00C943D
:10282000012AD0914203DD23B1F3809140039091BE
:1028300041030E945121059770F310E0A801B601F1
:10284000C7010E94122A892B31F0A801B601C701E5
:102850000E941F2ACD2F109242038C2FDDCFCF93E1
:102860000E94A629C82F811102C00E94A2298C2F84
:10287000CF9108958091460308958091450308956E
:10288000FCCF0895ECDF80934503FADF8093460385
:10289000F1DF8093A201F1DF811142C00895EDDFE5
:1028A000811101C040C0089581E0909147039A30A2
:1028B00008F080E008950F931F93CF93DF93EC010E
:1028C0008B01809147038A30B0F4B801CE0176D0F5
:1028D000C82F811122C0809147038F3FB9F40E9415
:1028E000392190934403809343038C2FDF91CF9140
:1028F0001F910F91089580914303909144030E948A
:102900005121843F914008F7C0E0EFCF8F5F809363
:1029100047038A3020F7C1E0E8CF10924703E5CFA4
:102920000C94122208950C9415220895B0E0A0E0B2
:10293000ECE9F4E10C94E6297901C82F880FDD0B4E
:1029400041155105A9F0FE0193E0EE0FFF1F9A9586
:10295000E1F7ED55FE4F81819281885B9C4F20818C
:1029600030E04217530708F49A01A9010E941F2A78
:10297000CE010E94F522D82E8823D1F00115110531
:10298000B9F083E0CC0FDD1F8A95E1F7FE01ED552C
:10299000FE4F438150E00417150708F4A801CD55F8
:1029A000DE4F6C817D81685B7C4FC7010E941F2ACE
:1029B0008D2DCDB7DEB7E7E00C94022A2FC1089524
:1029C0004BC10895A4E0B0E0E8EEF4E10C94E929ED
:1029D000609165037091660380916703909168032D
:1029E0000E94602111E0643671058105910508F1AE
:1029F00073DD6E5F7F4F8F4F9F4F69837A838B8329
:102A00009C8310E000E030E020E044E050E0BE01B4
:102A10006F5F7F4F83E08ADF182F882351F00E9479
:102A200045216093650370936603809367039093D9
:102A30006803812F2496E4E00C94052AB0E0A0E01E
:102A4000E4E2F5E10C94E3297C015B016A012CDFEF
:102A500001E010E0882311F00AE010E0C1E0D0E0CE
:102A6000B501C701F6010995811104C021960C1723
:102A70001D072CF4CDB7DEB7EAE00C94FF29CC9FFC
:102A80009001CD9F300D300D112490E080E045E3A2
:102A90004A95F1F70000019682179307C1F7E0CF3E
:102AA0000F931F93CF93DF93EC0160914E027091CF
:102AB0004F026B5F7F4F44E050E00E94122A8C016E
:102AC000609161037091620380916303909164034C
:102AD0000E946021643671058105910510F4012B77
:102AE000E1F010E000E030E020E044E050E0BE0122
:102AF00082E01CDFC82F882351F00E94452160939B
:102B000061037093620380936303909364038C2F3B
:102B1000DF91CF911F910F910895C1E0F8CFA5E00B
:102B2000B0E0E5E9F5E10C94E3295B01E0904E02A9
:102B3000F0904F0201E010E09E012B5F3F4F50E00C
:102B400040E070E060E080E0F1DE182F882309F4B7
:102B500048C067018FEFC81AD80A60915D03709171
:102B60005E0380915F03909160030E946021643650
:102B700071058105910570F104E010E09E012F5F61
:102B80003F4F50E040E070E060E081E0CFDEF82EA3
:102B900064E070E0C6010AD511E09D81981310E051
:102BA0001F2151F10E94452160935D0370935E03E4
:102BB00080935F039093600389819A81AB81BC818C
:102BC0008093590390935A03A0935B03B0935C03E3
:102BD00011E012C064E070E0C601E8D49D81891361
:102BE000CBCFF70181819281A381B48189839A83BC
:102BF000AB83BC831111E0CF8091590390915A03AC
:102C0000A0915B03B0915C03F50180839183A28363
:102C1000B383812F2596EAE00C94FF290F931F932D
:102C2000CF93DF93EC018B014FE855E107DF811172
:102C300006C080E0DF91CF911F910F91089540E58C
:102C400055E1B801CE01FADE882399F342EE54E152
:102C5000B801CE01F3DEEECF0F931F93CF93DF9336
:102C60008C01C0914E02D0914F02CE01019624E01A
:102C7000FB01DC0101900D922A95E1F764E070E020
:102C800095D48883FE01359684E0D80101900D9299
:102C90008A95E1F769857A858B859C850091550336
:102CA0001091560320915703309158036017710714
:102CB0008207930749F060935503709356038093FE
:102CC000570390935803ECDBDF91CF911F910F9145
:102CD000089568C908950E94D3200E9489242ED99E
:102CE0000E94A1244AD90E94AA240E94AD24F1DFA7
:102CF0000E94C3242CD9F9CF9093510280935002A3
:102D000008953EC80895B6DD811105C084E017DC42
:102D100086958170089580E0FACF2CDD2FEF86E74D
:102D200091E0215080409040E1F700C0000022DD9A
:102D3000EADF882319F0E5DF0C94A0210895EDCF98
:102D400008958832910548F48E319105A0F40497D6
:102D500050F082E00E94CD0D0EC08D329105C9F376
:102D600020F48A9741F080E008958C34910519F0A1
:102D70008D329240C1F781E00895EF92FF920F9358
:102D80001F93CF93DF93EC017B01C3378CE7D80708
:102D900061F4FB011581112311F0B9D010E0812FEE
:102DA000CDB7DEB7E6E00C94032A0E94B70D082FDA
:102DB0000E94DD0D082B7CD0811107C0023211F07A
:102DC00011E0EDCF79D0F9D6FBCF69D0F7011581AD
:102DD0001123B1F30D7909F054C0C034F2E5DF07D7
:102DE00020F5C11582E5D807D0F6C115E0E4DE076D
:102DF00090F4C115F0E2DF07B0F5C63ED10579F2D7
:102E00000E94DA0DCE019DDFC82F8823D1F10E94E8
:102E1000680E1C2FC4CFC11580E5D80788F7F701CD
:102E20008681807F69F2DD27EBCFC03EE2E5DE07D9
:102E3000A0F4C03CF2E5DF0708F0B1CFC03682E570
:102E4000D807F0F2C03AE2E5DE0708F4A8CFC43BA9
:102E5000F2E5DF0709F4A3CFD3CFCE0187579C4714
:102E6000029770F69CCFF7018681807FE1F68D2F67
:102E70008F71823189F038F4C1EED0E0823009F4EC
:102E8000BFCF28D08CCF843109F489CFC6EED2E1F0
:102E9000863109F4B5CFF5CFC5EED0E0B1CF0E94B1
:102EA000392188579C4E90936A0380936903089553
:102EB00080916B030895089580916B03811109C07F
:102EC0000E94C70D0E94070EEADF81E080936B032A
:102ED000F2CF089580916B03882339F082E20E943B
:102EE000EA0810926B0380E0E6CF089580916B03AF
:102EF000882361F00E9439212091690330916A038F
:102F0000821B930B8F3F9F4708F4E4CF0895809175
:102F10006B03882309F0DECFCFCF0895EF92FF92A5
:102F20000F931F93CF93DF938091DF03882361F08A
:102F3000E0916C038DE0F82E8091DF03E81748F0F4
:102F40001092DF0310926C03CDB7DEB7E6E00C946D
:102F5000032AEE24E394EE0EE0926C03CE2FD0E031
:102F6000EF9DF0011124E958FC4F84818823A9F0DA
:102F700087819085892B99F4818592858F3F980769
:102F800071F061E0CADFFC9EF001FD9EF00D11249E
:102F9000E958FC4F14820E94DA0DEE2DCDCF00814E
:102FA00011812281338144815581668177818085B9
:102FB0000E94200DE8CF0895CF93DF931092E10394
:102FC0001092E003D0E0C0E00E94C403C817D90704
:102FD00018F0DF91CF910895CE010E94D703FC0134
:102FE0008581811102C0148216822196EDCF1F9334
:102FF000CF93DF9310917503209176032117D1F0C1
:10300000C12FD0E0FE01EE0FFF1FE359FC4F4081BE
:1030100051814817590791F40E94D70321E0FC0120
:10302000248380917503811305C02196C370DD2729
:10303000C0937503DF91CF911F91089521961C2FA6
:103040001370DCCFB0E0A0E0E8E2F8E10C94E029F6
:10305000EB012C81211152C07090DF03A7E7B3E090
:1030600030E020E0812C61E070E0271508F045C0D9
:103070001B96CD90DC901C97A880B9804FEF5FEF36
:10308000912CE92CF12CF701EE0FFF1FEA0DFB1D2F
:1030900005911491C016D10609F4A7010115110577
:1030A00011F09394EECF4F3F540781F1FB0102C022
:1030B000EE0FFF1F4A95E2F78E2AAB01092C02C0E2
:1030C000440F551F0A94E2F7415051098416150622
:1030D000D1F44A815B816DE0629FF001639FF00D46
:1030E0001124E958FC4F5087478324E02483108241
:1030F00011829287818721E02D8379DFCDB7DEB7FA
:10310000EDE00C94FC2914961C9214972F5F3F4F0E
:103110001D96ABCF0F931F93CF93DF93C091750391
:10312000809176038C1307C0F9DE46DFDF91CF91E3
:103130001F910F910895D0E08E01000F111F0359C8
:103140001C4FF801808191810E94D703BC01F801D6
:103150008081918177DF2196C370E2CFEF92FF9259
:103160001F93CF93DF93FC012081318110E040E079
:1031700050E0E52FF0E0EE0FFF1FE20FF31FA591E7
:10318000B4911097B9F0FB01C081D18140E005C036
:10319000AE15BF0509F411E04F5FE42FF0E0EE0F2C
:1031A000FF1FEC0FFD1FE590F490E114F10481F78F
:1031B0005F5FDFCF112349F0451708F4CB01DF91A2
:1031C000CF911F91FF90EF90089590E080E0F7CFAE
:1031D0008091C301882329F18091E2039091E30358
:1031E0000097F9F00E9451212091E0033091E10312
:1031F00028173907B0F490917503809176039817DA
:1032000051F088DF1092E1031092E0031092E30383
:103210001092E203089582DE1092E3031092E2031B
:10322000CBCE08951092E3031092E2031092C301F3
:103230008091760380937503BFDE70CE8091C301C9
:10324000882309F0EFCF81E08093C3010895ACE0BB
:10325000B0E0EDE2F9E10C94DB294C016B01803523
:103260002CE7920761F4FB0115811123D9F081E06D
:103270008093C301812F2C96E2E10C94F7298135CC
:10328000FCE79F0731F4FB011581112359F0CADFD8
:10329000F1CF82359C4731F4FB011581112311F0E8
:1032A000CDDFE8CF209180023091810280918202AF
:1032B00090918302822B932B0E94D705182F7BDEDF
:1032C000181731F0F601608171810E9449114C019B
:1032D000B12CA12C1C8666246394712CCE0101961E
:1032E0009B878A870E94C403A816B906B8F1F60125
:1032F0008581882309F44AC1FC85FF2309F446C16E
:10330000B8D79093E3038093E2038091DF03883082
:1033100008F591E0980F9093DF0399E0F601DE0144
:10332000119601900D929A95E1F72DE0829FC001D0
:10333000112489589C4F29E0FE013196DC0101904F
:103340000D922A95E1F72FEF3FEFFC01328721879D
:10335000948683861C85109511708CCFC5010E94C0
:10336000D7037C01FC014081518144244A94542CB0
:1033700060E0262F30E0F901EE0FFF1FE40FF51F8C
:10338000859194918816990609F42901892B11F0E9
:103390006F5FEFCF80E0FFEF4F165F0609F445C087
:1033A000F70144813090C301832D411180E0F82F53
:1033B000F1703F2EF70125808681F60195819923D2
:1033C00009F483C0332009F480C0211015C0930193
:1033D000042C01C0220F0A94EAF7822BF70186839E
:1033E0008091E0039091E103C29730F482E390E092
:1033F0009093E1038093E003C30102C0880F991FFB
:103400006A95E2F70197F70126812817190681F5D9
:103410008091E2039091E303009771F042D7C39744
:1034200058F021E0F701248381E0FC85F82BFC872C
:103430002FEFA21AB20A56CF2090750390E080E0D9
:1034400020917603221216C0E816F90689F0422C64
:10345000512CF201EE0FFF1FE359FC4FB182A08205
:103460002FEF421A520A83E04822552440927603F5
:10347000832DDBCF422C512CF201EE0FFF1FE359BD
:10348000FC4F808191810E94D7038C01B70166DED9
:103490000097A1F021E0FC012483E816F90641F32E
:1034A0002091750322120AC00817190739F49201F6
:1034B0002F5F3F4F2370332720937503EFEF4E1A92
:1034C0005E0AF42DF3702F2EBBCF90E021101EC0AA
:1034D000930102C0220F331F6A95E2F72150310990
:1034E0002817390729F4442309F44EC0C5017FDDAC
:1034F000C301042C01C0880F0A94EAF7982F909515
:10350000F701868189238683322CB2CFAC01042C4B
:1035100002C0559547950A94E2F7BA016170772782
:103520009C012150310982239323892B49F5672B74
:1035300039F1F70182819381892BF1F0EA85FB85CE
:1035400027E011922A95E9F794D6282F8B839C8344
:1035500084E08D83F70182819381782F8887998712
:1035600009811A813C8144E05E816F81892F0E942C
:10357000200DF7011582BCCF60E0C501CEDCF9CF8C
:10358000F42FF1702F2EB4CF232CB2CF909175036E
:1035900080917603981711F0BDDDDCCEBFDC109270
:1035A000E3031092E20308DDD5CE0895FC01680F15
:1035B000791F8FEF91E36E177F0709F4089521912A
:1035C000822728E030E087FF06C0880F8927215036
:1035D0003109C9F7F0CF880FFACF9C01FB01858133
:1035E000882359F12137FCE73F07B9F022379CE7E0
:1035F0003907E9F020373C4709F560E280919C01EA
:1036000090919D010E94B705FC0101962081203216
:10361000D9F3CF0126D280E0089580919C0190914A
:103620009D01059690939D0180939C01F4CF80911C
:103630009C0190919D010597F5CF81E00895CF936E
:10364000DF93EB0186319C4701F50E94B70D9D8108
:10365000992391F08A7A91E009F490E09093E40341
:10366000811108C089E2E1D40E94680E80E0DF91F8
:10367000CF91089585E3F7CF8091E403811103C0D2
:1036800089E2EAD4F1CF85E3FCCF81E0F0CFCF939C
:10369000DF93EC01FB018581882309F4D2C09E01F0
:1036A00030572332310508F0B2C00E94E00E9093EB
:1036B000FD038093FC03FE01E150F047E232F10587
:1036C00020F4E058F54D0C94D5298091FC038160DD
:1036D0008093FC0393C08091FD0388608093FD0379
:1036E0008DC08091FC038260F3CF8091FC038460E5
:1036F000EFCF8091FC038860EBCF8091FD03816068
:10370000EDCF8091FD038260E9CF8091FC03806161
:10371000DFCF8091FC038062DBCF8091FC0380646B
:10372000D7CF0E94FC088091FC038068D1CF8091A4
:10373000FC038C60CDCF8091FD038360CFCF80915F
:10374000FC038E7FC5CF8091FD03877FC7CF80911B
:10375000FC038D7FBDCF8091FC038B7FB9CF80911F
:10376000FC03877FB5CF8091FD038E7FB7CF80911B
:10377000FD038D7FB3CF8091FC038F7EA9CF809115
:10378000FC038F7DA5CF8091FC038F7BA1CF0E948E
:10379000FC088091FC038F779BCF8091FC03837F93
:1037A00097CF8091FD038C7F99CF8091FC0382FBA2
:1037B000992790F921E0922790FB82F990FB83F9F9
:1037C00087CF8091FD03982F909591708E7F892BE4
:1037D00090FB81F983CF9091FC03892F8F7B96FF1B
:1037E000806476CF0E94FC089091FC03892F97FBA0
:1037F00087F980586DCF81E00E945A0F8091FC03B9
:103800009091FD030E94E40E0E94FC0880E0DF918D
:10381000CF91089580E0F0CF9091FC03892F8F7EA7
:1038200094FF806155CF9091FC03892F8E7F90FF8C
:1038300081604ECF9091FD03892F877F93FF886031
:103840004DCF81E0E4CFB0E0A0E0E9E2FCE10C94F0
:10385000E429E82FF0E0E856FD4FB490282F269594
:103860002695269530E0F901E85CFC4F04918770BD
:1038700010E0082E02C0159507950A94E2F7017032
:103880001127F901E85DFC4FE490F12C082E02C0ED
:10389000F594E7940A94E2F791E0E922FF24F90114
:1038A000E85EFC4FC491D0E002C0D595C7958A95DB
:1038B000E2F7C170DD27C62ED12C0115110549F59F
:1038C000E114F10431F086EE0E946406C60100970F
:1038D00071F5B6018B2D0E94C706C601009779F5D8
:1038E000E114F104A1F50115110531F081EE0E94FA
:1038F000A106C6010097C9F5CD2B31F08CE20E94DC
:10390000DD06C114D104C9F5CDB7DEB7E9E00C94EA
:10391000002A81EE0E946406C601009789F2EFE951
:10392000FFE03197F1F700C000000197F6CFEFE913
:10393000FFE03197F1F700C000000197C8CFEFE931
:10394000FFE03197F1F700C000000197C7CF86EE86
:103950000E94A106C601009731F2EFE9FFE031971E
:10396000F1F700C000000197F6CFEFE9FFE03197D3
:10397000F1F700C000000197BDCF8FE99FE00197EC
:10398000F1F700C0000091E0C91AD108BACFEF9258
:10399000FF920F931F93CF93DF93EC01162F0AE052
:1039A0008881882309F458C0813009F052C0898188
:1039B000813071F47E0182E0E80EF11C8A810E9460
:1039C000DD06E701812F90E00097D9F52196E8CF39
:1039D000823041F47E01E2E0EE0EF11C8A810E9409
:1039E0006406EFCF833041F47E01F2E0EF0EF11C6C
:1039F0008A810E94A106E5CF843011F02196E2CFA2
:103A00002A81229690E080E0AE014F5F5F4F205305
:103A1000330B2A30310550F00097A1F2EFE9FFE0B7
:103A20003197F1F700C000000197F6CF089FB00171
:103A3000099F700D1124C901860F971F2981EA0182
:103A4000E3CFEFE9FFE03197F1F700C00000019705
:103A5000BBCF612FF8DEBACFCDB7DEB7E6E00C946E
:103A6000032A60E094CF0F931F93CF93DF93C42F6B
:103A7000D22FFC0185818823C1F04093E703F9D35D
:103A80009093E6038093E50380E28C0F883040F446
:103A9000C77081E001C0880FCA95EAF70E94E4066A
:103AA000DF91CF911F910F9108951091E7031413A7
:103AB00035C08091E5039091E603F3D320919C01FA
:103AC00030919D018217930748F5C0E2CD0F1D1775
:103AD000B9F080E2810F883040F4177081E001C0B6
:103AE000880F1A95EAF70E94E906C83048F481E089
:103AF0009D2F977001C0880F9A95EAF70E94E406FF
:103B0000802F0E94DD06C83058F6D77081E001C0D2
:103B1000880FDA95EAF70E94E906C2CF80E28C0F9F
:103B2000883008F0BDCFC77081E001C0880FCA950A
:103B3000EAF7F1CF0F93DB0188519C47873091055D
:103B400098F5FC01EE55F54D0C94D52906E221EED1
:103B500041EE6AE17CE7CD0186DF80E00F910895B8
:103B600007E225EE45EE6BE17CE7F5CF06E221EEBC
:103B700040EE68E17CE7EFCF07E225EE44EE69E135
:103B80007CE7E9CF06E221EE42EE6CE17CE7E3CF91
:103B900007E225EE46EE6DE17CE7DDCF08E221E0AD
:103BA00045EE6EE17CE7D7CF15968C91882319F00E
:103BB0001092E703D3CF81E0D1CF1092E7030895AD
:103BC0004115510511F0FA0109950895CF93DF933E
:103BD000EC014A855B856E857F85F2DF8B810E94D3
:103BE000D30D8C810E94C00D0E94680E86E0FE01FC
:103BF00011928A95E9F7DF91CF910895CF93DF93E2
:103C0000EC018D8181FD10C082608D838B810E94CB
:103C1000CD0D8C810E94BA0D0E94680E4885598591
:103C20006E857F85CE01CCDF1092EB031092EA0304
:103C30008D8180FD02C0CE01C9DFDF91CF91089553
:103C4000CF93DF93EC018A81823041F4FB018281C2
:103C500093810E9426048D8182608D83DF91CF91B4
:103C60000895FB01808191810C942604FC018281DE
:103C7000813031F4FB01808191810C943A040895E4
:103C80008230E9F7FB0182819381F7CF0F931F9375
:103C9000CF938C01FB01C581CC23A9F08091EA036D
:103CA0009091EB030097A1F08017910789F0992775
:103CB0000E94EA03FC01258124602583118300838F
:103CC0009DDF0E94DA0D8C2FCF911F910F910895E7
:103CD000C0E0F9CFEF92FF920F931F93CF93DF9342
:103CE0007C018B0197558F3F910519F010F011E081
:103CF00036C00E94D903970133272817390708F0E7
:103D00004CC0C9010E94EA03EC01F80115818D81C4
:103D100010FB80F98D83112341F1ABD29093E9031D
:103D20008093E8038A818F5F8A830E94B70D8B831B
:103D30000E94CA0D9B81892B8B830E94DD0D8C8391
:103D40004E815F816E857F85CE013ADF8D8181FF57
:103D500002C0F12CE12CF092EB03E092EA03812FF8
:103D6000CDB7DEB7E6E00C94032A4C855D856E8501
:103D70007F85CE0125DF8D8181FFB9CFCE0126DF82
:103D80008091EA039091EB038E159F0509F0AFCF68
:103D90001092EB031092EA03AACF10E0E0CF8091DB
:103DA000EA039091EB03892BB9F08091E80390919D
:103DB000E90377D220919C0130919D0128173907A2
:103DC00058F48091EA039091EB0399270E94EA034B
:103DD000FC01258122FF12CF08959093F203809376
:103DE000F10308950E943D14811103C08091EC03FA
:103DF0000895E091F103F091F203309729F00190DA
:103E0000F081E02D0995089580E00895E091F10397
:103E1000F091F203309721F00280F381E02D0995B3
:103E20000895E091F103F091F203309739F026E024
:103E3000DC012C930480F581E02D09950895A3E021
:103E4000B0E0E5E2FFE10C94EB292091EF03309123
:103E5000F00328173907A1F09093F0038093EF0344
:103E6000E091F103F091F203309751F023E02983C0
:103E70009B838A830084F185E02DCE01019609950C
:103E80002396E2E00C94072AA3E0B0E0EAE4FFE125
:103E90000C94EB292091ED033091EE03281739079C
:103EA000A1F09093EE038093ED03E091F103F09184
:103EB000F203309751F024E029839B838A830084A6
:103EC000F185E02DCE01019609952396E2E00C9450
:103ED000072ACF93DF93C091A001D091A101229630
:103EE00029D1813081F48091FC0387FF0CC0C091FF
:103EF0009E01D0919F0122969EE180E0915028F48E
:103F0000DF91CF91089596E0F8CF29912223B1F364
:103F10008F5FF4CFCF93C82F811102C080E023C000
:103F200009D1813011F58091FC0387FF1EC0EC2F71
:103F3000E695E695E695EE3188F780919E019091A1
:103F40009F01E80FF92FF11D228130E0C77081E059
:103F500090E002C0880F991FCA95E2F72823392301
:103F600081E0232BD9F2CF9108958091A001909107
:103F7000A101FC013296089621912C1721F0E81737
:103F8000F907D1F7CBCF81E0EECF9C01FC0132964F
:103F90009FEF80E04191461751F09F3F19F4411186
:103FA00001C0982F8F5F8630A9F79F3F09F40895CD
:103FB000290F311D97FD3A95F90162830895FC019F
:103FC000329608962191261303C0DF0111971C92A7
:103FD000E817F907B9F70895E62FE695E695E6950F
:103FE000EE3168F4E80FF92FF11D677021E030E041
:103FF00001C0220F6A95EAF78281822B828308959D
:10400000E62FE695E695E695EE3170F4E80FF92F88
:10401000F11D677021E030E001C0220F6A95EAF7D8
:1040200020958281282322830895CF93C82F82D0A0
:104030006C2F813059F48091FC0387FF07C0809179
:104040009E0190919F01C8DFCF9108958091A001BA
:104050009091A1019ADFF8CFCF93C82F6BD06C2F2E
:10406000813059F48091FC0387FF07C080919E0145
:1040700090919F01C5DFCF9108958091A00190910B
:10408000A1019DDFF8CF56D0813079F48091FC03F7
:1040900087FF0BC0E0919E01F0919F0132968EE167
:1040A000DF011D928A95E9F70895E091A001F09152
:1040B000A101329686E0F4CF0895FECF08958111D4
:1040C0000CC081E08093C7016091C4017091C5016B
:1040D0008091C6019091C701F0CF82E0F3CF83E0D9
:1040E0008093C7016091C4017091C5018091C601A0
:1040F0009091C701E2CFE3CF089581E08093C7019B
:104100006091C4017091C5018091C6019091C70171
:10411000D4CFF3CF089591E0811101C090E0909346
:10412000C6016091C4017091C5018091C601909152
:10413000C701C3CF8091C60108958093C5016091E6
:10414000C4017091C5018091C6019091C701B5CF9E
:104150008091C50108958093C4016091C40170915C
:10416000C5018091C6019091C701A7CF8091C4017C
:10417000089508950895FECF089508950895F9CFFC
:104180000895CF93FADF0E94BA13F8DFC0E08C2FB6
:104190000E949F12811105C0CF5FC830C1F7CF9137
:1041A000089581E0FCCF85B7806885BF85B78068BA
:1041B00085BF08951F921FB61F9211248F939F935E
:1041C000AF93BF938091F303811113C080911404C6
:1041D00090911504A0911604B09117044196A11D69
:1041E000B11D8093140490931504A0931604B0930A
:1041F0001704BF91AF919F918F911F901FBE1F9089
:10420000189580911C04843031F10E945905109258
:10421000F30388E190E020E40FB6F894A89580932A
:1042200060000FBE2093600083B7817F846083BFEE
:1042300083B7816083BF7894889583B78E7F83BF6F
:104240000FB6F894A8958091600088618093600013
:10425000109260000FBE08950E94FC080C945C054B
:1042600082E084BD93E095BD9AEF97BD80936E0088
:1042700008952FB7F8948091140490911504A0919B
:104280001604B09117042FBF08952FB7F8946091CA
:1042900014047091150480911604909117042FBF97
:1042A00008959C014FB7F8948091140490911504DF
:1042B000A0911604B09117044FBF821B930B089571
:1042C000CF92DF92EF92FF922FB7F894C090140430
:1042D000D0901504E0901604F09017042FBFA701AA
:1042E0009601261B370B480B590BCA01B901FF90E9
:1042F000EF90DF90CF90089578941F921FB61F9291
:1043000011248F939F93AF93BF9380911404909146
:104310001504A0911604B09117040196A11DB11DBA
:104320008093140490931504A0931604B09317047B
:10433000BF91AF919F918F911F901FBE1F901895B5
:1043400087E797E7909301088093000888E19AE057
:104350000FB6F894A895809360000FBE909360000C
:10436000FFCF88E19AE00FB6F894A895809360009B
:104370000FBE90936000FFCF8EE14A9B02C0815038
:10438000E1F74A9BFECF08955A9880E28A95F1F7AB
:104390005A9A0895FC013BE03A95F1F798E020E045
:1043A00080E031E040E14A95F1F7880F4A9B02C076
:1043B0008160232742E04A95F1F7000040E14A95E9
:1043C000F1F7915079F790E19A95F1F799B132E0D0
:1043D0003A95F1F7000040E14A95F1F792FB9927F1
:1043E00090F992272081920F90830895A1E0B0E088
:1043F000EBEFF1E2ECC719828C017C01E60EF11CB7
:104400000E151F0539F481E09981911180E0219604
:10441000E6E0F9C7B1DFCE010196BCDFF801819378
:104420008F01EECF529A5A9A089552985A9AEA9A60
:10443000E9E6F0E080818F7C808308956150770BFE
:1044400091E001C0990F6A95EAF720E031E09111FF
:1044500008C0222391F05A9A80E28A95F1F75A987F
:104460000895492F482339F05A9A232740E24A9564
:10447000F1F79695ECCF5A98F9CF5A98EDCFFF9275
:104480000F931F93CF93DF93EC018C01060F111D47
:10449000C017D10721F4CDB7DEB7E5E0B5C7F99075
:1044A00073DF68E08F2DCADFF3CF1F920F920FB634
:1044B0000F9211240F931F932F933F934F935F936A
:1044C0006F937F938F939F93AF93BF93EF93FF93DC
:1044D000CF93DF930F92CDB7DEB719824DDFCE01B8
:1044E000019658DF082F069506950695282F2295E8
:1044F0002570902F9570290F922F937026952695F1
:10450000920F982797708981982B09F058C0053031
:1045100008F055C080E18A95F1F75A9A529A82E0E4
:104520008A95F1F700C05A9888E0089F800111240D
:10453000D801AD55BE4F1696ED91FC911797309767
:10454000A9F060914E0270914F0214962D913C910A
:104550001597260F371F11968D919C911297680F12
:10456000791F13964C9113978C910995F801ED558D
:10457000FE4F6381662349F020914E0230914F0235
:1045800084819581820F931F7ADFFEDE80E18A9518
:10459000F1F75A9852985A9A80E18A95F1F7F80102
:1045A000ED55FE4F6081662349F020914E02309117
:1045B0004F0281819281820F931F18DFDDDE0F9001
:1045C000DF91CF91FF91EF91BF91AF919F918F912B
:1045D0007F916F915F914F913F912F911F910F911B
:1045E0000F900FBE0F901F9018950F931F93CF93AE
:1045F000DF93EC0105970CF049C0F894529A5A9851
:1046000085E08A95F1F700009C2F969595708C2F88
:104610008570980F892F83709695969523E0CC0F1F
:10462000DD1F2A95E1F7980F8E01092BADDE00C042
:1046300068E0802F03DF80E18A95F1F752985A9A5B
:104640004A9B1DC087E090E04A991BC0FE01ED55D2
:10465000FE4F63816623F1F020914E0230914F02AC
:1046600084819581820F931FC1DE811113C0529AFC
:104670005A9A7894DF91CF911F910F91089500C0BD
:10468000DFCF019729F4529A5A9A789480E0F2CFBA
:1046900000C0DACF71DE80E28A95F1F75A98529A1B
:1046A00080E18A95F1F7CD55DE4F6881662349F0A8
:1046B00020914E0230914F0289819A81820F931F7F
:1046C000DEDE62DE789481E0D5CF08959B01BA01E9
:1046D00090911C049430E1F48F708093E9009FEF77
:1046E0008091E800915085FD06C085ED8A95F1F72F
:1046F00000009111F5CF8091E80085FF09C050E0DE
:1047000040E0C901B5D18091E8008E778093E80040
:10471000089543E050E0BC0182E0D8CF40E250E091
:10472000BC0182E0D3CFCF93DF93EC0103DD48E0FF
:1047300050E0BE0181E0CADF88E0FE01A4EFB3E0F3
:1047400001900D928A95E1F7DF91CF9108958091C4
:104750001B04811107C01AD371D38091E2008460D9
:104760008093E200089510921B040895C6DC81E056
:10477000D2CC6091180481E0611101C080E0AFCC1F
:1047800090911C0481E0943009F080E0609118045D
:10479000B2CC42E061EC81E075D242E261EC82E0B1
:1047A00071D290911C0481E0943009F080E0609116
:1047B000180485CC80911E04833009F45EC030F467
:1047C0008130C1F1823009F494C008958A3009F42F
:1047D00083C08B3009F46BC0893009F04DC08091E3
:1047E0001D04813209F048C0809121049091220477
:1047F000029708F041C08091E800877F8093E8002D
:104800008091E80082FF34C09091F3008091F20023
:10481000029731F48091F100813011F0863019F463
:104820008091F1008ADC8091E8008B778093E8002A
:104830005DD222C080911D04813AF1F48091E8009C
:10484000877F8093E8008091210490912204892B36
:1048500059F468E084EF93E070E057D18091E8006C
:104860008B778093E800089560E090E080E0F4CFDB
:1048700080911C048111C4CF089580911D04813A58
:10488000D9F78091210490912204892BA9F7809176
:10489000E800877F8093E8008091E80080FFFCCFEC
:1048A00049DC8093F1008091E8008E77BFCF809142
:1048B0001D04813209F78091210490912204892BF3
:1048C000D9F68091E800877F8093E8000FD280912D
:1048D0001F0421DC0C94FC0880911D04813261F6D8
:1048E0008091E800877F8093E80000D280912004C7
:1048F00032CC80911D04813A09F0BECF8091E8004E
:10490000877F8093E8008091E80080FFFCCF2EDC59
:10491000C8CF84B7877F84BF0FB6F894A8958091DD
:104920006000886180936000109260000FBE80E894
:1049300090E00FB6F89480936100909361000FBEF1
:10494000E8CB24D27BD2E2EEF0E0808184608083E9
:104950007894DEC488EC91E040CA80911C048530D4
:1049600029F480911C04853011F076CC089549DC3F
:1049700008DC8823B1F380911A04882391F362D074
:104980000E94FC08EECF08959A01409123045091B3
:10499000240400C0492F55274330510519F168F40C
:1049A0004130510509F444C04230510509F445C075
:1049B00090E080E050E040E025C04132510549F1EF
:1049C00042325105A9F784E490E046E254E06115D3
:1049D0007105C1F08DE690E049EB53E0613071055F
:1049E00089F0E6CF99278130910581F0009729F071
:1049F0000297F1F6E8E4F3E002C0E8E6F3E0849120
:104A000090E0AF01F901518340830895E6E5F3E0BA
:104A1000F6CF89E090E04EE753E06115710591F320
:104A200089E090E047E953E06130710559F3C0CF68
:104A300082E190E047EA53E0E5CF8BE390E04CE67B
:104A400053E0E0CF80E189BD82E189BD09B400FE79
:104A5000FDCF8091D8008F7D8093D8008091E000B9
:104A600082608093E0008091E00081FDFCCF08959A
:104A7000AF92BF92CF92DF92FF920F931F93CF938B
:104A8000DF936C01EB018A0150D1F82E811123C014
:104A90000115110539F0F80180819181C81BD90BEE
:104AA000C80ED91EB12CA12C2097A9F08091E80046
:104AB00085FD21C08091E8008E778093E800011584
:104AC0001105A1F0F80180819181A80EB91EB18273
:104AD000A08285E0F82E8F2DDF91CF911F910F914D
:104AE000FF90DF90CF90BF90AF9008951ED18823A4
:104AF000D9F2F82EF0CFF60181916F018093F10089
:104B00002197FFEFAF1ABF0ACFCFFC01809123049A
:104B10009091240486179707A0F06115710529F478
:104B20009091E8009E779093E80090E06115710500
:104B300051F4911108C08091E80082FF34C080E0F8
:104B40000895BC01F2CF80911C048823C1F1853007
:104B5000C1F18091E80083FD30C08091E80082FDC2
:104B6000EACF8091E80080FFE1CF8091F3002091AF
:104B7000F200382F6115710519F02830310558F011
:104B800091E02830310509F090E02091E8002E777F
:104B90002093E800CBCF81918093F100615071099F
:104BA0002F5F3F4FE7CF80911C04882341F0853071
:104BB00041F08091E80083FFBECF81E0089582E05C
:104BC000089583E00895FC018091230490912404CA
:104BD00086179707A0F06115710529F48091E80008
:104BE0008E778093E80090E06115710551F4911182
:104BF00008C08091E80082FF35C080E00895BC01C4
:104C0000F2CF80911C048823C9F18530C9F18091CD
:104C1000E80083FD31C08091E80082FDEACF8091F9
:104C2000E80080FFE1CF8091F3002091F200382F5F
:104C30006115710519F02830310558F091E02830E0
:104C4000310509F090E08091E8008E778093E800CC
:104C5000CBCF84918093F1003196615071092F5F21
:104C60003F4FE6CF80911C04882341F0853041F00E
:104C70008091E80083FFBDCF81E0089582E0089530
:104C800083E00895982F973028F08F708093E90083
:104C900081E008959093E900242F762F50E0981733
:104CA00031F07091EC002091ED005091F00021FD69
:104CB00002C09F5FE8CF3091EB003E7F3093EB0066
:104CC0003091ED003D7F3093ED003091EB0031608D
:104CD0003093EB007093EC002093ED005093F000C4
:104CE0002091EE0027FDE5CF80E0089580911D041E
:104CF00087FF13C08091E80082FF06C08091E80022
:104D00008B778093E80004C080911C048111F2CF5E
:104D1000089580911C048823D9F38091E80080FFD6
:104D2000F8CF8091E8008E77ECCF2091E4003091AD
:104D3000E50095E6A9012091EC00822F817020FF0B
:104D400006C08091E80080FF06C080E008952091B1
:104D5000E80022FD1AC080911C04882389F0853068
:104D600089F08091EB0085FD0FC02091E400309127
:104D7000E50042175307F9F29150E1F684E00895F7
:104D800082E0089583E0089581E0089567D06ED0B1
:104D9000E0EEF0E0808181608083E8EDF0E08081EA
:104DA0008F77808319BCA7EDB0E08C918E7F8C93B8
:104DB00080818F7E808310921B0408950F931F9330
:104DC000CF93DF934BD052D0C8EDD0E088818F775E
:104DD000888388818068888388818F7D888319BCD7
:104DE00010921C041092180410921A0410921904C4
:104DF00000EE10E0F80180818B7F808388818160E4
:104E0000888342E060E080E03DDFE1EEF0E0808119
:104E10008E7F8083E2EEF0E08081816080838081FC
:104E200088608083F80180818E7F808388818061A3
:104E30008883DF91CF911F910F910895E8EDF0E005
:104E400080818F7E8083E7EDF0E0808181608083C8
:104E500084E082BF81E080931B04B0CFE8EDF0E0F6
:104E600080818E7F80831092E20008951092DA0094
:104E70001092E10008951F920F920FB60F92112425
:104E80002F933F934F935F936F937F938F939F9352
:104E9000AF93BF93EF93FF938091E10082FF0AC02D
:104EA0008091E20082FF06C08091E1008B7F8093B9
:104EB000E1002DD28091DA0080FF18C08091D800E7
:104EC00080FF14C08091DA008E7F8093DA00809199
:104ED000D90080FF91C080E189BD82E189BD09B41C
:104EE00000FEFDCF81E080931C0431DC8091E10065
:104EF00080FF18C08091E20080FF14C08091E20022
:104F00008E7F8093E2008091E20080618093E200D6
:104F10008091D80080628093D80019BC85E080938E
:104F20001C0427DC8091E10084FF2AC08091E2000C
:104F300084FF26C080E189BD82E189BD89B5982FB3
:104F4000917080FFFBCF8091D8008F7D8093D80037
:104F50008091E1008F7E8093E1008091E2008F7E5E
:104F60008093E2008091E20081608093E200809172
:104F70001804882309F445C084E080931C0400DCF5
:104F80008091E10083FF27C08091E20083FF23C06E
:104F90008091E100877F8093E10082E080931C0490
:104FA000109218048091E1008E7F8093E10080913F
:104FB000E2008E7F8093E2008091E2008061809326
:104FC000E20042E060E080E05DDE8091F000886019
:104FD0008093F000CBDBFF91EF91BF91AF919F9158
:104FE0008F917F916F915F914F913F912F910F9092
:104FF0000FBE0F901F90189519BC10921C04B3DBC4
:1050000075CF8091E30087FD93E090931C04B7CFA8
:105010001F920F920FB60F9211242F933F934F932D
:105020005F936F937F938F939F93AF93BF93CF9330
:10503000DF93EF93FF93D091E900DF708091EC0054
:10504000C82FC17080FDC0E81092E9008091F00087
:10505000877F8093F00078941ED01092E9008091B1
:10506000F00088608093F000CD2BCF70C093E900F2
:10507000FF91EF91DF91CF91BF91AF919F918F9170
:105080007F916F915F914F913F912F910F900FBE44
:105090000F901F901895AAE2B0E0E0E5F8E29AC1FF
:1050A0008DE194E02091F100FC012193CF01F4E027
:1050B00085329F07B9F77EDB8091E80083FF16C138
:1050C00080911D0490911E049A3008F00FC1E92FC1
:1050D000F0E0E755F54D69C1803899F0823809F064
:1050E00005C1809121048F70873008F0FFC0809344
:1050F000E9008091EB0085FB882780F91092E90098
:1051000006C08091190490911A04911182609091C7
:10511000E800977F9093E8008093F1001092F100EF
:105120008091E8008E77DFC0882309F4CDC08230FB
:1051300009F0DCC080911F048111D0C0809121044E
:105140008F702FEF280F263008F0D0C08093E90031
:105150002091EB0020FFC2C0933031F48091EB002E
:1051600080628093EB00BAC09091EB0090619093C5
:10517000EB0021E030E001C0220F8A95EAF720938E
:10518000EA001092EA008091EB008860EACF81117A
:10519000ADC010911F041F778091E3008078812BB0
:1051A0008093E3008091E800877F8093E8009EDD94
:1051B0008091E80080FFFCCF8091E30080688093BD
:1051C000E30082E0111183E080931C048FC08058BB
:1051D000823008F08BC080911F04909120048C3D98
:1051E00023E0920799F583E08A838AE289834FB7A7
:1051F000F894DE01139620E03EE051E2E32FF0E068
:1052000050935700E49120FF03C0E295EF703F5F99
:10521000EF708E2F90E0EA30B8F0C7968D939D9393
:105220002F5F243159F74FBF8091E800877F80932B
:10523000E8006AE270E0CE01019667DC8091E80048
:105240008B778093E80052C0C096E8CF609121042C
:1052500070912204AE014F5F5F4F96DBBC01892B3A
:1052600009F444C09091E800977F9093E800898109
:105270009A81A9DCE3CF8038C9F58091E800877F67
:105280008093E800809118048093F10049CF811148
:105290002DC090911F04923048F58091E800877FDF
:1052A0008093E8009093180421DD809118048823EE
:1052B00011F084E005C08091E30087FDFACF81E022
:1052C00080931C0466DA12C080911F04813071F44F
:1052D00081E0933009F080E080931A041092E90095
:1052E0008091E800877F8093E80000DD8091E800EE
:1052F00083FF0AC08091E800877F8093E800809157
:10530000EB0080628093EB00AA96E3E07FC00895F3
:10531000CF9380911C04882399F0C091E900CF704D
:105320009091EC00892F817090FD80E8C82B10923D
:10533000E9008091E80083FDAEDECF70C093E90004
:10534000CF91089523DD10921C040895E8EDF0E05C
:105350008081806180838AE18A95F1F700C0809125
:10536000D90081700895A1E21A2EAA1BBB1BFD0172
:105370000DC0AA1FBB1FEE1FFF1FA217B307E40734
:10538000F50720F0A21BB30BE40BF50B661F771F8C
:10539000881F991F1A9469F760957095809590956C
:1053A0009B01AC01BD01CF010895EE0FFF1F0590D9
:1053B000F491E02D09942F923F924F925F926F9259
:1053C0007F928F929F92AF92BF92CF92DF92EF9295
:1053D000FF920F931F93CF93DF93CDB7DEB7CA1B16
:1053E000DB0B0FB6F894DEBF0FBECDBF09942A8841
:1053F000398848885F846E847D848C849B84AA84E9
:10540000B984C884DF80EE80FD800C811B81AA8175
:10541000B981CE0FD11D0FB6F894DEBF0FBECDBF40
:10542000ED010895FB01DC0104C08D91019080190C
:1054300021F441505040C8F7881B990B0895FB0197
:10544000DC0102C001900D9241505040D8F7089500
:10545000F999FECF92BD81BDF89A992780B508953C
:10546000A8E1B0E042E050E02FC0DC01A40FB51F7E
:105470004150504040F0CB01840F951F2E9105D034
:1054800041505040D8F70895262FF999FECF92BD8C
:1054900081BDF89A019700B4021639F01FBA20BDF9
:1054A0000FB6F894FA9AF99A0FBE08950396272F2B
:1054B000ECDFEADF252FE9DF242FE7CF0196272F46
:1054C000E4DFE2CFDC01CB01FC01F999FECF06C09D
:1054D000F2BDE1BDF89A319600B40D9241505040B2
:1054E000B8F70895F894FFCF2C072C076E076E07C6
:1054F000C707540754075407E3074C0858085808CF
:105500009F1B131CA71B711B751BAB1B791BAF1BB0
:10551000BB1B851B0C1C891BBF1B8D1BC31BEB1BE3
:10552000911BC71BF21B971BCD1BD51B7D1BB31BF0
:10553000811BB71B9B1BD11BE11BFB1B0A1C6B1B9D
:10554000A31B1A1CB61DBC1DA61DB01DC21DC81D67
:10555000CE1D6C289428762994287629C728E72818
:0655600076293B294729D2
:105566009202737C0000008C02737C000000000035
:1055760000000000201E311E361E000096010000AD
:1055860000000000201E311E361E000092010000A1
:1055960000000000201E311E361E00008E01000095
:1055A60000000000201E311E361E00008A01000089
:1055B60000000000201E311E361E0000860100007D
:1055C60000000000201E311E361E00008201000071
:1055D60000000000201E311E361E00007E0138002D
:1055E60031003600300010002F0013003400380060
:1055F60038022E022E0035023500FF00AA000203F3
:105606002203010000000100000000000000040168
:10561600000000040500000000000004090000006E
:105626000000000100000100A82093238E236523BB
:105636008923E200E900EA00B500B600B700CD0014
:105646008301CC008A0192019401210223022402E3
:105656002502260227022A02B300B4006F0070005A
:105666009F01CB019F02A002818283E200E900EA4A
:1056760000B500B600B700CD008301CC008A0192C8
:105686000194012102230224022502260227022A6E
:1056960002B300B4006F0070009F01CB019F02A00F
:1056A60002818283F4F5F6F73133946697C6480390
:00000001FF
