:1000000034C200004FC200004DC200000C944522D3
:1000100049C2000047C2000045C2000043C20000C0
:1000200041C200003FC200000C942B270C94F8271B
:100030000C94CA2037C2000035C2000033C2000051
:1000400031C200002FC200002DC200002BC20000F0
:1000500029C200000C946C2125C2000023C20000BC
:1000600021C200001FC200001DC200001BC2000010
:1000700019C2000017C2000015C2000013C2000020
:1000800011C200000FC200000DC200000BC2000030
:1000900009C2000007C2000005C2000003C2000040
:1000A00001C20000FFC10000FDC1000000003400DB
:1000B0003600370013001C00000004001224082240
:1000C00018280C000000330014000D000E001B0067
:1000D0000000000000000000417E2C2100000F0005
:1000E000150006000A00090000001600113417323E
:1000F0000B38070000001D0019001A001000050051
:100100000000000000000000427E283100001400C2
:100110001A0008001500170000000400160007224E
:1001200009000A0000001D001B0006001900050060
:100130000000000000000000417E2C00000003577A
:1001400012000C0018001C00000033000F000E32DB
:100150000D000B000000065737000557045711002B
:100160000000000000000000427E28000000437EE6
:10017000447E457E467E2A0800002B022B00E100CB
:10018000E3002A040000477E487E497E4A7E4C04F4
:1001900000000000000000000000000000004F12FE
:1001A000521251125012501A00004F0052005100CA
:1001B0005000501800004F1452145114501450168F
:1001C0000000000000000000407E2C0F00001E0216
:1001D0001F02200221022202000059005A005B0087
:1001E0005C005D0000002F0230022D000157005717
:1001F00000000000000000002D0204520000310049
:100200003102250224022302000062006100600026
:100210005F005E0000002702260230002F00025718
:1002200000000000000000000000000000004B7E05
:100230000000220A210A210B0000000000004700F4
:100240004800060800005000510052004F001908F5
:100250000000000000000000417E2C0000000000B3
:100260000000A800AE0029000000BB00A900AA0001
:10027000BC002A0000004F00520051005000000056
:100280000000000000000000427E280007220E321D
:1002900000000822173200000000000000000000EB
:1002A0002A2B2800000000000000000000000000D1
:1002B00000000029000000002C1E342021222434DC
:1002C0002627252E362D3738271E1F2021222324AE
:1002D00025263333362E37381F0405060708090A4A
:1002E0000B0C0D0E0F101112131415161718191AE6
:1002F0001B1C1D2F3130232D350405060708090A64
:100300000B0C0D0E0F101112131415161718191AC5
:100310001B1C1D2F3130354C000000000000000078
:1003200000000000000000000000000000000000CD
:100330000000000000000000000000007E0F00D45C
:10034000FFFFFFC7000000780C0343006F0072003E
:100350006E0065000000100366006F006F00730000
:10036000740061006E0000000403090409023B00F0
:10037000020100A0FA0904000001030101000921A3
:10038000110100012244000705810308000109044E
:1003900001000103000000092111010001226D008C
:1003A000070582032000011201000200000008532B
:1003B00046010001000102000105010980A101853B
:1003C0000319012AB700150126B7009501751081A0
:1003D00000C0050C0901A101850419012AA002151C
:1003E0000126A002950175108100C005010906A132
:1003F000018506050719E029E7150025019508750F
:100400000181020507190029EF1500250195F075F6
:1004100001810205081901290595057501910295CB
:100420000175039101C005010906A101050719E045
:1004300029E71500250195087501810295017508C8
:1004400081010507190029FF150026FF0095067593
:100450000881000508190129051500250195057574
:10046000019102950175039101C011241FBECFEFC8
:10047000DAE0DEBFCDBF12E0A0E0B1E0E6E4F5E5F2
:1004800002C005900D92A035B107D9F724E0A0E590
:10049000B2E001C01D92A432B207E1F70E945B16E0
:1004A0000C94622AADCD80915902882321F01092DC
:1004B00059028AEA7ED480915802882321F0109252
:1004C000580288E876C40895CF93FB0185342EE75F
:1004D000920709F4F6C008F581342EE7920709F473
:1004E0006FC060F48932910509F44FC080349E4793
:1004F00009F457C0C1E08C2FCF910895C581833492
:100500002EE7920709F4D4C008F49AC0CC2309F46A
:10051000D6C088E849D480E3D0C088342EE792075B
:1005200009F4DEC0F8F486342EE7920709F4D0C04F
:1005300087349E47F9F68581882351F1C09159028D
:10054000C111CBC080915802882321F0109258022B
:100550000E94B70D8AEA28D48BE21FD481E08093F1
:100560005902C9CF8A342EE7920709F4D8C008F49B
:10057000CFC08B349E4709F0BDCF8581882309F415
:100580009EC08CEC11D48CE098C0C581CC2311F0B6
:10059000C0E0B1CF0E9448178823D1F30E945A17B8
:1005A000AACF85818823A1F383E090E070D68FEFF6
:1005B000FBD38CE279D310D681E080935202E8CF4E
:1005C000C581CC23B9F00E942921909357028093D2
:1005D000560284E084D6882329F084E09ED681E008
:1005E0008093530282E07BD6C82F82E0C111D0CF26
:1005F00086D681CF58DF82E072D6882311F082E060
:100600008CD680915302811116C0809152028111C3
:1006100012C00E9429212091560230915702821B5C
:10062000930B8A3A910538F489E2B7D30E944817B0
:1006300081110E945A1710925302109252025BCFFE
:10064000CC23B1F00E94292190935502809354024B
:1006500084E045D6882329F084E05FD681E080934A
:10066000530283E03CD6C82F811192CF83E0C0CFE4
:100670001ADF83E034D6882311F083E04ED68091D0
:100680005302811112C00E942921209154023091FD
:100690005502821B930B8A3A910538F48AE27DD386
:1006A0000E94481781110E945A171092530223CFBB
:1006B000CC2329F088E878D38FE2F6D269CF8CD5A5
:1006C00067CF85818823D9F383E36ED38BE2F5CF9F
:1006D00085818823A1F381E1F8CF8BE25ED358CFE7
:1006E0008581882309F454CFC0915802C111F5CFF8
:1006F00080915902882321F0109259020E94B70D6F
:1007000088E852D38BE249D381E080935802F3CE3C
:1007100085818823A1F281E147D380E5CECF858111
:10072000882369F281E140D38FE4C7CF8530B8F4E4
:100730006830A8F4463098F450E096E0699F400D88
:10074000511D1124FA0190E3899FE00DF11D112440
:10075000EE0FFF1FE455FF4F85919491089581E0BE
:1007600090E00895E3CF089582E090E0089582300C
:10077000910550F447E0489F9001499F300D1124A6
:10078000C90180509F4F089590E080E00895EFCF19
:10079000089587E090E008958730910540F424E0C3
:1007A000880F991F2A95E1F7825F9E4F089590E088
:1007B00080E00895F1CF08959C013A9521153F41BD
:1007C00050F5FC01EE27F170BC0166277270AC0198
:1007D000442754709C012227387094FF0EC080E19A
:1007E000EF2B09F480E0672B09F08062452B09F0BC
:1007F0008064232B89F08068089581E0EF2B09F451
:1008000080E0672B09F08260452B09F08460232B80
:1008100019F08860089580E00895CF93DF93EB018D
:10082000CBDFFE010995DF91CF910895CF93DF9340
:10083000EC01805E9109089720F065ED78E0209743
:1008400011F464ED76E0CE01E8DF8C2F2DD2DF913C
:10085000CF910895CF93DF93EC0163D2CE01805EF8
:100860009109089720F06AED78E0209711F469ED7E
:1008700076E0CE01D2DFDF91CF91089581E0089537
:10088000FDCF089581E008951FCE08950895FECF0D
:100890000895A6E0B0E0EFE4F4E00C94DA2949838F
:1008A0005A839E833091660289819A81311117C0E3
:1008B0003E81332389F0222379F0D8D5182F682F71
:1008C00089819A81B2D569817A81812F0E943911FB
:1008D0002696E3E00C94F629B9D5182FF4CFC6D5A7
:1008E00069817A81F3CFFC01262F8781908500975B
:1008F00039F4408151816281738184819581C9CFAE
:100900000895CF93DF93EC0161E0EDDFBE01B8DF26
:10091000882351F061E0CE01E6DFBE010E94171985
:100920008170DF91CF91089580E0FACFCF93DF936C
:10093000EC0160E0D8DFBE01AADFDF91CF9108951E
:1009400021E030E0A90102C0440F551F8A95E2F76B
:10095000CA018DC4CF93C82F81E090E00C2E02C055
:10096000880F991F0A94E2F70E94CB0E8C2FE8DFC4
:10097000CF91089581E00895FDCF0895CF93C82FBA
:100980002BD48C2FF9DF2FEF84E39CE021508040A3
:100990009040E1F700C00000CF91089581E0EEDFC4
:1009A0000C94902180E0EADF0C94A1210F931F9317
:1009B000CF93DF938C0161E096DFEC01B8010E94D8
:1009C000361E882321F061E0C8018DDFEC01B801FB
:1009D000CE015ADF811106C080E0DF91CF911F91D7
:1009E0000F910895B801CE010E94AD168823A1F39E
:1009F000B801CE010E945A1E882371F3B801CE01BE
:100A00000E94DD1A882341F3B801CE010E948A1D9D
:100A1000882311F3B801CE010E94371B8823E1F22D
:100A2000B801CE010E940F1B8823B1F2B801CE019C
:100A30000E947712882381F2F8018581882361F072
:100A4000C330FCE7DF07D9F050F4C115ECE7DE074F
:100A5000A1F0C130DC47A9F0C80114DFBECFCB350F
:100A60008CE7D80799F0CC35ECE7DE0761F0CA35A2
:100A7000DC4791F70E94AC0EEFCF90DFADCF0E9424
:100A8000B00E90DFA9CF0E94A40EE6CF0E94AE0E5A
:100A9000E3CF0E94AB20B2C0B3D00C94AF202F9212
:100AA0003F924F925F926F927F928F929F92AF92FE
:100AB000BF92CF92DF92EF92FF920F93CF93DF938B
:100AC0001C0129013A016B0181E0C81AD108E1013A
:100AD000CC0DDD1D1882F12CE12C8AE0882E912CA2
:100AE000A12CB12CEC14FD0498F0C101DF91CF9141
:100AF0000F91FF90EF90DF90CF90BF90AF909F90BD
:100B00008F907F906F905F904F903F902F900895BF
:100B1000C301B201A50194010E94A329605D603365
:100B200019F4E114F10431F0411451046104710429
:100B300009F4602F6A93C301B201A50194010E94D8
:100B4000A32929013A018FEFE81AF80ACBCF0F93B6
:100B500020919A0130919B012817390721F42091A7
:100B60006002261789F090939B0180939A0160930D
:100B700060029C0150E040E0062F66E070E08AE5EC
:100B800092E08DDF0F9108958AE592E0FBCF292F47
:100B9000332740E02115310511F0C90148E09C01DF
:100BA00064E0369527956A95E1F72115310511F036
:100BB0004C5FC9019C0136952795369527952115DF
:100BC000310511F04E5FC90196958795892B09F083
:100BD0004F5F842F089581E008950895CF93DF93A8
:100BE000D82FF9DFC82F882311F08D2FF6DF8C2F37
:100BF000DF91CF9108950895F1CF089580E0FCCF63
:100C00000E94E21EF9CFCF930E94E21EC82F80916E
:100C100061028C1771F0C09361020E9435216093CC
:100C200062027093630280936402909365028C2F3A
:100C3000E3DFCF910895AFE0B0E0E1E2F6E00C949D
:100C4000D9294A875B876C877D878E879F8791111B
:100C5000A1D71F821886198686E0FE013A96DE012A
:100C6000119601900D928A95E1F78D8181110EC048
:100C700009811A812B813C814D815E816F8178854C
:100C80008985CED62F96E4E00C94F529CE01019605
:100C900038DE8111EDCFF6CFFC012481213019F42B
:100CA0008081918114C40895CF93C82F882389F03F
:100CB0008CEF8C0F813A78F48C2F0E947A1F882356
:100CC00021F08C2F0E941C20F3D78C2F0E9405202E
:100CD000EFD7CF91089580E28C0F883040F4C77031
:100CE00081E001C0880FCA95EAF734D7F1CFEBE570
:100CF000EC0FE33040F4F0E0E85FFD4F808190E0DE
:100D00000E940F1FE6CFC85ACB3118F7EC2FF0E046
:100D1000EE0FFF1FEE52FE4F808191810E94341F23
:100D2000D8CF882319F19CEF980F913A18F40E94BC
:100D30001C20BEC790E2980F983048F4877091E06D
:100D400001C0990F8A95EAF7892F0AD7F2CF9BE560
:100D5000980F933020F490E080E00C940F1F885A95
:100D60008B3120F490E080E00C94341F08951F93A1
:100D7000CF93DF93182FEB0197DF209731F4812F6A
:100D8000D0DFDF91CF911F9108958FE99FE0019708
:100D9000F1F700C000002197F0CF70E060E08933E8
:100DA00011F460E570E0E3CF882311F0D3D680C75B
:100DB0000895882311F0D4D67BC70895B0E0A0E051
:100DC000E4EEF6E00C94D4296C01D62FC72FFC0179
:100DD0001581068102950F70B3D6E82E8823E9F0BD
:100DE000E12E1123D1F08C2F807F803461F080E2DE
:100DF0008D0F8830F8F08C2F807E803221F4D23035
:100E0000C8F00023B9F08091FC0382FF13C082E098
:100E100073D796D691E0E82EE926BC2EB2949FE0D7
:100E2000B922FBE0FB1580F1EB2DF0E0EC59F54D1C
:100E30000C94C529E12CF1CF0C2F0F70C07F11F05D
:100E40000295007F112381F0002349F080E28D0F8D
:100E5000883010F0D11105C0802F7CD629D78D2F76
:100E60004CC0802F8AD6FACF8D2F5BDF002361F034
:100E700080E28D0F883010F0D11103C0802F70D622
:100E800002C0802F80D614D7EB2DE850FF0B34978B
:100E900018F40E94E21EB0DEEE2059F04DD680FD1F
:100EA00008C0F601158242D62AD2C60160D13ED6CC
:100EB00034D2CDB7DEB7E9E00C94F0292C2F2F7097
:100EC000F22EC07FC03219F0F29480EFF822DD23B9
:100ED00041F0D13089F1112309F439C00023D1F058
:100EE000BECF8091FC0382FD11C0112341F0FF2091
:100EF00019F08F2D2FD6DCD680E0D6DEC5CF80E06E
:100F000010DFFF2009F4C0CF8F2DB9CF112359F086
:100F1000011103C08F2D48DFB7CF013009F0B4CFE6
:100F20008F2D4FD6B1CF0111AFCF8F2D42DF8F2D37
:100F300053D68F2D38D6A8CF112321F0023008F0D8
:100F4000A3CFE8CF0111A0CF8F2D33DF9DCF00239A
:100F5000D9F3D93349F43FEF87EE93E03150804025
:100F60009040E1F700C000008D2FDBDE8DCF8C2F8D
:100F700086958695837069F0813009F085CF8D2F35
:100F80009C2F9370111102C080E090E00E94341FEA
:100F90007BCF8D2F9C2F9370111102C080E090E0C9
:100FA0000E940F1F71CF8C2F837081F511116CCFB0
:100FB0004D2F429546954770440F440F2D2F2F70AB
:100FC00030E0042E02C0220F331F0A94E2F790E0B3
:100FD00080E0D4FF09C08FE090E002C0880F991F25
:100FE0004A95E2F780959095C695C695C370822B79
:100FF000932BC23039F040F4C13011F041D144CFCD
:1010000038D142CF44D140CF32D13ECF8695112343
:1010100011F08C2F8170882309F436CF4D2F429523
:1010200046954770440F440F2D2F2F7030E0042E4B
:1010300002C0220F331F0A94E2F790E080E0D4FF51
:1010400009C08FE090E002C0880F991F4A95E2F72F
:1010500080959095C695C695C370822B932BC23010
:1010600039F040F4C13011F07DD10ECF74D10CCFE6
:1010700080D10ACF17D108CFCF70112321F08C2F48
:101080003ED18D2F48CF8D2F94DE8C2F46D1FCCEB4
:10109000D23F31F160F4D03FB9F0D13F81F011235C
:1010A00009F43BC00111DBCE8C2F8F711DC0D33FE3
:1010B000E9F0D43FA1F78091FC0382FD1FC08C2F83
:1010C0008F71112319F310C0112331F00111DCCEFF
:1010D0008C2F8F7132D1D8CE023008F0D5CEF8CF18
:1010E0008C2F8F711111D2CF0AD1CECE112321F0C6
:1010F0008C2F8F71FAD0C8CEDBD0C6CE112329F049
:1011000063E08C2F8F71E1D5BFCE81E0F5D5023041
:1011100008F4BACE82E0F0D5B7CE002359F0D93327
:1011200009F022CFEFEFF7EE23E0E150F04020404E
:10113000E1F718CF8C2F8F71A9CF0F931F93CF9307
:10114000DF93EC018F819885009761F07CD78C014B
:1011500017D18CD0B801CE0131DEDF91CF911F9134
:101160000F910895688179818D81BAD1F0CFCF93A5
:10117000DF93EC018C81882381F0CE0117DC811193
:101180000FC0DED4882349F08D81882331F080910F
:10119000FC0382FF02C082E0AFD5DF91CF910895BA
:1011A000CE01CBDFCE01C2DBF8CF882311F0E5D42E
:1011B0007FC50895882311F0E6D47AC5089590E09C
:1011C00080E00E940F1F90E080E00E94341FE2D474
:1011D0006FC50E943320F3CFCAD4FBCF92959F7086
:1011E000963091F058F4925F9F70923058F4803F9F
:1011F00019F030F4883E30F481E008959A5FF4CF1E
:10120000843FD1F380E00895883EB0F3813FD1F769
:10121000F3CFFC018481882351F08781908500976A
:1012200011F011D7DBCF8081918151D1FBCF80E0CC
:101230000895A6E0B0E0EFE1F9E00C94DB292696F2
:10124000E2E00C94F729A9E0B0E0E9E2F9E00C94BF
:10125000D9292996E4E00C94F5290895FECF089544
:10126000FDDF909382028093810208950895F8CF64
:1012700008952091810230918202822B932BF0CF2E
:10128000209181023091820282239323E9CF209121
:1012900081023091820282279327E2CFDECF089528
:1012A000FDCF0895FDDF9093800280937F02089523
:1012B00090E080E0F7CF009729F481E0662371F099
:1012C00080E00CC021E030E002C0220F331F6A959D
:1012D000E2F72823392381E0232B91F30895682F27
:1012E00080917F0290918002E6CF21E030E0A90159
:1012F00002C0440F551F8A95E2F7CA01D3CF21E0FF
:1013000030E002C0220F331F8A95E2F780917F02FE
:1013100090918002822B932BC5CF21E030E002C058
:10132000220F331F8A95E2F72095309580917F0236
:101330009091800282239323B5CF21E030E002C058
:10134000220F331F8A95E2F780917F0290918002ED
:1013500082279327A7CF20917F0230918002822B92
:10136000932BA0CF20917F02309180028223932380
:1013700099CF20917F02309180028227932792CFCC
:101380000895262F277091E001C0990F2A95EAF75A
:1013900023E0769567952A95E1F7660F771F660F2C
:1013A000771FFA01E60FF71F50E040E0682F70E06A
:1013B0008191DF0111979B01042E02C0369527957C
:1013C0000A94E2F7217021952827292328272C93B6
:1013D0004F5F5F4F4430510559F70895A82FA7700C
:1013E00023E0969587952A95E1F7880F991F880F36
:1013F000991FFB01E80FF91F50E040E080E02191C8
:1014000030E00A2E02C0369527950A94E2F7217043
:101410003327042E01C0220F0A94EAF7822B4F5F74
:101420005F4F4430510559F70895262F983068F4DE
:10143000863058F4682F70E086E0989F600D711D2B
:10144000112447E652E0822F9CCF0895292F98302F
:1014500058F4863048F490E067E672E036E0239F67
:10146000800D911D1124BACF80E00895B0E0A0E076
:10147000ECE3FAE00C94D4297C0100917F021091F6
:1014800080028091810290918202082B192BCFE07B
:10149000D0E0CC24C394D12CBC2EC6010C2E02C0AB
:1014A000880F991F0A94E2F780239123892B49F42E
:1014B000219790F7B12C8B2DCDB7DEB7E9E00C94D6
:1014C000F029B7018C2FE0D6019791F3F4CFCF9399
:1014D000DF93EC01CBDFBE01D7D6DF91CF9108952A
:1014E0001F93CF93DF93EB0190916602992331F024
:1014F000CB01EDDFDF91CF911F910895882351F04B
:10150000CB01B4DF182F682FCE018FDFBE01812FF2
:10151000BBD6F0CFCB019ADF182FF8CFFF920F93F5
:101520001F93CF93DF93C091830289E0F82E8091BF
:1015300084028C1305C0CDB7DEB7E5E00C94F42926
:10154000D0E0FC9EF001FD9EF00D1124EB57FD4F05
:1015500000811181228133814481558166817781A7
:10156000808571DE2196C770E2CF0F931F930091A3
:10157000CD021091CE022091CF023091D002409145
:10158000D1025091D2026091D3027091D402809125
:10159000D50259DE1F910F9108950F931F93CF939A
:1015A000DF938091D302807F09F04FC08091D202F7
:1015B000882309F44AC0E0918302D09184021091FB
:1015C000CE020091CD024091CF025091D0026091A5
:1015D0009C0170919D01C9E0DE17B9F18E2F90E05A
:1015E000EC9FF0011124EB57FD4F2481222391F150
:1015F000C89FF001C99FF00D1124DF01AB57BD4F0B
:1016000011962C911197211325C02C91201322C0E3
:1016100015962C91159721111DC012962D913C9174
:10162000241B350B26173707A8F48091D3028F703F
:1016300080618093D302E557FD4F80818F70806178
:1016400080838DEC92E093DD69DFDF91CF911F9174
:101650000F910895FC013196E770BECF482F20917D
:1016600083029091840259E0291302C080E008951A
:1016700030E0529FF001539FF00D1124EB57FD4FC6
:101680008181681306C08081481303C08581811160
:10169000EECF2F5F3F4F2770E7CFA8E1B0E0E3E543
:1016A000FBE00C94D1298C0186E0F801DE01539611
:1016B00001900D928A95E1F7D80114968C911497B8
:1016C0001596EC9015979DECA92E92E0B92E90916D
:1016D000D10291111AC08823A9F0EE2089F0C80127
:1016E00098DDF82E882361F089E0F801D50101909A
:1016F0000D928A95E1F7C501CFDA4FDF36DF48C09A
:10170000C80135DDFF24F39443C0F801C080D180C7
:1017100082809380F090D2022091CF023091D0024B
:10172000A401421B530B9A0140919C0150919D01D1
:10173000FF2009F41EC12417350708F0C0C0882314
:1017400039F19091CE028091D302282F207F09F0A9
:1017500069C09D1122C09091CD02C9121EC0409156
:10176000D4025091D5022781308542175307A9F43E
:10177000E11052C08F7080618093D302F6DE8DEC51
:1017800092E0F5DC8091D302D80116968C93F12C6F
:101790008F2D6896ECE00C94ED29E1103DC06D2D85
:1017A0008C2D5CDFE82E882361F08DEC92E0DFDC8D
:1017B00089E0EDECF2E0DF011D928A95E9F7D5DED4
:1017C000E6CFCB8ADC8A8B899C8981DE292F229502
:1017D0002F70243058F49F70223080F0992391F0BC
:1017E000F8019681907F71F4FE2CD2CF2A5F2F7082
:1017F000223060F0C801BBDCEF2CF6CF992311F04A
:10180000882391F3805E883078F3F4CF803F60F3D3
:10181000815F833078F7E8CF8091D3028160809335
:10182000D302B5CF9D111EC09091CD02C9121AC02E
:101830004091D4025091D50217962D913C91189762
:101840004217530779F4E1100DC016968C93C80126
:101850008EDC89E0F801ADECB2E001900D928A9542
:10186000E1F74CCFC801D5DC882309F449CFEE203D
:1018700009F446CF8091D3028032B0F02091CD029E
:101880003091CE023B872A879D868C869091D1022B
:101890009E871F86888B8091D4029091D5029A8B67
:1018A000898BCE010A9663DC89E0F801ADECB2E0E9
:1018B00001900D928A95E1F770DE57DE23CF90916B
:1018C000D302292F207F81F4682D9E8A8D8AA6015C
:1018D0007E899E2DAEDC8DEC92E049DC89E0F5013D
:1018E00011928A95E9F76BCF882309F451CF809143
:1018F000CE028D111BC08091CD02C81217C040913D
:10190000D4025091D50217962D913C911897421709
:10191000530761F4E1100AC016969C93C80127DCB6
:1019200089E0F50111928A95E9F732CFC80171DC9F
:10193000882309F4E5CEEE2009F4E2CE8091D302AB
:10194000803208F4B1CF2091CD023091CE023A839B
:1019500029839C828B829091D1029D831E828F83EA
:101960008091D4029091D50299878887CE01019603
:101970009ACF2417350708F046C0882309F4C2CE51
:10198000FE2CEE2009F4BCCE8091CE028D112FC02A
:101990008091CD02C8122BC04091D4025091D50243
:1019A00017968D919C9118974817590701F52A3A77
:1019B0003105A0F49091D30290FD10C0907F71F09A
:1019C0008091D30216968C931697903F09F43FCFDF
:1019D000982F907F905F8F70892B37CF89E0F80127
:1019E000ADECB2E001900D928A95E1F7D1CEC8013D
:1019F00010DC811159CF8091D30281608093D30292
:101A0000C801B5DBC5CE682D9E8A8D8AA6017E8968
:101A10009E2D0FDC89E0F50111928A95E9F76ECED3
:101A2000A2E1B0E0E6E1FDE00C94D8290A871B872B
:101A30002C873D874E875F87688B798B8A8BCE0199
:101A40000A962BDE8823C1F04E85442349F00A858F
:101A50001B852C853D855F85688979898A89F3DBBB
:101A600089E0F82E809183029091840289133BC013
:101A70006296E5E00C94F42989E0FE013A96DE01D5
:101A8000119601900D928A95E1F78E85882341F396
:101A90002091840230E0C901019687709927409116
:101AA00083024817190691F099E0929FD001939F05
:101AB000B00D1124AB57BD4FFE01319601900D9230
:101AC0009A95E1F78093840229DDCACF85DB1092D5
:101AD00084021092830289E0EDECF2E0DF011D92B6
:101AE0008A95E9F7BDCF8F9DC00111248B579D4F7B
:101AF000D4DD882309F4BCCFE0918302FE9EF0017F
:101B00001124EB57FD4F00811181228133814481E3
:101B1000558166817781808596DB8091830290E094
:101B2000019687709927809383029CCF8091FE0253
:101B300086958695869508958091FE028770089512
:101B40009091FE02977081E009F480E00895809101
:101B50002A03089590912A03892B80932A030895DC
:101B6000809590912A03982390932A0308951092C8
:101B70002A03089580912903089590912903892BC0
:101B80008093290308958095909129039823909339
:101B90002903089510922903089580910003089560
:101BA0000895FECF08959091FF02292F282329F050
:101BB000809589238093FF02F4CF08950895FECF86
:101BC000089590910003292F2823281721F0982B9E
:101BD00090930003F4CF089590910003292F2823B8
:101BE00029F08095892380930003E9CF089580919F
:101BF0000003882321F01092000380E0E0CF0895D5
:101C0000CF93C0912A0380912903C82B80910003B0
:101C1000882329F0C82B0E94591F8111E8DF8C2FDF
:101C2000CF910895CF93DF93C091A001D091A101EE
:101C3000E7DF8883C091A001D091A10148E050E086
:101C400066EF72E0CE010E94022A892B59F088E0EB
:101C5000FE01A6EFB2E001900D928A95E1F7CE0168
:101C60000E94F61EDF91CF910895CF93DF93C0912C
:101C70009E01D0919F01C4DF8983C0919E01D091C4
:101C80009F0140E250E066ED72E0CE010E94022A20
:101C9000892B59F080E2FE01A6EDB2E001900D9291
:101CA0008A95E1F7CE010E94011FDF91CF9108953F
:101CB0000E948A20813029F48091FB0387FF01C0B4
:101CC000D4CFB0CF0895FECF08959091FC0392FF3A
:101CD0000EC098E0899F90011124622B6093FE0250
:101CE0000EDB8091FE02869586958695ECCF07CB1C
:101CF0001092FE0280E0E7CF9091FE02809589234A
:101D00008093FE02282F277059F4891749F090918B
:101D1000FC0392FF05C0869586958695FEDAE8CF8E
:101D200008959091FC0392FB222720F9281759F07F
:101D300080FB92F99093FC038091FB039091FC034C
:101D400033D082E0D9CF08958091FC0382FB8827AD
:101D500080F991E08927E5CF81E0E3CF80E0E1CF12
:101D60006FEF7FEF90E080E00C944E2A90E080E0EF
:101D70000E94202A21E0853E9E4F09F020E0822F1C
:101D8000089582E090E00C94182A83E090E00E948D
:101D9000182A90E00895682F83E090E00C94342A8C
:101DA00084E090E00C94202ABC0184E090E00C9444
:101DB0004E2AAB01BC018FE090E00C94462AAB01A7
:101DC000BC0183E190E00C94462A60E070E0CB0116
:101DD000F6CF60E070E0CB01ECDFF7CFA8E0B0E039
:101DE000E4EFFEE00C94DB2965EE7EEF90E080E00E
:101DF0000E944E2A60E082E090E00E94342A81E056
:101E000090E09093820280938102C5DF60E074E1EC
:101E100084E090E00E944E2A60E086E090E00E941C
:101E2000342A60E087E090E00E94342A40E050E0ED
:101E3000BA0188E090E00E94462A60E083E290E0E8
:101E40000E94342A60E08CE090E00E94342A60E036
:101E50008DE090E00E94342A19821A821B821C8233
:101E60001D821E821F82188648E050E067E170E004
:101E7000CE0101960E94252A40E050E0BA018FE190
:101E800090E00E94462AA5DF2896E2E00C94F7290C
:101E9000A5CF0895682F8EE090E00C94342AA6E038
:101EA000B0E0E5E5FFE00C94D9290E9429218C01DE
:101EB00080912B0390912C038017910781F0198258
:101EC0001A820E942921682F49815A81792F80E046
:101ED00090E00E941B0610932C0300932B03269680
:101EE000E4E00C94F529E8D26093390370933A0347
:101EF00080933B0390933C036093350370933603C8
:101F00008093370390933803089508950895FDCF83
:101F100008950895FECF089581E0089585E792E140
:101F2000DBD6F4DFF4CF99C4089508950895FDDF5A
:101F3000FDCF1CDF811101C0ABDF23DF80933D03A8
:101F40002FDF9093FC038093FB03E9D61EDF8FD92C
:101F500080917F0290918002A3C90E94202187D2A4
:101F600081D4D9D3E6DF0E94FB050E94C51A87D42D
:101F7000D1CF73D4882329F00E94BF1E0E94D818A5
:101F8000A5C70895A6E0B0E0E8ECFFE00C94D229E4
:101F9000C3DF811108C083DFECDF0E9403062696B1
:101FA000EBE00C94EE29D6D38DE2A82E83E0B82E78
:101FB000750110E0F70101917F01812FB0D21F5F01
:101FC000183009F43DC00817A9F380913D0381FD45
:101FD000ACD2A9DFC82E10E099249394812F9FD210
:101FE000082FF50181915F01081729F1D02ED8261D
:101FF000F12CEE24E3948D2D8E21A9F0CC2099F0C4
:10200000F9821A830E9429219C838B839D8291E00F
:10201000802F8E2109F490E049815A816B817C8167
:102020008D810E941B06F394EE0CF6E0FF12E3CFC5
:10203000F501319700831F5F183081F654DFACCF74
:102040000813C3CFA8CF1F93CF93DF931FD1EC0109
:10205000C11580E5D807F0F5C11580E4D80708F070
:102060009AC0C03ED10520F5CD3CD10508F082C014
:10207000C83AD10578F4C53AD10508F073C0C1302B
:10208000D10519F1209709F1C430D105F0F4D0E061
:10209000C0E01BC0C33CD105D0F7C85AD0E0CC0F7C
:1020A000DD1FC55FDD4F0990D881C02DD4640DC000
:1020B000C11580E2D80708F0CCC0C11581E0D8076F
:1020C00008F05AC0C83ED10510F7CE01DF91CF917C
:1020D0001F910895C03682E5D80718F5C03482E50F
:1020E000D80708F068C0C03282E5D80708F05CC0A5
:1020F000C11582E5D80708F493C02C2F26952695A4
:1021000080E2289F900111248C2F8370C1E0D0E0E1
:1021100002C0CC0FDD1F8A95E2F7C22BD32BDD68FE
:10212000D4CFC03A82E5D80760F4C03882E5D8073A
:1021300008F456C0CF71D0E0DC2FCC27C46FD06A32
:10214000C4CFC03C82E5D80708F45FC0C03E82E53A
:10215000D80708F09CCFDC2FCC27CC27DF71C06FCD
:10216000D06AB3CFC55AD0E0CF5BDD4FC881D0E095
:10217000D064ABCFD065A9CF8D2F2AD1182FCE0137
:10218000992784D0C12FD0E0DC2FCC27CC27DF715A
:10219000C82BD92B9ACFCE01992778D0CC27DF70C6
:1021A000C82BD92BD06A91CFCF71D0E0DC2FCC27B0
:1021B000C16FD06A8ACF2C2F26952695277080E292
:1021C000289F900111248C2F8370C1E0D0E002C0C1
:1021D000CC0FDD1F8A95E2F7C22BD32BDC6875CFBD
:1021E0002C2F26952695277080E2289F9001112498
:1021F0008C2F8370C1E0D0E002C0CC0FDD1F8A9528
:10220000E2F7C22BD32BDA6860CF8C2F8F71E0D02E
:10221000C82FD0E0DC2FCC27CC27DF71D06255CF80
:102220008C2F8F71D5D055E0D695C7955A95E1F78B
:10223000CF70D0E0DC2FCC27282F30E084FF05C002
:1022400044E0220F331F4A95E1F7C22BD32BD0690C
:102250003CCF8D2F8F71BCD0182FCE01992716D06F
:10226000C12FD0E0DC2FCC27CC27DF71C82BD92B96
:10227000D5CF462F783028F4663018F4672F0C94A9
:10228000B20390E080E00895F4DFDDCE823891055E
:10229000B9F1B0F48133910509F47DC048F4893275
:1022A000910509F46DC08A32910509F47BC0089547
:1022B0008533910509F45FC08933910509F10895CB
:1022C000833E9105D9F138F4803E910529F1823E93
:1022D000910579F10895863E9105D9F1873E9105E2
:1022E00009F43EC0843E910541F52091FC0321FF95
:1022F00024C08091FB0384FD19C087EE90E008950F
:102300002091FB03237009F05AC02091FC0323FFA6
:1023100014C089E290E008952091FB0320FD38C0AD
:102320003091FC0330FF09C024FF43C090E080E0FF
:1023300008952091FB0322FDF7CF08952091FB0320
:1023400022FD3AC03091FC0330FD39C024FFF5CFA7
:10235000EDCF2091FB0323FFF0CF24FDE7CFCDCFBE
:102360002091FB0323FD2EC03091FC0331FFEECF03
:1023700084EE90E008952091FB0325FFDECFC9CFC6
:102380002091FB0325FD21C02091FC0323FFD5CF25
:1023900089E390E0D2CF2091FB0326FFCECF8AE2E3
:1023A00090E008952091FB0326FFC7CF81E390E0E2
:1023B000089583EE90E0089582EE90E0089580EE17
:1023C00090E0089586EE90E0089585E390E008950A
:1023D0009091FB0392FF10C041E0282F247124301C
:1023E00009F040E031E0282F2871283009F030E072
:1023F000431711F02CE0822793FF10C041E0282FF3
:102400002471243109F040E031E0282F287128316F
:1024100009F030E0431711F02CE082273091FC03E3
:1024200030FF10C051E0282F2171213009F050E019
:1024300041E0282F2871283009F040E0541711F0AE
:1024400029E0822731FF10C041E0282F217121317E
:1024500009F040E031E0282F2871283109F030E000
:10246000431711F029E0822794FD877E089510928A
:10247000FD031092FE031092FF03109200040895D2
:10248000CF92DF92EF92FF926B017C01E6D1811136
:102490000EC00E943521C61AD70AE80AF90AC0926E
:1024A000FD03D092FE03E092FF03F0920004FF9040
:1024B000EF90DF90CF9008950F931F93CED1882394
:1024C00029F00E9435211F910F9108950E94352116
:1024D0000091FD031091FE032091FF033091000451
:1024E000600F711F821F931FEECF80E00895CF937E
:1024F0009C01205E3245C1E02032310538F4FB01F9
:10250000C581C11103C08F710E94AA048C2FCF9185
:1025100008950895FECF08950895FECF0895E82FF9
:10252000F0E0E65FFB4F80810895089580EA8A9588
:10253000F1F7089500C00895F9CF08950895FECFEA
:102540000895EF92FF921F93CF93DF9300D000D0B6
:10255000CDB7DEB782D1182F60911204882309F419
:1025600045C019821A821B821C82862F90E09E0130
:102570002F5F3F4F7901B901865F9B4F8CD1882334
:10258000E1F08091010490E044E050E0B701865F03
:102590009B4F0E94022A21E020933E03892BC1F425
:1025A00010E0BBDF812F0F900F900F900F90DF9105
:1025B000CF911F91FF90EF90089580913E03882363
:1025C00079F384E0F70111928A95E9F710923E03BE
:1025D000E0910104F0E0E65FFB4F89819A81AB81D5
:1025E000BC8180839183A283B383DBCF70E0665F7D
:1025F0007B4F8091010490E0865F9B4FD1D19FDF9C
:10260000D1CFF894E82FE295EF70F0E031A1282FB8
:102610002F7081E090E001C0880F2A95EAF7982F8B
:102620009095932391A392A1892B82A378940895E6
:10263000CF93DF9384E9E5DF86E6E3DF87E9E1DF37
:1026400086ECDFDFC4E4D2E089918F3F09F0D9DF67
:1026500082E0CA34D807C1F7DF91CF910895B0E086
:10266000A0E0E5E3F3E10C94D529EC01D62E062F8A
:1026700010E0C801865B9D4F7C01FC0180818F3F8B
:1026800009F442C0F894E82FE295EF70F0E091A1D0
:102690008F7021E030E001C0220F8A95EAF7892F80
:1026A000822B81A382A12095282322A3789442DF44
:1026B000E4E4F2E04AE452E031E0C12C21912F3F02
:1026C00041F1A22FA295AF70B0E090968C9190E06E
:1026D0002F7002C0959587952A95E2F780FD19C065
:1026E000832FC82A330F4E175F0741F7F701808108
:1026F0008F3F09F086DF61E0C11001C060E08D2DE1
:102700001BDFC00FD11FC882CDB7DEB7E8E00C9445
:10271000F12980E0E6CF8091A2018091A20194E0AE
:10272000811190E09093120484E0891B809301044E
:102730007FDF88E0EAE0F4E0DF01982F1D929A95B0
:10274000E9F7E2E0F4E0DF011D928A95E9F784E021
:102750003CD0E0CEA8E0B0E0E0EBF3E10C94D82967
:102760008E010F5F1F4F88E0F80111928A95E9F7FB
:10277000F12C6F2DC80173DFF394F4E0FF12F9CF51
:1027800048E050E0B80182E094E00E94022A21E093
:10279000009709F420E0892B41F088E0F801A2E0DD
:1027A000B4E001900D928A95E1F76091120470E017
:1027B000665F7B4F44E082E094E008D0182FC1DED2
:1027C000812B2896E5E00C94F4290895B0E0A0E070
:1027D000ECEEF3E10C94D5296C017B01042FC22FA0
:1027E000222379F081E0809341030E942921909374
:1027F000400380933F0380E0CDB7DEB7E8E00C9460
:10280000F129D0914103DD23B1F380913F039091F1
:1028100040030E944121059770F310E0A801B60122
:10282000C7010E94022A892B31F0A801B601C70115
:102830000E940F2ACD2F109241038C2FDDCFCF9312
:102840000E949629C82F811102C00E9492298C2FC4
:10285000CF91089580914503089580914403089590
:10286000FCCF0895ECDF80934403FADF80934503A7
:10287000F1DF8093A201F1DF811142C00895EDDF05
:10288000811101C040C0089581E0909146039A30C3
:1028900008F080E008950F931F93CF93DF93EC012E
:1028A0008B01809146038A30B0F4B801CE0176D016
:1028B000C82F811122C0809146038F3FB9F40E9436
:1028C000292190934303809342038C2FDF91CF9172
:1028D0001F910F91089580914203909143030E94AC
:1028E0004121843F914008F7C0E0EFCF8F5F809394
:1028F00046038A3020F7C1E0E8CF10924603E5CFC7
:102900000C94022208950C9405220895B0E0A0E0F2
:10291000ECE8F4E10C94D6297901C82F880FDD0B7F
:1029200041155105A9F0FE0193E0EE0FFF1F9A95A6
:10293000E1F7ED55FE4F81819281895B9C4F2081AB
:1029400030E04217530708F49A01A9010E940F2AA8
:10295000CE010E94E522D82E8823D1F00115110561
:10296000B9F083E0CC0FDD1F8A95E1F7FE01ED554C
:10297000FE4F438150E00417150708F4A801CD5518
:10298000DE4F6C817D81695B7C4FC7010E940F2AFD
:102990008D2DCDB7DEB7E7E00C94F2292FC1089555
:1029A0004BC10895A4E0B0E0E8EDF4E10C94D9291E
:1029B0006091640370916503809166039091670351
:1029C0000E94502111E0643671058105910508F1DE
:1029D00073DD6E5F7F4F8F4F9F4F69837A838B8349
:1029E0009C8310E000E030E020E044E050E0BE01D5
:1029F0006F5F7F4F83E08ADF182F882351F00E949A
:102A0000352160936403709365038093660390930C
:102A10006703812F2496E4E00C94F529B0E0A0E050
:102A2000E4E1F5E10C94D3297C015B016A012CDF20
:102A300001E010E0882311F00AE010E0C1E0D0E0EE
:102A4000B501C701F6010995811104C021960C1743
:102A50001D072CF4CDB7DEB7EAE00C94EF29CC9F2C
:102A60009001CD9F300D300D112490E080E045E3C2
:102A70004A95F1F70000019682179307C1F7E0CF5E
:102A80000F931F93CF93DF93EC0160914E027091EF
:102A90004F026B5F7F4F44E050E00E94022A8C019E
:102AA0006091600370916103809162039091630370
:102AB0000E945021643671058105910510F4012BA7
:102AC000E1F010E000E030E020E044E050E0BE0142
:102AD00082E01CDFC82F882351F00E9435216093CB
:102AE00060037093610380936203909363038C2F60
:102AF000DF91CF911F910F910895C1E0F8CFA5E02C
:102B0000B0E0E5E8F5E10C94D3295B01E0904E02DA
:102B1000F0904F0201E010E09E012B5F3F4F50E02C
:102B200040E070E060E080E0F1DE182F882309F4D7
:102B300048C067018FEFC81AD80A60915C03709192
:102B40005D0380915E0390915F030E945021643683
:102B500071058105910570F104E010E09E012F5F81
:102B60003F4F50E040E070E060E081E0CFDEF82EC3
:102B700064E070E0C6010AD511E09D81981310E071
:102B80001F2151F10E94352160935C0370935D0316
:102B900080935E0390935F0389819A81AB81BC81AE
:102BA0008093580390935903A0935A03B0935B0307
:102BB00011E012C064E070E0C601E8D49D81891381
:102BC000CBCFF70181819281A381B48189839A83DC
:102BD000AB83BC831111E0CF8091580390915903CE
:102BE000A0915A03B0915B03F50180839183A28386
:102BF000B383812F2596EAE00C94EF290F931F935E
:102C0000CF93DF93EC018B014FE755E107DF811193
:102C100006C080E0DF91CF911F910F91089540E4AD
:102C200055E1B801CE01FADE882399F342ED54E173
:102C3000B801CE01F3DEEECF0F931F93CF93DF9356
:102C40008C01C0914E02D0914F02CE01019624E03A
:102C5000FB01DC0101900D922A95E1F764E070E040
:102C600095D48883FE01359684E0D80101900D92B9
:102C70008A95E1F769857A858B859C850091540357
:102C80001091550320915603309157036017710737
:102C90008207930749F06093540370935503809320
:102CA000560390935703ECDBDF91CF911F910F9167
:102CB000089568C908950E94C3200E9479242ED9DE
:102CC0000E9491244AD90E949A240E949D24F1DFF7
:102CD0000E94B3242CD9F9CF9093510280935002D3
:102CE00008953EC80895B6DD811105C084E017DC63
:102CF00086958170089580E0FACF2CDD2FEF86E76E
:102D000091E0215080409040E1F700C0000022DDBA
:102D1000EADF882319F0E5DF0C9490210895EDCFC8
:102D200008958832910548F48E319105A0F40497F6
:102D300050F082E00E94BD0D0EC08D329105C9F3A6
:102D400020F48A9741F080E008958C34910519F0C1
:102D50008D329240C1F781E00895EF92FF920F9378
:102D60001F93CF93DF93EC017B01C3378CE7D80728
:102D700061F4FB011581112311F0B9D010E0812F0E
:102D8000CDB7DEB7E6E00C94F3290E94A70D082F1B
:102D90000E94CD0D082B7CD0811107C0023211F0AA
:102DA00011E0EDCF79D0F9D6FBCF69D0F7011581CD
:102DB0001123B1F30D7909F054C0C034F2E5DF07F7
:102DC00020F5C11582E5D807D0F6C115E0E4DE078D
:102DD00090F4C115F0E2DF07B0F5C63ED10579F2F7
:102DE0000E94CA0DCE019DDFC82F8823D1F10E9419
:102DF000580E1C2FC4CFC11580E5D80788F7F701FE
:102E00008681807F69F2DD27EBCFC03EE2E5DE07F9
:102E1000A0F4C03CF2E5DF0708F0B1CFC03682E590
:102E2000D807F0F2C03AE2E5DE0708F4A8CFC43BC9
:102E3000F2E5DF0709F4A3CFD3CFCE0187579C4734
:102E4000029770F69CCFF7018681807FE1F68D2F87
:102E50008F71823189F038F4C1EED0E0823009F40C
:102E6000BFCF28D08CCF843109F489CFC6EED2E110
:102E7000863109F4B5CFF5CFC5EED0E0B1CF0E94D1
:102E8000292188579C4E9093690380936803089585
:102E900080916A030895089580916A03811109C0A1
:102EA0000E94B70D0E94F70DEADF81E080936A036C
:102EB000F2CF089580916A03882339F082E20E945C
:102EC000DA0810926A0380E0E6CF089580916A03E1
:102ED000882361F00E9429212091680330916903C1
:102EE000821B930B8F3F9F4708F4E4CF0895809196
:102EF0006A03882309F0DECFCFCF0895EF92FF92C7
:102F00000F931F93CF93DF938091DE03882361F0AB
:102F1000E0916B038DE0F82E8091DE03E81748F016
:102F20001092DE0310926B03CDB7DEB7E6E00C948F
:102F3000F329EE24E394EE0EE0926B03CE2FD0E063
:102F4000EF9DF0011124EA58FC4F84818823A9F0F9
:102F500087819085892B99F4818592858F3F980789
:102F600071F061E0CADFFC9EF001FD9EF00D1124BE
:102F7000EA58FC4F14820E94CA0DEE2DCDCF00817D
:102F800011812281338144815581668177818085D9
:102F90000E94100DE8CF0895CF93DF931092E003C5
:102FA0001092DF03D0E0C0E00E94B403C817D90735
:102FB00018F0DF91CF910895CE010E94C703FC0164
:102FC0008581811102C0148216822196EDCF1F9354
:102FD000CF93DF9310917403209175032117D1F0E3
:102FE000C12FD0E0FE01EE0FFF1FE459FC4F4081DE
:102FF00051814817590791F40E94C70321E0FC0151
:10300000248380917403811305C02196C370DD274A
:10301000C0937403DF91CF911F91089521961C2FC7
:103020001370DCCFB0E0A0E0E8E1F8E10C94D02927
:10303000EB012C81211152C07090DE03A6E7B3E0B2
:1030400030E020E0812C61E070E0271508F045C0F9
:103050001B96CD90DC901C97A880B9804FEF5FEF56
:10306000912CE92CF12CF701EE0FFF1FEA0DFB1D4F
:1030700005911491C016D10609F4A7010115110597
:1030800011F09394EECF4F3F540781F1FB0102C042
:10309000EE0FFF1F4A95E2F78E2AAB01092C02C002
:1030A000440F551F0A94E2F7415051098416150642
:1030B000D1F44A815B816DE0629FF001639FF00D66
:1030C0001124EA58FC4F5087478324E02483108260
:1030D00011829287818721E02D8379DFCDB7DEB71A
:1030E000EDE00C94EC2914961C9214972F5F3F4F3F
:1030F0001D96ABCF0F931F93CF93DF93C0917403B3
:10310000809175038C1307C0F9DE46DFDF91CF9104
:103110001F910F910895D0E08E01000F111F0459E7
:103120001C4FF801808191810E94C703BC01F80106
:103130008081918177DF2196C370E2CFEF92FF9279
:103140001F93CF93DF93FC012081318110E040E099
:1031500050E0E52FF0E0EE0FFF1FE20FF31FA59107
:10316000B4911097B9F0FB01C081D18140E005C056
:10317000AE15BF0509F411E04F5FE42FF0E0EE0F4C
:10318000FF1FEC0FFD1FE590F490E114F10481F7AF
:103190005F5FDFCF112349F0451708F4CB01DF91C2
:1031A000CF911F91FF90EF90089590E080E0F7CFCE
:1031B0008091C301882329F18091E1039091E2037A
:1031C0000097F9F00E9441212091DF033091E00344
:1031D00028173907B0F490917403809175039817FC
:1031E00051F088DF1092E0031092DF031092E203A7
:1031F0001092E103089582DE1092E2031092E1033F
:10320000CBCE08951092E2031092E1031092C30115
:103210008091750380937403BFDE70CE8091C301EB
:10322000882309F0EFCF81E08093C3010895ACE0DB
:10323000B0E0EDE1F9E10C94CB294C016B01803554
:103240002CE7920761F4FB0115811123D9F081E08D
:103250008093C301812F2C96E2E10C94E7298135FC
:10326000FCE79F0731F4FB011581112359F0CADFF8
:10327000F1CF82359C4731F4FB011581112311F008
:10328000CDDFE8CF20917F023091800280918102D2
:1032900090918202822B932B0E94C705182F7BDE10
:1032A000181731F0F601608171810E9439114C01CB
:1032B000B12CA12C1C8666246394712CCE0101963E
:1032C0009B878A870E94B403A816B906B8F1F60155
:1032D0008581882309F44AC1FC85FF2309F446C18E
:1032E000B8D79093E2038093E1038091DE038830A6
:1032F00008F591E0980F9093DE0399E0F601DE0166
:10330000119601900D929A95E1F72DE0829FC001F0
:1033100011248A589C4F29E0FE013196DC0101906E
:103320000D922A95E1F72FEF3FEFFC0132872187BD
:10333000948683861C85109511708CCFC5010E94E0
:10334000C7037C01FC014081518144244A94542CE0
:1033500060E0262F30E0F901EE0FFF1FE40FF51FAC
:10336000859194918816990609F42901892B11F009
:103370006F5FEFCF80E0FFEF4F165F0609F445C0A7
:10338000F70144813090C301832D411180E0F82F73
:10339000F1703F2EF70125808681F60195819923F2
:1033A00009F483C0332009F480C0211015C09301B3
:1033B000042C01C0220F0A94EAF7822BF7018683BE
:1033C0008091DF039091E003C29730F482E390E0B4
:1033D0009093E0038093DF03C30102C0880F991F1D
:1033E0006A95E2F70197F70126812817190681F5FA
:1033F0008091E1039091E203009771F042D7C39767
:1034000058F021E0F701248381E0FC85F82BFC874C
:103410002FEFA21AB20A56CF2090740390E080E0FA
:1034200020917503221216C0E816F90689F0422C85
:10343000512CF201EE0FFF1FE459FC4FB182A08224
:103440002FEF421A520A83E0482255244092750316
:10345000832DDBCF422C512CF201EE0FFF1FE459DC
:10346000FC4F808191810E94C7038C01B70166DE09
:103470000097A1F021E0FC012483E816F90641F34E
:103480002091740322120AC00817190739F4920117
:103490002F5F3F4F2370332720937403EFEF4E1AB3
:1034A0005E0AF42DF3702F2EBBCF90E021101EC0CA
:1034B000930102C0220F331F6A95E2F721503109B0
:1034C0002817390729F4442309F44EC0C5017FDDCC
:1034D000C301042C01C0880F0A94EAF7982F909535
:1034E000F701868189238683322CB2CFAC01042C6C
:1034F00002C0559547950A94E2F7BA0161707727A3
:103500009C012150310982239323892B49F5672B94
:1035100039F1F70182819381892BF1F0EA85FB85EE
:1035200027E011922A95E9F794D6282F8B839C8364
:1035300084E08D83F70182819381782F8887998732
:1035400009811A813C8144E05E816F81892F0E944C
:10355000100DF7011582BCCF60E0C501CEDCF9CFBC
:10356000F42FF1702F2EB4CF232CB2CF909174038F
:1035700080917503981711F0BDDDDCCEBFDC109291
:10358000E2031092E10308DDD5CE0895FC01680F37
:10359000791F8FEF91E36E177F0709F4089521914A
:1035A000822728E030E087FF06C0880F8927215056
:1035B0003109C9F7F0CF880FFACF9C01FB01858153
:1035C000882359F12137FCE73F07B9F022379CE700
:1035D0003907E9F020373C4709F560E280919C010A
:1035E00090919D010E94A705FC0101962081203247
:1035F000D9F3CF0126D280E0089580919C0190916B
:103600009D01059690939D0180939C01F4CF80913C
:103610009C0190919D010597F5CF81E00895CF938E
:10362000DF93EB0186319C4701F50E94A70D9D8138
:10363000992391F08A7A91E009F490E09093E30362
:10364000811108C089E2E1D40E94580E80E0DF9128
:10365000CF91089585E3F7CF8091E303811103C0F3
:1036600089E2EAD4F1CF85E3FCCF81E0F0CFCF93BC
:10367000DF93EC01FB018581882309F4D2C09E0110
:1036800030572332310508F0B2C00E94D00E90931B
:10369000FC038093FB03FE01E150F047E232F105A9
:1036A00020F4E059F54D0C94C5298091FB0381600D
:1036B0008093FB0393C08091FC0388608093FC039C
:1036C0008DC08091FB038260F3CF8091FB03846007
:1036D000EFCF8091FB038860EBCF8091FC0381608A
:1036E000EDCF8091FC038260E9CF8091FB03806184
:1036F000DFCF8091FB038062DBCF8091FB0380648E
:10370000D7CF0E94EC088091FB038068D1CF8091D5
:10371000FB038C60CDCF8091FC038360CFCF809181
:10372000FB038E7FC5CF8091FC03877FC7CF80913D
:10373000FB038D7FBDCF8091FB038B7FB9CF809141
:10374000FB03877FB5CF8091FC038E7FB7CF80913D
:10375000FC038D7FB3CF8091FB038F7EA9CF809137
:10376000FB038F7DA5CF8091FB038F7BA1CF0E94B0
:10377000EC088091FB038F779BCF8091FB03837FC5
:1037800097CF8091FC038C7F99CF8091FB0382FBC4
:10379000992790F921E0922790FB82F990FB83F919
:1037A00087CF8091FC03982F909591708E7F892B05
:1037B00090FB81F983CF9091FB03892F8F7B96FF3C
:1037C000806476CF0E94EC089091FB03892F97FBD1
:1037D00087F980586DCF81E00E944A0F8091FB03EA
:1037E0009091FC030E94D40E0E94EC0880E0DF91CF
:1037F000CF91089580E0F0CF9091FB03892F8F7EC9
:1038000094FF806155CF9091FB03892F8E7F90FFAD
:1038100081604ECF9091FC03892F877F93FF886052
:103820004DCF81E0E4CFB0E0A0E0E9E1FCE10C9411
:10383000D429E82FF0E0E856FD4FB490282F2695C4
:103840002695269530E0F901E85CFC4F04918770DD
:1038500010E0082E02C0159507950A94E2F7017052
:103860001127F901E85DFC4FE490F12C082E02C00D
:10387000F594E7940A94E2F791E0E922FF24F90134
:10388000E85EFC4FC491D0E002C0D595C7958A95FB
:10389000E2F7C170DD27C62ED12C0115110549F5BF
:1038A000E114F10431F086EE0E945406C60100973F
:1038B00071F5B6018B2D0E94B706C601009779F508
:1038C000E114F104A1F50115110531F081EE0E941A
:1038D0009106C6010097C9F5CD2B31F08CE20E940C
:1038E000CD06C114D104C9F5CDB7DEB7E9E00C941B
:1038F000F02981EE0E945406C601009789F2EFE993
:10390000FFE03197F1F700C000000197F6CFEFE933
:10391000FFE03197F1F700C000000197C8CFEFE951
:10392000FFE03197F1F700C000000197C7CF86EEA6
:103930000E949106C601009731F2EFE9FFE031974E
:10394000F1F700C000000197F6CFEFE9FFE03197F3
:10395000F1F700C000000197BDCF8FE99FE001970C
:10396000F1F700C0000091E0C91AD108BACFEF9278
:10397000FF920F931F93CF93DF93EC01162F0AE072
:103980008881882309F458C0813009F052C08981A8
:10399000813071F47E0182E0E80EF11C8A810E9480
:1039A000CD06E701812F90E00097D9F52196E8CF69
:1039B000823041F47E01E2E0EE0EF11C8A810E9429
:1039C0005406EFCF833041F47E01F2E0EF0EF11C9C
:1039D0008A810E949106E5CF843011F02196E2CFD2
:1039E0002A81229690E080E0AE014F5F5F4F205326
:1039F000330B2A30310550F00097A1F2EFE9FFE0D8
:103A00003197F1F700C000000197F6CF089FB00191
:103A1000099F700D1124C901860F971F2981EA01A2
:103A2000E3CFEFE9FFE03197F1F700C00000019725
:103A3000BBCF612FF8DEBACFCDB7DEB7E6E00C948E
:103A4000F32960E094CF0F931F93CF93DF93C42F9C
:103A5000D22FFC0185818823C1F04093E603F9D37E
:103A60009093E5038093E40380E28C0F883040F468
:103A7000C77081E001C0880FCA95EAF70E94D4069A
:103A8000DF91CF911F910F9108951091E6031413C8
:103A900035C08091E4039091E503F3D320919C011C
:103AA00030919D018217930748F5C0E2CD0F1D1795
:103AB000B9F080E2810F883040F4177081E001C0D6
:103AC000880F1A95EAF70E94D906C83048F481E0B9
:103AD0009D2F977001C0880F9A95EAF70E94D4062F
:103AE000802F0E94CD06C83058F6D77081E001C003
:103AF000880FDA95EAF70E94D906C2CF80E28C0FD0
:103B0000883008F0BDCFC77081E001C0880FCA952A
:103B1000EAF7F1CF0F93DB0188519C47873091057D
:103B200098F5FC01EE56F54D0C94C52906E221EE00
:103B300041EE6AE17CE7CD0186DF80E00F910895D8
:103B400007E225EE45EE6BE17CE7F5CF06E221EEDC
:103B500040EE68E17CE7EFCF07E225EE44EE69E155
:103B60007CE7E9CF06E221EE42EE6CE17CE7E3CFB1
:103B700007E225EE46EE6DE17CE7DDCF08E221E0CD
:103B800045EE6EE17CE7D7CF15968C91882319F02E
:103B90001092E603D3CF81E0D1CF1092E6030895CF
:103BA0004115510511F0FA0109950895CF93DF935E
:103BB000EC014A855B856E857F85F2DF8B810E94F3
:103BC000C30D8C810E94B00D0E94580E86E0FE014C
:103BD00011928A95E9F7DF91CF910895CF93DF9302
:103BE000EC018D8181FD10C082608D838B810E94EC
:103BF000BD0D8C810E94AA0D0E94580E48855985E2
:103C00006E857F85CE01CCDF1092EA031092E90326
:103C10008D8180FD02C0CE01C9DFDF91CF91089573
:103C2000CF93DF93EC018A81823041F4FB018281E2
:103C300093810E9416048D8182608D83DF91CF91E4
:103C40000895FB01808191810C941604FC0182810E
:103C5000813031F4FB01808191810C942A04089514
:103C60008230E9F7FB0182819381F7CF0F931F9395
:103C7000CF938C01FB01C581CC23A9F08091E9038E
:103C80009091EA030097A1F08017910789F0992796
:103C90000E94DA03FC0125812460258311830083BF
:103CA0009DDF0E94CA0D8C2FCF911F910F91089517
:103CB000C0E0F9CFEF92FF920F931F93CF93DF9362
:103CC0007C018B0197558F3F910519F010F011E0A1
:103CD00036C00E94C903970133272817390708F017
:103CE0004CC0C9010E94DA03EC01F80115818D81F5
:103CF00010FB80F98D83112341F1ABD29093E8033F
:103D00008093E7038A818F5F8A830E94A70D8B834C
:103D10000E94BA0D9B81892B8B830E94CD0D8C83D1
:103D20004E815F816E857F85CE013ADF8D8181FF77
:103D300002C0F12CE12CF092EA03E092E903812F1A
:103D4000CDB7DEB7E6E00C94F3294C855D856E8532
:103D50007F85CE0125DF8D8181FFB9CFCE0126DFA2
:103D60008091E9039091EA038E159F0509F0AFCF8A
:103D70001092EA031092E903AACF10E0E0CF8091FD
:103D8000E9039091EA03892BB9F08091E7039091C0
:103D9000E80377D220919C0130919D0128173907C3
:103DA00058F48091E9039091EA0399270E94DA037D
:103DB000FC01258122FF12CF08959093F103809397
:103DC000F00308950E942D14811103C08091EB032C
:103DD0000895E091F003F091F103309729F00190FC
:103DE000F081E02D0995089580E00895E091F003B9
:103DF000F091F103309721F00280F381E02D0995D5
:103E00000895E091F003F091F103309739F026E046
:103E1000DC012C930480F581E02D09950895A3E041
:103E2000B0E0E5E1FFE10C94DB292091EE03309155
:103E3000EF0328173907A1F09093EF038093EE0367
:103E4000E091F003F091F103309751F023E02983E2
:103E50009B838A830084F185E02DCE01019609952C
:103E60002396E2E00C94F729A3E0B0E0EAE3FFE157
:103E70000C94DB292091EC033091ED0328173907CE
:103E8000A1F09093ED038093EC03E091F003F091A7
:103E9000F103309751F024E029839B838A830084C7
:103EA000F185E02DCE01019609952396E2E00C9470
:103EB000F729CF93DF93C091A001D091A101229661
:103EC00029D1813081F48091FB0387FF0CC0C09120
:103ED0009E01D0919F0122969EE180E0915028F4AE
:103EE000DF91CF91089596E0F8CF29912223B1F385
:103EF0008F5FF4CFCF93C82F811102C080E023C021
:103F000009D1813011F58091FB0387FF1EC0EC2F92
:103F1000E695E695E695EE3188F780919E019091C1
:103F20009F01E80FF92FF11D228130E0C77081E079
:103F300090E002C0880F991FCA95E2F72823392321
:103F400081E0232BD9F2CF9108958091A001909127
:103F5000A101FC013296089621912C1721F0E81757
:103F6000F907D1F7CBCF81E0EECF9C01FC0132966F
:103F70009FEF80E04191461751F09F3F19F44111A6
:103F800001C0982F8F5F8630A9F79F3F09F40895ED
:103F9000290F311D97FD3A95F90162830895FC01BF
:103FA000329608962191261303C0DF0111971C92C7
:103FB000E817F907B9F70895E62FE695E695E6952F
:103FC000EE3168F4E80FF92FF11D677021E030E061
:103FD00001C0220F6A95EAF78281822B82830895BD
:103FE000E62FE695E695E695EE3170F4E80FF92FA9
:103FF000F11D677021E030E001C0220F6A95EAF7F9
:1040000020958281282322830895CF93C82F82D0C0
:104010006C2F813059F48091FB0387FF07C080919A
:104020009E0190919F01C8DFCF9108958091A001DA
:104030009091A1019ADFF8CFCF93C82F6BD06C2F4E
:10404000813059F48091FB0387FF07C080919E0166
:1040500090919F01C5DFCF9108958091A00190912B
:10406000A1019DDFF8CF56D0813079F48091FB0318
:1040700087FF0BC0E0919E01F0919F0132968EE187
:10408000DF011D928A95E9F70895E091A001F09172
:10409000A101329686E0F4CF0895FECF08958111F4
:1040A0000CC081E08093C7016091C4017091C5018B
:1040B0008091C6019091C701F0CF82E0F3CF83E0F9
:1040C0008093C7016091C4017091C5018091C601C0
:1040D0009091C701E2CFE3CF089581E08093C701BB
:1040E0006091C4017091C5018091C6019091C70192
:1040F000D4CFF3CF089591E0811101C090E0909367
:10410000C6016091C4017091C5018091C601909172
:10411000C701C3CF8091C60108958093C501609106
:10412000C4017091C5018091C6019091C701B5CFBE
:104130008091C50108958093C4016091C40170917C
:10414000C5018091C6019091C701A7CF8091C4019C
:10415000089508950895FECF089508950895F9CF1C
:104160000895CF93FADF0E94AA13F8DFC0E08C2FE6
:104170000E948F12811105C0CF5FC830C1F7CF9167
:10418000089581E0FCCF85B7806885BF85B78068DA
:1041900085BF08951F921FB61F9211248F939F937E
:1041A000AF93BF938091F203811113C080911304E8
:1041B00090911404A0911504B09116044196A11D8C
:1041C000B11D8093130490931404A0931504B0932D
:1041D0001604BF91AF919F918F911F901FBE1F90AA
:1041E000189580911B04843031F10E94490510928A
:1041F000F20388E190E020E40FB6F894A89580934C
:1042000060000FBE2093600083B7817F846083BF0E
:1042100083B7816083BF7894889583B78E7F83BF8F
:104220000FB6F894A8958091600088618093600033
:10423000109260000FBE08950E94EC080C944C058B
:1042400082E084BD93E095BD9AEF97BD80936E00A8
:1042500008952FB7F8948091130490911404A091BD
:104260001504B09116042FBF08952FB7F8946091EC
:1042700013047091140480911504909116042FBFBB
:1042800008959C014FB7F894809113049091140401
:10429000A0911504B09116044FBF821B930B089593
:1042A000CF92DF92EF92FF922FB7F894C090130451
:1042B000D0901404E0901504F09016042FBFA701CD
:1042C0009601261B370B480B590BCA01B901FF9009
:1042D000EF90DF90CF90089578941F921FB61F92B1
:1042E00011248F939F93AF93BF9380911304909168
:1042F0001404A0911504B09116040196A11DB11DDE
:104300008093130490931404A0931504B09316049F
:10431000BF91AF919F918F911F901FBE1F901895D5
:1043200087E797E7909301088093000888E19AE077
:104330000FB6F894A895809360000FBE909360002C
:10434000FFCF88E19AE00FB6F894A89580936000BB
:104350000FBE90936000FFCF8EE14A9B02C0815058
:10436000E1F74A9BFECF08955A9880E28A95F1F7CB
:104370005A9A0895FC013BE03A95F1F798E020E065
:1043800080E031E040E14A95F1F7880F4A9B02C096
:104390008160232742E04A95F1F7000040E14A9509
:1043A000F1F7915079F790E19A95F1F799B132E0F0
:1043B0003A95F1F7000040E14A95F1F792FB992711
:1043C00090F992272081920F90830895A1E0B0E0A8
:1043D000EBEEF1E2ECC719828C017C01E60EF11CD8
:1043E0000E151F0539F481E09981911180E0219625
:1043F000E6E0F9C7B1DFCE010196BCDFF801819399
:104400008F01EECF529A5A9A089552985A9AEA9A80
:10441000E9E6F0E080818F7C808308956150770B1E
:1044200091E001C0990F6A95EAF720E031E091111F
:1044300008C0222391F05A9A80E28A95F1F75A989F
:104440000895492F482339F05A9A232740E24A9584
:10445000F1F79695ECCF5A98F9CF5A98EDCFFF9295
:104460000F931F93CF93DF93EC018C01060F111D67
:10447000C017D10721F4CDB7DEB7E5E0B5C7F99095
:1044800073DF68E08F2DCADFF3CF1F920F920FB654
:104490000F9211240F931F932F933F934F935F938A
:1044A0006F937F938F939F93AF93BF93EF93FF93FC
:1044B000CF93DF930F92CDB7DEB719824DDFCE01D8
:1044C000019658DF082F069506950695282F229508
:1044D0002570902F9570290F922F93702695269511
:1044E000920F982797708981982B09F058C0053052
:1044F00008F055C080E18A95F1F75A9A529A82E005
:104500008A95F1F700C05A9888E0089F800111242D
:10451000D801AD55BE4F1696ED91FC911797309787
:10452000A9F060914E0270914F0214962D913C912A
:104530001597260F371F11968D919C911297680F32
:10454000791F13964C9113978C910995F801ED55AD
:10455000FE4F6381662349F020914E0230914F0255
:1045600084819581820F931F7ADFFEDE80E18A9538
:10457000F1F75A9852985A9A80E18A95F1F7F80122
:10458000ED55FE4F6081662349F020914E02309137
:104590004F0281819281820F931F18DFDDDE0F9021
:1045A000DF91CF91FF91EF91BF91AF919F918F914B
:1045B0007F916F915F914F913F912F911F910F913B
:1045C0000F900FBE0F901F9018950F931F93CF93CE
:1045D000DF93EC0105970CF049C0F894529A5A9871
:1045E00085E08A95F1F700009C2F969595708C2FA9
:1045F0008570980F892F83709695969523E0CC0F40
:10460000DD1F2A95E1F7980F8E01092BADDE00C062
:1046100068E0802F03DF80E18A95F1F752985A9A7B
:104620004A9B1DC087E090E04A991BC0FE01ED55F2
:10463000FE4F63816623F1F020914E0230914F02CC
:1046400084819581820F931FC1DE811113C0529A1C
:104650005A9A7894DF91CF911F910F91089500C0DD
:10466000DFCF019729F4529A5A9A789480E0F2CFDA
:1046700000C0DACF71DE80E28A95F1F75A98529A3B
:1046800080E18A95F1F7CD55DE4F6881662349F0C8
:1046900020914E0230914F0289819A81820F931F9F
:1046A000DEDE62DE789481E0D5CF08959B01BA0109
:1046B00090911B049430E1F48F708093E9009FEF98
:1046C0008091E800915085FD06C085ED8A95F1F74F
:1046D00000009111F5CF8091E80085FF09C050E0FE
:1046E00040E0C901B5D18091E8008E778093E80061
:1046F000089543E050E0BC0182E0D8CF40E250E0B2
:10470000BC0182E0D3CFCF93DF93EC0103DD48E01F
:1047100050E0BE0181E0CADF88E0FE01A3EFB3E014
:1047200001900D928A95E1F7DF91CF9108958091E4
:104730001A04811107C01AD371D38091E2008460FA
:104740008093E200089510921A040895C6DC81E077
:10475000D2CC6091170481E0611101C080E0AFCC40
:1047600090911B0481E0943009F080E0609117047F
:10477000B2CC42E061EC81E075D242E261EC82E0D1
:1047800071D290911B0481E0943009F080E0609137
:10479000170485CC80911D04833009F45EC030F489
:1047A0008130C1F1823009F494C008958A3009F44F
:1047B00083C08B3009F46BC0893009F04DC0809103
:1047C0001C04813209F048C080912004909121049A
:1047D000029708F041C08091E800877F8093E8004D
:1047E0008091E80082FF34C09091F3008091F20044
:1047F000029731F48091F100813011F0863019F484
:104800008091F1008ADC8091E8008B778093E8004A
:104810005DD222C080911C04813AF1F48091E800BD
:10482000877F8093E8008091200490912104892B58
:1048300059F468E083EF93E070E057D18091E8008D
:104840008B778093E800089560E090E080E0F4CFFB
:1048500080911B048111C4CF089580911C04813A7A
:10486000D9F78091200490912104892BA9F7809198
:10487000E800877F8093E8008091E80080FFFCCF0C
:1048800049DC8093F1008091E8008E77BFCF809162
:104890001C04813209F78091200490912104892B16
:1048A000D9F68091E800877F8093E8000FD280914D
:1048B0001E0421DC0C94EC0880911C04813261F60A
:1048C0008091E800877F8093E80000D280911F04E8
:1048D00032CC80911C04813A09F0BECF8091E8006F
:1048E000877F8093E8008091E80080FFFCCF2EDC7A
:1048F000C8CF84B7877F84BF0FB6F894A8958091FE
:104900006000886180936000109260000FBE80E8B4
:1049100090E00FB6F89480936100909361000FBE11
:10492000E8CB24D27BD2E2EEF0E080818460808309
:104930007894DEC488EC91E040CA80911B048530F5
:1049400029F480911B04853011F076CC089549DC60
:1049500008DC8823B1F380911904882391F362D095
:104960000E94EC08EECF08959A01409122045091E4
:10497000230400C0492F55274330510519F168F42D
:104980004130510509F444C04230510509F445C095
:1049900090E080E050E040E025C04132510549F10F
:1049A00042325105A9F784E490E046E254E06115F3
:1049B0007105C1F08DE690E049EB53E0613071057F
:1049C00089F0E6CF99278130910581F0009729F091
:1049D0000297F1F6E8E4F3E002C0E8E6F3E0849140
:1049E00090E0AF01F901518340830895E6E5F3E0DB
:1049F000F6CF89E090E04EE753E06115710591F341
:104A000089E090E047E953E06130710559F3C0CF88
:104A100082E190E047EA53E0E5CF8BE390E04CE69B
:104A200053E0E0CF80E189BD82E189BD09B400FE99
:104A3000FDCF8091D8008F7D8093D8008091E000D9
:104A400082608093E0008091E00081FDFCCF0895BA
:104A5000AF92BF92CF92DF92FF920F931F93CF93AB
:104A6000DF936C01EB018A0150D1F82E811123C034
:104A70000115110539F0F80180819181C81BD90B0E
:104A8000C80ED91EB12CA12C2097A9F08091E80066
:104A900085FD21C08091E8008E778093E8000115A4
:104AA0001105A1F0F80180819181A80EB91EB18293
:104AB000A08285E0F82E8F2DDF91CF911F910F916D
:104AC000FF90DF90CF90BF90AF9008951ED18823C4
:104AD000D9F2F82EF0CFF60181916F018093F100A9
:104AE0002197FFEFAF1ABF0ACFCFFC0180912204BC
:104AF0009091230486179707A0F06115710529F49A
:104B00009091E8009E779093E80090E06115710520
:104B100051F4911108C08091E80082FF34C080E018
:104B20000895BC01F2CF80911B048823C1F1853028
:104B3000C1F18091E80083FD30C08091E80082FDE2
:104B4000EACF8091E80080FFE1CF8091F3002091CF
:104B5000F200382F6115710519F02830310558F031
:104B600091E02830310509F090E02091E8002E779F
:104B70002093E800CBCF81918093F10061507109BF
:104B80002F5F3F4FE7CF80911B04882341F0853092
:104B900041F08091E80083FFBECF81E0089582E07C
:104BA000089583E00895FC018091220490912304EC
:104BB00086179707A0F06115710529F48091E80028
:104BC0008E778093E80090E06115710551F49111A2
:104BD00008C08091E80082FF35C080E00895BC01E4
:104BE000F2CF80911B048823C9F18530C9F18091EF
:104BF000E80083FD31C08091E80082FDEACF80911A
:104C0000E80080FFE1CF8091F3002091F200382F7F
:104C10006115710519F02830310558F091E0283000
:104C2000310509F090E08091E8008E778093E800EC
:104C3000CBCF84918093F1003196615071092F5F41
:104C40003F4FE6CF80911B04882341F0853041F02F
:104C50008091E80083FFBDCF81E0089582E0089550
:104C600083E00895982F973028F08F708093E900A3
:104C700081E008959093E900242F762F50E0981753
:104C800031F07091EC002091ED005091F00021FD89
:104C900002C09F5FE8CF3091EB003E7F3093EB0086
:104CA0003091ED003D7F3093ED003091EB003160AD
:104CB0003093EB007093EC002093ED005093F000E4
:104CC0002091EE0027FDE5CF80E0089580911C043F
:104CD00087FF13C08091E80082FF06C08091E80042
:104CE0008B778093E80004C080911B048111F2CF80
:104CF000089580911B048823D9F38091E80080FFF8
:104D0000F8CF8091E8008E77ECCF2091E4003091CD
:104D1000E50095E6A9012091EC00822F817020FF2B
:104D200006C08091E80080FF06C080E008952091D1
:104D3000E80022FD1AC080911B04882389F0853089
:104D400089F08091EB0085FD0FC02091E400309147
:104D5000E50042175307F9F29150E1F684E0089517
:104D600082E0089583E0089581E0089567D06ED0D1
:104D7000E0EEF0E0808181608083E8EDF0E080810A
:104D80008F77808319BCA7EDB0E08C918E7F8C93D8
:104D900080818F7E808310921A0408950F931F9351
:104DA000CF93DF934BD052D0C8EDD0E088818F777E
:104DB000888388818068888388818F7D888319BCF7
:104DC00010921B04109217041092190410921804E8
:104DD00000EE10E0F80180818B7F80838881816004
:104DE000888342E060E080E03DDFE1EEF0E080813A
:104DF0008E7F8083E2EEF0E080818160808380811D
:104E000088608083F80180818E7F808388818061C3
:104E10008883DF91CF911F910F910895E8EDF0E025
:104E200080818F7E8083E7EDF0E0808181608083E8
:104E300084E082BF81E080931A04B0CFE8EDF0E017
:104E400080818E7F80831092E20008951092DA00B4
:104E50001092E10008951F920F920FB60F92112445
:104E60002F933F934F935F936F937F938F939F9372
:104E7000AF93BF93EF93FF938091E10082FF0AC04D
:104E80008091E20082FF06C08091E1008B7F8093D9
:104E9000E1002DD28091DA0080FF18C08091D80007
:104EA00080FF14C08091DA008E7F8093DA008091B9
:104EB000D90080FF91C080E189BD82E189BD09B43C
:104EC00000FEFDCF81E080931B0431DC8091E10086
:104ED00080FF18C08091E20080FF14C08091E20042
:104EE0008E7F8093E2008091E20080618093E200F7
:104EF0008091D80080628093D80019BC85E08093AF
:104F00001B0427DC8091E10084FF2AC08091E2002D
:104F100084FF26C080E189BD82E189BD89B5982FD3
:104F2000917080FFFBCF8091D8008F7D8093D80057
:104F30008091E1008F7E8093E1008091E2008F7E7E
:104F40008093E2008091E20081608093E200809192
:104F50001704882309F445C084E080931B0400DC17
:104F60008091E10083FF27C08091E20083FF23C08E
:104F70008091E100877F8093E10082E080931B04B1
:104F8000109217048091E1008E7F8093E100809160
:104F9000E2008E7F8093E2008091E2008061809346
:104FA000E20042E060E080E05DDE8091F000886039
:104FB0008093F000CBDBFF91EF91BF91AF919F9178
:104FC0008F917F916F915F914F913F912F910F90B2
:104FD0000FBE0F901F90189519BC10921B04B3DBE5
:104FE00075CF8091E30087FD93E090931B04B7CFCA
:104FF0001F920F920FB60F9211242F933F934F934E
:105000005F936F937F938F939F93AF93BF93CF9350
:10501000DF93EF93FF93D091E900DF708091EC0074
:10502000C82FC17080FDC0E81092E9008091F000A7
:10503000877F8093F00078941ED01092E9008091D1
:10504000F00088608093F000CD2BCF70C093E90012
:10505000FF91EF91DF91CF91BF91AF919F918F9190
:105060007F916F915F914F913F912F910F900FBE64
:105070000F901F901895AAE2B0E0E0E4F8E29AC120
:105080008CE194E02091F100FC012193CF01F4E048
:1050900084329F07B9F77EDB8091E80083FF16C159
:1050A00080911C0490911D049A3008F00FC1E92FE3
:1050B000F0E0E756F54D69C1803899F0823809F083
:1050C00005C1809120048F70873008F0FFC0809365
:1050D000E9008091EB0085FB882780F91092E900B8
:1050E00006C08091180490911904911182609091EA
:1050F000E800977F9093E8008093F1001092F10010
:105100008091E8008E77DFC0882309F4CDC082301B
:1051100009F0DCC080911E048111D0C08091200470
:105120008F702FEF280F263008F0D0C08093E90051
:105130002091EB0020FFC2C0933031F48091EB004E
:1051400080628093EB00BAC09091EB0090619093E5
:10515000EB0021E030E001C0220F8A95EAF72093AE
:10516000EA001092EA008091EB008860EACF81119A
:10517000ADC010911E041F778091E3008078812BD1
:105180008093E3008091E800877F8093E8009EDDB4
:105190008091E80080FFFCCF8091E30080688093DD
:1051A000E30082E0111183E080931B048FC08058DC
:1051B000823008F08BC080911E0490911F048C3DBA
:1051C00023E0920799F583E08A838AE289834FB7C7
:1051D000F894DE01139620E03EE051E2E32FF0E088
:1051E00050935700E49120FF03C0E295EF703F5FBA
:1051F000EF708E2F90E0EA30B8F0C7968D939D93B4
:105200002F5F243159F74FBF8091E800877F80934B
:10521000E8006AE270E0CE01019667DC8091E80068
:105220008B778093E80052C0C096E8CF609120044D
:1052300070912104AE014F5F5F4F96DBBC01892B5B
:1052400009F444C09091E800977F9093E800898129
:105250009A81A9DCE3CF8038C9F58091E800877F87
:105260008093E800809117048093F10049CF811169
:105270002DC090911E04923048F58091E800877F00
:105280008093E8009093170421DD80911704882310
:1052900011F084E005C08091E30087FDFACF81E042
:1052A00080931B0466DA12C080911E04813071F471
:1052B00081E0933009F080E0809319041092E900B6
:1052C0008091E800877F8093E80000DD8091E8000E
:1052D00083FF0AC08091E800877F8093E800809177
:1052E000EB0080628093EB00AA96E3E07FC0089514
:1052F000CF9380911B04882399F0C091E900CF706F
:105300009091EC00892F817090FD80E8C82B10925D
:10531000E9008091E80083FDAEDECF70C093E90024
:10532000CF91089523DD10921B040895E8EDF0E07D
:105330008081806180838AE18A95F1F700C0809145
:10534000D90081700895A1E21A2EAA1BBB1BFD0192
:105350000DC0AA1FBB1FEE1FFF1FA217B307E40754
:10536000F50720F0A21BB30BE40BF50B661F771FAC
:10537000881F991F1A9469F760957095809590958C
:105380009B01AC01BD01CF010895EE0FFF1F0590F9
:10539000F491E02D09942F923F924F925F926F9279
:1053A0007F928F929F92AF92BF92CF92DF92EF92B5
:1053B000FF920F931F93CF93DF93CDB7DEB7CA1B36
:1053C000DB0B0FB6F894DEBF0FBECDBF09942A8861
:1053D000398848885F846E847D848C849B84AA8409
:1053E000B984C884DF80EE80FD800C811B81AA8196
:1053F000B981CE0FD11D0FB6F894DEBF0FBECDBF61
:10540000ED010895FB01DC0104C08D91019080192C
:1054100021F441505040C8F7881B990B0895FB01B7
:10542000DC0102C001900D9241505040D8F7089520
:10543000F999FECF92BD81BDF89A992780B508955C
:10544000A8E1B0E042E050E02FC0DC01A40FB51F9E
:105450004150504040F0CB01840F951F2E9105D054
:1054600041505040D8F70895262FF999FECF92BDAC
:1054700081BDF89A019700B4021639F01FBA20BD19
:105480000FB6F894FA9AF99A0FBE08950396272F4B
:10549000ECDFEADF252FE9DF242FE7CF0196272F66
:1054A000E4DFE2CFDC01CB01FC01F999FECF06C0BD
:1054B000F2BDE1BDF89A319600B40D9241505040D2
:1054C000B8F70895F894FFCF1C071C075E075E0726
:1054D000B707440744074407D3073C08480848086F
:1054E0008F1B031C971B611B651B9B1B691B9F1B51
:1054F000AB1B751BFC1B791BAF1B7D1BB31BDB1B85
:10550000811BB71BE21B871BBD1BC51B6D1BA31B90
:10551000711BA71B8B1BC11BD11BEB1BFA1B5B1B3E
:10552000931B0A1CA61DAC1D961DA01DB21DB81D07
:10553000BE1D5C288428662984286629B728D728B8
:0655400066292B29372922
:105546009202737C0000008C02737C000000000055
:1055560000000000101E211E261E000096010000FD
:1055660000000000101E211E261E000092010000F1
:1055760000000000101E211E261E00008E010000E5
:1055860000000000101E211E261E00008A010000D9
:1055960000000000101E211E261E000086010000CD
:1055A60000000000101E211E261E000082010000C1
:1055B60000000000101E211E261E00007E0138007D
:1055C60031003600300010002F0013003400380080
:1055D60038022E022E0035023500FF00AA00010314
:1055E600210301000000010000000000000004018A
:1055F600000000040500000000000004090000008F
:105606000000000100000100982083237E2355231B
:105616007923E200E900EA00B500B600B700CD0044
:105626008301CC008A019201940121022302240203
:105636002502260227022A02B300B4006F0070007A
:105646009F01CB019F02A002818283E200E900EA6A
:1056560000B500B600B700CD008301CC008A0192E8
:105666000194012102230224022502260227022A8E
:1056760002B300B4006F0070009F01CB019F02A02F
:1056860002818283F4F5F6F73133946697C64703B1
:00000001FF
