:100000002CC2000047C2000045C200000C94291A0F
:1000100041C200003FC200003DC200003BC20000E0
:1000200039C2000037C200000C9489210C9456227A
:100030000C94B41C2FC200002DC200002BC2000083
:1000400029C2000027C2000025C2000023C2000010
:1000500021C200000C94571D1DC200001BC20000ED
:1000600019C2000017C2000015C2000013C2000030
:1000700011C200000FC200000DC200000BC2000040
:1000800009C2000007C2000005C2000003C2000050
:1000900001C20000FFC10000FDC10000FBC1000063
:1000A000F9C10000F7C10000F5C1000000003400F4
:1000B0003600370013001C0000000421122408221F
:1000C00018280C000000330014000D000E001B0067
:1000D0000000000000002900417E2C0000000F00FD
:1000E000150006000A00090000001631113417320D
:1000F0000B38070000001D0019001A001000050051
:100100000000000000002A00427E280000001400C9
:100110001A00080015001700000004001600070070
:1001200009000A0000001D001B0006001900050060
:100130000000000000002900417E2C000000005754
:1001400012000C0018001C00000033000F000E000D
:100150000D000B00000038003700360010001100C1
:100160000000000000002A22427E28000000437E9A
:10017000447E457E467E2A0800002B21E200E100F5
:10018000E3002A040000477E487E497E4A7E4C04F4
:1001900000000000000000000000000000004F12FE
:1001A000521251125012501A00004F0052005100CA
:1001B0005000501800004F1452145114501450168F
:1001C0000000000000002A00407E2C0F00001E02EC
:1001D0001F02200221022202000059215A245B2220
:1001E0005C285D0000002F0230022D002E02350039
:1001F0000000000000002D022E0004520000270223
:10020000260225022402230200006231613460329A
:100210005F385E0000003100310230002F003800EE
:1002200000000000000000000000000000004B7E05
:100230000000220A210A210B0000000000004700F4
:100240004800190800005000510052004F000608F5
:100250000000000000002900417E2C000000AE00DC
:1002600000000000000000000000BB00A900AA0080
:10027000BC00A80000004F005200510050000000D8
:100280000000000000002A00427E2800000000005C
:10029000000000002A2B28000000000000000000E1
:1002A0000000000000000029000000002C1E342087
:1002B000212224342627252E362D3738271E1F20AD
:1002C0002122232425263333362E37381F040506F2
:1002D0000708090A0B0C0D0E0F1011121314151636
:1002E0001718191A1B1C1D2F3130232D3504050634
:1002F0000708090A0B0C0D0E0F1011121314151616
:100300001718191A1B1C1D2F3130354C0000000026
:1003100000000000000000000000000000000000DD
:1003200000000000000000000000000000000000CD
:100330007E0F00D4FFFFFFC7000000780C034300CE
:100340006F0072006E0065000000100366006F0011
:100350006F007300740061006E0000000403090464
:1003600009023B00020100A0FA0904000001030198
:100370000100092111010001224000070581030845
:10038000000109040100010300000009211101001E
:1003900001226D0007058203200001120100020006
:1003A0000000085346010001000102000105010997
:1003B00080A101850319012AB700150126B7009510
:1003C0000175108100C0050C0901A1018504190106
:1003D0002AA002150126A002950175108100C00512
:1003E000010906A1018506050719E029E715002581
:1003F000019508750181020507190029EF150025EF
:100400000195F07501810205081901290595057509
:10041000019102950175039101C005010906A10131
:10042000050719E029E715002501950875018102E6
:100430009501750881010507190029FF150026FFA0
:1004400000950675088100050819012905950575AF
:10045000019102950175039101C011241FBECFEFD8
:10046000DAE0DEBFCDBF11E0A0E0B1E0EAE1FAE4FE
:1004700002C005900D92A83BB107D9F722E0A8EB86
:10048000B1E001C01D92AE3FB207E1F70E94D8145F
:100490000C94C024B5CD8091BB01882321F010922B
:1004A000BB018AEA82D38091BA01882321F010929D
:1004B000BA0188E87AC30895CF9380549E47C1E07B
:1004C0008C30910520F5FC01EE53FB4DDB011596B8
:1004D000CC910C942324C11102C0C0E018C083E069
:1004E00090E0CAD58FEF5CD38CE2D6D26CD5F5CF35
:1004F000CC2381F084E0EAD5882311F084E007D68C
:1005000082E0E4D5C82F82E0C111E7CFF1D58C2F6E
:10051000CF910895C0DF82E0D9D58823F1F282E03F
:10052000F6D5F5CFCC2369F084E0D0D5882311F03F
:1005300084E0EDD583E0CAD5C82F8111CECF83E00A
:10054000E5CFA9DF83E0C2D5882309F4C6CF83E0D5
:10055000E7CFCC2309F4CACF88E822D38FE29CD21C
:10056000BCCFCC2309F4C2CF88E81AD380E3F7CFFD
:1005700083E3CC2309F4BACF13D38BE2F0CFCC239F
:1005800009F4B4CF81E1F8CFCC2309F4A6CFC09110
:10059000BB01C11110C08091BA01882321F01092D3
:1005A000BA010E94820C8AEAFBD28BE2F1D281E08E
:1005B0008093BB01ACCF8BE2EBD28FCFCC2309F47D
:1005C0008CCFC091BA01C111F6CF8091BB018823B5
:1005D00021F01092BB010E94820C88E8E1D28BE2EC
:1005E000D7D281E08093BA0192CFCC2309F47ECF99
:1005F00081E1D6D280E5B3CFCC2309F477CF81E176
:10060000CFD28FE4ACCFCC2309F470CF8CECC8D21E
:100610008CE0A5CF8530B8F46830A8F4463098F463
:1006200050E096E0699F400D511D1124FA0190E3BE
:10063000899FE00DF11D1124EE0FFF1FE455FF4FC0
:1006400085919491089581E090E00895E3CF089515
:100650009C013A9521153F4150F5FC01EE27F170C0
:10066000BC0166277270AC01442754709C0122279C
:10067000387094FF0EC080E1EF2B09F480E0672B07
:1006800009F08062452B09F08064232B89F0806893
:10069000089581E0EF2B09F480E0672B09F0826078
:1006A000452B09F08460232B19F08860089580E0C1
:1006B0000895CF93DF93EB01CBDFFE010995DF9126
:1006C000CF910895CF93DF93EC01805E9109089755
:1006D00020F06BEC77E0209711F460ED75E0CE012F
:1006E000E8DF8C2FD9D1DF91CF910895CF93DF939D
:1006F000EC0111D2CE01805E9109089720F060EDE7
:1007000077E0209711F465ED75E0CE01D2DFDF913F
:10071000CF91089581E00895FDCF089581E0089577
:10072000CBCE08950895FECF0895A6E0B0E0EBE9A2
:10073000F3E00C94382449835A839E833091C80196
:1007400089819A81311117C03E81332389F0222398
:1007500079F08CD5182F682F89819A8165D56981A8
:100760007A81812F0E94E20F2696E3E00C945424B4
:100770006CD5182FF4CF7AD569817A81F3CFFC013B
:10078000262F408151816281738184819581CDCFF3
:100790000895CF93DF93EC0161E0F1DFBE01BCDF90
:1007A000DF91CF910895CF93DF93EC0160E0E7DF15
:1007B000BE01B9DFDF91CF910895089504D4FDDF24
:1007C0002FEF84E39CE0215080409040E1F700C08F
:1007D00000000895F3DF0C947B1D0895EFDF0C9467
:1007E0008C1D08950F931F93CF93DF938C0161E0CD
:1007F000C6DFEC01B8010E94BB18882321F061E03C
:10080000C801BDDFEC01B801CE018ADF811106C04D
:1008100080E0DF91CF911F910F910895B801CE0133
:100820000E94E0188823A1F3B801CE010E94B316FC
:10083000882371F3B801CE010E945B19882341F32C
:10084000B801CE010E941318882311F3B801CE011C
:100850000E94F8148823E1F2B801CE010E948217A9
:100860008823B1F2F8018581882361F0C330FCE769
:10087000DF07D9F050F4C115ECE7DE07A1F0C13075
:10088000DC47A9F0C8014ADFC4CFCB358CE7D807D5
:1008900099F0CC35ECE7DE0761F0CA35DC4791F71B
:1008A0000E94590DEFCF96DFB3CF0E945F0D96DF08
:1008B000AFCF0E94500DE6CF0E945C0DE3CF0E94A7
:1008C000951C96C0089597D00C94991C08952F926A
:1008D0003F924F925F926F927F928F929F92AF92D0
:1008E000BF92CF92DF92EF92FF920F93CF93DF935D
:1008F0001C0129013A016B0181E0C81AD108E1010C
:10090000CC0DDD1D1882F12CE12C8AE0882E912C73
:10091000A12CB12CEC14FD0498F0C101DF91CF9112
:100920000F91FF90EF90DF90CF90BF90AF909F908E
:100930008F907F906F905F904F903F902F90089591
:10094000C301B201A50194010E940124605D6033DE
:1009500019F4E114F10431F04114510461047104FB
:1009600009F4602F6A93C301B201A50194010E94AA
:10097000012429013A018FEFE81AF80ACBCF0F932F
:1009800020911201309113012817390721F4209189
:10099000C201261789F0909313018093120160938E
:1009A000C2019C0150E040E0062F66E070E08CEB55
:1009B00091E08DDF0F9108958CEB91E0FBCF0895CE
:1009C00081E008950895CF93DF93D82FF9DFC82FE2
:1009D000882311F08D2FF6DF8C2FDF91CF910895B2
:1009E0000895CF93C82FEBDF8C2FEDDFCF910895C3
:1009F00080E0F7CF08950E94431BF3CF0895CF9373
:100A00000E94431BC82F8091C3018C1771F0C093C3
:100A1000C3010E94201D6093C4017093C50180939F
:100A2000C6019093C7018C2FDCDFCF910895ADE014
:100A3000B0E0EDE1F5E00C943924488759876A87E6
:100A40007B878C879D87911170D71F8286E0FE017E
:100A50003896DE01119601900D928A95E1F78D810D
:100A600081110CC029813A814B815C816D817E812D
:100A70008F8191D62D96E2E00C945524CE010196FB
:100A800088DE8111EFCFF6CFFC012481213019F4EB
:100A9000808191811CC40895CF93C82F882399F039
:100AA0008CEF8C0F813A88F46C2F80911601909115
:100AB00017010E94CF1B882319F08C2FF3D66BD718
:100AC0008C2FE8D668D7CF91089580E28C0F8830BC
:100AD00040F4C77081E001C0880FCA95EAF705D7D6
:100AE000F1CFEBE5EC0FE33040F4F0E0E059FE4FDE
:100AF000808190E00E94711BE6CFC85ACB3118F775
:100B0000EC2FF0E0EE0FFF1FE65CFE4F808191813D
:100B10000E94961BD8CF882321F19CEF980F913A21
:100B200018F4C0D638C7089590E2980F983048F46A
:100B3000877091E001C0990F8A95EAF7892FDBD67B
:100B4000F1CF9BE5980F933028F490E080E00C946F
:100B5000711B0895885A8B3120F490E080E00C944A
:100B6000961B08951F93CF93DF93182FEB0194DF0B
:100B7000209731F4812FCFDFDF91CF911F9108951E
:100B80008FE99FE00197F1F700C000002197F0CFB7
:100B900070E060E0893311F460E570E0E3CF089520
:100BA000882311F0A2D6F7C60895882311F0A3D6A2
:100BB000F2C60895B0E0A0E0E0EEF5E00C94322437
:100BC0006C01D62FC72FFC011581068102950F708D
:100BD00082D6E82E8823D9F0E12E1123C1F08C2F84
:100BE000807F803451F080E28D0F8830E8F0011171
:100BF00004C08C2F807E8032B9F08091DA0282FFAF
:100C000013C082E025D767D691E0E82EE926BC2EF6
:100C1000B2949FE0B922FBE0FB1580F1EB2DF0E0F0
:100C2000E253FB4D0C942324E12CF1CF0C2F0F70D9
:100C3000C07F11F00295007F112381F0002349F05D
:100C400080E28D0F883010F0D11105C0802F4DD675
:100C5000A2D68D2F4CC0802F5BD6FACF8D2F5BDFB5
:100C6000002361F080E28D0F883010F0D11103C0B5
:100C7000802F41D602C0802F51D68DD6EB2DE85063
:100C8000FF0B349718F40E94431BABDEEE2059F0A3
:100C90001ED680FD08C0F601158213D629D2C601E2
:100CA0005CD10FD634D2CDB7DEB7E9E00C944E2438
:100CB0002C2F2F70F22EC07FC03219F0F29480EFEB
:100CC000F822DD2341F0D13089F1112309F439C034
:100CD0000023D1F0BECF8091DA0282FD11C0112332
:100CE00041F0FF2019F08F2D00D655D680E0D4DEDC
:100CF000C5CF80E010DFFF2009F4C0CF8F2DB9CF22
:100D0000112359F0011103C08F2D4ADFB7CF0130F5
:100D100009F0B4CF8F2D20D6B1CF0111AFCF8F2DD9
:100D200044DF8F2D24D68F2D09D6A8CF112321F093
:100D3000023008F0A3CFE8CF0111A0CF8F2D35DF0F
:100D40009DCF0023D9F3D93349F43FEF87EE93E0E9
:100D5000315080409040E1F700C000008D2FDBDE75
:100D60008DCF8C2F86958695837069F0813009F040
:100D700085CF8D2F9C2F9370111102C080E090E0E1
:100D80000E94961B7BCF8D2F9C2F9370111102C058
:100D900080E090E00E94711B71CF8C2F837081F5F1
:100DA00011116CCF4D2F429546954770440F440F5B
:100DB0002D2F2F7030E0042E02C0220F331F0A9413
:100DC000E2F790E080E0D4FF09C08FE090E002C03D
:100DD000880F991F4A95E2F780959095C695C6951C
:100DE000C370822B932BC23039F040F4C13011F024
:100DF0003BD144CF31D142CF3FD140CF2BD13ECF99
:100E00008695112311F08C2F8170882309F436CF39
:100E10004D2F429546954770440F440F2D2F2F704C
:100E200030E0042E02C0220F331F0A94E2F790E054
:100E300080E0D4FF09C08FE090E002C0880F991FC6
:100E40004A95E2F780959095C695C695C370822B1A
:100E5000932BC23039F040F4C13011F080D10ECF65
:100E600076D10CCF84D10ACF13D108CFCF70112304
:100E700021F08C2F3DD18D2F48CF8D2F96DE8C2FDA
:100E800046D1FCCED23F31F160F4D03FB9F0D13F32
:100E900081F0112309F43DC00111DBCE8C2F8F713D
:100EA0001DC0D33FE9F0D43FA1F78091DA0282FD63
:100EB0001FC08C2F8F71112319F310C0112331F033
:100EC0000111DCCE8C2F8F7133D1D8CE023008F0D7
:100ED000D5CEF8CF8C2F8F711111D2CF09D1CECEB4
:100EE000112321F08C2F8F71F8D0C8CED7D0C6CE69
:100EF000112339F0CF718C2FFBD063E08C2F8ED56E
:100F0000BDCE81E0A5D5023008F4B8CE82E0A0D5F0
:100F1000B5CE002359F0D93309F020CFEFEFF7EE2B
:100F200023E0E150F0402040E1F716CF8C2F8F7185
:100F3000A7CF0F931F93CF93DF93EC016881798143
:100F40008D81CED18C011BD184D0B801CE0132DE8F
:100F5000DF91CF911F910F910895CF93DF93EC0113
:100F60008C81882381F0CE013DDC81110FC0B3D488
:100F7000882349F08D81882331F08091DA0282FF45
:100F800002C082E065D5DF91CF910895CE01D1DF17
:100F9000CE0109DCF8CF882311F0BAD4FCC408953F
:100FA000882311F0BBD4F7C4089590E080E00E943C
:100FB000711B90E080E00E94961BB7D4ECC40895AA
:100FC00079D4F3CF08959ED4FBCF089592959F7066
:100FD000963091F058F4925F9F70923058F4803FB1
:100FE00019F030F4883E30F481E008959A5FF4CF30
:100FF000843FD1F380E00895883EB0F3813FD1F77C
:10100000F3CFFC012481222329F0808191815FD1DB
:10101000DDCF089580E00895A6E0B0E0E2E1F8E0D9
:101020000C9439242696E2E00C945524A7E0B0E015
:10103000ECE1F8E00C9439242796E2E00C94552476
:101040000895FECF0895FDDF9093E4018093E301BE
:1010500008950895F8CF08952091E3013091E401B7
:10106000822B932BF0CF08952091E3013091E4017E
:1010700082239323E8CF08952091E3013091E40186
:1010800082279327E0CF0895DBCF0895FDCF089501
:10109000FDDF9093E2018093E101089590E080E00C
:1010A000F7CF0895009729F481E0662371F080E07E
:1010B0000CC021E030E002C0220F331F6A95E2F736
:1010C0002823392381E0232B91F30895682F809101
:1010D000E1019091E201E6CF089521E030E0A9011D
:1010E00002C0440F551F8A95E2F7CA01D1CF089577
:1010F00021E030E002C0220F331F8A95E2F7809191
:10110000E1019091E201822B932BC2CF089521E05F
:1011100030E002C0220F331F8A95E2F72095309508
:101120008091E1019091E20182239323B1CF089550
:1011300021E030E002C0220F331F8A95E2F7809150
:10114000E1019091E20182279327A2CF0895209197
:10115000E1013091E201822B932B9ACF08952091E7
:10116000E1013091E2018223932392CF08952091EF
:10117000E1013091E201822793278ACF08950895F3
:10118000262F277091E001C0990F2A95EAF723E0F6
:10119000769567952A95E1F7660F771F660F771F9B
:1011A000FA01E60FF71F50E040E0682F70E08191F0
:1011B000DF0111979B01042E02C0369527950A94F2
:1011C000E2F7217021952827292328272C934F5FA8
:1011D0005F4F4430510559F70895A82FA77023E0B9
:1011E000969587952A95E1F7880F991F880F991F83
:1011F000FB01E80FF91F50E040E080E0219130E072
:101200000A2E02C0369527950A94E2F721703327FB
:10121000042E01C0220F0A94EAF7822B4F5F5F4F22
:101220004430510559F70895262F983068F48630D8
:1012300058F4682F70E086E0989F600D711D1124AE
:1012400049EC51E0822F9CCF0895292F983060F40B
:10125000863050F490E069EC71E036E0239F800D19
:10126000911D1124BACF089580E00895B0E0A0E068
:10127000ECE3F9E00C9432247C010091E10110913F
:10128000E2018091E3019091E401082B192BCFE05A
:10129000D0E0CC24C394D12CBC2EC6010C2E02C0AD
:1012A000880F991F0A94E2F780239123892B49F430
:1012B000219790F7B12C8B2DCDB7DEB7E9E00C94D8
:1012C0004E24B7018C2F8AD6019791F3F4CFCF9398
:1012D000DF93EC01CBDFBE0181D6DF91CF91089582
:1012E0001F93CF93DF93EB019091C801992331F0C5
:1012F000CB01EDDFDF91CF911F910895882351F04D
:10130000CB01B4DF182F682FCE018EDFBE01812FF5
:1013100065D6F0CFCB0199DF182FF8CF1F93CF936D
:10132000DF93C091E50117E08091E6018C1304C0C2
:10133000DF91CF911F910895D0E01C9FF0011D9F78
:10134000F00D1124E951FE4F2081318142815381FA
:101350006481758186816ADE2196C770E5CF209110
:101360001F0230912002409121025091220260918F
:101370002302709124028091250258CE08950F9384
:101380001F93CF93DF9380912502807F09F04FC098
:1013900080912402882309F44AC0E091E501D091AC
:1013A000E6011091200200911F024091210250910C
:1013B00022026091140170911501C7E0DE17B9F1A6
:1013C0008E2F90E0EC9FF0011124E951FE4F248113
:1013D000222391F1C89FF001C99FF00D1124DF0174
:1013E000A951BE4F11962C911197211325C02C9114
:1013F000201322C015962C91159721111DC012960D
:101400002D913C91241B350B26173707A8F48091AA
:1014100025028F70806180932502E351FE4F808109
:101420008F70806180838FE192E097DD77DFDF91BD
:10143000CF911F910F910895FC013196E770BECFB7
:10144000482F2091E5019091E60157E0291302C051
:1014500080E0089530E0529FF001539FF00D112479
:10146000E951FE4F8181681306C08081481303C093
:1014700085818111EECF2F5F3F4F2770E7CFA4E129
:10148000B0E0E5E4FAE00C942F248C0186E0F8014A
:10149000DE011F9601900D928A95E1F7D80114960E
:1014A0008C9114971596EC9015979FE1A92E92E0D8
:1014B000B92E9091230291111AC08823A9F0EE2031
:1014C00089F0C8019EDDF82E882361F087E0F801DD
:1014D000D50101900D928A95E1F7C501D5DA4FDF6C
:1014E0003EDF3FC0C80139DDFF24F3943AC0F80164
:1014F000C080D18082809380F090240220912102CC
:1015000030912202A401421B530B9A014091140115
:1015100050911501FF2009F4E7C02417350708F0A2
:101520009AC08823F1F09091200280912502282F03
:10153000207F09F060C09D1119C090911F029C117D
:1015400015C0E11052C08F7080618093250207DFC3
:101550008FE192E002DD80912502D80116968C93EE
:10156000F12C8F2D6496ECE00C944B24E1103DC0DF
:101570006D2D8C2D65DFE82E882361F08FE192E0E0
:10158000ECDC87E0EFE1F2E0DF011D928A95E9F7FC
:10159000E6DEE6CFCF86D88A8F85988998DE292F18
:1015A00022952F70243058F49F70223080F09923B8
:1015B00091F0F8019681907F71F4FE2CD2CF2A5FD2
:1015C0002F70223060F0C801C8DCEF2CF6CF9923D1
:1015D00011F0882391F3805E883078F3F4CF803F58
:1015E00060F3815F833078F7E8CF809125028160D6
:1015F00080932502B5CF9D1107C090911F029C11C9
:1016000003C0EE2009F498C0C801FBDC882309F46C
:1016100069CFEE2009F466CF80912502803280F0F8
:1016200020911F0230912002398728879B868A8665
:10163000909123029C871D868E87CE0108968DDCB3
:1016400087E0F801AFE1B2E001900D928A95E1F7F1
:1016500096DE85DE49CF90912502292F207F81F4E7
:10166000682D9A8A898AA6017A899E2DD5DC8FE118
:1016700092E073DC87E0F50111928A95E9F788CF53
:10168000882309F46ECF809120028D1110C08091C3
:101690001F028C110CC0E1100AC016969C93C80161
:1016A0005CDC87E0F50111928A95E9F75ACFC80111
:1016B000A8DC882309F416CFEE2009F413CF80911B
:1016C0002502803208F4BCCF20911F023091200205
:1016D0003A8329839C828B82909123029D831E8270
:1016E0008F83CE010196ABCF2417350708F046C093
:1016F000882309F4F9CEFE2CEE2009F4F3CE809174
:1017000020028D112FC080911F028C112BC02A3A0C
:101710003105F8F49091250290FD1BC0907FC9F02F
:101720008091250216968C931697903F39F0982F4A
:10173000907F905F8F70892B16968C93C8010DDC7B
:1017400087E0F801AFE1B2E001900D928A95E1F7F0
:10175000C7CE87E0F801AFE1B2E001900D928A9523
:10176000E1F7FFCEC8014DDC81116ACF80912502DF
:10177000816080932502C801F0DBF3CE682D9A8A40
:10178000898AA6017A899E2D47DC87E0F5011192AE
:101790008A95E9F7A5CEAEE0B0E0E1EDFBE00C9470
:1017A0003824288739874A875B876C877D878E87AF
:1017B000CE01089664DE8823A9F06C85662339F093
:1017C000288539854A855B857D858E852FDC17E0E8
:1017D0008091E5019091E60189133BC02E96E3E0EC
:1017E0000C94542487E0FE013896DE011196019096
:1017F0000D928A95E1F78C85882349F32091E601C3
:1018000030E0C9010196877099274091E50148179A
:10181000190691F097E0929FD001939FB00D11248B
:10182000A951BE4FFE01319601900D929A95E1F7B4
:101830008093E60173DDCBCFC6DB1092E6011092F8
:10184000E50187E0EFE1F2E0DF011D928A95E9F71B
:10185000BECF819FC001112489519E4F10DE882385
:1018600009F4BCCFE091E5011E9FF0011124E9517C
:10187000FE4F20813181428153816481758186814F
:10188000D5DB8091E50190E00196877099278093E0
:10189000E5019ECF682F80911601909117010C945D
:1018A0004F1C0895682F80911601909117010C9498
:1018B0005B1C089580911601909117010C94671C90
:1018C0000895809146028695869586950895809123
:1018D00046028770089590914602977081E009F45E
:1018E00080E0089580916A02089590916A02892BA0
:1018F00080936A020895809590916A02982390934C
:101900006A02089510926A0208958091690208950A
:1019100090916902892B8093690208958095909136
:1019200069029823909369020895109269020895BC
:101930008091480208950895FECF0895909147023E
:10194000292F282329F08095892380934702F4CFFB
:1019500008950895FECF089590914802292F2823D5
:10196000281721F0982B90934802F4CF0895909176
:101970004802292F282329F0809589238093480243
:10198000E9CF089580914802882321F010924802FF
:1019900080E0E0CF0895CF93DF93E0911601F091BE
:1019A000170180916A028083E0911601F09117017E
:1019B000808190916902892B8083909148029923BC
:1019C00079F0E0911601F09117018081892B8083D5
:1019D00080911601909117010E94BB1B8111D2DFEB
:1019E000C0911601D091170140E250E066E272E02A
:1019F000CE010E946024892B59F080E2FE01A6E20C
:101A0000B2E001900D928A95E1F7CE010E94571B3A
:101A1000DF91CF9108950895FECF08959091DA0255
:101A200092FF0FC098E0899F90011124622B609370
:101A300046025EDB80914602869586958695ECCFC0
:101A4000089556CB08951092460280E0E5CF0895A0
:101A5000909146028095892380934602282F277013
:101A600059F4891749F09091DA0292FF05C08695E2
:101A7000869586954CDBE7CF08959091DA0292FB2C
:101A8000222720F9281759F080FB92F99093DA0267
:101A90008091D9029091DA0233D082E0D9CF0895B3
:101AA0008091DA0282FB882780F991E08927E5CFCF
:101AB000089581E0E2CF089580E0DFCF08956FEFD1
:101AC0007FEF90E080E00C94AC24089590E080E0FB
:101AD0000E947E2421E0863E9E4F09F020E0822F66
:101AE000089582E090E00C947624089583E090E0DD
:101AF0000C947624089584E090E00C947E2408955C
:101B0000BC0184E090E00C94AC240895AB01BC01CE
:101B10008FE090E00C94A4240895AB01BC0183E114
:101B200090E00C94A424089560E070E0CB01F5CF20
:101B3000089560E070E0CB01E9DFF6CF0895A8E0FA
:101B4000B0E0E5EAFDE00C94392466EE7EEF90E02B
:101B500080E00E94AC2460E082E090E00E94922449
:101B600060E083E090E00E9492241092E4011092E1
:101B7000E30160E074E184E090E00E94AC2460E066
:101B800086E090E00E9492246FEF87E090E00E9450
:101B9000922440E050E0BA0188E090E00E94A42442
:101BA00060E084E290E00E94922460E087E190E0AF
:101BB0000E94922460E08CE090E00E94922460E019
:101BC0008DE090E00E94922419821A821B821C826E
:101BD0001D821E821F82188648E050E068E170E096
:101BE000CE0101960E94832440E050E0BA0180E2D9
:101BF00090E00E94A4249DDF2896E2E00C945524F6
:101C00009ECF0895682F8EE090E00C949224089562
:101C1000A6E0B0E0EEE0FEE00C9437240E94141D34
:101C20008C0180916B0290916C028017910781F07A
:101C300019821A820E94141D682F49815A81792FB6
:101C400080E090E00E94170510936C0200936B02F5
:101C50002696E4E00C945324CED2609379027093DC
:101C60007A0280937B0290937C026093750270935A
:101C700076028093770290937802089508950895EC
:101C8000FECF08950895FECF089581E0089584E180
:101C900091E10E94391BF2DFF3CF089596C40895B5
:101CA00008950895FDDFFDCF0895DCD20C94F00473
:101CB00008950E940B1D7AD2A2D4EED3F6DF80D60F
:101CC000A5D4E1CF089581D4882321F00E94391949
:101CD0000C946A170895A6E0B0E0E1E7FEE00C94EA
:101CE0003024D3DF811108C093DFEDDF0E94FF04B1
:101CF0002696EBE00C944C24EFD38DE6A82E82E0E0
:101D0000B82E750110E0F70101917F01812FC8D233
:101D10001F5F183009F43DC00817A9F380917D02B8
:101D200081FDC4D2BBDFC82E10E099249394812F8B
:101D3000B7D2082FF50181915F01081729F1D02E44
:101D4000D826F12CEE24E3948D2D8E21A9F0CC2001
:101D500099F0F9821A830E94141D9C838B839D82C3
:101D600091E0802F8E2109F490E049815A816B81A6
:101D70007C818D810E941705F394EE0CF6E0FF1232
:101D8000E3CFF501319700831F5F183081F664DFE0
:101D9000ACCF0813C3CFA8CF1F93CF93DF9321D12C
:101DA000EC01C11580E5D807F0F5C11580E4D8072E
:101DB00008F09AC0C03ED10520F5CD3CD10508F011
:101DC00082C0C83AD10578F4C53AD10508F073C08D
:101DD000C130D10519F1209709F1C430D105F0F4D3
:101DE000D0E0C0E01BC0C33CD105D0F7C85AD0E05A
:101DF000CC0FDD1FCD58DE4F0990D881C02DD464A3
:101E00000DC0C11580E2D80708F0CCC0C11581E033
:101E1000D80708F05AC0C83ED10510F7CE01DF91AF
:101E2000CF911F910895C03682E5D80718F5C034C8
:101E300082E5D80708F068C0C03282E5D80708F00C
:101E40005CC0C11582E5D80708F493C02C2F2695F5
:101E5000269580E2289F900111248C2F8370C1E089
:101E6000D0E002C0CC0FDD1F8A95E2F7C22BD32B46
:101E7000DD68D4CFC03A82E5D80760F4C03882E587
:101E8000D80708F456C0CF71D0E0DC2FCC27C46F40
:101E9000D06AC4CFC03C82E5D80708F45FC0C03E1A
:101EA00082E5D80708F09CCFDC2FCC27CC27DF7148
:101EB000C06FD06AB3CFC55AD0E0C755DE4FC881D6
:101EC000D0E0D064ABCFD065A9CF8D2F2CD1182F07
:101ED000CE01992786D0C12FD0E0DC2FCC27CC278C
:101EE000DF71C82BD92B9ACFCE0199277AD0CC2776
:101EF000DF70C82BD92BD06A91CFCF71D0E0DC2F07
:101F0000CC27C16FD06A8ACF2C2F269526952770B3
:101F100080E2289F900111248C2F8370C1E0D0E0D3
:101F200002C0CC0FDD1F8A95E2F7C22BD32BDC68F1
:101F300075CF2C2F26952695277080E2289F90013B
:101F400011248C2F8370C1E0D0E002C0CC0FDD1FC4
:101F50008A95E2F7C22BD32BDA6860CF8C2F8F7172
:101F6000E2D0C82FD0E0DC2FCC27CC27DF71D062A5
:101F700055CF8C2F8F71D7D055E0D695C7955A95F0
:101F8000E1F7CF70D0E0DC2FCC27282F30E084FFA2
:101F900005C044E0220F331F4A95E1F7C22BD32B33
:101FA000D0693CCF8D2F8F71BED0182FCE019927CD
:101FB00018D0C12FD0E0DC2FCC27CC27DF71C82B65
:101FC000D92BD5CF462F783030F4663020F4672FE8
:101FD0000C942603089590E080E00895F3DFDCCEB2
:101FE000089582389105B9F1B0F48133910509F46F
:101FF0007DC048F48932910509F46DC08A3291059B
:1020000009F47BC008958533910509F45FC08933D5
:10201000910509F10895833E9105D9F138F4803E88
:10202000910529F1823E910579F10895863E910549
:10203000D9F1873E910509F43EC0843E910541F5F2
:102040002091DA0221FF24C08091D90284FD19C0B9
:1020500087EE90E008952091D902237009F05AC0CC
:102060002091DA0223FF14C089E290E008952091C4
:10207000D90220FD38C03091DA0230FF09C024FFB8
:1020800043C090E080E008952091D90222FDF7CF6F
:1020900008952091D90222FD3AC03091DA0230FD34
:1020A00039C024FFF5CFEDCF2091D90223FFF0CF27
:1020B00024FDE7CFCDCF2091D90223FD2EC0309152
:1020C000DA0231FFEECF84EE90E008952091D9023C
:1020D00025FFDECFC9CF2091D90225FD21C0209157
:1020E000DA0223FFD5CF89E390E0D2CF2091D90245
:1020F00026FFCECF8AE290E008952091D90226FFF4
:10210000C7CF81E390E0089583EE90E0089582EEDA
:1021100090E0089580EE90E0089586EE90E00895B6
:1021200085E390E008959091D90292FF06C0282F90
:1021300028712830F9F4877F846093FF06C0282F28
:1021400028712831F1F4877E84612091DA0220FF22
:1021500006C0382F38713830D9F4877F816021FF6D
:1021600006C0282F28712831D1F4877E816194FD23
:10217000877E0895282F24712430F9F68B7F88609C
:10218000DCCF282F2471243101F78B7E8861DDCFCD
:10219000382F3171313019F78E7F8860E0CF282FCA
:1021A0002171213121F78E7E8861E1CF1092D50215
:1021B0001092D6021092D7021092D8020895CF92B0
:1021C000DF92EF92FF926B017C01FFD181110EC073
:1021D0000E94201DC61AD70AE80AF90AC092D50241
:1021E000D092D602E092D702F092D802FF90EF9000
:1021F000DF90CF9008950F931F93E7D1882329F0A4
:102200000E94201D1F910F9108950E94201D009192
:10221000D5021091D6022091D7023091D802600FDA
:10222000711F821F931FEECF80E0089548CC089560
:1022300053D12FEF86E791E0215080409040E1F7A5
:1022400000C0000049D1D9D1811108C084E028D054
:1022500081FF03C0EBDF0C947B1D089580E0F7CF76
:10226000E7CF089533DC811101C0CADC3ADC8093EA
:102270007D0241DC9093DA028093D902F1DF36DCF3
:1022800090E00E942A088091E1019091E2010C9473
:10229000460808950895FECF08950895FECF089545
:1022A000E82FF0E0EC51FD4F80810895089580EA19
:1022B0008A95F1F7089500C00895F9CF089508951B
:1022C000FECF0895EF92FF921F93CF93DF9300D03C
:1022D00000D0CDB7DEB779D1182F6091EC028823FA
:1022E00009F445C019821A821B821C82862F90E055
:1022F0009E012F5F3F4F7901B9018C519D4F92D1C3
:102300008823E1F08091DB0290E044E050E0B701E7
:102310008C519D4F0E94602421E020937E02892BE6
:10232000C1F410E0BBDF812F0F900F900F900F9042
:10233000DF91CF911F91FF90EF90089580917E02E1
:10234000882379F384E0F70111928A95E9F71092D6
:102350007E02E091DB02F0E0EC51FD4F89819A8131
:10236000AB81BC8180839183A283B383DBCF70E098
:102370006C517D4F8091DB0290E08C519D4FD4D108
:102380009FDFD1CFF894E82FE295EF70F0E031A114
:10239000282F2F7081E090E001C0880F2A95EAF77E
:1023A000982F9095932391A392A1892B82A378943F
:1023B0000895CF93DF9384E9E5DF86E6E3DF87E9DD
:1023C000E1DF86ECDFDFCCEAD1E089918F3F09F0D5
:1023D000D9DF81E0C23BD807C1F7DF91CF910895E3
:1023E000B0E0A0E0E6EFF1E10C943324EC01D62E4E
:1023F000062F10E0C8018E549E4F7C01FC018081A5
:102400008F3F09F442C0F894E82FE295EF70F0E0B6
:1024100091A18F7021E030E001C0220F8A95EAF788
:10242000892F822B81A382A12095282322A378942F
:1024300042DFECEAF1E042EB51E031E0C12C2191C6
:102440002F3F41F1A22FA295AF70B0E090968C91F2
:1024500090E02F7002C0959587952A95E2F780FD50
:1024600019C0832FC82A330F4E175F0741F7F701B2
:1024700080818F3F09F086DF61E0C11001C060E01C
:102480008D2D1BDFC00FD11FC882CDB7DEB7E8E0AE
:102490000C944F2480E0E6CF8091180180911801C0
:1024A00094E0811190E09093EC0284E0891B80938A
:1024B000DB027FDF88E0E4EEF2E0DF01982F1D927F
:1024C0009A95E9F7ECEDF2E0DF011D928A95E9F7C4
:1024D00084E03DD0E0CE0895A8E0B0E0E2E7F2E18C
:1024E0000C9436248E010F5F1F4F88E0F801119283
:1024F0008A95E9F7F12C6F2DC80172DFF394F4E0AF
:10250000FF12F9CF48E050E0B8018CED92E00E9454
:10251000602421E0009709F420E0892B41F088E055
:10252000F801ACEDB2E001900D928A95E1F760916F
:10253000EC0270E06C517D4F44E08CED92E008D0ED
:10254000182FC0DE812B2896E5E00C9452240895C4
:10255000CF92DF92EF92FF920F931F93CF936C0174
:102560007B01042F222349F081E0809381020E94A5
:10257000141D9093800280937F02C0918102C1114B
:102580000AC0C0E08C2FCF911F910F91FF90EF9068
:10259000DF90CF90089580917F02909180020E94F9
:1025A0002C1D059770F310E0A801B601C7010E9429
:1025B0006024892B41F0A801B601C7010E946D2457
:1025C00010928102DFCFC0E0FBCF809184028111A5
:1025D00007C00E94F423882351F081E08093840295
:1025E00081E090918402913009F080E0089582E0CA
:1025F000809384020E94F023F3CFE7CF0895FDDF9C
:1026000080931801E2DF811142C00895DEDF81115D
:1026100001C03FC0089581E0909185029A3008F092
:1026200080E008950F931F93CF93DF93EC018B010C
:10263000809185028A30B0F4B801CE0173D0C82FE2
:10264000811122C0809185028F3FB9F40E94141D30
:1026500090938302809382028C2FDF91CF911F9100
:102660000F91089580918202909183020E942C1D07
:10267000843F914008F7C0E0EFCF8F5F80938502E1
:102680008A3020F7C1E0E8CF10928502E5CF9DC6E1
:1026900008959EC60895B0E0A0E0E1E5F3E10C9452
:1026A00034247901C82F880FDD0B41155105A9F09D
:1026B000FE0193E0EE0FFF1F9A95E1F7E75EFE4FF4
:1026C000818192818A579D4F208130E042175307C4
:1026D00008F49A01A9010E946D24CE015AD7D82E80
:1026E0008823D1F001151105B9F083E0CC0FDD1F6F
:1026F0008A95E1F7FE01E75EFE4F438150E0041743
:10270000150708F4A801C75EDE4F6C817D816A570A
:102710007D4FC7010E946D248D2DCDB7DEB7E7E058
:102720000C945024F0C0089503C10895A4E0B0E0D3
:10273000ECE9F3E10C94372460919B0270919C02C8
:1027400080919D0290919E020E943B1D11E0643693
:1027500071058105910508F14EDD6E5F7F4F8F4F4A
:102760009F4F69837A838B839C8310E000E030E085
:1027700020E044E050E0BE016F5F7F4F82E08BDFDE
:10278000182F882351F00E94201D60939B027093A4
:102790009C0280939D0290939E02812F2496E4E0F8
:1027A0000C945324B0E0A0E0E8EDF3E10C94312464
:1027B0007C015B016A012FDF01E010E0882311F04A
:1027C0000AE010E0C1E0D0E0B501C701F6010995CB
:1027D000811104C021960C171D072CF4CDB7DEB76C
:1027E000EAE00C944D24CC9F9001CD9F300D300D2C
:1027F000112490E080E045E34A95F1F7000001964E
:1028000082179307C1F7E0CFA5E0B0E0EAE0F4E17A
:102810000C9431245B01E090B601F090B70101E027
:1028200010E09E012B5F3F4F50E040E070E060E021
:1028300080E031DF182F882309F448C067018FEF4B
:10284000C81AD80A609197027091980280919902F3
:1028500090919A020E943B1D643671058105910595
:1028600070F104E010E09E012F5F3F4F50E040E028
:1028700070E060E081E00FDFF82E64E070E0C601F8
:10288000A0D011E09D81981310E01F2151F10E940A
:10289000201D609397027093980280939902909301
:1028A0009A0289819A81AB81BC8180939302909333
:1028B0009402A0939502B093960211E012C064E0D6
:1028C00070E0C6017ED09D818913CBCFF701818155
:1028D0009281A381B48189839A83AB83BC831111D4
:1028E000E0CF8091930290919402A0919502B091D3
:1028F0009602F50180839183A283B383812F25966D
:10290000EAE00C944D240F931F93CF93DF93EC01D7
:102910008B0144E054E146DF882329F046E953E186
:10292000B801CE013FDFDF91CF911F910F91089544
:102930000F931F93CF93DF93C091B601D091B7014E
:10294000CE01019624E0FB01DC0101900D922A9555
:10295000E1F764E070E035D088836D817E818F81FE
:10296000988500918F0210919002209191023091F0
:102970009202601771078207930749F060938F02F4
:1029800070939002809391029093920218DCDF91F1
:10299000CF911F910F9108950E94EB1E8AD90C943C
:1029A000F51E08950E94F91E96D90C940F1F0895E4
:1029B000D4D70E94D21E6BD9EFDFF4DF73D9FDCFDD
:1029C0000895FC01680F791F8FEF91E36E177F0761
:1029D00009F408952191822728E030E087FF06C09E
:1029E000880F892721503109C9F7F0CF880FFACF16
:1029F000CF93DF93EC01FB018581882309F4D0C0DC
:102A00009E0130572332310508F0B0C074D890933E
:102A1000DA028093D902FE01E150F047E232F1057B
:102A200020F4E652FB4D0C9423248091D90281605E
:102A30008093D90292C08091DA0288608093DA0292
:102A40008CC08091D9028260F3CF8091D9028460DA
:102A5000EFCF8091D9028860EBCF8091DA0281605C
:102A6000EDCF8091DA028260E9CF8091D902806156
:102A7000DFCF8091D9028062DBCF8091D902806460
:102A8000D7CF0E94E3078091D9028068D1CF80918F
:102A9000D9028C60CDCF8091DA028360CFCF809154
:102AA000D9028E7FC5CF8091DA02877FC7CF809110
:102AB000D9028D7FBDCF8091D9028B7FB9CF809114
:102AC000D902877FB5CF8091DA028E7FB7CF809110
:102AD000DA028D7FB3CF8091D9028F7EA9CF80910A
:102AE000D9028F7DA5CF8091D9028F7BA1CF0E9483
:102AF000E3078091D9028F779BCF8091D902837FA2
:102B000097CF8091DA028C7F99CF8091D90282FB96
:102B1000992790F921E0922790FB82F990FB83F9A5
:102B200087CF8091DA02982F909591708E7F892BB4
:102B300090FB81F983CF9091D902892F8F7B96FFEB
:102B4000806476CF0E94E3079091D902892F97FB8A
:102B500087F980586DCF81E055D88091D902909146
:102B6000DA020E94800D0E94E30780E0DF91CF919E
:102B7000089580E0F1CF9091D902892F8F7E94FF44
:102B8000806156CF9091D902892F8E7F90FF81600E
:102B90004FCF9091DA02892F877F93FF88604ECFC5
:102BA00081E0E4CFB0E0A0E0E8EDF5E10C9434245E
:102BB000E82FF0E0E457FD4FD490282F2695269576
:102BC000269530E0F901E45DFC4F0491877010E038
:102BD000082E02C0159507950A94E2F70170112797
:102BE000F901E45EFC4FE490F12C082E02C0F5944C
:102BF000E7940A94E2F791E0E922FF24F901E45F07
:102C0000FC4FC491D0E002C0D595C7958A95E2F7F4
:102C1000C170DD270115110519F081EE0E944C05E8
:102C2000E114F10419F086EE0E944C058D2D0E94EE
:102C3000C805E114F10419F086EE0E948B05011518
:102C4000110519F081EE0E948B05CD2B19F08CE255
:102C50000E94C805CDB7DEB7E7E00C945024EF9290
:102C6000FF920F931F93CF93DF93EC01162F0AE08F
:102C70008881882309F453C0813009F04EC08981CE
:102C8000813099F47E0122E0E20EF11C8A810E94DB
:102C9000C805E7012196812F815050F3EFE9FFE04D
:102CA0003197F1F700C00000F7CF823041F47E0188
:102CB00082E0E80EF11C8A810E944C05EACF833045
:102CC00041F47E01E2E0EE0EF11C8A810E948B0548
:102CD000E0CF843011F02196DDCF2A81229690E05A
:102CE00080E0AE014F5F5F4F2053330B2A30310538
:102CF00048F0019778F2EFE9FFE03197F1F700C073
:102D00000000F7CF089FB001099F700D1124C90181
:102D1000860F971F2981EA01E4CF44DFBBCFCDB7EF
:102D2000DEB7E6E00C94512460E099CF0895883234
:102D3000910548F48E319105A0F4049750F082E09B
:102D40000E94880C0EC08D329105C9F320F48A9739
:102D500041F080E008958C34910519F08D32924055
:102D6000C1F781E00895EF92FF920F931F93CF93E5
:102D7000DF93EC017B01C3378CE7D80761F4FB01DB
:102D80001581112311F0B6D010E0812FCDB7DEB739
:102D9000E6E00C9451240E94720C082F0E94980CBB
:102DA000082B7AD0811106C0023211F011E0EDCF6C
:102DB00077D0FCCF69D0F70115811123B9F30D79D4
:102DC00009F054C0C034F2E5DF0720F5C11582E5F3
:102DD000D807D8F6C115E0E4DE0790F4C115F0E29B
:102DE000DF07B0F5C63ED10581F20E94950CCE01F9
:102DF0009EDFC82F8823D1F10E94CB0C1C2FC5CF9A
:102E0000C11580E5D80788F7F7018681807F71F2C8
:102E1000DD27EBCFC03EE2E5DE07A0F4C03CF2E5E3
:102E2000DF0708F0B2CFC03682E5D807F0F2C03A2B
:102E3000E2E5DE0708F4A9CFC43BF2E5DF0709F4B9
:102E4000A4CFD3CFCE0187579C47029770F69DCF72
:102E5000F7018681807FE1F68D2F8F71823189F0B5
:102E600038F4C1EED0E0823009F4BFCF27D08DCF47
:102E7000843109F48ACFC6EED2E1863109F4B5CFA8
:102E8000F5CFC5EED0E0B1CFCFD588579C4E90930B
:102E9000A00280939F0208958091A1020895089551
:102EA0008091A102811109C00E94820C0E94C20C73
:102EB000EBDF81E08093A102F2CF08958091A1021F
:102EC000882339F082E20E94D0071092A10280E0AC
:102ED000E6CF08958091A102882359F0A5D52091CD
:102EE0009F023091A002821B930B8F3F9F4708F4F3
:102EF000E5CF08958091A102882311F0DFCF0895D6
:102F0000CFCF0895CF93DF93EB0186319C4711F526
:102F10000E94720C9D81992399F08A7A91E009F4BC
:102F200090E09093A202811109C089E20E944A0CAC
:102F30000E94CB0C80E0DF91CF91089585E3F6CF1E
:102F40008091A202811104C089E20E94520CF0CF4C
:102F500085E3FBCF81E0EFCF0F931F93CF93DF93F8
:102F6000C42FD22FFC0185818823C1F04093A50294
:102F70005BD59093A4028093A30280E28C0F8830EB
:102F800040F4C77081E001C0880FCA95EAF70E943B
:102F9000D005DF91CF911F910F9108951091A50257
:102FA000141335C08091A3029091A40255D52091AD
:102FB0001401309115018217930748F5C0E2CD0F37
:102FC0001D17B9F080E2810F883040F4177081E05E
:102FD00001C0880F1A95EAF70E94D505C83048F459
:102FE00081E09D2F977001C0880F9A95EAF70E94A3
:102FF000D005802F0E94C805C83058F6D77081E0F0
:1030000001C0880FDA95EAF70E94D505C2CF80E2A9
:103010008C0F883008F0BDCFC77081E001C0880FE9
:10302000CA95EAF7F1CF0F93DB0188519C478730AF
:10303000910598F5FC01E450FB4D0C94232406E225
:1030400021EE41EE6AE17CE7CD0186DF80E00F9161
:10305000089507E225EE45EE6BE17CE7F5CF06E249
:1030600021EE40EE68E17CE7EFCF07E225EE44EE8B
:1030700069E17CE7E9CF06E221EE42EE6CE17CE714
:10308000E3CF07E225EE46EE6DE17CE7DDCF08E217
:1030900021E045EE6EE17CE7D7CF15968C91882331
:1030A00019F01092A502D3CF81E0D1CFCF93DF9357
:1030B000EC01EA85FB85309719F06C857D850995D3
:1030C0008B810E948E0C8C810E947B0C0E94CB0C09
:1030D00086E0FE0111928A95E9F7DF91CF9108957C
:1030E000CF93DF93EC018D8181FD12C082608D83CF
:1030F0008B810E94880C8C810E94750C0E94CB0CE5
:10310000E885F985309721F06C857D85CE0109959C
:103110001092A9021092A8028D8180FD02C0CE01FA
:10312000C5DFDF91CF910895CF93DF93EC018A81C2
:10313000823041F4FB01828193810E9462038D8180
:1031400082608D83DF91CF910895FB018081918111
:103150000C9462030895FC018281813031F4FB01FB
:10316000808191810C94760308958230E9F7FB0108
:1031700082819381F7CFCF93FB01C581CC23D9F016
:10318000E091A802F091A9023097C1F0E817F90781
:10319000A9F02EE0E29FF0011124DF01AB5FBE4FEA
:1031A0002C9124602C93E050FF4F91838083CF01BA
:1031B00097DF0E94950C8C2FCF910895C0E0FBCF34
:1031C000EF92FF920F931F93CF93DF938C0197554C
:1031D0008F3F910511F008F040C07801FF248EE088
:1031E000089FF0011124EF01C050DF4FDB0115965D
:1031F0002C91EB5FFE4F808120FB80F9808322239E
:1032000091F112D49093A7028093A6028A818F5FD6
:103210008A830E94720C8B830E94850C9B81892B70
:103220008B830E94980C8C83EE81FF81309721F074
:103230006C857D85CE0109958EE08E9DF0018F9D78
:10324000F00D1124E050FF4F858181FF02C010E096
:1032500000E01093A9020093A80281E0CDB7DEB789
:10326000E6E00C9451248D8181FFF7CFCE011EDF63
:10327000F4CF8091A8029091A902892BD9F0809176
:10328000A6029091A702E8D3209114013091150174
:103290002817390778F48091A8022EE0829FC00198
:1032A0001124FC01EB5FFE4F208122FD03C0805002
:1032B0009F4F16CF08959C01FB018581882359F10A
:1032C0002137FCE73F07B9F022379CE73907E9F0DF
:1032D00020373C4709F560E2809114019091150177
:1032E0000E94BF04FC01019620812032D9F3CF0156
:1032F0001BDD80E0089580911401909115010596E1
:103300009093150180931401F4CF80911401909152
:1033100015010597F5CF81E008958EE14A9B02C023
:103320008150E1F74A9BFECF08955A9880E28A9532
:10333000F1F75A9A0895FC013BE03A95F1F798E0CD
:1033400020E080E031E040E14A95F1F7880F4A9BA8
:1033500002C08160232742E04A95F1F7000040E176
:103360004A95F1F7915079F790E19A95F1F799B173
:1033700032E03A95F1F7000040E14A95F1F792FB0F
:10338000992790F992272081920F90830895A1E0C8
:10339000B0E0EDECF9E10C94352419828C017C014C
:1033A000E60EF11C0E151F0541F481E09981911183
:1033B00080E02196E6E00C945124AFDFCE01019627
:1033C000BADFF80181938F01EDCF529A5A9A08958E
:1033D00052985A9AEA9AE9E6F0E080818F7C8083DD
:1033E00008956150770B91E001C0990F6A95EAF753
:1033F00020E031E0911108C0222391F05A9A80E236
:103400008A95F1F75A980895492F482339F05A9A26
:10341000232740E24A95F1F79695ECCF5A98F9CFD9
:103420005A98EDCFFF920F931F93CF93DF93EC0148
:103430008C01060F111DC017D10729F4CDB7DEB7D7
:10344000E5E00C945224F99070DF68E08F2DC9DF1D
:10345000F2CF1F920F920FB60F9211240F931F936A
:103460002F933F934F935F936F937F938F939F938C
:10347000AF93BF93EF93FF93CF93DF930F92CDB7AB
:10348000DEB719824ADFCE01019655DF082F069577
:1034900006950695282F22952570902F9570290F57
:1034A000922F937026952695920F98279770898171
:1034B000982B09F058C0043008F055C080E18A9577
:1034C000F1F75A9A529A82E08A95F1F700C05A9819
:1034D00088E0089F80011124D801A75EBE4F169690
:1034E000ED91FC9117973097A9F06091B60170911A
:1034F000B70114962D913C911597260F371F119601
:103500008D919C911297680F791F13964C91139788
:103510008C910995F801E75EFE4F6381662349F0BF
:103520002091B6013091B70184819581820F931F5C
:1035300079DFFBDE80E18A95F1F75A9852985A9A22
:1035400080E18A95F1F7F801E75EFE4F608166231E
:1035500049F02091B6013091B70181819281820FAB
:10356000931F15DFDADE0F90DF91CF91FF91EF917E
:10357000BF91AF919F918F917F916F915F914F918B
:103580003F912F911F910F910F900FBE0F901F90A1
:1035900018950F931F93CF93DF93EC0104970CF0D2
:1035A00049C0F894529A5A9885E08A95F1F700003C
:1035B0009C2F969595708C2F8570980F892F83700E
:1035C0009695969523E0CC0FDD1F2A95E1F7980F8D
:1035D0008E01092BAADE00C068E0802F02DF80E1A7
:1035E0008A95F1F752985A9A4A9B1DC087E090E05D
:1035F0004A991BC0FE01E75EFE4F63816623F1F02E
:103600002091B6013091B70184819581820F931F7B
:10361000BEDE811113C0529A5A9A7894DF91CF91ED
:103620001F910F91089500C0DFCF019729F4529A9E
:103630005A9A789480E0F2CF00C0DACF6EDE80E252
:103640008A95F1F75A98529A80E18A95F1F7C75E08
:10365000DE4F6881662349F02091B6013091B701B1
:1036600089819A81820F931FDDDE5FDE789481E08D
:10367000D5CF9093B9018093B80108959093B0028B
:103680008093AF0208950E94E512811103C08091DA
:10369000AA020895E091AF02F091B002309729F0AC
:1036A0000190F081E02D0995089580E00895E09162
:1036B000AF02F091B002309799F0209139012223A6
:1036C00059F02091D90227FF07C0DC012C911196F7
:1036D0002C93119726E02C930280F381E02D09951D
:1036E0000895A3E0B0E0E7E7FBE10C9439242091D2
:1036F000AD023091AE0228173907A1F09093AE02C7
:103700008093AD02E091AF02F091B002309751F09A
:1037100023E029839B838A830680F781E02DCE01F5
:10372000019609952396E2E00C945524A3E0B0E0BD
:10373000ECE9FBE10C9439242091AB023091AC020E
:1037400028173907A1F09093AC028093AB02E09167
:10375000AF02F091B002309751F024E029839B83AF
:103760008A830680F781E02DCE0101960995239684
:10377000E2E00C945524FC013296809139018823B3
:1037800021F08091D9029EE187FF96E080E0915080
:1037900008F4089521912223D1F38F5FF8CF662397
:1037A00001F1209139012223F1F02091D90227FF64
:1037B0001AC0462F4695469546954E3190F467704F
:1037C00021E030E002C0220F331F6A95E2F7840F38
:1037D000911DFC01828190E02823392381E0232B75
:1037E00069F480E00895FC0132960896219126172D
:1037F00021F0E817F907D1F7F4CF81E008959C0193
:10380000FC0132969FEF80E04191461751F09F3FB7
:1038100019F4411101C0982F8F5F8630A9F79F3F9F
:1038200009F40895290F311D97FD3A95F901628336
:103830000895FC01329608962191261303C0DF01FA
:1038400011971C92E817F907B9F70895E62FE69546
:10385000E695E695EE3168F4E80FF92FF11D6770F3
:1038600021E030E001C0220F6A95EAF78281822BC5
:1038700082830895E62FE695E695E695EE3170F49D
:10388000E80FF92FF11D677021E030E001C0220F31
:103890006A95EAF720958281282322830895209152
:1038A0003901222331F02091D90227FF02C0CECF67
:1038B0000895A5CF089520913901222331F0209158
:1038C000D90227FF02C0D6CF0895B3CF0895FC01D7
:1038D000329680913901882351F08091D90287FF77
:1038E00006C08EE1DF011D928A95E9F7089586E012
:1038F000F9CF0895FECF0895811105C081E080932E
:10390000B102F8CF089582E0FACF83E08093B1024C
:10391000F1CF0895F1CF089581E08093B102EACF0D
:103920000895FACF089508950895FECF0895089553
:103930000895F9CF0895CF93FADF0E946C12F8DF53
:10394000C0E08C2F0E945011811105C0CF5FC8309C
:10395000C1F7CF91089581E0FCCF85B7806885BF1E
:1039600085B7806885BF08951F921FB61F921124E6
:103970008F939F93AF93BF938091B202811113C035
:103980008091ED029091EE02A091EF02B091F002D1
:103990004196A11DB11D8093ED029093EE02A0937C
:1039A000EF02B093F002BF91AF919F918F911F9062
:1039B0001FBE1F9018958091F502843031F10E944E
:1039C0005F041092B20288E190E020E40FB6F89410
:1039D000A895809360000FBE2093600083B7817F1D
:1039E000846083BF83B7816083BF7894889583B7F1
:1039F0008E7F83BF0FB6F894A89580916000886190
:103A000080936000109260000FBE08950E94E3074B
:103A10000C946304089582E084BD93E095BD9AEF11
:103A200097BD80936E0008952FB7F8948091ED02B2
:103A30009091EE02A091EF02B091F0022FBF089595
:103A40002FB7F8946091ED027091EE028091EF0231
:103A50009091F0022FBF08959C014FB7F894809188
:103A6000ED029091EE02A091EF02B091F0024FBFF3
:103A7000821B930B0895CF92DF92EF92FF922FB7A4
:103A8000F894C090ED02D090EE02E090EF02F0903A
:103A9000F0022FBFA7019601261B370B480B590BCD
:103AA000CA01B901FF90EF90DF90CF90089578940C
:103AB0001F921FB61F9211248F939F93AF93BF93B2
:103AC0008091ED029091EE02A091EF02B091F00290
:103AD0000196A11DB11D8093ED029093EE02A0937B
:103AE000EF02B093F002BF91AF919F918F911F9021
:103AF0001FBE1F90189587E797E790930108809362
:103B0000000888E19AE00FB6F894A89580936000C9
:103B10000FBE90936000FFCF88E19AE00FB6F89453
:103B2000A895809360000FBE90936000FFCF8091B6
:103B3000D302089508959B01BA019091F502943043
:103B4000E1F48F708093E9009FEF8091E80091503D
:103B500085FD06C085ED8A95F1F700009111F5CF3E
:103B60008091E80085FF09C050E040E0C901CDD157
:103B70008091E8008E778093E800089543E050E05C
:103B8000BC0182E0D8CF0895CF93DF93EC01809100
:103B90003901811110C048E050E0BE0181E0CBDF67
:103BA00080E2FE01A3EBB2E001900D928A95E1F76D
:103BB000DF91CF9108958091D90287FF05C040E23F
:103BC00082E050E0BE01EBCF48E081E0FACF809187
:103BD000F402811107C027D37ED38091E200846074
:103BE0008093E20008951092F402089595CE08950E
:103BF0006091F10281E0611101C080E086CE0895FC
:103C00009091F50281E0943009F080E06091F1023A
:103C100081CE089542E061EC81E081D242E261EC24
:103C200082E07DD29091F50281E0943009F080E04D
:103C30006091F10261CE08958091F702833009F41A
:103C40005FC030F48130C9F1823009F49AC0089520
:103C50008A3009F487C08B3009F46DC0893009F0CF
:103C60004EC08091F602813209F049C08091FA027B
:103C70009091FB02029708F042C08091E800877F94
:103C80008093E8008091E80082FF35C09091F300B6
:103C90008091F200029731F48091F100813011F0AF
:103CA000863021F48091F1008093D3028091E80066
:103CB0008B778093E80067D222C08091F602813A28
:103CC000F1F48091E800877F8093E8008091FA0208
:103CD0009091FB02892B59F460E283EB92E070E053
:103CE00061D18091E8008B778093E800089560E0CF
:103CF00090E080E0F4CF8091F5028111C3CF089568
:103D00008091F602813AD9F78091FA029091FB02F4
:103D1000892BA9F78091E800877F8093E800809144
:103D2000E80080FFFCCF809139018093F100809101
:103D3000E8008E77BECF8091F602813201F7809144
:103D4000FA029091FB02892BD1F68091E800877FDF
:103D50008093E80018D28091F802809339010C9486
:103D6000E30708958091F602813249F68091E800D8
:103D7000877F8093E80007D28091F9028093D40274
:103D800008958091F602813A09F0B9CF8091E80058
:103D9000877F8093E8008091E80080FFFCCF8091CE
:103DA000D402C3CF84B7877F84BF0FB6F894A89599
:103DB00080916000886180936000109260000FBE67
:103DC00080E890E00FB6F8948093610090936100D2
:103DD0000FBEA7CD089527D27ED2E2EEF0E080811B
:103DE000846080837894E2C4089581E391E046CCB6
:103DF00008958091F502853029F48091F50285308F
:103E000011F004CE0895D7DD8091F3028823A9F341
:103E100092DD882391F363D00E94E307EECF0895EB
:103E20009A014091FC025091FD0201C00895492F72
:103E300055274330510519F168F44130510509F413
:103E400044C04230510509F445C090E080E050E0A4
:103E500040E025C04132510549F142325105A9F7F0
:103E600080E490E04AE154E061157105C1F08DE60F
:103E700090E04DEA53E06130710589F0E6CF992773
:103E80008130910581F0009729F00297F1F6ECE37B
:103E9000F3E002C0ECE5F3E0849190E0AF01F901BA
:103EA000518340830895EAE4F3E0F6CF89E090E09F
:103EB00042E753E06115710591F389E090E04BE82A
:103EC00053E06130710559F3C0CF82E190E04BE9D6
:103ED00053E0E5CF8BE390E040E653E0E0CF80E1B4
:103EE00089BD82E189BD09B400FEFDCF8091D80073
:103EF0008F7D8093D8008091E00082608093E00005
:103F00008091E00081FDFCCF0895AF92BF92CF92E7
:103F1000DF92FF920F931F93CF93DF936C01EB011E
:103F20008A0150D1F82E811123C00115110539F0F5
:103F3000F80180819181C81BD90BC80ED91EB12C04
:103F4000A12C2097A9F08091E80085FD21C08091E7
:103F5000E8008E778093E80001151105A1F0F801C3
:103F600080819181A80EB91EB182A08285E0F82ED1
:103F70008F2DDF91CF911F910F91FF90DF90CF9008
:103F8000BF90AF9008951ED18823D9F2F82EF0CFBC
:103F9000F60181916F018093F1002197FFEFAF1A35
:103FA000BF0ACFCFFC018091FC029091FD028617E1
:103FB0009707A0F06115710529F49091E8009E77AC
:103FC0009093E80090E06115710551F4911108C0DB
:103FD0008091E80082FF34C080E00895BC01F2CFF8
:103FE0008091F5028823C1F18530C1F18091E8000C
:103FF00083FD30C08091E80082FDEACF8091E80027
:1040000080FFE1CF8091F3002091F200382F6115FD
:10401000710519F02830310558F091E0283031054C
:1040200009F090E02091E8002E772093E800CBCFB4
:1040300081918093F100615071092F5F3F4FE7CF6D
:104040008091F502882341F0853041F08091E800AD
:1040500083FFBECF81E0089582E0089583E0089554
:10406000FC018091FC029091FD0286179707A0F059
:104070006115710529F48091E8008E778093E8003E
:1040800090E06115710551F4911108C08091E8002C
:1040900082FF35C080E00895BC01F2CF8091F50227
:1040A0008823C9F18530C9F18091E80083FD31C0D2
:1040B0008091E80082FDEACF8091E80080FFE1CFA7
:1040C0008091F3002091F200382F6115710519F0ED
:1040D0002830310558F091E02830310509F090E0A2
:1040E0008091E8008E778093E800CBCF8491809315
:1040F000F1003196615071092F5F3F4FE6CF8091FB
:10410000F502882341F0853041F08091E80083FF7B
:10411000BDCF81E0089582E0089583E00895982F4F
:10412000973028F08F708093E90081E00895909394
:10413000E900242F762F50E0981731F07091EC00B1
:104140002091ED005091F00021FD02C09F5FE8CF6B
:104150003091EB003E7F3093EB003091ED003D7FDE
:104160003093ED003091EB0031603093EB007093B1
:10417000EC002093ED005093F0002091EE0027FD1D
:10418000E5CF80E008958091F60287FF13C080910B
:10419000E80082FF06C08091E8008B778093E800FA
:1041A00004C08091F5028111F2CF08958091F5024B
:1041B0008823D9F38091E80080FFF8CF8091E80050
:1041C0008E77ECCF2091E4003091E50095E6A901CF
:1041D0002091EC00822F817020FF06C08091E800C2
:1041E00080FF06C080E008952091E80022FD1AC0FB
:1041F0008091F502882389F0853089F08091EB0069
:1042000085FD0FC02091E4003091E500421753076F
:10421000F9F29150E1F684E0089582E0089583E098
:10422000089581E0089568D06FD0E0EEF0E08081DD
:1042300081608083E8EDF0E080818F77808319BC16
:10424000A7EDB0E08C918E7F8C9380818F7E8083F0
:104250001092F40208950F931F93CF93DF934CD0E5
:1042600053D0C8EDD0E088818F77888388818068BB
:10427000888388818F7D888319BC1092F502109203
:10428000F1021092F3021092F20200EE10E0F80137
:1042900080818B7F808388818160888342E060E0B9
:1042A00080E03DDFE1EEF0E080818E7F8083E2EE12
:1042B000F0E0808181608083808188608083F80164
:1042C00080818E7F8083888180618883DF91CF9118
:1042D0001F910F910895E8EDF0E080818F7E80833B
:1042E000E7EDF0E080818160808384E082BF81E03F
:1042F0008093F402B0CF0895E8EDF0E080818E7FE6
:1043000080831092E20008951092DA001092E1008A
:1043100008951F920F920FB60F9211242F933F937F
:104320004F935F936F937F938F939F93AF93BF93BD
:10433000EF93FF938091E10082FF0AC08091E20039
:1043400082FF06C08091E1008B7F8093E1002DD237
:104350008091DA0080FF18C08091D80080FF14C0DF
:104360008091DA008E7F8093DA008091D90080FFFF
:1043700091C080E189BD82E189BD09B400FEFDCF15
:1043800081E08093F50223DC8091E10080FF18C07A
:104390008091E20080FF14C08091E2008E7F8093C4
:1043A000E2008091E20080618093E2008091D80079
:1043B00080628093D80019BC85E08093F50218DCF8
:1043C0008091E10084FF2AC08091E20084FF26C032
:1043D00080E189BD82E189BD89B5982F917080FF08
:1043E000FBCF8091D8008F7D8093D8008091E10031
:1043F0008F7E8093E1008091E2008F7E8093E200C7
:104400008091E20081608093E2008091F102882334
:1044100009F445C084E08093F502F2DB8091E1006D
:1044200083FF27C08091E20083FF23C08091E100D9
:10443000877F8093E10082E08093F5021092F10281
:104440008091E1008E7F8093E1008091E2008E7F79
:104450008093E2008091E20080618093E20042E07C
:1044600060E080E05CDE8091F00088608093F00086
:10447000BDDBFF91EF91BF91AF919F918F917F91A4
:104480006F915F914F913F912F910F900FBE0F90C1
:104490001F90189519BC1092F502A5DB75CF80917D
:1044A000E30087FD93E09093F502B7CF1F920F9240
:1044B0000FB60F9211242F933F934F935F936F93F7
:1044C0007F938F939F93AF93BF93CF93DF93EF939C
:1044D000FF93D091E900DF708091EC00C82FC1708C
:1044E00080FDC0E81092E9008091F000877F809302
:1044F000F00078941ED01092E9008091F00088605E
:104500008093F000CD2BCF70C093E900FF91EF9125
:10451000DF91CF91BF91AF919F918F917F916F91DB
:104520005F914F913F912F910F900FBE0F901F9071
:104530001895AAE2B0E0EEE9F2E29AC186EF92E0C5
:104540002091F100FC012193CF01F2E08E3F9F0703
:10455000B9F772DB8091E80083FF16C18091F60203
:104560009091F7029A3008F00FC1E92FF0E0ED5F6B
:10457000FA4D69C1803899F0823809F005C18091FF
:10458000FA028F70873008F0FFC08093E9008091B5
:10459000EB0085FB882780F91092E90006C0809126
:1045A000F2029091F302911182609091E800977F5E
:1045B0009093E8008093F1001092F1008091E80060
:1045C0008E77DFC0882309F4CDC0823009F0DCC0CB
:1045D0008091F8028111D0C08091FA028F702FEF84
:1045E000280F263008F0D0C08093E9002091EB001E
:1045F00020FFC2C0933031F48091EB008062809341
:10460000EB00BAC09091EB0090619093EB0021E039
:1046100030E001C0220F8A95EAF72093EA00109259
:10462000EA008091EB008860EACF8111ADC0109163
:10463000F8021F778091E3008078812B8093E3005C
:104640008091E800877F8093E8009DDD8091E800FD
:1046500080FFFCCF8091E30080688093E30082E0DC
:10466000111183E08093F5028FC08058823008F0EA
:104670008BC08091F8029091F9028C3D23E0920763
:1046800099F583E08A838AE289834FB7F894DE0143
:10469000139620E03EE051E2E32FF0E05093570004
:1046A000E49120FF03C0E295EF703F5FEF708E2F23
:1046B00090E0EA30B8F0C7968D939D932F5F243138
:1046C00059F74FBF8091E800877F8093E8006AE246
:1046D00070E0CE01019666DC8091E8008B778093D4
:1046E000E80052C0C096E8CF6091FA027091FB02D8
:1046F000AE014F5F5F4F94DBBC01892B09F444C0CE
:104700009091E800977F9093E80089819A81A8DCD6
:10471000E3CF8038C9F58091E800877F8093E80077
:104720008091F1028093F10049CF81112DC09091C9
:10473000F802923048F58091E800877F8093E80086
:104740009093F10220DD8091F102882311F084E042
:1047500005C08091E30087FDFACF81E08093F502E8
:1047600059DA12C08091F802813071F481E09330FF
:1047700009F080E08093F3021092E9008091E80054
:10478000877F8093E800FFDC8091E80083FF0AC008
:104790008091E800877F8093E8008091EB00806241
:1047A0008093EB00AA96E3E07FC00895CF938091B9
:1047B000F502882399F0C091E900CF709091EC0048
:1047C000892F817090FD80E8C82B1092E9008091BC
:1047D000E80083FDAEDECF70C093E900CF9108956D
:1047E00022DD1092F5020895E8EDF0E0808180610D
:1047F00080838AE18A95F1F700C08091D9008170A9
:104800000895A1E21A2EAA1BBB1BFD010DC0AA1F11
:10481000BB1FEE1FFF1FA217B307E407F50720F029
:10482000A21BB30BE40BF50B661F771F881F991FA4
:104830001A9469F760957095809590959B01AC01ED
:10484000BD01CF010895EE0FFF1F0590F491E02DFB
:1048500009942F923F924F925F926F927F928F9224
:104860009F92AF92BF92CF92DF92EF92FF920F93FF
:104870001F93CF93DF93CDB7DEB7CA1BDB0B0FB609
:10488000F894DEBF0FBECDBF09942A8839884888C6
:104890005F846E847D848C849B84AA84B984C8845C
:1048A000DF80EE80FD800C811B81AA81B981CE0F53
:1048B000D11D0FB6F894DEBF0FBECDBFED01089538
:1048C000FB01DC0104C08D910190801921F441505D
:1048D0005040C8F7881B990B0895FB01DC0102C00A
:1048E00001900D9241505040D8F70895F999FECFAC
:1048F00092BD81BDF89A992780B50895A8E1B0E0EE
:1049000042E050E02FC0DC01A40FB51F41505040E1
:1049100040F0CB01840F951F2E9105D0415050409F
:10492000D8F70895262FF999FECF92BD81BDF89A48
:10493000019700B4021639F01FBA20BD0FB6F894E3
:10494000FA9AF99A0FBE08950396272FECDFEADF53
:10495000252FE9DF242FE7CF0196272FE4DFE2CFD1
:10496000DC01CB01FC01F999FECF06C0F2BDE1BD2F
:10497000F89A319600B40D9241505040B8F708951E
:10498000F894FFCF6B0278029202A902B102B8023A
:10499000BF02C402DE02F502FC020303160616067D
:1049A00058065806B1063E063E063E06CD063607B8
:1049B000420742074F15C2155715211525155B15DE
:1049C00029155F156B153515BB1539156F153D1577
:1049D00073159B1541157715A21547157D1585157E
:1049E0002D156315311567154B1581159115AB15EF
:1049F000B9151B155315C9152F1835181F18291867
:104A00003B1841184718BA22E222C423E222C423E9
:0A4A100015233523C42389239523C1
:104A1A000000000000009418A518AB180E0113003E
:104A2A003400FF00AA004902010000000100000052
:104A3A00000000000401000000040500000000005E
:104A4A0000971DC41D9A1DBE1D01E200E900EA007F
:104A5A00B500B600B700CD008301CC008A019201EF
:104A6A0094012102230224022502260227022A0295
:104A7A00B300B4006F0070009F01CB019F02A00237
:104A8A00818283E200E900EA00B500B600B700CDF2
:104A9A00008301CC008A019201940121022302249D
:104AAA00022502260227022A02B300B4006F007010
:104ABA00009F01CB019F02A002818283F4F5F6F7E1
:084ACA003133946697C68602A1
:00000001FF
