:100000002EC2000049C2000047C200000C949E1C92
:1000100043C2000041C200003FC200003DC20000D8
:100020003BC2000039C200000C94A0210C946D2248
:100030000C94201B31C200002FC200002DC2000012
:100040002BC2000029C2000027C2000025C2000008
:1000500023C200000C94C31B1FC200001DC200007D
:100060001BC2000019C2000017C2000015C2000028
:1000700013C2000011C200000FC200000DC2000038
:100080000BC2000009C2000007C2000005C2000048
:1000900003C2000001C20000FFC10000FDC100005A
:1000A000FBC10000F9C10000F7C1000000003400EE
:1000B0003600370013001C00000004001224082240
:1000C00018280C000000330014000D000E001B0067
:1000D0000000000000002900417E2C2100000F00DC
:1000E000150006000A00090000001600113417323E
:1000F0000B38070000001D0019001A001000050051
:100100000000000000002A00427E28310000140098
:100110001A00080015001700000004001600070070
:1001200009000A0000001D001B0006001900050060
:100130000000000000002900417E2C000000005754
:1001400012000C0018001C00000033000F000E000D
:100150000D000B00000038003700360010001100C1
:100160000000000000002A22427E28000000437E9A
:10017000447E457E467E2A0800002B00E200E10016
:10018000E3002A040000477E487E497E4A7E4C04F4
:1001900000000000000000000000000000004F12FE
:1001A000521251125012501A00004F0052005100CA
:1001B0005000501800004F1452145114501450168F
:1001C0000000000000002A00407E2C0F00001E02EC
:1001D0001F02200221022202000059215A245B2220
:1001E0005C285D0000002F0230022D002E02350039
:1001F0000000000000002D022E0004520000270223
:10020000260225022402230200006231613460329A
:100210005F385E0000003100310230002F003800EE
:1002200000000000000000000000000000004B7E05
:100230000000220A210A210B0000000000004700F4
:100240004800060800005000510052004F001908F5
:100250000000000000002900417E2C000000AE00DC
:1002600000000000000000000000BB00A900AA0080
:10027000BC00A80000004F005200510050000000D8
:100280000000000000002A00427E2800000000005C
:10029000000000002A2B28000000000000000000E1
:1002A0000000000000000029000000002C1E342087
:1002B000212224342627252E362D3738271E1F20AD
:1002C0002122232425263333362E37381F040506F2
:1002D0000708090A0B0C0D0E0F1011121314151636
:1002E0001718191A1B1C1D2F3130232D3504050634
:1002F0000708090A0B0C0D0E0F1011121314151616
:100300001718191A1B1C1D2F3130354C0000000026
:1003100000000000000000000000000000000000DD
:1003200000000000000000000000000000000000CD
:100330007E0F00D4FFFFFFC7000000780C034300CE
:100340006F0072006E0065000000100366006F0011
:100350006F007300740061006E0000000403090464
:1003600009023B00020100A0FA0904000001030198
:100370000100092111010001224400070581030841
:10038000000109040100010300000009211101001E
:1003900001226D0007058203200001120100020006
:1003A0000000085346010001000102000105010997
:1003B00080A101850319012AB700150126B7009510
:1003C0000175108100C0050C0901A1018504190106
:1003D0002AA002150126A002950175108100C00512
:1003E000010906A1018506050719E029E715002581
:1003F000019508750181020507190029EF150025EF
:100400000195F07501810205081901290595057509
:10041000019102950175039101C005010906A10131
:10042000050719E029E715002501950875018102E6
:100430009501750881010507190029FF150026FFA0
:100440000095067508810005081901290515002584
:1004500001950575019102950175039101C0112463
:100460001FBECFEFDAE0DEBFCDBF11E0A0E0B1E00C
:10047000E8E4FAE402C005900D92AA3BB107D9F76F
:1004800023E0AAEBB1E001C01D92A030B207E1F772
:100490000E94E4140C94D724B3CD8091BD0188232D
:1004A00021F01092BD018AEA82D38091BC01882399
:1004B00021F01092BC0188E87AC30895CF9380544C
:1004C0009E47C1E08C30910520F5FC01E752FB4DC1
:1004D000DB011596CC910C943A24C11102C0C0E006
:1004E00018C083E090E0CAD58FEF5CD38CE2D6D2FF
:1004F0006CD5F5CFCC2381F084E0EAD5882311F0C8
:1005000084E007D682E0E4D5C82F82E0C111E7CFAE
:10051000F1D58C2FCF910895C0DF82E0D9D5882303
:10052000F1F282E0F6D5F5CFCC2369F084E0D0D5A6
:10053000882311F084E0EDD583E0CAD5C82F81115E
:10054000CECF83E0E5CFA9DF83E0C2D5882309F4CD
:10055000C6CF83E0E7CFCC2309F4CACF88E822D303
:100560008FE29CD2BCCFCC2309F4C2CF88E81AD347
:1005700080E3F7CF83E3CC2309F4BACF13D38BE224
:10058000F0CFCC2309F4B4CF81E1F8CFCC2309F428
:10059000A6CFC091BD01C11110C08091BC018823BC
:1005A00021F01092BC010E94840C8AEAFBD28BE2FB
:1005B000F1D281E08093BD01ACCF8BE2EBD28FCF43
:1005C000CC2309F48CCFC091BC01C111F6CF80912E
:1005D000BD01882321F01092BD010E94840C88E89F
:1005E000E1D28BE2D7D281E08093BC0192CFCC23C1
:1005F00009F47ECF81E1D6D280E5B3CFCC2309F4D4
:1006000077CF81E1CFD28FE4ACCFCC2309F470CF88
:100610008CECC8D28CE0A5CF8530B8F46830A8F453
:10062000463098F450E096E0699F400D511D11242A
:10063000FA0190E3899FE00DF11D1124EE0FFF1FD9
:10064000E455FF4F85919491089581E090E00895DD
:10065000E3CF08959C013A9521153F4150F5FC01E7
:10066000EE27F170BC0166277270AC01442754700C
:100670009C012227387094FF0EC080E1EF2B09F413
:1006800080E0672B09F08062452B09F08064232B02
:1006900089F08068089581E0EF2B09F480E0672BF2
:1006A00009F08260452B09F08460232B19F08860E3
:1006B000089580E00895CF93DF93EB01CBDFFE0137
:1006C0000995DF91CF910895CF93DF93EC01805E80
:1006D0009109089720F06DEC77E0209711F462ED16
:1006E00075E0CE01E8DF8C2FD9D1DF91CF9108954D
:1006F000CF93DF93EC0111D2CE01805E9109089770
:1007000020F062ED77E0209711F467ED75E0CE01FF
:10071000D2DFDF91CF91089581E00895FDCF089554
:1007200081E00895CBCE08950895FECF0895A6E008
:10073000B0E0EDE9F3E00C944F2449835A839E83A3
:100740003091CA0189819A81311117C03E813323CA
:1007500089F0222379F08CD5182F682F89819A810E
:1007600065D569817A81812F0E94E30F2696E3E0A7
:100770000C946B246CD5182FF4CF7AD569817A81CB
:10078000F3CFFC01262F40815181628173818481E6
:100790009581CDCF0895CF93DF93EC0161E0F1DF38
:1007A000BE01BCDFDF91CF910895CF93DF93EC01C1
:1007B00060E0E7DFBE01B9DFDF91CF9108950895D2
:1007C00004D4FDDF2FEF84E39CE021508040904073
:1007D000E1F700C000000895F3DF0C94E71B0895D3
:1007E000EFDF0C94F81B08950F931F93CF93DF93C3
:1007F0008C0161E0C6DFEC01B8010E94CE188823AD
:1008000021F061E0C801BDDFEC01B801CE018ADF53
:10081000811106C080E0DF91CF911F910F91089563
:10082000B801CE010E94C4168823A1F3B801CE01FD
:100830000E94F518882371F3B801CE010E9479193E
:10084000882341F3B801CE010E942418882311F3B4
:10085000B801CE010E9409158823E1F2B801CE014A
:100860000E9493178823B1F2F8018581882361F0F3
:10087000C330FCE7DF07D9F050F4C115ECE7DE0721
:10088000A1F0C130DC47A9F0C8014ADFC4CFCB35A5
:100890008CE7D80799F0CC35ECE7DE0761F0CA3574
:1008A000DC4791F70E945B0DEFCF96DFB3CF0E943C
:1008B000610D96DFAFCF0E94520DE6CF0E945E0D14
:1008C000E3CF0E94011B96C0089597D00C94051B9E
:1008D00008952F923F924F925F926F927F928F92E4
:1008E0009F92AF92BF92CF92DF92EF92FF920F93BF
:1008F000CF93DF931C0129013A016B0181E0C81AF3
:10090000D108E101CC0DDD1D1882F12CE12C8AE02B
:10091000882E912CA12CB12CEC14FD0498F0C1016F
:10092000DF91CF910F91FF90EF90DF90CF90BF902C
:10093000AF909F908F907F906F905F904F903F907F
:100940002F900895C301B201A50194010E941824BB
:10095000605D603319F4E114F10431F04114510485
:100960006104710409F4602F6A93C301B201A50107
:1009700094010E94182429013A018FEFE81AF80A1D
:10098000CBCF0F932091140130911501281739070F
:1009900021F42091C401261789F0909315018093CA
:1009A00014016093C4019C0150E040E0062F66E012
:1009B00070E08EEB91E08DDF0F9108958EEB91E06A
:1009C000FBCF089581E008950895CF93DF93D82F4A
:1009D000F9DFC82F882311F08D2FF6DF8C2FDF91E0
:1009E000CF9108950895CF93C82FEBDF8C2FEDDFC3
:1009F000CF91089580E0F7CF08950E94B019F3CF0A
:100A00000895CF930E94B019C82F8091C5018C170B
:100A100071F0C093C5010E948C1B6093C601709356
:100A2000C7018093C8019093C9018C2FDCDFCF915F
:100A30000895ADE0B0E0EFE1F5E00C945024488774
:100A400059876A877B878C879D87911170D71F8212
:100A500086E0FE013896DE01119601900D928A958E
:100A6000E1F78D8181110CC029813A814B815C8134
:100A70006D817E818F8191D62D96E2E00C946C245D
:100A8000CE01019688DE8111EFCFF6CFFC012481E3
:100A9000213019F4808191811CC40895CF93C82F0F
:100AA000882399F08CEF8C0F813A88F46C2F809119
:100AB0001801909119010E943B1A882319F08C2F7C
:100AC000F3D66BD78C2FE8D668D7CF91089580E204
:100AD0008C0F883040F4C77081E001C0880FCA9540
:100AE000EAF705D7F1CFEBE5EC0FE33040F4F0E0A7
:100AF000EE58FE4F808190E00E94DD19E6CFC85A83
:100B0000CB3118F7EC2FF0E0EE0FFF1FE45CFE4F47
:100B1000808191810E94021AD8CF882321F19CEF15
:100B2000980F913A18F4C0D638C7089590E2980FFC
:100B3000983048F4877091E001C0990F8A95EAF7E0
:100B4000892FDBD6F1CF9BE5980F933028F490E006
:100B500080E00C94DD190895885A8B3120F490E0E0
:100B600080E00C94021A08951F93CF93DF93182FFF
:100B7000EB0194DF209731F4812FCFDFDF91CF910C
:100B80001F9108958FE99FE00197F1F700C00000E1
:100B90002197F0CF70E060E0893311F460E570E0F8
:100BA000E3CF0895882311F0A2D6F7C608958823CD
:100BB00011F0A3D6F2C60895B0E0A0E0E2EEF5E0B1
:100BC0000C9449246C01D62FC72FFC011581068196
:100BD00002950F7082D6E82E8823D9F0E12E1123DA
:100BE000C1F08C2F807F803451F080E28D0F8830EF
:100BF000E8F0011104C08C2F807E8032B9F0809122
:100C0000DC0282FF13C082E025D767D691E0E82E90
:100C1000E926BC2EB2949FE0B922FBE0FB1580F1DF
:100C2000EB2DF0E0EB51FB4D0C943A24E12CF1CF8D
:100C30000C2F0F70C07F11F00295007F112381F0FF
:100C4000002349F080E28D0F883010F0D11105C0EB
:100C5000802F4DD6A2D68D2F4CC0802F5BD6FACFD9
:100C60008D2F5BDF002361F080E28D0F883010F064
:100C7000D11103C0802F41D602C0802F51D68DD60E
:100C8000EB2DE850FF0B349718F40E94B019ABDE3F
:100C9000EE2059F01ED680FD08C0F601158213D64D
:100CA00029D2C6015CD10FD634D2CDB7DEB7E9E088
:100CB0000C9465242C2F2F70F22EC07FC03219F0B7
:100CC000F29480EFF822DD2341F0D13089F1112335
:100CD00009F439C00023D1F0BECF8091DC0282FD3F
:100CE00011C0112341F0FF2019F08F2D00D655D6E9
:100CF00080E0D4DEC5CF80E010DFFF2009F4C0CF54
:100D00008F2DB9CF112359F0011103C08F2D4ADF68
:100D1000B7CF013009F0B4CF8F2D20D6B1CF01115C
:100D2000AFCF8F2D44DF8F2D24D68F2D09D6A8CF9E
:100D3000112321F0023008F0A3CFE8CF0111A0CF9A
:100D40008F2D35DF9DCF0023D9F3D93349F43FEF01
:100D500087EE93E0315080409040E1F700C0000002
:100D60008D2FDBDE8DCF8C2F86958695837069F075
:100D7000813009F085CF8D2F9C2F9370111102C007
:100D800080E090E00E94021A7BCF8D2F9C2F937001
:100D9000111102C080E090E00E94DD1971CF8C2F0C
:100DA000837081F511116CCF4D2F42954695477098
:100DB000440F440F2D2F2F7030E0042E02C0220F5D
:100DC000331F0A94E2F790E080E0D4FF09C08FE07F
:100DD00090E002C0880F991F4A95E2F780959095A0
:100DE000C695C695C370822B932BC23039F040F460
:100DF000C13011F03BD144CF31D142CF3FD140CFB0
:100E00002BD13ECF8695112311F08C2F8170882332
:100E100009F436CF4D2F429546954770440F440F45
:100E20002D2F2F7030E0042E02C0220F331F0A94A2
:100E3000E2F790E080E0D4FF09C08FE090E002C0CC
:100E4000880F991F4A95E2F780959095C695C695AB
:100E5000C370822B932BC23039F040F4C13011F0B3
:100E600080D10ECF76D10CCF84D10ACF13D108CF49
:100E7000CF70112321F08C2F3DD18D2F48CF8D2F96
:100E800096DE8C2F46D1FCCED23F31F160F4D03FBC
:100E9000B9F0D13F81F0112309F43DC00111DBCE3F
:100EA0008C2F8F711DC0D33FE9F0D43FA1F7809103
:100EB000DC0282FD1FC08C2F8F71112319F310C02B
:100EC000112331F00111DCCE8C2F8F7133D1D8CEAC
:100ED000023008F0D5CEF8CF8C2F8F711111D2CF00
:100EE00009D1CECE112321F08C2F8F71F8D0C8CE2E
:100EF000D7D0C6CE112339F0CF718C2FFBD063E051
:100F00008C2F8ED5BDCE81E0A5D5023008F4B8CEA9
:100F100082E0A0D5B5CE002359F0D93309F020CF17
:100F2000EFEFF7EE23E0E150F0402040E1F716CF7D
:100F30008C2F8F71A7CF0F931F93CF93DF93EC016B
:100F4000688179818D81CED18C011BD184D0B8018B
:100F5000CE0132DEDF91CF911F910F910895CF9393
:100F6000DF93EC018C81882381F0CE013DDC81117F
:100F70000FC0B3D4882349F08D81882331F080914C
:100F8000DC0282FF02C082E065D5DF91CF91089537
:100F9000CE01D1DFCE0109DCF8CF882311F0BAD41D
:100FA000FCC40895882311F0BBD4F7C4089590E0E1
:100FB00080E00E94DD1990E080E00E94021AB7D420
:100FC000ECC4089579D4F3CF08959ED4FBCF08954F
:100FD00092959F70963091F058F4925F9F70923086
:100FE00058F4803F19F030F4883E30F481E00895E1
:100FF0009A5FF4CF843FD1F380E00895883EB0F348
:10100000813FD1F7F3CFFC012481222329F0808195
:1010100091815FD1DDCF089580E00895A6E0B0E032
:10102000E4E1F8E00C9450242696E2E00C946C2461
:10103000A7E0B0E0EEE1F8E00C9450242796E2E05F
:101040000C946C240895FECF0895FDDF9093E60183
:101050008093E50108950895F8CF08952091E50162
:101060003091E601822B932BF0CF08952091E5017A
:101070003091E60182239323E8CF08952091E50182
:101080003091E60182279327E0CF0895DBCF0895C2
:10109000FDCF0895FDDF9093E4018093E30108956F
:1010A00090E080E0F7CF0895009729F481E066236F
:1010B00071F080E00CC021E030E002C0220F331F4D
:1010C0006A95E2F72823392381E0232B91F30895D1
:1010D000682F8091E3019091E401E6CF089521E02B
:1010E00030E0A90102C0440F551F8A95E2F7CA01FA
:1010F000D1CF089521E030E002C0220F331F8A953E
:10110000E2F78091E3019091E401822B932BC2CF0F
:10111000089521E030E002C0220F331F8A95E2F7E4
:10112000209530958091E3019091E40182239323EF
:10113000B1CF089521E030E002C0220F331F8A951D
:10114000E2F78091E3019091E40182279327A2CFF7
:1011500008952091E3013091E401822B932B9ACFE3
:1011600008952091E3013091E4018223932392CFEB
:1011700008952091E3013091E401822793278ACFDB
:1011800008950895262F277091E001C0990F2A95A0
:10119000EAF723E0769567952A95E1F7660F771FC2
:1011A000660F771FFA01E60FF71F50E040E0682F47
:1011B00070E08191DF0111979B01042E02C03695EA
:1011C00027950A94E2F721702195282729232827BB
:1011D0002C934F5F5F4F4430510559F70895A82F66
:1011E000A77023E0969587952A95E1F7880F991FB8
:1011F000880F991FFB01E80FF91F50E040E080E0E5
:10120000219130E00A2E02C0369527950A94E2F724
:1012100021703327042E01C0220F0A94EAF7822B93
:101220004F5F5F4F4430510559F70895262F98308E
:1012300068F4863058F4682F70E086E0989F600D5F
:10124000711D11244BEC51E0822F9CCF0895292F62
:10125000983060F4863050F490E06BEC71E036E04A
:10126000239F800D911D1124BACF089580E0089529
:10127000B0E0A0E0EEE3F9E00C9449247C01009199
:10128000E3011091E4018091E5019091E601082BC2
:10129000192BCFE0D0E0CC24C394D12CBC2EC601B6
:1012A0000C2E02C0880F991F0A94E2F78023912325
:1012B000892B49F4219790F7B12C8B2DCDB7DEB750
:1012C000E9E00C946524B7018C2F89D6019791F33E
:1012D000F4CFCF93DF93EC01CBDFBE0180D6DF915B
:1012E000CF9108951F93CF93DF93EB019091CA01A3
:1012F000992331F0CB01EDDFDF91CF911F9108955C
:10130000882351F0CB01B4DF182F682FCE018EDF78
:10131000BE01812F64D6F0CFCB0199DF182FF8CF13
:101320001F93CF93DF93C091E70117E08091E8010D
:101330008C1304C0DF91CF911F910895D0E01C9FC2
:10134000F0011D9FF00D1124E751FE4F20813181E6
:10135000428153816481758186816ADE2196C770DE
:10136000E5CF209121023091220240912302509139
:10137000240260912502709126028091270258CEA6
:1013800008950F931F93CF93DF9380912702807F5F
:1013900009F04FC080912602882309F44AC0E091E9
:1013A000E701D091E80110912202009121024091C1
:1013B0002302509124026091160170911701C7E039
:1013C000DE17B9F18E2F90E0EC9FF0011124E75168
:1013D000FE4F2481222391F1C89FF001C99FF00D97
:1013E0001124DF01A751BE4F11962C9111972113A3
:1013F00025C02C91201322C015962C9115972111F0
:101400001DC012962D913C91241B350B26173707D2
:10141000A8F4809127028F70806180932702E151A8
:10142000FE4F80818F708061808381E292E097DD42
:1014300077DFDF91CF911F910F910895FC013196D5
:10144000E770BECF482F2091E7019091E80157E067
:10145000291302C080E0089530E0529FF001539FAD
:10146000F00D1124E751FE4F8181681306C0808181
:10147000481303C085818111EECF2F5F3F4F277046
:10148000E7CFA4E1B0E0E7E4FAE00C9446248C0155
:1014900086E0F801DE011F9601900D928A95E1F732
:1014A000D80114968C9114971596EC90159791E2AB
:1014B000A92E92E0B92E9091250291111AC088238D
:1014C000A9F0EE2089F0C8019EDDF82E882361F096
:1014D00087E0F801D50101900D928A95E1F7C501E9
:1014E000D5DA4FDF3EDF3FC0C80139DDFF24F3947A
:1014F0003AC0F801C080D18082809380F0902602AB
:101500002091230230912402A401421B530B9A0123
:101510004091160150911701FF2009F4E7C02417EC
:10152000350708F09AC08823F1F09091220280914B
:101530002702282F207F09F060C09D1119C09091CB
:1015400021029C1115C0E11052C08F708061809300
:10155000270207DF81E292E002DD80912702D801B5
:1015600016968C93F12C8F2D6496ECE00C946224EB
:10157000E1103DC06D2D8C2D65DFE82E882361F0D4
:1015800081E292E0ECDC87E0E1E2F2E0DF011D9233
:101590008A95E9F7E6DEE6CFCF86D88A8F859889E7
:1015A00098DE292F22952F70243058F49F70223016
:1015B00080F0992391F0F8019681907F71F4FE2CD0
:1015C000D2CF2A5F2F70223060F0C801C8DCEF2C28
:1015D000F6CF992311F0882391F3805E883078F359
:1015E000F4CF803F60F3815F833078F7E8CF80915C
:1015F0002702816080932702B5CF9D1107C090918B
:1016000021029C1103C0EE2009F498C0C801FBDC44
:10161000882309F469CFEE2009F466CF8091270270
:10162000803280F020912102309122023987288770
:101630009B868A86909125029C871D868E87CE0187
:1016400008968DDC87E0F801A1E2B2E001900D92EE
:101650008A95E1F796DE85DE49CF90912702292F02
:10166000207F81F4682D9A8A898AA6017A899E2D25
:10167000D5DC81E292E073DC87E0F50111928A9576
:10168000E9F788CF882309F46ECF809122028D116B
:1016900010C0809121028C110CC0E1100AC0169676
:1016A0009C93C8015CDC87E0F50111928A95E9F70B
:1016B0005ACFC801A8DC882309F416CFEE2009F41C
:1016C00013CF80912702803208F4BCCF20912102F1
:1016D000309122023A8329839C828B829091250249
:1016E0009D831E828F83CE010196ABCF24173507D1
:1016F00008F046C0882309F4F9CEFE2CEE2009F448
:10170000F3CE809122028D112FC0809121028C1185
:101710002BC02A3A3105F8F49091270290FD1BC0A6
:10172000907FC9F08091270216968C931697903F70
:1017300039F0982F907F905F8F70892B16968C933D
:10174000C8010DDC87E0F801A1E2B2E001900D9242
:101750008A95E1F7C7CE87E0F801A1E2B2E00190F7
:101760000D928A95E1F7FFCEC8014DDC81116ACF59
:1017700080912702816080932702C801F0DBF3CEBD
:10178000682D9A8A898AA6017A899E2D47DC87E08E
:10179000F50111928A95E9F7A5CEAEE0B0E0E3ED50
:1017A000FBE00C944F24288739874A875B876C8736
:1017B0007D878E87CE01089664DE8823A9F06C852C
:1017C000662339F0288539854A855B857D858E8538
:1017D0002FDC17E08091E7019091E80189133BC06D
:1017E0002E96E3E00C946B2487E0FE013896DE0130
:1017F000119601900D928A95E1F78C85882349F323
:101800002091E80130E0C901019687709927409145
:10181000E7014817190691F097E0929FD001939F36
:10182000B00D1124A751BE4FFE01319601900D92CB
:101830009A95E1F78093E80173DDCBCFC6DB109278
:10184000E8011092E70187E0E1E2F2E0DF011D929A
:101850008A95E9F7BECF819FC001112487519E4F21
:1018600010DE882309F4BCCFE091E7011E9FF00150
:101870001124E751FE4F20813181428153816481DF
:1018800075818681D5DB8091E70190E001968770B4
:1018900099278093E7019ECF682F8091180190913E
:1018A00019010C94BB1A0895682F8091180190912A
:1018B00019010C94C71A089580911801909119018B
:1018C0000C94D31A08958091480286958695869542
:1018D000089580914802877008959091480297700A
:1018E00081E009F480E0089580916C020895909160
:1018F0006C02892B80936C020895809590916C0204
:10190000982390936C02089510926C020895809130
:101910006B02089590916B02892B80936B0208955E
:10192000809590916B02982390936B02089510928A
:101930006B02089580914A0208950895FECF08959C
:1019400090914902292F282329F08095892380939B
:101950004902F4CF08950895FECF089590914A0268
:10196000292F2823281721F0982B90934A02F4CF8F
:10197000089590914A02292F282329F080958923E0
:1019800080934A02E9CF089580914A02882321F08A
:1019900010924A0280E0E0CF0895CF93DF93E09168
:1019A0001801F091190180916C028083E091180177
:1019B000F0911901808190916B02892B8083909125
:1019C0004A02992379F0E0911801F0911901808180
:1019D000892B808380911801909119010E94271A08
:1019E0008111D2DFC0911801D091190140E250E07D
:1019F00068E272E0CE010E947724892B59F080E2E0
:101A0000FE01A8E2B2E001900D928A95E1F7CE01C5
:101A10000E94C319DF91CF9108950895FECF0895D4
:101A20009091DC0292FF0FC098E0899F90011124F1
:101A3000622B609348025EDB809148028695869512
:101A40008695ECCF089556CB08951092480280E019
:101A5000E5CF0895909148028095892380934802AC
:101A6000282F277059F4891749F09091DC0292FFD2
:101A700005C08695869586954CDBE7CF08959091B5
:101A8000DC0292FB222720F9281759F080FB92F9FB
:101A90009093DC028091DB029091DC0233D082E0F3
:101AA000D9CF08958091DC0282FB882780F991E0EC
:101AB0008927E5CF089581E0E2CF089580E0DFCF68
:101AC00008956FEF7FEF90E080E00C94C3240895B9
:101AD00090E080E00E94952421E0863E9E4F09F030
:101AE00020E0822F089582E090E00C948D240895E8
:101AF00083E090E00C948D24089584E090E00C94B1
:101B000095240895BC0184E090E00C94C3240895CA
:101B1000AB01BC018FE090E00C94BB240895AB01B5
:101B2000BC0183E190E00C94BB24089560E070E078
:101B3000CB01F5CF089560E070E0CB01E9DFF6CF8F
:101B40000895A8E0B0E0E7EAFDE00C94502466EECA
:101B50007EEF90E080E00E94C32460E082E090E0AD
:101B60000E94A92460E083E090E00E94A9241092E2
:101B7000E6011092E50160E074E184E090E00E94EB
:101B8000C32460E086E090E00E94A9246FEF87E024
:101B900090E00E94A92440E050E0BA0188E090E083
:101BA0000E94BB2460E084E290E00E94A92460E0EF
:101BB00087E190E00E94A92460E08CE090E00E9420
:101BC000A92460E08DE090E00E94A92419821A8285
:101BD0001B821C821D821E821F82188648E050E0F4
:101BE00068E170E0CE0101960E949A2440E050E046
:101BF000BA0180E290E00E94BB249DDF2896E2E0DB
:101C00000C946C249ECF0895682F8EE090E00C9485
:101C1000A9240895A6E0B0E0E0E1FEE00C944E2493
:101C20000E94801B8C0180916D0290916E02801742
:101C3000910781F019821A820E94801B682F4981C6
:101C40005A81792F80E090E00E94190510936E026E
:101C500000936D022696E4E00C946A24D9D2609336
:101C60007B0270937C0280937D0290937E0260934E
:101C70007702709378028093790290937A020895A4
:101C800008950895FDCF08950895FECF089581E049
:101C9000089581E291E1A0D6F4DFF4CF0895A2C4C3
:101CA000089508950895FDDFFDCF0895E8D20C94BE
:101CB000F20408950E94771B86D2AED4FAD3F6DFE1
:101CC00090D6B1D4E2CF08958DD4882321F00E941C
:101CD00053190C947B170895A6E0B0E0E2E7FEE00C
:101CE0000C944724D4DF811108C094DFEDDF0E94FB
:101CF00001052696EBE00C946324FBD38FE6A82E17
:101D000082E0B82E750110E0F70101917F01812F6B
:101D1000D4D21F5F183009F43DC00817A9F3809191
:101D20007F0281FDD0D2BBDFC82E10E099249394AE
:101D3000812FC3D2082FF50181915F01081729F186
:101D4000D02ED826F12CEE24E3948D2D8E21A9F0EF
:101D5000CC2099F0F9821A830E94801B9C838B838C
:101D60009D8291E0802F8E2109F490E049815A8173
:101D70006B817C818D810E941905F394EE0CF6E055
:101D8000FF12E3CFF501319700831F5F183081F612
:101D900065DFACCF0813C3CFA8CF1F93CF93DF93DA
:101DA00021D1EC01C11580E5D807F0F5C11580E41B
:101DB000D80708F09AC0C03ED10520F5CD3CD1052A
:101DC00008F082C0C83AD10578F4C53AD10508F0C8
:101DD00073C0C130D10519F1209709F1C430D10584
:101DE000F0F4D0E0C0E01BC0C33CD105D0F7C85A26
:101DF000D0E0CC0FDD1FCB58DE4F0990D881C02D2D
:101E0000D4640DC0C11580E2D80708F0CCC0C1155C
:101E100081E0D80708F05AC0C83ED10510F7CE01BE
:101E2000DF91CF911F910895C03682E5D80718F54C
:101E3000C03482E5D80708F068C0C03282E5D80710
:101E400008F05CC0C11582E5D80708F493C02C2FB8
:101E50002695269580E2289F900111248C2F83706F
:101E6000C1E0D0E002C0CC0FDD1F8A95E2F7C22BA3
:101E7000D32BDD68D4CFC03A82E5D80760F4C038F0
:101E800082E5D80708F456C0CF71D0E0DC2FCC270C
:101E9000C46FD06AC4CFC03C82E5D80708F45FC0E5
:101EA000C03E82E5D80708F09CCFDC2FCC27CC279A
:101EB000DF71C06FD06AB3CFC55AD0E0C555DE4FD1
:101EC000C881D0E0D064ABCFD065A9CF8D2F2CD105
:101ED000182FCE01992786D0C12FD0E0DC2FCC2738
:101EE000CC27DF71C82BD92B9ACFCE0199277AD076
:101EF000CC27DF70C82BD92BD06A91CFCF71D0E01F
:101F0000DC2FCC27C16FD06A8ACF2C2F269526953F
:101F1000277080E2289F900111248C2F8370C1E0EC
:101F2000D0E002C0CC0FDD1F8A95E2F7C22BD32B85
:101F3000DC6875CF2C2F26952695277080E2289F88
:101F4000900111248C2F8370C1E0D0E002C0CC0F2F
:101F5000DD1F8A95E2F7C22BD32BDA6860CF8C2F76
:101F60008F71E2D0C82FD0E0DC2FCC27CC27DF71D7
:101F7000D06255CF8C2F8F71D7D055E0D695C795AD
:101F80005A95E1F7CF70D0E0DC2FCC27282F30E036
:101F900084FF05C044E0220F331F4A95E1F7C22BAE
:101FA000D32BD0693CCF8D2F8F71BED0182FCE018F
:101FB000992718D0C12FD0E0DC2FCC27CC27DF7198
:101FC000C82BD92BD5CF462F783030F4663020F48B
:101FD000672F0C942803089590E080E00895F3DFC4
:101FE000DCCE089582389105B9F1B0F481339105C2
:101FF00009F47DC048F48932910509F46DC08A3234
:10200000910509F47BC008958533910509F45FC0FB
:102010008933910509F10895833E9105D9F138F48A
:10202000803E910529F1823E910579F10895863E21
:102030009105D9F1873E910509F43EC0843E910592
:1020400041F52091DC0221FF24C08091DB0284FD58
:1020500019C087EE90E008952091DB02237009F00B
:102060005AC02091DC0223FF14C089E290E0089559
:102070002091DB0220FD38C03091DC0230FF09C026
:1020800024FF43C090E080E008952091DB0222FD10
:10209000F7CF08952091DB0222FD3AC03091DC0297
:1020A00030FD39C024FFF5CFEDCF2091DB0223FFB7
:1020B000F0CF24FDE7CFCDCF2091DB0223FD2EC052
:1020C0003091DC0231FFEECF84EE90E00895209154
:1020D000DB0225FFDECFC9CF2091DB0225FD21C029
:1020E0002091DC0223FFD5CF89E390E0D2CF20916D
:1020F000DB0226FFCECF8AE290E008952091DB023A
:1021000026FFC7CF81E390E0089583EE90E0089525
:1021100082EE90E0089580EE90E0089586EE90E0E3
:10212000089585E390E008959091DB0292FF10C03E
:1021300041E0282F2471243009F040E031E0282FBD
:102140002871283009F030E0431711F02CE0822785
:1021500093FF10C041E0282F2471243109F040E0A2
:1021600031E0282F2871283109F030E0431711F0B1
:102170002CE082273091DC0230FF10C051E0282F84
:102180002171213009F050E041E0282F28712830DA
:1021900009F040E0541711F029E0822731FF10C008
:1021A00041E0282F2171213109F040E031E0282F52
:1021B0002871283109F030E0431711F029E0822717
:1021C00094FD877E08951092D7021092D802109243
:1021D000D9021092DA020895CF92DF92EF92FF9225
:1021E0006B017C01FFD181110EC00E948C1BC61AAD
:1021F000D70AE80AF90AC092D702D092D802E09230
:10220000D902F092DA02FF90EF90DF90CF9008951C
:102210000F931F93E7D1882329F00E948C1B1F91F5
:102220000F9108950E948C1B0091D7021091D80243
:102230002091D9023091DA02600F711F821F931F23
:10224000EECF80E008953DCC089553D12FEF86E77F
:1022500091E0215080409040E1F700C0000049D15A
:10226000D9D1811108C084E028D081FF03C0EBDF01
:102270000C94E71B089580E0F7CFE7CF089528DCA2
:10228000811101C0BFDC2FDC80937F0236DC90938C
:10229000DC028093DB02F1DF2BDC90E00E942C0853
:1022A0008091E3019091E4010C9448080895089509
:1022B000FECF08950895FECF0895E82FF0E0EA518B
:1022C000FD4F80810895089580EA8A95F1F7089579
:1022D00000C00895F9CF08950895FECF0895EF92B4
:1022E000FF921F93CF93DF9300D000D0CDB7DEB71E
:1022F00079D1182F6091EE02882309F445C0198224
:102300001A821B821C82862F90E09E012F5F3F4F16
:102310007901B9018A519D4F92D18823E1F08091D2
:10232000DD0290E044E050E0B7018A519D4F0E94E9
:10233000772421E020938002892BC1F410E0BBDFD9
:10234000812F0F900F900F900F90DF91CF911F91E1
:10235000FF90EF90089580918002882379F384E0C4
:10236000F70111928A95E9F710928002E091DD025F
:10237000F0E0EA51FD4F89819A81AB81BC81808375
:102380009183A283B383DBCF70E06A517D4F80914C
:10239000DD0290E08A519D4FD7D19FDFD1CFF894D5
:1023A000E82FE295EF70F0E031A1282F2F7081E047
:1023B00090E001C0880F2A95EAF7982F9095932313
:1023C00091A392A1892B82A378940895CF93DF9350
:1023D00084E9E5DF86E6E3DF87E9E1DF86ECDFDF3E
:1023E000CEEAD1E089918F3F09F0D9DF81E0C43B8B
:1023F000D807C1F7DF91CF910895B0E0A0E0E3E006
:10240000F2E10C944A24EC01D62E062F10E0C8010C
:102410008C549E4F7C01FC0180818F3F09F442C0A7
:10242000F894E82FE295EF70F0E091A18F7021E031
:1024300030E001C0220F8A95EAF7892F822B81A311
:1024400082A12095282322A3789442DFEEEAF1E0CE
:1024500044EB51E031E0C12C21912F3F41F1A22FFB
:10246000A295AF70B0E090968C9190E02F7002C072
:10247000959587952A95E2F780FD19C0832FC82A84
:10248000330F4E175F0741F7F70180818F3F09F047
:1024900086DF61E0C11001C060E08D2D1BDFC00F41
:1024A000D11FC882CDB7DEB7E8E00C94662480E087
:1024B000E6CF80911A0180911A0194E0811190E099
:1024C0009093EE0284E0891B8093DD027FDF88E039
:1024D000E6EEF2E0DF01982F1D929A95E9F7EEED16
:1024E000F2E0DF011D928A95E9F784E03DD0E0CE6D
:1024F0000895A8E0B0E0EFE7F2E10C944D248E01DE
:102500000F5F1F4F88E0F80111928A95E9F7F12CCF
:102510006F2DC80172DFF394F4E0FF12F9CF48E0A9
:1025200050E0B8018EED92E00E94772421E0009700
:1025300009F420E0892B41F088E0F801AEEDB2E02B
:1025400001900D928A95E1F76091EE0270E06A5178
:102550007D4F44E08EED92E008D0182FC0DE812B35
:102560002896E5E00C9469240895CF92DF92EF92CB
:10257000FF920F931F93CF936C017B01042F2223B3
:1025800049F081E0809383020E94801B9093820235
:1025900080938102C0918302C1110AC0C0E08C2FD8
:1025A000CF911F910F91FF90EF90DF90CF90089502
:1025B00080918102909182020E94981B059770F38E
:1025C00010E0A801B601C7010E947724892B41F0D1
:1025D000A801B601C7010E94842410928302DFCFB4
:1025E000C0E0FBCF80918602811107C00E940B24BE
:1025F000882351F081E08093860281E090918602E9
:10260000913009F080E0089582E0809386020E9474
:102610000724F3CFE7CF0895FDDF80931A01E2DFAF
:10262000811142C00895DEDF811101C040C00895CC
:1026300081E0909187029A3008F080E008950F932E
:102640001F93CF93DF93EC018B01809187028A3037
:10265000B0F4B801CE0176D0C82F811122C080918C
:1026600087028F3FB9F40E94801B9093850280936C
:1026700084028C2FDF91CF911F910F91089580914B
:102680008402909185020E94981B843F914008F734
:10269000C0E0EFCF8F5F809387028A3020F7C1E0E0
:1026A000E8CF10928702E5CF0C945B1C08950C9440
:1026B0005E1C0895B0E0A0E0E0E6F3E10C944B244A
:1026C0007901C82F880FDD0B41155105A9F0FE01D6
:1026D00093E0EE0FFF1F9A95E1F7E55EFE4F8181D3
:1026E000928188579D4F208130E04217530708F4AC
:1026F0009A01A9010E948424CE010E943E1DD82E79
:102700008823D1F001151105B9F083E0CC0FDD1F4E
:102710008A95E1F7FE01E55EFE4F438150E0041724
:10272000150708F4A801C55EDE4F6C817D816857EE
:102730007D4FC7010E9484248D2DCDB7DEB7E7E021
:102740000C946724ECC00895FFC00895A4E0B0E0A5
:10275000ECEAF3E10C944E2460919D0270919E028C
:1027600080919F029091A002F2D711E0643671052A
:102770008105910500F14CDD6E5F7F4F8F4F9F4FBC
:1027800069837A838B839C8310E000E030E020E053
:1027900044E050E0BE016F5F7F4F82E08BDF182F77
:1027A000882349F0B9D760939D0270939E0280936D
:1027B0009F029093A002812F2496E4E00C946A2457
:1027C000B0E0A0E0E6EEF3E10C9448247C015B016C
:1027D0006A012EDF01E010E0882311F00AE010E02A
:1027E000C1E0D0E0B501C701F6010995811104C02F
:1027F00021960C171D072CF4CDB7DEB7EAE00C9438
:102800006424CC9F9001CD9F300D300D112490E0B9
:1028100080E045E34A95F1F700000196821793079F
:10282000C1F7E0CFA5E0B0E0E8E1F4E10C94482482
:102830005B01E090B801F090B90101E010E09E0169
:102840002B5F3F4F50E040E070E060E080E032DF1F
:10285000182F882309F446C067018FEFC81AD80AD9
:102860006091990270919A0280919B0290919C02D2
:102870006ED7643671058105910568F104E010E0BA
:102880009E012F5F3F4F50E040E070E060E081E04C
:1028900011DFF82E64E070E0C601A4D011E09D8144
:1028A000981310E01F2149F137D760939902709374
:1028B0009A0280939B0290939C0289819A81AB81BA
:1028C000BC818093950290939602A0939702B09357
:1028D000980211E012C064E070E0C60183D09D81CF
:1028E0008913CCCFF70181819281A381B48189833F
:1028F0009A83AB83BC831111E0CF809195029091B4
:102900009602A0919702B0919802F501808391837D
:10291000A283B383812F2596EAE00C9464240F935D
:102920001F93CF93DF93EC018B0142E154E148DF29
:10293000882329F046EA53E1B801CE0141DFDF9157
:10294000CF911F910F9108950F931F93CF93DF9312
:10295000C091B801D091B901CE01019624E0FB01EC
:10296000DC0101900D922A95E1F764E070E03AD025
:1029700088836D817E818F8198850091910210916D
:10298000920220919302309194026017710782079E
:10299000930749F06093910270939202809393029F
:1029A0009093940219DCDF91CF911F910F910895BC
:1029B0000E94021F7FD90C940C1F08950E94101FC3
:1029C0008BD90C94261F089534D60E94E91E61D934
:1029D000EFDFF4DF68D9FDCF9093BB018093BA019C
:1029E00008950895FC01680F791F8FEF91E36E172A
:1029F0007F0709F408952191822728E030E087FFBE
:102A000006C0880F892721503109C9F7F0CF880FF8
:102A1000FACFCF93DF93EC01FB018581882309F482
:102A2000D0C09E0130572332310508F0B0C065D8C0
:102A30009093DC028093DB02FE01E150F047E2322A
:102A4000F10520F4EF50FB4D0C943A248091DB0209
:102A500081608093DB0292C08091DC028860809369
:102A6000DC028CC08091DB028260F3CF8091DB02BC
:102A70008460EFCF8091DB028860EBCF8091DC0235
:102A80008160EDCF8091DC028260E9CF8091DB0232
:102A90008061DFCF8091DB028062DBCF8091DB023F
:102AA0008064D7CF0E94E5078091DB028068D1CF98
:102AB0008091DB028C60CDCF8091DC028360CFCF30
:102AC0008091DB028E7FC5CF8091DC02877FC7CFEC
:102AD0008091DB028D7FBDCF8091DB028B7FB9CFF0
:102AE0008091DB02877FB5CF8091DC028E7FB7CFEC
:102AF0008091DC028D7FB3CF8091DB028F7EA9CFE6
:102B00008091DB028F7DA5CF8091DB028F7BA1CFEF
:102B10000E94E5078091DB028F779BCF8091DB02DB
:102B2000837F97CF8091DC028C7F99CF8091DB02ED
:102B300082FB992790F921E0922790FB82F990FB84
:102B400083F987CF8091DC02982F909591708E7FCA
:102B5000892B90FB81F983CF9091DB02892F8F7BAA
:102B600096FF806476CF0E94E5079091DB02892F63
:102B700097FB87F980586DCF81E046D88091DB02C2
:102B80009091DC020E94820D0E94E50780E0DF91B7
:102B9000CF91089580E0F1CF9091DB02892F8F7E55
:102BA00094FF806156CF9091DB02892F8E7F90FF3A
:102BB00081604FCF9091DC02892F877F93FF8860DF
:102BC0004ECF81E0E4CFB0E0A0E0E9EEF5E10C9477
:102BD0004B24E82FF0E0E457FD4FD490282F2695A2
:102BE0002695269530E0F901E45DFC4F049187704D
:102BF00010E0082E02C0159507950A94E2F70170BF
:102C00001127F901E45EFC4FE490F12C082E02C07C
:102C1000F594E7940A94E2F791E0E922FF24F901A0
:102C2000E45FFC4FC491D0E002C0D595C7958A956A
:102C3000E2F7C170DD270115110519F081EE0E9440
:102C40004E05E114F10419F086EE0E944E058D2D1B
:102C50000E94CA05E114F10419F086EE0E948D0568
:102C60000115110519F081EE0E948D05CD2B19F08B
:102C70008CE20E94CA05CDB7DEB7E7E00C9467246A
:102C8000EF92FF920F931F93CF93DF93EC01162FD8
:102C90000AE08881882309F453C0813009F04EC0CE
:102CA0008981813099F47E0122E0E20EF11C8A8153
:102CB0000E94CA05E7012196812F815050F3EFE968
:102CC000FFE03197F1F700C00000F7CF823041F408
:102CD0007E0182E0E80EF11C8A810E944E05EACF57
:102CE000833041F47E01E2E0EE0EF11C8A810E9405
:102CF0008D05E0CF843011F02196DDCF2A81229618
:102D000090E080E0AE014F5F5F4F2053330B2A30DD
:102D1000310548F0019778F2EFE9FFE03197F1F7DC
:102D200000C00000F7CF089FB001099F700D11246B
:102D3000C901860F971F2981EA01E4CF44DFBBCF89
:102D4000CDB7DEB7E6E00C94682460E099CF089533
:102D50008832910548F48E319105A0F4049750F023
:102D600082E00E948A0C0EC08D329105C9F320F4D6
:102D70008A9741F080E008958C34910519F08D32E6
:102D80009240C1F781E00895EF92FF920F931F9355
:102D9000CF93DF93EC017B01C3378CE7D80761F455
:102DA000FB011581112311F0B6D010E0812FCDB7B2
:102DB000DEB7E6E00C9468240E94740C082F0E9491
:102DC0009A0C082B7AD0811106C0023211F011E062
:102DD000EDCF77D0FCCF69D0F70115811123B9F37E
:102DE0000D7909F054C0C034F2E5DF0720F5C115B4
:102DF00082E5D807D8F6C115E0E4DE0790F4C115E6
:102E0000F0E2DF07B0F5C63ED10581F20E94970CD3
:102E1000CE019EDFC82F8823D1F10E94CD0C1C2F3C
:102E2000C5CFC11580E5D80788F7F7018681807F77
:102E300071F2DD27EBCFC03EE2E5DE07A0F4C03C37
:102E4000F2E5DF0708F0B2CFC03682E5D807F0F22E
:102E5000C03AE2E5DE0708F4A9CFC43BF2E5DF079C
:102E600009F4A4CFD3CFCE0187579C47029770F6C1
:102E70009DCFF7018681807FE1F68D2F8F718231A2
:102E800089F038F4C1EED0E0823009F4BFCF27D00A
:102E90008DCF843109F48ACFC6EED2E1863109F4B0
:102EA000B5CFF5CFC5EED0E0B1CF2AD488579C4E30
:102EB0009093A2028093A10208958091A3020895A5
:102EC00008958091A302811109C00E94840C0E9480
:102ED000C40CEBDF81E08093A302F2CF08958091D0
:102EE000A302882339F082E20E94D2071092A30243
:102EF00080E0E6CF08958091A302882359F000D4A2
:102F00002091A1023091A202821B930B8F3F9F4719
:102F100008F4E5CF08958091A302882311F0DFCF54
:102F20000895CFCF0895CF93DF93EB0186319C476F
:102F300011F50E94740C9D81992399F08A7A91E091
:102F400009F490E09093A402811109C089E20E94E3
:102F50004C0C0E94CD0C80E0DF91CF91089585E369
:102F6000F6CF8091A402811104C089E20E94540C22
:102F7000F0CF85E3FBCF81E0EFCF0F931F93CF938B
:102F8000DF93C42FD22FFC0185818823C1F04093A9
:102F9000A702B6D39093A6028093A50280E28C0F7D
:102FA000883040F4C77081E001C0880FCA95EAF705
:102FB0000E94D205DF91CF911F910F91089510913A
:102FC000A702141335C08091A5029091A602B0D338
:102FD00020911601309117018217930748F5C0E23E
:102FE000CD0F1D17B9F080E2810F883040F41770C3
:102FF00081E001C0880F1A95EAF70E94D705C83012
:1030000048F481E09D2F977001C0880F9A95EAF7E8
:103010000E94D205802F0E94CA05C83058F6D7708A
:1030200081E001C0880FDA95EAF70E94D705C2CF88
:1030300080E28C0F883008F0BDCFC77081E001C0FE
:10304000880FCA95EAF7F1CF0F93DB0188519C47AF
:103050008730910598F5FC01ED5EFA4D0C943A2409
:1030600006E221EE41EE6AE17CE7CD0186DF80E0F9
:103070000F91089507E225EE45EE6BE17CE7F5CF71
:1030800006E221EE40EE68E17CE7EFCF07E225EEB5
:1030900044EE69E17CE7E9CF06E221EE42EE6CE125
:1030A0007CE7E3CF07E225EE46EE6DE17CE7DDCF7E
:1030B00008E221E045EE6EE17CE7D7CF15968C91D2
:1030C000882319F01092A702D3CF81E0D1CF411508
:1030D000510511F0FA0109950895CF93DF93EC01A2
:1030E0004A855B856E857F85F2DF8B810E94900C1F
:1030F0008C810E947D0C0E94CD0C86E0FE01119215
:103100008A95E9F7DF91CF910895CF93DF93EC0192
:103110008D8181FD10C082608D838B810E948A0C1D
:103120008C810E94770C0E94CD0C488559856E8554
:103130007F85CE01CCDF1092AB021092AA028D8166
:1031400080FD02C0CE01C9DFDF91CF910895CF93FA
:10315000DF93EC018A81823041F4FB01828193810B
:103160000E9464038D8182608D83DF91CF910895E9
:10317000FB01808191810C9464030895FC0182819C
:10318000813031F4FB01808191810C9478030895A2
:103190008230E9F7FB0182819381F7CFCF93FB0166
:1031A000C581CC23E9F0E091AA02F091AB023097FF
:1031B000D1F0E817F907B9F0FF2724E0EE0FFF1F61
:1031C0002A95E1F7DF01AB5FBE4F2C9124602C9371
:1031D000E050FF4F91838083CF0197DF0E94970CCF
:1031E0008C2FCF910895C0E0FBCF0F931F93CF9307
:1031F000DF938C0197558F3F910509F0B8F5C80111
:10320000992724E0880F991F2A95E1F7EC01C05017
:10321000DF4FFB012581FC01EB5FFE4F808120FB2E
:1032200080F98083222341F16BD29093A90280938D
:10323000A8028A818F5F8A830E94740C8B830E940C
:10324000870C9B81892B8B830E949A0C8C834E81E7
:103250005F816E857F85CE013ADF8D8181FF02C05F
:1032600010E000E01093AB020093AA0281E0DF912E
:10327000CF911F910F9108954C855D856E857F8557
:10328000CE0125DF8D8181FFF1CFCE0126DF809138
:10329000AA029091AB028017910741F71092AB02FE
:1032A0001092AA02E3CF8091AA029091AB02892BDF
:1032B000F9F08091A8029091A9023AD220911601CA
:1032C000309117012817390798F48091AA0290913C
:1032D000AB02992724E0880F991F2A95E1F7FC019A
:1032E000EB5FFE4F208122FD03C080509F4F0DCF2A
:1032F00008959C01FB018581882359F12137FCE762
:103300003F07B9F022379CE73907E9F020373C47FF
:1033100009F560E280911601909117010E94C104A5
:10332000FC01019620812032D9F3CF010EDD80E02F
:1033300008958091160190911701059690931701B9
:1033400080931601F4CF8091160190911701059793
:10335000F5CF81E008959093B2028093B102089571
:1033600041D9811103C08091AC020895E091B1026E
:10337000F091B202309729F00190F081E02D09958B
:10338000089580E00895E091B102F091B202309783
:1033900099F020913B01222359F02091DB0227FF75
:1033A00007C0DC012C9111962C93119726E02C93E9
:1033B0000280F381E02D09950895A3E0B0E0E3EEEB
:1033C000F9E10C9450242091AF023091B0022817FB
:1033D0003907A1F09093B0028093AF02E091B1025F
:1033E000F091B202309751F023E029839B838A83C6
:1033F0000680F781E02DCE01019609952396E2E043
:103400000C946C24A3E0B0E0E8E0FAE10C945024C2
:103410002091AD023091AE0228173907A1F09093A8
:10342000AE028093AD02E091B102F091B20230970A
:1034300051F024E029839B838A830680F781E02D65
:10344000CE01019609952396E2E00C946C24FC01D0
:10345000329680913B01882321F08091DB029EE12E
:1034600087FF96E080E0915008F40895219122238F
:10347000D1F38F5FF8CF662301F120913B01222326
:10348000F1F02091DB0227FF1AC0462F46954695A2
:1034900046954E3190F4677021E030E002C0220F73
:1034A000331F6A95E2F7840F911DFC01828190E041
:1034B0002823392381E0232B69F480E00895FC015F
:1034C000329608962191261721F0E817F907D1F7CF
:1034D000F4CF81E008959C01FC0132969FEF80E0DB
:1034E0004191461751F09F3F19F4411101C0982FA7
:1034F0008F5F8630A9F79F3F09F40895290F311D8A
:1035000097FD3A95F90162830895FC013296089679
:103510002191261303C0DF0111971C92E817F907C8
:10352000B9F70895E62FE695E695E695EE3168F44D
:10353000E80FF92FF11D677021E030E001C0220F84
:103540006A95EAF78281822B82830895E62FE695B9
:10355000E695E695EE3170F4E80FF92FF11D6770EE
:1035600021E030E001C0220F6A95EAF720958281C0
:1035700028232283089520913B01222331F02091BA
:10358000DB0227FF02C0CECF0895A5CF089520917A
:103590003B01222331F02091DB0227FF02C0D6CF6E
:1035A0000895B3CF0895FC01329680913B018823A2
:1035B00051F08091DB0287FF06C08EE1DF011D9292
:1035C0008A95E9F7089586E0F9CF0895FECF08952A
:1035D000811105C081E08093B302F8CF089582E0A5
:1035E000FACF83E08093B302F1CF0895F1CF08952D
:1035F00081E08093B302EACF0895FACF0895089549
:103600000895FECF089508950895F9CF0895CF93B2
:10361000FADF0E947912F8DFC0E08C2F0E945D1162
:10362000811105C0CF5FC830C1F7CF91089581E007
:10363000FCCF85B7806885BF85B7806885BF089552
:103640001F921FB61F9211248F939F93AF93BF9326
:103650008091B402811113C08091EF029091F00229
:10366000A091F102B091F2024196A11DB11D80938B
:10367000EF029093F002A093F102B093F202BF9197
:10368000AF919F918F911F901FBE1F9018958091B1
:10369000F702843031F10E9461041092B40288E193
:1036A00090E020E40FB6F894A895809360000FBED8
:1036B0002093600083B7817F846083BF83B781607C
:1036C00083BF7894889583B78E7F83BF0FB6F894B5
:1036D000A8958091600088618093600010926000DE
:1036E0000FBE08950E94E5070C946504089582E0DA
:1036F00084BD93E095BD9AEF97BD80936E000895C9
:103700002FB7F8948091EF029091F002A091F1020E
:10371000B091F2022FBF08952FB7F8946091EF0295
:103720007091F0028091F1029091F2022FBF089502
:103730009C014FB7F8948091EF029091F002A09114
:10374000F102B091F2024FBF821B930B0895CF920A
:10375000DF92EF92FF922FB7F894C090EF02D090D3
:10376000F002E090F102F090F2022FBFA701960163
:10377000261B370B480B590BCA01B901FF90EF907C
:10378000DF90CF90089578941F921FB61F92112456
:103790008F939F93AF93BF938091EF029091F0022C
:1037A000A091F102B091F2020196A11DB11D80938A
:1037B000EF029093F002A093F102B093F202BF9156
:1037C000AF919F918F911F901FBE1F90189587E713
:1037D00097E7909301088093000888E19AE00FB67C
:1037E000F894A895809360000FBE90936000FFCF7F
:1037F00088E19AE00FB6F894A895809360000FBE18
:1038000090936000FFCF8EE14A9B02C08150E1F7A8
:103810004A9BFECF08955A9880E28A95F1F75A9A0A
:103820000895FC013BE03A95F1F798E020E080E054
:1038300031E040E14A95F1F7880F4A9B02C0816070
:10384000232742E04A95F1F7000040E14A95F1F75D
:10385000915079F790E19A95F1F799B132E03A9564
:10386000F1F7000040E14A95F1F792FB992790F9B2
:1038700092272081920F90830895A1E0B0E0E3E4C5
:10388000FCE10C944C2419828C017C01E60EF11CA5
:103890000E151F0541F481E09981911180E0219678
:1038A000E6E00C946824AFDFCE010196BADFF801A0
:1038B00081938F01EDCF529A5A9A089552985A9A4D
:1038C000EA9AE9E6F0E080818F7C80830895615078
:1038D000770B91E001C0990F6A95EAF720E031E09B
:1038E000911108C0222391F05A9A80E28A95F1F74B
:1038F0005A980895492F482339F05A9A232740E2CD
:103900004A95F1F79695ECCF5A98F9CF5A98EDCFA2
:10391000FF920F931F93CF93DF93EC018C01060F5F
:10392000111DC017D10721F4CDB7DEB7E5E0D1C72F
:10393000F99071DF68E08F2DCADFF3CF1F920F92ED
:103940000FB60F9211240F931F932F933F934F9312
:103950005F936F937F938F939F93AF93BF93EF93F7
:10396000FF93CF93DF930F92CDB7DEB719824BDF72
:10397000CE01019656DF082F069506950695282F4D
:1039800022952570902F9570290F922F9370269570
:103990002695920F982797708981982B09F058C027
:1039A000043008F055C080E18A95F1F75A9A529A8E
:1039B00082E08A95F1F700C05A9888E0089F80015C
:1039C0001124D801A55EBE4F1696ED91FC91179774
:1039D0003097A9F06091B8017091B90114962D91BA
:1039E0003C911597260F371F11968D919C91129738
:1039F000680F791F13964C9113978C910995F801D4
:103A0000E55EFE4F6381662349F02091B801309155
:103A1000B90184819581820F931F7ADFFCDE80E1FA
:103A20008A95F1F75A9852985A9A80E18A95F1F757
:103A3000F801E55EFE4F6081662349F02091B801F0
:103A40003091B90181819281820F931F16DFDBDEF5
:103A50000F90DF91CF91FF91EF91BF91AF919F9127
:103A60008F917F916F915F914F913F912F911F9116
:103A70000F910F900FBE0F901F9018950F931F93EB
:103A8000CF93DF93EC0104970CF049C0F894529A5D
:103A90005A9885E08A95F1F700009C2F96959570CD
:103AA0008C2F8570980F892F83709695969523E0BB
:103AB000CC0FDD1F2A95E1F7980F8E01092BABDEA5
:103AC00000C068E0802F03DF80E18A95F1F752980B
:103AD0005A9A4A9B1DC087E090E04A991BC0FE019C
:103AE000E55EFE4F63816623F1F02091B8013091CD
:103AF000B90184819581820F931FBFDE811113C0AC
:103B0000529A5A9A7894DF91CF911F910F9108950C
:103B100000C0DFCF019729F4529A5A9A789480E036
:103B2000F2CF00C0DACF6FDE80E28A95F1F75A98C3
:103B3000529A80E18A95F1F7C55EDE4F688166236F
:103B400049F02091B8013091B90189819A81820FA1
:103B5000931FDEDE60DE789481E0D5CF8091D502C0
:103B6000089508959B01BA019091F7029430E1F411
:103B70008F708093E9009FEF8091E800915085FD60
:103B800006C085ED8A95F1F700009111F5CF80917F
:103B9000E80085FF09C050E040E0C901CDD1809127
:103BA000E8008E778093E800089543E050E0BC0180
:103BB00082E0D8CF0895CF93DF93EC0180913B0151
:103BC000811110C048E050E0BE0181E0CBDF80E20F
:103BD000FE01A5EBB2E001900D928A95E1F7DF912D
:103BE000CF9108958091DB0287FF05C040E282E01B
:103BF00050E0BE01EBCF48E081E0FACF8091F602C1
:103C0000811107C027D37ED38091E2008460809326
:103C1000E20008951092F6020895EACC08956091AA
:103C2000F30281E0611101C080E0DBCC0895909146
:103C3000F70281E0943009F080E06091F302D6CC85
:103C4000089542E061EC81E081D242E261EC82E0E1
:103C50007DD29091F70281E0943009F080E060918C
:103C6000F302B6CC08958091F902833009F45FC065
:103C700030F48130C9F1823009F49AC008958A3055
:103C800009F487C08B3009F46DC0893009F04EC04B
:103C90008091F802813209F049C08091FC02909134
:103CA000FD02029708F042C08091E800877F809370
:103CB000E8008091E80082FF35C09091F300809188
:103CC000F200029731F48091F100813011F08630DA
:103CD00021F48091F1008093D5028091E8008B77E8
:103CE0008093E80067D222C08091F802813AF1F413
:103CF0008091E800877F8093E8008091FC0290919A
:103D0000FD02892B59F460E285EB92E070E061D10D
:103D10008091E8008B778093E800089560E090E060
:103D200080E0F4CF8091F7028111C3CF0895809194
:103D3000F802813AD9F78091FC029091FD02892B1B
:103D4000A9F78091E800877F8093E8008091E800E0
:103D500080FFFCCF80913B018093F1008091E800CF
:103D60008E77BECF8091F802813201F78091FC02FC
:103D70009091FD02892BD1F68091E800877F809396
:103D8000E80018D28091FA0280933B010C94E50779
:103D900008958091F802813249F68091E800877F8A
:103DA0008093E80007D28091FB028093D6020895A9
:103DB0008091F802813A09F0B9CF8091E800877FBD
:103DC0008093E8008091E80080FFFCCF8091D602CC
:103DD000C3CF84B7877F84BF0FB6F894A89580912E
:103DE0006000886180936000109260000FBE80E8E0
:103DF00090E00FB6F89480936100909361000FBE3D
:103E0000FCCB089527D27ED2E2EEF0E08081846080
:103E100080837894E2C4089583E391E09CCA089576
:103E20008091F702853029F48091F702853011F0F6
:103E300059CC08952CDC8091F5028823A9F3E7DBA7
:103E4000882391F363D00E94E507EECF08959A018D
:103E50004091FE025091FF0201C00895492F55275D
:103E60004330510519F168F44130510509F444C05B
:103E70004230510509F445C090E080E050E040E058
:103E800025C04132510549F142325105A9F784E478
:103E900090E04AE154E061157105C1F08DE690E0D3
:103EA0004DEA53E06130710589F0E6CF9927813002
:103EB000910581F0009729F00297F1F6ECE3F3E029
:103EC00002C0ECE5F3E0849190E0AF01F901518389
:103ED00040830895EAE4F3E0F6CF89E090E042E71A
:103EE00053E06115710591F389E090E04BE853E0F0
:103EF0006130710559F3C0CF82E190E04BE953E0A6
:103F0000E5CF8BE390E040E653E0E0CF80E189BD70
:103F100082E189BD09B400FEFDCF8091D8008F7D7C
:103F20008093D8008091E00082608093E0008091CF
:103F3000E00081FDFCCF0895AF92BF92CF92DF9257
:103F4000FF920F931F93CF93DF936C01EB018A01D4
:103F500050D1F82E811123C00115110539F0F80157
:103F600080819181C81BD90BC80ED91EB12CA12C00
:103F70002097A9F08091E80085FD21C08091E8009C
:103F80008E778093E80001151105A1F0F80180817A
:103F90009181A80EB91EB182A08285E0F82E8F2DE6
:103FA000DF91CF911F910F91FF90DF90CF90BF9045
:103FB000AF9008951ED18823D9F2F82EF0CFF601E4
:103FC00081916F018093F1002197FFEFAF1ABF0A33
:103FD000CFCFFC018091FE029091FF0286179707D8
:103FE000A0F06115710529F49091E8009E779093F7
:103FF000E80090E06115710551F4911108C08091BD
:10400000E80082FF34C080E00895BC01F2CF8091C7
:10401000F7028823C1F18530C1F18091E80083FD6A
:1040200030C08091E80082FDEACF8091E80080FFF7
:10403000E1CF8091F3002091F200382F61157105D6
:1040400019F02830310558F091E02830310509F099
:1040500090E02091E8002E772093E800CBCF81916B
:104060008093F100615071092F5F3F4FE7CF80913E
:10407000F702882341F0853041F08091E80083FF0A
:10408000BECF81E0089582E0089583E00895FC01A9
:104090008091FE029091FF0286179707A0F06115AC
:1040A000710529F48091E8008E778093E80090E014
:1040B0006115710551F4911108C08091E80082FFEB
:1040C00035C080E00895BC01F2CF8091F7028823CB
:1040D000C9F18530C9F18091E80083FD31C080913C
:1040E000E80082FDEACF8091E80080FFE1CF809177
:1040F000F3002091F200382F6115710519F0283076
:10410000310558F091E02830310509F090E08091B8
:10411000E8008E778093E800CBCF84918093F10004
:104120003196615071092F5F3F4FE6CF8091F702C2
:10413000882341F0853041F08091E80083FFBDCFB6
:1041400081E0089582E0089583E00895982F9730E4
:1041500028F08F708093E90081E008959093E90042
:10416000242F762F50E0981731F07091EC002091B9
:10417000ED005091F00021FD02C09F5FE8CF30912B
:10418000EB003E7F3093EB003091ED003D7F3093AC
:10419000ED003091EB0031603093EB007093EC0058
:1041A0002093ED005093F0002091EE0027FDE5CF25
:1041B00080E008958091F80287FF13C08091E800A5
:1041C00082FF06C08091E8008B778093E80004C0EE
:1041D0008091F7028111F2CF08958091F702882330
:1041E000D9F38091E80080FFF8CF8091E8008E77C6
:1041F000ECCF2091E4003091E50095E6A9012091F3
:10420000EC00822F817020FF06C08091E80080FFC3
:1042100006C080E008952091E80022FD1AC0809138
:10422000F702882389F0853089F08091EB0085FDC5
:104230000FC02091E4003091E50042175307F9F2D6
:104240009150E1F684E0089582E0089583E00895B6
:1042500081E0089568D06FD0E0EEF0E08081816069
:104260008083E8EDF0E080818F77808319BCA7ED33
:10427000B0E08C918E7F8C9380818F7E80831092B2
:10428000F60208950F931F93CF93DF934CD053D032
:10429000C8EDD0E088818F778883888180688883A3
:1042A00088818F7D888319BC1092F7021092F302E7
:1042B0001092F5021092F40200EE10E0F8018081F5
:1042C0008B7F808388818160888342E060E080E02A
:1042D0003DDFE1EEF0E080818E7F8083E2EEF0E072
:1042E000808181608083808188608083F801808103
:1042F0008E7F8083888180618883DF91CF911F9139
:104300000F910895E8EDF0E080818F7E8083E7EDE6
:10431000F0E080818160808384E082BF81E08093CF
:10432000F602B0CF0895E8EDF0E080818E7F8083C3
:104330001092E20008951092DA001092E1000895C0
:104340001F920F920FB60F9211242F933F934F930A
:104350005F936F937F938F939F93AF93BF93EF93ED
:10436000FF938091E10082FF0AC08091E20082FF0A
:1043700006C08091E1008B7F8093E1002DD2809177
:10438000DA0080FF18C08091D80080FF14C08091AF
:10439000DA008E7F8093DA008091D90080FF91C08F
:1043A00080E189BD82E189BD09B400FEFDCF81E0D5
:1043B0008093F70223DC8091E10080FF18C0809198
:1043C000E20080FF14C08091E2008E7F8093E200C3
:1043D0008091E20080618093E2008091D800806249
:1043E0008093D80019BC85E08093F70218DC809197
:1043F000E10084FF2AC08091E20084FF26C080E1B2
:1044000089BD82E189BD89B5982F917080FFFBCF6E
:104410008091D8008F7D8093D8008091E1008F7EBD
:104420008093E1008091E2008F7E8093E200809192
:10443000E20081608093E2008091F302882309F416
:1044400045C084E08093F702F2DB8091E10083FFB6
:1044500027C08091E20083FF23C08091E100877F25
:104460008093E10082E08093F7021092F302809142
:10447000E1008E7F8093E1008091E2008E7F809347
:10448000E2008091E20080618093E20042E060E01F
:1044900080E05CDE8091F00088608093F000BDDBFE
:1044A000FF91EF91BF91AF919F918F917F916F910C
:1044B0005F914F913F912F910F900FBE0F901F90E2
:1044C000189519BC1092F702A5DB75CF8091E30017
:1044D00087FD93E09093F702B7CF1F920F920FB62C
:1044E0000F9211242F933F934F935F936F937F937A
:1044F0008F939F93AF93BF93CF93DF93EF93FF93EC
:10450000D091E900DF708091EC00C82FC17080FD70
:10451000C0E81092E9008091F000877F8093F0005E
:1045200078941ED01092E9008091F000886080930A
:10453000F000CD2BCF70C093E900FF91EF91DF9198
:10454000CF91BF91AF919F918F917F916F915F912B
:104550004F913F912F910F900FBE0F901F90189584
:10456000AAE2B0E0E5EBF2E29AC188EF92E0209196
:10457000F100FC012193CF01F3E080309F07B9F7F0
:1045800072DB8091E80083FF16C18091F802909160
:10459000F9029A3008F00FC1E92FF0E0E65EFA4D1B
:1045A00069C1803899F0823809F005C18091FC0218
:1045B0008F70873008F0FFC08093E9008091EB0096
:1045C00085FB882780F91092E90006C08091F402EB
:1045D0009091F502911182609091E800977F9093FD
:1045E000E8008093F1001092F1008091E8008E774E
:1045F000DFC0882309F4CDC0823009F0DCC080918F
:10460000FA028111D0C08091FC028F702FEF280F29
:10461000263008F0D0C08093E9002091EB0020FF05
:10462000C2C0933031F48091EB0080628093EB0044
:10463000BAC09091EB0090619093EB0021E030E0E4
:1046400001C0220F8A95EAF72093EA001092EA004F
:104650008091EB008860EACF8111ADC01091FA0221
:104660001F778091E3008078812B8093E300809115
:10467000E800877F8093E8009DDD8091E80080FF5F
:10468000FCCF8091E30080688093E30082E0111109
:1046900083E08093F7028FC08058823008F08BC08F
:1046A0008091FA029091FB028C3D23E0920799F5EC
:1046B00083E08A838AE289834FB7F894DE011396F8
:1046C00020E03EE051E2E32FF0E050935700E49108
:1046D00020FF03C0E295EF703F5FEF708E2F90E0F8
:1046E000EA30B8F0C7968D939D932F5F243159F728
:1046F0004FBF8091E800877F8093E8006AE270E016
:10470000CE01019666DC8091E8008B778093E8000B
:1047100052C0C096E8CF6091FC027091FD02AE01DC
:104720004F5F5F4F94DBBC01892B09F444C090912B
:10473000E800977F9093E80089819A81A8DCE3CF15
:104740008038C9F58091E800877F8093E8008091E8
:10475000F3028093F10049CF81112DC09091FA02AC
:10476000923048F58091E800877F8093E80090932D
:10477000F30220DD8091F302882311F084E005C06C
:104780008091E30087FDFACF81E08093F70259DA48
:1047900012C08091FA02813071F481E0933009F007
:1047A00080E08093F5021092E9008091E800877F15
:1047B0008093E800FFDC8091E80083FF0AC08091CD
:1047C000E800877F8093E8008091EB00806280930F
:1047D000EB00AA96E3E07FC00895CF938091F702A3
:1047E000882399F0C091E900CF709091EC00892F57
:1047F000817090FD80E8C82B1092E9008091E8005C
:1048000083FDAEDECF70C093E900CF91089522DD25
:104810001092F7020895E8EDF0E0808180618083D6
:104820008AE18A95F1F700C08091D90081700895DE
:10483000A1E21A2EAA1BBB1BFD010DC0AA1FBB1FA4
:10484000EE1FFF1FA217B307E407F50720F0A21B16
:10485000B30BE40BF50B661F771F881F991F1A9483
:1048600069F760957095809590959B01AC01BD01AD
:10487000CF010895EE0FFF1F0590F491E02D0994EC
:104880002F923F924F925F926F927F928F929F9260
:10489000AF92BF92CF92DF92EF92FF920F931F934E
:1048A000CF93DF93CDB7DEB7CA1BDB0B0FB6F894FF
:1048B000DEBF0FBECDBF09942A88398848885F843F
:1048C0006E847D848C849B84AA84B984C884DF80B0
:1048D000EE80FD800C811B81AA81B981CE0FD11D94
:1048E0000FB6F894DEBF0FBECDBFED010895FB01FA
:1048F000DC0104C08D910190801921F44150504099
:10490000C8F7881B990B0895FB01DC0102C00190D8
:104910000D9241505040D8F70895F999FECF92BDBD
:1049200081BDF89A992780B50895A8E1B0E042E0EA
:1049300050E02FC0DC01A40FB51F4150504040F0A3
:10494000CB01840F951F2E9105D041505040D8F7D0
:104950000895262FF999FECF92BD81BDF89A01974F
:1049600000B4021639F01FBA20BD0FB6F894FA9AB7
:10497000F99A0FBE08950396272FECDFEADF252F63
:10498000E9DF242FE7CF0196272FE4DFE2CFDC0118
:10499000CB01FC01F999FECF06C0F2BDE1BDF89A4A
:1049A000319600B40D9241505040B8F70895F894F4
:1049B000FFCF6D027A029402AB02B302BA02C102C7
:1049C000C602E002F702FE020503180618065A06A0
:1049D0005A06B306400640064006CF06380744078D
:1049E00044076015D3156815321536156C153A1540
:1049F00070157C154615CC154A1580154E15841575
:104A0000AC1552158815B31558158E1596153E150B
:104A10007415421578155C159215A215BC15CA15AA
:104A20002C156415DA154018461830183A184C1829
:104A300052185818D122F922DB23F922DB232C2328
:084A40004C23DB23A023AC236F
:104A4800000000000000A718B818BE1800001001E8
:104A580013003400FF00AA004B020100000001000F
:104A68000000000000000401000000040500000030
:104A7800000000AE1DDB1DB11DD51D01E200E900DF
:104A8800EA00B500B600B700CD008301CC008A016A
:104A98009201940121022302240225022602270200
:104AA8002A02B300B4006F0070009F01CB019F027F
:104AB800A002818283E200E900EA00B500B600B7EF
:104AC80000CD008301CC008A0192019401210223C8
:104AD8000224022502260227022A02B300B4006F2C
:104AE8000070009F01CB019F02A002818283F4F530
:0A4AF800F6F73133946697C6880282
:00000001FF
