:100000003AC2000055C2000053C200000C94BC214B
:100010004FC200004DC200004BC2000049C20000A8
:1000200047C2000045C200000C9490260C945C2747
:100030000C946D203DC200003BC2000039C200009C
:1000400037C2000035C2000033C2000031C20000D8
:100050002FC200000C94E4202BC2000029C2000033
:1000600027C2000025C2000023C2000021C20000F8
:100070001FC200001DC200001BC2000019C2000008
:1000800017C2000015C2000013C2000011C2000018
:100090000FC200000DC200000BC2000009C2000028
:1000A00007C2000005C2000003C2000000000E00ED
:1000B0001C0012001800340000000B000C2408285B
:1000C00004222D0000000D0014003600370033001C
:1000D000000000000000000029422C210000100058
:1000E0001300070006001D0000000F001134173830
:1000F00016320A0000001900090005001A001B0052
:10010000000000000000000015432831000014002A
:100110001A00080015001700000004001624072824
:1001200009220A0000001D001B000600190005003E
:10013000000000000000000029422C0000000057D1
:1001400012000C0018001C00000033000F340E38A1
:100150000D320B0000000357370002570157110002
:1001600000000000000000002A4328000000417E3B
:10017000427E437E447E2A0800002B022B00E300CF
:10018000E1002A04000014000000457E467E4C0475
:1001900000000000000000000000000000004F12FE
:1001A000521251125012501A00004F0052005100CA
:1001B00050002A0000004F145214511450145016CD
:1001C0000000000000000000407E2C0F0000310203
:1001D00024022F0230022102000059005A005B0065
:1001E0005C005D000000350223021E0238022E0270
:1001F000000000000000000025022E000000200288
:100200001F02260227022202000062006100600035
:100210005F005E000000310035002F003000380024
:100220000000000000000000000000000000477E09
:100230000000220A210A210B0000000000004700F4
:100240004800060800005000510052004F001908F5
:10025000000000000000000064522C0000000000BC
:100260000000A800AE0029000000BB00A900AA0001
:10027000BC002A0000004F00520051005000000056
:100280000000000000000000645228002C0028003C
:1002900000002C212831000009220D320000042228
:1002A0001632000000000000000000002A2B280089
:1002B0000000000000000000000000000000002915
:1002C000000000002C1E3420212224342627252E55
:1002D000362D3738271E1F2021222324252633338D
:1002E000362E37381F0405060708090A0B0C0D0EB9
:1002F0000F101112131415161718191A1B1C1D2F85
:100300003130232D350405060708090A0B0C0D0EA4
:100310000F101112131415161718191A1B1C1D2F64
:100320003130354C000000000000000000000000EB
:1003300000000000000000000000000000000000BD
:1003400000000000000000007E0F00D4FFFFFFC788
:10035000000000780C0343006F0072006E0065001F
:100360000000100366006F006F00730074006100EE
:100370006E0000000403090409023B00020100A012
:10038000FA09040000010301010009211101000123
:10039000224400070581030800010904010001034C
:1003A000000000092111010001226D0007058203F0
:1003B0002000011201000200000008534601000164
:1003C000000102000105010980A101850319012A2C
:1003D000B700150126B700950175108100C0050C06
:1003E0000901A101850419012AA002150126A00214
:1003F000950175108100C005010906A1018506055A
:100400000719E029E7150025019508750181020506
:1004100007190029EF1500250195F07501810205E6
:10042000081901290595057501910295017503913A
:1004300001C005010906A101050719E029E715001A
:10044000250195087501810295017508810105074F
:10045000190029FF150026FF009506750881000583
:1004600008190129051500250195057501910295C9
:100470000175039101C011241FBECFEFDAE0DEBF8A
:10048000CDBF12E0A0E0B1E0ECEDF3E502C00590D5
:100490000D92A430B107D9F723E0A4E0B2E001C087
:1004A0001D92AD3EB207E1F70E9425150C94B129CB
:1004B000A7CD80549E47FC01089708F03CC0ED543E
:1004C000F64DDB0115968C910C942329811541F092
:1004D00083E090E0D3D58FEF3FD38CE2BED268D5D6
:1004E00080E008958115D9F388E836D38FE2B5D23C
:1004F000F7CF8115A1F388E82FD380E3F8CF8115DA
:1005000071F383E329D38BE2F2CF811541F381E1CB
:10051000F9CF811521F381E11FD380E5E8CF811563
:10052000F1F281E119D38FE4E2CF8115C1F28CECB5
:1005300013D38CE0DCCF81E008958530C8F46830B7
:10054000B8F44630A8F450E096E0699F400D511D84
:10055000112490E3899F400D511D1124FA01EE0FE3
:10056000FF1FE455FF4F85919591282F822F089505
:1005700021E090E0FBCFE1CF089584E090E0089582
:100580008430910550F447E0489F9001499F300D19
:100590001124C90180509F4F089580E090E0089594
:1005A00084E090E008958430910550F44AE0489F3B
:1005B0009001499F300D1124C901845E9E4F08951A
:1005C00080E090E008959C0191509F31B0F4832F1A
:1005D000817034FF0AC08295807F31FD806232FDD8
:1005E000806433FF0BC08068089531FD826032FD66
:1005F000846033FF03C08860089580E00895CF933E
:10060000DF93EB01E0DFFE010995DF91CF910895C3
:10061000CF93DF93EC01805E9109089720F061ECA5
:1006200077E0209711F46CEA75E0CE01E8DF8C2FBB
:1006300014D2DF91CF910895CF93DF93EC0148D28C
:10064000CE01805E9109089720F066EC77E0209754
:1006500011F461EB75E0CE01D2DFDF91CF91089507
:1006600081E0089581E00895FBCF089581E0089529
:1006700020CF089508950895FDCF08950895089511
:10068000A6E0B0E0E6E4F3E00C94382949835A830D
:100690009E833091120289819A81311117C03E8167
:1006A000311589F0211579F0BFD5182F682F898170
:1006B0009A8199D569817A81812F0E94770F269638
:1006C000E3E00C945429A0D5182FF4CFADD569815F
:1006D0007A81F3CFFC01262F87819085009739F42A
:1006E000408151816281738184819581C9CF089550
:1006F000CF93DF93EC0161E0EDDFBE01B3DF811545
:1007000069F061E0CE01E6DFBE01AEDF811531F0B8
:1007100061E0CE01DFDFBE010E9404188170DF912D
:10072000CF9108950F931F93CF93DF93EC0160E077
:10073000D1DF8C01BE019FDFBE01C8019DDFDF91CB
:10074000CF911F910F9108950F931F93CF93DF9334
:10075000EC0161E0BFDF182F092FBE010E94611D6F
:10076000811529F061E0CE01B5DF182F092FBE01F8
:10077000812F902F7BDF811106C080E0DF91CF9128
:100780001F910F910895BE01812F902F71DF811568
:10079000A1F3BE01812F902F0E948215811569F36C
:1007A000BE01812F902F0E94911D811531F3BE0152
:1007B000812F902F0E94A0198115F9F2BE01812F7F
:1007C000902F0E945B1C8115C1F2BE01812F902FDA
:1007D0000E94FD19811589F2BE01812F902F0E9480
:1007E000D419811551F2BE01812F902F0E94BF10A4
:1007F000811519F2BE01812F902F0E94D110811511
:1008000009F4BBCFBE01812F902F0E94EB10B6CF11
:1008100021E030E002C0220F331F8A95E2F7C901C0
:100820001DC4CF93C82F81E090E00C2E02C0880F2A
:10083000991F0A94E2F70E94950D8C2FE9DFCF9162
:10084000089581E0089581E00895FBCF0895CF9346
:10085000C82FAED38C2FF7DF8C2FF7DF8FEF94E309
:100860002CE0815090402040E1F700C00000CF9183
:10087000089581E0ECDF0C94082180E0E8DF0C941F
:100880001921FCDE0E94012090C091D0F8DE0C946A
:100890000520A0E0B0E0EFE4F4E00C942E297C0108
:1008A00049015A01702E6B0181E0C81AD108F70185
:1008B000EC0DFD1D10826E0D7F1D61507109EB0165
:1008C0008D010C151D0530F0C701CDB7DEB7EDE089
:1008D0000C944A29B401C5012AE030E040E050E020
:1008E0000E940129605D603341F40115110529F072
:1008F00089288A288B2809F4672D6A9349015A01AF
:100900000F5F1F4FDECF0F9320915401309155019F
:100910002817390721F420910C02261789F08093BB
:1009200054019093550160930C029C0140E050E00B
:10093000062F66E070E086E092E0ABDF0F9108954D
:1009400086E092E0FBCF292F30E048E0911102C011
:100950009C0140E0C90164E0969587956A95E1F7AE
:10096000009711F04C5F9C01C9019695879596956B
:100970008795009711F04E5F9C01C9019695879568
:10098000840F089581E008950895CF93DF93D82FC1
:10099000F9DFC82F811511F08D2FF6DF8C2FDF9135
:1009A000CF9108950895F1CF089580E0FCCF0E9483
:1009B000311EF9CFCF930E94311EC82F80910D02B6
:1009C0008C1771F0C0930D020E94D82060930E0224
:1009D00070930F0280931002909311028C2FE3DF2B
:1009E000CF910895AFE0B0E0E8EFF4E00C94372940
:1009F0004A875B876C877D878E879F87911181D718
:100A00001F821886198686E0FE013A969E012F5FA6
:100A10003F4FD90101900D928A95E1F78D818111A7
:100A20000EC009811A812B813C814D815E816F81CD
:100A300078858985A8D62F96E4E00C945329CE01B9
:100A4000019656DE8111EDCFF6CFFC0124812130D5
:100A500019F4808191811BC40895CF93C82F81150B
:100A600081F08450813A78F48C2F0E94DA1E81152F
:100A700021F08C2F0E94771FD2D78C2F0E94601FED
:100A8000CED7CF9108958C2F805E883048F481E0D6
:100A9000C1FD84E0C0FD880FC2FD829510D7F0CF64
:100AA0008C2F855A833030F48C2F8452990B0E94FE
:100AB000661EE7CFC85ACB3120F7EC2FF0E0EE0FDF
:100AC000FF1FE457FE4F808191810E948D1ED9CF78
:100AD000811521F1982F9450913A18F40E94771FB4
:100AE0009EC7982F905E983050F4982F81E091FD2A
:100AF00084E090FD880F92FD8295E7D6F1CF982F84
:100B0000955A933020F480E090E00C94661E885A49
:100B10008B3120F480E090E00C948D1E08951F939B
:100B2000CF93DF93182FEB0198DF209731F4812FBB
:100B3000CFDFDF91CF911F9108958FE99FE001975B
:100B4000F1F700C000002197F0CF60E570E0893335
:100B500011F060E070E0E3CF811511F0B0D65FC70F
:100B60000895811511F0B1D65AC70895A0E0B0E0FC
:100B7000ECEBF5E00C9433296C01D62FC72FFC0168
:100B80001581068102950F708FD6E82E8115E9F048
:100B9000E12E1115D1F08C2F807F803461F08D2FE4
:100BA000805E883098F18C2F807E803221F4D230A4
:100BB00068F1011559F18091C50382FF27C082E0D9
:100BC00052D772D691E08927E82E9C2F92959F707C
:100BD000983009F4C9C068F59430D0F4923008F424
:100BE00038C08C2F8F70F82EC07FC03219F0F2946D
:100BF00080EFF822D13008F456C009F47EC01115F8
:100C000009F486C0011509F467C036C0E12CDDCFB8
:100C100009F48EC0E11409F4D7C042D680FDD4C0D7
:100C2000F601158237D64AD2C6018DD133D654D2B9
:100C3000CBC0993009F40AC19A5F9F70923050F787
:100C4000D23F09F010C18C2F8F7111110AC136D219
:100C5000B8C00C2F0F70C03110F00295007F111535
:100C600081F0011549F08D2F805E883010F0D11190
:100C700005C0802F24D6D3D68D2F21C0802F33D608
:100C8000FACF8D2F25DF011509F4C4CF8D2F805E9B
:100C9000883010F0D11103C0802F17D602C0802FEA
:100CA00028D6BDD6B7CF8091C50382FD11C01115DE
:100CB00041F0F11419F08F2D02D6B1D680E0CDDECF
:100CC000A9CF80E005DFF11409F4A4CF8F2DE5CF83
:100CD000111551F0013018F48F2D3EDF9BCF09F034
:100CE00099CF8F2D25D696CF011194CF8F2D39DF37
:100CF0008F2D29D68F2D0ED68DCF111521F00230D4
:100D000008F088CFE9CF011185CF8F2D2ADF82CF60
:100D10000115D9F3D93349F48FEF97EE23E08150D1
:100D200090402040E1F700C000008D2FD1DE72CF4F
:100D30008C2F869586958370813060F009F06ACF9C
:100D40008D2F9C2F9370111102C080E090E00E94C3
:100D50008D1E60CF8D2F9C2F9370111102C080E0EB
:100D600090E00E94661E56CF8C2F8370C1F5111142
:100D700028C04D2F429546954770440F440F2D2FA4
:100D80002F7030E0042E02C0220F331F0A94E2F7C6
:100D900080E090E0D4FF09C08FE090E002C0880FAF
:100DA000991F4A95E2F780959095C695C695C370B0
:100DB000822B932BC23079F0C33079F0C13049F0E7
:100DC00056D10E94311EEFDDCDB7DEB7E8E00C94BE
:100DD0004F2946D1F6CF52D1F4CF40D1F2CF1115E1
:100DE00059F1C0FFEECF4D2F429546954770440F05
:100DF000440F2D2F2F7030E0042E02C0220F331F1E
:100E00000A94E2F780E090E0D4FF09C08FE090E020
:100E100002C0880F991F4A95E2F780959095C69574
:100E2000C695C370822B932BC23061F0C33061F042
:100E3000C13031F076D1C5CF823008F4C2CFD3CFE4
:100E400069D1BFCF75D1BDCF26D1BBCFCF70111522
:100E500029F08C2F33D18D2F7FDEB3CF8D2F81DE04
:100E60008C2F3AD1AECF60F4D03FB9F0D13F81F0B2
:100E7000111509F438C0011599F18D2FEEDDA1CFC0
:100E8000D33FB9F0D43FA1F78091C50382FD19C0CB
:100E90008C2F8F71111529F3DACE111531F0011154
:100EA00090CF8C2F8F7128D18CCF023008F089CF52
:100EB000F8CF111521F08C2F8F71F7D082CFF2D09F
:100EC00080CF111529F063E08C2F8F71B5D579CFC4
:100ED00081E0C9D5023008F474CF82E0C4D571CF67
:100EE0008C2F8F71B4CE011571F0D93349F48FEF87
:100EF00097EE23E0815090402040E1F700C00000D1
:100F00008D2FE6DD5ECF8C2F8F71ABCF0F931F93AC
:100F1000CF93DF938C01FC0187819085009771F05E
:100F2000F1D6D82FC92F0BD198D06D2F7C2FC801A7
:100F30001DDEDF91CF911F910F9108956081718126
:100F40008581AED1EECFCF93DF93EC018C818115FB
:100F500081F0CE01F9DB81110FC0A6D4811549F0D3
:100F60008D81811531F08091C50382FF02C082E03E
:100F70007AD5DF91CF910895CE01C8DFCE01D2DBC3
:100F8000F8CF811511F0AFD44AC50895811511F03D
:100F9000B0D445C5089580E090E00E94661E80E0D0
:100FA00090E00E948D1EADD43AC50E948E1FF3CFF3
:100FB00094D4FBCF282F92959F70963099F060F4CF
:100FC000925F9F70923030F4203FB1F038F481E0AE
:100FD000283E38F080E008959A5FF3CF81E0243F07
:100FE000C9F7089591E0813F09F090E081E0283E43
:100FF00008F080E0892B089581E00895FC01848148
:10100000811531F087819085009719F07BD6D2CF7A
:101010000895808191813BD1FACFA6E0B0E0E3E171
:10102000F8E00C9439292696E2E00C945529A9E0C1
:10103000B0E0EDE1F8E00C9437292996E4E00C9457
:1010400053290895FECF0895FDCF0895FADFFCDF00
:1010500080932D0290932E0208950895F7CF08955E
:1010600020912D0230912E02822B932BEFCF2091D5
:101070002D0230912E0282239323E8CF20912D025E
:1010800030912E0282279327E1CFDBCF0895FDCF49
:101090000895D7CF0895FDDFFADF80932B02909358
:1010A0002C02089580E090E0F6CF21E030E002C00D
:1010B000220F331F8A95E2F7C901EDCF21E030E01E
:1010C00002C0220F331F8A95E2F780912B02909184
:1010D0002C02822B932BDFCF21E030E002C0220FC5
:1010E000331F8A95E2F72095309580912B029091DD
:1010F0002C0282239323CFCF21E030E002C0220FC5
:10110000331F8A95E2F780912B0290912C0282275F
:101110009327C1CF20912B0230912C02822B932B4D
:10112000BACF20912B0230912C0282239323B3CF8C
:1011300020912B0230912C0282279327ACCF089567
:10114000CF93C1E061FDC4E060FDCC0F62FDC295AC
:1011500093E0769567959A95E1F7660F771F660F8E
:10116000771F460F571FFA0140E050E090E0619171
:10117000DF019C01042E02C0369527950A94E2F700
:101180002695220B26272C2326272E934F5F5F4F71
:101190004430510561F7CF910895A82FA77023E03F
:1011A000969587952A95E1F7880F991F880F991FC3
:1011B000680F791FFB0140E050E080E0219130E0B2
:1011C0000A2E02C0369527950A94E2F72170042E64
:1011D00001C0220F0A94EAF7822B4F5F5F4F443021
:1011E000510561F70895262F983068F4863058F439
:1011F000682F70E086E0989F600D711D112443E117
:1012000052E0822F9DCF0895292F983058F48630D0
:1012100048F490E063E172E036E0239F800D911D79
:101220001124BBCF80E00895CF92DF92FF920F93FD
:101230001F93CF93DF936C0100912B0210912C022E
:1012400080912D0290912E02082B192BCFE0D0E037
:1012500081E090E00C2E02C0880F991F0A94E2F7FB
:1012600080239123892B61F4219790F7F12C8F2D06
:10127000DF91CF911F910F91FF90DF90CF90089554
:10128000FC2EB6018C2F3ED6019771F3F0CFCF9391
:10129000DF93EC01C9DFBE0135D6DF91CF91089510
:1012A0001F93CF93DF93EB0190911202911531F0D0
:1012B000CB01EDDFDF91CF911F910895811551F0A2
:1012C000CB01B2DF182F682FCE018DDFBE01812F39
:1012D00019D6F0CFCB0198DF182FF8CFEF92FF92FD
:1012E0000F931F93E0902F02809130028E1105C062
:1012F0001F910F91FF90EF90089589E0E89EF00113
:101300001124EF5CFD4F00811181228133814481E2
:1013100055816681778180858ADEC70183958770D4
:10132000E82EE2CF0F931F930091790210917A0279
:1013300020917B0230917C0240917D0250917E028F
:1013400060917F02709180028091810270DE1F9116
:101350000F91089580917F02803170F480917E0218
:10136000811551F0E0912F022091300230917A02E4
:10137000409179022E1301C00895BF0189E0E89FD2
:10138000F0011124DF01AF5CBD4F14968C911497CE
:10139000811569F111968C911197831328C08C9156
:1013A000841325C015968C911597811120C0129633
:1013B0008D919D91A0917B02B0917C028A1B9B0B29
:1013C000A0915601B09157018A179B0780F4809134
:1013D0007F028F70806180937F02E95CFD4F808186
:1013E0008F708061808389E792E0ADDD77CF6F5F9A
:1013F0007F4FFB01E770BECF8F929F92AF92BF925B
:10140000DF92EF92FF920F931F93CF93DF93CDB7AD
:10141000DEB72F970FB6F894DEBF0FBECDBF8C019D
:1014200086E0F801DE011A9601900D928A95E1F7A7
:10143000F801F580848199E7892E92E0992E9091A8
:101440007D02911117C0811509F448C1F11409F406
:1014500089C1C801D3DD811509F484C189E0F8018F
:10146000D40101900D928A95E1F7C401EEDA72DFA2
:1014700059DF34C1A081A280B380D0907E02209138
:101480007B0230917C02A501421B530B9A014091D3
:10149000560150915701D11409F423C1241735077F
:1014A00008F0E8C0811509F419C130917A02218150
:1014B00080917F02803108F095C0EF2C23132FC05C
:1014C000309179023A132BC06091800270918102B1
:1014D000478150856417750711F5F11027C08F708B
:1014E000806180937F021EDF89E792E02CDD80918E
:1014F0007F02F8018683E12C8E2D2F960FB6F8948B
:10150000DEBF0FBECDBFDF91CF911F910F91FF9036
:10151000EF90DF90BF90AF909F908F900895809153
:101520002F0230913002E82FF114D1F080917F0228
:10153000816080937F02DFCFAF0169E06E9FF00191
:101540001124EF5CFD4F6181261306C06081A61354
:1015500003C06581611111C14F5F5F4FFA01E770F0
:10156000E313EACF381310C08A859B8590DE292FBC
:1015700022952F709034E0F02A5F2F70223060F1B6
:10158000C801E1DCED2CB8CFAC0169E0869FF00129
:101590001124EF5CFD4F8181281306C08081A813C0
:1015A00003C085818111A7CF4395842F8770DACF3F
:1015B0009F70223038F0911551F0F80196819031EA
:1015C00030F49ACF911519F0811509F495CF805E0A
:1015D000883008F491CFD4CF803F08F48DCF815F5D
:1015E0008330F7CF23131BC0209179022A1317C031
:1015F0004091800250918102278130854217530724
:1016000071F4F1100CC08683C8019DDC89E0F801FB
:10161000A9E7B2E001900D928A95E1F729CFC801C0
:10162000EDDC811509F49EC0F11409F49BC0809192
:101630007F028032B0F02091790230917A022983C2
:101640003A83AB82BC8290917D029D831E828F8300
:10165000809180029091810288879987CE010196BE
:1016600072DC89E0F801A9E7B2E001900D928A9559
:10167000E1F7FDCE20917F02203188F44A855B8519
:101680006C857D858E859F85C8DC89E792E05BDC73
:10169000F40189E011928A95E9F744DE2CCF811597
:1016A000E9F030917A0281813813B9CF80917902C3
:1016B0008A13B5CF40918002509181028781908535
:1016C0004817590709F0ABCFF110A9CF2683C801FD
:1016D0003ADCF40189E011928A95E9F7EE24E3946B
:1016E0000BCF2417350708F040C08115B9F3F1146A
:1016F000C9F140917A02818148132BC0809179020F
:101700008A1327C040918002509181028781908581
:1017100048175907F1F42A3A310590F490917F0265
:1017200090FD0EC0903160F0892F9683907F903F9E
:1017300009F46ACF982F907F905F8F70892B63CFC9
:1017400089E0F801A9E7B2E001900D928A95E1F7EE
:10175000C5CFC80153DC811184CF80917F028160A5
:1017600080937F02C801EFDBB9CF4A855B856C852A
:101770007D858E859F8551DC8BCF89E792E0E3DB09
:10178000E9E7F2E086CFA2E1B0E0E9ECFBE00C94FF
:1017900037290A871B872C873D874E875F87688B91
:1017A000798B8A8BCE010A9627DE4E858115A9F0AA
:1017B000411549F00A851B852C853D855F85688923
:1017C00079898A8934DC80912F02909130028913C3
:1017D0003DC06296E4E00C94532989E09E01265FA7
:1017E0003F4FF90129503109D90101900D928A9595
:1017F000E1F7411541F3A09130028A2F90E08395E3
:10180000877090E0AC0120912F022417150691F00B
:1018100099E09A9FD0011124AF5CBD4F9E012F5FCC
:101820003F4FF90101900D929A95E1F740933002F4
:1018300055DDC9CFBDDB1092300210922F02E9E7CF
:10184000F2E089E011928A95E9F7BDCF19E0189F7F
:10185000C00111248F5C9D4FCFDD811509F4B9CFF4
:10186000E0912F021E9FF0011124EF5CFD4F0081DB
:101870001181228133814481558166817781808500
:10188000D6DB80912F029091300201968770809371
:101890002F0299CF8091AA02869586958695089504
:1018A0008091AA02877008959091AA02977081E0B2
:1018B000911101C080E008958091D6020895909121
:1018C000D602982B9093D60208958095982F8091F8
:1018D000D60289238093D60208951092D6020895E5
:1018E0008091D50208959091D502982B9093D502BE
:1018F00008958095982F8091D50289238093D502F1
:1019000008951092D50208958091AC02089508952B
:10191000FECF08959091AB02292F282329F08095BE
:1019200089238093AB02F4CF08950895FECF0895E4
:101930009091AC02292F2823281721F0982B9093FF
:10194000AC02F4CF08959091AC02292F282329F0FE
:10195000809589238093AC02E9CF08958091AC02F1
:10196000811521F01092AC0280E0E0CF0895CF9372
:10197000C091D6028091D502C82B8091AC0281150E
:1019800029F0C82B0E94B41E8111E8DF8C2FCF9163
:101990000895CF93DF93C0915A01D0915B01E7DFA7
:1019A0008883C0915A01D0915B0148E050E062EA1F
:1019B00072E0CE010E946029892B59F088E0FE0177
:1019C000A2EAB2E001900D928A95E1F7CE010E9461
:1019D000471EDF91CF910895CF93DF93C0915801B7
:1019E000D0915901C4DF8983C0915801D091590128
:1019F00040E250E062E872E0CE010E946029892B4B
:101A000059F080E2FE01A2E8B2E001900D928A95C1
:101A1000E1F7CE010E94541EDF91CF9108950E94FC
:101A20002A1E811529F08091C40387FF01C0D4CFFD
:101A3000B0CF0895FECF08959091C50392FF0EC0D8
:101A4000982F990F990F990F962B9093AA0236DB36
:101A50008091AA02869586958695ECCF2FCB109221
:101A6000AA0280E0E7CF9091AA0280958923809313
:101A7000AA02282F277059F4891749F09091C503BD
:101A800092FF05C086958695869526DBE8CF08955A
:101A90009091C50392FB222720F9281749F080FB7B
:101AA00092F99093C50384EC93E043D082E0DBCFBE
:101AB00008958091C503002482FF0394802DE8CF10
:101AC00081E0E6CF80E0E4CF80E090E0BC01EAC3B3
:101AD00080E090E0BC01E0D3F7CFA3E0B0E0E3E723
:101AE000FDE00C94392991D39CD31B82CE0103963F
:101AF000AFD381E090E080932D0210922E02B4D3F8
:101B0000198284E18A83CE010196BFD3E1DF239657
:101B1000E2E00C945529E1CF089589C3089576C376
:101B200008958BC308959AC308959EC30895A1C3D1
:101B30000895ABC30895BCC30895A6E0B0E0E3EAFE
:101B4000FDE00C9437290E94CC208C018091D702B3
:101B50009091D8028017910779F019821A820E9419
:101B6000CC20BC0149815A8180E090E00E94F204BF
:101B70000093D7021093D8022696E4E00C945329E0
:101B8000E0D26093DD027093DE028093DF029093D7
:101B9000E0026093D9027093DA028093DB029093A3
:101BA000DC02089508950895FDCF08950895FEDF9D
:101BB000FBCF0895FECF08950895FEDFFBCF81E0AF
:101BC00008958DEB90E152D7EEDFF1CF11C5089566
:101BD000089508950895FCDFFCDFFCCFA0DF81119C
:101BE00001C099DF81EE92E09CDF84EC93E09FDFFF
:101BF0005FD799DF33DA80912B0290912C0247CA8C
:101C00000E94C32075D2F9D44DD4E8DF0E94281E6B
:101C10000E94D2040E948619FDD4CFCFE9D4811549
:101C200041F00E94FA1D0E94C5170E9421160C94D3
:101C3000291E0895A6E0B0E0E0E2FEE00C94302911
:101C4000BEDF811108C079DFE9DF0E94DA04269641
:101C5000EBE00C944C2943D48CEBA82E83E0B82EF7
:101C6000750110E0F7010081812F2DD31F5F18301F
:101C700009F445C09FEFE91AF90A081799F3809112
:101C8000E10281FD26D3A2DF982E10E0812F1BD325
:101C9000F82EF50181915F01F81661F18F25D82E9C
:101CA00000E0EE24E3948D2D8E21F1F0CC24C3943A
:101CB0008F2D8E2109F4C12C911489F0602F812F72
:101CC0000E94272081110BC009831A830E94CC2017
:101CD000BC0149815A8181E09C2D0E94F2044C2D67
:101CE000602F812F0E943B200F5FEE0C0630D9F64B
:101CF000F501F2921F5F183049F642DFA5CF0813B5
:101D0000BECFA1CF0F931F93CF93DF93FDD0EC01F4
:101D1000D23508F050C0D03508F0C8C0C03ED1055B
:101D200030F5CD3CD10508F09DC0C83AD10578F416
:101D3000C53AD10508F093C0C130D105B1F1CE014B
:101D40000497813A910588F1C0E0D0E02EC0CE0121
:101D5000885A91094B97C0F7C85AD0E0CC0FDD1FC5
:101D6000CE53DE4F0990D881C02DD4641EC0D0342C
:101D7000A8F4D03208F0ADC0C83ED105B0F0CE0115
:101D800091509F3108F78D2F62D1082F8C2F90E052
:101D9000BBD0D02FDF71C82FD92B07C08C2F90E07C
:101DA000B3D0DF70C82FD92BD06ACE01DF91CF918D
:101DB0001F910F910895C03882E5D807B8F5C03655
:101DC00082E5D80708F056C0C03482E5D807C8F4C9
:101DD000C03282E5D80708F047C08C2F86958695DB
:101DE00020E2829FC0011124C37021E030E002C0D4
:101DF000220F331FCA95E2F7E901C82BD92BDD6802
:101E0000D4CF8C2F86958695877020E2829FC00163
:101E10001124C37021E030E002C0220F331FCA95A5
:101E2000E2F7E901C82BD92BDC68BFCFC03C82E5C3
:101E3000D80750F48C2F8F71C03AD24580F5982F77
:101E400084EF906AEC01B1CFCE01805C924580971F
:101E500008F07ACFDC2FDF71C0EFD06AA6CFA4974D
:101E6000D064A3CFD065A1CF8C2F8F71D82FC1EFB5
:101E7000D06A9BCF8C2F86958695877020E2829FB3
:101E8000C0011124C37021E030E002C0220F331FD3
:101E9000CA95E2F7E901C82BD92BDA6886CFD7D0EB
:101EA000982F80E09F71EC01D0627FCF8C2F8F71D3
:101EB000CED053E0CC0FDD1F5A95E1F7DF70282F0D
:101EC00084FF04C090E1899F90011124C22FD06942
:101ED0006CCF8D2F8F71BBD0082F8C2F90E014D03A
:101EE000302F3F71282F392B3062E9015ECF462F0A
:101EF000783028F4663018F4672F0C94BB0280E029
:101F000090E00895F4DFFECE803E9105D1F1C8F453
:101F10008133910509F481C048F48932910509F4AF
:101F200071C08A32910509F47FC008958933910503
:101F3000E1F082389105C9F08533910509F45DC05F
:101F40000895843E9105D1F148F4823E910531F126
:101F5000833E910541F181EE90E00895863E910522
:101F6000C1F1873E9105F1F108952091C4032370DA
:101F700009F064C02091C50323FF14C089E290E0FA
:101F800008952091C40320FD45C03091C50330FF62
:101F900009C024FD24C083EE90E008952091C4037D
:101FA00022FDF7CF08952091C40322FD44C0309153
:101FB000C50330FD43C024FFF5CF11C02091C503F8
:101FC00021FFF0CF8091C40384FD09C087EE90E02B
:101FD00008952091C40323FFE5CF24FFF7CF80E0CD
:101FE00090E008952091C40323FD2BC03091C503D8
:101FF00031FFE1CF84EE90E008952091C40325FFE6
:10200000D1CFBCCF2091C40325FD1EC02091C503B4
:1020100023FFC8CF89E390E008952091C40326FFF1
:10202000C1CF8AE290E008952091C40326FFBACF81
:1020300081E390E0089582EE90E0089580EE90E0D4
:10204000089586EE90E0089585E390E008959091DC
:10205000C40392FF10C041E0282F2471243009F0FE
:1020600040E031E0282F2871283009F030E0431794
:1020700011F02CE0822793FF10C041E0282F24713B
:10208000243109F040E031E0282F2871283109F08F
:1020900030E0431711F02CE082273091C50330FF68
:1020A00010C051E0282F2171213009F050E041E0AB
:1020B000282F2871283009F040E0541711F029E04A
:1020C000822731FF10C041E0282F2171213109F012
:1020D00040E031E0282F2871283109F030E0431723
:1020E00011F029E0822794FF02C083FD877E0895C6
:1020F0001092C6031092C7031092C8031092C9032E
:102100000895EF92FF920F931F937B018C0170D281
:10211000811112C00E94D8209701A801261B370BFD
:10212000480B590BC901DA018093C6039093C7038A
:10213000A093C803B093C9031F910F91FF90EF9034
:10214000089556D2811541F00E94D820462F572F6E
:10215000BC01CB01BA0108950E94D820DC01CB015B
:102160004091C6035091C7036091C8037091C903A1
:10217000480F591F6A1F7B1FECCF80E00895CF9353
:102180009C01205E3245C1E02032310538F4FB016C
:10219000C581C11103C08F710E9411048C2FCF9192
:1021A00008959C01FB018581811599F02B359CE7F1
:1021B000390769F02C359CE7390721F02A353C476F
:1021C00021F0089576DC80E008957ADCFCCF7ADC9B
:1021D000FACF81E008959C01FB018581811599F07A
:1021E00021309CE7390761F023309CE7390739F04B
:1021F00021153C4749F40E94390480E008958DDCA4
:102200000E943D04FACF81E00895089580E090E0B7
:102210000E947E299C0181E0233E3E4F09F080E030
:10222000089563EE7EEF80E090E00C949D296FEFBF
:102230007FEF80E090E00C949D29CF93DF93EC0139
:1022400082E090E00E9476298883DF91CF91089503
:10225000FC01608182E090E00C94832983E090E0AF
:102260000E94762990E00895682F83E090E00C9416
:102270008329CF93DF93EC0184E090E00E947E29D4
:1022800088839983DF91CF910895FC0160817181EA
:1022900084E090E00C949D29AB01BC018FE090E0BC
:1022A0000C949529AB01BC0183E190E00C94952935
:1022B000682F8EE090E00C9483290895FECF089556
:1022C0000895FECF0895E82FF0E0ED52FC4F808195
:1022D0000895089580EA8A95F1F7089500C0089559
:1022E000F9CF08950895FECF0895A4E0B0E0EBE79C
:1022F000F1E10C9436297CD1F82E8091DB0390E03B
:102300008D529C4FF114D9F18E010F5F1F4FF801D0
:1023100024E011922A95E9F7B80188D18115B1F02E
:102320008091CA0390E044E050E0B8018D529C4F88
:102330000E94602921E02093E202892B91F4F12C84
:10234000C0DF8F2D2496E5E00C9452298091E202A3
:102350008115A9F3F80184E011928A95E9F71092AA
:10236000E202E091CA03F0E0ED52FC4F89819A81CC
:10237000AB81BC8180839183A283B383E1CF209121
:10238000CA0330E0BC01C9018D529C4FDAD1ABDFEA
:10239000D8CFF894E82FE295EF70F0E041A18F706C
:1023A00021E001C0220F8A95EAF7922F909594239D
:1023B00091A392A1822F892B82A378940895CF9321
:1023C000DF93CEEFD1E089918F3F09F0E2DF82E029
:1023D000C230D807C1F7C8EFD1E089918F3F09F02B
:1023E000D8DF81E0CE3FD807C1F7DF91CF910895C4
:1023F000A0E0B0E0EEEFF1E10C9433296C01E62EA1
:10240000C62FD0E08E0102501E4FF80180818F3F11
:1024100009F441C0F894E82FE295EF70F0E091A143
:102420008F7021E001C0220F8A95EAF7892F822B55
:1024300081A382A12095282322A378944FDFA8EFBF
:10244000B1E031E0F12C2D912F3F79F0E22FE295B0
:10245000EF70E05EF0E0808190E02F7002C0959513
:1024600087952A95E2F780FF1BC080E0F82A330F9A
:1024700081E0AE3FB80739F7F80180818F3F09F05E
:1024800088DF61E0F11001C060E08E2D29DFF601E8
:10249000EC0FFD1FF082CDB7DEB7E8E00C944F29BA
:1024A000832FE4CF80915C0180915C0191E08927CA
:1024B000880F880F8093DB0394E0981B9093CA03E6
:1024C0007EDFE3EDF3E088E011928A95E9F7EBEC2B
:1024D000F3E088E011928A95E9F741D0EFCEA8E0C9
:1024E000B0E0E5E7F2E10C943629FE013196DF0118
:1024F00088E01D928A95E9F710E00E2FFF2E612FDC
:10250000802F9F2D75DF812F8F5F182F8430B9F7B3
:1025100048E050E0602F7F2D8BEC93E00E94602913
:1025200041E0892B91F440E06091DB0370E06D5253
:102530007C4F8BEC93E014D0182FD7DE912F982B83
:10254000892F2896E5E00C94522988E0E02FFF2D92
:10255000ABECB3E001900D928A95E1F7E5CF0895D9
:10256000EF92FF920F931F93CF93DF938C017B0128
:10257000C42F411579F081E08093E5020E94CC20C0
:102580008093E3029093E40280E0CDB7DEB7E6E00B
:102590000C945129D091E502D115B1F38091E30259
:1025A0009091E4020E944B20059770F344E050E0C4
:1025B000B801C7010E946029892B41F084E0F8012D
:1025C000D70101900D928A95E1F7CD2F1092E50287
:1025D0008C2FDBCFCF930E94F428C82F811102C02B
:1025E0000E94F0288C2FCF9108958091E9020895E0
:1025F0008091E8020895FCCF0895ECDF8093E80213
:10260000FADF8093E902F1DF80935C01F1DF811151
:1026100040C00895EDDF811101C03EC0089581E002
:102620009091EA029A3008F080E008950F931F938A
:10263000CF93DF93EC018B018091EA028A3080F422
:10264000B801CE017CD0811121C08091EA028F3F78
:10265000B1F40E94CC208093E6029093E70209C077
:102660008091E6029091E7020E944B20843F9140C6
:1026700038F780E0DF91CF911F910F9108958F5F20
:102680008093EA028A3028F781E0F4CF1092EA02C0
:10269000FBCF0C94782108950C947B210895CF9260
:1026A000DF92FF920F931F93CF93DF936901E801AD
:1026B000082F880F110B41155105B1F0F80133E0D7
:1026C000EE0FFF1F3A95E1F7E35AFE4F81819281A9
:1026D00085519D4FE0812E2F30E04E17510508F4B3
:1026E0009A01A9010E946D29C8010E945922F82E61
:1026F0008115E1F02097D1F0C80123E0880F991FE0
:102700002A95E1F7FC01E35AFE4F2381422F50E066
:10271000C217D10508F4AE01835A9E4FFC016481B3
:10272000758165517D4FC6010E946D298F2DDF9106
:10273000CF911F910F91FF90DF90CF90089528C106
:10274000089542C10895A4E0B0E0E9EAF3E10C94F1
:102750003729609108037091090380910A039091D1
:102760000B030E94542011E0643671058105910528
:1027700008F1E7DCDC01CB010296A11DB11D8983C4
:102780009A83AB83BC8300E010E0980144E050E002
:10279000BE016F5F7F4F83E082DF182F811551F0FC
:1027A0000E94D820609308037093090380930A0362
:1027B00090930B03812F2496E4E00C9453290F93FC
:1027C0001F93CF93DF93EC0160910202709103029B
:1027D0006B5F7F4F44E050E00E9460298C01609164
:1027E00004037091050380910603909107030E94F2
:1027F0005420643671058105910510F4012BA1F078
:1028000000E010E0980144E050E0BE0182E047DFC4
:10281000811559F00E94D82060930403709305033A
:10282000809306039093070381E0DF91CF911F917E
:102830000F910895A5E0B0E0E0E2F4E10C943129B5
:102840005B01E0900202F090030201E010E0CE0193
:1028500005969C0140E050E0BA0180E020DF182F8F
:10286000811509F446C067018FEFC81AD80A609134
:1028700000037091010380910203909103030E9471
:102880005420643671058105910560F104E010E083
:102890009E012F5F3F4F40E050E0BA0181E0FFDE34
:1028A000182F64E070E0C60132D59D8198132CC0CA
:1028B000111551F10E94D820609300037093010319
:1028C000809302039093030389819A81AB81BC8139
:1028D0008093FC029093FD02A093FE02B093FF024E
:1028E00081E013C064E070E0C60111D59D818913B9
:1028F000CDCFF70181819281A381B48189839A83AD
:10290000AB83BC831111E0CF80E04091FC02509179
:10291000FD026091FE027091FF02F5014083518338
:10292000628373832596EAE00C944D29A0E0B0E021
:10293000ECE9F4E10C9431297C016B015A016FDE62
:102940000AE010E0811102C001E010E0C1E0D0E037
:10295000B601C701F5010995811115C021960C1723
:102960001D078CF0CC9F9001CD9F300D300D1124B0
:1029700080E090E045E34A95F1F700000196821768
:102980009307C1F7E5CFCDB7DEB7EAE00C944D2948
:102990000F931F93CF93DF93EC018B014AE154E136
:1029A000C5DF811561F04FED53E1B801CE01BEDF07
:1029B000811529F043EA53E1B801CE01B7DFDF9179
:1029C000CF911F910F9108950F931F93CF93DF9392
:1029D0008C01C0910202D0910302CE01019624E045
:1029E000FB01DC0101900D922A95E1F764E070E0B3
:1029F0008ED48883FE01359684E0D80101900D9233
:102A00008A95E1F789859A85AB85BC854091F80266
:102A10005091F9026091FA027091FB0284179507B8
:102A2000A607B70759F08093F8029093F902A09394
:102A3000FA02B093FB02BC01CD0163DBDF91CF91C1
:102A40001F910F910895F6C808950E9466200E9474
:102A5000E923B7D80E940124D3D80E940A240E94F7
:102A60000D24F1DF0E942324B6D8F9CF809304020D
:102A700090930502089551C80895B7DD91E0892724
:102A8000880F880F20DC86958170089528DD8FEFF0
:102A900096E721E0815090402040E1F700C000001F
:102AA0001EDDEBDF811519F0E6DF0C940821089597
:102AB000EDCF08959C018D329105F9F088F48832AC
:102AC000910548F44E97E0F4245031092A3131053C
:102AD000A0F080E0089581E02A323105D1F7089511
:102AE00081E02D3292E0390709F080E091E02C344A
:102AF000310509F090E0892B089582E00E94730C63
:102B000081E00895EF92FF921F93CF93DF93EC0142
:102B10007B01C3378CE7D80759F4FB01858181110C
:102B2000A1D080E0DF91CF911F91FF90EF900895A9
:102B30000E945C0C182F0E94840C182B64D0811109
:102B400007C0123211F081E0EDCF61D0F4D6FBCF97
:102B500051D0F70185818115B1F31D79E9F5D035A3
:102B600078F4D03408F03FC0C63ED10561F3CE0101
:102B70009052903280F48681803110F1D0E00BC009
:102B8000C43B82E5D807F9F2B0F4C03482E5D80737
:102B900058F4D235C0F60E94810CCE018BDF81152E
:102BA000D9F00E940F0DCFCFCE01805692458034D0
:102BB000910548F2F0CFCE01805C92458097F9CF25
:102BC0008D2F8F71843109F4BECF40F4823079F0BB
:102BD000C5EED0E08231F9F228D0B5CFC6EED2E111
:102BE0008631C9F2F9CF8681803140F6ACCFC1EE93
:102BF000D0E0D1CF0E94CC2088579C4E80930C030C
:102C000090930D03089580910E0308950895809187
:102C10000E03811109C00E946D0C0E94AE0CEADF08
:102C200081E080930E03F2CF089580910E03811509
:102C300039F082E20E94C60710920E0380E0E6CFD0
:102C4000089580910E03811561F00E94CC2020919F
:102C50000C0330910D03821B930B8F3F9F4708F4A9
:102C6000E4CF089580910E03811509F0DECFCFCF18
:102C70000895A9E0B0E0EFE3F6E10C9435297B017B
:102C8000FB0122813381232BC9F0FE01319687E0BD
:102C900011928A95E9F70E94CC209C01F70172817C
:102CA000838109811A8144E05E816F810E94C30B98
:102CB000F70115822996E6E00C94512960E0D8DFEF
:102CC000F7CFEF92FF920F931F93CF93DF938091F3
:102CD0008203E0910F03CDE0811129C0CDB7DEB7AB
:102CE000E6E00C945129DE2FDF5FD0930F03EE2E28
:102CF000F12CCE9FF0011124E65EFC4F84818115FA
:102D0000A9F087819085892BD9F4818592858F3FA1
:102D10009807B1F061E0ACDFCE9DF001CF9DF00DE2
:102D20001124E65EFC4F14820E94810CED2F8091ED
:102D30008203E817C0F21092820310920F03CECFE5
:102D4000008111812281338144815581668177819F
:102D500080850E94C30BE0CF0895CF93DF9310923C
:102D6000830310928403C0E0D0E00E94BD02C81724
:102D7000D90718F0DF91CF910895CE010E94C002CB
:102D8000FC018581811102C0148216822196EDCF4B
:102D90001F93CF93DF9310911803409119034117AC
:102DA000C9F0C12FD0E0FE01EE0FFF1FE05FFC4F26
:102DB000208131812817390789F40E94C00221E05F
:102DC000FC01248380911803811304C02196C370F1
:102DD000C0931803DF91CF911F910895C3951C2FC5
:102DE0001370DDCFA0E0B0E0E8EFF6E10C942E29FF
:102DF000EC01FB01848181115CC090908203AAE107
:102E0000B3E040E050E030E001E010E0491508F0A8
:102E10004EC01B96AD90BD901D97FB01C080D18028
:102E200077247A94872C20E0822F90E0F601E20F3D
:102E3000F11DE20FF11DE590F590AE14BF0411F005
:102E4000872D982DE114F10421F02F5F782E892E23
:102E5000EBCF8F3F9807A9F1F80101C0EE0F8A95DB
:102E6000EAF73E2BC801022E02C0880F991F0A9470
:102E7000E2F701973817190609F5FB018281938162
:102E80003DE0349FF001359FF00D1124E65EFC4FCC
:102E90008783908784E0848310821182C187D287E0
:102EA00081E0FB018583213011F4CE01E2DECE0109
:102EB0006FDFCDB7DEB7EDE00C944A2914961C9273
:102EC00014974F5F5F4F1D96A1CF0F931F93CF9322
:102ED000DF93C0911803809119038C1307C0F1DEB2
:102EE0003CDFDF91CF911F910F910895D0E08E01CB
:102EF000000F111F005F1C4FF801808191810E941B
:102F0000C002BC01F801808191816CDFC395C37060
:102F1000E2CFEF92FF920F931F93CF93DF93DC01E9
:102F20004D915D91129730E090E020E0FA01E20FC0
:102F3000F11DE20FF11DC591D5912097C1F0FB0164
:102F40000081118190E007C081E0CE15DF0509F016
:102F500080E0382B9F5FF801E90FF11DE90FF11DAB
:102F6000E590F590E114F10479F72F5FDFCF31158B
:102F700049F0921708F0BD01CB01CDB7DEB7E6E00E
:102F80000C94512960E070E0F7CF80917D018115AC
:102F900029F180918503909186030097F9F00E94B2
:102FA0004B20209183033091840328173907B0F414
:102FB0009091180380911903981751F086DF1092B1
:102FC0008303109284031092850310928603089560
:102FD00078DE1092850310928603BFCE089510927A
:102FE00085031092860310927D01809119038093CE
:102FF0001803B3DE66CE80917D01811509F0EFCF15
:1030000081E080937D010895AAE0B0E0EAE0F8E174
:103010000C9429297C016B0180E5E8168CE7F80601
:1030200061F4FB0185818115F1F081E080937D01E0
:1030300081E02A96E2E10C94452981E5E8168CE7C7
:10304000F80631F4FB018581811569F0C8DFF0CF06
:1030500082E5E8168CE7F80631F4FB0185818115DD
:1030600011F0C9DFE5CF20912B0230912C02809125
:103070002D0290912E02822B932B0E94A304182FD5
:103080006BDE181731F0F601608171810E94770FB5
:103090007C01A12CB12C1A86250143940E94BD020B
:1030A000A816B906E0F1F6018581811509F41FC162
:1030B0008A85811509F41BC10E94CC208093850369
:1030C0009093860380918203883028F5982F9F5F24
:1030D0009093820399E0F6019E012F5F3F4FD90143
:1030E00001900D929A95E1F72DE0829FC001112485
:1030F000865E9C4F29E0AE014F5F5F4FFA01DC0115
:1031000001900D922A95E1F72FEF3FEFFC01218707
:103110003287E386F4868A85809581708ACFC501DF
:103120000E94C0028C01FC01208131816FEF80E0A0
:103130009FEF882E912CF901E80FF11DE80FF11D8A
:1031400045915591E416F50611F0862E992E452BE2
:1031500021F08F5F682D992DECCF9FEF8916980491
:1031600009F4C3C0F801448130907D014111312C34
:10317000F80175809681F6012581211509F47CC03E
:10318000311409F479C0711015C021E0082C01C078
:10319000220F0A94EAF7922BF80196832091830379
:1031A000309184032233310528F422E320938303F2
:1031B00010928403920102C0220F331F8A95E2F716
:1031C000C9010197F80126812817190659F5809140
:1031D000850390918603009769F05DD7C39750F0FF
:1031E00081E0F80184839A85982B9A878FEFA81A3B
:1031F000B80A54CF2090180380E090E02091190382
:10320000221212C00817190769F0822D90E0FC0104
:10321000EE0FFF1FE05FFC4FA082B182019683702A
:1032200080931903832DDFCF622C712CF301EE0FF5
:10323000FF1FE05FFC4F808191810E94C0024C0122
:10324000B80167DE009799F0FC0121E0248308179C
:10325000190741F320911803221209C08816990614
:1032600031F493012F5F3F4F237020931803930194
:1032700023952370222EC2CF292F30E071101EC05B
:10328000B20102C0660F771F8A95E2F7CB01019762
:103290008217930771F0312CC20102C0880F991F69
:1032A0008A94E2F74C018094F80186818821868314
:1032B000B9CF411589F3C5016BDDEDCFA901082C0C
:1032C00002C0559547950A94E2F7C90101978223F8
:1032D0009323892B39F440FF05C0B801C501C9DC2F
:1032E000372CDACF4170342ED7CF80E07CCF90914D
:1032F000180380911903981711F0E7DD0CCFE1DC7A
:10330000109285031092860328DD05CF0895FC01F5
:10331000680F791F8FEF41E3E617F70709F4089567
:103320009191892728E030E0982F990F87FF06C0F8
:10333000892F842721503040B9F7EECF892FFACF5B
:103340009C01FB018581811569F121379CE73907D3
:10335000C9F022379CE73907F9F020373C4719F5C7
:1033600060E280915601909157010E9483049C0174
:10337000C9012F5F3F4FFC0140814032C9F32ED27B
:1033800080E00895809156019091570105968093B1
:10339000560190935701F4CF8091560190915701B7
:1033A0000597F5CF81E00895CF93DF93EB01863148
:1033B0009C4709F50E945C0C9D81911599F08A7AD1
:1033C00091E0811101C090E090938703811541F055
:1033D00085E376D50E940F0D80E0DF91CF910895AF
:1033E00089E2F7CF80918703811519F085E37FD5B6
:1033F000F1CF89E2FCCF81E0F0CFCF93DF93EC01F6
:10340000FB018581811509F4CBC09E013057233221
:10341000310508F0ABC084EC93E00E94970DFE01EB
:10342000E150F047E232F10520F4E554F64D0C94FA
:1034300023298091C40381608093C40390C080914C
:10344000C50388608093C5038AC08091C4038260ED
:10345000F3CF8091C4038460EFCF8091C403886070
:10346000EBCF8091C5038160EDCF8091C503826071
:10347000E9CF8091C4038061DFCF8091C403806273
:10348000DBCF8091C4038064D7CF0E94D80780919E
:10349000C4038068D1CF8091C4038C60CDCF80916C
:1034A000C5038360CFCF8091C4038E7FC5CF809149
:1034B000C503877FC7CF8091C4038D7FBDCF809127
:1034C000C4038B7FB9CF8091C403877FB5CF809130
:1034D000C5038E7FB7CF8091C5038D7FB3CF809119
:1034E000C4038F7EA9CF8091C4038F7DA5CF809127
:1034F000C4038F7BA1CF0E94D8078091C4038F772C
:103500009BCF8091C403837F97CF8091C5038C7F2D
:1035100099CF9091C403892F8B7F92FF8460877F1E
:1035200092FF886089CF8091C503982F909590FB7A
:1035300080F990FB81F986CF9091C403892F8F7B0E
:1035400096FF806479CF0E94D8079091C403892F99
:1035500097FB87F9805870CF81E00E949B0D84EC27
:1035600093E00E94990D0E94D80780E0DF91CF91EF
:10357000089580E0F2CF9091C403892F8F7E94FF4D
:1035800080615ACF9091C403892F8E7F90FF816014
:1035900053CF9091C503892F877F93FF886052CFC7
:1035A00081E0E4CFDC01ED91FD918191FE93EE93FA
:1035B0000895A0E0B0E0EFEDFAE10C943229E82F95
:1035C000F0E0EC55FD4F9491B92E282F26952695C5
:1035D000269530E0F901EC5BFC4FE4908770F12C0C
:1035E000082E02C0F594E7940A94E2F7F901EC5C26
:1035F000FC4FC490D12C082E02C0D594C7940A94D5
:10360000E2F72C5D3C4FF901049110E002C01595E2
:1036100007958A95E2F7C62FD0E0E0FC25C0C0FEF2
:1036200006C086EE0E942D05CE01009759F5BE0119
:103630008B2D0E948F05CE01009761F5C0FC32C032
:10364000E0FE06C081EE0E946805CE010097C1F53C
:1036500000FF05C08CE20E94A5052097C9F5CDB7F3
:10366000DEB7E9E00C944E2981EE0E942D05CE01D3
:103670000097A9F2EFE9FFE03197F1F700C00000F1
:103680000197F6CFEFE9FFE03197F1F700C00000B6
:103690000197CBCFEFE9FFE03197F1F700C00000D1
:1036A0000197CACF86EE0E946805CE01009741F2CD
:1036B000EFE9FFE03197F1F700C000000197F6CF86
:1036C000EFE9FFE03197F1F700C000000197BECFAE
:1036D0008FE99FE00197F1F700C000002197BDCF6F
:1036E000A0E0B0E0E6E7FBE10C9432298C017B011D
:1036F000B42EC701F80109958130A0F009F058C037
:10370000C701F8010995C82F813089F4C701F80174
:1037100009950E94A5058B2D90E0009709F040C007
:10372000C111E7CFCDB7DEB7E9E00C944E29823066
:1037300031F4C701F80109950E942D05ECCF8330C3
:1037400031F4C701F80109950E946805E4CF84307F
:1037500011F7C701F8010995C82FC12CD12CDAE067
:103760008C2F8053990B8A30910568F0C114D104D5
:1037700091F2EFE9FFE03197F1F700C0000081E03E
:10378000C81AD108F3CFDC9D9001DD9D300D1124C6
:10379000820F931F6C01C701F8010995C82FE0CF74
:1037A000EFE9FFE03197F1F700C000000197B5CFD6
:1037B0006B2DFFDE9ECFA2E0B0E0E1EEFBE10C94CA
:1037C0003929462F89839A83BE016F5F7F4F82ED2F
:1037D0009AE186DF2296E2E00C94552960E0EBCF77
:1037E0000F931F93CF93DF93C42FD22FFC018581BA
:1037F0008115C9F040938A03CFD4809388039093B6
:1038000089038C2F805E883048F481E0C1FD84E01C
:10381000C0FD880FC2FD82950E94AC05DF91CF915B
:103820001F910F91089510918A03141337C080914E
:103830008803909189032FD420915601309157012C
:103840008217930758F5CD2FC05E1D17C1F0812F49
:10385000805E883048F481E011FD84E010FD880F1F
:1038600012FD82950E94B105C83048F481E0D1FD77
:1038700084E0D0FD880FD2FD82950E94AC05802F98
:103880000E94A50581E0D1FD84E0D0FD880FD2FD26
:103890008295C83018F60E94B105C0CF8C2F805E8B
:1038A000883008F0BBCF81E0C1FD84E0C0FD880F07
:1038B000C2FD8295F0CF0F93FC01CB01E851FC478C
:1038C000E730F10588F5E352F64D0C94232906E222
:1038D00021EE41EE6AE17CE783DF80E00F910895FD
:1038E00007E225EE45EE6BE17CE7F6CF06E221EE3E
:1038F00040EE68E17CE7F0CF07E225EE44EE69E1B7
:103900007CE7EACF06E221EE42EE6CE17CE7E4CF11
:1039100007E225EE46EE6DE17CE7DECF08E221E02E
:1039200045EE6EE17CE7D8CFFB01858181111092D5
:103930008A0381E0D3CF10928A030895411551057F
:1039400011F0FA0109950895CF93DF93C82FD62F70
:103950000E94D002C817190608F046C0EDE8F3E04F
:1039600020E030E047E0429FC001439F900D1124CA
:10397000DC01AE56BC4F5C9153FF08C056815C130E
:1039800005C083579C4FDF91CF9108952F5F3F4F24
:1039900037962330310539F7D11531F180919203F3
:1039A00083FF1CC08091990383FF1BC08091A003FB
:1039B00083FD1AC082E090E027E0289FF001299F54
:1039C000F00D1124CF0183579C4FDC011696CC9348
:1039D000EE56FC4F208128602083D5CF80E090E018
:1039E000EBCF81E090E0E8CF80E090E0CCCFCF93C8
:1039F000DF93EB01FC014481558160857185CE0127
:103A00009DDF8B810E94790C8C810E94650C0E9445
:103A10000F0D87E019928A95E9F7DF91CF9108950C
:103A20000F931F93CF93DF938C01EB018D8181FD69
:103A300011C082608D838B810E94730C8C810E94E7
:103A40005F0C0E940F0DF8014281538160857185E2
:103A5000CE0174DF1092A2031092A3038D8180FD2A
:103A600003C0BE01C801C3DFDF91CF911F910F9149
:103A7000089560E069CFCF93DF93EC018A818230B3
:103A800041F4FB01828193810E9408038D81826051
:103A90008D83DF91CF910895FB01808191810C94FA
:103AA0000803FC018281813031F4FB018081918126
:103AB0000C941C0308958230E9F7FB018281938105
:103AC000F7CFEF92FF920F931F93CF938C01FB01DF
:103AD000C581C11108C0C0E08C2FCF911F910F91FB
:103AE000FF90EF9008958091A2039091A303009717
:103AF00091F38017910779F390E00E94D3027C0143
:103B00008091A203B6DFFC01892B29F385818460B3
:103B1000858300831183BF01C70182DF0E94810C6E
:103B2000DBCFA0E0B0E0E7E9FDE10C9433298C01A4
:103B30006B01975509F043C0C02FD0E00E94D0021E
:103B4000C817D90730F080E0CDB7DEB7E8E00C94B5
:103B50004F29CE010E94D3027C01F6016581802F9E
:103B6000F3DEEC01892B79F3F60185819D8180FBE1
:103B700090F99D83811529F10FD380938B03909346
:103B80008C038A818F5F8A830E945C0C8B830E94E6
:103B9000700C9B81982B9B830E94840C8C83F70173
:103BA0004081518160857185CE01C8DE8D8181FFA4
:103BB00002C000E010E00093A2031093A30381E091
:103BC000C3CFF7014681578160857185CE01B6DE8E
:103BD0008D8181FFF4CFBE01C70109DF8091A2036F
:103BE0009091A3038017910751F71092A2031092AE
:103BF000A303E5CFCF93DF938091A2039091A3031A
:103C0000892BF1F080918B0390918C0344D2209109
:103C10005601309157012817390790F48091A2037B
:103C200090E00E94D302EC018091A20322DF009772
:103C300039F0FC01258122FD03C0BC01CE01F0DE7C
:103C4000DF91CF9108958093A9039093AA030895DB
:103C500008950895B5D1982F81E0913009F080E062
:103C600008950E94F812811103C08091A403089561
:103C7000E091A903F091AA03309739F00190F08107
:103C8000E02D309711F00995089580E00895E091B6
:103C9000A903F091AA03309731F00280F381E02D5F
:103CA000309709F009950895E091A903F091AA03CE
:103CB000309759F024813581232B39F026E0DC013F
:103CC0002C930480F581E02D09950895A3E0B0E0E0
:103CD000ECE6FEE10C9439292091A7033091A8036A
:103CE00028173907B1F08093A7039093A803E091B8
:103CF000A903F091AA03309761F00084F185E02DCB
:103D0000309739F023E029838A839B83CE01019683
:103D100009952396E2E00C945529A3E0B0E0E3E98D
:103D2000FEE10C9439292091A5033091A6032817B0
:103D30003907B1F08093A5039093A603E091A903FE
:103D4000F091AA03309761F00084F185E02D30975F
:103D500039F024E029838A839B83CE01019609955B
:103D60002396E2E00C945529CF93DF93C0915A013A
:103D7000D0915B016FDF811521F08091C40387FD35
:103D800011C09E012E5F3F4F96E080E09150F901F7
:103D900040812F5F3F4F41118F5F9111F7CFDF912E
:103DA000CF91089520915801309159012E5F3F4FD6
:103DB0009EE1EBCFCF93C82F811102C080E02EC0CF
:103DC00049DF811521F08091C40387FD0FC08091E8
:103DD0005A0190915B01FC013296089620812C17C4
:103DE000F9F03196E817F907C9F7E8CF8C2F8695D7
:103DF00086958695C03F10F7E0915801F0915901E2
:103E0000E80FF11D228130E0C77081E001C0880F0A
:103E1000CA95EAF7282381E0232B81F2CF910895F8
:103E200081E0FCCF9C01FC01329680E09FEF408155
:103E3000461759F031969F3F19F4411101C0982F50
:103E40008F5F8630A1F79F3F09F40895290F311D38
:103E500097FD3A95F90162830895FC013296089620
:103E60002191261302C0DF011E92E817F907C1F75E
:103E70000895262F269526952695603F60F4820F9B
:103E8000911DFC01677021E001C0220F6A95EAF7DD
:103E90008281822B82830895262F2695269526954A
:103EA000603F68F4820F911DFC019DEF61FD97EF6B
:103EB00060FF959562FD92958281892382830895A2
:103EC000CF93C82FC7DE6C2F811559F08091C403A2
:103ED00087FF07C08091580190915901CADFCF91A7
:103EE000089580915A0190915B019CDFF8CFCF93A8
:103EF000C82FB0DE6C2F811559F08091C40387FF65
:103F000007C08091580190915901C6DFCF91089563
:103F100080915A0190915B01A0DFF8CF9BDE811563
:103F200071F08091C40387FF0AC0E0915801F091BD
:103F3000590132968EE111928A95E9F70895E09140
:103F40005A01F0915B01329686E0F5CF0895FECFDD
:103F500008958F5F8093810160917E0170917F0150
:103F60008091800190918101F2CF83E08093810163
:103F700060917E0170917F0180918001909181011B
:103F8000E6CFE7CF089581E08093810160917E01C3
:103F900070917F018091800190918101D8CFF3CF02
:103FA000089591E0811101C090E0909380016091AB
:103FB0007E0170917F018091800190918101C7CF36
:103FC00080918001089580937F0160917E017091BE
:103FD0007F018091800190918101B9CF80917F0113
:103FE000089580937E0160917E0170917F018091A0
:103FF000800190918101ABCF80917E010895089559
:104000000895FECF089508950895F9CF08950F9368
:104010001F93CF93DF93F7DF0E946F12F5DF0BEA58
:1040200013E0C0E0D0E08C2F0E946311F80181936F
:104030008F0191E0811101C090E0D92BCF5FC83092
:1040400091F78D2FDF91CF911F910F910895E82F58
:10405000F0E0E555FC4F808190E021E030E002C0C7
:10406000220F331F6A95E2F72823392381E0232B9F
:1040700009F480E0089541110DC0E82FF0E0E55506
:10408000FC4F21E001C0220F6A95EAF7209580815C
:10409000282320830895CF93DF93EC017DD08C1BE0
:1040A0009D0BDF91CF910895EF92FF920F931F9395
:1040B0007B018C017DD09701A801621B730B840BDF
:1040C000950B1F910F91FF90EF90089585B7806831
:1040D00085BF85B7806885BF08951F921FB61F9260
:1040E00011248F939F93AF93BF938091B30381115A
:1040F00013C08091DC039091DD03A091DE03B091A9
:10410000DF034196A11DB11D8093DC039093DD0375
:10411000A093DE03B093DF03BF91AF919F918F9186
:104120001F901FBE1F9018958091E403843031F1D9
:104130000E9441041092B30388E190E020E40FB69E
:10414000F894A895809360000FBE2093600083B719
:10415000817F846083BF83B7816083BF78948895B3
:1041600083B78E7F83BF0FB6F894A89580916000C7
:10417000886180936000109260000FBE08950E94D5
:10418000D8070C94450482E084BD93E095BD9AEF76
:1041900097BD80936E0008952FB7F8948091DC034B
:1041A0009091DD03A091DE03B091DF032FBF08954E
:1041B0002FB7F8946091DC037091DD038091DE03EA
:1041C0009091DF032FBF089578941F921FB61F921E
:1041D00011248F939F93AF93BF938091DC039091B1
:1041E000DD03A091DE03B091DF030196A11DB11D97
:1041F0008093DC039093DD03A093DE03B093DF0391
:10420000BF91AF919F918F911F901FBE1F901895E6
:1042100087E797E7809300089093010888E19AE088
:104220000FB6F894A895809360000FBE909360003D
:10423000FFCF88E19AE00FB6F894A89580936000CC
:104240000FBE90936000FFCF8EE14A9B02C0815069
:10425000E1F74A9BFECF08955A9880E28A95F1F7DC
:104260005A9A0895FC018BE08A95F1F728E080E0E6
:1042700090E031E040E14A95F1F7880F4A9B02C097
:104280008160932742E04A95F1F7000040E14A95AA
:10429000F1F7215079F720E12A95F1F729B132E0C1
:1042A0003A95F1F7000030E13A95F1F731E022FD5F
:1042B00093272081920F90830895A1E0B0E0E2E679
:1042C000F1E2D3C719828C017C01E60EF11CBCDF40
:1042D000CE010196C7DFF80181938F01EE15FF052E
:1042E000B1F781E09981911180E02196E6E0D9C78C
:1042F000529A5A9A089552985A9AEA9AE9E6F0E040
:1043000080818F7C808308956150770B91E001C09C
:10431000990F6A95EAF7692F90E021E0611108C0D2
:10432000911591F05A9A80E28A95F1F75A9808957A
:10433000362F382339F05A9A922730E23A95F1F71E
:104340006695ECCF5A98F9CF5A98EDCFFF920F931C
:104350001F93CF93DF93EC018C01060F111D899100
:10436000F82E7ADF68E08F2DCFDFC017D107B9F7BD
:10437000CDB7DEB7E5E096C71F920F920FB60F924A
:1043800011240F931F932F933F934F935F936F933A
:104390007F938F939F93AF93BF93EF93FF93CF93AD
:1043A000DF930F92CDB7DEB719824EDFCE010196B3
:1043B00059DF082F069506950695282F229525701A
:1043C000902F9570920F292F237096959695920FA6
:1043D000982797708981892B09F055C0053008F01E
:1043E00052C080E18A95F1F75A9A529A82E08A95F2
:1043F000F1F700C05A9888E0089F80011124D80185
:10440000A35ABE4F1696ED91FD911897309791F0F3
:10441000609102027091030214962D913D91260F36
:10442000371F15978D919D91680F791F4C911397A8
:104430008C910995F801E35AFE4F6381611549F0AB
:10444000209102023091030284819581820F931F93
:104450007DDF02DF80E18A95F1F75A9852985A9AE7
:1044600080E18A95F1F7F801E35AFE4F608161150A
:1044700049F0209102023091030281819281820FE2
:10448000931F1BDFE1DE0F90DF91CF91FF91EF9142
:10449000BF91AF919F918F917F916F915F914F915C
:1044A0003F912F911F910F910F900FBE0F901F9072
:1044B00018950F931F93CF93DF93EC0105970CF0A2
:1044C0005EC0F894529A5A9885E08A95F1F70000F8
:1044D0009C2F969595708C2F8570980F892F8370DF
:1044E00096959695292F93E0CC0FDD1F9A95E1F7CD
:1044F000280F822F8C2B082FAFDE00C068E0802FA2
:1045000003DF80E18A95F1F752985A9A4A9B30C0AE
:1045100087E090E04A992EC0FE01E35AFE4F638186
:10452000611559F020910202309103028481958136
:10453000820F931FC2DE8115F9F086DE80E28A9534
:10454000F1F75A98529A80E18A95F1F7C35ADE4FF3
:104550006881611549F0209102023091030289813E
:104560009A81820F931FF2DE77DE789481E008C093
:1045700000C0CCCF019749F4529A5A9A789480E0BF
:10458000DF91CF911F910F91089500C0C3CF08957F
:104590009B01BA019091E4039430D9F48F70809319
:1045A000E9009FEF8091E80085FD06C085ED8A95C2
:1045B000F1F700009150B1F78091E80085FF09C044
:1045C00040E050E0C901B1D18091E8008E7780933E
:1045D000E800089543E050E0BC0182E0D9CF40E21A
:1045E00050E0BC0182E0D4CFCF93DF93EC01E8DC54
:1045F00048E050E0BE0181E0CBDF88E0FE01A4EBA3
:10460000B3E001900D928A95E1F7DF91CF91089583
:104610008091E303811107C016D366D38091E20035
:1046200084608093E20008951092E3030895ABDC68
:1046300081E0B7CC6091E00381E0611101C080E0CE
:1046400094CC9091E40381E0943009F080E0609193
:10465000E00397CC42E061EC81E071D242E261EC90
:1046600082E06DD29091E40381E0943009F080E023
:104670006091E0036ECC8091E603893081F148F4CB
:10468000823009F496C0833009F457C0813041F07C
:1046900008958A3009F480C08B3009F468C0089509
:1046A0008091E503813A09F047C08091E800877F57
:1046B0008093E8008091E9039091EA03892B59F0F7
:1046C00060E080E090E070E07DD18091E8008B7741
:1046D0008093E800089568E084EB93E0F4CF809144
:1046E000E503813249F58091E9039091EA0302974D
:1046F00018F58091E800877F8093E8008091E800BA
:1047000082FF16C02091F3008091F200922F029751
:1047100031F48091F100813011F0863019F48091EC
:10472000F10051DC8091E8008B778093E8003BC278
:104730008091E4038111E2CF08958091E503813AED
:10474000D9F78091E9039091EA03892BA9F7809129
:10475000E800877F8093E8008091E80080FFFCCF2D
:104760002FDC8093F1008091E8008E77DECF80917E
:10477000E503813209F78091E9039091EA03892BDF
:10478000D9F68091E800877F8093E8000CD2809171
:10479000E70307DC0C94D8078091E503813261F6CA
:1047A0008091E800877F8093E800FDD18091E80345
:1047B00018CC8091E503813A09F0BECF8091E800E2
:1047C000877F8093E8008091E80080FFFCCF14DCB5
:1047D000C8CF84B7877F84BF0FB6F894A89580911F
:1047E0006000886180936000109260000FBE80E8D6
:1047F00090E00FB6F89480936100909361000FBE33
:10480000CECB21D271D2E2EEF0E080818460808351
:104810007894CDC482E891E016CA8091E403853093
:1048200029F48091E403853011F0A9CC08957CDC53
:10483000EEDB8115B1F38091E203811591F35FD036
:104840000E94D807EECF08959A014091EB03509152
:10485000EC0300C0492F50E043305105C9F070F41B
:1048600041305105E9F14230510571F48BE390E09C
:1048700048E753E0F90140835183089541325105DF
:10488000E9F04232510519F180E090E040E0F2CFCA
:10489000482F50E0813061F04230510561F0E4E78B
:1048A000F3E04115510581F7849190E0AF01E2CF2B
:1048B000E2E6F3E0F9CFE4E5F3E0F6CF613071052D
:1048C000A0F011F789E090E043EA53E0D3CF6130E4
:1048D000710580F0C9F68DE690E045EC53E0CACF53
:1048E00082E190E043EB53E0C5CF89E090E04AE8F5
:1048F00053E0C0CF84E490E042E354E0BBCF80E1DA
:1049000089BD82E189BD09B400FEFDCF8091D80048
:104910008F7D8093D8008091E00082608093E000DA
:104920008091E00081FDFCCF0895AF92BF92CF92BD
:10493000DF92FF920F931F93CF93DF936C01EB01F4
:104940008A0150D1F82E811123C00115110539F0CB
:10495000F80180819181C81BD90BC80ED91EA12CEA
:10496000B12C2097A9F08091E80085FD21C08091AD
:10497000E8008E778093E80001151105A1F0F80199
:10498000808191818A0D9B1D8083918385E0F82E23
:104990008F2DDF91CF911F910F91FF90DF90CF90DE
:1049A000BF90AF9008951ED18115E9F2F82EF0CF97
:1049B000F60181916F018093F10021978FEFA81A82
:1049C000B80ACFCFFC012091EB033091EC032617FE
:1049D000370720F06115710569F09B0190E0211502
:1049E000310571F491110CC08091E80082FF38C04C
:1049F00080E008959091E8009E779093E800EDCFD5
:104A00008091E4038115C1F18530C1F18091E80006
:104A100083FD30C08091E80082FDE6CF8091E80000
:104A200080FFDDCF8091F3004091F200582F2115D7
:104A3000310519F04830510558F091E048305105E2
:104A400009F090E04091E8004E774093E800C7CF2E
:104A500081918093F100215031094F5F5F4FE7CF83
:104A60008091E403811541F0853041F08091E800A8
:104A700083FFBACF81E0089582E0089583E008952E
:104A8000FC012091EB033091EC032617370720F04F
:104A90006115710569F09B0190E02115310571F4F4
:104AA00091110CC08091E80082FF39C080E0089528
:104AB0008091E8008E778093E800EDCF8091E40349
:104AC0008115C9F18530C9F18091E80083FD31C0BD
:104AD0008091E80082FDE6CF8091E80080FFDDCF85
:104AE0008091F3004091F200582F2115310519F003
:104AF0004830510558F091E04830510509F090E0F8
:104B00008091E8008E778093E800C7CF84918093EE
:104B1000F1003196215031094F5F5F4FE6CF809110
:104B2000E403811541F0853041F08091E80083FF76
:104B3000B9CF81E0089582E0089583E00895982F29
:104B4000973028F08F708093E90081E0089590936A
:104B5000E900242F762F50E0981731F07091EC0087
:104B60002091ED005091F00021FD02C09F5FE8CF41
:104B70003091EB003E7F3093EB003091ED003D7FB4
:104B80003093ED003091EB0031603093EB00709387
:104B9000EC002093ED005093F0002091EE0027FDF3
:104BA000E5CF80E008958091E50387FF13C08091F1
:104BB000E80082FF06C08091E8008B778093E800D0
:104BC00008958091E4038111F2CF08958091E40368
:104BD0008115D9F38091E80080FFF8CF8091E8003B
:104BE0008E77ECCF2091E4003091E50095E6A901A5
:104BF0002091EC00822F817020FF06C08091E80098
:104C000080FF06C080E008952091E80022FD1AC0D0
:104C10008091E403811589F0853089F08091EB0063
:104C200085FD0FC02091E4003091E5004217530745
:104C3000F9F29150E1F684E0089582E0089583E06E
:104C4000089581E008955FD066D0E0EEF0E08081C5
:104C500081608083E8ED80818F77808319BCA7ED28
:104C6000B0E08C918E7F8C9380818F7E80831092B8
:104C7000E3030895CF93DF9346D04DD0C8EDD0E045
:104C800088818F77888388818068888388818F7DF9
:104C9000888319BC1092E4031092E0031092E2039F
:104CA0001092E103E0EEF0E080818B7F80838881C9
:104CB0008160888342E060E080E041DFE1EEF0E087
:104CC00080818E7F8083E2EE80818160808380811D
:104CD00088608083E0EE80818E7F80838881806120
:104CE0008883DF91CF910895E8EDF0E080818F7E99
:104CF0008083E7ED80818160808384E082BF81E0F2
:104D00008093E303B7CFE8EDF0E080818E7F80836E
:104D10001092E20008951092DA001092E1000895D6
:104D20001F920F920FB60F9211242F933F934F9320
:104D30005F936F937F938F939F93AF93BF93EF9303
:104D4000FF938091E10082FF0AC08091E20082FF20
:104D500006C08091E1008B7F8093E10027D2809193
:104D6000DA0080FF18C08091D80080FF14C08091C5
:104D7000DA008E7F8093DA008091D90080FF8FC0A7
:104D800080E189BD82E189BD09B400FEFDCF81E0EB
:104D90008093E4033DDC8091E10080FF18C08091A6
:104DA000E20080FF14C08091E2008E7F8093E200D9
:104DB0008091E20080618093E2008091D80080625F
:104DC0008093D80019BC85E08093E40333DC8091A4
:104DD000E10084FF28C08091E20084FF24C080E1CC
:104DE00089BD82E189BD09B400FEFDCF8091D80064
:104DF0008F7D8093D8008091E1008F7E8093E100C9
:104E00008091E2008F7E8093E2008091E2008160D9
:104E10008093E2008091E003811509F445C084E0AD
:104E20008093E4030EDC8091E10083FF27C0809132
:104E3000E20083FF23C08091E100877F8093E1003F
:104E400082E08093E4031092E0038091E1008E7F82
:104E50008093E1008091E2008E7F8093E200809158
:104E6000E20080618093E20042E060E080E067DE83
:104E70008091F00088608093F000D9DBFF91EF9182
:104E8000BF91AF919F918F917F916F915F914F9162
:104E90003F912F910F900FBE0F901F90189519BC46
:104EA0001092E403C1DB77CF8091E30087FF02C05B
:104EB00083E0B6CF81E0B4CF1F920F920FB60F926E
:104EC00011241F932F933F934F935F936F937F937F
:104ED0008F939F93AF93BF93CF93DF93EF93FF9302
:104EE000E9EEF0E080811091EC008F7010FB11274B
:104EF00017F9182B1082C0EFD0E08881877F888354
:104F000078941CD0E9EEF0E0108288818860888374
:104F10001F701083FF91EF91DF91CF91BF91AF91FF
:104F20009F918F917F916F915F914F913F912F91C1
:104F30001F910F900FBE0F901F901895AAE2B0E03E
:104F4000E3EAF7E295C185EE93E0FC01019620913A
:104F5000F100208323E08D3E9207B9F78CDB80912E
:104F6000E80083FF37C08091E5039091E6039A3013
:104F700088F5E92FF0E0EC51F64D65C1803889F0F5
:104F8000823841F58091E9038F70873018F580935E
:104F9000E9008091EB0085FB882780F91092E900F9
:104FA00006C08091E203880F9091E103892B9091D4
:104FB000E800977F9093E8008093F1001092F10051
:104FC0008091E8008E7722C0811115C08091E7039F
:104FD000813001F18091E80083FF0AC08091E800F0
:104FE000877F8093E8008091EB0080628093EB00E4
:104FF000AA96E3E059C1823069F78091E7038115F1
:1050000079F01092E9008091E800877F8093E800B2
:10501000CADDE0CF933009F080E08093E203F1CF66
:105020008091E9038F70282F2150263098F68093C5
:10503000E9002091EB0020FFE4CF933031F4809120
:10504000EB0080628093EB00DCCF9091EB009061ED
:105050009093EB0021E001C0220F8A95EAF720939C
:10506000EA001092EA008091EB008860EBCF81119A
:10507000B1CF8091E7038F77182F8091E30080787C
:10508000812B8093E3008091E800877F8093E80084
:105090008ADD8091E80080FFFCCF8091E30080688A
:1050A0008093E30083E0111101C082E08093E40368
:1050B00091CF8058823008F08DCF8091E703909196
:1050C000E8038C3D23E0920789F583E08A838AE236
:1050D00089834FB7F894DE01139620E03EE051E259
:1050E000E32FF0E050935700849120FF03C0829596
:1050F0008F703F5F8F708A30B8F0895C8D931D92FE
:105100002F5F243169F74FBF8091E800877F80933C
:10511000E8006AE270E0CE01019654DC8091E8007C
:105120008B778093E80056CF805DE8CF6091E903EC
:105130007091EA03AE014F5F5F4F86DBBC01892BA4
:1051400009F448CF9091E800977F9093E800898117
:105150009A8196DCE3CF803809F03CCF8091E8005B
:10516000877F8093E8008091E0038093F10028CF4F
:10517000811130CF9091E703923008F02BCF8091CE
:10518000E800877F8093E8009093E0030CDD809136
:10519000E003811529F084E08093E4035BDA1ACF01
:1051A0008091E30087FDF7CF81E0F6CF0895CF939C
:1051B0008091E403811591F08091E900C091EC00A9
:1051C0008F70C0FBCC27C7F9C82B1092E9008091E3
:1051D000E80083FDB3DECF70C093E900CF9108955E
:1051E00032DD1092E4030895E8EDF0E08081806103
:1051F00080838AE18A95F1F700C08091D90081709F
:105200000895A1E21A2EAA1BBB1BFD010DC0AA1F07
:10521000BB1FEE1FFF1FA217B307E407F50720F01F
:10522000A21BB30BE40BF50B661F771F881F991F9A
:105230001A9469F760957095809590959B01AC01E3
:10524000BD01CF010895EE0FFF1F0590F491E02DF1
:1052500009942F923F924F925F926F927F928F921A
:105260009F92AF92BF92CF92DF92EF92FF920F93F5
:105270001F93CF93DF93CDB7DEB7CA1BDB0B0FB6FF
:10528000F894DEBF0FBECDBF09942A8839884888BC
:105290005F846E847D848C849B84AA84B984C88452
:1052A000DF80EE80FD800C811B81AA81B981CE0F49
:1052B000D11D0FB6F894DEBF0FBECDBFED0108952E
:1052C000FB01DC0104C08D910190801921F4415053
:1052D0005040C8F7881B990B0895FB01DC0102C000
:1052E00001900D9241505040D8F70895F999FECFA2
:1052F00092BD81BDF89A992780B50895A8E1B0E0E4
:1053000042E050E020C0262FF999FECF92BD81BD2A
:10531000F89A019700B4021639F01FBA20BD0FB6F3
:10532000F894FA9AF99A0FBE08950396272FECDFA6
:10533000EADF252FE9DF242FE7CF0196272FE4DFCF
:10534000E2CFDC01CB01FC01F999FECF06C0F2BD32
:10535000E1BDF89A319600B40D9241505040B8F733
:105360000895F894FFCF6602720279027F028502E7
:1053700089028F029502531AC21A5B1A251A291A3A
:105380005F1A2D1A631A6F1A391ABB1A3D1A731A4B
:10539000411A771A9C1A451A7B1AA31A4B1A811ABA
:1053A000891A311A671A351A6B1A4F1A851A931A05
:1053B000AC1AB91A1F1A571AC91A761C7C1C671C1A
:1053C000701C821C881C8E1CBE27E427EA27E42759
:0C53D000EA2737285928EA27AB28B8281C
:1053DC009E02737C0000009802737C000000920215
:1053EC0064520000008C0264520000003B1D4C1DF6
:1053FC00511D000050013B1D4C1D511D00004C0166
:10540C003B1D4C1D511D000048013B1D4C1D511DE9
:10541C0000004401380031003600300010002F002D
:10542C0013003400FF00AA00AD02CD020100000001
:10543C000100000000000000040100000004050051
:10544C000000000000040900000000000001000042
:10545C000100EE1FF422EF22C722EA22E200E9004B
:10546C00EA00B500B600B700CD008301CC008A017C
:10547C009201940121022302240225022602270212
:10548C002A02B300B4006F0070009F01CB019F0291
:10549C00A002E200E900EA00B500B600B700CD00BA
:1054AC008301CC008A01920194012102230224027F
:1054BC002502260227022A02B300B4006F007000F6
:1054CC009F01CB019F02A002F4F5F6F731339466ED
:0454DC0097C6EB0282
:00000001FF
